{
  "contractName": "AguaclaraRouter",
  "abi": [
    {
      "inputs": [
        {
          "internalType": "address",
          "name": "_onlyOwner",
          "type": "address"
        },
        {
          "internalType": "address",
          "name": "_verifier",
          "type": "address"
        }
      ],
      "stateMutability": "nonpayable",
      "type": "constructor"
    },
    {
      "anonymous": false,
      "inputs": [
        {
          "indexed": false,
          "internalType": "address",
          "name": "receiver",
          "type": "address"
        },
        {
          "indexed": false,
          "internalType": "string",
          "name": "uri",
          "type": "string"
        },
        {
          "indexed": false,
          "internalType": "uint256",
          "name": "tokenID",
          "type": "uint256"
        }
      ],
      "name": "MetadataOwnershipChanged",
      "type": "event"
    },
    {
      "inputs": [
        {
          "internalType": "bytes32",
          "name": "",
          "type": "bytes32"
        }
      ],
      "name": "headers",
      "outputs": [
        {
          "internalType": "bytes",
          "name": "",
          "type": "bytes"
        }
      ],
      "stateMutability": "view",
      "type": "function",
      "constant": true
    },
    {
      "inputs": [],
      "name": "owner",
      "outputs": [
        {
          "internalType": "address",
          "name": "",
          "type": "address"
        }
      ],
      "stateMutability": "view",
      "type": "function",
      "constant": true
    },
    {
      "inputs": [],
      "name": "verifier",
      "outputs": [
        {
          "internalType": "contract AnconVerifier",
          "name": "",
          "type": "address"
        }
      ],
      "stateMutability": "view",
      "type": "function",
      "constant": true
    },
    {
      "inputs": [
        {
          "internalType": "bytes32",
          "name": "key",
          "type": "bytes32"
        },
        {
          "internalType": "bytes",
          "name": "rootHash",
          "type": "bytes"
        }
      ],
      "name": "updateHeader",
      "outputs": [
        {
          "internalType": "bool",
          "name": "",
          "type": "bool"
        }
      ],
      "stateMutability": "nonpayable",
      "type": "function"
    },
    {
      "inputs": [
        {
          "internalType": "uint256[]",
          "name": "leafOpUint",
          "type": "uint256[]"
        },
        {
          "internalType": "bytes",
          "name": "prefix",
          "type": "bytes"
        },
        {
          "internalType": "bytes[][]",
          "name": "existenceProofInnerOp",
          "type": "bytes[][]"
        },
        {
          "internalType": "uint256",
          "name": "existenceProofInnerOpHash",
          "type": "uint256"
        },
        {
          "internalType": "bytes",
          "name": "existenceProofKey",
          "type": "bytes"
        },
        {
          "internalType": "bytes",
          "name": "existenceProofValue",
          "type": "bytes"
        },
        {
          "internalType": "bytes",
          "name": "key",
          "type": "bytes"
        },
        {
          "internalType": "bytes",
          "name": "value",
          "type": "bytes"
        },
        {
          "internalType": "bytes",
          "name": "packetMetadataUri",
          "type": "bytes"
        }
      ],
      "name": "verifyOwnershipReference",
      "outputs": [
        {
          "internalType": "bool",
          "name": "",
          "type": "bool"
        }
      ],
      "stateMutability": "view",
      "type": "function",
      "constant": true
    },
    {
      "inputs": [
        {
          "internalType": "uint256[]",
          "name": "leafOpUint",
          "type": "uint256[]"
        },
        {
          "internalType": "bytes",
          "name": "prefix",
          "type": "bytes"
        },
        {
          "internalType": "bytes[][]",
          "name": "existenceProofInnerOp",
          "type": "bytes[][]"
        },
        {
          "internalType": "uint256",
          "name": "existenceProofInnerOpHash",
          "type": "uint256"
        },
        {
          "internalType": "bytes",
          "name": "existenceProofKey",
          "type": "bytes"
        },
        {
          "internalType": "bytes",
          "name": "existenceProofValue",
          "type": "bytes"
        },
        {
          "internalType": "bytes",
          "name": "key",
          "type": "bytes"
        },
        {
          "internalType": "bytes",
          "name": "value",
          "type": "bytes"
        },
        {
          "internalType": "string",
          "name": "metadata",
          "type": "string"
        },
        {
          "internalType": "uint256",
          "name": "tokenId",
          "type": "uint256"
        },
        {
          "internalType": "address",
          "name": "tokenAddress",
          "type": "address"
        },
        {
          "internalType": "address",
          "name": "to",
          "type": "address"
        }
      ],
      "name": "sendMetadataOwnership",
      "outputs": [
        {
          "internalType": "bool",
          "name": "",
          "type": "bool"
        }
      ],
      "stateMutability": "nonpayable",
      "type": "function"
    }
  ],
  "bytecode": "0x608060405234801561001057600080fd5b506040516110d03803806110d083398101604081905261002f9161007e565b50600080546001600160a01b039283166001600160a01b03199182161790915560018054918216919092161790556100b1565b80516001600160a01b038116811461007957600080fd5b919050565b6000806040838503121561009157600080fd5b61009a83610062565b91506100a860208401610062565b90509250929050565b611010806100c06000396000f3fe608060405234801561001057600080fd5b50600436106100725760003560e01c80639e7f2700116100505780639e7f2700146100dd578063dfb805b5146100fd578063ea2c5f201461011057600080fd5b80632b7ac3f3146100775780632ffa93d9146100a75780638da5cb5b146100ca575b600080fd5b60015461008a906001600160a01b031681565b6040516001600160a01b0390911681526020015b60405180910390f35b6100ba6100b53660046107cd565b610123565b604051901515815260200161009e565b60005461008a906001600160a01b031681565b6100f06100eb366004610814565b61014b565b60405161009e9190610889565b6100ba61010b366004610a48565b6101e5565b6100ba61011e366004610bfc565b610553565b6000828152600260209081526040822083516101419285019061066f565b5060019392505050565b6002602052600090815260409020805461016490610d46565b80601f016020809104026020016040519081016040528092919081815260200182805461019090610d46565b80156101dd5780601f106101b2576101008083540402835291602001916101dd565b820191906000526020600020905b8154815290600101906020018083116101c057829003601f168201915b505050505081565b600080600160009054906101000a90046001600160a01b03166001600160a01b0316634987dfd38f8f8f8f8f8f6040518763ffffffff1660e01b815260040161023396959493929190610e19565b60006040518083038186803b15801561024b57600080fd5b505afa15801561025f573d6000803e3d6000fd5b505050506040513d6000823e601f3d908101601f191682016040526102879190810190610eb6565b90506000600260008a80519060200120815260200190815260200160002080546102b090610d46565b80601f01602080910402602001604051908101604052809291908181526020018280546102dc90610d46565b80156103295780601f106102fe57610100808354040283529160200191610329565b820191906000526020600020905b81548152906001019060200180831161030c57829003601f168201915b5050505050905081805190602001208180519060200120146103925760405162461bcd60e51b815260206004820152601560248201527f496e76616c69642050726f6f6620666f72206b6579000000000000000000000060448201526064015b60405180910390fd5b6040517f6352211e00000000000000000000000000000000000000000000000000000000815260048101879052859033906001600160a01b03831690636352211e9060240160206040518083038186803b1580156103ef57600080fd5b505afa158015610403573d6000803e3d6000fd5b505050506040513d601f19601f820116820180604052508101906104279190610f2d565b6001600160a01b03161461047d5760405162461bcd60e51b815260206004820152601060248201527f496e76616c696420746f6b656e206964000000000000000000000000000000006044820152606401610389565b806001600160a01b031663b88d4fde33878a8c8c6040516020016104a2929190610f4a565b6040516020818303038152906040526040518563ffffffff1660e01b81526004016104d09493929190610f6c565b600060405180830381600087803b1580156104ea57600080fd5b505af11580156104fe573d6000803e3d6000fd5b505050507fe0d8745259cf7928958dc7cdd24d266696b907c9ae6e49ecfaf81543c4fd6c7485898960405161053593929190610fa8565b60405180910390a15060019f9e505050505050505050505050505050565b6001546040517f4987dfd300000000000000000000000000000000000000000000000000000000815260009182916001600160a01b0390911690634987dfd3906105ab908e908e908e908e908e908e90600401610e19565b60006040518083038186803b1580156105c357600080fd5b505afa1580156105d7573d6000803e3d6000fd5b505050506040513d6000823e601f3d908101601f191682016040526105ff9190810190610eb6565b9050828051906020012084805190602001201461065e5760405162461bcd60e51b815260206004820152601560248201527f496e76616c69642050726f6f6620666f72206b657900000000000000000000006044820152606401610389565b5060019a9950505050505050505050565b82805461067b90610d46565b90600052602060002090601f01602090048101928261069d57600085556106e3565b82601f106106b657805160ff19168380011785556106e3565b828001600101855582156106e3579182015b828111156106e35782518255916020019190600101906106c8565b506106ef9291506106f3565b5090565b5b808211156106ef57600081556001016106f4565b634e487b7160e01b600052604160045260246000fd5b604051601f8201601f1916810167ffffffffffffffff8111828210171561074757610747610708565b604052919050565b600067ffffffffffffffff82111561076957610769610708565b50601f01601f191660200190565b600082601f83011261078857600080fd5b813561079b6107968261074f565b61071e565b8181528460208386010111156107b057600080fd5b816020850160208301376000918101602001919091529392505050565b600080604083850312156107e057600080fd5b82359150602083013567ffffffffffffffff8111156107fe57600080fd5b61080a85828601610777565b9150509250929050565b60006020828403121561082657600080fd5b5035919050565b60005b83811015610848578181015183820152602001610830565b83811115610857576000848401525b50505050565b6000815180845261087581602086016020860161082d565b601f01601f19169290920160200192915050565b60208152600061089c602083018461085d565b9392505050565b600067ffffffffffffffff8211156108bd576108bd610708565b5060051b60200190565b600082601f8301126108d857600080fd5b813560206108e8610796836108a3565b82815260059290921b8401810191818101908684111561090757600080fd5b8286015b84811015610922578035835291830191830161090b565b509695505050505050565b600082601f83011261093e57600080fd5b8135602061094e610796836108a3565b82815260059290921b8401810191818101908684111561096d57600080fd5b8286015b8481101561092257803567ffffffffffffffff8082111561099157600080fd5b818901915089603f8301126109a557600080fd5b858201356109b5610796826108a3565b81815260059190911b830160400190878101908c8311156109d557600080fd5b604085015b83811015610a0e578035858111156109f157600080fd5b610a008f6040838a0101610777565b8452509189019189016109da565b50875250505092840192508301610971565b6001600160a01b0381168114610a3557600080fd5b50565b8035610a4381610a20565b919050565b6000806000806000806000806000806000806101808d8f031215610a6b57600080fd5b67ffffffffffffffff8d351115610a8157600080fd5b610a8e8e8e358f016108c7565b9b5067ffffffffffffffff60208e01351115610aa957600080fd5b610ab98e60208f01358f01610777565b9a5067ffffffffffffffff60408e01351115610ad457600080fd5b610ae48e60408f01358f0161092d565b995060608d0135985067ffffffffffffffff60808e01351115610b0657600080fd5b610b168e60808f01358f01610777565b975067ffffffffffffffff60a08e01351115610b3157600080fd5b610b418e60a08f01358f01610777565b965067ffffffffffffffff60c08e01351115610b5c57600080fd5b610b6c8e60c08f01358f01610777565b955067ffffffffffffffff60e08e01351115610b8757600080fd5b610b978e60e08f01358f01610777565b945067ffffffffffffffff6101008e01351115610bb357600080fd5b610bc48e6101008f01358f01610777565b93506101208d01359250610bdb6101408e01610a38565b9150610bea6101608e01610a38565b90509295989b509295989b509295989b565b60008060008060008060008060006101208a8c031215610c1b57600080fd5b893567ffffffffffffffff80821115610c3357600080fd5b610c3f8d838e016108c7565b9a5060208c0135915080821115610c5557600080fd5b610c618d838e01610777565b995060408c0135915080821115610c7757600080fd5b610c838d838e0161092d565b985060608c0135975060808c0135915080821115610ca057600080fd5b610cac8d838e01610777565b965060a08c0135915080821115610cc257600080fd5b610cce8d838e01610777565b955060c08c0135915080821115610ce457600080fd5b610cf08d838e01610777565b945060e08c0135915080821115610d0657600080fd5b610d128d838e01610777565b93506101008c0135915080821115610d2957600080fd5b50610d368c828d01610777565b9150509295985092959850929598565b600181811c90821680610d5a57607f821691505b60208210811415610d7b57634e487b7160e01b600052602260045260246000fd5b50919050565b600081518084526020808501808196506005915083821b81018387016000805b87811015610e0a578484038b5282518051808652908801908886019080891b87018a01855b82811015610df457601f19898303018452610de282865161085d565b948c0194938c01939150600101610dc6565b509d8a019d965050509287019250600101610da1565b50919998505050505050505050565b60c0808252875190820181905260009060209060e0840190828b01845b82811015610e5257815184529284019290840190600101610e36565b50505083810382850152610e66818a61085d565b9150508281036040840152610e7b8188610d81565b90508560608401528281036080840152610e95818661085d565b905082810360a0840152610ea9818561085d565b9998505050505050505050565b600060208284031215610ec857600080fd5b815167ffffffffffffffff811115610edf57600080fd5b8201601f81018413610ef057600080fd5b8051610efe6107968261074f565b818152856020838501011115610f1357600080fd5b610f2482602083016020860161082d565b95945050505050565b600060208284031215610f3f57600080fd5b815161089c81610a20565b60008351610f5c81846020880161082d565b9190910191825250602001919050565b60006001600160a01b03808716835280861660208401525083604083015260806060830152610f9e608083018461085d565b9695505050505050565b6001600160a01b0384168152606060208201526000610fca606083018561085d565b905082604083015294935050505056fea2646970667358221220809c6e70474b71483c288ff603b1750922da2c966667c33ff6091601110be3ed64736f6c63430008090033",
  "immutableReferences": {},
  "source": "// SPDX-License-Identifier: MIT\npragma solidity ^0.8.7;\n\nimport \"./AnconVerifier.sol\";\nimport \"@openzeppelin/contracts/access/Ownable.sol\";\nimport \"@openzeppelin/contracts/token/ERC20/IERC20.sol\";\nimport \"@openzeppelin/contracts/token/ERC721/IERC721Receiver.sol\";\nimport \"@openzeppelin/contracts/token/ERC721/ERC721.sol\";\nimport \"@openzeppelin/contracts/token/ERC721/extensions/ERC721Burnable.sol\";\nimport \"@openzeppelin/contracts/token/ERC721/extensions/ERC721Pausable.sol\";\nimport \"@openzeppelin/contracts/token/ERC721/extensions/ERC721URIStorage.sol\";\n\n contract AguaclaraRouter {\n    address public owner;\n    AnconVerifier public verifier;\n    mapping(bytes32 => bytes) public headers;\n\n    event MetadataOwnershipChanged(\n        address receiver,\n        string uri,\n        uint256 tokenID\n    );\n\n    constructor(address _onlyOwner, address _verifier) public {\n        owner = _onlyOwner;\n        verifier = AnconVerifier(verifier);\n    }\n\n    function updateHeader(bytes32 key, bytes memory rootHash)\n        public\n        returns (bool)\n    {\n        headers[key] = rootHash;\n        return true;\n    }\n\n    function verifyOwnershipReference(\n           // -- existence proof\n        uint256[] memory leafOpUint,\n        bytes memory prefix,\n        bytes[][] memory existenceProofInnerOp,\n        uint256 existenceProofInnerOpHash,\n        bytes memory existenceProofKey,\n        bytes memory existenceProofValue,\n        bytes memory key,\n        bytes memory value,\n        bytes memory packetMetadataUri\n    ) public view returns (bool) {\n        // 1. Verify\n        bytes memory calculatedHash = verifier.queryRootCalculation(\n            leafOpUint,\n            prefix,\n            existenceProofInnerOp,\n            existenceProofInnerOpHash,\n            existenceProofKey,\n            existenceProofValue\n        );\n        // https://github.com/smartcontractkit/solidity-cborutils\n        // Use https://github.com/chrisdotn/jsmnSol\n        require(\n            keccak256(value) == keccak256(packetMetadataUri),\n            \"Invalid Proof for key\"\n        );\n\n        return true;\n    }\n\n    function sendMetadataOwnership(\n        // -- existence proof\n        uint256[] memory leafOpUint,\n        bytes memory prefix,\n        bytes[][] memory existenceProofInnerOp,\n        uint256 existenceProofInnerOpHash,\n        bytes memory existenceProofKey,\n        bytes memory existenceProofValue,\n        bytes memory key,\n        bytes memory value,\n        // -- ics23 packet\n        string memory metadata,\n        uint256 tokenId,\n        address tokenAddress,\n        address to\n    ) public returns (bool) {\n        // 1. Verify\n        bytes memory calculatedHash = verifier.queryRootCalculation(\n            leafOpUint,\n            prefix,\n            existenceProofInnerOp,\n            existenceProofInnerOpHash,\n            existenceProofKey,\n            existenceProofValue\n        );\n        bytes memory current = headers[keccak256(key)];\n        require(\n            keccak256(current) == keccak256(calculatedHash),\n            \"Invalid Proof for key\"\n        );\n\n        // 2. Instantiate NFT and query\n        ERC721 nft = ERC721(tokenAddress);\n        require(nft.ownerOf(tokenId) == msg.sender, \"Invalid token id\");\n\n        // if (isNew) {\n        //     // todo: should mint\n        // } else {\n        nft.safeTransferFrom(\n            msg.sender,\n            to,\n            tokenId,\n            abi.encodePacked(metadata, tokenId)\n        );\n        //        }\n\n        emit MetadataOwnershipChanged(to, metadata, tokenId);\n\n        return true;\n    }\n}\n",
  "sourcePath": "/home/rogelio/Code/ancon-protocol/ethereum/contracts/ancon/AguaclaraRouter.sol",
  "compiler": {
    "name": "solc",
    "version": "0.8.9+commit.e5eed63a.Emscripten.clang"
  },
  "schemaVersion": "3.4.0",
  "updatedAt": "2021-11-08T12:00:00.899Z",
  "networkType": "ethereum",
  "devdoc": {
    "kind": "dev",
    "methods": {},
    "version": 1
  },
  "userdoc": {
    "kind": "user",
    "methods": {},
    "version": 1
  }
}