{
  "contractName": "AguaclaraRouter",
  "abi": [
    {
      "inputs": [
        {
          "internalType": "address",
          "name": "_onlyOwner",
          "type": "address"
        },
        {
          "internalType": "address",
          "name": "_verifier",
          "type": "address"
        }
      ],
      "stateMutability": "nonpayable",
      "type": "constructor"
    },
    {
      "anonymous": false,
      "inputs": [
        {
          "indexed": false,
          "internalType": "address",
          "name": "receiver",
          "type": "address"
        },
        {
          "indexed": false,
          "internalType": "string",
          "name": "uri",
          "type": "string"
        },
        {
          "indexed": false,
          "internalType": "uint256",
          "name": "tokenID",
          "type": "uint256"
        }
      ],
      "name": "MetadataOwnershipChanged",
      "type": "event"
    },
    {
      "inputs": [
        {
          "internalType": "bytes32",
          "name": "",
          "type": "bytes32"
        }
      ],
      "name": "headers",
      "outputs": [
        {
          "internalType": "bytes",
          "name": "",
          "type": "bytes"
        }
      ],
      "stateMutability": "view",
      "type": "function",
      "constant": true
    },
    {
      "inputs": [],
      "name": "owner",
      "outputs": [
        {
          "internalType": "address",
          "name": "",
          "type": "address"
        }
      ],
      "stateMutability": "view",
      "type": "function",
      "constant": true
    },
    {
      "inputs": [],
      "name": "verifier",
      "outputs": [
        {
          "internalType": "contract AnconVerifier",
          "name": "",
          "type": "address"
        }
      ],
      "stateMutability": "view",
      "type": "function",
      "constant": true
    },
    {
      "inputs": [
        {
          "internalType": "bytes32",
          "name": "key",
          "type": "bytes32"
        },
        {
          "internalType": "bytes",
          "name": "rootHash",
          "type": "bytes"
        }
      ],
      "name": "updateHeader",
      "outputs": [
        {
          "internalType": "bool",
          "name": "",
          "type": "bool"
        }
      ],
      "stateMutability": "nonpayable",
      "type": "function"
    },
    {
      "inputs": [
        {
          "internalType": "uint256[]",
          "name": "leafOpUint",
          "type": "uint256[]"
        },
        {
          "internalType": "bytes",
          "name": "prefix",
          "type": "bytes"
        },
        {
          "internalType": "bytes[][]",
          "name": "existenceProofInnerOp",
          "type": "bytes[][]"
        },
        {
          "internalType": "uint256",
          "name": "existenceProofInnerOpHash",
          "type": "uint256"
        },
        {
          "internalType": "bytes",
          "name": "existenceProofKey",
          "type": "bytes"
        },
        {
          "internalType": "bytes",
          "name": "existenceProofValue",
          "type": "bytes"
        },
        {
          "internalType": "bytes",
          "name": "key",
          "type": "bytes"
        },
        {
          "internalType": "bytes",
          "name": "value",
          "type": "bytes"
        },
        {
          "internalType": "bytes",
          "name": "packetMetadataUri",
          "type": "bytes"
        }
      ],
      "name": "verifyOwnershipReference",
      "outputs": [
        {
          "internalType": "bool",
          "name": "",
          "type": "bool"
        }
      ],
      "stateMutability": "view",
      "type": "function",
      "constant": true
    },
    {
      "inputs": [
        {
          "internalType": "uint256[]",
          "name": "leafOpUint",
          "type": "uint256[]"
        },
        {
          "internalType": "bytes",
          "name": "prefix",
          "type": "bytes"
        },
        {
          "internalType": "bytes[][]",
          "name": "existenceProofInnerOp",
          "type": "bytes[][]"
        },
        {
          "internalType": "uint256",
          "name": "existenceProofInnerOpHash",
          "type": "uint256"
        },
        {
          "internalType": "bytes",
          "name": "existenceProofKey",
          "type": "bytes"
        },
        {
          "internalType": "bytes",
          "name": "existenceProofValue",
          "type": "bytes"
        },
        {
          "internalType": "bytes",
          "name": "key",
          "type": "bytes"
        },
        {
          "internalType": "bytes",
          "name": "value",
          "type": "bytes"
        },
        {
          "internalType": "string",
          "name": "metadata",
          "type": "string"
        },
        {
          "internalType": "uint256",
          "name": "tokenId",
          "type": "uint256"
        },
        {
          "internalType": "address",
          "name": "tokenAddress",
          "type": "address"
        },
        {
          "internalType": "address",
          "name": "to",
          "type": "address"
        }
      ],
      "name": "sendMetadataOwnership",
      "outputs": [
        {
          "internalType": "bool",
          "name": "",
          "type": "bool"
        }
      ],
      "stateMutability": "nonpayable",
      "type": "function"
    }
  ],
  "bytecode": "0x608060405234801561001057600080fd5b5060405161104538038061104583398101604081905261002f9161007e565b50600080546001600160a01b039283166001600160a01b03199182161790915560018054918216919092161790556100b1565b80516001600160a01b038116811461007957600080fd5b919050565b6000806040838503121561009157600080fd5b61009a83610062565b91506100a860208401610062565b90509250929050565b610f85806100c06000396000f3fe608060405234801561001057600080fd5b50600436106100725760003560e01c80639e7f2700116100505780639e7f2700146100dd578063dfb805b5146100fd578063ea2c5f201461011057600080fd5b80632b7ac3f3146100775780632ffa93d9146100a75780638da5cb5b146100ca575b600080fd5b60015461008a906001600160a01b031681565b6040516001600160a01b0390911681526020015b60405180910390f35b6100ba6100b5366004610742565b610123565b604051901515815260200161009e565b60005461008a906001600160a01b031681565b6100f06100eb366004610789565b61014b565b60405161009e91906107fe565b6100ba61010b3660046109bd565b6101e5565b6100ba61011e366004610b71565b610535565b600082815260026020908152604082208351610141928501906105e4565b5060019392505050565b6002602052600090815260409020805461016490610cbb565b80601f016020809104026020016040519081016040528092919081815260200182805461019090610cbb565b80156101dd5780601f106101b2576101008083540402835291602001916101dd565b820191906000526020600020905b8154815290600101906020018083116101c057829003601f168201915b505050505081565b600080600160009054906101000a90046001600160a01b03166001600160a01b0316634987dfd38f8f8f8f8f8f6040518763ffffffff1660e01b815260040161023396959493929190610d8e565b600060405180830381865afa158015610250573d6000803e3d6000fd5b505050506040513d6000823e601f3d908101601f191682016040526102789190810190610e2b565b90506000600260008a80519060200120815260200190815260200160002080546102a190610cbb565b80601f01602080910402602001604051908101604052809291908181526020018280546102cd90610cbb565b801561031a5780601f106102ef5761010080835404028352916020019161031a565b820191906000526020600020905b8154815290600101906020018083116102fd57829003601f168201915b5050505050905081805190602001208180519060200120146103835760405162461bcd60e51b815260206004820152601560248201527f496e76616c69642050726f6f6620666f72206b6579000000000000000000000060448201526064015b60405180910390fd5b6040517f6352211e00000000000000000000000000000000000000000000000000000000815260048101879052859033906001600160a01b03831690636352211e90602401602060405180830381865afa1580156103e5573d6000803e3d6000fd5b505050506040513d601f19601f820116820180604052508101906104099190610ea2565b6001600160a01b03161461045f5760405162461bcd60e51b815260206004820152601060248201527f496e76616c696420746f6b656e20696400000000000000000000000000000000604482015260640161037a565b806001600160a01b031663b88d4fde33878a8c8c604051602001610484929190610ebf565b6040516020818303038152906040526040518563ffffffff1660e01b81526004016104b29493929190610ee1565b600060405180830381600087803b1580156104cc57600080fd5b505af11580156104e0573d6000803e3d6000fd5b505050507fe0d8745259cf7928958dc7cdd24d266696b907c9ae6e49ecfaf81543c4fd6c7485898960405161051793929190610f1d565b60405180910390a15060019f9e505050505050505050505050505050565b6001546040517f4987dfd300000000000000000000000000000000000000000000000000000000815260009182916001600160a01b0390911690634987dfd39061058d908e908e908e908e908e908e90600401610d8e565b600060405180830381865afa1580156105aa573d6000803e3d6000fd5b505050506040513d6000823e601f3d908101601f191682016040526105d29190810190610e2b565b5060019b9a5050505050505050505050565b8280546105f090610cbb565b90600052602060002090601f0160209004810192826106125760008555610658565b82601f1061062b57805160ff1916838001178555610658565b82800160010185558215610658579182015b8281111561065857825182559160200191906001019061063d565b50610664929150610668565b5090565b5b808211156106645760008155600101610669565b634e487b7160e01b600052604160045260246000fd5b604051601f8201601f1916810167ffffffffffffffff811182821017156106bc576106bc61067d565b604052919050565b600067ffffffffffffffff8211156106de576106de61067d565b50601f01601f191660200190565b600082601f8301126106fd57600080fd5b813561071061070b826106c4565b610693565b81815284602083860101111561072557600080fd5b816020850160208301376000918101602001919091529392505050565b6000806040838503121561075557600080fd5b82359150602083013567ffffffffffffffff81111561077357600080fd5b61077f858286016106ec565b9150509250929050565b60006020828403121561079b57600080fd5b5035919050565b60005b838110156107bd5781810151838201526020016107a5565b838111156107cc576000848401525b50505050565b600081518084526107ea8160208601602086016107a2565b601f01601f19169290920160200192915050565b60208152600061081160208301846107d2565b9392505050565b600067ffffffffffffffff8211156108325761083261067d565b5060051b60200190565b600082601f83011261084d57600080fd5b8135602061085d61070b83610818565b82815260059290921b8401810191818101908684111561087c57600080fd5b8286015b848110156108975780358352918301918301610880565b509695505050505050565b600082601f8301126108b357600080fd5b813560206108c361070b83610818565b82815260059290921b840181019181810190868411156108e257600080fd5b8286015b8481101561089757803567ffffffffffffffff8082111561090657600080fd5b818901915089603f83011261091a57600080fd5b8582013561092a61070b82610818565b81815260059190911b830160400190878101908c83111561094a57600080fd5b604085015b838110156109835780358581111561096657600080fd5b6109758f6040838a01016106ec565b84525091890191890161094f565b508752505050928401925083016108e6565b6001600160a01b03811681146109aa57600080fd5b50565b80356109b881610995565b919050565b6000806000806000806000806000806000806101808d8f0312156109e057600080fd5b67ffffffffffffffff8d3511156109f657600080fd5b610a038e8e358f0161083c565b9b5067ffffffffffffffff60208e01351115610a1e57600080fd5b610a2e8e60208f01358f016106ec565b9a5067ffffffffffffffff60408e01351115610a4957600080fd5b610a598e60408f01358f016108a2565b995060608d0135985067ffffffffffffffff60808e01351115610a7b57600080fd5b610a8b8e60808f01358f016106ec565b975067ffffffffffffffff60a08e01351115610aa657600080fd5b610ab68e60a08f01358f016106ec565b965067ffffffffffffffff60c08e01351115610ad157600080fd5b610ae18e60c08f01358f016106ec565b955067ffffffffffffffff60e08e01351115610afc57600080fd5b610b0c8e60e08f01358f016106ec565b945067ffffffffffffffff6101008e01351115610b2857600080fd5b610b398e6101008f01358f016106ec565b93506101208d01359250610b506101408e016109ad565b9150610b5f6101608e016109ad565b90509295989b509295989b509295989b565b60008060008060008060008060006101208a8c031215610b9057600080fd5b893567ffffffffffffffff80821115610ba857600080fd5b610bb48d838e0161083c565b9a5060208c0135915080821115610bca57600080fd5b610bd68d838e016106ec565b995060408c0135915080821115610bec57600080fd5b610bf88d838e016108a2565b985060608c0135975060808c0135915080821115610c1557600080fd5b610c218d838e016106ec565b965060a08c0135915080821115610c3757600080fd5b610c438d838e016106ec565b955060c08c0135915080821115610c5957600080fd5b610c658d838e016106ec565b945060e08c0135915080821115610c7b57600080fd5b610c878d838e016106ec565b93506101008c0135915080821115610c9e57600080fd5b50610cab8c828d016106ec565b9150509295985092959850929598565b600181811c90821680610ccf57607f821691505b60208210811415610cf057634e487b7160e01b600052602260045260246000fd5b50919050565b600081518084526020808501808196506005915083821b81018387016000805b87811015610d7f578484038b5282518051808652908801908886019080891b87018a01855b82811015610d6957601f19898303018452610d578286516107d2565b948c0194938c01939150600101610d3b565b509d8a019d965050509287019250600101610d16565b50919998505050505050505050565b60c0808252875190820181905260009060209060e0840190828b01845b82811015610dc757815184529284019290840190600101610dab565b50505083810382850152610ddb818a6107d2565b9150508281036040840152610df08188610cf6565b90508560608401528281036080840152610e0a81866107d2565b905082810360a0840152610e1e81856107d2565b9998505050505050505050565b600060208284031215610e3d57600080fd5b815167ffffffffffffffff811115610e5457600080fd5b8201601f81018413610e6557600080fd5b8051610e7361070b826106c4565b818152856020838501011115610e8857600080fd5b610e998260208301602086016107a2565b95945050505050565b600060208284031215610eb457600080fd5b815161081181610995565b60008351610ed18184602088016107a2565b9190910191825250602001919050565b60006001600160a01b03808716835280861660208401525083604083015260806060830152610f1360808301846107d2565b9695505050505050565b6001600160a01b0384168152606060208201526000610f3f60608301856107d2565b905082604083015294935050505056fea2646970667358221220fa440bfa65fa4dc9082cb709a65b12f7cdd6c300bd94d8b80c5ae1ae1b21720a64736f6c634300080a0033",
  "immutableReferences": {},
  "source": "// SPDX-License-Identifier: MIT\npragma solidity ^0.8.7;\n\nimport \"./AnconVerifier.sol\";\nimport \"@openzeppelin/contracts/access/Ownable.sol\";\nimport \"@openzeppelin/contracts/token/ERC20/IERC20.sol\";\nimport \"@openzeppelin/contracts/token/ERC721/IERC721Receiver.sol\";\nimport \"@openzeppelin/contracts/token/ERC721/ERC721.sol\";\nimport \"@openzeppelin/contracts/token/ERC721/extensions/ERC721Burnable.sol\";\nimport \"@openzeppelin/contracts/token/ERC721/extensions/ERC721Pausable.sol\";\nimport \"@openzeppelin/contracts/token/ERC721/extensions/ERC721URIStorage.sol\";\n\n contract AguaclaraRouter {\n    address public owner;\n    AnconVerifier public verifier;\n    mapping(bytes32 => bytes) public headers;\n\n    event MetadataOwnershipChanged(\n        address receiver,\n        string uri,\n        uint256 tokenID\n    );\n\n    constructor(address _onlyOwner, address _verifier) public {\n        owner = _onlyOwner;\n        verifier = AnconVerifier(verifier);\n    }\n\n    function updateHeader(bytes32 key, bytes memory rootHash)\n        public\n        returns (bool)\n    {\n        headers[key] = rootHash;\n        return true;\n    }\n\n    function verifyOwnershipReference(\n           // -- existence proof\n        uint256[] memory leafOpUint,\n        bytes memory prefix,\n        bytes[][] memory existenceProofInnerOp,\n        uint256 existenceProofInnerOpHash,\n        bytes memory existenceProofKey,\n        bytes memory existenceProofValue,\n        bytes memory key,\n        bytes memory value,\n        bytes memory packetMetadataUri\n    ) public view returns (bool) {\n        // 1. Verify\n        bytes memory calculatedHash = verifier.queryRootCalculation(\n            leafOpUint,\n            prefix,\n            existenceProofInnerOp,\n            existenceProofInnerOpHash,\n            existenceProofKey,\n            existenceProofValue\n        );\n        // // https://github.com/smartcontractkit/solidity-cborutils\n        // // Use https://github.com/chrisdotn/jsmnSol\n        // require(\n        //     keccak256(value) == keccak256(packetMetadataUri),\n        //     \"Invalid Proof for key\"\n        // );\n\n        return true;\n    }\n\n    function sendMetadataOwnership(\n        // -- existence proof\n        uint256[] memory leafOpUint,\n        bytes memory prefix,\n        bytes[][] memory existenceProofInnerOp,\n        uint256 existenceProofInnerOpHash,\n        bytes memory existenceProofKey,\n        bytes memory existenceProofValue,\n        bytes memory key,\n        bytes memory value,\n        // -- ics23 packet\n        // bytes memory packet, (abiDecoder de ethers)\n        string memory metadata,\n        uint256 tokenId,\n        address tokenAddress,\n        address to\n    ) public returns (bool) {\n        // 1. Verify\n        bytes memory calculatedHash = verifier.queryRootCalculation(\n            leafOpUint,\n            prefix,\n            existenceProofInnerOp,\n            existenceProofInnerOpHash,\n            existenceProofKey,\n            existenceProofValue\n        );\n        bytes memory current = headers[keccak256(key)];\n        require(\n            keccak256(current) == keccak256(calculatedHash),\n            \"Invalid Proof for key\"\n        );\n\n        // 2. Instantiate NFT and query\n        ERC721 nft = ERC721(tokenAddress);\n        require(nft.ownerOf(tokenId) == msg.sender, \"Invalid token id\");\n\n        // if (isNew) {\n        //     // todo: should mint\n        // } else {\n        nft.safeTransferFrom(\n            msg.sender,\n            to,\n            tokenId,\n            abi.encodePacked(metadata, tokenId)\n        );\n        //        }\n\n// Ics23 \n// packet - dag toMetadata => link\n// evm verifies ics23\n// browser  verifies packet is child of ics23 metadata\n        emit MetadataOwnershipChanged(to, metadata, tokenId);\n\n        return true;\n    }\n}\n",
  "sourcePath": "/home/dallant/Code/ancon-protocol/ethereum/contracts/ancon/AguaclaraRouter.sol",
  "compiler": {
    "name": "solc",
    "version": "0.8.10+commit.fc410830.Emscripten.clang"
  },
  "schemaVersion": "3.4.3",
  "updatedAt": "2021-11-09T21:23:45.540Z",
  "networkType": "ethereum",
  "devdoc": {
    "kind": "dev",
    "methods": {},
    "version": 1
  },
  "userdoc": {
    "kind": "user",
    "methods": {},
    "version": 1
  }
}