{
  "contractName": "AnconMetadataOwnableBridge",
  "abi": [
    {
      "inputs": [],
      "stateMutability": "nonpayable",
      "type": "constructor"
    },
    {
      "anonymous": false,
      "inputs": [
        {
          "indexed": true,
          "internalType": "address",
          "name": "newOwner",
          "type": "address"
        },
        {
          "indexed": true,
          "internalType": "string",
          "name": "metadataHash",
          "type": "string"
        },
        {
          "indexed": true,
          "internalType": "uint256",
          "name": "tokenId",
          "type": "uint256"
        }
      ],
      "name": "CrossMintCallbackReceived",
      "type": "event"
    },
    {
      "inputs": [
        {
          "components": [
            {
              "internalType": "bytes",
              "name": "key",
              "type": "bytes"
            },
            {
              "internalType": "bytes",
              "name": "value",
              "type": "bytes"
            },
            {
              "components": [
                {
                  "internalType": "enum PROOFS_PROTO_GLOBAL_ENUMS.HashOp",
                  "name": "hash",
                  "type": "uint8"
                },
                {
                  "internalType": "enum PROOFS_PROTO_GLOBAL_ENUMS.HashOp",
                  "name": "prehash_key",
                  "type": "uint8"
                },
                {
                  "internalType": "enum PROOFS_PROTO_GLOBAL_ENUMS.HashOp",
                  "name": "prehash_value",
                  "type": "uint8"
                },
                {
                  "internalType": "enum PROOFS_PROTO_GLOBAL_ENUMS.LengthOp",
                  "name": "length",
                  "type": "uint8"
                },
                {
                  "internalType": "bytes",
                  "name": "prefix",
                  "type": "bytes"
                }
              ],
              "internalType": "struct LeafOp.Data",
              "name": "leaf",
              "type": "tuple"
            },
            {
              "components": [
                {
                  "internalType": "enum PROOFS_PROTO_GLOBAL_ENUMS.HashOp",
                  "name": "hash",
                  "type": "uint8"
                },
                {
                  "internalType": "bytes",
                  "name": "prefix",
                  "type": "bytes"
                },
                {
                  "internalType": "bytes",
                  "name": "suffix",
                  "type": "bytes"
                }
              ],
              "internalType": "struct InnerOp.Data[]",
              "name": "path",
              "type": "tuple[]"
            }
          ],
          "internalType": "struct IBCExistenceProof.Data",
          "name": "testxp",
          "type": "tuple"
        }
      ],
      "name": "convertProof",
      "outputs": [
        {
          "components": [
            {
              "internalType": "bool",
              "name": "valid",
              "type": "bool"
            },
            {
              "internalType": "bytes",
              "name": "key",
              "type": "bytes"
            },
            {
              "internalType": "bytes",
              "name": "value",
              "type": "bytes"
            },
            {
              "components": [
                {
                  "internalType": "bool",
                  "name": "valid",
                  "type": "bool"
                },
                {
                  "internalType": "enum ICS23.HashOp",
                  "name": "hash",
                  "type": "uint8"
                },
                {
                  "internalType": "enum ICS23.HashOp",
                  "name": "prehash_key",
                  "type": "uint8"
                },
                {
                  "internalType": "enum ICS23.HashOp",
                  "name": "prehash_value",
                  "type": "uint8"
                },
                {
                  "internalType": "enum ICS23.LengthOp",
                  "name": "len",
                  "type": "uint8"
                },
                {
                  "internalType": "bytes",
                  "name": "prefix",
                  "type": "bytes"
                }
              ],
              "internalType": "struct ICS23.LeafOp",
              "name": "leaf",
              "type": "tuple"
            },
            {
              "components": [
                {
                  "internalType": "bool",
                  "name": "valid",
                  "type": "bool"
                },
                {
                  "internalType": "enum ICS23.HashOp",
                  "name": "hash",
                  "type": "uint8"
                },
                {
                  "internalType": "bytes",
                  "name": "prefix",
                  "type": "bytes"
                },
                {
                  "internalType": "bytes",
                  "name": "suffix",
                  "type": "bytes"
                }
              ],
              "internalType": "struct ICS23.InnerOp[]",
              "name": "path",
              "type": "tuple[]"
            }
          ],
          "internalType": "struct ICS23.ExistenceProof",
          "name": "",
          "type": "tuple"
        }
      ],
      "stateMutability": "nonpayable",
      "type": "function"
    },
    {
      "inputs": [
        {
          "internalType": "bytes",
          "name": "existenceProof",
          "type": "bytes"
        },
        {
          "internalType": "bytes",
          "name": "rootBz",
          "type": "bytes"
        },
        {
          "internalType": "bytes",
          "name": "pathBz",
          "type": "bytes"
        },
        {
          "internalType": "bytes",
          "name": "value",
          "type": "bytes"
        }
      ],
      "name": "changeOwnerWithProof",
      "outputs": [
        {
          "internalType": "bool",
          "name": "",
          "type": "bool"
        }
      ],
      "stateMutability": "nonpayable",
      "type": "function"
    }
  ],
  "bytecode": "0x608060405234801561001057600080fd5b506133a9806100206000396000f3fe608060405234801561001057600080fd5b50600436106100365760003560e01c8063446e00b81461003b57806361f324941461006b575b600080fd5b6100556004803603810190610050919061252d565b61009b565b6040516100629190612918565b60405180910390f35b6100856004803603810190610080919061293a565b610323565b6040516100929190612a20565b60405180910390f35b6100a3611e78565b60006040518060c0016040528060001515815260200184604001516000015160058111156100d4576100d3612619565b5b60058111156100e6576100e5612619565b5b60058111156100f8576100f7612619565b5b8152602001846040015160200151600581111561011857610117612619565b5b600581111561012a57610129612619565b5b600581111561013c5761013b612619565b5b8152602001846040015160400151600581111561015c5761015b612619565b5b600581111561016e5761016d612619565b5b60058111156101805761017f612619565b5b815260200184604001516060015160088111156101a05761019f612619565b5b60088111156101b2576101b1612619565b5b60088111156101c4576101c3612619565b5b8152602001604051806020016040528060008152508152509050606060005b8460600151518110156102e15760405180608001604052806000151581526020018660600151838151811061021b5761021a612a3b565b5b602002602001015160000151600581111561023957610238612619565b5b600581111561024b5761024a612619565b5b600581111561025d5761025c612619565b5b81526020018660600151838151811061027957610278612a3b565b5b6020026020010151602001518152602001866060015183815181106102a1576102a0612a3b565b5b6020026020010151604001518152508282815181106102c3576102c2612a3b565b5b602002602001018190525080806102d990612aa3565b9150506101e3565b5060006040518060a001604052806000151581526020018660000151815260200186602001518152602001848152602001838152509050809350505050919050565b60008061032f86610459565b9050600061033c8261009b565b905073__ICS23_________________________________638bb786de73__ICS23_________________________________6327dcd78c6040518163ffffffff1660e01b815260040160006040518083038186803b15801561039c57600080fd5b505af41580156103b0573d6000803e3d6000fd5b505050506040513d6000823e3d601f19601f820116820180604052508101906103d99190612c8e565b888489896040518663ffffffff1660e01b81526004016103fd959493929190613039565b60206040518083038186803b15801561041557600080fd5b505af4158015610429573d6000803e3d6000fd5b505050506040513d601f19601f8201168201806040525081019061044d91906130af565b92505050949350505050565b610461611eaf565b6000610470602084855161047c565b50905080915050919050565b610484611eaf565b600061048e611eaf565b610496611edd565b6000806000808a905060008b90505b89826104b191906130dc565b8110156106c3576104c2818c61097c565b80955081965082975050505082816104da91906130dc565b90506001851415610503576104f1818c89896109d1565b816104fc91906130dc565b90506106be565b600285141561052a57610518818c8989610a8c565b8161052391906130dc565b90506106bd565b60038514156105515761053f818c8989610b47565b8161054a91906130dc565b90506106bc565b600485141561057f5761056d818c610567610c02565b89610c11565b8161057891906130dc565b90506106bb565b6001600581111561059357610592612619565b5b8460058111156105a6576105a5612619565b5b14156105ce5760006105b8828d610d0e565b90508091505080826105ca91906130dc565b9150505b6005808111156105e1576105e0612619565b5b8460058111156105f4576105f3612619565b5b141561061c576000610606828d610d33565b905080915050808261061891906130dc565b9150505b600060058111156106305761062f612619565b5b84600581111561064357610642612619565b5b141561066b576000610655828d610d58565b905080915050808261066791906130dc565b9150505b6002600581111561067f5761067e612619565b5b84600581111561069257610691612619565b5b14156106ba5760006106a4828d610ea5565b90508091505080826106b691906130dc565b9150505b5b5b5b5b6104a5565b819050856004600581106106da576106d9612a3b565b5b602002015167ffffffffffffffff8111156106f8576106f7612097565b5b60405190808252806020026020018201604052801561073157816020015b61071e611eff565b8152602001906001900390816107165790505b5087606001819052505b898261074791906130dc565b81101561096757610758818c61097c565b809550819650829750505050828161077091906130dc565b905060018514156107a05761078e818c610788610c02565b896109d1565b8161079991906130dc565b9050610962565b60028514156107ce576107bc818c6107b6610c02565b89610a8c565b816107c791906130dc565b9050610961565b60038514156107fc576107ea818c6107e4610c02565b89610b47565b816107f591906130dc565b9050610960565b600485141561082357610811818c8989610c11565b8161081c91906130dc565b905061095f565b6001600581111561083757610836612619565b5b84600581111561084a57610849612619565b5b141561087257600061085c828d610d0e565b905080915050808261086e91906130dc565b9150505b60058081111561088557610884612619565b5b84600581111561089857610897612619565b5b14156108c05760006108aa828d610d33565b90508091505080826108bc91906130dc565b9150505b600060058111156108d4576108d3612619565b5b8460058111156108e7576108e6612619565b5b141561090f5760006108f9828d610d58565b905080915050808261090b91906130dc565b9150505b6002600581111561092357610922612619565b5b84600581111561093657610935612619565b5b141561095e576000610948828d610ea5565b905080915050808261095a91906130dc565b9150505b5b5b5b5b61073b565b868a9850985050505050505050935093915050565b600080600080600061098e8787610d58565b9150915060006007831660058111156109aa576109a9612619565b5b905060006008846109bb9190613161565b9050808284965096509650505050509250925092565b60008060006109e08787610f7d565b915091506109ed85610f96565b15610a2557600184600160058110610a0857610a07612a3b565b5b60200201818151610a1991906130dc565b91508181525050610a7f565b818560000181905250600084600160058110610a4457610a43612a3b565b5b60200201511115610a7e57600184600160058110610a6557610a64612a3b565b5b60200201818151610a769190613192565b915081815250505b5b8092505050949350505050565b6000806000610a9b8787610f7d565b91509150610aa885610f96565b15610ae057600184600260058110610ac357610ac2612a3b565b5b60200201818151610ad491906130dc565b91508181525050610b3a565b818560200181905250600084600260058110610aff57610afe612a3b565b5b60200201511115610b3957600184600260058110610b2057610b1f612a3b565b5b60200201818151610b319190613192565b915081815250505b5b8092505050949350505050565b6000806000610b568787610fa1565b91509150610b6385610f96565b15610b9b57600184600360058110610b7e57610b7d612a3b565b5b60200201818151610b8f91906130dc565b91508181525050610bf5565b818560400181905250600084600360058110610bba57610bb9612a3b565b5b60200201511115610bf457600184600360058110610bdb57610bda612a3b565b5b60200201818151610bec9190613192565b915081815250505b5b8092505050949350505050565b610c0a611eaf565b6000905090565b6000806000610c208787610ffa565b91509150610c2d85610f96565b15610c6557600184600460058110610c4857610c47612a3b565b5b60200201818151610c5991906130dc565b91508181525050610d01565b81856060015185600460058110610c7f57610c7e612a3b565b5b6020020151876060015151610c949190613192565b81518110610ca557610ca4612a3b565b5b6020026020010181905250600084600460058110610cc657610cc5612a3b565b5b60200201511115610d0057600184600460058110610ce757610ce6612a3b565b5b60200201818151610cf89190613192565b915081815250505b5b8092505050949350505050565b600080600080610d2086866008611053565b9150915081819350935050509250929050565b600080600080610d4586866004611053565b9150915081819350935050509250929050565b600080600080600060208651610d6e91906130dc565b9050608087870197505b6080811660801415610e9457600082888a03101415610de9577f08c379a0000000000000000000000000000000000000000000000000000000006000526020600452600f6024527f6c656e677468206f766572666c6f77000000000000000000000000000000000060445260536000fd5b875160005b60208110608084166080141615610e8d576000848a8c03101415610e64577f08c379a0000000000000000000000000000000000000000000000000000000006000526020600452600f6024527f6c656e677468206f766572666c6f77000000000000000000000000000000000060445260536000fd5b81811a925082607f16856007021b8617955060018501945060018101905060018a019950610dee565b5050610d78565b508282945094505050509250929050565b60606000806000610eb68686610d58565b9150915060008267ffffffffffffffff811115610ed657610ed5612097565b5b6040519080825280601f01601f191660200182016040528015610f085781602001600182028036833780820191505090505b509050600060208751610f1b91906130dc565b90508084848a610f2b91906130dc565b610f3591906130dc565b1115610f4457610f436131c6565b5b600080602084019050848a8a01019150610f5f8282886110c6565b838686610f6c91906130dc565b975097505050505050509250929050565b60606000610f8b8484610ea5565b915091509250929050565b600081159050919050565b610fa9611f32565b600080849050600080610fbc8387610d58565b915091508083610fcc91906130dc565b92506000610fdb848885611145565b509050808284610feb91906130dc565b95509550505050509250929050565b611002611eff565b6000808490506000806110158387610d58565b91509150808361102591906130dc565b925060006110348488856113c2565b50905080828461104491906130dc565b95509550505050509250929050565b6000806000806020865161106791906130dc565b905080858861107691906130dc565b1115611085576110846131c6565b5b6000878701975087515b868210156110b45780821a826008021b8417935060018901985060018201915061108f565b50508185935093505050935093915050565b5b6020811061110557825182526020826110e091906130dc565b91506020836110ef91906130dc565b92506020816110fe9190613192565b90506110c7565b600060018260206111169190613192565b6101006111239190613328565b61112d9190613192565b90508019845116818451168181178552505050505050565b61114d611f32565b6000611157611f32565b61115f611fa9565b6000806000808a905060008b90505b898261117a91906130dc565b8110156113ad5761118b818c61097c565b80955081965082975050505082816111a391906130dc565b905060018514156111cc576111ba818c89896115ef565b816111c591906130dc565b90506113a8565b60028514156111f3576111e1818c89896116df565b816111ec91906130dc565b90506113a7565b600385141561121a57611208818c89896117cf565b8161121391906130dc565b90506113a6565b60048514156112415761122f818c89896118bf565b8161123a91906130dc565b90506113a5565b600585141561126857611256818c89896119af565b8161126191906130dc565b90506113a4565b6001600581111561127c5761127b612619565b5b84600581111561128f5761128e612619565b5b14156112b75760006112a1828d610d0e565b90508091505080826112b391906130dc565b9150505b6005808111156112ca576112c9612619565b5b8460058111156112dd576112dc612619565b5b14156113055760006112ef828d610d33565b905080915050808261130191906130dc565b9150505b6000600581111561131957611318612619565b5b84600581111561132c5761132b612619565b5b141561135457600061133e828d610d58565b905080915050808261135091906130dc565b9150505b6002600581111561136857611367612619565b5b84600581111561137b5761137a612619565b5b14156113a357600061138d828d610ea5565b905080915050808261139f91906130dc565b9150505b5b5b5b5b5b61116e565b868a9850985050505050505050935093915050565b6113ca611eff565b60006113d4611eff565b6113dc611fcb565b6000806000808a905060008b90505b89826113f791906130dc565b8110156115da57611408818c61097c565b809550819650829750505050828161142091906130dc565b9050600185141561144957611437818c8989611a6a565b8161144291906130dc565b90506115d5565b60028514156114705761145e818c8989611b5a565b8161146991906130dc565b90506115d4565b600385141561149757611485818c8989611c15565b8161149091906130dc565b90506115d3565b600160058111156114ab576114aa612619565b5b8460058111156114be576114bd612619565b5b14156114e65760006114d0828d610d0e565b90508091505080826114e291906130dc565b9150505b6005808111156114f9576114f8612619565b5b84600581111561150c5761150b612619565b5b141561153457600061151e828d610d33565b905080915050808261153091906130dc565b9150505b6000600581111561154857611547612619565b5b84600581111561155b5761155a612619565b5b141561158357600061156d828d610d58565b905080915050808261157f91906130dc565b9150505b6002600581111561159757611596612619565b5b8460058111156115aa576115a9612619565b5b14156115d25760006115bc828d610ea5565b90508091505080826115ce91906130dc565b9150505b5b5b5b6113eb565b868a9850985050505050505050935093915050565b60008060006115fe8787611cd0565b91509150600061160d83611ce8565b905061161886611d71565b156116505760018560016006811061163357611632612a3b565b5b6020020181815161164491906130dc565b915081815250506116d1565b808660000190600581111561166857611667612619565b5b9081600581111561167c5761167b612619565b5b8152505060008560016006811061169657611695612a3b565b5b602002015111156116d0576001856001600681106116b7576116b6612a3b565b5b602002018181516116c89190613192565b915081815250505b5b819350505050949350505050565b60008060006116ee8787611cd0565b9150915060006116fd83611ce8565b905061170886611d71565b156117405760018560026006811061172357611722612a3b565b5b6020020181815161173491906130dc565b915081815250506117c1565b808660200190600581111561175857611757612619565b5b9081600581111561176c5761176b612619565b5b8152505060008560026006811061178657611785612a3b565b5b602002015111156117c0576001856002600681106117a7576117a6612a3b565b5b602002018181516117b89190613192565b915081815250505b5b819350505050949350505050565b60008060006117de8787611cd0565b9150915060006117ed83611ce8565b90506117f886611d71565b156118305760018560036006811061181357611812612a3b565b5b6020020181815161182491906130dc565b915081815250506118b1565b808660400190600581111561184857611847612619565b5b9081600581111561185c5761185b612619565b5b8152505060008560036006811061187657611875612a3b565b5b602002015111156118b05760018560036006811061189757611896612a3b565b5b602002018181516118a89190613192565b915081815250505b5b819350505050949350505050565b60008060006118ce8787611cd0565b9150915060006118dd83611d7c565b90506118e886611d71565b156119205760018560046006811061190357611902612a3b565b5b6020020181815161191491906130dc565b915081815250506119a1565b808660600190600881111561193857611937612619565b5b9081600881111561194c5761194b612619565b5b8152505060008560046006811061196657611965612a3b565b5b602002015111156119a05760018560046006811061198757611986612a3b565b5b602002018181516119989190613192565b915081815250505b5b819350505050949350505050565b60008060006119be8787610f7d565b915091506119cb85611d71565b15611a03576001846005600681106119e6576119e5612a3b565b5b602002018181516119f791906130dc565b91508181525050611a5d565b818560800181905250600084600560068110611a2257611a21612a3b565b5b60200201511115611a5c57600184600560068110611a4357611a42612a3b565b5b60200201818151611a549190613192565b915081815250505b5b8092505050949350505050565b6000806000611a798787611cd0565b915091506000611a8883611ce8565b9050611a9386611e44565b15611acb57600185600160048110611aae57611aad612a3b565b5b60200201818151611abf91906130dc565b91508181525050611b4c565b8086600001906005811115611ae357611ae2612619565b5b90816005811115611af757611af6612619565b5b81525050600085600160048110611b1157611b10612a3b565b5b60200201511115611b4b57600185600160048110611b3257611b31612a3b565b5b60200201818151611b439190613192565b915081815250505b5b819350505050949350505050565b6000806000611b698787610f7d565b91509150611b7685611e44565b15611bae57600184600260048110611b9157611b90612a3b565b5b60200201818151611ba291906130dc565b91508181525050611c08565b818560200181905250600084600260048110611bcd57611bcc612a3b565b5b60200201511115611c0757600184600260048110611bee57611bed612a3b565b5b60200201818151611bff9190613192565b915081815250505b5b8092505050949350505050565b6000806000611c248787610f7d565b91509150611c3185611e44565b15611c6957600184600360048110611c4c57611c4b612a3b565b5b60200201818151611c5d91906130dc565b91508181525050611cc3565b818560400181905250600084600360048110611c8857611c87612a3b565b5b60200201511115611cc257600184600360048110611ca957611ca8612a3b565b5b60200201818151611cba9190613192565b915081815250505b5b8092505050949350505050565b600080611cdd8484611e4f565b915091509250929050565b6000808260070b1415611cfe5760009050611d6c565b60018260070b1415611d135760019050611d6c565b60028260070b1415611d285760029050611d6c565b60038260070b1415611d3d5760039050611d6c565b60048260070b1415611d525760049050611d6c565b60058260070b1415611d675760059050611d6c565b600080fd5b919050565b600081159050919050565b6000808260070b1415611d925760009050611e3f565b60018260070b1415611da75760019050611e3f565b60028260070b1415611dbc5760029050611e3f565b60038260070b1415611dd15760039050611e3f565b60048260070b1415611de65760049050611e3f565b60058260070b1415611dfb5760059050611e3f565b60068260070b1415611e105760069050611e3f565b60078260070b1415611e255760079050611e3f565b60088260070b1415611e3a5760089050611e3f565b600080fd5b919050565b600081159050919050565b600080600080611e5f8686610d58565b9150915060008290508082945094505050509250929050565b6040518060a001604052806000151581526020016060815260200160608152602001611ea2611fed565b8152602001606081525090565b60405180608001604052806060815260200160608152602001611ed0611f32565b8152602001606081525090565b6040518060a00160405280600590602082028036833780820191505090505090565b604051806060016040528060006005811115611f1e57611f1d612619565b5b815260200160608152602001606081525090565b6040518060a0016040528060006005811115611f5157611f50612619565b5b815260200160006005811115611f6a57611f69612619565b5b815260200160006005811115611f8357611f82612619565b5b815260200160006008811115611f9c57611f9b612619565b5b8152602001606081525090565b6040518060c00160405280600690602082028036833780820191505090505090565b6040518060800160405280600490602082028036833780820191505090505090565b6040518060c001604052806000151581526020016000600581111561201557612014612619565b5b81526020016000600581111561202e5761202d612619565b5b81526020016000600581111561204757612046612619565b5b8152602001600060088111156120605761205f612619565b5b8152602001606081525090565b6000604051905090565b600080fd5b600080fd5b600080fd5b6000601f19601f8301169050919050565b7f4e487b7100000000000000000000000000000000000000000000000000000000600052604160045260246000fd5b6120cf82612086565b810181811067ffffffffffffffff821117156120ee576120ed612097565b5b80604052505050565b600061210161206d565b905061210d82826120c6565b919050565b600080fd5b600080fd5b600080fd5b600067ffffffffffffffff82111561213c5761213b612097565b5b61214582612086565b9050602081019050919050565b82818337600083830152505050565b600061217461216f84612121565b6120f7565b9050828152602081018484840111156121905761218f61211c565b5b61219b848285612152565b509392505050565b600082601f8301126121b8576121b7612117565b5b81356121c8848260208601612161565b91505092915050565b600681106121de57600080fd5b50565b6000813590506121f0816121d1565b92915050565b6009811061220357600080fd5b50565b600081359050612215816121f6565b92915050565b600060a0828403121561223157612230612081565b5b61223b60a06120f7565b9050600061224b848285016121e1565b600083015250602061225f848285016121e1565b6020830152506040612273848285016121e1565b604083015250606061228784828501612206565b606083015250608082013567ffffffffffffffff8111156122ab576122aa612112565b5b6122b7848285016121a3565b60808301525092915050565b600067ffffffffffffffff8211156122de576122dd612097565b5b602082029050602081019050919050565b600080fd5b60006060828403121561230a57612309612081565b5b61231460606120f7565b90506000612324848285016121e1565b600083015250602082013567ffffffffffffffff81111561234857612347612112565b5b612354848285016121a3565b602083015250604082013567ffffffffffffffff81111561237857612377612112565b5b612384848285016121a3565b60408301525092915050565b60006123a361239e846122c3565b6120f7565b905080838252602082019050602084028301858111156123c6576123c56122ef565b5b835b8181101561240d57803567ffffffffffffffff8111156123eb576123ea612117565b5b8086016123f889826122f4565b855260208501945050506020810190506123c8565b5050509392505050565b600082601f83011261242c5761242b612117565b5b813561243c848260208601612390565b91505092915050565b60006080828403121561245b5761245a612081565b5b61246560806120f7565b9050600082013567ffffffffffffffff81111561248557612484612112565b5b612491848285016121a3565b600083015250602082013567ffffffffffffffff8111156124b5576124b4612112565b5b6124c1848285016121a3565b602083015250604082013567ffffffffffffffff8111156124e5576124e4612112565b5b6124f18482850161221b565b604083015250606082013567ffffffffffffffff81111561251557612514612112565b5b61252184828501612417565b60608301525092915050565b60006020828403121561254357612542612077565b5b600082013567ffffffffffffffff8111156125615761256061207c565b5b61256d84828501612445565b91505092915050565b60008115159050919050565b61258b81612576565b82525050565b600081519050919050565b600082825260208201905092915050565b60005b838110156125cb5780820151818401526020810190506125b0565b838111156125da576000848401525b50505050565b60006125eb82612591565b6125f5818561259c565b93506126058185602086016125ad565b61260e81612086565b840191505092915050565b7f4e487b7100000000000000000000000000000000000000000000000000000000600052602160045260246000fd5b6006811061265957612658612619565b5b50565b600081905061266a82612648565b919050565b600061267a8261265c565b9050919050565b61268a8161266f565b82525050565b600981106126a1576126a0612619565b5b50565b60008190506126b282612690565b919050565b60006126c2826126a4565b9050919050565b6126d2816126b7565b82525050565b600060c0830160008301516126f06000860182612582565b5060208301516127036020860182612681565b5060408301516127166040860182612681565b5060608301516127296060860182612681565b50608083015161273c60808601826126c9565b5060a083015184820360a086015261275482826125e0565b9150508091505092915050565b600081519050919050565b600082825260208201905092915050565b6000819050602082019050919050565b60006080830160008301516127a56000860182612582565b5060208301516127b86020860182612681565b50604083015184820360408601526127d082826125e0565b915050606083015184820360608601526127ea82826125e0565b9150508091505092915050565b6000612803838361278d565b905092915050565b6000602082019050919050565b600061282382612761565b61282d818561276c565b93508360208202850161283f8561277d565b8060005b8581101561287b578484038952815161285c85826127f7565b94506128678361280b565b925060208a01995050600181019050612843565b50829750879550505050505092915050565b600060a0830160008301516128a56000860182612582565b50602083015184820360208601526128bd82826125e0565b915050604083015184820360408601526128d782826125e0565b915050606083015184820360608601526128f182826126d8565b9150506080830151848203608086015261290b8282612818565b9150508091505092915050565b60006020820190508181036000830152612932818461288d565b905092915050565b6000806000806080858703121561295457612953612077565b5b600085013567ffffffffffffffff8111156129725761297161207c565b5b61297e878288016121a3565b945050602085013567ffffffffffffffff81111561299f5761299e61207c565b5b6129ab878288016121a3565b935050604085013567ffffffffffffffff8111156129cc576129cb61207c565b5b6129d8878288016121a3565b925050606085013567ffffffffffffffff8111156129f9576129f861207c565b5b612a05878288016121a3565b91505092959194509250565b612a1a81612576565b82525050565b6000602082019050612a356000830184612a11565b92915050565b7f4e487b7100000000000000000000000000000000000000000000000000000000600052603260045260246000fd5b7f4e487b7100000000000000000000000000000000000000000000000000000000600052601160045260246000fd5b6000819050919050565b6000612aae82612a99565b91507fffffffffffffffffffffffffffffffffffffffffffffffffffffffffffffffff821415612ae157612ae0612a6a565b5b600182019050919050565b612af581612576565b8114612b0057600080fd5b50565b600081519050612b1281612aec565b92915050565b60068110612b2557600080fd5b50565b600081519050612b3781612b18565b92915050565b60098110612b4a57600080fd5b50565b600081519050612b5c81612b3d565b92915050565b6000612b75612b7084612121565b6120f7565b905082815260208101848484011115612b9157612b9061211c565b5b612b9c8482856125ad565b509392505050565b600082601f830112612bb957612bb8612117565b5b8151612bc9848260208601612b62565b91505092915050565b600060c08284031215612be857612be7612081565b5b612bf260c06120f7565b90506000612c0284828501612b03565b6000830152506020612c1684828501612b28565b6020830152506040612c2a84828501612b28565b6040830152506060612c3e84828501612b28565b6060830152506080612c5284828501612b4d565b60808301525060a082015167ffffffffffffffff811115612c7657612c75612112565b5b612c8284828501612ba4565b60a08301525092915050565b600060208284031215612ca457612ca3612077565b5b600082015167ffffffffffffffff811115612cc257612cc161207c565b5b612cce84828501612bd2565b91505092915050565b612ce081612576565b82525050565b612cef8161266f565b82525050565b612cfe816126b7565b82525050565b600082825260208201905092915050565b6000612d2082612591565b612d2a8185612d04565b9350612d3a8185602086016125ad565b612d4381612086565b840191505092915050565b600060c083016000830151612d666000860182612cd7565b506020830151612d796020860182612ce6565b506040830151612d8c6040860182612ce6565b506060830151612d9f6060860182612ce6565b506080830151612db26080860182612cf5565b5060a083015184820360a0860152612dca8282612d15565b9150508091505092915050565b600082825260208201905092915050565b6000612df382612591565b612dfd8185612dd7565b9350612e0d8185602086016125ad565b612e1681612086565b840191505092915050565b600060c083016000830151612e396000860182612cd7565b506020830151612e4c6020860182612ce6565b506040830151612e5f6040860182612ce6565b506060830151612e726060860182612ce6565b506080830151612e856080860182612cf5565b5060a083015184820360a0860152612e9d8282612d15565b9150508091505092915050565b600082825260208201905092915050565b6000608083016000830151612ed36000860182612cd7565b506020830151612ee66020860182612ce6565b5060408301518482036040860152612efe8282612d15565b91505060608301518482036060860152612f188282612d15565b9150508091505092915050565b6000612f318383612ebb565b905092915050565b6000612f4482612761565b612f4e8185612eaa565b935083602082028501612f608561277d565b8060005b85811015612f9c5784840389528151612f7d8582612f25565b9450612f888361280b565b925060208a01995050600181019050612f64565b50829750879550505050505092915050565b600060a083016000830151612fc66000860182612cd7565b5060208301518482036020860152612fde8282612d15565b91505060408301518482036040860152612ff88282612d15565b915050606083015184820360608601526130128282612e21565b9150506080830151848203608086015261302c8282612f39565b9150508091505092915050565b600060a08201905081810360008301526130538188612d4e565b905081810360208301526130678187612de8565b9050818103604083015261307b8186612fae565b9050818103606083015261308f8185612de8565b905081810360808301526130a38184612de8565b90509695505050505050565b6000602082840312156130c5576130c4612077565b5b60006130d384828501612b03565b91505092915050565b60006130e782612a99565b91506130f283612a99565b9250827fffffffffffffffffffffffffffffffffffffffffffffffffffffffffffffffff0382111561312757613126612a6a565b5b828201905092915050565b7f4e487b7100000000000000000000000000000000000000000000000000000000600052601260045260246000fd5b600061316c82612a99565b915061317783612a99565b92508261318757613186613132565b5b828204905092915050565b600061319d82612a99565b91506131a883612a99565b9250828210156131bb576131ba612a6a565b5b828203905092915050565b7f4e487b7100000000000000000000000000000000000000000000000000000000600052600160045260246000fd5b60008160011c9050919050565b6000808291508390505b600185111561324c5780860481111561322857613227612a6a565b5b60018516156132375780820291505b8081029050613245856131f5565b945061320c565b94509492505050565b6000826132655760019050613321565b816132735760009050613321565b81600181146132895760028114613293576132c2565b6001915050613321565b60ff8411156132a5576132a4612a6a565b5b8360020a9150848211156132bc576132bb612a6a565b5b50613321565b5060208310610133831016604e8410600b84101617156132f75782820a9050838111156132f2576132f1612a6a565b5b613321565b6133048484846001613202565b9250905081840481111561331b5761331a612a6a565b5b81810290505b9392505050565b600061333382612a99565b915061333e83612a99565b925061336b7fffffffffffffffffffffffffffffffffffffffffffffffffffffffffffffffff8484613255565b90509291505056fea2646970667358221220e9ff22ae5b7ad2720a951223afd02d5c6d94aa170ef5bb04db1ca0c0d51e353464736f6c63430008090033",
  "immutableReferences": {},
  "source": "// SPDX-License-Identifier: MIT\npragma solidity ^0.8.7;\nimport \"./Proofs.sol\";\nimport \"./ics23.sol\";\n\ncontract AnconMetadataOwnableBridge {\n    using ICS23 for ICS23.HashOp;\n    using ICS23 for ICS23.LengthOp;\n    using ICS23 for ICS23.ExistenceProof;\n    using IBCExistenceProof for IBCExistenceProof.Data;\n    event CrossMintCallbackReceived(\n        address indexed newOwner,\n        string indexed metadataHash,\n        uint256 indexed tokenId\n    );\n\n    constructor() public {}\n\n    function convertProof(IBCExistenceProof.Data memory testxp)\n        public\n        returns (ICS23.ExistenceProof memory)\n    {\n        ICS23.LeafOp memory leafOp = ICS23.LeafOp({\n            hash: ICS23.HashOp(uint256(testxp.leaf.hash)),\n            prehash_key: ICS23.HashOp(uint256(testxp.leaf.prehash_key)),\n            prehash_value: ICS23.HashOp(uint256(testxp.leaf.prehash_value)),\n            len: ICS23.LengthOp(uint256(testxp.leaf.length)),\n            valid: false,\n            prefix: bytes(\"\")\n        });\n\n        // innerOpArr\n        ICS23.InnerOp[] memory innerOpArr;\n\n        for (uint256 i = 0; i < testxp.path.length; i++) {\n            innerOpArr[i] = ICS23.InnerOp({\n                valid: false,\n                hash: ICS23.HashOp(uint256(testxp.path[i].hash)),\n                prefix: testxp.path[i].prefix,\n                suffix: testxp.path[i].suffix\n            });\n        }\n        ICS23.ExistenceProof memory proof = ICS23.ExistenceProof({\n            valid: false,\n            key: testxp.key,\n            value: testxp.value,\n            leaf: leafOp,\n            path: innerOpArr\n        });\n\n        return proof;\n    }\n\n    /**\n     * changeOwnerWithProof\n     */\n    function changeOwnerWithProof(\n        bytes memory existenceProof,\n        bytes memory rootBz,\n        bytes memory pathBz,\n        bytes memory value\n    ) public returns (bool) {\n        // todo: verify not empty\n        IBCExistenceProof.Data memory exProofProto = IBCExistenceProof.decode(\n            existenceProof\n        );\n\n        ICS23.ExistenceProof memory exProofICS23 = convertProof(exProofProto);\n\n        // Verify membership\n        return ICS23.verifyMembership(\n            ICS23.getIavlSpec(),\n            rootBz,\n            exProofICS23,\n            pathBz,\n            value\n        );\n\n        //proof.key = xp.\n\n        // verify permit exists, has not revoked, has valid issuer and is not expired\n        //return this.verifyMembership(iavlSpec, rootBz, xp, pathBz, value);        \n        // verify token exists\n        //_lock(vc.data);\n        // _release\n    }\n\n    // function _lock(bytes memory data) internal returns (bool) {\n    //     // ERC721(tokenAddress)\n    //     (\n    //         string memory metadata,\n    //         address to,\n    //         address newOwner,\n    //         address fromOwner,\n    //         address escrowAddress,\n    //         // fromTokenId\n    //         // toTokenId\n    //         uint256 id,\n    //         bool isNew\n    //     ) = abi.decode(\n    //             data,\n    //             (string, address, address, address, address, uint256, bool)\n    //         );\n    //     // FromTokenId verification\n    //     ERC721 nft = ERC721(to);\n    //     require(nft.ownerOf(id) == fromOwner, \"Invalid token id\");\n\n    //     if (isNew) {\n    //         // todo: should mint\n    //     } else {\n    //         // Escrow Address aka Lock\n    //         nft.safeTransferFrom(fromOwner, escrowAddress, id, data);\n    //     }\n\n    //     emit CrossMintCallbackReceived(newOwner, metadata, id);\n\n    //     return true;\n    // }\n}\n",
  "sourcePath": "/home/dallant/Code/ancon-protocol/ethereum/contracts/ancon/AnconMetadataOwnableBridge.sol",
  "compiler": {
    "name": "solc",
    "version": "0.8.9+commit.e5eed63a.Emscripten.clang"
  },
  "schemaVersion": "3.4.0",
  "updatedAt": "2021-11-02T12:42:46.372Z",
  "networkType": "ethereum",
  "devdoc": {
    "kind": "dev",
    "methods": {},
    "version": 1
  },
  "userdoc": {
    "kind": "user",
    "methods": {
      "changeOwnerWithProof(bytes,bytes,bytes,bytes)": {
        "notice": "changeOwnerWithProof"
      }
    },
    "version": 1
  }
}