{
  "contractName": "AnconMetadataOwnableBridge",
  "abi": [
    {
      "inputs": [],
      "stateMutability": "nonpayable",
      "type": "constructor"
    },
    {
      "anonymous": false,
      "inputs": [
        {
          "indexed": true,
          "internalType": "address",
          "name": "newOwner",
          "type": "address"
        },
        {
          "indexed": true,
          "internalType": "string",
          "name": "metadataHash",
          "type": "string"
        },
        {
          "indexed": true,
          "internalType": "uint256",
          "name": "tokenId",
          "type": "uint256"
        }
      ],
      "name": "CrossMintCallbackReceived",
      "type": "event"
    },
    {
      "inputs": [
        {
          "components": [
            {
              "internalType": "bool",
              "name": "valid",
              "type": "bool"
            },
            {
              "internalType": "enum ICS23.HashOp",
              "name": "hash",
              "type": "uint8"
            },
            {
              "internalType": "bytes",
              "name": "prefix",
              "type": "bytes"
            },
            {
              "internalType": "bytes",
              "name": "suffix",
              "type": "bytes"
            }
          ],
          "internalType": "struct ICS23.InnerOp",
          "name": "op",
          "type": "tuple"
        },
        {
          "internalType": "bytes",
          "name": "child",
          "type": "bytes"
        }
      ],
      "name": "applyInner",
      "outputs": [
        {
          "internalType": "bytes",
          "name": "",
          "type": "bytes"
        }
      ],
      "stateMutability": "pure",
      "type": "function"
    },
    {
      "inputs": [
        {
          "components": [
            {
              "internalType": "bool",
              "name": "valid",
              "type": "bool"
            },
            {
              "internalType": "enum ICS23.HashOp",
              "name": "hash",
              "type": "uint8"
            },
            {
              "internalType": "enum ICS23.HashOp",
              "name": "prehash_key",
              "type": "uint8"
            },
            {
              "internalType": "enum ICS23.HashOp",
              "name": "prehash_value",
              "type": "uint8"
            },
            {
              "internalType": "enum ICS23.LengthOp",
              "name": "len",
              "type": "uint8"
            },
            {
              "internalType": "bytes",
              "name": "prefix",
              "type": "bytes"
            }
          ],
          "internalType": "struct ICS23.LeafOp",
          "name": "op",
          "type": "tuple"
        },
        {
          "internalType": "bytes",
          "name": "key",
          "type": "bytes"
        },
        {
          "internalType": "bytes",
          "name": "value",
          "type": "bytes"
        }
      ],
      "name": "applyLeaf",
      "outputs": [
        {
          "internalType": "bytes",
          "name": "",
          "type": "bytes"
        }
      ],
      "stateMutability": "pure",
      "type": "function"
    },
    {
      "inputs": [
        {
          "components": [
            {
              "internalType": "bool",
              "name": "valid",
              "type": "bool"
            },
            {
              "internalType": "bytes",
              "name": "key",
              "type": "bytes"
            },
            {
              "internalType": "bytes",
              "name": "value",
              "type": "bytes"
            },
            {
              "components": [
                {
                  "internalType": "bool",
                  "name": "valid",
                  "type": "bool"
                },
                {
                  "internalType": "enum ICS23.HashOp",
                  "name": "hash",
                  "type": "uint8"
                },
                {
                  "internalType": "enum ICS23.HashOp",
                  "name": "prehash_key",
                  "type": "uint8"
                },
                {
                  "internalType": "enum ICS23.HashOp",
                  "name": "prehash_value",
                  "type": "uint8"
                },
                {
                  "internalType": "enum ICS23.LengthOp",
                  "name": "len",
                  "type": "uint8"
                },
                {
                  "internalType": "bytes",
                  "name": "prefix",
                  "type": "bytes"
                }
              ],
              "internalType": "struct ICS23.LeafOp",
              "name": "leaf",
              "type": "tuple"
            },
            {
              "components": [
                {
                  "internalType": "bool",
                  "name": "valid",
                  "type": "bool"
                },
                {
                  "internalType": "enum ICS23.HashOp",
                  "name": "hash",
                  "type": "uint8"
                },
                {
                  "internalType": "bytes",
                  "name": "prefix",
                  "type": "bytes"
                },
                {
                  "internalType": "bytes",
                  "name": "suffix",
                  "type": "bytes"
                }
              ],
              "internalType": "struct ICS23.InnerOp[]",
              "name": "path",
              "type": "tuple[]"
            }
          ],
          "internalType": "struct ICS23.ExistenceProof",
          "name": "proof",
          "type": "tuple"
        }
      ],
      "name": "calculate",
      "outputs": [
        {
          "internalType": "bytes",
          "name": "",
          "type": "bytes"
        }
      ],
      "stateMutability": "pure",
      "type": "function"
    },
    {
      "inputs": [
        {
          "components": [
            {
              "internalType": "bool",
              "name": "valid",
              "type": "bool"
            },
            {
              "internalType": "bytes",
              "name": "key",
              "type": "bytes"
            },
            {
              "internalType": "bytes",
              "name": "value",
              "type": "bytes"
            },
            {
              "components": [
                {
                  "internalType": "bool",
                  "name": "valid",
                  "type": "bool"
                },
                {
                  "internalType": "enum ICS23.HashOp",
                  "name": "hash",
                  "type": "uint8"
                },
                {
                  "internalType": "enum ICS23.HashOp",
                  "name": "prehash_key",
                  "type": "uint8"
                },
                {
                  "internalType": "enum ICS23.HashOp",
                  "name": "prehash_value",
                  "type": "uint8"
                },
                {
                  "internalType": "enum ICS23.LengthOp",
                  "name": "len",
                  "type": "uint8"
                },
                {
                  "internalType": "bytes",
                  "name": "prefix",
                  "type": "bytes"
                }
              ],
              "internalType": "struct ICS23.LeafOp",
              "name": "leaf",
              "type": "tuple"
            },
            {
              "components": [
                {
                  "internalType": "bool",
                  "name": "valid",
                  "type": "bool"
                },
                {
                  "internalType": "enum ICS23.HashOp",
                  "name": "hash",
                  "type": "uint8"
                },
                {
                  "internalType": "bytes",
                  "name": "prefix",
                  "type": "bytes"
                },
                {
                  "internalType": "bytes",
                  "name": "suffix",
                  "type": "bytes"
                }
              ],
              "internalType": "struct ICS23.InnerOp[]",
              "name": "path",
              "type": "tuple[]"
            }
          ],
          "internalType": "struct ICS23.ExistenceProof",
          "name": "proof",
          "type": "tuple"
        },
        {
          "components": [
            {
              "internalType": "bool",
              "name": "valid",
              "type": "bool"
            },
            {
              "internalType": "enum ICS23.HashOp",
              "name": "hash",
              "type": "uint8"
            },
            {
              "internalType": "enum ICS23.HashOp",
              "name": "prehash_key",
              "type": "uint8"
            },
            {
              "internalType": "enum ICS23.HashOp",
              "name": "prehash_value",
              "type": "uint8"
            },
            {
              "internalType": "enum ICS23.LengthOp",
              "name": "len",
              "type": "uint8"
            },
            {
              "internalType": "bytes",
              "name": "prefix",
              "type": "bytes"
            }
          ],
          "internalType": "struct ICS23.LeafOp",
          "name": "spec",
          "type": "tuple"
        }
      ],
      "name": "checkAgainstSpec",
      "outputs": [
        {
          "internalType": "bool",
          "name": "",
          "type": "bool"
        }
      ],
      "stateMutability": "pure",
      "type": "function"
    },
    {
      "inputs": [
        {
          "internalType": "bytes",
          "name": "bz1",
          "type": "bytes"
        },
        {
          "internalType": "bytes",
          "name": "bz2",
          "type": "bytes"
        }
      ],
      "name": "compareBytes",
      "outputs": [
        {
          "internalType": "enum ICS23.Ordering",
          "name": "",
          "type": "uint8"
        }
      ],
      "stateMutability": "pure",
      "type": "function"
    },
    {
      "inputs": [
        {
          "internalType": "enum ICS23.HashOp",
          "name": "op",
          "type": "uint8"
        },
        {
          "internalType": "bytes",
          "name": "preimage",
          "type": "bytes"
        }
      ],
      "name": "doHash",
      "outputs": [
        {
          "internalType": "bytes",
          "name": "",
          "type": "bytes"
        }
      ],
      "stateMutability": "pure",
      "type": "function"
    },
    {
      "inputs": [
        {
          "internalType": "enum ICS23.HashOp",
          "name": "op",
          "type": "uint8"
        },
        {
          "internalType": "bytes",
          "name": "preimage",
          "type": "bytes"
        }
      ],
      "name": "doHashOrNoop",
      "outputs": [
        {
          "internalType": "bytes",
          "name": "",
          "type": "bytes"
        }
      ],
      "stateMutability": "pure",
      "type": "function"
    },
    {
      "inputs": [
        {
          "internalType": "enum ICS23.LengthOp",
          "name": "op",
          "type": "uint8"
        },
        {
          "internalType": "bytes",
          "name": "data",
          "type": "bytes"
        }
      ],
      "name": "doLength",
      "outputs": [
        {
          "internalType": "bytes",
          "name": "",
          "type": "bytes"
        }
      ],
      "stateMutability": "pure",
      "type": "function"
    },
    {
      "inputs": [
        {
          "internalType": "bytes",
          "name": "bz1",
          "type": "bytes"
        },
        {
          "internalType": "bytes",
          "name": "bz2",
          "type": "bytes"
        }
      ],
      "name": "equalBytes",
      "outputs": [
        {
          "internalType": "bool",
          "name": "",
          "type": "bool"
        }
      ],
      "stateMutability": "pure",
      "type": "function"
    },
    {
      "inputs": [
        {
          "components": [
            {
              "internalType": "uint256[]",
              "name": "childOrder",
              "type": "uint256[]"
            },
            {
              "internalType": "uint256",
              "name": "childSize",
              "type": "uint256"
            },
            {
              "internalType": "uint256",
              "name": "minPrefixLength",
              "type": "uint256"
            },
            {
              "internalType": "uint256",
              "name": "maxPrefixLength",
              "type": "uint256"
            },
            {
              "internalType": "bytes",
              "name": "emptyChild",
              "type": "bytes"
            },
            {
              "internalType": "enum ICS23.HashOp",
              "name": "hash",
              "type": "uint8"
            }
          ],
          "internalType": "struct ICS23.InnerSpec",
          "name": "spec",
          "type": "tuple"
        },
        {
          "internalType": "uint256",
          "name": "branch",
          "type": "uint256"
        }
      ],
      "name": "getPadding",
      "outputs": [
        {
          "internalType": "uint256",
          "name": "",
          "type": "uint256"
        },
        {
          "internalType": "uint256",
          "name": "",
          "type": "uint256"
        },
        {
          "internalType": "uint256",
          "name": "",
          "type": "uint256"
        }
      ],
      "stateMutability": "pure",
      "type": "function"
    },
    {
      "inputs": [
        {
          "internalType": "uint256[]",
          "name": "order",
          "type": "uint256[]"
        },
        {
          "internalType": "uint256",
          "name": "branch",
          "type": "uint256"
        }
      ],
      "name": "getPosition",
      "outputs": [
        {
          "internalType": "uint256",
          "name": "",
          "type": "uint256"
        }
      ],
      "stateMutability": "pure",
      "type": "function"
    },
    {
      "inputs": [
        {
          "components": [
            {
              "internalType": "bool",
              "name": "valid",
              "type": "bool"
            },
            {
              "internalType": "enum ICS23.HashOp",
              "name": "hash",
              "type": "uint8"
            },
            {
              "internalType": "bytes",
              "name": "prefix",
              "type": "bytes"
            },
            {
              "internalType": "bytes",
              "name": "suffix",
              "type": "bytes"
            }
          ],
          "internalType": "struct ICS23.InnerOp",
          "name": "op",
          "type": "tuple"
        },
        {
          "internalType": "uint256",
          "name": "minPrefix",
          "type": "uint256"
        },
        {
          "internalType": "uint256",
          "name": "maxPrefix",
          "type": "uint256"
        },
        {
          "internalType": "uint256",
          "name": "suffix",
          "type": "uint256"
        }
      ],
      "name": "hasPadding",
      "outputs": [
        {
          "internalType": "bool",
          "name": "",
          "type": "bool"
        }
      ],
      "stateMutability": "pure",
      "type": "function"
    },
    {
      "inputs": [
        {
          "internalType": "bytes[]",
          "name": "data",
          "type": "bytes[]"
        }
      ],
      "name": "hashFromByteSlices",
      "outputs": [
        {
          "internalType": "bytes32",
          "name": "",
          "type": "bytes32"
        }
      ],
      "stateMutability": "pure",
      "type": "function"
    },
    {
      "inputs": [
        {
          "internalType": "bytes",
          "name": "s",
          "type": "bytes"
        },
        {
          "internalType": "bytes",
          "name": "prefix",
          "type": "bytes"
        }
      ],
      "name": "hasprefix",
      "outputs": [
        {
          "internalType": "bool",
          "name": "",
          "type": "bool"
        }
      ],
      "stateMutability": "pure",
      "type": "function"
    },
    {
      "inputs": [
        {
          "components": [
            {
              "internalType": "uint256[]",
              "name": "childOrder",
              "type": "uint256[]"
            },
            {
              "internalType": "uint256",
              "name": "childSize",
              "type": "uint256"
            },
            {
              "internalType": "uint256",
              "name": "minPrefixLength",
              "type": "uint256"
            },
            {
              "internalType": "uint256",
              "name": "maxPrefixLength",
              "type": "uint256"
            },
            {
              "internalType": "bytes",
              "name": "emptyChild",
              "type": "bytes"
            },
            {
              "internalType": "enum ICS23.HashOp",
              "name": "hash",
              "type": "uint8"
            }
          ],
          "internalType": "struct ICS23.InnerSpec",
          "name": "spec",
          "type": "tuple"
        },
        {
          "components": [
            {
              "internalType": "bool",
              "name": "valid",
              "type": "bool"
            },
            {
              "internalType": "enum ICS23.HashOp",
              "name": "hash",
              "type": "uint8"
            },
            {
              "internalType": "bytes",
              "name": "prefix",
              "type": "bytes"
            },
            {
              "internalType": "bytes",
              "name": "suffix",
              "type": "bytes"
            }
          ],
          "internalType": "struct ICS23.InnerOp[]",
          "name": "path",
          "type": "tuple[]"
        }
      ],
      "name": "isLeftMost",
      "outputs": [
        {
          "internalType": "bool",
          "name": "",
          "type": "bool"
        }
      ],
      "stateMutability": "pure",
      "type": "function"
    },
    {
      "inputs": [
        {
          "components": [
            {
              "internalType": "uint256[]",
              "name": "childOrder",
              "type": "uint256[]"
            },
            {
              "internalType": "uint256",
              "name": "childSize",
              "type": "uint256"
            },
            {
              "internalType": "uint256",
              "name": "minPrefixLength",
              "type": "uint256"
            },
            {
              "internalType": "uint256",
              "name": "maxPrefixLength",
              "type": "uint256"
            },
            {
              "internalType": "bytes",
              "name": "emptyChild",
              "type": "bytes"
            },
            {
              "internalType": "enum ICS23.HashOp",
              "name": "hash",
              "type": "uint8"
            }
          ],
          "internalType": "struct ICS23.InnerSpec",
          "name": "spec",
          "type": "tuple"
        },
        {
          "components": [
            {
              "internalType": "bool",
              "name": "valid",
              "type": "bool"
            },
            {
              "internalType": "enum ICS23.HashOp",
              "name": "hash",
              "type": "uint8"
            },
            {
              "internalType": "bytes",
              "name": "prefix",
              "type": "bytes"
            },
            {
              "internalType": "bytes",
              "name": "suffix",
              "type": "bytes"
            }
          ],
          "internalType": "struct ICS23.InnerOp[]",
          "name": "left",
          "type": "tuple[]"
        },
        {
          "components": [
            {
              "internalType": "bool",
              "name": "valid",
              "type": "bool"
            },
            {
              "internalType": "enum ICS23.HashOp",
              "name": "hash",
              "type": "uint8"
            },
            {
              "internalType": "bytes",
              "name": "prefix",
              "type": "bytes"
            },
            {
              "internalType": "bytes",
              "name": "suffix",
              "type": "bytes"
            }
          ],
          "internalType": "struct ICS23.InnerOp[]",
          "name": "right",
          "type": "tuple[]"
        }
      ],
      "name": "isLeftNeighbor",
      "outputs": [
        {
          "internalType": "bool",
          "name": "",
          "type": "bool"
        }
      ],
      "stateMutability": "pure",
      "type": "function"
    },
    {
      "inputs": [
        {
          "components": [
            {
              "internalType": "uint256[]",
              "name": "childOrder",
              "type": "uint256[]"
            },
            {
              "internalType": "uint256",
              "name": "childSize",
              "type": "uint256"
            },
            {
              "internalType": "uint256",
              "name": "minPrefixLength",
              "type": "uint256"
            },
            {
              "internalType": "uint256",
              "name": "maxPrefixLength",
              "type": "uint256"
            },
            {
              "internalType": "bytes",
              "name": "emptyChild",
              "type": "bytes"
            },
            {
              "internalType": "enum ICS23.HashOp",
              "name": "hash",
              "type": "uint8"
            }
          ],
          "internalType": "struct ICS23.InnerSpec",
          "name": "spec",
          "type": "tuple"
        },
        {
          "components": [
            {
              "internalType": "bool",
              "name": "valid",
              "type": "bool"
            },
            {
              "internalType": "enum ICS23.HashOp",
              "name": "hash",
              "type": "uint8"
            },
            {
              "internalType": "bytes",
              "name": "prefix",
              "type": "bytes"
            },
            {
              "internalType": "bytes",
              "name": "suffix",
              "type": "bytes"
            }
          ],
          "internalType": "struct ICS23.InnerOp",
          "name": "left",
          "type": "tuple"
        },
        {
          "components": [
            {
              "internalType": "bool",
              "name": "valid",
              "type": "bool"
            },
            {
              "internalType": "enum ICS23.HashOp",
              "name": "hash",
              "type": "uint8"
            },
            {
              "internalType": "bytes",
              "name": "prefix",
              "type": "bytes"
            },
            {
              "internalType": "bytes",
              "name": "suffix",
              "type": "bytes"
            }
          ],
          "internalType": "struct ICS23.InnerOp",
          "name": "right",
          "type": "tuple"
        }
      ],
      "name": "isLeftStep",
      "outputs": [
        {
          "internalType": "bool",
          "name": "",
          "type": "bool"
        }
      ],
      "stateMutability": "pure",
      "type": "function"
    },
    {
      "inputs": [
        {
          "components": [
            {
              "internalType": "uint256[]",
              "name": "childOrder",
              "type": "uint256[]"
            },
            {
              "internalType": "uint256",
              "name": "childSize",
              "type": "uint256"
            },
            {
              "internalType": "uint256",
              "name": "minPrefixLength",
              "type": "uint256"
            },
            {
              "internalType": "uint256",
              "name": "maxPrefixLength",
              "type": "uint256"
            },
            {
              "internalType": "bytes",
              "name": "emptyChild",
              "type": "bytes"
            },
            {
              "internalType": "enum ICS23.HashOp",
              "name": "hash",
              "type": "uint8"
            }
          ],
          "internalType": "struct ICS23.InnerSpec",
          "name": "spec",
          "type": "tuple"
        },
        {
          "components": [
            {
              "internalType": "bool",
              "name": "valid",
              "type": "bool"
            },
            {
              "internalType": "enum ICS23.HashOp",
              "name": "hash",
              "type": "uint8"
            },
            {
              "internalType": "bytes",
              "name": "prefix",
              "type": "bytes"
            },
            {
              "internalType": "bytes",
              "name": "suffix",
              "type": "bytes"
            }
          ],
          "internalType": "struct ICS23.InnerOp[]",
          "name": "path",
          "type": "tuple[]"
        }
      ],
      "name": "isRightMost",
      "outputs": [
        {
          "internalType": "bool",
          "name": "",
          "type": "bool"
        }
      ],
      "stateMutability": "pure",
      "type": "function"
    },
    {
      "inputs": [
        {
          "components": [
            {
              "internalType": "uint256[]",
              "name": "childOrder",
              "type": "uint256[]"
            },
            {
              "internalType": "uint256",
              "name": "childSize",
              "type": "uint256"
            },
            {
              "internalType": "uint256",
              "name": "minPrefixLength",
              "type": "uint256"
            },
            {
              "internalType": "uint256",
              "name": "maxPrefixLength",
              "type": "uint256"
            },
            {
              "internalType": "bytes",
              "name": "emptyChild",
              "type": "bytes"
            },
            {
              "internalType": "enum ICS23.HashOp",
              "name": "hash",
              "type": "uint8"
            }
          ],
          "internalType": "struct ICS23.InnerSpec",
          "name": "spec",
          "type": "tuple"
        },
        {
          "components": [
            {
              "internalType": "bool",
              "name": "valid",
              "type": "bool"
            },
            {
              "internalType": "enum ICS23.HashOp",
              "name": "hash",
              "type": "uint8"
            },
            {
              "internalType": "bytes",
              "name": "prefix",
              "type": "bytes"
            },
            {
              "internalType": "bytes",
              "name": "suffix",
              "type": "bytes"
            }
          ],
          "internalType": "struct ICS23.InnerOp",
          "name": "op",
          "type": "tuple"
        }
      ],
      "name": "orderFromPadding",
      "outputs": [
        {
          "internalType": "uint256",
          "name": "",
          "type": "uint256"
        }
      ],
      "stateMutability": "pure",
      "type": "function"
    },
    {
      "inputs": [
        {
          "internalType": "enum ICS23.HashOp",
          "name": "hashop",
          "type": "uint8"
        },
        {
          "internalType": "enum ICS23.LengthOp",
          "name": "lengthop",
          "type": "uint8"
        },
        {
          "internalType": "bytes",
          "name": "data",
          "type": "bytes"
        }
      ],
      "name": "prepareLeafData",
      "outputs": [
        {
          "internalType": "bytes",
          "name": "",
          "type": "bytes"
        }
      ],
      "stateMutability": "pure",
      "type": "function"
    },
    {
      "inputs": [
        {
          "components": [
            {
              "internalType": "bool",
              "name": "valid",
              "type": "bool"
            },
            {
              "internalType": "bytes",
              "name": "key",
              "type": "bytes"
            },
            {
              "internalType": "bytes",
              "name": "value",
              "type": "bytes"
            },
            {
              "components": [
                {
                  "internalType": "bool",
                  "name": "valid",
                  "type": "bool"
                },
                {
                  "internalType": "enum ICS23.HashOp",
                  "name": "hash",
                  "type": "uint8"
                },
                {
                  "internalType": "enum ICS23.HashOp",
                  "name": "prehash_key",
                  "type": "uint8"
                },
                {
                  "internalType": "enum ICS23.HashOp",
                  "name": "prehash_value",
                  "type": "uint8"
                },
                {
                  "internalType": "enum ICS23.LengthOp",
                  "name": "len",
                  "type": "uint8"
                },
                {
                  "internalType": "bytes",
                  "name": "prefix",
                  "type": "bytes"
                }
              ],
              "internalType": "struct ICS23.LeafOp",
              "name": "leaf",
              "type": "tuple"
            },
            {
              "components": [
                {
                  "internalType": "bool",
                  "name": "valid",
                  "type": "bool"
                },
                {
                  "internalType": "enum ICS23.HashOp",
                  "name": "hash",
                  "type": "uint8"
                },
                {
                  "internalType": "bytes",
                  "name": "prefix",
                  "type": "bytes"
                },
                {
                  "internalType": "bytes",
                  "name": "suffix",
                  "type": "bytes"
                }
              ],
              "internalType": "struct ICS23.InnerOp[]",
              "name": "path",
              "type": "tuple[]"
            }
          ],
          "internalType": "struct ICS23.ExistenceProof",
          "name": "proof",
          "type": "tuple"
        },
        {
          "components": [
            {
              "internalType": "bool",
              "name": "valid",
              "type": "bool"
            },
            {
              "internalType": "enum ICS23.HashOp",
              "name": "hash",
              "type": "uint8"
            },
            {
              "internalType": "enum ICS23.HashOp",
              "name": "prehash_key",
              "type": "uint8"
            },
            {
              "internalType": "enum ICS23.HashOp",
              "name": "prehash_value",
              "type": "uint8"
            },
            {
              "internalType": "enum ICS23.LengthOp",
              "name": "len",
              "type": "uint8"
            },
            {
              "internalType": "bytes",
              "name": "prefix",
              "type": "bytes"
            }
          ],
          "internalType": "struct ICS23.LeafOp",
          "name": "spec",
          "type": "tuple"
        },
        {
          "internalType": "bytes",
          "name": "root",
          "type": "bytes"
        },
        {
          "internalType": "bytes",
          "name": "key",
          "type": "bytes"
        },
        {
          "internalType": "bytes",
          "name": "value",
          "type": "bytes"
        }
      ],
      "name": "verifyExistence",
      "outputs": [
        {
          "internalType": "bool",
          "name": "",
          "type": "bool"
        }
      ],
      "stateMutability": "pure",
      "type": "function"
    },
    {
      "inputs": [
        {
          "internalType": "bytes",
          "name": "proofBz",
          "type": "bytes"
        },
        {
          "internalType": "bytes",
          "name": "rootBz",
          "type": "bytes"
        },
        {
          "internalType": "bytes",
          "name": "pathBz",
          "type": "bytes"
        },
        {
          "internalType": "bytes",
          "name": "value",
          "type": "bytes"
        },
        {
          "components": [
            {
              "internalType": "bool",
              "name": "valid",
              "type": "bool"
            },
            {
              "internalType": "bytes",
              "name": "key",
              "type": "bytes"
            },
            {
              "internalType": "bytes",
              "name": "value",
              "type": "bytes"
            },
            {
              "components": [
                {
                  "internalType": "bool",
                  "name": "valid",
                  "type": "bool"
                },
                {
                  "internalType": "enum ICS23.HashOp",
                  "name": "hash",
                  "type": "uint8"
                },
                {
                  "internalType": "enum ICS23.HashOp",
                  "name": "prehash_key",
                  "type": "uint8"
                },
                {
                  "internalType": "enum ICS23.HashOp",
                  "name": "prehash_value",
                  "type": "uint8"
                },
                {
                  "internalType": "enum ICS23.LengthOp",
                  "name": "len",
                  "type": "uint8"
                },
                {
                  "internalType": "bytes",
                  "name": "prefix",
                  "type": "bytes"
                }
              ],
              "internalType": "struct ICS23.LeafOp",
              "name": "leaf",
              "type": "tuple"
            },
            {
              "components": [
                {
                  "internalType": "bool",
                  "name": "valid",
                  "type": "bool"
                },
                {
                  "internalType": "enum ICS23.HashOp",
                  "name": "hash",
                  "type": "uint8"
                },
                {
                  "internalType": "bytes",
                  "name": "prefix",
                  "type": "bytes"
                },
                {
                  "internalType": "bytes",
                  "name": "suffix",
                  "type": "bytes"
                }
              ],
              "internalType": "struct ICS23.InnerOp[]",
              "name": "path",
              "type": "tuple[]"
            }
          ],
          "internalType": "struct ICS23.ExistenceProof",
          "name": "proof",
          "type": "tuple"
        }
      ],
      "name": "verifyMembership",
      "outputs": [
        {
          "internalType": "bool",
          "name": "",
          "type": "bool"
        }
      ],
      "stateMutability": "view",
      "type": "function"
    },
    {
      "inputs": [
        {
          "components": [
            {
              "internalType": "bool",
              "name": "valid",
              "type": "bool"
            },
            {
              "internalType": "enum ICS23.HashOp",
              "name": "hash",
              "type": "uint8"
            },
            {
              "internalType": "enum ICS23.HashOp",
              "name": "prehash_key",
              "type": "uint8"
            },
            {
              "internalType": "enum ICS23.HashOp",
              "name": "prehash_value",
              "type": "uint8"
            },
            {
              "internalType": "enum ICS23.LengthOp",
              "name": "len",
              "type": "uint8"
            },
            {
              "internalType": "bytes",
              "name": "prefix",
              "type": "bytes"
            }
          ],
          "internalType": "struct ICS23.LeafOp",
          "name": "spec",
          "type": "tuple"
        },
        {
          "internalType": "bytes",
          "name": "root",
          "type": "bytes"
        },
        {
          "components": [
            {
              "internalType": "bool",
              "name": "valid",
              "type": "bool"
            },
            {
              "internalType": "bytes",
              "name": "key",
              "type": "bytes"
            },
            {
              "internalType": "bytes",
              "name": "value",
              "type": "bytes"
            },
            {
              "components": [
                {
                  "internalType": "bool",
                  "name": "valid",
                  "type": "bool"
                },
                {
                  "internalType": "enum ICS23.HashOp",
                  "name": "hash",
                  "type": "uint8"
                },
                {
                  "internalType": "enum ICS23.HashOp",
                  "name": "prehash_key",
                  "type": "uint8"
                },
                {
                  "internalType": "enum ICS23.HashOp",
                  "name": "prehash_value",
                  "type": "uint8"
                },
                {
                  "internalType": "enum ICS23.LengthOp",
                  "name": "len",
                  "type": "uint8"
                },
                {
                  "internalType": "bytes",
                  "name": "prefix",
                  "type": "bytes"
                }
              ],
              "internalType": "struct ICS23.LeafOp",
              "name": "leaf",
              "type": "tuple"
            },
            {
              "components": [
                {
                  "internalType": "bool",
                  "name": "valid",
                  "type": "bool"
                },
                {
                  "internalType": "enum ICS23.HashOp",
                  "name": "hash",
                  "type": "uint8"
                },
                {
                  "internalType": "bytes",
                  "name": "prefix",
                  "type": "bytes"
                },
                {
                  "internalType": "bytes",
                  "name": "suffix",
                  "type": "bytes"
                }
              ],
              "internalType": "struct ICS23.InnerOp[]",
              "name": "path",
              "type": "tuple[]"
            }
          ],
          "internalType": "struct ICS23.ExistenceProof",
          "name": "proof",
          "type": "tuple"
        },
        {
          "internalType": "bytes",
          "name": "key",
          "type": "bytes"
        },
        {
          "internalType": "bytes",
          "name": "value",
          "type": "bytes"
        }
      ],
      "name": "verifyMembership",
      "outputs": [
        {
          "internalType": "bool",
          "name": "",
          "type": "bool"
        }
      ],
      "stateMutability": "pure",
      "type": "function"
    },
    {
      "inputs": [
        {
          "components": [
            {
              "internalType": "bool",
              "name": "valid",
              "type": "bool"
            },
            {
              "internalType": "bytes",
              "name": "key",
              "type": "bytes"
            },
            {
              "components": [
                {
                  "internalType": "bool",
                  "name": "valid",
                  "type": "bool"
                },
                {
                  "internalType": "bytes",
                  "name": "key",
                  "type": "bytes"
                },
                {
                  "internalType": "bytes",
                  "name": "value",
                  "type": "bytes"
                },
                {
                  "components": [
                    {
                      "internalType": "bool",
                      "name": "valid",
                      "type": "bool"
                    },
                    {
                      "internalType": "enum ICS23.HashOp",
                      "name": "hash",
                      "type": "uint8"
                    },
                    {
                      "internalType": "enum ICS23.HashOp",
                      "name": "prehash_key",
                      "type": "uint8"
                    },
                    {
                      "internalType": "enum ICS23.HashOp",
                      "name": "prehash_value",
                      "type": "uint8"
                    },
                    {
                      "internalType": "enum ICS23.LengthOp",
                      "name": "len",
                      "type": "uint8"
                    },
                    {
                      "internalType": "bytes",
                      "name": "prefix",
                      "type": "bytes"
                    }
                  ],
                  "internalType": "struct ICS23.LeafOp",
                  "name": "leaf",
                  "type": "tuple"
                },
                {
                  "components": [
                    {
                      "internalType": "bool",
                      "name": "valid",
                      "type": "bool"
                    },
                    {
                      "internalType": "enum ICS23.HashOp",
                      "name": "hash",
                      "type": "uint8"
                    },
                    {
                      "internalType": "bytes",
                      "name": "prefix",
                      "type": "bytes"
                    },
                    {
                      "internalType": "bytes",
                      "name": "suffix",
                      "type": "bytes"
                    }
                  ],
                  "internalType": "struct ICS23.InnerOp[]",
                  "name": "path",
                  "type": "tuple[]"
                }
              ],
              "internalType": "struct ICS23.ExistenceProof",
              "name": "left",
              "type": "tuple"
            },
            {
              "components": [
                {
                  "internalType": "bool",
                  "name": "valid",
                  "type": "bool"
                },
                {
                  "internalType": "bytes",
                  "name": "key",
                  "type": "bytes"
                },
                {
                  "internalType": "bytes",
                  "name": "value",
                  "type": "bytes"
                },
                {
                  "components": [
                    {
                      "internalType": "bool",
                      "name": "valid",
                      "type": "bool"
                    },
                    {
                      "internalType": "enum ICS23.HashOp",
                      "name": "hash",
                      "type": "uint8"
                    },
                    {
                      "internalType": "enum ICS23.HashOp",
                      "name": "prehash_key",
                      "type": "uint8"
                    },
                    {
                      "internalType": "enum ICS23.HashOp",
                      "name": "prehash_value",
                      "type": "uint8"
                    },
                    {
                      "internalType": "enum ICS23.LengthOp",
                      "name": "len",
                      "type": "uint8"
                    },
                    {
                      "internalType": "bytes",
                      "name": "prefix",
                      "type": "bytes"
                    }
                  ],
                  "internalType": "struct ICS23.LeafOp",
                  "name": "leaf",
                  "type": "tuple"
                },
                {
                  "components": [
                    {
                      "internalType": "bool",
                      "name": "valid",
                      "type": "bool"
                    },
                    {
                      "internalType": "enum ICS23.HashOp",
                      "name": "hash",
                      "type": "uint8"
                    },
                    {
                      "internalType": "bytes",
                      "name": "prefix",
                      "type": "bytes"
                    },
                    {
                      "internalType": "bytes",
                      "name": "suffix",
                      "type": "bytes"
                    }
                  ],
                  "internalType": "struct ICS23.InnerOp[]",
                  "name": "path",
                  "type": "tuple[]"
                }
              ],
              "internalType": "struct ICS23.ExistenceProof",
              "name": "right",
              "type": "tuple"
            }
          ],
          "internalType": "struct ICS23.NonExistenceProof",
          "name": "proof",
          "type": "tuple"
        },
        {
          "components": [
            {
              "components": [
                {
                  "internalType": "bool",
                  "name": "valid",
                  "type": "bool"
                },
                {
                  "internalType": "enum ICS23.HashOp",
                  "name": "hash",
                  "type": "uint8"
                },
                {
                  "internalType": "enum ICS23.HashOp",
                  "name": "prehash_key",
                  "type": "uint8"
                },
                {
                  "internalType": "enum ICS23.HashOp",
                  "name": "prehash_value",
                  "type": "uint8"
                },
                {
                  "internalType": "enum ICS23.LengthOp",
                  "name": "len",
                  "type": "uint8"
                },
                {
                  "internalType": "bytes",
                  "name": "prefix",
                  "type": "bytes"
                }
              ],
              "internalType": "struct ICS23.LeafOp",
              "name": "leafSpec",
              "type": "tuple"
            },
            {
              "components": [
                {
                  "internalType": "uint256[]",
                  "name": "childOrder",
                  "type": "uint256[]"
                },
                {
                  "internalType": "uint256",
                  "name": "childSize",
                  "type": "uint256"
                },
                {
                  "internalType": "uint256",
                  "name": "minPrefixLength",
                  "type": "uint256"
                },
                {
                  "internalType": "uint256",
                  "name": "maxPrefixLength",
                  "type": "uint256"
                },
                {
                  "internalType": "bytes",
                  "name": "emptyChild",
                  "type": "bytes"
                },
                {
                  "internalType": "enum ICS23.HashOp",
                  "name": "hash",
                  "type": "uint8"
                }
              ],
              "internalType": "struct ICS23.InnerSpec",
              "name": "innerSpec",
              "type": "tuple"
            },
            {
              "internalType": "uint256",
              "name": "maxDepth",
              "type": "uint256"
            },
            {
              "internalType": "uint256",
              "name": "minDepth",
              "type": "uint256"
            }
          ],
          "internalType": "struct ICS23.ProofSpec",
          "name": "spec",
          "type": "tuple"
        },
        {
          "internalType": "bytes",
          "name": "root",
          "type": "bytes"
        },
        {
          "internalType": "bytes",
          "name": "key",
          "type": "bytes"
        }
      ],
      "name": "verifyNonExistence",
      "outputs": [
        {
          "internalType": "bool",
          "name": "",
          "type": "bool"
        }
      ],
      "stateMutability": "pure",
      "type": "function"
    },
    {
      "inputs": [
        {
          "components": [
            {
              "components": [
                {
                  "internalType": "bool",
                  "name": "valid",
                  "type": "bool"
                },
                {
                  "internalType": "enum ICS23.HashOp",
                  "name": "hash",
                  "type": "uint8"
                },
                {
                  "internalType": "enum ICS23.HashOp",
                  "name": "prehash_key",
                  "type": "uint8"
                },
                {
                  "internalType": "enum ICS23.HashOp",
                  "name": "prehash_value",
                  "type": "uint8"
                },
                {
                  "internalType": "enum ICS23.LengthOp",
                  "name": "len",
                  "type": "uint8"
                },
                {
                  "internalType": "bytes",
                  "name": "prefix",
                  "type": "bytes"
                }
              ],
              "internalType": "struct ICS23.LeafOp",
              "name": "leafSpec",
              "type": "tuple"
            },
            {
              "components": [
                {
                  "internalType": "uint256[]",
                  "name": "childOrder",
                  "type": "uint256[]"
                },
                {
                  "internalType": "uint256",
                  "name": "childSize",
                  "type": "uint256"
                },
                {
                  "internalType": "uint256",
                  "name": "minPrefixLength",
                  "type": "uint256"
                },
                {
                  "internalType": "uint256",
                  "name": "maxPrefixLength",
                  "type": "uint256"
                },
                {
                  "internalType": "bytes",
                  "name": "emptyChild",
                  "type": "bytes"
                },
                {
                  "internalType": "enum ICS23.HashOp",
                  "name": "hash",
                  "type": "uint8"
                }
              ],
              "internalType": "struct ICS23.InnerSpec",
              "name": "innerSpec",
              "type": "tuple"
            },
            {
              "internalType": "uint256",
              "name": "maxDepth",
              "type": "uint256"
            },
            {
              "internalType": "uint256",
              "name": "minDepth",
              "type": "uint256"
            }
          ],
          "internalType": "struct ICS23.ProofSpec",
          "name": "spec",
          "type": "tuple"
        },
        {
          "internalType": "bytes",
          "name": "root",
          "type": "bytes"
        },
        {
          "components": [
            {
              "internalType": "bool",
              "name": "valid",
              "type": "bool"
            },
            {
              "internalType": "bytes",
              "name": "key",
              "type": "bytes"
            },
            {
              "components": [
                {
                  "internalType": "bool",
                  "name": "valid",
                  "type": "bool"
                },
                {
                  "internalType": "bytes",
                  "name": "key",
                  "type": "bytes"
                },
                {
                  "internalType": "bytes",
                  "name": "value",
                  "type": "bytes"
                },
                {
                  "components": [
                    {
                      "internalType": "bool",
                      "name": "valid",
                      "type": "bool"
                    },
                    {
                      "internalType": "enum ICS23.HashOp",
                      "name": "hash",
                      "type": "uint8"
                    },
                    {
                      "internalType": "enum ICS23.HashOp",
                      "name": "prehash_key",
                      "type": "uint8"
                    },
                    {
                      "internalType": "enum ICS23.HashOp",
                      "name": "prehash_value",
                      "type": "uint8"
                    },
                    {
                      "internalType": "enum ICS23.LengthOp",
                      "name": "len",
                      "type": "uint8"
                    },
                    {
                      "internalType": "bytes",
                      "name": "prefix",
                      "type": "bytes"
                    }
                  ],
                  "internalType": "struct ICS23.LeafOp",
                  "name": "leaf",
                  "type": "tuple"
                },
                {
                  "components": [
                    {
                      "internalType": "bool",
                      "name": "valid",
                      "type": "bool"
                    },
                    {
                      "internalType": "enum ICS23.HashOp",
                      "name": "hash",
                      "type": "uint8"
                    },
                    {
                      "internalType": "bytes",
                      "name": "prefix",
                      "type": "bytes"
                    },
                    {
                      "internalType": "bytes",
                      "name": "suffix",
                      "type": "bytes"
                    }
                  ],
                  "internalType": "struct ICS23.InnerOp[]",
                  "name": "path",
                  "type": "tuple[]"
                }
              ],
              "internalType": "struct ICS23.ExistenceProof",
              "name": "left",
              "type": "tuple"
            },
            {
              "components": [
                {
                  "internalType": "bool",
                  "name": "valid",
                  "type": "bool"
                },
                {
                  "internalType": "bytes",
                  "name": "key",
                  "type": "bytes"
                },
                {
                  "internalType": "bytes",
                  "name": "value",
                  "type": "bytes"
                },
                {
                  "components": [
                    {
                      "internalType": "bool",
                      "name": "valid",
                      "type": "bool"
                    },
                    {
                      "internalType": "enum ICS23.HashOp",
                      "name": "hash",
                      "type": "uint8"
                    },
                    {
                      "internalType": "enum ICS23.HashOp",
                      "name": "prehash_key",
                      "type": "uint8"
                    },
                    {
                      "internalType": "enum ICS23.HashOp",
                      "name": "prehash_value",
                      "type": "uint8"
                    },
                    {
                      "internalType": "enum ICS23.LengthOp",
                      "name": "len",
                      "type": "uint8"
                    },
                    {
                      "internalType": "bytes",
                      "name": "prefix",
                      "type": "bytes"
                    }
                  ],
                  "internalType": "struct ICS23.LeafOp",
                  "name": "leaf",
                  "type": "tuple"
                },
                {
                  "components": [
                    {
                      "internalType": "bool",
                      "name": "valid",
                      "type": "bool"
                    },
                    {
                      "internalType": "enum ICS23.HashOp",
                      "name": "hash",
                      "type": "uint8"
                    },
                    {
                      "internalType": "bytes",
                      "name": "prefix",
                      "type": "bytes"
                    },
                    {
                      "internalType": "bytes",
                      "name": "suffix",
                      "type": "bytes"
                    }
                  ],
                  "internalType": "struct ICS23.InnerOp[]",
                  "name": "path",
                  "type": "tuple[]"
                }
              ],
              "internalType": "struct ICS23.ExistenceProof",
              "name": "right",
              "type": "tuple"
            }
          ],
          "internalType": "struct ICS23.NonExistenceProof",
          "name": "proof",
          "type": "tuple"
        },
        {
          "internalType": "bytes",
          "name": "key",
          "type": "bytes"
        }
      ],
      "name": "verifyNonMembership",
      "outputs": [
        {
          "internalType": "bool",
          "name": "",
          "type": "bool"
        }
      ],
      "stateMutability": "pure",
      "type": "function"
    },
    {
      "inputs": [
        {
          "internalType": "bytes",
          "name": "packet",
          "type": "bytes"
        },
        {
          "internalType": "bytes",
          "name": "proofBz",
          "type": "bytes"
        },
        {
          "internalType": "bytes",
          "name": "rootBz",
          "type": "bytes"
        },
        {
          "internalType": "bytes",
          "name": "pathBz",
          "type": "bytes"
        },
        {
          "internalType": "bytes",
          "name": "value",
          "type": "bytes"
        }
      ],
      "name": "changeOwnerWithProof",
      "outputs": [
        {
          "internalType": "bool",
          "name": "",
          "type": "bool"
        }
      ],
      "stateMutability": "nonpayable",
      "type": "function"
    }
  ],
  "bytecode": "0x60806040526040518060c00160405280600115158152602001600160058111156200002f576200002e62000274565b5b8152602001600060058111156200004b576200004a62000274565b5b81526020016001600581111562000067576200006662000274565b5b81526020016001600881111562000083576200008262000274565b5b815260200160405180604001604052806001815260200160008152508152506000808201518160000160006101000a81548160ff02191690831515021790555060208201518160000160016101000a81548160ff02191690836005811115620000f157620000f062000274565b5b021790555060408201518160000160026101000a81548160ff0219169083600581111562000124576200012362000274565b5b021790555060608201518160000160036101000a81548160ff0219169083600581111562000157576200015662000274565b5b021790555060808201518160000160046101000a81548160ff021916908360088111156200018a576200018962000274565b5b021790555060a0820151816001019080519060200190620001ad929190620001c4565b505050348015620001bd57600080fd5b5062000308565b828054620001d290620002d2565b90600052602060002090601f016020900481019282620001f6576000855562000242565b82601f106200021157805160ff191683800117855562000242565b8280016001018555821562000242579182015b828111156200024157825182559160200191906001019062000224565b5b50905062000251919062000255565b5090565b5b808211156200027057600081600090555060010162000256565b5090565b7f4e487b7100000000000000000000000000000000000000000000000000000000600052602160045260246000fd5b7f4e487b7100000000000000000000000000000000000000000000000000000000600052602260045260246000fd5b60006002820490506001821680620002eb57607f821691505b60208210811415620003025762000301620002a3565b5b50919050565b613fb580620003186000396000f3fe608060405234801561001057600080fd5b506004361061018e5760003560e01c8063951c0b90116100de578063d259183d11610097578063e2f442d611610071578063e2f442d6146105b5578063e5c341e2146105e5578063fbc2674d14610615578063fd29e20a146106455761018e565b8063d259183d14610525578063d48f1e4f14610555578063e189ffa9146105855761018e565b8063951c0b90146104055780639c854fbe146104355780639d18a11514610465578063af630bb114610495578063b4219c6f146104c5578063b6446a5f146104f55761018e565b80633e339c301161014b57806367bb8e811161012557806367bb8e811461034557806372aaf3df1461037557806383ead07c146103a5578063901d0e15146103d55761018e565b80633e339c30146102b5578063452e99a3146102e55780634cac70ff146103155761018e565b806303801174146101935780630d4383f4146101c35780631e63e931146101f55780632f1cf26214610225578063356e77ff14610255578063382fd85f14610285575b600080fd5b6101ad60048036038101906101a8919061221b565b610675565b6040516101ba91906122ff565b60405180910390f35b6101dd60048036038101906101d89190612501565b6106bf565b6040516101ec9392919061256c565b60405180910390f35b61020f600480360381019061020a91906125a3565b610756565b60405161021c91906125ff565b60405180910390f35b61023f600480360381019061023a91906127e3565b6107bb565b60405161024c9190612899565b60405180910390f35b61026f600480360381019061026a91906128b4565b610953565b60405161027c91906125ff565b60405180910390f35b61029f600480360381019061029a9190612b09565b6109be565b6040516102ac9190612899565b60405180910390f35b6102cf60048036038101906102ca9190612c10565b610b7d565b6040516102dc9190612899565b60405180910390f35b6102ff60048036038101906102fa9190612d17565b610b97565b60405161030c9190612899565b60405180910390f35b61032f600480360381019061032a9190612e1e565b610bf4565b60405161033c9190612899565b60405180910390f35b61035f600480360381019061035a9190612e96565b610cc2565b60405161036c91906122ff565b60405180910390f35b61038f600480360381019061038a9190612ef2565b610e5d565b60405161039c91906122ff565b60405180910390f35b6103bf60048036038101906103ba9190612f6a565b610eb5565b6040516103cc9190612899565b60405180910390f35b6103ef60048036038101906103ea9190612e1e565b610f48565b6040516103fc9190612899565b60405180910390f35b61041f600480360381019061041a9190612f6a565b611007565b60405161042c9190612899565b60405180910390f35b61044f600480360381019061044a9190612fe2565b611083565b60405161045c9190612899565b60405180910390f35b61047f600480360381019061047a9190613065565b6110c4565b60405161048c9190612899565b60405180910390f35b6104af60048036038101906104aa91906130dd565b611243565b6040516104bc91906122ff565b60405180910390f35b6104df60048036038101906104da9190613184565b6112d7565b6040516104ec9190612899565b60405180910390f35b61050f600480360381019061050a91906133a7565b61130e565b60405161051c9190612899565b60405180910390f35b61053f600480360381019061053a9190612e1e565b6114ec565b60405161054c91906134f5565b60405180910390f35b61056f600480360381019061056a919061221b565b6116b7565b60405161057c91906122ff565b60405180910390f35b61059f600480360381019061059a91906135f1565b611979565b6040516105ac9190613653565b60405180910390f35b6105cf60048036038101906105ca919061366e565b61198b565b6040516105dc9190612899565b60405180910390f35b6105ff60048036038101906105fa9190613775565b611996565b60405161060c91906122ff565b60405180910390f35b61062f600480360381019061062a91906137be565b611a0a565b60405161063c9190612899565b60405180910390f35b61065f600480360381019061065a9190613895565b611a22565b60405161066c91906122ff565b60405180910390f35b60606000600581111561068b5761068a61347e565b5b83600581111561069e5761069d61347e565b5b14156106ac578190506106b9565b6106b683836116b7565b90505b92915050565b6000806000806106d3866000015186610756565b905060008660200151826106e79190613933565b905060008760400151826106fb919061398d565b9050600088606001518361070f919061398d565b9050600089602001518560018c600001515161072b91906139e3565b61073591906139e3565b61073f9190613933565b905082828297509750975050505050509250925092565b60008251821061076557600080fd5b60005b83518110156107af578284828151811061078557610784613a17565b5b6020026020010151141561079c57809150506107b5565b80806107a790613a46565b915050610768565b50600080fd5b92915050565b600080600190505b610821848286516107d491906139e3565b815181106107e5576107e4613a17565b5b602002602001015160400151848386516107ff91906139e3565b815181106108105761080f613a17565b5b602002602001015160400151610bf4565b801561088757506108868482865161083991906139e3565b8151811061084a57610849613a17565b5b6020026020010151606001518483865161086491906139e3565b8151811061087557610874613a17565b5b602002602001015160600151610bf4565b5b1561089f57808061089790613a46565b9150506107c3565b6000848286516108af91906139e3565b815181106108c0576108bf613a17565b5b602002602001015190506000848386516108da91906139e3565b815181106108eb576108ea613a17565b5b602002602001015190506109008783836112d7565b610910576000935050505061094c565b61091a8787610eb5565b61092a576000935050505061094c565b6109348786611007565b610944576000935050505061094c565b600193505050505b9392505050565b600080836000015151905060005b818110156109b257600080600061097888856106bf565b92509250925061098a87848484611083565b1561099c5783955050505050506109b8565b50505080806109aa90613a46565b915050610961565b50600080fd5b92915050565b6000610b7260006040518060c00160405290816000820160009054906101000a900460ff161515151581526020016000820160019054906101000a900460ff166005811115610a1057610a0f61347e565b5b6005811115610a2257610a2161347e565b5b81526020016000820160029054906101000a900460ff166005811115610a4b57610a4a61347e565b5b6005811115610a5d57610a5c61347e565b5b81526020016000820160039054906101000a900460ff166005811115610a8657610a8561347e565b5b6005811115610a9857610a9761347e565b5b81526020016000820160049054906101000a900460ff166008811115610ac157610ac061347e565b5b6008811115610ad357610ad261347e565b5b8152602001600182018054610ae790613abe565b80601f0160208091040260200160405190810160405280929190818152602001828054610b1390613abe565b8015610b605780601f10610b3557610100808354040283529160200191610b60565b820191906000526020600020905b815481529060010190602001808311610b4357829003601f168201915b50505050508152505086848787610b7d565b905095945050505050565b6000610b8c8487878686610b97565b905095945050505050565b6000610ba386866110c4565b8015610bb95750610bb8838760200151610bf4565b5b8015610bcf5750610bce828760400151610bf4565b5b8015610be95750610be8610be287611996565b85610bf4565b5b905095945050505050565b60008151835114610c085760009050610cbc565b60005b8351811015610cb657828181518110610c2757610c26613a17565b5b602001015160f81c60f81b7effffffffffffffffffffffffffffffffffffffffffffffffffffffffffffff1916848281518110610c6757610c66613a17565b5b602001015160f81c60f81b7effffffffffffffffffffffffffffffffffffffffffffffffffffffffffffff191614610ca3576000915050610cbc565b8080610cae90613a46565b915050610c0b565b50600190505b92915050565b606060006008811115610cd857610cd761347e565b5b836008811115610ceb57610cea61347e565b5b1415610cf957819050610e57565b60016008811115610d0d57610d0c61347e565b5b836008811115610d2057610d1f61347e565b5b1415610d975760008251905060808110610d6d576080607f821617600782901c91508184604051602001610d5693929190613b6f565b604051602081830303815290604052915050610e57565b8083604051602001610d80929190613ba8565b604051602081830303815290604052915050610e57565b60076008811115610dab57610daa61347e565b5b836008811115610dbe57610dbd61347e565b5b1415610dda576020825114610dd257600080fd5b819050610e57565b600880811115610ded57610dec61347e565b5b836008811115610e0057610dff61347e565b5b1415610e1c576040825114610e1457600080fd5b819050610e57565b6040517f08c379a0000000000000000000000000000000000000000000000000000000008152600401610e4e90613c53565b60405180910390fd5b92915050565b6060600082511415610e6e57600080fd5b60008360400151838560600151604051602001610e8d93929190613c73565b6040516020818303038152906040529050610eac8460200151826116b7565b91505092915050565b6000806001846000015151610eca91906139e3565b90506000806000610edb87856106bf565b92509250925060005b8651811015610f3857610f13878281518110610f0357610f02613a17565b5b6020026020010151858585611083565b610f2557600095505050505050610f42565b8080610f3090613a46565b915050610ee4565b5060019450505050505b92915050565b600080600090505b8251811015610ffb57828181518110610f6c57610f6b613a17565b5b602001015160f81c60f81b7effffffffffffffffffffffffffffffffffffffffffffffffffffffffffffff1916848281518110610fac57610fab613a17565b5b602001015160f81c60f81b7effffffffffffffffffffffffffffffffffffffffffffffffffffffffffffff191614610fe8576000915050611001565b8080610ff390613a46565b915050610f50565b50600190505b92915050565b6000806000806110188660006106bf565b92509250925060005b8551811015611074576110508682815181106110405761103f613a17565b5b6020026020010151858585611083565b61106157600094505050505061107d565b808061106c90613a46565b915050611021565b50600193505050505b92915050565b600083856040015151101561109b57600090506110bc565b8285604001515111156110b157600090506110bc565b818560600151511490505b949350505050565b6000816020015160058111156110dd576110dc61347e565b5b83606001516020015160058111156110f8576110f761347e565b5b1480156111345750816040015160058111156111175761111661347e565b5b83606001516040015160058111156111325761113161347e565b5b145b801561116f5750816060015160058111156111525761115161347e565b5b836060015160600151600581111561116d5761116c61347e565b5b145b80156111aa57508160800151600881111561118d5761118c61347e565b5b83606001516080015160088111156111a8576111a761347e565b5b145b80156111c857506111c7836060015160a001518360a00151610f48565b5b6111d5576000905061123d565b60005b83608001515181101561123757611215846080015182815181106111ff576111fe613a17565b5b6020026020010151604001518460a00151610f48565b1561122457600091505061123d565b808061122f90613a46565b9150506111d8565b50600190505b92915050565b606060008351141561125457600080fd5b60008251141561126357600080fd5b60006112788560400151866080015186611a22565b9050600061128f8660600151876080015186611a22565b905060008660a0015183836040516020016112ac93929190613c73565b60405160208183030381529060405290506112cb8760200151826116b7565b93505050509392505050565b6000806112e48585610953565b905060006112f28685610953565b905080600183611302919061398d565b14925050509392505050565b600084604001516000015115801561132c5750846060015160000151155b1561133a57600090506114e4565b846040015160000151156113c15761136d8560400151856000015185886040015160200151896040015160400151610b97565b61137a57600090506114e4565b6000600281111561138e5761138d61347e565b5b6113a0838760600151602001516114ec565b60028111156113b2576113b161347e565b5b146113c057600090506114e4565b5b84606001516000015115611447576113f48560600151856000015185886060015160200151896060015160400151610b97565b61140157600090506114e4565b6002808111156114145761141361347e565b5b611426838760400151602001516114ec565b60028111156114385761143761347e565b5b1461144657600090506114e4565b5b84604001516000015161147c5761146a8460200151866060015160800151611007565b61147757600090506114e4565b6114df565b8460600151600001516114b15761149f8460200151866040015160800151610eb5565b6114ac57600090506114e4565b6114de565b6114d084602001518660400151608001518760600151608001516107bb565b6114dd57600090506114e4565b5b5b600190505b949350505050565b600080600090505b8351811080156115045750825181105b1561163c5782818151811061151c5761151b613a17565b5b602001015160f81c60f81b7effffffffffffffffffffffffffffffffffffffffffffffffffffffffffffff191684828151811061155c5761155b613a17565b5b602001015160f81c60f81b7effffffffffffffffffffffffffffffffffffffffffffffffffffffffffffff191610156115995760009150506116b1565b8281815181106115ac576115ab613a17565b5b602001015160f81c60f81b7effffffffffffffffffffffffffffffffffffffffffffffffffffffffffffff19168482815181106115ec576115eb613a17565b5b602001015160f81c60f81b7effffffffffffffffffffffffffffffffffffffffffffffffffffffffffffff191611156116295760029150506116b1565b808061163490613a46565b9150506114f4565b5081518351141561165057600190506116b1565b81518351101561166357600090506116b1565b81518351111561167657600290506116b1565b6040517f08c379a00000000000000000000000000000000000000000000000000000000081526004016116a890613cf0565b60405180910390fd5b92915050565b6060600360058111156116cd576116cc61347e565b5b8360058111156116e0576116df61347e565b5b14156117145781805190602001206040516020016116fe9190613d31565b6040516020818303038152906040529050611973565b600160058111156117285761172761347e565b5b83600581111561173b5761173a61347e565b5b14156117b7576002826040516117519190613d4c565b602060405180830381855afa15801561176e573d6000803e3d6000fd5b5050506040513d601f19601f820116820180604052508101906117919190613d8f565b6040516020016117a19190613d31565b6040516020818303038152906040529050611973565b600460058111156117cb576117ca61347e565b5b8360058111156117de576117dd61347e565b5b1415611841576003826040516117f49190613d4c565b602060405180830381855afa158015611811573d6000803e3d6000fd5b5050506040515160601b60405160200161182b9190613e09565b6040516020818303038152906040529050611973565b6005808111156118545761185361347e565b5b8360058111156118675761186661347e565b5b141561193857600360028360405161187f9190613d4c565b602060405180830381855afa15801561189c573d6000803e3d6000fd5b5050506040513d601f19601f820116820180604052508101906118bf9190613d8f565b6040516020016118cf9190613d31565b6040516020818303038152906040526040516118eb9190613d4c565b602060405180830381855afa158015611908573d6000803e3d6000fd5b5050506040515160601b6040516020016119229190613e09565b6040516020818303038152906040529050611973565b6040517f08c379a000000000000000000000000000000000000000000000000000000000815260040161196a90613e96565b60405180910390fd5b92915050565b600061198482611a4c565b9050919050565b600095945050505050565b606060006119b1836060015184602001518560400151611243565b905060005b836080015151811015611a00576119eb846080015182815181106119dd576119dc613a17565b5b602002602001015183610e5d565b915080806119f890613a46565b9150506119b6565b5080915050919050565b6000611a188386868561130e565b9050949350505050565b60606000611a308584610675565b90506000611a3e8583610cc2565b905080925050509392505050565b600080825190506000811415611b01576002600067ffffffffffffffff811115611a7957611a786120f0565b5b6040519080825280601f01601f191660200182016040528015611aab5781602001600182028036833780820191505090505b50604051611ab99190613d4c565b602060405180830381855afa158015611ad6573d6000803e3d6000fd5b5050506040513d601f19601f82011682018060405250810190611af99190613d8f565b915050611b84565b6001811415611b3657611b2e83600081518110611b2157611b20613a17565b5b6020026020010151611b89565b915050611b84565b6000611b428451611d14565b90506000611b5a611b5586600085611da5565b611a4c565b90506000611b71611b6c878587611da5565b611a4c565b9050611b7d8282611e73565b9450505050505b919050565b60008060018351611b9a919061398d565b67ffffffffffffffff811115611bb357611bb26120f0565b5b6040519080825280601f01601f191660200182016040528015611be55781602001600182028036833780820191505090505b509050600060f81b81600081518110611c0157611c00613a17565b5b60200101907effffffffffffffffffffffffffffffffffffffffffffffffffffffffffffff1916908160001a90535060005b8351811015611cbb57838181518110611c4f57611c4e613a17565b5b602001015160f81c60f81b82600183611c68919061398d565b81518110611c7957611c78613a17565b5b60200101907effffffffffffffffffffffffffffffffffffffffffffffffffffffffffffff1916908160001a9053508080611cb390613a46565b915050611c33565b50600281604051611ccc9190613d4c565b602060405180830381855afa158015611ce9573d6000803e3d6000fd5b5050506040513d601f19601f82011682018060405250810190611d0c9190613d8f565b915050919050565b60006001821015611d5a576040517f08c379a0000000000000000000000000000000000000000000000000000000008152600401611d5190613f28565b60405180910390fd5b6001821415611d6c5760009050611da0565b6000600190505b82600282611d819190613933565b1015611d9b57600281611d949190613933565b9050611d73565b809150505b919050565b606060008383611db591906139e3565b67ffffffffffffffff811115611dce57611dcd6120f0565b5b604051908082528060200260200182016040528015611e0157816020015b6060815260200190600190039081611dec5790505b50905060005b8151811015611e6757858186611e1d919061398d565b81518110611e2e57611e2d613a17565b5b6020026020010151828281518110611e4957611e48613a17565b5b60200260200101819052508080611e5f90613a46565b915050611e07565b50809150509392505050565b6000806001602080611e859190613f48565b611e8f9190613f48565b60ff1667ffffffffffffffff811115611eab57611eaa6120f0565b5b6040519080825280601f01601f191660200182016040528015611edd5781602001600182028036833780820191505090505b509050600160f81b81600081518110611ef957611ef8613a17565b5b60200101907effffffffffffffffffffffffffffffffffffffffffffffffffffffffffffff1916908160001a90535060006001905060005b602060ff16811015611fb757858160208110611f5057611f4f613a17565b5b1a60f81b838381518110611f6757611f66613a17565b5b60200101907effffffffffffffffffffffffffffffffffffffffffffffffffffffffffffff1916908160001a9053508180611fa190613a46565b9250508080611faf90613a46565b915050611f31565b5060005b602060ff1681101561204157848160208110611fda57611fd9613a17565b5b1a60f81b838381518110611ff157611ff0613a17565b5b60200101907effffffffffffffffffffffffffffffffffffffffffffffffffffffffffffff1916908160001a905350818061202b90613a46565b925050808061203990613a46565b915050611fbb565b506002826040516120529190613d4c565b602060405180830381855afa15801561206f573d6000803e3d6000fd5b5050506040513d601f19601f820116820180604052508101906120929190613d8f565b9250505092915050565b6000604051905090565b600080fd5b600080fd5b600681106120bd57600080fd5b50565b6000813590506120cf816120b0565b92915050565b600080fd5b600080fd5b6000601f19601f8301169050919050565b7f4e487b7100000000000000000000000000000000000000000000000000000000600052604160045260246000fd5b612128826120df565b810181811067ffffffffffffffff82111715612147576121466120f0565b5b80604052505050565b600061215a61209c565b9050612166828261211f565b919050565b600067ffffffffffffffff821115612186576121856120f0565b5b61218f826120df565b9050602081019050919050565b82818337600083830152505050565b60006121be6121b98461216b565b612150565b9050828152602081018484840111156121da576121d96120da565b5b6121e584828561219c565b509392505050565b600082601f830112612202576122016120d5565b5b81356122128482602086016121ab565b91505092915050565b60008060408385031215612232576122316120a6565b5b6000612240858286016120c0565b925050602083013567ffffffffffffffff811115612261576122606120ab565b5b61226d858286016121ed565b9150509250929050565b600081519050919050565b600082825260208201905092915050565b60005b838110156122b1578082015181840152602081019050612296565b838111156122c0576000848401525b50505050565b60006122d182612277565b6122db8185612282565b93506122eb818560208601612293565b6122f4816120df565b840191505092915050565b6000602082019050818103600083015261231981846122c6565b905092915050565b600080fd5b600080fd5b600067ffffffffffffffff821115612346576123456120f0565b5b602082029050602081019050919050565b600080fd5b6000819050919050565b61236f8161235c565b811461237a57600080fd5b50565b60008135905061238c81612366565b92915050565b60006123a56123a08461232b565b612150565b905080838252602082019050602084028301858111156123c8576123c7612357565b5b835b818110156123f157806123dd888261237d565b8452602084019350506020810190506123ca565b5050509392505050565b600082601f8301126124105761240f6120d5565b5b8135612420848260208601612392565b91505092915050565b600060c0828403121561243f5761243e612321565b5b61244960c0612150565b9050600082013567ffffffffffffffff81111561246957612468612326565b5b612475848285016123fb565b60008301525060206124898482850161237d565b602083015250604061249d8482850161237d565b60408301525060606124b18482850161237d565b606083015250608082013567ffffffffffffffff8111156124d5576124d4612326565b5b6124e1848285016121ed565b60808301525060a06124f5848285016120c0565b60a08301525092915050565b60008060408385031215612518576125176120a6565b5b600083013567ffffffffffffffff811115612536576125356120ab565b5b61254285828601612429565b92505060206125538582860161237d565b9150509250929050565b6125668161235c565b82525050565b6000606082019050612581600083018661255d565b61258e602083018561255d565b61259b604083018461255d565b949350505050565b600080604083850312156125ba576125b96120a6565b5b600083013567ffffffffffffffff8111156125d8576125d76120ab565b5b6125e4858286016123fb565b92505060206125f58582860161237d565b9150509250929050565b6000602082019050612614600083018461255d565b92915050565b600067ffffffffffffffff821115612635576126346120f0565b5b602082029050602081019050919050565b60008115159050919050565b61265b81612646565b811461266657600080fd5b50565b60008135905061267881612652565b92915050565b60006080828403121561269457612693612321565b5b61269e6080612150565b905060006126ae84828501612669565b60008301525060206126c2848285016120c0565b602083015250604082013567ffffffffffffffff8111156126e6576126e5612326565b5b6126f2848285016121ed565b604083015250606082013567ffffffffffffffff81111561271657612715612326565b5b612722848285016121ed565b60608301525092915050565b600061274161273c8461261a565b612150565b9050808382526020820190506020840283018581111561276457612763612357565b5b835b818110156127ab57803567ffffffffffffffff811115612789576127886120d5565b5b808601612796898261267e565b85526020850194505050602081019050612766565b5050509392505050565b600082601f8301126127ca576127c96120d5565b5b81356127da84826020860161272e565b91505092915050565b6000806000606084860312156127fc576127fb6120a6565b5b600084013567ffffffffffffffff81111561281a576128196120ab565b5b61282686828701612429565b935050602084013567ffffffffffffffff811115612847576128466120ab565b5b612853868287016127b5565b925050604084013567ffffffffffffffff811115612874576128736120ab565b5b612880868287016127b5565b9150509250925092565b61289381612646565b82525050565b60006020820190506128ae600083018461288a565b92915050565b600080604083850312156128cb576128ca6120a6565b5b600083013567ffffffffffffffff8111156128e9576128e86120ab565b5b6128f585828601612429565b925050602083013567ffffffffffffffff811115612916576129156120ab565b5b6129228582860161267e565b9150509250929050565b6009811061293957600080fd5b50565b60008135905061294b8161292c565b92915050565b600060c0828403121561296757612966612321565b5b61297160c0612150565b9050600061298184828501612669565b6000830152506020612995848285016120c0565b60208301525060406129a9848285016120c0565b60408301525060606129bd848285016120c0565b60608301525060806129d18482850161293c565b60808301525060a082013567ffffffffffffffff8111156129f5576129f4612326565b5b612a01848285016121ed565b60a08301525092915050565b600060a08284031215612a2357612a22612321565b5b612a2d60a0612150565b90506000612a3d84828501612669565b600083015250602082013567ffffffffffffffff811115612a6157612a60612326565b5b612a6d848285016121ed565b602083015250604082013567ffffffffffffffff811115612a9157612a90612326565b5b612a9d848285016121ed565b604083015250606082013567ffffffffffffffff811115612ac157612ac0612326565b5b612acd84828501612951565b606083015250608082013567ffffffffffffffff811115612af157612af0612326565b5b612afd848285016127b5565b60808301525092915050565b600080600080600060a08688031215612b2557612b246120a6565b5b600086013567ffffffffffffffff811115612b4357612b426120ab565b5b612b4f888289016121ed565b955050602086013567ffffffffffffffff811115612b7057612b6f6120ab565b5b612b7c888289016121ed565b945050604086013567ffffffffffffffff811115612b9d57612b9c6120ab565b5b612ba9888289016121ed565b935050606086013567ffffffffffffffff811115612bca57612bc96120ab565b5b612bd6888289016121ed565b925050608086013567ffffffffffffffff811115612bf757612bf66120ab565b5b612c0388828901612a0d565b9150509295509295909350565b600080600080600060a08688031215612c2c57612c2b6120a6565b5b600086013567ffffffffffffffff811115612c4a57612c496120ab565b5b612c5688828901612951565b955050602086013567ffffffffffffffff811115612c7757612c766120ab565b5b612c83888289016121ed565b945050604086013567ffffffffffffffff811115612ca457612ca36120ab565b5b612cb088828901612a0d565b935050606086013567ffffffffffffffff811115612cd157612cd06120ab565b5b612cdd888289016121ed565b925050608086013567ffffffffffffffff811115612cfe57612cfd6120ab565b5b612d0a888289016121ed565b9150509295509295909350565b600080600080600060a08688031215612d3357612d326120a6565b5b600086013567ffffffffffffffff811115612d5157612d506120ab565b5b612d5d88828901612a0d565b955050602086013567ffffffffffffffff811115612d7e57612d7d6120ab565b5b612d8a88828901612951565b945050604086013567ffffffffffffffff811115612dab57612daa6120ab565b5b612db7888289016121ed565b935050606086013567ffffffffffffffff811115612dd857612dd76120ab565b5b612de4888289016121ed565b925050608086013567ffffffffffffffff811115612e0557612e046120ab565b5b612e11888289016121ed565b9150509295509295909350565b60008060408385031215612e3557612e346120a6565b5b600083013567ffffffffffffffff811115612e5357612e526120ab565b5b612e5f858286016121ed565b925050602083013567ffffffffffffffff811115612e8057612e7f6120ab565b5b612e8c858286016121ed565b9150509250929050565b60008060408385031215612ead57612eac6120a6565b5b6000612ebb8582860161293c565b925050602083013567ffffffffffffffff811115612edc57612edb6120ab565b5b612ee8858286016121ed565b9150509250929050565b60008060408385031215612f0957612f086120a6565b5b600083013567ffffffffffffffff811115612f2757612f266120ab565b5b612f338582860161267e565b925050602083013567ffffffffffffffff811115612f5457612f536120ab565b5b612f60858286016121ed565b9150509250929050565b60008060408385031215612f8157612f806120a6565b5b600083013567ffffffffffffffff811115612f9f57612f9e6120ab565b5b612fab85828601612429565b925050602083013567ffffffffffffffff811115612fcc57612fcb6120ab565b5b612fd8858286016127b5565b9150509250929050565b60008060008060808587031215612ffc57612ffb6120a6565b5b600085013567ffffffffffffffff81111561301a576130196120ab565b5b6130268782880161267e565b94505060206130378782880161237d565b93505060406130488782880161237d565b92505060606130598782880161237d565b91505092959194509250565b6000806040838503121561307c5761307b6120a6565b5b600083013567ffffffffffffffff81111561309a576130996120ab565b5b6130a685828601612a0d565b925050602083013567ffffffffffffffff8111156130c7576130c66120ab565b5b6130d385828601612951565b9150509250929050565b6000806000606084860312156130f6576130f56120a6565b5b600084013567ffffffffffffffff811115613114576131136120ab565b5b61312086828701612951565b935050602084013567ffffffffffffffff811115613141576131406120ab565b5b61314d868287016121ed565b925050604084013567ffffffffffffffff81111561316e5761316d6120ab565b5b61317a868287016121ed565b9150509250925092565b60008060006060848603121561319d5761319c6120a6565b5b600084013567ffffffffffffffff8111156131bb576131ba6120ab565b5b6131c786828701612429565b935050602084013567ffffffffffffffff8111156131e8576131e76120ab565b5b6131f48682870161267e565b925050604084013567ffffffffffffffff811115613215576132146120ab565b5b6132218682870161267e565b9150509250925092565b60006080828403121561324157613240612321565b5b61324b6080612150565b9050600061325b84828501612669565b600083015250602082013567ffffffffffffffff81111561327f5761327e612326565b5b61328b848285016121ed565b602083015250604082013567ffffffffffffffff8111156132af576132ae612326565b5b6132bb84828501612a0d565b604083015250606082013567ffffffffffffffff8111156132df576132de612326565b5b6132eb84828501612a0d565b60608301525092915050565b60006080828403121561330d5761330c612321565b5b6133176080612150565b9050600082013567ffffffffffffffff81111561333757613336612326565b5b61334384828501612951565b600083015250602082013567ffffffffffffffff81111561336757613366612326565b5b61337384828501612429565b60208301525060406133878482850161237d565b604083015250606061339b8482850161237d565b60608301525092915050565b600080600080608085870312156133c1576133c06120a6565b5b600085013567ffffffffffffffff8111156133df576133de6120ab565b5b6133eb8782880161322b565b945050602085013567ffffffffffffffff81111561340c5761340b6120ab565b5b613418878288016132f7565b935050604085013567ffffffffffffffff811115613439576134386120ab565b5b613445878288016121ed565b925050606085013567ffffffffffffffff811115613466576134656120ab565b5b613472878288016121ed565b91505092959194509250565b7f4e487b7100000000000000000000000000000000000000000000000000000000600052602160045260246000fd5b600381106134be576134bd61347e565b5b50565b60008190506134cf826134ad565b919050565b60006134df826134c1565b9050919050565b6134ef816134d4565b82525050565b600060208201905061350a60008301846134e6565b92915050565b600067ffffffffffffffff82111561352b5761352a6120f0565b5b602082029050602081019050919050565b600061354f61354a84613510565b612150565b9050808382526020820190506020840283018581111561357257613571612357565b5b835b818110156135b957803567ffffffffffffffff811115613597576135966120d5565b5b8086016135a489826121ed565b85526020850194505050602081019050613574565b5050509392505050565b600082601f8301126135d8576135d76120d5565b5b81356135e884826020860161353c565b91505092915050565b600060208284031215613607576136066120a6565b5b600082013567ffffffffffffffff811115613625576136246120ab565b5b613631848285016135c3565b91505092915050565b6000819050919050565b61364d8161363a565b82525050565b60006020820190506136686000830184613644565b92915050565b600080600080600060a0868803121561368a576136896120a6565b5b600086013567ffffffffffffffff8111156136a8576136a76120ab565b5b6136b4888289016121ed565b955050602086013567ffffffffffffffff8111156136d5576136d46120ab565b5b6136e1888289016121ed565b945050604086013567ffffffffffffffff811115613702576137016120ab565b5b61370e888289016121ed565b935050606086013567ffffffffffffffff81111561372f5761372e6120ab565b5b61373b888289016121ed565b925050608086013567ffffffffffffffff81111561375c5761375b6120ab565b5b613768888289016121ed565b9150509295509295909350565b60006020828403121561378b5761378a6120a6565b5b600082013567ffffffffffffffff8111156137a9576137a86120ab565b5b6137b584828501612a0d565b91505092915050565b600080600080608085870312156137d8576137d76120a6565b5b600085013567ffffffffffffffff8111156137f6576137f56120ab565b5b613802878288016132f7565b945050602085013567ffffffffffffffff811115613823576138226120ab565b5b61382f878288016121ed565b935050604085013567ffffffffffffffff8111156138505761384f6120ab565b5b61385c8782880161322b565b925050606085013567ffffffffffffffff81111561387d5761387c6120ab565b5b613889878288016121ed565b91505092959194509250565b6000806000606084860312156138ae576138ad6120a6565b5b60006138bc868287016120c0565b93505060206138cd8682870161293c565b925050604084013567ffffffffffffffff8111156138ee576138ed6120ab565b5b6138fa868287016121ed565b9150509250925092565b7f4e487b7100000000000000000000000000000000000000000000000000000000600052601160045260246000fd5b600061393e8261235c565b91506139498361235c565b9250817fffffffffffffffffffffffffffffffffffffffffffffffffffffffffffffffff048311821515161561398257613981613904565b5b828202905092915050565b60006139988261235c565b91506139a38361235c565b9250827fffffffffffffffffffffffffffffffffffffffffffffffffffffffffffffffff038211156139d8576139d7613904565b5b828201905092915050565b60006139ee8261235c565b91506139f98361235c565b925082821015613a0c57613a0b613904565b5b828203905092915050565b7f4e487b7100000000000000000000000000000000000000000000000000000000600052603260045260246000fd5b6000613a518261235c565b91507fffffffffffffffffffffffffffffffffffffffffffffffffffffffffffffffff821415613a8457613a83613904565b5b600182019050919050565b7f4e487b7100000000000000000000000000000000000000000000000000000000600052602260045260246000fd5b60006002820490506001821680613ad657607f821691505b60208210811415613aea57613ae9613a8f565b5b50919050565b600060ff82169050919050565b60008160f81b9050919050565b6000613b1582613afd565b9050919050565b613b2d613b2882613af0565b613b0a565b82525050565b600081905092915050565b6000613b4982612277565b613b538185613b33565b9350613b63818560208601612293565b80840191505092915050565b6000613b7b8286613b1c565b600182019150613b8b8285613b1c565b600182019150613b9b8284613b3e565b9150819050949350505050565b6000613bb48285613b1c565b600182019150613bc48284613b3e565b91508190509392505050565b600082825260208201905092915050565b7f696e76616c6964206f7220756e737570706f72746564206c656e677468206f7060008201527f65726174696f6e00000000000000000000000000000000000000000000000000602082015250565b6000613c3d602783613bd0565b9150613c4882613be1565b604082019050919050565b60006020820190508181036000830152613c6c81613c30565b9050919050565b6000613c7f8286613b3e565b9150613c8b8285613b3e565b9150613c978284613b3e565b9150819050949350505050565b7f73686f756c64206e6f742072656163682074686973206c696e65000000000000600082015250565b6000613cda601a83613bd0565b9150613ce582613ca4565b602082019050919050565b60006020820190508181036000830152613d0981613ccd565b9050919050565b6000819050919050565b613d2b613d268261363a565b613d10565b82525050565b6000613d3d8284613d1a565b60208201915081905092915050565b6000613d588284613b3e565b915081905092915050565b613d6c8161363a565b8114613d7757600080fd5b50565b600081519050613d8981613d63565b92915050565b600060208284031215613da557613da46120a6565b5b6000613db384828501613d7a565b91505092915050565b60007fffffffffffffffffffffffffffffffffffffffff00000000000000000000000082169050919050565b6000819050919050565b613e03613dfe82613dbc565b613de8565b82525050565b6000613e158284613df2565b60148201915081905092915050565b7f696e76616c6964206f7220756e737570706f727465642068617368206f70657260008201527f6174696f6e000000000000000000000000000000000000000000000000000000602082015250565b6000613e80602583613bd0565b9150613e8b82613e24565b604082019050919050565b60006020820190508181036000830152613eaf81613e73565b9050919050565b7f547279696e6720746f2073706c69742061207472656520776974682073697a6560008201527f203c203100000000000000000000000000000000000000000000000000000000602082015250565b6000613f12602483613bd0565b9150613f1d82613eb6565b604082019050919050565b60006020820190508181036000830152613f4181613f05565b9050919050565b6000613f5382613af0565b9150613f5e83613af0565b92508260ff03821115613f7457613f73613904565b5b82820190509291505056fea264697066735822122017d7ae04f60efa430d873636a8bde4b0ffd092e9c548597472d86269639645fc64736f6c63430008090033",
  "immutableReferences": {},
  "source": "// SPDX-License-Identifier: MIT\npragma solidity ^0.8.7;\n\nimport \"../ICredentialRegistry.sol\";\nimport \"../ICrossmint.sol\";\nimport \"../IClaimsVerifier.sol\";\nimport \"@openzeppelin/contracts/access/Ownable.sol\";\nimport \"@openzeppelin/contracts/token/ERC20/IERC20.sol\";\n// import \"@openzeppelin/contracts/token/ERC20/IERC721Receiver.sol\";\nimport \"@openzeppelin/contracts/token/ERC721/ERC721.sol\";\nimport \"@openzeppelin/contracts/token/ERC721/extensions/ERC721Burnable.sol\";\nimport \"@openzeppelin/contracts/token/ERC721/extensions/ERC721Pausable.sol\";\nimport \"@openzeppelin/contracts/token/ERC721/extensions/ERC721URIStorage.sol\";\nimport \"@openzeppelin/contracts/utils/Counters.sol\";\nimport \"./ICS23Verifier.sol\";\n\ncontract AnconMetadataOwnableBridge is ICS23Verifier {\n\n\n    event CrossMintCallbackReceived(\n        address indexed newOwner,\n        string indexed metadataHash,\n        uint256 indexed tokenId\n    );\n\n    constructor(\n    ) public {\n     }\n\n \n \n    /**\n     * changeOwnerWithProof\n     */\n    function changeOwnerWithProof(\n        bytes memory packet,\n        bytes memory proofBz,\n        bytes memory rootBz,\n        bytes memory pathBz,\n        bytes memory value\n    ) public returns (bool) {\n        // verify permit exists, has not revoked, has valid issuer and is not expired\n        \n        // verify token exists\n        //_execute(vc.data);\n    }\n\n    function _execute(bytes memory data) internal returns (bool){\n        // ERC721(tokenAddress)\n        (\n            string memory metadata,\n            address to,\n            address newOwner,\n            address fromOwner,\n            uint256 id,\n            bool isNew\n        ) = abi.decode(\n                data,\n                (string, address, address, address, uint256, bool)\n            );\n        ERC721 nft = ERC721(to);\n\n        require(nft.ownerOf(id) == fromOwner, \"Invalid token id\");\n\n        if (isNew) {\n            // todo: should mint\n        } else {\n            nft.safeTransferFrom(fromOwner, newOwner, id, data);\n        }\n\n        emit CrossMintCallbackReceived(newOwner, metadata, id);\n\n        return true;\n    }\n}\n",
  "sourcePath": "/home/dallant/Code/ancon-protocol/ethereum/contracts/ancon/AnconMetadataOwnableBridge.sol",
  "compiler": {
    "name": "solc",
    "version": "0.8.9+commit.e5eed63a.Emscripten.clang"
  },
  "schemaVersion": "3.4.3",
  "updatedAt": "2021-10-14T20:47:38.838Z",
  "devdoc": {
    "kind": "dev",
    "methods": {},
    "version": 1
  },
  "userdoc": {
    "kind": "user",
    "methods": {
      "changeOwnerWithProof(bytes,bytes,bytes,bytes,bytes)": {
        "notice": "changeOwnerWithProof"
      }
    },
    "version": 1
  }
}