{
  "contractName": "AnconVerifier",
  "abi": [
    {
      "inputs": [],
      "stateMutability": "nonpayable",
      "type": "constructor"
    },
    {
      "inputs": [
        {
          "components": [
            {
              "internalType": "bool",
              "name": "valid",
              "type": "bool"
            },
            {
              "internalType": "enum ICS23.HashOp",
              "name": "hash",
              "type": "uint8"
            },
            {
              "internalType": "bytes",
              "name": "prefix",
              "type": "bytes"
            },
            {
              "internalType": "bytes",
              "name": "suffix",
              "type": "bytes"
            }
          ],
          "internalType": "struct ICS23.InnerOp",
          "name": "op",
          "type": "tuple"
        },
        {
          "internalType": "bytes",
          "name": "child",
          "type": "bytes"
        }
      ],
      "name": "applyInner",
      "outputs": [
        {
          "internalType": "bytes",
          "name": "",
          "type": "bytes"
        }
      ],
      "stateMutability": "pure",
      "type": "function",
      "constant": true
    },
    {
      "inputs": [
        {
          "components": [
            {
              "internalType": "bool",
              "name": "valid",
              "type": "bool"
            },
            {
              "internalType": "enum ICS23.HashOp",
              "name": "hash",
              "type": "uint8"
            },
            {
              "internalType": "enum ICS23.HashOp",
              "name": "prehash_key",
              "type": "uint8"
            },
            {
              "internalType": "enum ICS23.HashOp",
              "name": "prehash_value",
              "type": "uint8"
            },
            {
              "internalType": "enum ICS23.LengthOp",
              "name": "len",
              "type": "uint8"
            },
            {
              "internalType": "bytes",
              "name": "prefix",
              "type": "bytes"
            }
          ],
          "internalType": "struct ICS23.LeafOp",
          "name": "op",
          "type": "tuple"
        },
        {
          "internalType": "bytes",
          "name": "key",
          "type": "bytes"
        },
        {
          "internalType": "bytes",
          "name": "value",
          "type": "bytes"
        }
      ],
      "name": "applyLeaf",
      "outputs": [
        {
          "internalType": "bytes",
          "name": "",
          "type": "bytes"
        }
      ],
      "stateMutability": "pure",
      "type": "function",
      "constant": true
    },
    {
      "inputs": [
        {
          "components": [
            {
              "internalType": "bool",
              "name": "valid",
              "type": "bool"
            },
            {
              "internalType": "bytes",
              "name": "key",
              "type": "bytes"
            },
            {
              "internalType": "bytes",
              "name": "value",
              "type": "bytes"
            },
            {
              "components": [
                {
                  "internalType": "bool",
                  "name": "valid",
                  "type": "bool"
                },
                {
                  "internalType": "enum ICS23.HashOp",
                  "name": "hash",
                  "type": "uint8"
                },
                {
                  "internalType": "enum ICS23.HashOp",
                  "name": "prehash_key",
                  "type": "uint8"
                },
                {
                  "internalType": "enum ICS23.HashOp",
                  "name": "prehash_value",
                  "type": "uint8"
                },
                {
                  "internalType": "enum ICS23.LengthOp",
                  "name": "len",
                  "type": "uint8"
                },
                {
                  "internalType": "bytes",
                  "name": "prefix",
                  "type": "bytes"
                }
              ],
              "internalType": "struct ICS23.LeafOp",
              "name": "leaf",
              "type": "tuple"
            },
            {
              "components": [
                {
                  "internalType": "bool",
                  "name": "valid",
                  "type": "bool"
                },
                {
                  "internalType": "enum ICS23.HashOp",
                  "name": "hash",
                  "type": "uint8"
                },
                {
                  "internalType": "bytes",
                  "name": "prefix",
                  "type": "bytes"
                },
                {
                  "internalType": "bytes",
                  "name": "suffix",
                  "type": "bytes"
                }
              ],
              "internalType": "struct ICS23.InnerOp[]",
              "name": "path",
              "type": "tuple[]"
            }
          ],
          "internalType": "struct ICS23.ExistenceProof",
          "name": "proof",
          "type": "tuple"
        }
      ],
      "name": "calculate",
      "outputs": [
        {
          "internalType": "bytes",
          "name": "",
          "type": "bytes"
        }
      ],
      "stateMutability": "pure",
      "type": "function",
      "constant": true
    },
    {
      "inputs": [
        {
          "components": [
            {
              "internalType": "bool",
              "name": "valid",
              "type": "bool"
            },
            {
              "internalType": "bytes",
              "name": "key",
              "type": "bytes"
            },
            {
              "internalType": "bytes",
              "name": "value",
              "type": "bytes"
            },
            {
              "components": [
                {
                  "internalType": "bool",
                  "name": "valid",
                  "type": "bool"
                },
                {
                  "internalType": "enum ICS23.HashOp",
                  "name": "hash",
                  "type": "uint8"
                },
                {
                  "internalType": "enum ICS23.HashOp",
                  "name": "prehash_key",
                  "type": "uint8"
                },
                {
                  "internalType": "enum ICS23.HashOp",
                  "name": "prehash_value",
                  "type": "uint8"
                },
                {
                  "internalType": "enum ICS23.LengthOp",
                  "name": "len",
                  "type": "uint8"
                },
                {
                  "internalType": "bytes",
                  "name": "prefix",
                  "type": "bytes"
                }
              ],
              "internalType": "struct ICS23.LeafOp",
              "name": "leaf",
              "type": "tuple"
            },
            {
              "components": [
                {
                  "internalType": "bool",
                  "name": "valid",
                  "type": "bool"
                },
                {
                  "internalType": "enum ICS23.HashOp",
                  "name": "hash",
                  "type": "uint8"
                },
                {
                  "internalType": "bytes",
                  "name": "prefix",
                  "type": "bytes"
                },
                {
                  "internalType": "bytes",
                  "name": "suffix",
                  "type": "bytes"
                }
              ],
              "internalType": "struct ICS23.InnerOp[]",
              "name": "path",
              "type": "tuple[]"
            }
          ],
          "internalType": "struct ICS23.ExistenceProof",
          "name": "proof",
          "type": "tuple"
        },
        {
          "components": [
            {
              "internalType": "bool",
              "name": "valid",
              "type": "bool"
            },
            {
              "internalType": "enum ICS23.HashOp",
              "name": "hash",
              "type": "uint8"
            },
            {
              "internalType": "enum ICS23.HashOp",
              "name": "prehash_key",
              "type": "uint8"
            },
            {
              "internalType": "enum ICS23.HashOp",
              "name": "prehash_value",
              "type": "uint8"
            },
            {
              "internalType": "enum ICS23.LengthOp",
              "name": "len",
              "type": "uint8"
            },
            {
              "internalType": "bytes",
              "name": "prefix",
              "type": "bytes"
            }
          ],
          "internalType": "struct ICS23.LeafOp",
          "name": "spec",
          "type": "tuple"
        }
      ],
      "name": "checkAgainstSpec",
      "outputs": [
        {
          "internalType": "bool",
          "name": "",
          "type": "bool"
        }
      ],
      "stateMutability": "pure",
      "type": "function",
      "constant": true
    },
    {
      "inputs": [
        {
          "internalType": "bytes",
          "name": "bz1",
          "type": "bytes"
        },
        {
          "internalType": "bytes",
          "name": "bz2",
          "type": "bytes"
        }
      ],
      "name": "compareBytes",
      "outputs": [
        {
          "internalType": "enum ICS23.Ordering",
          "name": "",
          "type": "uint8"
        }
      ],
      "stateMutability": "pure",
      "type": "function",
      "constant": true
    },
    {
      "inputs": [
        {
          "internalType": "enum ICS23.HashOp",
          "name": "op",
          "type": "uint8"
        },
        {
          "internalType": "bytes",
          "name": "preimage",
          "type": "bytes"
        }
      ],
      "name": "doHash",
      "outputs": [
        {
          "internalType": "bytes",
          "name": "",
          "type": "bytes"
        }
      ],
      "stateMutability": "pure",
      "type": "function",
      "constant": true
    },
    {
      "inputs": [
        {
          "internalType": "enum ICS23.HashOp",
          "name": "op",
          "type": "uint8"
        },
        {
          "internalType": "bytes",
          "name": "preimage",
          "type": "bytes"
        }
      ],
      "name": "doHashOrNoop",
      "outputs": [
        {
          "internalType": "bytes",
          "name": "",
          "type": "bytes"
        }
      ],
      "stateMutability": "pure",
      "type": "function",
      "constant": true
    },
    {
      "inputs": [
        {
          "internalType": "enum ICS23.LengthOp",
          "name": "op",
          "type": "uint8"
        },
        {
          "internalType": "bytes",
          "name": "data",
          "type": "bytes"
        }
      ],
      "name": "doLength",
      "outputs": [
        {
          "internalType": "bytes",
          "name": "",
          "type": "bytes"
        }
      ],
      "stateMutability": "pure",
      "type": "function",
      "constant": true
    },
    {
      "inputs": [
        {
          "internalType": "bytes",
          "name": "bz1",
          "type": "bytes"
        },
        {
          "internalType": "bytes",
          "name": "bz2",
          "type": "bytes"
        }
      ],
      "name": "equalBytes",
      "outputs": [
        {
          "internalType": "bool",
          "name": "",
          "type": "bool"
        }
      ],
      "stateMutability": "pure",
      "type": "function",
      "constant": true
    },
    {
      "inputs": [],
      "name": "getIavlSpec",
      "outputs": [
        {
          "components": [
            {
              "internalType": "bool",
              "name": "valid",
              "type": "bool"
            },
            {
              "internalType": "enum ICS23.HashOp",
              "name": "hash",
              "type": "uint8"
            },
            {
              "internalType": "enum ICS23.HashOp",
              "name": "prehash_key",
              "type": "uint8"
            },
            {
              "internalType": "enum ICS23.HashOp",
              "name": "prehash_value",
              "type": "uint8"
            },
            {
              "internalType": "enum ICS23.LengthOp",
              "name": "len",
              "type": "uint8"
            },
            {
              "internalType": "bytes",
              "name": "prefix",
              "type": "bytes"
            }
          ],
          "internalType": "struct ICS23.LeafOp",
          "name": "",
          "type": "tuple"
        }
      ],
      "stateMutability": "pure",
      "type": "function",
      "constant": true
    },
    {
      "inputs": [
        {
          "components": [
            {
              "internalType": "uint256[]",
              "name": "childOrder",
              "type": "uint256[]"
            },
            {
              "internalType": "uint256",
              "name": "childSize",
              "type": "uint256"
            },
            {
              "internalType": "uint256",
              "name": "minPrefixLength",
              "type": "uint256"
            },
            {
              "internalType": "uint256",
              "name": "maxPrefixLength",
              "type": "uint256"
            },
            {
              "internalType": "bytes",
              "name": "emptyChild",
              "type": "bytes"
            },
            {
              "internalType": "enum ICS23.HashOp",
              "name": "hash",
              "type": "uint8"
            }
          ],
          "internalType": "struct ICS23.InnerSpec",
          "name": "spec",
          "type": "tuple"
        },
        {
          "internalType": "uint256",
          "name": "branch",
          "type": "uint256"
        }
      ],
      "name": "getPadding",
      "outputs": [
        {
          "internalType": "uint256",
          "name": "",
          "type": "uint256"
        },
        {
          "internalType": "uint256",
          "name": "",
          "type": "uint256"
        },
        {
          "internalType": "uint256",
          "name": "",
          "type": "uint256"
        }
      ],
      "stateMutability": "pure",
      "type": "function",
      "constant": true
    },
    {
      "inputs": [
        {
          "internalType": "uint256[]",
          "name": "order",
          "type": "uint256[]"
        },
        {
          "internalType": "uint256",
          "name": "branch",
          "type": "uint256"
        }
      ],
      "name": "getPosition",
      "outputs": [
        {
          "internalType": "uint256",
          "name": "",
          "type": "uint256"
        }
      ],
      "stateMutability": "pure",
      "type": "function",
      "constant": true
    },
    {
      "inputs": [
        {
          "components": [
            {
              "internalType": "bool",
              "name": "valid",
              "type": "bool"
            },
            {
              "internalType": "enum ICS23.HashOp",
              "name": "hash",
              "type": "uint8"
            },
            {
              "internalType": "bytes",
              "name": "prefix",
              "type": "bytes"
            },
            {
              "internalType": "bytes",
              "name": "suffix",
              "type": "bytes"
            }
          ],
          "internalType": "struct ICS23.InnerOp",
          "name": "op",
          "type": "tuple"
        },
        {
          "internalType": "uint256",
          "name": "minPrefix",
          "type": "uint256"
        },
        {
          "internalType": "uint256",
          "name": "maxPrefix",
          "type": "uint256"
        },
        {
          "internalType": "uint256",
          "name": "suffix",
          "type": "uint256"
        }
      ],
      "name": "hasPadding",
      "outputs": [
        {
          "internalType": "bool",
          "name": "",
          "type": "bool"
        }
      ],
      "stateMutability": "pure",
      "type": "function",
      "constant": true
    },
    {
      "inputs": [
        {
          "internalType": "bytes",
          "name": "s",
          "type": "bytes"
        },
        {
          "internalType": "bytes",
          "name": "prefix",
          "type": "bytes"
        }
      ],
      "name": "hasprefix",
      "outputs": [
        {
          "internalType": "bool",
          "name": "",
          "type": "bool"
        }
      ],
      "stateMutability": "pure",
      "type": "function",
      "constant": true
    },
    {
      "inputs": [
        {
          "components": [
            {
              "internalType": "uint256[]",
              "name": "childOrder",
              "type": "uint256[]"
            },
            {
              "internalType": "uint256",
              "name": "childSize",
              "type": "uint256"
            },
            {
              "internalType": "uint256",
              "name": "minPrefixLength",
              "type": "uint256"
            },
            {
              "internalType": "uint256",
              "name": "maxPrefixLength",
              "type": "uint256"
            },
            {
              "internalType": "bytes",
              "name": "emptyChild",
              "type": "bytes"
            },
            {
              "internalType": "enum ICS23.HashOp",
              "name": "hash",
              "type": "uint8"
            }
          ],
          "internalType": "struct ICS23.InnerSpec",
          "name": "spec",
          "type": "tuple"
        },
        {
          "components": [
            {
              "internalType": "bool",
              "name": "valid",
              "type": "bool"
            },
            {
              "internalType": "enum ICS23.HashOp",
              "name": "hash",
              "type": "uint8"
            },
            {
              "internalType": "bytes",
              "name": "prefix",
              "type": "bytes"
            },
            {
              "internalType": "bytes",
              "name": "suffix",
              "type": "bytes"
            }
          ],
          "internalType": "struct ICS23.InnerOp[]",
          "name": "path",
          "type": "tuple[]"
        }
      ],
      "name": "isLeftMost",
      "outputs": [
        {
          "internalType": "bool",
          "name": "",
          "type": "bool"
        }
      ],
      "stateMutability": "pure",
      "type": "function",
      "constant": true
    },
    {
      "inputs": [
        {
          "components": [
            {
              "internalType": "uint256[]",
              "name": "childOrder",
              "type": "uint256[]"
            },
            {
              "internalType": "uint256",
              "name": "childSize",
              "type": "uint256"
            },
            {
              "internalType": "uint256",
              "name": "minPrefixLength",
              "type": "uint256"
            },
            {
              "internalType": "uint256",
              "name": "maxPrefixLength",
              "type": "uint256"
            },
            {
              "internalType": "bytes",
              "name": "emptyChild",
              "type": "bytes"
            },
            {
              "internalType": "enum ICS23.HashOp",
              "name": "hash",
              "type": "uint8"
            }
          ],
          "internalType": "struct ICS23.InnerSpec",
          "name": "spec",
          "type": "tuple"
        },
        {
          "components": [
            {
              "internalType": "bool",
              "name": "valid",
              "type": "bool"
            },
            {
              "internalType": "enum ICS23.HashOp",
              "name": "hash",
              "type": "uint8"
            },
            {
              "internalType": "bytes",
              "name": "prefix",
              "type": "bytes"
            },
            {
              "internalType": "bytes",
              "name": "suffix",
              "type": "bytes"
            }
          ],
          "internalType": "struct ICS23.InnerOp[]",
          "name": "left",
          "type": "tuple[]"
        },
        {
          "components": [
            {
              "internalType": "bool",
              "name": "valid",
              "type": "bool"
            },
            {
              "internalType": "enum ICS23.HashOp",
              "name": "hash",
              "type": "uint8"
            },
            {
              "internalType": "bytes",
              "name": "prefix",
              "type": "bytes"
            },
            {
              "internalType": "bytes",
              "name": "suffix",
              "type": "bytes"
            }
          ],
          "internalType": "struct ICS23.InnerOp[]",
          "name": "right",
          "type": "tuple[]"
        }
      ],
      "name": "isLeftNeighbor",
      "outputs": [
        {
          "internalType": "bool",
          "name": "",
          "type": "bool"
        }
      ],
      "stateMutability": "pure",
      "type": "function",
      "constant": true
    },
    {
      "inputs": [
        {
          "components": [
            {
              "internalType": "uint256[]",
              "name": "childOrder",
              "type": "uint256[]"
            },
            {
              "internalType": "uint256",
              "name": "childSize",
              "type": "uint256"
            },
            {
              "internalType": "uint256",
              "name": "minPrefixLength",
              "type": "uint256"
            },
            {
              "internalType": "uint256",
              "name": "maxPrefixLength",
              "type": "uint256"
            },
            {
              "internalType": "bytes",
              "name": "emptyChild",
              "type": "bytes"
            },
            {
              "internalType": "enum ICS23.HashOp",
              "name": "hash",
              "type": "uint8"
            }
          ],
          "internalType": "struct ICS23.InnerSpec",
          "name": "spec",
          "type": "tuple"
        },
        {
          "components": [
            {
              "internalType": "bool",
              "name": "valid",
              "type": "bool"
            },
            {
              "internalType": "enum ICS23.HashOp",
              "name": "hash",
              "type": "uint8"
            },
            {
              "internalType": "bytes",
              "name": "prefix",
              "type": "bytes"
            },
            {
              "internalType": "bytes",
              "name": "suffix",
              "type": "bytes"
            }
          ],
          "internalType": "struct ICS23.InnerOp",
          "name": "left",
          "type": "tuple"
        },
        {
          "components": [
            {
              "internalType": "bool",
              "name": "valid",
              "type": "bool"
            },
            {
              "internalType": "enum ICS23.HashOp",
              "name": "hash",
              "type": "uint8"
            },
            {
              "internalType": "bytes",
              "name": "prefix",
              "type": "bytes"
            },
            {
              "internalType": "bytes",
              "name": "suffix",
              "type": "bytes"
            }
          ],
          "internalType": "struct ICS23.InnerOp",
          "name": "right",
          "type": "tuple"
        }
      ],
      "name": "isLeftStep",
      "outputs": [
        {
          "internalType": "bool",
          "name": "",
          "type": "bool"
        }
      ],
      "stateMutability": "pure",
      "type": "function",
      "constant": true
    },
    {
      "inputs": [
        {
          "components": [
            {
              "internalType": "uint256[]",
              "name": "childOrder",
              "type": "uint256[]"
            },
            {
              "internalType": "uint256",
              "name": "childSize",
              "type": "uint256"
            },
            {
              "internalType": "uint256",
              "name": "minPrefixLength",
              "type": "uint256"
            },
            {
              "internalType": "uint256",
              "name": "maxPrefixLength",
              "type": "uint256"
            },
            {
              "internalType": "bytes",
              "name": "emptyChild",
              "type": "bytes"
            },
            {
              "internalType": "enum ICS23.HashOp",
              "name": "hash",
              "type": "uint8"
            }
          ],
          "internalType": "struct ICS23.InnerSpec",
          "name": "spec",
          "type": "tuple"
        },
        {
          "components": [
            {
              "internalType": "bool",
              "name": "valid",
              "type": "bool"
            },
            {
              "internalType": "enum ICS23.HashOp",
              "name": "hash",
              "type": "uint8"
            },
            {
              "internalType": "bytes",
              "name": "prefix",
              "type": "bytes"
            },
            {
              "internalType": "bytes",
              "name": "suffix",
              "type": "bytes"
            }
          ],
          "internalType": "struct ICS23.InnerOp[]",
          "name": "path",
          "type": "tuple[]"
        }
      ],
      "name": "isRightMost",
      "outputs": [
        {
          "internalType": "bool",
          "name": "",
          "type": "bool"
        }
      ],
      "stateMutability": "pure",
      "type": "function",
      "constant": true
    },
    {
      "inputs": [
        {
          "components": [
            {
              "internalType": "uint256[]",
              "name": "childOrder",
              "type": "uint256[]"
            },
            {
              "internalType": "uint256",
              "name": "childSize",
              "type": "uint256"
            },
            {
              "internalType": "uint256",
              "name": "minPrefixLength",
              "type": "uint256"
            },
            {
              "internalType": "uint256",
              "name": "maxPrefixLength",
              "type": "uint256"
            },
            {
              "internalType": "bytes",
              "name": "emptyChild",
              "type": "bytes"
            },
            {
              "internalType": "enum ICS23.HashOp",
              "name": "hash",
              "type": "uint8"
            }
          ],
          "internalType": "struct ICS23.InnerSpec",
          "name": "spec",
          "type": "tuple"
        },
        {
          "components": [
            {
              "internalType": "bool",
              "name": "valid",
              "type": "bool"
            },
            {
              "internalType": "enum ICS23.HashOp",
              "name": "hash",
              "type": "uint8"
            },
            {
              "internalType": "bytes",
              "name": "prefix",
              "type": "bytes"
            },
            {
              "internalType": "bytes",
              "name": "suffix",
              "type": "bytes"
            }
          ],
          "internalType": "struct ICS23.InnerOp",
          "name": "op",
          "type": "tuple"
        }
      ],
      "name": "orderFromPadding",
      "outputs": [
        {
          "internalType": "uint256",
          "name": "",
          "type": "uint256"
        }
      ],
      "stateMutability": "pure",
      "type": "function",
      "constant": true
    },
    {
      "inputs": [
        {
          "internalType": "enum ICS23.HashOp",
          "name": "hashop",
          "type": "uint8"
        },
        {
          "internalType": "enum ICS23.LengthOp",
          "name": "lengthop",
          "type": "uint8"
        },
        {
          "internalType": "bytes",
          "name": "data",
          "type": "bytes"
        }
      ],
      "name": "prepareLeafData",
      "outputs": [
        {
          "internalType": "bytes",
          "name": "",
          "type": "bytes"
        }
      ],
      "stateMutability": "pure",
      "type": "function",
      "constant": true
    },
    {
      "inputs": [
        {
          "components": [
            {
              "internalType": "bool",
              "name": "valid",
              "type": "bool"
            },
            {
              "internalType": "bytes",
              "name": "key",
              "type": "bytes"
            },
            {
              "internalType": "bytes",
              "name": "value",
              "type": "bytes"
            },
            {
              "components": [
                {
                  "internalType": "bool",
                  "name": "valid",
                  "type": "bool"
                },
                {
                  "internalType": "enum ICS23.HashOp",
                  "name": "hash",
                  "type": "uint8"
                },
                {
                  "internalType": "enum ICS23.HashOp",
                  "name": "prehash_key",
                  "type": "uint8"
                },
                {
                  "internalType": "enum ICS23.HashOp",
                  "name": "prehash_value",
                  "type": "uint8"
                },
                {
                  "internalType": "enum ICS23.LengthOp",
                  "name": "len",
                  "type": "uint8"
                },
                {
                  "internalType": "bytes",
                  "name": "prefix",
                  "type": "bytes"
                }
              ],
              "internalType": "struct ICS23.LeafOp",
              "name": "leaf",
              "type": "tuple"
            },
            {
              "components": [
                {
                  "internalType": "bool",
                  "name": "valid",
                  "type": "bool"
                },
                {
                  "internalType": "enum ICS23.HashOp",
                  "name": "hash",
                  "type": "uint8"
                },
                {
                  "internalType": "bytes",
                  "name": "prefix",
                  "type": "bytes"
                },
                {
                  "internalType": "bytes",
                  "name": "suffix",
                  "type": "bytes"
                }
              ],
              "internalType": "struct ICS23.InnerOp[]",
              "name": "path",
              "type": "tuple[]"
            }
          ],
          "internalType": "struct ICS23.ExistenceProof",
          "name": "proof",
          "type": "tuple"
        },
        {
          "components": [
            {
              "internalType": "bool",
              "name": "valid",
              "type": "bool"
            },
            {
              "internalType": "enum ICS23.HashOp",
              "name": "hash",
              "type": "uint8"
            },
            {
              "internalType": "enum ICS23.HashOp",
              "name": "prehash_key",
              "type": "uint8"
            },
            {
              "internalType": "enum ICS23.HashOp",
              "name": "prehash_value",
              "type": "uint8"
            },
            {
              "internalType": "enum ICS23.LengthOp",
              "name": "len",
              "type": "uint8"
            },
            {
              "internalType": "bytes",
              "name": "prefix",
              "type": "bytes"
            }
          ],
          "internalType": "struct ICS23.LeafOp",
          "name": "spec",
          "type": "tuple"
        },
        {
          "internalType": "bytes",
          "name": "root",
          "type": "bytes"
        },
        {
          "internalType": "bytes",
          "name": "key",
          "type": "bytes"
        },
        {
          "internalType": "bytes",
          "name": "value",
          "type": "bytes"
        }
      ],
      "name": "verifyExistence",
      "outputs": [
        {
          "internalType": "bool",
          "name": "",
          "type": "bool"
        }
      ],
      "stateMutability": "pure",
      "type": "function",
      "constant": true
    },
    {
      "inputs": [
        {
          "components": [
            {
              "internalType": "bool",
              "name": "valid",
              "type": "bool"
            },
            {
              "internalType": "enum ICS23.HashOp",
              "name": "hash",
              "type": "uint8"
            },
            {
              "internalType": "enum ICS23.HashOp",
              "name": "prehash_key",
              "type": "uint8"
            },
            {
              "internalType": "enum ICS23.HashOp",
              "name": "prehash_value",
              "type": "uint8"
            },
            {
              "internalType": "enum ICS23.LengthOp",
              "name": "len",
              "type": "uint8"
            },
            {
              "internalType": "bytes",
              "name": "prefix",
              "type": "bytes"
            }
          ],
          "internalType": "struct ICS23.LeafOp",
          "name": "spec",
          "type": "tuple"
        },
        {
          "internalType": "bytes",
          "name": "root",
          "type": "bytes"
        },
        {
          "components": [
            {
              "internalType": "bool",
              "name": "valid",
              "type": "bool"
            },
            {
              "internalType": "bytes",
              "name": "key",
              "type": "bytes"
            },
            {
              "internalType": "bytes",
              "name": "value",
              "type": "bytes"
            },
            {
              "components": [
                {
                  "internalType": "bool",
                  "name": "valid",
                  "type": "bool"
                },
                {
                  "internalType": "enum ICS23.HashOp",
                  "name": "hash",
                  "type": "uint8"
                },
                {
                  "internalType": "enum ICS23.HashOp",
                  "name": "prehash_key",
                  "type": "uint8"
                },
                {
                  "internalType": "enum ICS23.HashOp",
                  "name": "prehash_value",
                  "type": "uint8"
                },
                {
                  "internalType": "enum ICS23.LengthOp",
                  "name": "len",
                  "type": "uint8"
                },
                {
                  "internalType": "bytes",
                  "name": "prefix",
                  "type": "bytes"
                }
              ],
              "internalType": "struct ICS23.LeafOp",
              "name": "leaf",
              "type": "tuple"
            },
            {
              "components": [
                {
                  "internalType": "bool",
                  "name": "valid",
                  "type": "bool"
                },
                {
                  "internalType": "enum ICS23.HashOp",
                  "name": "hash",
                  "type": "uint8"
                },
                {
                  "internalType": "bytes",
                  "name": "prefix",
                  "type": "bytes"
                },
                {
                  "internalType": "bytes",
                  "name": "suffix",
                  "type": "bytes"
                }
              ],
              "internalType": "struct ICS23.InnerOp[]",
              "name": "path",
              "type": "tuple[]"
            }
          ],
          "internalType": "struct ICS23.ExistenceProof",
          "name": "proof",
          "type": "tuple"
        },
        {
          "internalType": "bytes",
          "name": "key",
          "type": "bytes"
        },
        {
          "internalType": "bytes",
          "name": "value",
          "type": "bytes"
        }
      ],
      "name": "verifyMembership",
      "outputs": [
        {
          "internalType": "bool",
          "name": "",
          "type": "bool"
        }
      ],
      "stateMutability": "pure",
      "type": "function",
      "constant": true
    },
    {
      "inputs": [
        {
          "components": [
            {
              "internalType": "bool",
              "name": "valid",
              "type": "bool"
            },
            {
              "internalType": "bytes",
              "name": "key",
              "type": "bytes"
            },
            {
              "components": [
                {
                  "internalType": "bool",
                  "name": "valid",
                  "type": "bool"
                },
                {
                  "internalType": "bytes",
                  "name": "key",
                  "type": "bytes"
                },
                {
                  "internalType": "bytes",
                  "name": "value",
                  "type": "bytes"
                },
                {
                  "components": [
                    {
                      "internalType": "bool",
                      "name": "valid",
                      "type": "bool"
                    },
                    {
                      "internalType": "enum ICS23.HashOp",
                      "name": "hash",
                      "type": "uint8"
                    },
                    {
                      "internalType": "enum ICS23.HashOp",
                      "name": "prehash_key",
                      "type": "uint8"
                    },
                    {
                      "internalType": "enum ICS23.HashOp",
                      "name": "prehash_value",
                      "type": "uint8"
                    },
                    {
                      "internalType": "enum ICS23.LengthOp",
                      "name": "len",
                      "type": "uint8"
                    },
                    {
                      "internalType": "bytes",
                      "name": "prefix",
                      "type": "bytes"
                    }
                  ],
                  "internalType": "struct ICS23.LeafOp",
                  "name": "leaf",
                  "type": "tuple"
                },
                {
                  "components": [
                    {
                      "internalType": "bool",
                      "name": "valid",
                      "type": "bool"
                    },
                    {
                      "internalType": "enum ICS23.HashOp",
                      "name": "hash",
                      "type": "uint8"
                    },
                    {
                      "internalType": "bytes",
                      "name": "prefix",
                      "type": "bytes"
                    },
                    {
                      "internalType": "bytes",
                      "name": "suffix",
                      "type": "bytes"
                    }
                  ],
                  "internalType": "struct ICS23.InnerOp[]",
                  "name": "path",
                  "type": "tuple[]"
                }
              ],
              "internalType": "struct ICS23.ExistenceProof",
              "name": "left",
              "type": "tuple"
            },
            {
              "components": [
                {
                  "internalType": "bool",
                  "name": "valid",
                  "type": "bool"
                },
                {
                  "internalType": "bytes",
                  "name": "key",
                  "type": "bytes"
                },
                {
                  "internalType": "bytes",
                  "name": "value",
                  "type": "bytes"
                },
                {
                  "components": [
                    {
                      "internalType": "bool",
                      "name": "valid",
                      "type": "bool"
                    },
                    {
                      "internalType": "enum ICS23.HashOp",
                      "name": "hash",
                      "type": "uint8"
                    },
                    {
                      "internalType": "enum ICS23.HashOp",
                      "name": "prehash_key",
                      "type": "uint8"
                    },
                    {
                      "internalType": "enum ICS23.HashOp",
                      "name": "prehash_value",
                      "type": "uint8"
                    },
                    {
                      "internalType": "enum ICS23.LengthOp",
                      "name": "len",
                      "type": "uint8"
                    },
                    {
                      "internalType": "bytes",
                      "name": "prefix",
                      "type": "bytes"
                    }
                  ],
                  "internalType": "struct ICS23.LeafOp",
                  "name": "leaf",
                  "type": "tuple"
                },
                {
                  "components": [
                    {
                      "internalType": "bool",
                      "name": "valid",
                      "type": "bool"
                    },
                    {
                      "internalType": "enum ICS23.HashOp",
                      "name": "hash",
                      "type": "uint8"
                    },
                    {
                      "internalType": "bytes",
                      "name": "prefix",
                      "type": "bytes"
                    },
                    {
                      "internalType": "bytes",
                      "name": "suffix",
                      "type": "bytes"
                    }
                  ],
                  "internalType": "struct ICS23.InnerOp[]",
                  "name": "path",
                  "type": "tuple[]"
                }
              ],
              "internalType": "struct ICS23.ExistenceProof",
              "name": "right",
              "type": "tuple"
            }
          ],
          "internalType": "struct ICS23.NonExistenceProof",
          "name": "proof",
          "type": "tuple"
        },
        {
          "components": [
            {
              "components": [
                {
                  "internalType": "bool",
                  "name": "valid",
                  "type": "bool"
                },
                {
                  "internalType": "enum ICS23.HashOp",
                  "name": "hash",
                  "type": "uint8"
                },
                {
                  "internalType": "enum ICS23.HashOp",
                  "name": "prehash_key",
                  "type": "uint8"
                },
                {
                  "internalType": "enum ICS23.HashOp",
                  "name": "prehash_value",
                  "type": "uint8"
                },
                {
                  "internalType": "enum ICS23.LengthOp",
                  "name": "len",
                  "type": "uint8"
                },
                {
                  "internalType": "bytes",
                  "name": "prefix",
                  "type": "bytes"
                }
              ],
              "internalType": "struct ICS23.LeafOp",
              "name": "leafSpec",
              "type": "tuple"
            },
            {
              "components": [
                {
                  "internalType": "uint256[]",
                  "name": "childOrder",
                  "type": "uint256[]"
                },
                {
                  "internalType": "uint256",
                  "name": "childSize",
                  "type": "uint256"
                },
                {
                  "internalType": "uint256",
                  "name": "minPrefixLength",
                  "type": "uint256"
                },
                {
                  "internalType": "uint256",
                  "name": "maxPrefixLength",
                  "type": "uint256"
                },
                {
                  "internalType": "bytes",
                  "name": "emptyChild",
                  "type": "bytes"
                },
                {
                  "internalType": "enum ICS23.HashOp",
                  "name": "hash",
                  "type": "uint8"
                }
              ],
              "internalType": "struct ICS23.InnerSpec",
              "name": "innerSpec",
              "type": "tuple"
            },
            {
              "internalType": "uint256",
              "name": "maxDepth",
              "type": "uint256"
            },
            {
              "internalType": "uint256",
              "name": "minDepth",
              "type": "uint256"
            }
          ],
          "internalType": "struct ICS23.ProofSpec",
          "name": "spec",
          "type": "tuple"
        },
        {
          "internalType": "bytes",
          "name": "root",
          "type": "bytes"
        },
        {
          "internalType": "bytes",
          "name": "key",
          "type": "bytes"
        }
      ],
      "name": "verifyNonExistence",
      "outputs": [
        {
          "internalType": "bool",
          "name": "",
          "type": "bool"
        }
      ],
      "stateMutability": "pure",
      "type": "function",
      "constant": true
    },
    {
      "inputs": [
        {
          "components": [
            {
              "components": [
                {
                  "internalType": "bool",
                  "name": "valid",
                  "type": "bool"
                },
                {
                  "internalType": "enum ICS23.HashOp",
                  "name": "hash",
                  "type": "uint8"
                },
                {
                  "internalType": "enum ICS23.HashOp",
                  "name": "prehash_key",
                  "type": "uint8"
                },
                {
                  "internalType": "enum ICS23.HashOp",
                  "name": "prehash_value",
                  "type": "uint8"
                },
                {
                  "internalType": "enum ICS23.LengthOp",
                  "name": "len",
                  "type": "uint8"
                },
                {
                  "internalType": "bytes",
                  "name": "prefix",
                  "type": "bytes"
                }
              ],
              "internalType": "struct ICS23.LeafOp",
              "name": "leafSpec",
              "type": "tuple"
            },
            {
              "components": [
                {
                  "internalType": "uint256[]",
                  "name": "childOrder",
                  "type": "uint256[]"
                },
                {
                  "internalType": "uint256",
                  "name": "childSize",
                  "type": "uint256"
                },
                {
                  "internalType": "uint256",
                  "name": "minPrefixLength",
                  "type": "uint256"
                },
                {
                  "internalType": "uint256",
                  "name": "maxPrefixLength",
                  "type": "uint256"
                },
                {
                  "internalType": "bytes",
                  "name": "emptyChild",
                  "type": "bytes"
                },
                {
                  "internalType": "enum ICS23.HashOp",
                  "name": "hash",
                  "type": "uint8"
                }
              ],
              "internalType": "struct ICS23.InnerSpec",
              "name": "innerSpec",
              "type": "tuple"
            },
            {
              "internalType": "uint256",
              "name": "maxDepth",
              "type": "uint256"
            },
            {
              "internalType": "uint256",
              "name": "minDepth",
              "type": "uint256"
            }
          ],
          "internalType": "struct ICS23.ProofSpec",
          "name": "spec",
          "type": "tuple"
        },
        {
          "internalType": "bytes",
          "name": "root",
          "type": "bytes"
        },
        {
          "components": [
            {
              "internalType": "bool",
              "name": "valid",
              "type": "bool"
            },
            {
              "internalType": "bytes",
              "name": "key",
              "type": "bytes"
            },
            {
              "components": [
                {
                  "internalType": "bool",
                  "name": "valid",
                  "type": "bool"
                },
                {
                  "internalType": "bytes",
                  "name": "key",
                  "type": "bytes"
                },
                {
                  "internalType": "bytes",
                  "name": "value",
                  "type": "bytes"
                },
                {
                  "components": [
                    {
                      "internalType": "bool",
                      "name": "valid",
                      "type": "bool"
                    },
                    {
                      "internalType": "enum ICS23.HashOp",
                      "name": "hash",
                      "type": "uint8"
                    },
                    {
                      "internalType": "enum ICS23.HashOp",
                      "name": "prehash_key",
                      "type": "uint8"
                    },
                    {
                      "internalType": "enum ICS23.HashOp",
                      "name": "prehash_value",
                      "type": "uint8"
                    },
                    {
                      "internalType": "enum ICS23.LengthOp",
                      "name": "len",
                      "type": "uint8"
                    },
                    {
                      "internalType": "bytes",
                      "name": "prefix",
                      "type": "bytes"
                    }
                  ],
                  "internalType": "struct ICS23.LeafOp",
                  "name": "leaf",
                  "type": "tuple"
                },
                {
                  "components": [
                    {
                      "internalType": "bool",
                      "name": "valid",
                      "type": "bool"
                    },
                    {
                      "internalType": "enum ICS23.HashOp",
                      "name": "hash",
                      "type": "uint8"
                    },
                    {
                      "internalType": "bytes",
                      "name": "prefix",
                      "type": "bytes"
                    },
                    {
                      "internalType": "bytes",
                      "name": "suffix",
                      "type": "bytes"
                    }
                  ],
                  "internalType": "struct ICS23.InnerOp[]",
                  "name": "path",
                  "type": "tuple[]"
                }
              ],
              "internalType": "struct ICS23.ExistenceProof",
              "name": "left",
              "type": "tuple"
            },
            {
              "components": [
                {
                  "internalType": "bool",
                  "name": "valid",
                  "type": "bool"
                },
                {
                  "internalType": "bytes",
                  "name": "key",
                  "type": "bytes"
                },
                {
                  "internalType": "bytes",
                  "name": "value",
                  "type": "bytes"
                },
                {
                  "components": [
                    {
                      "internalType": "bool",
                      "name": "valid",
                      "type": "bool"
                    },
                    {
                      "internalType": "enum ICS23.HashOp",
                      "name": "hash",
                      "type": "uint8"
                    },
                    {
                      "internalType": "enum ICS23.HashOp",
                      "name": "prehash_key",
                      "type": "uint8"
                    },
                    {
                      "internalType": "enum ICS23.HashOp",
                      "name": "prehash_value",
                      "type": "uint8"
                    },
                    {
                      "internalType": "enum ICS23.LengthOp",
                      "name": "len",
                      "type": "uint8"
                    },
                    {
                      "internalType": "bytes",
                      "name": "prefix",
                      "type": "bytes"
                    }
                  ],
                  "internalType": "struct ICS23.LeafOp",
                  "name": "leaf",
                  "type": "tuple"
                },
                {
                  "components": [
                    {
                      "internalType": "bool",
                      "name": "valid",
                      "type": "bool"
                    },
                    {
                      "internalType": "enum ICS23.HashOp",
                      "name": "hash",
                      "type": "uint8"
                    },
                    {
                      "internalType": "bytes",
                      "name": "prefix",
                      "type": "bytes"
                    },
                    {
                      "internalType": "bytes",
                      "name": "suffix",
                      "type": "bytes"
                    }
                  ],
                  "internalType": "struct ICS23.InnerOp[]",
                  "name": "path",
                  "type": "tuple[]"
                }
              ],
              "internalType": "struct ICS23.ExistenceProof",
              "name": "right",
              "type": "tuple"
            }
          ],
          "internalType": "struct ICS23.NonExistenceProof",
          "name": "proof",
          "type": "tuple"
        },
        {
          "internalType": "bytes",
          "name": "key",
          "type": "bytes"
        }
      ],
      "name": "verifyNonMembership",
      "outputs": [
        {
          "internalType": "bool",
          "name": "",
          "type": "bool"
        }
      ],
      "stateMutability": "pure",
      "type": "function",
      "constant": true
    },
    {
      "inputs": [],
      "name": "verify",
      "outputs": [
        {
          "internalType": "bool",
          "name": "",
          "type": "bool"
        }
      ],
      "stateMutability": "view",
      "type": "function",
      "constant": true
    },
    {
      "inputs": [
        {
          "internalType": "string",
          "name": "numString",
          "type": "string"
        }
      ],
      "name": "st2num",
      "outputs": [
        {
          "internalType": "uint256",
          "name": "",
          "type": "uint256"
        }
      ],
      "stateMutability": "pure",
      "type": "function",
      "constant": true
    },
    {
      "inputs": [
        {
          "internalType": "bytes",
          "name": "numBytes",
          "type": "bytes"
        }
      ],
      "name": "bytes2num",
      "outputs": [
        {
          "internalType": "uint256",
          "name": "",
          "type": "uint256"
        }
      ],
      "stateMutability": "pure",
      "type": "function",
      "constant": true
    },
    {
      "inputs": [
        {
          "internalType": "bytes",
          "name": "key",
          "type": "bytes"
        },
        {
          "internalType": "bytes",
          "name": "value",
          "type": "bytes"
        },
        {
          "internalType": "bytes[]",
          "name": "_leafOp",
          "type": "bytes[]"
        },
        {
          "internalType": "bytes[][]",
          "name": "_innerOp",
          "type": "bytes[][]"
        }
      ],
      "name": "convertProof",
      "outputs": [
        {
          "components": [
            {
              "internalType": "bool",
              "name": "valid",
              "type": "bool"
            },
            {
              "internalType": "bytes",
              "name": "key",
              "type": "bytes"
            },
            {
              "internalType": "bytes",
              "name": "value",
              "type": "bytes"
            },
            {
              "components": [
                {
                  "internalType": "bool",
                  "name": "valid",
                  "type": "bool"
                },
                {
                  "internalType": "enum ICS23.HashOp",
                  "name": "hash",
                  "type": "uint8"
                },
                {
                  "internalType": "enum ICS23.HashOp",
                  "name": "prehash_key",
                  "type": "uint8"
                },
                {
                  "internalType": "enum ICS23.HashOp",
                  "name": "prehash_value",
                  "type": "uint8"
                },
                {
                  "internalType": "enum ICS23.LengthOp",
                  "name": "len",
                  "type": "uint8"
                },
                {
                  "internalType": "bytes",
                  "name": "prefix",
                  "type": "bytes"
                }
              ],
              "internalType": "struct ICS23.LeafOp",
              "name": "leaf",
              "type": "tuple"
            },
            {
              "components": [
                {
                  "internalType": "bool",
                  "name": "valid",
                  "type": "bool"
                },
                {
                  "internalType": "enum ICS23.HashOp",
                  "name": "hash",
                  "type": "uint8"
                },
                {
                  "internalType": "bytes",
                  "name": "prefix",
                  "type": "bytes"
                },
                {
                  "internalType": "bytes",
                  "name": "suffix",
                  "type": "bytes"
                }
              ],
              "internalType": "struct ICS23.InnerOp[]",
              "name": "path",
              "type": "tuple[]"
            }
          ],
          "internalType": "struct ICS23.ExistenceProof",
          "name": "",
          "type": "tuple"
        }
      ],
      "stateMutability": "pure",
      "type": "function",
      "constant": true
    },
    {
      "inputs": [
        {
          "internalType": "bytes[]",
          "name": "existenceProofLeafOp",
          "type": "bytes[]"
        },
        {
          "internalType": "bytes[][]",
          "name": "existenceProofInnerOp",
          "type": "bytes[][]"
        },
        {
          "internalType": "bytes",
          "name": "existenceProofValue",
          "type": "bytes"
        },
        {
          "internalType": "bytes",
          "name": "existenceProofKey",
          "type": "bytes"
        },
        {
          "internalType": "bytes",
          "name": "rootBz",
          "type": "bytes"
        },
        {
          "internalType": "bytes",
          "name": "pathBz",
          "type": "bytes"
        },
        {
          "internalType": "bytes",
          "name": "value",
          "type": "bytes"
        }
      ],
      "name": "changeOwnerWithProof",
      "outputs": [
        {
          "internalType": "bool",
          "name": "",
          "type": "bool"
        }
      ],
      "stateMutability": "nonpayable",
      "type": "function"
    }
  ],
  "bytecode": "0x60806040523480156200001157600080fd5b50620000226200002960201b60201c565b5062000032565b60006001905090565b61435e80620000426000396000f3fe608060405234801561001057600080fd5b50600436106101cf5760003560e01c806383ead07c11610104578063b6446a5f116100a2578063e6aa73d611610071578063e6aa73d614610674578063fbc2674d146106a4578063fc735e99146106d4578063fd29e20a146106f2576101cf565b8063b6446a5f146105b4578063d259183d146105e4578063d48f1e4f14610614578063e5c341e214610644576101cf565b80639c854fbe116100de5780639c854fbe146104f45780639d18a11514610524578063af630bb114610554578063b4219c6f14610584576101cf565b806383ead07c14610464578063901d0e1514610494578063951c0b90146104c4576101cf565b80633e339c3011610171578063644ece471161014b578063644ece47146103a457806367bb8e81146103d457806372aaf3df1461040457806379cd905514610434576101cf565b80633e339c3014610314578063452e99a3146103445780634cac70ff14610374576101cf565b80631e63e931116101ad5780631e63e9311461026657806327dcd78c146102965780632f1cf262146102b4578063356e77ff146102e4576101cf565b806303801174146101d45780630d4383f4146102045780631becdcab14610236575b600080fd5b6101ee60048036038101906101e99190611faa565b610722565b6040516101fb919061208e565b60405180910390f35b61021e60048036038101906102199190612290565b61076c565b60405161022d939291906122fb565b60405180910390f35b610250600480360381019061024b91906124f4565b610803565b60405161025d919061292f565b60405180910390f35b610280600480360381019061027b9190612951565b610ab3565b60405161028d91906129ad565b60405180910390f35b61029e610b18565b6040516102ab9190612a51565b60405180910390f35b6102ce60048036038101906102c99190612c30565b610bb7565b6040516102db9190612ce6565b60405180910390f35b6102fe60048036038101906102f99190612d01565b610d4f565b60405161030b91906129ad565b60405180910390f35b61032e60048036038101906103299190612f56565b610dba565b60405161033b9190612ce6565b60405180910390f35b61035e6004803603810190610359919061305d565b610dd4565b60405161036b9190612ce6565b60405180910390f35b61038e60048036038101906103899190613164565b610e31565b60405161039b9190612ce6565b60405180910390f35b6103be60048036038101906103b991906131dc565b610eff565b6040516103cb9190612ce6565b60405180910390f35b6103ee60048036038101906103e99190613342565b610f32565b6040516103fb919061208e565b60405180910390f35b61041e6004803603810190610419919061339e565b6110cd565b60405161042b919061208e565b60405180910390f35b61044e600480360381019061044991906134b7565b611125565b60405161045b91906129ad565b60405180910390f35b61047e60048036038101906104799190613500565b6111df565b60405161048b9190612ce6565b60405180910390f35b6104ae60048036038101906104a99190613164565b611272565b6040516104bb9190612ce6565b60405180910390f35b6104de60048036038101906104d99190613500565b611331565b6040516104eb9190612ce6565b60405180910390f35b61050e60048036038101906105099190613578565b6113ad565b60405161051b9190612ce6565b60405180910390f35b61053e600480360381019061053991906135fb565b6113ee565b60405161054b9190612ce6565b60405180910390f35b61056e60048036038101906105699190613673565b61156d565b60405161057b919061208e565b60405180910390f35b61059e6004803603810190610599919061371a565b611601565b6040516105ab9190612ce6565b60405180910390f35b6105ce60048036038101906105c9919061393d565b611638565b6040516105db9190612ce6565b60405180910390f35b6105fe60048036038101906105f99190613164565b611816565b60405161060b9190613a5c565b60405180910390f35b61062e60048036038101906106299190611faa565b6119e1565b60405161063b919061208e565b60405180910390f35b61065e60048036038101906106599190613a77565b611ca3565b60405161066b919061208e565b60405180910390f35b61068e60048036038101906106899190613ac0565b611d17565b60405161069b91906129ad565b60405180910390f35b6106be60048036038101906106b99190613b09565b611d29565b6040516106cb9190612ce6565b60405180910390f35b6106dc611d41565b6040516106e99190612ce6565b60405180910390f35b61070c60048036038101906107079190613be0565b611d4a565b604051610719919061208e565b60405180910390f35b60606000600581111561073857610737612630565b5b83600581111561074b5761074a612630565b5b141561075957819050610766565b61076383836119e1565b90505b92915050565b600080600080610780866000015186610ab3565b905060008660200151826107949190613c7e565b905060008760400151826107a89190613cd8565b905060008860600151836107bc9190613cd8565b9050600089602001518560018c60000151516107d89190613d2e565b6107e29190613d2e565b6107ec9190613c7e565b905082828297509750975050505050509250925092565b61080b611d74565b60006040518060c001604052806001151581526020016108458660008151811061083857610837613d62565b5b6020026020010151611d17565b600581111561085757610856612630565b5b600581111561086957610868612630565b5b81526020016108928660018151811061088557610884613d62565b5b6020026020010151611d17565b60058111156108a4576108a3612630565b5b60058111156108b6576108b5612630565b5b81526020016108df866002815181106108d2576108d1613d62565b5b6020026020010151611d17565b60058111156108f1576108f0612630565b5b600581111561090357610902612630565b5b815260200161092c8660038151811061091f5761091e613d62565b5b6020026020010151611d17565b600881111561093e5761093d612630565b5b60088111156109505761094f612630565b5b81526020018560048151811061096957610968613d62565b5b60200260200101518152509050606060005b8451811015610a7657600085828151811061099957610998613d62565b5b6020026020010151905060405180608001604052806001151581526020016109db836000815181106109ce576109cd613d62565b5b6020026020010151611d17565b60058111156109ed576109ec612630565b5b60058111156109ff576109fe612630565b5b815260200182600181518110610a1857610a17613d62565b5b6020026020010151815260200182600281518110610a3957610a38613d62565b5b6020026020010151815250838381518110610a5757610a56613d62565b5b6020026020010181905250508080610a6e90613d91565b91505061097b565b5060006040518060a00160405280600015158152602001898152602001888152602001848152602001838152509050809350505050949350505050565b600082518210610ac257600080fd5b60005b8351811015610b0c5782848281518110610ae257610ae1613d62565b5b60200260200101511415610af95780915050610b12565b8080610b0490613d91565b915050610ac5565b50600080fd5b92915050565b610b20611dab565b6040518060c0016040528060011515815260200160016005811115610b4857610b47612630565b5b815260200160006005811115610b6157610b60612630565b5b815260200160016005811115610b7a57610b79612630565b5b815260200160016008811115610b9357610b92612630565b5b81526020016040518060400160405280600181526020016000815250815250905090565b600080600190505b610c1d84828651610bd09190613d2e565b81518110610be157610be0613d62565b5b60200260200101516040015184838651610bfb9190613d2e565b81518110610c0c57610c0b613d62565b5b602002602001015160400151610e31565b8015610c835750610c8284828651610c359190613d2e565b81518110610c4657610c45613d62565b5b60200260200101516060015184838651610c609190613d2e565b81518110610c7157610c70613d62565b5b602002602001015160600151610e31565b5b15610c9b578080610c9390613d91565b915050610bbf565b600084828651610cab9190613d2e565b81518110610cbc57610cbb613d62565b5b60200260200101519050600084838651610cd69190613d2e565b81518110610ce757610ce6613d62565b5b60200260200101519050610cfc878383611601565b610d0c5760009350505050610d48565b610d1687876111df565b610d265760009350505050610d48565b610d308786611331565b610d405760009350505050610d48565b600193505050505b9392505050565b600080836000015151905060005b81811015610dae576000806000610d74888561076c565b925092509250610d86878484846113ad565b15610d98578395505050505050610db4565b5050508080610da690613d91565b915050610d5d565b50600080fd5b92915050565b6000610dc98487878686610dd4565b905095945050505050565b6000610de086866113ee565b8015610df65750610df5838760200151610e31565b5b8015610e0c5750610e0b828760400151610e31565b5b8015610e265750610e25610e1f87611ca3565b85610e31565b5b905095945050505050565b60008151835114610e455760009050610ef9565b60005b8351811015610ef357828181518110610e6457610e63613d62565b5b602001015160f81c60f81b7effffffffffffffffffffffffffffffffffffffffffffffffffffffffffffff1916848281518110610ea457610ea3613d62565b5b602001015160f81c60f81b7effffffffffffffffffffffffffffffffffffffffffffffffffffffffffffff191614610ee0576000915050610ef9565b8080610eeb90613d91565b915050610e48565b50600190505b92915050565b600080610f0e86888b8b610803565b9050610f24610f1b610b18565b86838787610dba565b915050979650505050505050565b606060006008811115610f4857610f47612630565b5b836008811115610f5b57610f5a612630565b5b1415610f69578190506110c7565b60016008811115610f7d57610f7c612630565b5b836008811115610f9057610f8f612630565b5b14156110075760008251905060808110610fdd576080607f821617600782901c91508184604051602001610fc693929190613e59565b6040516020818303038152906040529150506110c7565b8083604051602001610ff0929190613e92565b6040516020818303038152906040529150506110c7565b6007600881111561101b5761101a612630565b5b83600881111561102e5761102d612630565b5b141561104a57602082511461104257600080fd5b8190506110c7565b60088081111561105d5761105c612630565b5b8360088111156110705761106f612630565b5b141561108c57604082511461108457600080fd5b8190506110c7565b6040517f08c379a00000000000000000000000000000000000000000000000000000000081526004016110be90613f3d565b60405180910390fd5b92915050565b60606000825114156110de57600080fd5b600083604001518385606001516040516020016110fd93929190613f5d565b604051602081830303815290604052905061111c8460200151826119e1565b91505092915050565b60008060009050600083905060005b81518110156111d457600081835161114c9190613d2e565b9050600083838151811061116357611162613d62565b5b602001015160f81c60f81b905060008160f81c9050600060308260ff1661118a9190613d2e565b90506001846111999190613d2e565b600a6111a591906140c1565b816111b09190613c7e565b876111bb9190613cd8565b96505050505080806111cc90613d91565b915050611134565b508192505050919050565b60008060018460000151516111f49190613d2e565b90506000806000611205878561076c565b92509250925060005b86518110156112625761123d87828151811061122d5761122c613d62565b5b60200260200101518585856113ad565b61124f5760009550505050505061126c565b808061125a90613d91565b91505061120e565b5060019450505050505b92915050565b600080600090505b82518110156113255782818151811061129657611295613d62565b5b602001015160f81c60f81b7effffffffffffffffffffffffffffffffffffffffffffffffffffffffffffff19168482815181106112d6576112d5613d62565b5b602001015160f81c60f81b7effffffffffffffffffffffffffffffffffffffffffffffffffffffffffffff19161461131257600091505061132b565b808061131d90613d91565b91505061127a565b50600190505b92915050565b60008060008061134286600061076c565b92509250925060005b855181101561139e5761137a86828151811061136a57611369613d62565b5b60200260200101518585856113ad565b61138b5760009450505050506113a7565b808061139690613d91565b91505061134b565b50600193505050505b92915050565b60008385604001515110156113c557600090506113e6565b8285604001515111156113db57600090506113e6565b818560600151511490505b949350505050565b60008160200151600581111561140757611406612630565b5b836060015160200151600581111561142257611421612630565b5b14801561145e57508160400151600581111561144157611440612630565b5b836060015160400151600581111561145c5761145b612630565b5b145b801561149957508160600151600581111561147c5761147b612630565b5b836060015160600151600581111561149757611496612630565b5b145b80156114d45750816080015160088111156114b7576114b6612630565b5b83606001516080015160088111156114d2576114d1612630565b5b145b80156114f257506114f1836060015160a001518360a00151611272565b5b6114ff5760009050611567565b60005b8360800151518110156115615761153f8460800151828151811061152957611528613d62565b5b6020026020010151604001518460a00151611272565b1561154e576000915050611567565b808061155990613d91565b915050611502565b50600190505b92915050565b606060008351141561157e57600080fd5b60008251141561158d57600080fd5b60006115a28560400151866080015186611d4a565b905060006115b98660600151876080015186611d4a565b905060008660a0015183836040516020016115d693929190613f5d565b60405160208183030381529060405290506115f58760200151826119e1565b93505050509392505050565b60008061160e8585610d4f565b9050600061161c8685610d4f565b90508060018361162c9190613cd8565b14925050509392505050565b60008460400151600001511580156116565750846060015160000151155b15611664576000905061180e565b846040015160000151156116eb576116978560400151856000015185886040015160200151896040015160400151610dd4565b6116a4576000905061180e565b600060028111156116b8576116b7612630565b5b6116ca83876060015160200151611816565b60028111156116dc576116db612630565b5b146116ea576000905061180e565b5b846060015160000151156117715761171e8560600151856000015185886060015160200151896060015160400151610dd4565b61172b576000905061180e565b60028081111561173e5761173d612630565b5b61175083876040015160200151611816565b600281111561176257611761612630565b5b14611770576000905061180e565b5b8460400151600001516117a6576117948460200151866060015160800151611331565b6117a1576000905061180e565b611809565b8460600151600001516117db576117c984602001518660400151608001516111df565b6117d6576000905061180e565b611808565b6117fa8460200151866040015160800151876060015160800151610bb7565b611807576000905061180e565b5b5b600190505b949350505050565b600080600090505b83518110801561182e5750825181105b156119665782818151811061184657611845613d62565b5b602001015160f81c60f81b7effffffffffffffffffffffffffffffffffffffffffffffffffffffffffffff191684828151811061188657611885613d62565b5b602001015160f81c60f81b7effffffffffffffffffffffffffffffffffffffffffffffffffffffffffffff191610156118c35760009150506119db565b8281815181106118d6576118d5613d62565b5b602001015160f81c60f81b7effffffffffffffffffffffffffffffffffffffffffffffffffffffffffffff191684828151811061191657611915613d62565b5b602001015160f81c60f81b7effffffffffffffffffffffffffffffffffffffffffffffffffffffffffffff191611156119535760029150506119db565b808061195e90613d91565b91505061181e565b5081518351141561197a57600190506119db565b81518351101561198d57600090506119db565b8151835111156119a057600290506119db565b6040517f08c379a00000000000000000000000000000000000000000000000000000000081526004016119d290614158565b60405180910390fd5b92915050565b6060600360058111156119f7576119f6612630565b5b836005811115611a0a57611a09612630565b5b1415611a3e578180519060200120604051602001611a2891906141a3565b6040516020818303038152906040529050611c9d565b60016005811115611a5257611a51612630565b5b836005811115611a6557611a64612630565b5b1415611ae157600282604051611a7b91906141be565b602060405180830381855afa158015611a98573d6000803e3d6000fd5b5050506040513d601f19601f82011682018060405250810190611abb9190614201565b604051602001611acb91906141a3565b6040516020818303038152906040529050611c9d565b60046005811115611af557611af4612630565b5b836005811115611b0857611b07612630565b5b1415611b6b57600382604051611b1e91906141be565b602060405180830381855afa158015611b3b573d6000803e3d6000fd5b5050506040515160601b604051602001611b55919061427b565b6040516020818303038152906040529050611c9d565b600580811115611b7e57611b7d612630565b5b836005811115611b9157611b90612630565b5b1415611c62576003600283604051611ba991906141be565b602060405180830381855afa158015611bc6573d6000803e3d6000fd5b5050506040513d601f19601f82011682018060405250810190611be99190614201565b604051602001611bf991906141a3565b604051602081830303815290604052604051611c1591906141be565b602060405180830381855afa158015611c32573d6000803e3d6000fd5b5050506040515160601b604051602001611c4c919061427b565b6040516020818303038152906040529050611c9d565b6040517f08c379a0000000000000000000000000000000000000000000000000000000008152600401611c9490614308565b60405180910390fd5b92915050565b60606000611cbe83606001518460200151856040015161156d565b905060005b836080015151811015611d0d57611cf884608001518281518110611cea57611ce9613d62565b5b6020026020010151836110cd565b91508080611d0590613d91565b915050611cc3565b5080915050919050565b6000611d2282611125565b9050919050565b6000611d3783868685611638565b9050949350505050565b60006001905090565b60606000611d588584610722565b90506000611d668583610f32565b905080925050509392505050565b6040518060a001604052806000151581526020016060815260200160608152602001611d9e611dab565b8152602001606081525090565b6040518060c0016040528060001515815260200160006005811115611dd357611dd2612630565b5b815260200160006005811115611dec57611deb612630565b5b815260200160006005811115611e0557611e04612630565b5b815260200160006008811115611e1e57611e1d612630565b5b8152602001606081525090565b6000604051905090565b600080fd5b600080fd5b60068110611e4c57600080fd5b50565b600081359050611e5e81611e3f565b92915050565b600080fd5b600080fd5b6000601f19601f8301169050919050565b7f4e487b7100000000000000000000000000000000000000000000000000000000600052604160045260246000fd5b611eb782611e6e565b810181811067ffffffffffffffff82111715611ed657611ed5611e7f565b5b80604052505050565b6000611ee9611e2b565b9050611ef58282611eae565b919050565b600067ffffffffffffffff821115611f1557611f14611e7f565b5b611f1e82611e6e565b9050602081019050919050565b82818337600083830152505050565b6000611f4d611f4884611efa565b611edf565b905082815260208101848484011115611f6957611f68611e69565b5b611f74848285611f2b565b509392505050565b600082601f830112611f9157611f90611e64565b5b8135611fa1848260208601611f3a565b91505092915050565b60008060408385031215611fc157611fc0611e35565b5b6000611fcf85828601611e4f565b925050602083013567ffffffffffffffff811115611ff057611fef611e3a565b5b611ffc85828601611f7c565b9150509250929050565b600081519050919050565b600082825260208201905092915050565b60005b83811015612040578082015181840152602081019050612025565b8381111561204f576000848401525b50505050565b600061206082612006565b61206a8185612011565b935061207a818560208601612022565b61208381611e6e565b840191505092915050565b600060208201905081810360008301526120a88184612055565b905092915050565b600080fd5b600080fd5b600067ffffffffffffffff8211156120d5576120d4611e7f565b5b602082029050602081019050919050565b600080fd5b6000819050919050565b6120fe816120eb565b811461210957600080fd5b50565b60008135905061211b816120f5565b92915050565b600061213461212f846120ba565b611edf565b90508083825260208201905060208402830185811115612157576121566120e6565b5b835b81811015612180578061216c888261210c565b845260208401935050602081019050612159565b5050509392505050565b600082601f83011261219f5761219e611e64565b5b81356121af848260208601612121565b91505092915050565b600060c082840312156121ce576121cd6120b0565b5b6121d860c0611edf565b9050600082013567ffffffffffffffff8111156121f8576121f76120b5565b5b6122048482850161218a565b60008301525060206122188482850161210c565b602083015250604061222c8482850161210c565b60408301525060606122408482850161210c565b606083015250608082013567ffffffffffffffff811115612264576122636120b5565b5b61227084828501611f7c565b60808301525060a061228484828501611e4f565b60a08301525092915050565b600080604083850312156122a7576122a6611e35565b5b600083013567ffffffffffffffff8111156122c5576122c4611e3a565b5b6122d1858286016121b8565b92505060206122e28582860161210c565b9150509250929050565b6122f5816120eb565b82525050565b600060608201905061231060008301866122ec565b61231d60208301856122ec565b61232a60408301846122ec565b949350505050565b600067ffffffffffffffff82111561234d5761234c611e7f565b5b602082029050602081019050919050565b600061237161236c84612332565b611edf565b90508083825260208201905060208402830185811115612394576123936120e6565b5b835b818110156123db57803567ffffffffffffffff8111156123b9576123b8611e64565b5b8086016123c68982611f7c565b85526020850194505050602081019050612396565b5050509392505050565b600082601f8301126123fa576123f9611e64565b5b813561240a84826020860161235e565b91505092915050565b600067ffffffffffffffff82111561242e5761242d611e7f565b5b602082029050602081019050919050565b600061245261244d84612413565b611edf565b90508083825260208201905060208402830185811115612475576124746120e6565b5b835b818110156124bc57803567ffffffffffffffff81111561249a57612499611e64565b5b8086016124a789826123e5565b85526020850194505050602081019050612477565b5050509392505050565b600082601f8301126124db576124da611e64565b5b81356124eb84826020860161243f565b91505092915050565b6000806000806080858703121561250e5761250d611e35565b5b600085013567ffffffffffffffff81111561252c5761252b611e3a565b5b61253887828801611f7c565b945050602085013567ffffffffffffffff81111561255957612558611e3a565b5b61256587828801611f7c565b935050604085013567ffffffffffffffff81111561258657612585611e3a565b5b612592878288016123e5565b925050606085013567ffffffffffffffff8111156125b3576125b2611e3a565b5b6125bf878288016124c6565b91505092959194509250565b60008115159050919050565b6125e0816125cb565b82525050565b600082825260208201905092915050565b600061260282612006565b61260c81856125e6565b935061261c818560208601612022565b61262581611e6e565b840191505092915050565b7f4e487b7100000000000000000000000000000000000000000000000000000000600052602160045260246000fd5b600681106126705761266f612630565b5b50565b60008190506126818261265f565b919050565b600061269182612673565b9050919050565b6126a181612686565b82525050565b600981106126b8576126b7612630565b5b50565b60008190506126c9826126a7565b919050565b60006126d9826126bb565b9050919050565b6126e9816126ce565b82525050565b600060c08301600083015161270760008601826125d7565b50602083015161271a6020860182612698565b50604083015161272d6040860182612698565b5060608301516127406060860182612698565b50608083015161275360808601826126e0565b5060a083015184820360a086015261276b82826125f7565b9150508091505092915050565b600081519050919050565b600082825260208201905092915050565b6000819050602082019050919050565b60006080830160008301516127bc60008601826125d7565b5060208301516127cf6020860182612698565b50604083015184820360408601526127e782826125f7565b9150506060830151848203606086015261280182826125f7565b9150508091505092915050565b600061281a83836127a4565b905092915050565b6000602082019050919050565b600061283a82612778565b6128448185612783565b93508360208202850161285685612794565b8060005b858110156128925784840389528151612873858261280e565b945061287e83612822565b925060208a0199505060018101905061285a565b50829750879550505050505092915050565b600060a0830160008301516128bc60008601826125d7565b50602083015184820360208601526128d482826125f7565b915050604083015184820360408601526128ee82826125f7565b9150506060830151848203606086015261290882826126ef565b91505060808301518482036080860152612922828261282f565b9150508091505092915050565b6000602082019050818103600083015261294981846128a4565b905092915050565b6000806040838503121561296857612967611e35565b5b600083013567ffffffffffffffff81111561298657612985611e3a565b5b6129928582860161218a565b92505060206129a38582860161210c565b9150509250929050565b60006020820190506129c260008301846122ec565b92915050565b600060c0830160008301516129e060008601826125d7565b5060208301516129f36020860182612698565b506040830151612a066040860182612698565b506060830151612a196060860182612698565b506080830151612a2c60808601826126e0565b5060a083015184820360a0860152612a4482826125f7565b9150508091505092915050565b60006020820190508181036000830152612a6b81846129c8565b905092915050565b600067ffffffffffffffff821115612a8e57612a8d611e7f565b5b602082029050602081019050919050565b612aa8816125cb565b8114612ab357600080fd5b50565b600081359050612ac581612a9f565b92915050565b600060808284031215612ae157612ae06120b0565b5b612aeb6080611edf565b90506000612afb84828501612ab6565b6000830152506020612b0f84828501611e4f565b602083015250604082013567ffffffffffffffff811115612b3357612b326120b5565b5b612b3f84828501611f7c565b604083015250606082013567ffffffffffffffff811115612b6357612b626120b5565b5b612b6f84828501611f7c565b60608301525092915050565b6000612b8e612b8984612a73565b611edf565b90508083825260208201905060208402830185811115612bb157612bb06120e6565b5b835b81811015612bf857803567ffffffffffffffff811115612bd657612bd5611e64565b5b808601612be38982612acb565b85526020850194505050602081019050612bb3565b5050509392505050565b600082601f830112612c1757612c16611e64565b5b8135612c27848260208601612b7b565b91505092915050565b600080600060608486031215612c4957612c48611e35565b5b600084013567ffffffffffffffff811115612c6757612c66611e3a565b5b612c73868287016121b8565b935050602084013567ffffffffffffffff811115612c9457612c93611e3a565b5b612ca086828701612c02565b925050604084013567ffffffffffffffff811115612cc157612cc0611e3a565b5b612ccd86828701612c02565b9150509250925092565b612ce0816125cb565b82525050565b6000602082019050612cfb6000830184612cd7565b92915050565b60008060408385031215612d1857612d17611e35565b5b600083013567ffffffffffffffff811115612d3657612d35611e3a565b5b612d42858286016121b8565b925050602083013567ffffffffffffffff811115612d6357612d62611e3a565b5b612d6f85828601612acb565b9150509250929050565b60098110612d8657600080fd5b50565b600081359050612d9881612d79565b92915050565b600060c08284031215612db457612db36120b0565b5b612dbe60c0611edf565b90506000612dce84828501612ab6565b6000830152506020612de284828501611e4f565b6020830152506040612df684828501611e4f565b6040830152506060612e0a84828501611e4f565b6060830152506080612e1e84828501612d89565b60808301525060a082013567ffffffffffffffff811115612e4257612e416120b5565b5b612e4e84828501611f7c565b60a08301525092915050565b600060a08284031215612e7057612e6f6120b0565b5b612e7a60a0611edf565b90506000612e8a84828501612ab6565b600083015250602082013567ffffffffffffffff811115612eae57612ead6120b5565b5b612eba84828501611f7c565b602083015250604082013567ffffffffffffffff811115612ede57612edd6120b5565b5b612eea84828501611f7c565b604083015250606082013567ffffffffffffffff811115612f0e57612f0d6120b5565b5b612f1a84828501612d9e565b606083015250608082013567ffffffffffffffff811115612f3e57612f3d6120b5565b5b612f4a84828501612c02565b60808301525092915050565b600080600080600060a08688031215612f7257612f71611e35565b5b600086013567ffffffffffffffff811115612f9057612f8f611e3a565b5b612f9c88828901612d9e565b955050602086013567ffffffffffffffff811115612fbd57612fbc611e3a565b5b612fc988828901611f7c565b945050604086013567ffffffffffffffff811115612fea57612fe9611e3a565b5b612ff688828901612e5a565b935050606086013567ffffffffffffffff81111561301757613016611e3a565b5b61302388828901611f7c565b925050608086013567ffffffffffffffff81111561304457613043611e3a565b5b61305088828901611f7c565b9150509295509295909350565b600080600080600060a0868803121561307957613078611e35565b5b600086013567ffffffffffffffff81111561309757613096611e3a565b5b6130a388828901612e5a565b955050602086013567ffffffffffffffff8111156130c4576130c3611e3a565b5b6130d088828901612d9e565b945050604086013567ffffffffffffffff8111156130f1576130f0611e3a565b5b6130fd88828901611f7c565b935050606086013567ffffffffffffffff81111561311e5761311d611e3a565b5b61312a88828901611f7c565b925050608086013567ffffffffffffffff81111561314b5761314a611e3a565b5b61315788828901611f7c565b9150509295509295909350565b6000806040838503121561317b5761317a611e35565b5b600083013567ffffffffffffffff81111561319957613198611e3a565b5b6131a585828601611f7c565b925050602083013567ffffffffffffffff8111156131c6576131c5611e3a565b5b6131d285828601611f7c565b9150509250929050565b600080600080600080600060e0888a0312156131fb576131fa611e35565b5b600088013567ffffffffffffffff81111561321957613218611e3a565b5b6132258a828b016123e5565b975050602088013567ffffffffffffffff81111561324657613245611e3a565b5b6132528a828b016124c6565b965050604088013567ffffffffffffffff81111561327357613272611e3a565b5b61327f8a828b01611f7c565b955050606088013567ffffffffffffffff8111156132a05761329f611e3a565b5b6132ac8a828b01611f7c565b945050608088013567ffffffffffffffff8111156132cd576132cc611e3a565b5b6132d98a828b01611f7c565b93505060a088013567ffffffffffffffff8111156132fa576132f9611e3a565b5b6133068a828b01611f7c565b92505060c088013567ffffffffffffffff81111561332757613326611e3a565b5b6133338a828b01611f7c565b91505092959891949750929550565b6000806040838503121561335957613358611e35565b5b600061336785828601612d89565b925050602083013567ffffffffffffffff81111561338857613387611e3a565b5b61339485828601611f7c565b9150509250929050565b600080604083850312156133b5576133b4611e35565b5b600083013567ffffffffffffffff8111156133d3576133d2611e3a565b5b6133df85828601612acb565b925050602083013567ffffffffffffffff811115613400576133ff611e3a565b5b61340c85828601611f7c565b9150509250929050565b600067ffffffffffffffff82111561343157613430611e7f565b5b61343a82611e6e565b9050602081019050919050565b600061345a61345584613416565b611edf565b90508281526020810184848401111561347657613475611e69565b5b613481848285611f2b565b509392505050565b600082601f83011261349e5761349d611e64565b5b81356134ae848260208601613447565b91505092915050565b6000602082840312156134cd576134cc611e35565b5b600082013567ffffffffffffffff8111156134eb576134ea611e3a565b5b6134f784828501613489565b91505092915050565b6000806040838503121561351757613516611e35565b5b600083013567ffffffffffffffff81111561353557613534611e3a565b5b613541858286016121b8565b925050602083013567ffffffffffffffff81111561356257613561611e3a565b5b61356e85828601612c02565b9150509250929050565b6000806000806080858703121561359257613591611e35565b5b600085013567ffffffffffffffff8111156135b0576135af611e3a565b5b6135bc87828801612acb565b94505060206135cd8782880161210c565b93505060406135de8782880161210c565b92505060606135ef8782880161210c565b91505092959194509250565b6000806040838503121561361257613611611e35565b5b600083013567ffffffffffffffff8111156136305761362f611e3a565b5b61363c85828601612e5a565b925050602083013567ffffffffffffffff81111561365d5761365c611e3a565b5b61366985828601612d9e565b9150509250929050565b60008060006060848603121561368c5761368b611e35565b5b600084013567ffffffffffffffff8111156136aa576136a9611e3a565b5b6136b686828701612d9e565b935050602084013567ffffffffffffffff8111156136d7576136d6611e3a565b5b6136e386828701611f7c565b925050604084013567ffffffffffffffff81111561370457613703611e3a565b5b61371086828701611f7c565b9150509250925092565b60008060006060848603121561373357613732611e35565b5b600084013567ffffffffffffffff81111561375157613750611e3a565b5b61375d868287016121b8565b935050602084013567ffffffffffffffff81111561377e5761377d611e3a565b5b61378a86828701612acb565b925050604084013567ffffffffffffffff8111156137ab576137aa611e3a565b5b6137b786828701612acb565b9150509250925092565b6000608082840312156137d7576137d66120b0565b5b6137e16080611edf565b905060006137f184828501612ab6565b600083015250602082013567ffffffffffffffff811115613815576138146120b5565b5b61382184828501611f7c565b602083015250604082013567ffffffffffffffff811115613845576138446120b5565b5b61385184828501612e5a565b604083015250606082013567ffffffffffffffff811115613875576138746120b5565b5b61388184828501612e5a565b60608301525092915050565b6000608082840312156138a3576138a26120b0565b5b6138ad6080611edf565b9050600082013567ffffffffffffffff8111156138cd576138cc6120b5565b5b6138d984828501612d9e565b600083015250602082013567ffffffffffffffff8111156138fd576138fc6120b5565b5b613909848285016121b8565b602083015250604061391d8482850161210c565b60408301525060606139318482850161210c565b60608301525092915050565b6000806000806080858703121561395757613956611e35565b5b600085013567ffffffffffffffff81111561397557613974611e3a565b5b613981878288016137c1565b945050602085013567ffffffffffffffff8111156139a2576139a1611e3a565b5b6139ae8782880161388d565b935050604085013567ffffffffffffffff8111156139cf576139ce611e3a565b5b6139db87828801611f7c565b925050606085013567ffffffffffffffff8111156139fc576139fb611e3a565b5b613a0887828801611f7c565b91505092959194509250565b60038110613a2557613a24612630565b5b50565b6000819050613a3682613a14565b919050565b6000613a4682613a28565b9050919050565b613a5681613a3b565b82525050565b6000602082019050613a716000830184613a4d565b92915050565b600060208284031215613a8d57613a8c611e35565b5b600082013567ffffffffffffffff811115613aab57613aaa611e3a565b5b613ab784828501612e5a565b91505092915050565b600060208284031215613ad657613ad5611e35565b5b600082013567ffffffffffffffff811115613af457613af3611e3a565b5b613b0084828501611f7c565b91505092915050565b60008060008060808587031215613b2357613b22611e35565b5b600085013567ffffffffffffffff811115613b4157613b40611e3a565b5b613b4d8782880161388d565b945050602085013567ffffffffffffffff811115613b6e57613b6d611e3a565b5b613b7a87828801611f7c565b935050604085013567ffffffffffffffff811115613b9b57613b9a611e3a565b5b613ba7878288016137c1565b925050606085013567ffffffffffffffff811115613bc857613bc7611e3a565b5b613bd487828801611f7c565b91505092959194509250565b600080600060608486031215613bf957613bf8611e35565b5b6000613c0786828701611e4f565b9350506020613c1886828701612d89565b925050604084013567ffffffffffffffff811115613c3957613c38611e3a565b5b613c4586828701611f7c565b9150509250925092565b7f4e487b7100000000000000000000000000000000000000000000000000000000600052601160045260246000fd5b6000613c89826120eb565b9150613c94836120eb565b9250817fffffffffffffffffffffffffffffffffffffffffffffffffffffffffffffffff0483118215151615613ccd57613ccc613c4f565b5b828202905092915050565b6000613ce3826120eb565b9150613cee836120eb565b9250827fffffffffffffffffffffffffffffffffffffffffffffffffffffffffffffffff03821115613d2357613d22613c4f565b5b828201905092915050565b6000613d39826120eb565b9150613d44836120eb565b925082821015613d5757613d56613c4f565b5b828203905092915050565b7f4e487b7100000000000000000000000000000000000000000000000000000000600052603260045260246000fd5b6000613d9c826120eb565b91507fffffffffffffffffffffffffffffffffffffffffffffffffffffffffffffffff821415613dcf57613dce613c4f565b5b600182019050919050565b600060ff82169050919050565b60008160f81b9050919050565b6000613dff82613de7565b9050919050565b613e17613e1282613dda565b613df4565b82525050565b600081905092915050565b6000613e3382612006565b613e3d8185613e1d565b9350613e4d818560208601612022565b80840191505092915050565b6000613e658286613e06565b600182019150613e758285613e06565b600182019150613e858284613e28565b9150819050949350505050565b6000613e9e8285613e06565b600182019150613eae8284613e28565b91508190509392505050565b600082825260208201905092915050565b7f696e76616c6964206f7220756e737570706f72746564206c656e677468206f7060008201527f65726174696f6e00000000000000000000000000000000000000000000000000602082015250565b6000613f27602783613eba565b9150613f3282613ecb565b604082019050919050565b60006020820190508181036000830152613f5681613f1a565b9050919050565b6000613f698286613e28565b9150613f758285613e28565b9150613f818284613e28565b9150819050949350505050565b60008160011c9050919050565b6000808291508390505b6001851115613fe557808604811115613fc157613fc0613c4f565b5b6001851615613fd05780820291505b8081029050613fde85613f8e565b9450613fa5565b94509492505050565b600082613ffe57600190506140ba565b8161400c57600090506140ba565b8160018114614022576002811461402c5761405b565b60019150506140ba565b60ff84111561403e5761403d613c4f565b5b8360020a91508482111561405557614054613c4f565b5b506140ba565b5060208310610133831016604e8410600b84101617156140905782820a90508381111561408b5761408a613c4f565b5b6140ba565b61409d8484846001613f9b565b925090508184048111156140b4576140b3613c4f565b5b81810290505b9392505050565b60006140cc826120eb565b91506140d7836120eb565b92506141047fffffffffffffffffffffffffffffffffffffffffffffffffffffffffffffffff8484613fee565b905092915050565b7f73686f756c64206e6f742072656163682074686973206c696e65000000000000600082015250565b6000614142601a83613eba565b915061414d8261410c565b602082019050919050565b6000602082019050818103600083015261417181614135565b9050919050565b6000819050919050565b6000819050919050565b61419d61419882614178565b614182565b82525050565b60006141af828461418c565b60208201915081905092915050565b60006141ca8284613e28565b915081905092915050565b6141de81614178565b81146141e957600080fd5b50565b6000815190506141fb816141d5565b92915050565b60006020828403121561421757614216611e35565b5b6000614225848285016141ec565b91505092915050565b60007fffffffffffffffffffffffffffffffffffffffff00000000000000000000000082169050919050565b6000819050919050565b6142756142708261422e565b61425a565b82525050565b60006142878284614264565b60148201915081905092915050565b7f696e76616c6964206f7220756e737570706f727465642068617368206f70657260008201527f6174696f6e000000000000000000000000000000000000000000000000000000602082015250565b60006142f2602583613eba565b91506142fd82614296565b604082019050919050565b60006020820190508181036000830152614321816142e5565b905091905056fea26469706673582212207326d183a3b7aa911fffec8131570bd8c17dd830b1cb2a9510c2d8b6d3206abc64736f6c63430008090033",
  "immutableReferences": {},
  "source": "// SPDX-License-Identifier: MIT\npragma solidity ^0.8.7;\n\nimport \"./ics23.sol\";\n\ncontract AnconVerifier is ICS23 {\n    constructor() public {\n        verify();\n    }\n\n    function verify() public view returns (bool) {\n        return true;\n    }\n\n    //Gotten from https://stackoverflow.com/a/69007075\n    function st2num(string memory numString) public pure returns (uint256) {\n        uint256 val = 0;\n        bytes memory stringBytes = bytes(numString);\n        for (uint256 i = 0; i < stringBytes.length; i++) {\n            uint256 exp = stringBytes.length - i;\n            bytes1 ival = stringBytes[i];\n            uint8 uval = uint8(ival);\n            uint256 jval = uval - uint256(0x30);\n\n            val += (uint256(jval) * (10**(exp - 1)));\n        }\n        return val;\n    }\n\n    function bytes2num(bytes memory numBytes) public pure returns (uint256) {\n        return st2num(string(numBytes));\n    }\n\n    //Separate arguments to not convert from uint 256 to byte\n    function convertProof(\n        bytes memory key,\n        bytes memory value,\n        bytes[] memory _leafOp,\n        bytes[][] memory _innerOp\n    ) public pure returns (ExistenceProof memory) {\n        LeafOp memory leafOp = LeafOp({\n            hash: HashOp(bytes2num(_leafOp[0])),\n            prehash_key: HashOp(bytes2num(_leafOp[1])),\n            prehash_value: HashOp(bytes2num(_leafOp[2])),\n            len: LengthOp(bytes2num(_leafOp[3])),\n            valid: true,\n            prefix: _leafOp[4]\n        });\n\n        // innerOpArr\n        InnerOp[] memory innerOpArr;\n\n        for (uint256 i = 0; i < _innerOp.length; i++) {\n            bytes[] memory temp = _innerOp[i];\n            innerOpArr[i] = InnerOp({\n                valid: true,\n                hash: HashOp(uint256(bytes2num(temp[0]))),\n                prefix: temp[1],\n                suffix: temp[2]\n            });\n        }\n        ExistenceProof memory proof = ExistenceProof({\n            valid: false,\n            key: key,\n            value: value,\n            leaf: leafOp,\n            path: innerOpArr\n        });\n\n        return proof;\n    }\n\n    function changeOwnerWithProof(\n        bytes[] memory existenceProofLeafOp,\n        bytes[][] memory existenceProofInnerOp,\n        bytes memory existenceProofValue,\n        bytes memory existenceProofKey,\n        bytes memory rootBz,\n        bytes memory pathBz,\n        bytes memory value\n    ) public returns (bool) {\n        // todo: verify not empty\n        ExistenceProof memory proof = convertProof(\n            existenceProofKey,\n            existenceProofValue,\n            existenceProofLeafOp,\n            existenceProofInnerOp\n        );\n\n        // Verify membership\n        return verifyMembership(getIavlSpec(), rootBz, proof, pathBz, value);\n\n        //proof.key = xp.\n\n        // verify permit exists, has not revoked, has valid issuer and is not expired\n        //return this.verifyMembership(iavlSpec, rootBz, xp, pathBz, value);\n        // verify token exists\n        //_lock(vc.data);\n        // _release\n    }\n}\n",
  "sourcePath": "/home/dallant/Code/ancon-protocol/ethereum/contracts/ancon/AnconVerifier.sol",
  "compiler": {
    "name": "solc",
    "version": "0.8.9+commit.e5eed63a.Emscripten.clang"
  },
  "schemaVersion": "3.4.3",
  "updatedAt": "2021-10-19T20:37:59.236Z",
  "networkType": "ethereum",
  "devdoc": {
    "kind": "dev",
    "methods": {},
    "version": 1
  },
  "userdoc": {
    "kind": "user",
    "methods": {},
    "version": 1
  }
}