{
  "contractName": "AnconVerifier",
  "abi": [
    {
      "inputs": [
        {
          "internalType": "address",
          "name": "onlyOwner",
          "type": "address"
        }
      ],
      "stateMutability": "nonpayable",
      "type": "constructor"
    },
    {
      "inputs": [],
      "name": "getIavlSpec",
      "outputs": [
        {
          "components": [
            {
              "components": [
                {
                  "internalType": "bool",
                  "name": "valid",
                  "type": "bool"
                },
                {
                  "internalType": "enum ICS23.HashOp",
                  "name": "hash",
                  "type": "uint8"
                },
                {
                  "internalType": "enum ICS23.HashOp",
                  "name": "prehash_key",
                  "type": "uint8"
                },
                {
                  "internalType": "enum ICS23.HashOp",
                  "name": "prehash_value",
                  "type": "uint8"
                },
                {
                  "internalType": "enum ICS23.LengthOp",
                  "name": "len",
                  "type": "uint8"
                },
                {
                  "internalType": "bytes",
                  "name": "prefix",
                  "type": "bytes"
                }
              ],
              "internalType": "struct ICS23.LeafOp",
              "name": "leafSpec",
              "type": "tuple"
            },
            {
              "components": [
                {
                  "internalType": "uint256[]",
                  "name": "childOrder",
                  "type": "uint256[]"
                },
                {
                  "internalType": "uint256",
                  "name": "childSize",
                  "type": "uint256"
                },
                {
                  "internalType": "uint256",
                  "name": "minPrefixLength",
                  "type": "uint256"
                },
                {
                  "internalType": "uint256",
                  "name": "maxPrefixLength",
                  "type": "uint256"
                },
                {
                  "internalType": "bytes",
                  "name": "emptyChild",
                  "type": "bytes"
                },
                {
                  "internalType": "enum ICS23.HashOp",
                  "name": "hash",
                  "type": "uint8"
                }
              ],
              "internalType": "struct ICS23.InnerSpec",
              "name": "innerSpec",
              "type": "tuple"
            },
            {
              "internalType": "uint256",
              "name": "maxDepth",
              "type": "uint256"
            },
            {
              "internalType": "uint256",
              "name": "minDepth",
              "type": "uint256"
            }
          ],
          "internalType": "struct ICS23.ProofSpec",
          "name": "",
          "type": "tuple"
        }
      ],
      "stateMutability": "pure",
      "type": "function"
    },
    {
      "inputs": [
        {
          "components": [
            {
              "internalType": "bool",
              "name": "valid",
              "type": "bool"
            },
            {
              "internalType": "bytes",
              "name": "key",
              "type": "bytes"
            },
            {
              "internalType": "bytes",
              "name": "value",
              "type": "bytes"
            },
            {
              "components": [
                {
                  "internalType": "bool",
                  "name": "valid",
                  "type": "bool"
                },
                {
                  "internalType": "enum ICS23.HashOp",
                  "name": "hash",
                  "type": "uint8"
                },
                {
                  "internalType": "enum ICS23.HashOp",
                  "name": "prehash_key",
                  "type": "uint8"
                },
                {
                  "internalType": "enum ICS23.HashOp",
                  "name": "prehash_value",
                  "type": "uint8"
                },
                {
                  "internalType": "enum ICS23.LengthOp",
                  "name": "len",
                  "type": "uint8"
                },
                {
                  "internalType": "bytes",
                  "name": "prefix",
                  "type": "bytes"
                }
              ],
              "internalType": "struct ICS23.LeafOp",
              "name": "leaf",
              "type": "tuple"
            },
            {
              "components": [
                {
                  "internalType": "bool",
                  "name": "valid",
                  "type": "bool"
                },
                {
                  "internalType": "enum ICS23.HashOp",
                  "name": "hash",
                  "type": "uint8"
                },
                {
                  "internalType": "bytes",
                  "name": "prefix",
                  "type": "bytes"
                },
                {
                  "internalType": "bytes",
                  "name": "suffix",
                  "type": "bytes"
                }
              ],
              "internalType": "struct ICS23.InnerOp[]",
              "name": "path",
              "type": "tuple[]"
            }
          ],
          "internalType": "struct ICS23.ExistenceProof",
          "name": "proof",
          "type": "tuple"
        },
        {
          "components": [
            {
              "components": [
                {
                  "internalType": "bool",
                  "name": "valid",
                  "type": "bool"
                },
                {
                  "internalType": "enum ICS23.HashOp",
                  "name": "hash",
                  "type": "uint8"
                },
                {
                  "internalType": "enum ICS23.HashOp",
                  "name": "prehash_key",
                  "type": "uint8"
                },
                {
                  "internalType": "enum ICS23.HashOp",
                  "name": "prehash_value",
                  "type": "uint8"
                },
                {
                  "internalType": "enum ICS23.LengthOp",
                  "name": "len",
                  "type": "uint8"
                },
                {
                  "internalType": "bytes",
                  "name": "prefix",
                  "type": "bytes"
                }
              ],
              "internalType": "struct ICS23.LeafOp",
              "name": "leafSpec",
              "type": "tuple"
            },
            {
              "components": [
                {
                  "internalType": "uint256[]",
                  "name": "childOrder",
                  "type": "uint256[]"
                },
                {
                  "internalType": "uint256",
                  "name": "childSize",
                  "type": "uint256"
                },
                {
                  "internalType": "uint256",
                  "name": "minPrefixLength",
                  "type": "uint256"
                },
                {
                  "internalType": "uint256",
                  "name": "maxPrefixLength",
                  "type": "uint256"
                },
                {
                  "internalType": "bytes",
                  "name": "emptyChild",
                  "type": "bytes"
                },
                {
                  "internalType": "enum ICS23.HashOp",
                  "name": "hash",
                  "type": "uint8"
                }
              ],
              "internalType": "struct ICS23.InnerSpec",
              "name": "innerSpec",
              "type": "tuple"
            },
            {
              "internalType": "uint256",
              "name": "maxDepth",
              "type": "uint256"
            },
            {
              "internalType": "uint256",
              "name": "minDepth",
              "type": "uint256"
            }
          ],
          "internalType": "struct ICS23.ProofSpec",
          "name": "spec",
          "type": "tuple"
        },
        {
          "internalType": "bytes",
          "name": "root",
          "type": "bytes"
        },
        {
          "internalType": "bytes",
          "name": "key",
          "type": "bytes"
        },
        {
          "internalType": "bytes",
          "name": "value",
          "type": "bytes"
        }
      ],
      "name": "verify",
      "outputs": [],
      "stateMutability": "pure",
      "type": "function"
    },
    {
      "inputs": [],
      "name": "whitelisted",
      "outputs": [
        {
          "internalType": "address",
          "name": "",
          "type": "address"
        }
      ],
      "stateMutability": "view",
      "type": "function"
    },
    {
      "inputs": [
        {
          "internalType": "string",
          "name": "numString",
          "type": "string"
        }
      ],
      "name": "st2num",
      "outputs": [
        {
          "internalType": "uint256",
          "name": "",
          "type": "uint256"
        }
      ],
      "stateMutability": "pure",
      "type": "function"
    },
    {
      "inputs": [
        {
          "internalType": "bytes",
          "name": "numBytes",
          "type": "bytes"
        }
      ],
      "name": "bytes2num",
      "outputs": [
        {
          "internalType": "uint256",
          "name": "",
          "type": "uint256"
        }
      ],
      "stateMutability": "pure",
      "type": "function"
    },
    {
      "inputs": [
        {
          "internalType": "bytes",
          "name": "key",
          "type": "bytes"
        },
        {
          "internalType": "bytes",
          "name": "value",
          "type": "bytes"
        },
        {
          "internalType": "bytes",
          "name": "_prefix",
          "type": "bytes"
        },
        {
          "internalType": "uint256[]",
          "name": "_leafOpUint",
          "type": "uint256[]"
        },
        {
          "internalType": "bytes[][]",
          "name": "_innerOp",
          "type": "bytes[][]"
        },
        {
          "internalType": "uint256",
          "name": "existenceProofInnerOpHash",
          "type": "uint256"
        }
      ],
      "name": "convertProof",
      "outputs": [
        {
          "components": [
            {
              "internalType": "bool",
              "name": "valid",
              "type": "bool"
            },
            {
              "internalType": "bytes",
              "name": "key",
              "type": "bytes"
            },
            {
              "internalType": "bytes",
              "name": "value",
              "type": "bytes"
            },
            {
              "components": [
                {
                  "internalType": "bool",
                  "name": "valid",
                  "type": "bool"
                },
                {
                  "internalType": "enum ICS23.HashOp",
                  "name": "hash",
                  "type": "uint8"
                },
                {
                  "internalType": "enum ICS23.HashOp",
                  "name": "prehash_key",
                  "type": "uint8"
                },
                {
                  "internalType": "enum ICS23.HashOp",
                  "name": "prehash_value",
                  "type": "uint8"
                },
                {
                  "internalType": "enum ICS23.LengthOp",
                  "name": "len",
                  "type": "uint8"
                },
                {
                  "internalType": "bytes",
                  "name": "prefix",
                  "type": "bytes"
                }
              ],
              "internalType": "struct ICS23.LeafOp",
              "name": "leaf",
              "type": "tuple"
            },
            {
              "components": [
                {
                  "internalType": "bool",
                  "name": "valid",
                  "type": "bool"
                },
                {
                  "internalType": "enum ICS23.HashOp",
                  "name": "hash",
                  "type": "uint8"
                },
                {
                  "internalType": "bytes",
                  "name": "prefix",
                  "type": "bytes"
                },
                {
                  "internalType": "bytes",
                  "name": "suffix",
                  "type": "bytes"
                }
              ],
              "internalType": "struct ICS23.InnerOp[]",
              "name": "path",
              "type": "tuple[]"
            }
          ],
          "internalType": "struct ICS23.ExistenceProof",
          "name": "",
          "type": "tuple"
        }
      ],
      "stateMutability": "pure",
      "type": "function"
    },
    {
      "inputs": [
        {
          "internalType": "uint256[]",
          "name": "leafOpUint",
          "type": "uint256[]"
        },
        {
          "internalType": "bytes",
          "name": "prefix",
          "type": "bytes"
        },
        {
          "internalType": "bytes[][]",
          "name": "existenceProofInnerOp",
          "type": "bytes[][]"
        },
        {
          "internalType": "uint256",
          "name": "existenceProofInnerOpHash",
          "type": "uint256"
        },
        {
          "internalType": "bytes",
          "name": "existenceProofKey",
          "type": "bytes"
        },
        {
          "internalType": "bytes",
          "name": "existenceProofValue",
          "type": "bytes"
        }
      ],
      "name": "requestRoot",
      "outputs": [
        {
          "internalType": "bytes",
          "name": "",
          "type": "bytes"
        }
      ],
      "stateMutability": "view",
      "type": "function"
    },
    {
      "inputs": [
        {
          "internalType": "uint256[]",
          "name": "leafOpUint",
          "type": "uint256[]"
        },
        {
          "internalType": "bytes",
          "name": "prefix",
          "type": "bytes"
        },
        {
          "internalType": "bytes[][]",
          "name": "existenceProofInnerOp",
          "type": "bytes[][]"
        },
        {
          "internalType": "uint256",
          "name": "existenceProofInnerOpHash",
          "type": "uint256"
        },
        {
          "internalType": "bytes",
          "name": "existenceProofKey",
          "type": "bytes"
        },
        {
          "internalType": "bytes",
          "name": "existenceProofValue",
          "type": "bytes"
        },
        {
          "internalType": "bytes",
          "name": "root",
          "type": "bytes"
        },
        {
          "internalType": "bytes",
          "name": "key",
          "type": "bytes"
        },
        {
          "internalType": "bytes",
          "name": "value",
          "type": "bytes"
        }
      ],
      "name": "changeOwnerWithProof",
      "outputs": [
        {
          "internalType": "bool",
          "name": "",
          "type": "bool"
        }
      ],
      "stateMutability": "pure",
      "type": "function"
    }
  ],
  "bytecode": "0x60806040523480156200001157600080fd5b506040516200286b3803806200286b83398101604081905262000034916200005a565b600080546001600160a01b0319166001600160a01b03929092169190911790556200008c565b6000602082840312156200006d57600080fd5b81516001600160a01b03811681146200008557600080fd5b9392505050565b6127cf806200009c6000396000f3fe608060405234801561001057600080fd5b50600436106100885760003560e01c8063b94063601161005b578063b940636014610126578063e6aa73d614610146578063eb044b3814610159578063edce7cdc1461017c57600080fd5b806327dcd78c1461008d5780633d9287fa146100ab57806379cd9055146100f0578063b0d264e714610111575b600080fd5b61009561019c565b6040516100a291906118ad565b60405180910390f35b6000546100cb9073ffffffffffffffffffffffffffffffffffffffff1681565b60405173ffffffffffffffffffffffffffffffffffffffff90911681526020016100a2565b6101036100fe366004611a97565b6102b0565b6040519081526020016100a2565b61012461011f366004611f2a565b61036c565b005b6101396101343660046120ef565b6104e0565b6040516100a291906121c9565b6101036101543660046122d0565b610786565b61016c610167366004612305565b610797565b60405190151581526020016100a2565b61018f61018a36600461244f565b6107cf565b6040516100a29190612529565b6101a46116d1565b6101ac6116d1565b6040805160028082526060820183526000926020830190803683370190505090506000816000815181106101e2576101e261253c565b6020026020010181815250506001816001815181106102035761020361253c565b6020026020010181815250506040518060c0016040528060011515815260200160016005811115610236576102366117b1565b815260200160008152602001600181526020016001815260408051808201825260018082526000602083810182905294850192909252938652815160c081018352858152602181850152600481840152600c60608201528251938401909252825260808101919091529060a0820152602083015250919050565b60008082815b81518110156103635760008183516102ce9190612568565b905060008383815181106102e4576102e461253c565b01602001517fff000000000000000000000000000000000000000000000000000000000000008116915060f81c600061031e603083612568565b905061032b600185612568565b61033690600a612663565b610340908261266f565b61034a908861268e565b965050505050808061035b906126a6565b9150506102b6565b50909392505050565b6103768585610886565b6103848560200151836109ae565b6103d55760405162461bcd60e51b815260206004820181905260248201527f50726f7669646564206b657920646f65736e2774206d617463682070726f6f6660448201526064015b60405180910390fd5b6103e38560400151826109ae565b6104555760405162461bcd60e51b815260206004820152602260248201527f50726f76696465642076616c756520646f65736e2774206d617463682070726f60448201527f6f6600000000000000000000000000000000000000000000000000000000000060648201526084016103cc565b610467610461866109d8565b846109ae565b6104d95760405162461bcd60e51b815260206004820152602c60248201527f43616c63756c636174656420726f6f7420646f65736e2774206d61746368207060448201527f726f766964656420726f6f74000000000000000000000000000000000000000060648201526084016103cc565b5050505050565b6104e8611705565b60006040518060c00160405280600115158152602001866000815181106105115761051161253c565b6020026020010151600581111561052a5761052a6117b1565b600581111561053b5761053b6117b1565b8152602001866001815181106105535761055361253c565b6020026020010151600581111561056c5761056c6117b1565b600581111561057d5761057d6117b1565b8152602001866002815181106105955761059561253c565b602002602001015160058111156105ae576105ae6117b1565b60058111156105bf576105bf6117b1565b8152602001866003815181106105d7576105d761253c565b602002602001015160088111156105f0576105f06117b1565b6008811115610601576106016117b1565b81526020018781525090506000845167ffffffffffffffff81111561062857610628611989565b60405190808252806020026020018201604052801561067c57816020015b60408051608081018252600080825260208201526060918101829052818101919091528152602001906001900390816106465790505b50905060005b855181101561075457600086828151811061069f5761069f61253c565b6020026020010151905060405180608001604052806001151581526020018760058111156106cf576106cf6117b1565b60058111156106e0576106e06117b1565b8152602001826000815181106106f8576106f861253c565b60200260200101518152602001826001815181106107185761071861253c565b60200260200101518152508383815181106107355761073561253c565b602002602001018190525050808061074c906126a6565b915050610682565b506040805160a08101825260018152602081019a909a5289019790975260608801525050505060808301919091525090565b6000610791826102b0565b92915050565b6000806107a887878c8e8d8d6104e0565b90506107be816107b661019c565b87878761036c565b5060019a9950505050505050505050565b60005460609073ffffffffffffffffffffffffffffffffffffffff16331461085f5760405162461bcd60e51b815260206004820152602160248201527f4d7573742062652077686974656c6973746564206f722072656769737465726560448201527f640000000000000000000000000000000000000000000000000000000000000060648201526084016103cc565b600061086f8484898b8a8a6104e0565b905061087a816109d8565b98975050505050505050565b610894826060015182610a47565b606081015115806108ae5750806060015182608001515110155b6108fa5760405162461bcd60e51b815260206004820152601860248201527f496e6e65724f707320646570746820746f6f2073686f7274000000000000000060448201526064016103cc565b604081015115806109145750806040015182608001515110155b6109605760405162461bcd60e51b815260206004820152601860248201527f496e6e65724f707320646570746820746f6f2073686f7274000000000000000060448201526064016103cc565b60005b8260800151518110156109a957610997836080015182815181106109895761098961253c565b602002602001015183610c95565b806109a1816126a6565b915050610963565b505050565b600081518351146109c157506000610791565b508151602091820181902091909201919091201490565b606060006109f3836060015184602001518560400151610e60565b905060005b836080015151811015610a4057610a2c84608001518281518110610a1e57610a1e61253c565b602002602001015183610f8a565b915080610a38816126a6565b9150506109f8565b5092915050565b8051602001516005811115610a5e57610a5e6117b1565b82602001516005811115610a7457610a746117b1565b14610ac15760405162461bcd60e51b815260206004820152601160248201527f556e657870656374656420486173684f7000000000000000000000000000000060448201526064016103cc565b8051604001516005811115610ad857610ad86117b1565b82604001516005811115610aee57610aee6117b1565b14610b3b5760405162461bcd60e51b815260206004820152601560248201527f556e657870656374656420507265686173684b6579000000000000000000000060448201526064016103cc565b8051606001516005811115610b5257610b526117b1565b82606001516005811115610b6857610b686117b1565b14610bb55760405162461bcd60e51b815260206004820152601560248201527f556e657870656374656420507265686173684b6579000000000000000000000060448201526064016103cc565b8051608001516008811115610bcc57610bcc6117b1565b82608001516008811115610be257610be26117b1565b14610c2f5760405162461bcd60e51b815260206004820152601a60248201527f556e657870656374656c65616653706563204c656e6774684f7000000000000060448201526064016103cc565b610c458260a00151826000015160a00151611039565b610c915760405162461bcd60e51b815260206004820152601760248201527f4c6561664f704c69623a2077726f6e672070726566697800000000000000000060448201526064016103cc565b5050565b8051602001516005811115610cac57610cac6117b1565b82602001516005811115610cc257610cc26117b1565b14610d0f5760405162461bcd60e51b815260206004820152601160248201527f556e657870656374656420486173684f7000000000000000000000000000000060448201526064016103cc565b610d258260400151826000015160a00151611039565b15610d725760405162461bcd60e51b815260206004820152601860248201527f496e6e65724f704c69623a2077726f6e6720707265666978000000000000000060448201526064016103cc565b8060200151604001518260400151511015610dcf5760405162461bcd60e51b815260206004820152601860248201527f496e6e65724f702070726566697820746f6f2073686f7274000000000000000060448201526064016103cc565b6020808201519081015190515160009190610dec90600190612568565b610df6919061266f565b905080826020015160600151610e0c919061268e565b83604001515111156109a95760405162461bcd60e51b815260206004820152601860248201527f496e6e65724f702070726566697820746f6f2073686f7274000000000000000060448201526064016103cc565b60606000835111610eb35760405162461bcd60e51b815260206004820152601160248201527f4c656166206f70206e65656473206b657900000000000000000000000000000060448201526064016103cc565b6000825111610f045760405162461bcd60e51b815260206004820152601360248201527f4c656166206f70206e656564732076616c75650000000000000000000000000060448201526064016103cc565b60008460a00151610f1e86604001518760800151876110fc565b604051602001610f2f9291906126c1565b604051602081830303815290604052610f5186606001518760800151866110fc565b604051602001610f629291906126c1565b6040516020818303038152906040529050610f81856020015182611119565b95945050505050565b60606000825111610fdd5760405162461bcd60e51b815260206004820152601a60248201527f496e6e6572206f70206e65656473206368696c642076616c756500000000000060448201526064016103cc565b6110328360200151846040015184604051602001610ffc9291906126c1565b60408051601f1981840301815290829052606087015161101e926020016126c1565b604051602081830303815290604052611119565b9392505050565b600081518351101561104d57506000610791565b60005b82518110156110f25782818151811061106b5761106b61253c565b602001015160f81c60f81b7effffffffffffffffffffffffffffffffffffffffffffffffffffffffffffff19168482815181106110aa576110aa61253c565b01602001517fff0000000000000000000000000000000000000000000000000000000000000016146110e0576000915050610791565b806110ea816126a6565b915050611050565b5060019392505050565b60606111118361110c8685611337565b611364565b949350505050565b6060600183600581111561112f5761112f6117b1565b14156111945761118d60028360405161114891906126f0565b602060405180830381855afa158015611165573d6000803e3d6000fd5b5050506040513d601f19601f82011682018060405250810190611188919061270c565b6114f8565b9050610791565b60028360058111156111a8576111a86117b1565b14156111f65760405162461bcd60e51b815260206004820152601660248201527f534841353132206e6f7420696d706c656d656e7465640000000000000000000060448201526064016103cc565b600483600581111561120a5761120a6117b1565b141561125e5761118d60038360405161122391906126f0565b602060405180830381855afa158015611240573d6000803e3d6000fd5b5050506040515160601b6bffffffffffffffffffffffff19166114f8565b6005836005811115611272576112726117b1565b14156112ef57600060028360405161128a91906126f0565b602060405180830381855afa1580156112a7573d6000803e3d6000fd5b5050506040513d601f19601f820116820180604052508101906112ca919061270c565b90506112e760036112da836114f8565b60405161122391906126f0565b915050610791565b60405162461bcd60e51b815260206004820152601260248201527f556e737570706f7274656420686173686f70000000000000000000000000000060448201526064016103cc565b6060600083600581111561134d5761134d6117b1565b141561135a575080610791565b6110328383611119565b6060600083600881111561137a5761137a6117b1565b1415611387575080610791565b600183600881111561139b5761139b6117b1565b14156113d3576113ab8251611522565b826040516020016113bd9291906126c1565b6040516020818303038152906040529050610791565b60078360088111156113e7576113e76117b1565b141561144557815160201461143e5760405162461bcd60e51b815260206004820152601160248201527f457870656374656420333220627974657300000000000000000000000000000060448201526064016103cc565b5080610791565b6008836008811115611459576114596117b1565b14156114b057815160401461143e5760405162461bcd60e51b815260206004820152601160248201527f457870656374656420363420627974657300000000000000000000000000000060448201526064016103cc565b60405162461bcd60e51b815260206004820152601460248201527f556e737570706f72746564206c656e6774686f7000000000000000000000000060448201526064016103cc565b60408051602080825281830190925260609160208201818036833750505060208101929092525090565b60608160015b607f8267ffffffffffffffff1611156115605760078267ffffffffffffffff16901c91506001816115599190612725565b9050611528565b60008167ffffffffffffffff1667ffffffffffffffff81111561158557611585611989565b6040519080825280601f01601f1916602001820160405280156115af576020820181803683370190505b50905084925060005b8267ffffffffffffffff168167ffffffffffffffff16101561164d5783607f1660801760f81b828267ffffffffffffffff16815181106115fa576115fa61253c565b60200101907effffffffffffffffffffffffffffffffffffffffffffffffffffffffffffff1916908160001a90535060078467ffffffffffffffff16901c9350808061164590612748565b9150506115b8565b507f7f000000000000000000000000000000000000000000000000000000000000008161167b600185612770565b67ffffffffffffffff16815181106116955761169561253c565b0160200180519091167fff000000000000000000000000000000000000000000000000000000000000001690600082901a905350949350505050565b60405180608001604052806116e461173c565b81526020016116f161176b565b815260200160008152602001600081525090565b6040518060a00160405280600015158152602001606081526020016060815260200161172f61173c565b8152602001606081525090565b6040805160c081019091526000808252602082019081526020016000815260200160008152602001600061172f565b6040518060c001604052806060815260200160008152602001600081526020016000815260200160608152602001600060058111156117ac576117ac6117b1565b905290565b634e487b7160e01b600052602160045260246000fd5b600681106117d7576117d76117b1565b9052565b60005b838110156117f65781810151838201526020016117de565b83811115611805576000848401525b50505050565b600081518084526118238160208601602086016117db565b601f01601f19169290920160200192915050565b8051151582526000602082015161185160208501826117c7565b50604082015161186460408501826117c7565b50606082015161187760608501826117c7565b5060808201516009811061188d5761188d6117b1565b8060808501525060a082015160c060a085015261111160c085018261180b565b6000602080835283516080828501526118c960a0850182611837565b85830151858203601f19016040870152805160c0808452815190840181905292935090919084019060009060e08501905b8083101561191a57835182529286019260019290920191908601906118fa565b5085840151868601526040840151604086015260608401516060860152608084015195508481036080860152611950818761180b565b955050505060a0810151905061196960a08301826117c7565b505060408401516060840152606084015160808401528091505092915050565b634e487b7160e01b600052604160045260246000fd5b60405160c0810167ffffffffffffffff811182821017156119c2576119c2611989565b60405290565b6040516080810167ffffffffffffffff811182821017156119c2576119c2611989565b60405160a0810167ffffffffffffffff811182821017156119c2576119c2611989565b604051601f8201601f1916810167ffffffffffffffff81118282101715611a3757611a37611989565b604052919050565b600067ffffffffffffffff831115611a5957611a59611989565b611a6c601f8401601f1916602001611a0e565b9050828152838383011115611a8057600080fd5b828260208301376000602084830101529392505050565b600060208284031215611aa957600080fd5b813567ffffffffffffffff811115611ac057600080fd5b8201601f81018413611ad157600080fd5b61111184823560208401611a3f565b80358015158114611af057600080fd5b919050565b600082601f830112611b0657600080fd5b61103283833560208501611a3f565b803560068110611af057600080fd5b600060c08284031215611b3657600080fd5b611b3e61199f565b9050611b4982611ae0565b8152611b5760208301611b15565b6020820152611b6860408301611b15565b6040820152611b7960608301611b15565b6060820152608082013560098110611b9057600080fd5b608082015260a082013567ffffffffffffffff811115611baf57600080fd5b611bbb84828501611af5565b60a08301525092915050565b600067ffffffffffffffff821115611be157611be1611989565b5060051b60200190565b600082601f830112611bfc57600080fd5b81356020611c11611c0c83611bc7565b611a0e565b82815260059290921b84018101918181019086841115611c3057600080fd5b8286015b84811015611cf457803567ffffffffffffffff80821115611c555760008081fd5b908801906080828b03601f1901811315611c6f5760008081fd5b611c776119c8565b611c82888501611ae0565b81526040611c91818601611b15565b8983015260608086013585811115611ca95760008081fd5b611cb78f8c838a0101611af5565b8484015250928501359284841115611cd157600091508182fd5b611cdf8e8b86890101611af5565b90830152508652505050918301918301611c34565b509695505050505050565b600060a08284031215611d1157600080fd5b611d196119eb565b9050611d2482611ae0565b8152602082013567ffffffffffffffff80821115611d4157600080fd5b611d4d85838601611af5565b60208401526040840135915080821115611d6657600080fd5b611d7285838601611af5565b60408401526060840135915080821115611d8b57600080fd5b611d9785838601611b24565b60608401526080840135915080821115611db057600080fd5b50611dbd84828501611beb565b60808301525092915050565b600082601f830112611dda57600080fd5b81356020611dea611c0c83611bc7565b82815260059290921b84018101918181019086841115611e0957600080fd5b8286015b84811015611cf45780358352918301918301611e0d565b600060808284031215611e3657600080fd5b611e3e6119c8565b9050813567ffffffffffffffff80821115611e5857600080fd5b611e6485838601611b24565b83526020840135915080821115611e7a57600080fd5b9083019060c08286031215611e8e57600080fd5b611e9661199f565b823582811115611ea557600080fd5b611eb187828601611dc9565b825250602083013560208201526040830135604082015260608301356060820152608083013582811115611ee457600080fd5b611ef087828601611af5565b608083015250611f0260a08401611b15565b60a0820152806020850152505050604082013560408201526060820135606082015292915050565b600080600080600060a08688031215611f4257600080fd5b853567ffffffffffffffff80821115611f5a57600080fd5b611f6689838a01611cff565b96506020880135915080821115611f7c57600080fd5b611f8889838a01611e24565b95506040880135915080821115611f9e57600080fd5b611faa89838a01611af5565b94506060880135915080821115611fc057600080fd5b611fcc89838a01611af5565b93506080880135915080821115611fe257600080fd5b50611fef88828901611af5565b9150509295509295909350565b600082601f83011261200d57600080fd5b8135602061201d611c0c83611bc7565b82815260059290921b8401810191818101908684111561203c57600080fd5b8286015b84811015611cf457803567ffffffffffffffff8082111561206057600080fd5b818901915089603f83011261207457600080fd5b85820135612084611c0c82611bc7565b81815260059190911b830160400190878101908c8311156120a457600080fd5b604085015b838110156120dd578035858111156120c057600080fd5b6120cf8f6040838a0101611af5565b8452509189019189016120a9565b50875250505092840192508301612040565b60008060008060008060c0878903121561210857600080fd5b863567ffffffffffffffff8082111561212057600080fd5b61212c8a838b01611af5565b9750602089013591508082111561214257600080fd5b61214e8a838b01611af5565b9650604089013591508082111561216457600080fd5b6121708a838b01611af5565b9550606089013591508082111561218657600080fd5b6121928a838b01611dc9565b945060808901359150808211156121a857600080fd5b506121b589828a01611ffc565b92505060a087013590509295509295509295565b60006020808352835115158184015280840151604060a0818601526121f160c086018361180b565b915080860151601f19606081888603018189015261220f858461180b565b945080890151925060808289870301818a015261222c8685611837565b8a8201518a8203850160a08c015280518083529197508801945087870190600581901b8801890160005b828110156122bf57868a830301845287518051151583528b81015161227d8d8501826117c7565b5089810151868b8501526122938785018261180b565b91880151848303858a01529190506122ab818361180b565b998d0199958d019593505050600101612256565b509c9b505050505050505050505050565b6000602082840312156122e257600080fd5b813567ffffffffffffffff8111156122f957600080fd5b61111184828501611af5565b60008060008060008060008060006101208a8c03121561232457600080fd5b893567ffffffffffffffff8082111561233c57600080fd5b6123488d838e01611dc9565b9a5060208c013591508082111561235e57600080fd5b61236a8d838e01611af5565b995060408c013591508082111561238057600080fd5b61238c8d838e01611ffc565b985060608c0135975060808c01359150808211156123a957600080fd5b6123b58d838e01611af5565b965060a08c01359150808211156123cb57600080fd5b6123d78d838e01611af5565b955060c08c01359150808211156123ed57600080fd5b6123f98d838e01611af5565b945060e08c013591508082111561240f57600080fd5b61241b8d838e01611af5565b93506101008c013591508082111561243257600080fd5b5061243f8c828d01611af5565b9150509295985092959850929598565b60008060008060008060c0878903121561246857600080fd5b863567ffffffffffffffff8082111561248057600080fd5b61248c8a838b01611dc9565b975060208901359150808211156124a257600080fd5b6124ae8a838b01611af5565b965060408901359150808211156124c457600080fd5b6124d08a838b01611ffc565b95506060890135945060808901359150808211156124ed57600080fd5b6124f98a838b01611af5565b935060a089013591508082111561250f57600080fd5b5061251c89828a01611af5565b9150509295509295509295565b602081526000611032602083018461180b565b634e487b7160e01b600052603260045260246000fd5b634e487b7160e01b600052601160045260246000fd5b60008282101561257a5761257a612552565b500390565b600181815b808511156125ba5781600019048211156125a0576125a0612552565b808516156125ad57918102915b93841c9390800290612584565b509250929050565b6000826125d157506001610791565b816125de57506000610791565b81600181146125f457600281146125fe5761261a565b6001915050610791565b60ff84111561260f5761260f612552565b50506001821b610791565b5060208310610133831016604e8410600b841016171561263d575081810a610791565b612647838361257f565b806000190482111561265b5761265b612552565b029392505050565b600061103283836125c2565b600081600019048311821515161561268957612689612552565b500290565b600082198211156126a1576126a1612552565b500190565b60006000198214156126ba576126ba612552565b5060010190565b600083516126d38184602088016117db565b8351908301906126e78183602088016117db565b01949350505050565b600082516127028184602087016117db565b9190910192915050565b60006020828403121561271e57600080fd5b5051919050565b600067ffffffffffffffff8083168185168083038211156126e7576126e7612552565b600067ffffffffffffffff8083168181141561276657612766612552565b6001019392505050565b600067ffffffffffffffff8381169083168181101561279157612791612552565b03939250505056fea2646970667358221220322584819f710185694b219205d113d57694c5138216efc782091d2b9451e76264736f6c63430008090033",
  "immutableReferences": {},
  "source": "// SPDX-License-Identifier: MIT\npragma solidity ^0.8.7;\n\nimport \"./ics23.sol\";\n\ncontract AnconVerifier is ICS23 {\n    address public whitelisted;\n\n    constructor(address onlyOwner) public {\n        whitelisted = onlyOwner;\n    }\n\n    //Gotten from https://stackoverflow.com/a/69007075\n    function st2num(string memory numString) public pure returns (uint256) {\n        uint256 val = 0;\n        bytes memory stringBytes = bytes(numString);\n        for (uint256 i = 0; i < stringBytes.length; i++) {\n            uint256 exp = stringBytes.length - i;\n            bytes1 ival = stringBytes[i];\n            uint8 uval = uint8(ival);\n            uint256 jval = uval - uint256(0x30);\n\n            val += (uint256(jval) * (10**(exp - 1)));\n        }\n        return val;\n    }\n\n    function bytes2num(bytes memory numBytes) public pure returns (uint256) {\n        return st2num(string(numBytes));\n    }\n\n    //Separate arguments to not convert from uint 256 to byte\n    function convertProof(\n        bytes memory key,\n        bytes memory value,\n        bytes memory _prefix,\n        uint256[] memory _leafOpUint,\n        bytes[][] memory _innerOp,\n        uint256 existenceProofInnerOpHash\n    ) public pure returns (ExistenceProof memory) {\n        LeafOp memory leafOp = LeafOp(\n            true,\n            HashOp((_leafOpUint[0])),\n            HashOp((_leafOpUint[1])),\n            HashOp((_leafOpUint[2])),\n            LengthOp((_leafOpUint[3])),\n            _prefix\n        );\n\n        // // innerOpArr\n        InnerOp[] memory innerOpArr = new InnerOp[](_innerOp.length);\n\n        for (uint256 i = 0; i < _innerOp.length; i++) {\n            bytes[] memory temp = _innerOp[i];\n            innerOpArr[i] = InnerOp({\n                valid: true,\n                hash: HashOp(existenceProofInnerOpHash),\n                prefix: temp[0],\n                suffix: temp[1]\n            });\n        }\n        ExistenceProof memory proof = ExistenceProof({\n            valid: true,\n            key: key,\n            value: value,\n            leaf: leafOp,\n            path: innerOpArr\n        });\n\n        return proof;\n    }\n\n    function requestRoot(\n        uint256[] memory leafOpUint,\n        bytes memory prefix,\n        bytes[][] memory existenceProofInnerOp,\n        uint256 existenceProofInnerOpHash,\n        bytes memory existenceProofKey,\n        bytes memory existenceProofValue\n    ) public view returns (bytes memory) {\n        require(msg.sender == whitelisted, \"Must be whitelisted or registered\");\n        // todo: verify not empty\n        ExistenceProof memory proof = convertProof(\n            existenceProofKey,\n            existenceProofValue,\n            prefix,\n            leafOpUint,\n            existenceProofInnerOp,\n            existenceProofInnerOpHash\n        );\n        return bytes(calculate(proof));\n    }\n// claimed ics23 proofs\n// key = prefix + cid eg  ancon+cid\n// value = sha256(dagcbor)\n// TODO: Change to verifyRelayMessage\n    function changeOwnerWithProof(\n        uint256[] memory leafOpUint,\n        bytes memory prefix,\n        bytes[][] memory existenceProofInnerOp,\n        uint256 existenceProofInnerOpHash,\n        bytes memory existenceProofKey,\n        bytes memory existenceProofValue,\n        bytes memory root,\n        bytes memory key,\n        bytes memory value\n    ) public pure returns (bool) {\n        // todo: verify not empty\n        ExistenceProof memory proof = convertProof(\n            existenceProofKey,\n            existenceProofValue,\n            prefix,\n            leafOpUint,\n            existenceProofInnerOp,\n            existenceProofInnerOpHash\n        );\n        //        return bytes(calculate(proof));\n        // Verify membership\n\n        verify(proof, getIavlSpec(), root, key, value);\n\n        return true;\n\n        //proof.key = xp.\n\n        // verify permit exists, has not revoked, has valid issuer and is not expired\n        //return this.verifyMembership(iavlSpec, root, xp, key, value);\n        // verify token exists\n        //_lock(vc.data);\n        // _release\n    }\n\n}\n",
  "sourcePath": "/home/rogelio/Code/ancon-protocol/ethereum/contracts/ancon/AnconVerifier.sol",
  "compiler": {
    "name": "solc",
    "version": "0.8.9+commit.e5eed63a.Emscripten.clang"
  },
  "schemaVersion": "3.4.0",
  "updatedAt": "2021-10-29T23:56:50.502Z",
  "devdoc": {
    "kind": "dev",
    "methods": {},
    "version": 1
  },
  "userdoc": {
    "kind": "user",
    "methods": {},
    "version": 1
  }
}