{
  "contractName": "AnconMetadataOwnableBridge",
  "abi": [
    {
      "inputs": [],
      "stateMutability": "nonpayable",
      "type": "constructor"
    },
    {
      "anonymous": false,
      "inputs": [
        {
          "indexed": true,
          "internalType": "address",
          "name": "newOwner",
          "type": "address"
        },
        {
          "indexed": true,
          "internalType": "string",
          "name": "metadataHash",
          "type": "string"
        },
        {
          "indexed": true,
          "internalType": "uint256",
          "name": "tokenId",
          "type": "uint256"
        }
      ],
      "name": "CrossMintCallbackReceived",
      "type": "event"
    },
    {
      "inputs": [
        {
          "components": [
            {
              "internalType": "bytes",
              "name": "key",
              "type": "bytes"
            },
            {
              "internalType": "bytes",
              "name": "value",
              "type": "bytes"
            },
            {
              "components": [
                {
                  "internalType": "enum PROOFS_PROTO_GLOBAL_ENUMS.HashOp",
                  "name": "hash",
                  "type": "uint8"
                },
                {
                  "internalType": "enum PROOFS_PROTO_GLOBAL_ENUMS.HashOp",
                  "name": "prehash_key",
                  "type": "uint8"
                },
                {
                  "internalType": "enum PROOFS_PROTO_GLOBAL_ENUMS.HashOp",
                  "name": "prehash_value",
                  "type": "uint8"
                },
                {
                  "internalType": "enum PROOFS_PROTO_GLOBAL_ENUMS.LengthOp",
                  "name": "length",
                  "type": "uint8"
                },
                {
                  "internalType": "bytes",
                  "name": "prefix",
                  "type": "bytes"
                }
              ],
              "internalType": "struct LeafOp.Data",
              "name": "leaf",
              "type": "tuple"
            },
            {
              "components": [
                {
                  "internalType": "enum PROOFS_PROTO_GLOBAL_ENUMS.HashOp",
                  "name": "hash",
                  "type": "uint8"
                },
                {
                  "internalType": "bytes",
                  "name": "prefix",
                  "type": "bytes"
                },
                {
                  "internalType": "bytes",
                  "name": "suffix",
                  "type": "bytes"
                }
              ],
              "internalType": "struct InnerOp.Data[]",
              "name": "path",
              "type": "tuple[]"
            }
          ],
          "internalType": "struct IBCExistenceProof.Data",
          "name": "testxp",
          "type": "tuple"
        }
      ],
      "name": "convertProof",
      "outputs": [
        {
          "internalType": "bool",
          "name": "",
          "type": "bool"
        }
      ],
      "stateMutability": "nonpayable",
      "type": "function"
    },
    {
      "inputs": [
        {
          "internalType": "bytes",
          "name": "existenceProof",
          "type": "bytes"
        },
        {
          "internalType": "bytes",
          "name": "rootBz",
          "type": "bytes"
        },
        {
          "internalType": "bytes",
          "name": "pathBz",
          "type": "bytes"
        },
        {
          "internalType": "bytes",
          "name": "value",
          "type": "bytes"
        }
      ],
      "name": "changeOwnerWithProof",
      "outputs": [
        {
          "internalType": "bool",
          "name": "",
          "type": "bool"
        }
      ],
      "stateMutability": "nonpayable",
      "type": "function"
    }
  ],
  "bytecode": "0x608060405234801561001057600080fd5b50612829806100206000396000f3fe608060405234801561001057600080fd5b50600436106100365760003560e01c8063446e00b81461003b57806361f324941461006b575b600080fd5b61005560048036038101906100509190612326565b61009b565b604051610062919061238a565b60405180910390f35b610085600480360381019061008091906123a5565b6102dd565b604051610092919061238a565b60405180910390f35b6000806040518060c0016040528060001515815260200184604001516000015160058111156100cd576100cc61247c565b5b60058111156100df576100de61247c565b5b60058111156100f1576100f061247c565b5b815260200184604001516020015160058111156101115761011061247c565b5b60058111156101235761012261247c565b5b60058111156101355761013461247c565b5b815260200184604001516040015160058111156101555761015461247c565b5b60058111156101675761016661247c565b5b60058111156101795761017861247c565b5b815260200184604001516060015160088111156101995761019861247c565b5b60088111156101ab576101aa61247c565b5b60088111156101bd576101bc61247c565b5b8152602001604051806020016040528060008152508152509050606060005b84606001515181101561029a57604051806080016040528060001515815260200186604001516000015160058111156102185761021761247c565b5b600581111561022a5761022961247c565b5b600581111561023c5761023b61247c565b5b81526020016040518060200160405280600081525081526020016040518060200160405280600081525081525082828151811061027c5761027b6124ab565b5b6020026020010181905250808061029290612513565b9150506101dc565b5060006040518060a00160405280600015158152602001866000015181526020018660200151815260200184815260200183815250905060019350505050919050565b60006102e7611d28565b6102f086610309565b90506102fb8161009b565b506001915050949350505050565b610311611d28565b6000610320602084855161032c565b50905080915050919050565b610334611d28565b600061033e611d28565b610346611d56565b6000806000808a905060008b90505b8982610361919061255c565b81101561057357610372818c61082c565b809550819650829750505050828161038a919061255c565b905060018514156103b3576103a1818c8989610881565b816103ac919061255c565b905061056e565b60028514156103da576103c8818c898961093c565b816103d3919061255c565b905061056d565b6003851415610401576103ef818c89896109f7565b816103fa919061255c565b905061056c565b600485141561042f5761041d818c610417610ab2565b89610ac1565b81610428919061255c565b905061056b565b600160058111156104435761044261247c565b5b8460058111156104565761045561247c565b5b141561047e576000610468828d610bbe565b905080915050808261047a919061255c565b9150505b6005808111156104915761049061247c565b5b8460058111156104a4576104a361247c565b5b14156104cc5760006104b6828d610be3565b90508091505080826104c8919061255c565b9150505b600060058111156104e0576104df61247c565b5b8460058111156104f3576104f261247c565b5b141561051b576000610505828d610c08565b9050809150508082610517919061255c565b9150505b6002600581111561052f5761052e61247c565b5b8460058111156105425761054161247c565b5b141561056a576000610554828d610d55565b9050809150508082610566919061255c565b9150505b5b5b5b5b610355565b8190508560046005811061058a576105896124ab565b5b602002015167ffffffffffffffff8111156105a8576105a7611e90565b5b6040519080825280602002602001820160405280156105e157816020015b6105ce611d78565b8152602001906001900390816105c65790505b5087606001819052505b89826105f7919061255c565b81101561081757610608818c61082c565b8095508196508297505050508281610620919061255c565b905060018514156106505761063e818c610638610ab2565b89610881565b81610649919061255c565b9050610812565b600285141561067e5761066c818c610666610ab2565b8961093c565b81610677919061255c565b9050610811565b60038514156106ac5761069a818c610694610ab2565b896109f7565b816106a5919061255c565b9050610810565b60048514156106d3576106c1818c8989610ac1565b816106cc919061255c565b905061080f565b600160058111156106e7576106e661247c565b5b8460058111156106fa576106f961247c565b5b141561072257600061070c828d610bbe565b905080915050808261071e919061255c565b9150505b6005808111156107355761073461247c565b5b8460058111156107485761074761247c565b5b141561077057600061075a828d610be3565b905080915050808261076c919061255c565b9150505b600060058111156107845761078361247c565b5b8460058111156107975761079661247c565b5b14156107bf5760006107a9828d610c08565b90508091505080826107bb919061255c565b9150505b600260058111156107d3576107d261247c565b5b8460058111156107e6576107e561247c565b5b141561080e5760006107f8828d610d55565b905080915050808261080a919061255c565b9150505b5b5b5b5b6105eb565b868a9850985050505050505050935093915050565b600080600080600061083e8787610c08565b91509150600060078316600581111561085a5761085961247c565b5b9050600060088461086b91906125e1565b9050808284965096509650505050509250925092565b60008060006108908787610e2d565b9150915061089d85610e46565b156108d5576001846001600581106108b8576108b76124ab565b5b602002018181516108c9919061255c565b9150818152505061092f565b8185600001819052506000846001600581106108f4576108f36124ab565b5b6020020151111561092e57600184600160058110610915576109146124ab565b5b602002018181516109269190612612565b915081815250505b5b8092505050949350505050565b600080600061094b8787610e2d565b9150915061095885610e46565b1561099057600184600260058110610973576109726124ab565b5b60200201818151610984919061255c565b915081815250506109ea565b8185602001819052506000846002600581106109af576109ae6124ab565b5b602002015111156109e9576001846002600581106109d0576109cf6124ab565b5b602002018181516109e19190612612565b915081815250505b5b8092505050949350505050565b6000806000610a068787610e51565b91509150610a1385610e46565b15610a4b57600184600360058110610a2e57610a2d6124ab565b5b60200201818151610a3f919061255c565b91508181525050610aa5565b818560400181905250600084600360058110610a6a57610a696124ab565b5b60200201511115610aa457600184600360058110610a8b57610a8a6124ab565b5b60200201818151610a9c9190612612565b915081815250505b5b8092505050949350505050565b610aba611d28565b6000905090565b6000806000610ad08787610eaa565b91509150610add85610e46565b15610b1557600184600460058110610af857610af76124ab565b5b60200201818151610b09919061255c565b91508181525050610bb1565b81856060015185600460058110610b2f57610b2e6124ab565b5b6020020151876060015151610b449190612612565b81518110610b5557610b546124ab565b5b6020026020010181905250600084600460058110610b7657610b756124ab565b5b60200201511115610bb057600184600460058110610b9757610b966124ab565b5b60200201818151610ba89190612612565b915081815250505b5b8092505050949350505050565b600080600080610bd086866008610f03565b9150915081819350935050509250929050565b600080600080610bf586866004610f03565b9150915081819350935050509250929050565b600080600080600060208651610c1e919061255c565b9050608087870197505b6080811660801415610d4457600082888a03101415610c99577f08c379a0000000000000000000000000000000000000000000000000000000006000526020600452600f6024527f6c656e677468206f766572666c6f77000000000000000000000000000000000060445260536000fd5b875160005b60208110608084166080141615610d3d576000848a8c03101415610d14577f08c379a0000000000000000000000000000000000000000000000000000000006000526020600452600f6024527f6c656e677468206f766572666c6f77000000000000000000000000000000000060445260536000fd5b81811a925082607f16856007021b8617955060018501945060018101905060018a019950610c9e565b5050610c28565b508282945094505050509250929050565b60606000806000610d668686610c08565b9150915060008267ffffffffffffffff811115610d8657610d85611e90565b5b6040519080825280601f01601f191660200182016040528015610db85781602001600182028036833780820191505090505b509050600060208751610dcb919061255c565b90508084848a610ddb919061255c565b610de5919061255c565b1115610df457610df3612646565b5b600080602084019050848a8a01019150610e0f828288610f76565b838686610e1c919061255c565b975097505050505050509250929050565b60606000610e3b8484610d55565b915091509250929050565b600081159050919050565b610e59611dab565b600080849050600080610e6c8387610c08565b915091508083610e7c919061255c565b92506000610e8b848885610ff5565b509050808284610e9b919061255c565b95509550505050509250929050565b610eb2611d78565b600080849050600080610ec58387610c08565b915091508083610ed5919061255c565b92506000610ee4848885611272565b509050808284610ef4919061255c565b95509550505050509250929050565b60008060008060208651610f17919061255c565b9050808588610f26919061255c565b1115610f3557610f34612646565b5b6000878701975087515b86821015610f645780821a826008021b84179350600189019850600182019150610f3f565b50508185935093505050935093915050565b5b60208110610fb55782518252602082610f90919061255c565b9150602083610f9f919061255c565b9250602081610fae9190612612565b9050610f77565b60006001826020610fc69190612612565b610100610fd391906127a8565b610fdd9190612612565b90508019845116818451168181178552505050505050565b610ffd611dab565b6000611007611dab565b61100f611e22565b6000806000808a905060008b90505b898261102a919061255c565b81101561125d5761103b818c61082c565b8095508196508297505050508281611053919061255c565b9050600185141561107c5761106a818c898961149f565b81611075919061255c565b9050611258565b60028514156110a357611091818c898961158f565b8161109c919061255c565b9050611257565b60038514156110ca576110b8818c898961167f565b816110c3919061255c565b9050611256565b60048514156110f1576110df818c898961176f565b816110ea919061255c565b9050611255565b600585141561111857611106818c898961185f565b81611111919061255c565b9050611254565b6001600581111561112c5761112b61247c565b5b84600581111561113f5761113e61247c565b5b1415611167576000611151828d610bbe565b9050809150508082611163919061255c565b9150505b60058081111561117a5761117961247c565b5b84600581111561118d5761118c61247c565b5b14156111b557600061119f828d610be3565b90508091505080826111b1919061255c565b9150505b600060058111156111c9576111c861247c565b5b8460058111156111dc576111db61247c565b5b14156112045760006111ee828d610c08565b9050809150508082611200919061255c565b9150505b600260058111156112185761121761247c565b5b84600581111561122b5761122a61247c565b5b141561125357600061123d828d610d55565b905080915050808261124f919061255c565b9150505b5b5b5b5b5b61101e565b868a9850985050505050505050935093915050565b61127a611d78565b6000611284611d78565b61128c611e44565b6000806000808a905060008b90505b89826112a7919061255c565b81101561148a576112b8818c61082c565b80955081965082975050505082816112d0919061255c565b905060018514156112f9576112e7818c898961191a565b816112f2919061255c565b9050611485565b60028514156113205761130e818c8989611a0a565b81611319919061255c565b9050611484565b600385141561134757611335818c8989611ac5565b81611340919061255c565b9050611483565b6001600581111561135b5761135a61247c565b5b84600581111561136e5761136d61247c565b5b1415611396576000611380828d610bbe565b9050809150508082611392919061255c565b9150505b6005808111156113a9576113a861247c565b5b8460058111156113bc576113bb61247c565b5b14156113e45760006113ce828d610be3565b90508091505080826113e0919061255c565b9150505b600060058111156113f8576113f761247c565b5b84600581111561140b5761140a61247c565b5b141561143357600061141d828d610c08565b905080915050808261142f919061255c565b9150505b600260058111156114475761144661247c565b5b84600581111561145a5761145961247c565b5b141561148257600061146c828d610d55565b905080915050808261147e919061255c565b9150505b5b5b5b61129b565b868a9850985050505050505050935093915050565b60008060006114ae8787611b80565b9150915060006114bd83611b98565b90506114c886611c21565b15611500576001856001600681106114e3576114e26124ab565b5b602002018181516114f4919061255c565b91508181525050611581565b80866000019060058111156115185761151761247c565b5b9081600581111561152c5761152b61247c565b5b81525050600085600160068110611546576115456124ab565b5b6020020151111561158057600185600160068110611567576115666124ab565b5b602002018181516115789190612612565b915081815250505b5b819350505050949350505050565b600080600061159e8787611b80565b9150915060006115ad83611b98565b90506115b886611c21565b156115f0576001856002600681106115d3576115d26124ab565b5b602002018181516115e4919061255c565b91508181525050611671565b80866020019060058111156116085761160761247c565b5b9081600581111561161c5761161b61247c565b5b81525050600085600260068110611636576116356124ab565b5b6020020151111561167057600185600260068110611657576116566124ab565b5b602002018181516116689190612612565b915081815250505b5b819350505050949350505050565b600080600061168e8787611b80565b91509150600061169d83611b98565b90506116a886611c21565b156116e0576001856003600681106116c3576116c26124ab565b5b602002018181516116d4919061255c565b91508181525050611761565b80866040019060058111156116f8576116f761247c565b5b9081600581111561170c5761170b61247c565b5b81525050600085600360068110611726576117256124ab565b5b6020020151111561176057600185600360068110611747576117466124ab565b5b602002018181516117589190612612565b915081815250505b5b819350505050949350505050565b600080600061177e8787611b80565b91509150600061178d83611c2c565b905061179886611c21565b156117d0576001856004600681106117b3576117b26124ab565b5b602002018181516117c4919061255c565b91508181525050611851565b80866060019060088111156117e8576117e761247c565b5b908160088111156117fc576117fb61247c565b5b81525050600085600460068110611816576118156124ab565b5b6020020151111561185057600185600460068110611837576118366124ab565b5b602002018181516118489190612612565b915081815250505b5b819350505050949350505050565b600080600061186e8787610e2d565b9150915061187b85611c21565b156118b357600184600560068110611896576118956124ab565b5b602002018181516118a7919061255c565b9150818152505061190d565b8185608001819052506000846005600681106118d2576118d16124ab565b5b6020020151111561190c576001846005600681106118f3576118f26124ab565b5b602002018181516119049190612612565b915081815250505b5b8092505050949350505050565b60008060006119298787611b80565b91509150600061193883611b98565b905061194386611cf4565b1561197b5760018560016004811061195e5761195d6124ab565b5b6020020181815161196f919061255c565b915081815250506119fc565b80866000019060058111156119935761199261247c565b5b908160058111156119a7576119a661247c565b5b815250506000856001600481106119c1576119c06124ab565b5b602002015111156119fb576001856001600481106119e2576119e16124ab565b5b602002018181516119f39190612612565b915081815250505b5b819350505050949350505050565b6000806000611a198787610e2d565b91509150611a2685611cf4565b15611a5e57600184600260048110611a4157611a406124ab565b5b60200201818151611a52919061255c565b91508181525050611ab8565b818560200181905250600084600260048110611a7d57611a7c6124ab565b5b60200201511115611ab757600184600260048110611a9e57611a9d6124ab565b5b60200201818151611aaf9190612612565b915081815250505b5b8092505050949350505050565b6000806000611ad48787610e2d565b91509150611ae185611cf4565b15611b1957600184600360048110611afc57611afb6124ab565b5b60200201818151611b0d919061255c565b91508181525050611b73565b818560400181905250600084600360048110611b3857611b376124ab565b5b60200201511115611b7257600184600360048110611b5957611b586124ab565b5b60200201818151611b6a9190612612565b915081815250505b5b8092505050949350505050565b600080611b8d8484611cff565b915091509250929050565b6000808260070b1415611bae5760009050611c1c565b60018260070b1415611bc35760019050611c1c565b60028260070b1415611bd85760029050611c1c565b60038260070b1415611bed5760039050611c1c565b60048260070b1415611c025760049050611c1c565b60058260070b1415611c175760059050611c1c565b600080fd5b919050565b600081159050919050565b6000808260070b1415611c425760009050611cef565b60018260070b1415611c575760019050611cef565b60028260070b1415611c6c5760029050611cef565b60038260070b1415611c815760039050611cef565b60048260070b1415611c965760049050611cef565b60058260070b1415611cab5760059050611cef565b60068260070b1415611cc05760069050611cef565b60078260070b1415611cd55760079050611cef565b60088260070b1415611cea5760089050611cef565b600080fd5b919050565b600081159050919050565b600080600080611d0f8686610c08565b9150915060008290508082945094505050509250929050565b60405180608001604052806060815260200160608152602001611d49611dab565b8152602001606081525090565b6040518060a00160405280600590602082028036833780820191505090505090565b604051806060016040528060006005811115611d9757611d9661247c565b5b815260200160608152602001606081525090565b6040518060a0016040528060006005811115611dca57611dc961247c565b5b815260200160006005811115611de357611de261247c565b5b815260200160006005811115611dfc57611dfb61247c565b5b815260200160006008811115611e1557611e1461247c565b5b8152602001606081525090565b6040518060c00160405280600690602082028036833780820191505090505090565b6040518060800160405280600490602082028036833780820191505090505090565b6000604051905090565b600080fd5b600080fd5b600080fd5b6000601f19601f8301169050919050565b7f4e487b7100000000000000000000000000000000000000000000000000000000600052604160045260246000fd5b611ec882611e7f565b810181811067ffffffffffffffff82111715611ee757611ee6611e90565b5b80604052505050565b6000611efa611e66565b9050611f068282611ebf565b919050565b600080fd5b600080fd5b600080fd5b600067ffffffffffffffff821115611f3557611f34611e90565b5b611f3e82611e7f565b9050602081019050919050565b82818337600083830152505050565b6000611f6d611f6884611f1a565b611ef0565b905082815260208101848484011115611f8957611f88611f15565b5b611f94848285611f4b565b509392505050565b600082601f830112611fb157611fb0611f10565b5b8135611fc1848260208601611f5a565b91505092915050565b60068110611fd757600080fd5b50565b600081359050611fe981611fca565b92915050565b60098110611ffc57600080fd5b50565b60008135905061200e81611fef565b92915050565b600060a0828403121561202a57612029611e7a565b5b61203460a0611ef0565b9050600061204484828501611fda565b600083015250602061205884828501611fda565b602083015250604061206c84828501611fda565b604083015250606061208084828501611fff565b606083015250608082013567ffffffffffffffff8111156120a4576120a3611f0b565b5b6120b084828501611f9c565b60808301525092915050565b600067ffffffffffffffff8211156120d7576120d6611e90565b5b602082029050602081019050919050565b600080fd5b60006060828403121561210357612102611e7a565b5b61210d6060611ef0565b9050600061211d84828501611fda565b600083015250602082013567ffffffffffffffff81111561214157612140611f0b565b5b61214d84828501611f9c565b602083015250604082013567ffffffffffffffff81111561217157612170611f0b565b5b61217d84828501611f9c565b60408301525092915050565b600061219c612197846120bc565b611ef0565b905080838252602082019050602084028301858111156121bf576121be6120e8565b5b835b8181101561220657803567ffffffffffffffff8111156121e4576121e3611f10565b5b8086016121f189826120ed565b855260208501945050506020810190506121c1565b5050509392505050565b600082601f83011261222557612224611f10565b5b8135612235848260208601612189565b91505092915050565b60006080828403121561225457612253611e7a565b5b61225e6080611ef0565b9050600082013567ffffffffffffffff81111561227e5761227d611f0b565b5b61228a84828501611f9c565b600083015250602082013567ffffffffffffffff8111156122ae576122ad611f0b565b5b6122ba84828501611f9c565b602083015250604082013567ffffffffffffffff8111156122de576122dd611f0b565b5b6122ea84828501612014565b604083015250606082013567ffffffffffffffff81111561230e5761230d611f0b565b5b61231a84828501612210565b60608301525092915050565b60006020828403121561233c5761233b611e70565b5b600082013567ffffffffffffffff81111561235a57612359611e75565b5b6123668482850161223e565b91505092915050565b60008115159050919050565b6123848161236f565b82525050565b600060208201905061239f600083018461237b565b92915050565b600080600080608085870312156123bf576123be611e70565b5b600085013567ffffffffffffffff8111156123dd576123dc611e75565b5b6123e987828801611f9c565b945050602085013567ffffffffffffffff81111561240a57612409611e75565b5b61241687828801611f9c565b935050604085013567ffffffffffffffff81111561243757612436611e75565b5b61244387828801611f9c565b925050606085013567ffffffffffffffff81111561246457612463611e75565b5b61247087828801611f9c565b91505092959194509250565b7f4e487b7100000000000000000000000000000000000000000000000000000000600052602160045260246000fd5b7f4e487b7100000000000000000000000000000000000000000000000000000000600052603260045260246000fd5b7f4e487b7100000000000000000000000000000000000000000000000000000000600052601160045260246000fd5b6000819050919050565b600061251e82612509565b91507fffffffffffffffffffffffffffffffffffffffffffffffffffffffffffffffff821415612551576125506124da565b5b600182019050919050565b600061256782612509565b915061257283612509565b9250827fffffffffffffffffffffffffffffffffffffffffffffffffffffffffffffffff038211156125a7576125a66124da565b5b828201905092915050565b7f4e487b7100000000000000000000000000000000000000000000000000000000600052601260045260246000fd5b60006125ec82612509565b91506125f783612509565b925082612607576126066125b2565b5b828204905092915050565b600061261d82612509565b915061262883612509565b92508282101561263b5761263a6124da565b5b828203905092915050565b7f4e487b7100000000000000000000000000000000000000000000000000000000600052600160045260246000fd5b60008160011c9050919050565b6000808291508390505b60018511156126cc578086048111156126a8576126a76124da565b5b60018516156126b75780820291505b80810290506126c585612675565b945061268c565b94509492505050565b6000826126e557600190506127a1565b816126f357600090506127a1565b8160018114612709576002811461271357612742565b60019150506127a1565b60ff841115612725576127246124da565b5b8360020a91508482111561273c5761273b6124da565b5b506127a1565b5060208310610133831016604e8410600b84101617156127775782820a905083811115612772576127716124da565b5b6127a1565b6127848484846001612682565b9250905081840481111561279b5761279a6124da565b5b81810290505b9392505050565b60006127b382612509565b91506127be83612509565b92506127eb7fffffffffffffffffffffffffffffffffffffffffffffffffffffffffffffffff84846126d5565b90509291505056fea2646970667358221220766f635f2eb328cfff8f53b5737fea8bca31b0136bf221bc0f875996869d228164736f6c63430008090033",
  "immutableReferences": {},
  "source": "// SPDX-License-Identifier: MIT\npragma solidity ^0.8.7;\nimport \"./Proofs.sol\";\nimport \"./ics23.sol\";\n\ncontract AnconMetadataOwnableBridge {\n    using ICS23 for ICS23.HashOp;\n    using ICS23 for ICS23.LengthOp;\n    using ICS23 for ICS23.ExistenceProof;\n    using IBCExistenceProof for IBCExistenceProof.Data;\n    event CrossMintCallbackReceived(\n        address indexed newOwner,\n        string indexed metadataHash,\n        uint256 indexed tokenId\n    );\n\n    constructor() public {}\n\n    function convertProof(IBCExistenceProof.Data memory testxp)\n        public\n        returns (bool)\n    {\n        ICS23.LeafOp memory leafOp = ICS23.LeafOp({\n            hash: ICS23.HashOp(uint256(testxp.leaf.hash)),\n            prehash_key: ICS23.HashOp(uint256(testxp.leaf.prehash_key)),\n            prehash_value: ICS23.HashOp(uint256(testxp.leaf.prehash_value)),\n            len: ICS23.LengthOp(uint256(testxp.leaf.length)),\n            valid: false,\n            prefix: bytes(\"\")\n        });\n\n        // innerOpArr\n        ICS23.InnerOp[] memory innerOpArr;\n\n        for (uint256 i = 0; i < testxp.path.length; i++) {\n            innerOpArr[i] = ICS23.InnerOp({\n                valid: false,\n                hash: ICS23.HashOp(uint256(testxp.leaf.hash)),\n                prefix: bytes(\"\"),\n                suffix: bytes(\"\")\n            });\n        }\n        ICS23.ExistenceProof memory proof = ICS23.ExistenceProof({\n            valid: false,\n            key: testxp.key,\n            value: testxp.value,\n            leaf: leafOp,\n            path: innerOpArr\n        });\n\n        return true;\n    }\n\n    /**\n     * changeOwnerWithProof\n     */\n    function changeOwnerWithProof(\n        bytes memory existenceProof,\n        bytes memory rootBz,\n        bytes memory pathBz,\n        bytes memory value\n    ) public returns (bool) {\n        IBCExistenceProof.Data memory exProof;\n        \n        exProof = IBCExistenceProof.decode(existenceProof);\n\n        // IBCExistenceProof.Data memory memoryXp = IBCExistenceProof.Data({\n        //     key: testxp.key,\n        //     value: testxp.value,\n        //     leaf: testxp.leaf,\n        //     path: testxp.path\n        // });\n\n        convertProof(exProof);\n\n        //proof.key = xp.\n\n        // verify permit exists, has not revoked, has valid issuer and is not expired\n        //return this.verifyMembership(iavlSpec, rootBz, xp, pathBz, value);\n        return true;\n        // verify token exists\n        //_lock(vc.data);\n        // _release\n    }\n\n    // function _lock(bytes memory data) internal returns (bool) {\n    //     // ERC721(tokenAddress)\n    //     (\n    //         string memory metadata,\n    //         address to,\n    //         address newOwner,\n    //         address fromOwner,\n    //         address escrowAddress,\n    //         // fromTokenId\n    //         // toTokenId\n    //         uint256 id,\n    //         bool isNew\n    //     ) = abi.decode(\n    //             data,\n    //             (string, address, address, address, address, uint256, bool)\n    //         );\n    //     // FromTokenId verification\n    //     ERC721 nft = ERC721(to);\n    //     require(nft.ownerOf(id) == fromOwner, \"Invalid token id\");\n\n    //     if (isNew) {\n    //         // todo: should mint\n    //     } else {\n    //         // Escrow Address aka Lock\n    //         nft.safeTransferFrom(fromOwner, escrowAddress, id, data);\n    //     }\n\n    //     emit CrossMintCallbackReceived(newOwner, metadata, id);\n\n    //     return true;\n    // }\n}\n",
  "sourcePath": "/home/rogelio/Code/ancon-protocol/ethereum/contracts/ancon/AnconMetadataOwnableBridge.sol",
  "compiler": {
    "name": "solc",
    "version": "0.8.9+commit.e5eed63a.Emscripten.clang"
  },
  "schemaVersion": "3.4.0",
  "updatedAt": "2021-10-18T23:41:34.617Z",
  "networkType": "ethereum",
  "devdoc": {
    "kind": "dev",
    "methods": {},
    "version": 1
  },
  "userdoc": {
    "kind": "user",
    "methods": {
      "changeOwnerWithProof(bytes,bytes,bytes,bytes)": {
        "notice": "changeOwnerWithProof"
      }
    },
    "version": 1
  }
}