{
  "contractName": "AnconVerifier",
  "abi": [
    {
      "inputs": [
        {
          "internalType": "address",
          "name": "onlyOwner",
          "type": "address"
        }
      ],
      "stateMutability": "nonpayable",
      "type": "constructor"
    },
    {
      "inputs": [],
      "name": "getIavlSpec",
      "outputs": [
        {
          "components": [
            {
              "components": [
                {
                  "internalType": "bool",
                  "name": "valid",
                  "type": "bool"
                },
                {
                  "internalType": "enum ICS23.HashOp",
                  "name": "hash",
                  "type": "uint8"
                },
                {
                  "internalType": "enum ICS23.HashOp",
                  "name": "prehash_key",
                  "type": "uint8"
                },
                {
                  "internalType": "enum ICS23.HashOp",
                  "name": "prehash_value",
                  "type": "uint8"
                },
                {
                  "internalType": "enum ICS23.LengthOp",
                  "name": "len",
                  "type": "uint8"
                },
                {
                  "internalType": "bytes",
                  "name": "prefix",
                  "type": "bytes"
                }
              ],
              "internalType": "struct ICS23.LeafOp",
              "name": "leafSpec",
              "type": "tuple"
            },
            {
              "components": [
                {
                  "internalType": "uint256[]",
                  "name": "childOrder",
                  "type": "uint256[]"
                },
                {
                  "internalType": "uint256",
                  "name": "childSize",
                  "type": "uint256"
                },
                {
                  "internalType": "uint256",
                  "name": "minPrefixLength",
                  "type": "uint256"
                },
                {
                  "internalType": "uint256",
                  "name": "maxPrefixLength",
                  "type": "uint256"
                },
                {
                  "internalType": "bytes",
                  "name": "emptyChild",
                  "type": "bytes"
                },
                {
                  "internalType": "enum ICS23.HashOp",
                  "name": "hash",
                  "type": "uint8"
                }
              ],
              "internalType": "struct ICS23.InnerSpec",
              "name": "innerSpec",
              "type": "tuple"
            },
            {
              "internalType": "uint256",
              "name": "maxDepth",
              "type": "uint256"
            },
            {
              "internalType": "uint256",
              "name": "minDepth",
              "type": "uint256"
            }
          ],
          "internalType": "struct ICS23.ProofSpec",
          "name": "",
          "type": "tuple"
        }
      ],
      "stateMutability": "pure",
      "type": "function",
      "constant": true
    },
    {
      "inputs": [
        {
          "components": [
            {
              "internalType": "bool",
              "name": "valid",
              "type": "bool"
            },
            {
              "internalType": "bytes",
              "name": "key",
              "type": "bytes"
            },
            {
              "internalType": "bytes",
              "name": "value",
              "type": "bytes"
            },
            {
              "components": [
                {
                  "internalType": "bool",
                  "name": "valid",
                  "type": "bool"
                },
                {
                  "internalType": "enum ICS23.HashOp",
                  "name": "hash",
                  "type": "uint8"
                },
                {
                  "internalType": "enum ICS23.HashOp",
                  "name": "prehash_key",
                  "type": "uint8"
                },
                {
                  "internalType": "enum ICS23.HashOp",
                  "name": "prehash_value",
                  "type": "uint8"
                },
                {
                  "internalType": "enum ICS23.LengthOp",
                  "name": "len",
                  "type": "uint8"
                },
                {
                  "internalType": "bytes",
                  "name": "prefix",
                  "type": "bytes"
                }
              ],
              "internalType": "struct ICS23.LeafOp",
              "name": "leaf",
              "type": "tuple"
            },
            {
              "components": [
                {
                  "internalType": "bool",
                  "name": "valid",
                  "type": "bool"
                },
                {
                  "internalType": "enum ICS23.HashOp",
                  "name": "hash",
                  "type": "uint8"
                },
                {
                  "internalType": "bytes",
                  "name": "prefix",
                  "type": "bytes"
                },
                {
                  "internalType": "bytes",
                  "name": "suffix",
                  "type": "bytes"
                }
              ],
              "internalType": "struct ICS23.InnerOp[]",
              "name": "path",
              "type": "tuple[]"
            }
          ],
          "internalType": "struct ICS23.ExistenceProof",
          "name": "proof",
          "type": "tuple"
        },
        {
          "components": [
            {
              "components": [
                {
                  "internalType": "bool",
                  "name": "valid",
                  "type": "bool"
                },
                {
                  "internalType": "enum ICS23.HashOp",
                  "name": "hash",
                  "type": "uint8"
                },
                {
                  "internalType": "enum ICS23.HashOp",
                  "name": "prehash_key",
                  "type": "uint8"
                },
                {
                  "internalType": "enum ICS23.HashOp",
                  "name": "prehash_value",
                  "type": "uint8"
                },
                {
                  "internalType": "enum ICS23.LengthOp",
                  "name": "len",
                  "type": "uint8"
                },
                {
                  "internalType": "bytes",
                  "name": "prefix",
                  "type": "bytes"
                }
              ],
              "internalType": "struct ICS23.LeafOp",
              "name": "leafSpec",
              "type": "tuple"
            },
            {
              "components": [
                {
                  "internalType": "uint256[]",
                  "name": "childOrder",
                  "type": "uint256[]"
                },
                {
                  "internalType": "uint256",
                  "name": "childSize",
                  "type": "uint256"
                },
                {
                  "internalType": "uint256",
                  "name": "minPrefixLength",
                  "type": "uint256"
                },
                {
                  "internalType": "uint256",
                  "name": "maxPrefixLength",
                  "type": "uint256"
                },
                {
                  "internalType": "bytes",
                  "name": "emptyChild",
                  "type": "bytes"
                },
                {
                  "internalType": "enum ICS23.HashOp",
                  "name": "hash",
                  "type": "uint8"
                }
              ],
              "internalType": "struct ICS23.InnerSpec",
              "name": "innerSpec",
              "type": "tuple"
            },
            {
              "internalType": "uint256",
              "name": "maxDepth",
              "type": "uint256"
            },
            {
              "internalType": "uint256",
              "name": "minDepth",
              "type": "uint256"
            }
          ],
          "internalType": "struct ICS23.ProofSpec",
          "name": "spec",
          "type": "tuple"
        },
        {
          "internalType": "bytes",
          "name": "root",
          "type": "bytes"
        },
        {
          "internalType": "bytes",
          "name": "key",
          "type": "bytes"
        },
        {
          "internalType": "bytes",
          "name": "value",
          "type": "bytes"
        }
      ],
      "name": "verify",
      "outputs": [],
      "stateMutability": "pure",
      "type": "function",
      "constant": true
    },
    {
      "inputs": [],
      "name": "whitelisted",
      "outputs": [
        {
          "internalType": "address",
          "name": "",
          "type": "address"
        }
      ],
      "stateMutability": "view",
      "type": "function",
      "constant": true
    },
    {
      "inputs": [
        {
          "internalType": "string",
          "name": "numString",
          "type": "string"
        }
      ],
      "name": "st2num",
      "outputs": [
        {
          "internalType": "uint256",
          "name": "",
          "type": "uint256"
        }
      ],
      "stateMutability": "pure",
      "type": "function",
      "constant": true
    },
    {
      "inputs": [
        {
          "internalType": "bytes",
          "name": "numBytes",
          "type": "bytes"
        }
      ],
      "name": "bytes2num",
      "outputs": [
        {
          "internalType": "uint256",
          "name": "",
          "type": "uint256"
        }
      ],
      "stateMutability": "pure",
      "type": "function",
      "constant": true
    },
    {
      "inputs": [
        {
          "internalType": "bytes",
          "name": "key",
          "type": "bytes"
        },
        {
          "internalType": "bytes",
          "name": "value",
          "type": "bytes"
        },
        {
          "internalType": "bytes",
          "name": "_prefix",
          "type": "bytes"
        },
        {
          "internalType": "uint256[]",
          "name": "_leafOpUint",
          "type": "uint256[]"
        },
        {
          "internalType": "bytes[][]",
          "name": "_innerOp",
          "type": "bytes[][]"
        },
        {
          "internalType": "uint256",
          "name": "existenceProofInnerOpHash",
          "type": "uint256"
        }
      ],
      "name": "convertProof",
      "outputs": [
        {
          "components": [
            {
              "internalType": "bool",
              "name": "valid",
              "type": "bool"
            },
            {
              "internalType": "bytes",
              "name": "key",
              "type": "bytes"
            },
            {
              "internalType": "bytes",
              "name": "value",
              "type": "bytes"
            },
            {
              "components": [
                {
                  "internalType": "bool",
                  "name": "valid",
                  "type": "bool"
                },
                {
                  "internalType": "enum ICS23.HashOp",
                  "name": "hash",
                  "type": "uint8"
                },
                {
                  "internalType": "enum ICS23.HashOp",
                  "name": "prehash_key",
                  "type": "uint8"
                },
                {
                  "internalType": "enum ICS23.HashOp",
                  "name": "prehash_value",
                  "type": "uint8"
                },
                {
                  "internalType": "enum ICS23.LengthOp",
                  "name": "len",
                  "type": "uint8"
                },
                {
                  "internalType": "bytes",
                  "name": "prefix",
                  "type": "bytes"
                }
              ],
              "internalType": "struct ICS23.LeafOp",
              "name": "leaf",
              "type": "tuple"
            },
            {
              "components": [
                {
                  "internalType": "bool",
                  "name": "valid",
                  "type": "bool"
                },
                {
                  "internalType": "enum ICS23.HashOp",
                  "name": "hash",
                  "type": "uint8"
                },
                {
                  "internalType": "bytes",
                  "name": "prefix",
                  "type": "bytes"
                },
                {
                  "internalType": "bytes",
                  "name": "suffix",
                  "type": "bytes"
                }
              ],
              "internalType": "struct ICS23.InnerOp[]",
              "name": "path",
              "type": "tuple[]"
            }
          ],
          "internalType": "struct ICS23.ExistenceProof",
          "name": "",
          "type": "tuple"
        }
      ],
      "stateMutability": "pure",
      "type": "function",
      "constant": true
    },
    {
      "inputs": [
        {
          "internalType": "uint256[]",
          "name": "leafOpUint",
          "type": "uint256[]"
        },
        {
          "internalType": "bytes",
          "name": "prefix",
          "type": "bytes"
        },
        {
          "internalType": "bytes[][]",
          "name": "existenceProofInnerOp",
          "type": "bytes[][]"
        },
        {
          "internalType": "uint256",
          "name": "existenceProofInnerOpHash",
          "type": "uint256"
        },
        {
          "internalType": "bytes",
          "name": "existenceProofKey",
          "type": "bytes"
        },
        {
          "internalType": "bytes",
          "name": "existenceProofValue",
          "type": "bytes"
        }
      ],
      "name": "requestRoot",
      "outputs": [
        {
          "internalType": "bytes",
          "name": "",
          "type": "bytes"
        }
      ],
      "stateMutability": "view",
      "type": "function",
      "constant": true
    },
    {
      "inputs": [
        {
          "internalType": "uint256[]",
          "name": "leafOpUint",
          "type": "uint256[]"
        },
        {
          "internalType": "bytes",
          "name": "prefix",
          "type": "bytes"
        },
        {
          "internalType": "bytes[][]",
          "name": "existenceProofInnerOp",
          "type": "bytes[][]"
        },
        {
          "internalType": "uint256",
          "name": "existenceProofInnerOpHash",
          "type": "uint256"
        },
        {
          "internalType": "bytes",
          "name": "existenceProofKey",
          "type": "bytes"
        },
        {
          "internalType": "bytes",
          "name": "existenceProofValue",
          "type": "bytes"
        },
        {
          "internalType": "bytes",
          "name": "root",
          "type": "bytes"
        },
        {
          "internalType": "bytes",
          "name": "key",
          "type": "bytes"
        },
        {
          "internalType": "bytes",
          "name": "value",
          "type": "bytes"
        }
      ],
      "name": "changeOwnerWithProof",
      "outputs": [
        {
          "internalType": "bool",
          "name": "",
          "type": "bool"
        }
      ],
      "stateMutability": "pure",
      "type": "function",
      "constant": true
    }
  ],
  "bytecode": "0x60806040523480156200001157600080fd5b5060405162003e1c38038062003e1c8339818101604052810190620000379190620000e8565b806000806101000a81548173ffffffffffffffffffffffffffffffffffffffff021916908373ffffffffffffffffffffffffffffffffffffffff160217905550506200011a565b600080fd5b600073ffffffffffffffffffffffffffffffffffffffff82169050919050565b6000620000b08262000083565b9050919050565b620000c281620000a3565b8114620000ce57600080fd5b50565b600081519050620000e281620000b7565b92915050565b6000602082840312156200010157620001006200007e565b5b60006200011184828501620000d1565b91505092915050565b613cf2806200012a6000396000f3fe608060405234801561001057600080fd5b50600436106100885760003560e01c8063b94063601161005b578063b940636014610115578063e6aa73d614610145578063eb044b3814610175578063edce7cdc146101a557610088565b806327dcd78c1461008d5780633d9287fa146100ab57806379cd9055146100c9578063b0d264e7146100f9575b600080fd5b6100956101d5565b6040516100a29190611d1e565b60405180910390f35b6100b3610373565b6040516100c09190611d81565b60405180910390f35b6100e360048036038101906100de9190611ee5565b610397565b6040516100f09190611f3d565b60405180910390f35b610113600480360381019061010e919061263e565b610451565b005b61012f600480360381019061012a9190612907565b61054d565b60405161013c9190612bd7565b60405180910390f35b61015f600480360381019061015a9190612bf9565b6107f8565b60405161016c9190611f3d565b60405180910390f35b61018f600480360381019061018a9190612c42565b61080a565b60405161019c9190612dfb565b60405180910390f35b6101bf60048036038101906101ba9190612e16565b610843565b6040516101cc9190612f79565b60405180910390f35b6101dd6117f1565b6101e56117f1565b6000600267ffffffffffffffff81111561020257610201611dba565b5b6040519080825280602002602001820160405280156102305781602001602082028036833780820191505090505b50905060008160008151811061024957610248612f9b565b5b60200260200101818152505060018160018151811061026b5761026a612f9b565b5b6020026020010181815250506040518060c001604052806001151581526020016001600581111561029f5761029e61197b565b5b8152602001600060058111156102b8576102b761197b565b5b8152602001600160058111156102d1576102d061197b565b5b8152602001600160088111156102ea576102e961197b565b5b8152602001604051806040016040528060018152602001600081525081525082600001819052506040518060c001604052808281526020016021815260200160048152602001600c8152602001604051806020016040528060008152508152602001600160058111156103605761035f61197b565b5b8152508260200181905250819250505090565b60008054906101000a900473ffffffffffffffffffffffffffffffffffffffff1681565b60008060009050600083905060005b81518110156104465760008183516103be9190612ff9565b905060008383815181106103d5576103d4612f9b565b5b602001015160f81c60f81b905060008160f81c9050600060308260ff166103fc9190612ff9565b905060018461040b9190612ff9565b600a6104179190613160565b8161042291906131ab565b8761042d9190613205565b965050505050808061043e9061325b565b9150506103a6565b508192505050919050565b61045b85856108fb565b610469856020015183610a0f565b6104a8576040517f08c379a000000000000000000000000000000000000000000000000000000000815260040161049f90613301565b60405180910390fd5b6104b6856040015182610a0f565b6104f5576040517f08c379a00000000000000000000000000000000000000000000000000000000081526004016104ec90613393565b60405180910390fd5b61050761050186610a49565b84610a0f565b610546576040517f08c379a000000000000000000000000000000000000000000000000000000000815260040161053d90613425565b60405180910390fd5b5050505050565b610555611825565b60006040518060c001604052806001151581526020018660008151811061057f5761057e612f9b565b5b602002602001015160058111156105995761059861197b565b5b60058111156105ab576105aa61197b565b5b8152602001866001815181106105c4576105c3612f9b565b5b602002602001015160058111156105de576105dd61197b565b5b60058111156105f0576105ef61197b565b5b81526020018660028151811061060957610608612f9b565b5b602002602001015160058111156106235761062261197b565b5b60058111156106355761063461197b565b5b81526020018660038151811061064e5761064d612f9b565b5b602002602001015160088111156106685761066761197b565b5b600881111561067a5761067961197b565b5b81526020018781525090506000845167ffffffffffffffff8111156106a2576106a1611dba565b5b6040519080825280602002602001820160405280156106db57816020015b6106c861185c565b8152602001906001900390816106c05790505b50905060005b85518110156107b95760008682815181106106ff576106fe612f9b565b5b6020026020010151905060405180608001604052806001151581526020018760058111156107305761072f61197b565b5b60058111156107425761074161197b565b5b81526020018260008151811061075b5761075a612f9b565b5b602002602001015181526020018260018151811061077c5761077b612f9b565b5b602002602001015181525083838151811061079a57610799612f9b565b5b60200260200101819052505080806107b19061325b565b9150506106e1565b5060006040518060a001604052806001151581526020018b81526020018a81526020018481526020018381525090508093505050509695505050505050565b600061080382610397565b9050919050565b60008061081b87878c8e8d8d61054d565b9050610831816108296101d5565b878787610451565b60019150509998505050505050505050565b606060008054906101000a900473ffffffffffffffffffffffffffffffffffffffff1673ffffffffffffffffffffffffffffffffffffffff163373ffffffffffffffffffffffffffffffffffffffff16146108d3576040517f08c379a00000000000000000000000000000000000000000000000000000000081526004016108ca906134b7565b60405180910390fd5b60006108e38484898b8a8a61054d565b90506108ee81610a49565b9150509695505050505050565b610909826060015182610abd565b6000816060015114806109255750806060015182608001515110155b610964576040517f08c379a000000000000000000000000000000000000000000000000000000000815260040161095b90613523565b60405180910390fd5b6000816040015114806109805750806040015182608001515110155b6109bf576040517f08c379a00000000000000000000000000000000000000000000000000000000081526004016109b690613523565b60405180910390fd5b60005b826080015151811015610a0a576109f7836080015182815181106109e9576109e8612f9b565b5b602002602001015183610cde565b8080610a029061325b565b9150506109c2565b505050565b60008151835114610a235760009050610a43565b600080602085019150602084019050610a3e82828751610e83565b925050505b92915050565b60606000610a64836060015184602001518560400151610e95565b905060005b836080015151811015610ab357610a9e84608001518281518110610a9057610a8f612f9b565b5b602002602001015183610fa6565b91508080610aab9061325b565b915050610a69565b5080915050919050565b8060000151602001516005811115610ad857610ad761197b565b5b82602001516005811115610aef57610aee61197b565b5b14610b2f576040517f08c379a0000000000000000000000000000000000000000000000000000000008152600401610b269061358f565b60405180910390fd5b8060000151604001516005811115610b4a57610b4961197b565b5b82604001516005811115610b6157610b6061197b565b5b14610ba1576040517f08c379a0000000000000000000000000000000000000000000000000000000008152600401610b98906135fb565b60405180910390fd5b8060000151606001516005811115610bbc57610bbb61197b565b5b82606001516005811115610bd357610bd261197b565b5b14610c13576040517f08c379a0000000000000000000000000000000000000000000000000000000008152600401610c0a906135fb565b60405180910390fd5b8060000151608001516008811115610c2e57610c2d61197b565b5b82608001516008811115610c4557610c4461197b565b5b14610c85576040517f08c379a0000000000000000000000000000000000000000000000000000000008152600401610c7c90613667565b60405180910390fd5b610c9b8260a00151826000015160a0015161104c565b610cda576040517f08c379a0000000000000000000000000000000000000000000000000000000008152600401610cd1906136d3565b60405180910390fd5b5050565b8060000151602001516005811115610cf957610cf861197b565b5b82602001516005811115610d1057610d0f61197b565b5b14610d50576040517f08c379a0000000000000000000000000000000000000000000000000000000008152600401610d479061358f565b60405180910390fd5b610d668260400151826000015160a0015161104c565b15610da6576040517f08c379a0000000000000000000000000000000000000000000000000000000008152600401610d9d9061373f565b60405180910390fd5b8060200151604001518260400151511015610df6576040517f08c379a0000000000000000000000000000000000000000000000000000000008152600401610ded906137ab565b60405180910390fd5b6000816020015160200151600183602001516000015151610e179190612ff9565b610e2191906131ab565b905080826020015160600151610e379190613205565b8360400151511115610e7e576040517f08c379a0000000000000000000000000000000000000000000000000000000008152600401610e75906137ab565b60405180910390fd5b505050565b60008183208285201490509392505050565b60606000835111610edb576040517f08c379a0000000000000000000000000000000000000000000000000000000008152600401610ed290613817565b60405180910390fd5b6000825111610f1f576040517f08c379a0000000000000000000000000000000000000000000000000000000008152600401610f1690613883565b60405180910390fd5b60008460a00151610f39866040015187608001518761111b565b604051602001610f4a9291906138df565b604051602081830303815290604052610f6c866060015187608001518661111b565b604051602001610f7d9291906138df565b6040516020818303038152906040529050610f9c856020015182611139565b9150509392505050565b60606000825111610fec576040517f08c379a0000000000000000000000000000000000000000000000000000000008152600401610fe39061394f565b60405180910390fd5b611044836020015184604001518460405160200161100b9291906138df565b60405160208183030381529060405285606001516040516020016110309291906138df565b604051602081830303815290604052611139565b905092915050565b60008151835110156110615760009050611115565b60005b825181101561110f578281815181106110805761107f612f9b565b5b602001015160f81c60f81b7effffffffffffffffffffffffffffffffffffffffffffffffffffffffffffff19168482815181106110c0576110bf612f9b565b5b602001015160f81c60f81b7effffffffffffffffffffffffffffffffffffffffffffffffffffffffffffff1916146110fc576000915050611115565b80806111079061325b565b915050611064565b50600190505b92915050565b60606111308361112b86856113d0565b61141a565b90509392505050565b60606001600581111561114f5761114e61197b565b5b8360058111156111625761116161197b565b5b14156111c7576111c060028360405161117b919061396f565b602060405180830381855afa158015611198573d6000803e3d6000fd5b5050506040513d601f19601f820116820180604052508101906111bb91906139bc565b6115e2565b90506113ca565b600260058111156111db576111da61197b565b5b8360058111156111ee576111ed61197b565b5b141561122f576040517f08c379a000000000000000000000000000000000000000000000000000000000815260040161122690613a35565b60405180910390fd5b600460058111156112435761124261197b565b5b8360058111156112565761125561197b565b5b14156112b1576112aa60038360405161126f919061396f565b602060405180830381855afa15801561128c573d6000803e3d6000fd5b5050506040515160601b6bffffffffffffffffffffffff19166115e2565b90506113ca565b6005808111156112c4576112c361197b565b5b8360058111156112d7576112d661197b565b5b141561138f5760006002836040516112ef919061396f565b602060405180830381855afa15801561130c573d6000803e3d6000fd5b5050506040513d601f19601f8201168201806040525081019061132f91906139bc565b9050611387600361133f836115e2565b60405161134c919061396f565b602060405180830381855afa158015611369573d6000803e3d6000fd5b5050506040515160601b6bffffffffffffffffffffffff19166115e2565b9150506113ca565b6040517f08c379a00000000000000000000000000000000000000000000000000000000081526004016113c190613aa1565b60405180910390fd5b92915050565b6060600060058111156113e6576113e561197b565b5b8360058111156113f9576113f861197b565b5b141561140757819050611414565b6114118383611139565b90505b92915050565b6060600060088111156114305761142f61197b565b5b8360088111156114435761144261197b565b5b1415611451578190506115dc565b600160088111156114655761146461197b565b5b8360088111156114785761147761197b565b5b14156114b057611488825161163f565b8260405160200161149a9291906138df565b60405160208183030381529060405290506115dc565b600760088111156114c4576114c361197b565b5b8360088111156114d7576114d661197b565b5b1415611529576020825114611521576040517f08c379a000000000000000000000000000000000000000000000000000000000815260040161151890613b0d565b60405180910390fd5b8190506115dc565b60088081111561153c5761153b61197b565b5b83600881111561154f5761154e61197b565b5b14156115a1576040825114611599576040517f08c379a000000000000000000000000000000000000000000000000000000000815260040161159090613b79565b60405180910390fd5b8190506115dc565b6040517f08c379a00000000000000000000000000000000000000000000000000000000081526004016115d390613be5565b60405180910390fd5b92915050565b6060602067ffffffffffffffff8111156115ff576115fe611dba565b5b6040519080825280601f01601f1916602001820160405280156116315781602001600182028036833780820191505090505b509050816020820152919050565b606060008290506000600190505b607f8267ffffffffffffffff1611156116855760078267ffffffffffffffff16901c915060018161167e9190613c19565b905061164d565b60008167ffffffffffffffff1667ffffffffffffffff8111156116ab576116aa611dba565b5b6040519080825280601f01601f1916602001820160405280156116dd5781602001600182028036833780820191505090505b50905084925060005b8267ffffffffffffffff168167ffffffffffffffff16101561177c57607f841660801760f81b828267ffffffffffffffff168151811061172957611728612f9b565b5b60200101907effffffffffffffffffffffffffffffffffffffffffffffffffffffffffffff1916908160001a90535060078467ffffffffffffffff16901c9350808061177490613c57565b9150506116e6565b50607f60f81b816001846117909190613c88565b67ffffffffffffffff16815181106117ab576117aa612f9b565b5b6020010181815160f81c60f81b169150907effffffffffffffffffffffffffffffffffffffffffffffffffffffffffffff1916908160001a905350809350505050919050565b6040518060800160405280611804611898565b8152602001611811611918565b815260200160008152602001600081525090565b6040518060a00160405280600015158152602001606081526020016060815260200161184f611898565b8152602001606081525090565b6040518060800160405280600015158152602001600060058111156118845761188361197b565b5b815260200160608152602001606081525090565b6040518060c00160405280600015158152602001600060058111156118c0576118bf61197b565b5b8152602001600060058111156118d9576118d861197b565b5b8152602001600060058111156118f2576118f161197b565b5b81526020016000600881111561190b5761190a61197b565b5b8152602001606081525090565b6040518060c0016040528060608152602001600081526020016000815260200160008152602001606081526020016000600581111561195a5761195961197b565b5b81525090565b60008115159050919050565b61197581611960565b82525050565b7f4e487b7100000000000000000000000000000000000000000000000000000000600052602160045260246000fd5b600681106119bb576119ba61197b565b5b50565b60008190506119cc826119aa565b919050565b60006119dc826119be565b9050919050565b6119ec816119d1565b82525050565b60098110611a0357611a0261197b565b5b50565b6000819050611a14826119f2565b919050565b6000611a2482611a06565b9050919050565b611a3481611a19565b82525050565b600081519050919050565b600082825260208201905092915050565b60005b83811015611a74578082015181840152602081019050611a59565b83811115611a83576000848401525b50505050565b6000601f19601f8301169050919050565b6000611aa582611a3a565b611aaf8185611a45565b9350611abf818560208601611a56565b611ac881611a89565b840191505092915050565b600060c083016000830151611aeb600086018261196c565b506020830151611afe60208601826119e3565b506040830151611b1160408601826119e3565b506060830151611b2460608601826119e3565b506080830151611b376080860182611a2b565b5060a083015184820360a0860152611b4f8282611a9a565b9150508091505092915050565b600081519050919050565b600082825260208201905092915050565b6000819050602082019050919050565b6000819050919050565b611b9b81611b88565b82525050565b6000611bad8383611b92565b60208301905092915050565b6000602082019050919050565b6000611bd182611b5c565b611bdb8185611b67565b9350611be683611b78565b8060005b83811015611c17578151611bfe8882611ba1565b9750611c0983611bb9565b925050600181019050611bea565b5085935050505092915050565b600060c0830160008301518482036000860152611c418282611bc6565b9150506020830151611c566020860182611b92565b506040830151611c696040860182611b92565b506060830151611c7c6060860182611b92565b5060808301518482036080860152611c948282611a9a565b91505060a0830151611ca960a08601826119e3565b508091505092915050565b60006080830160008301518482036000860152611cd18282611ad3565b91505060208301518482036020860152611ceb8282611c24565b9150506040830151611d006040860182611b92565b506060830151611d136060860182611b92565b508091505092915050565b60006020820190508181036000830152611d388184611cb4565b905092915050565b600073ffffffffffffffffffffffffffffffffffffffff82169050919050565b6000611d6b82611d40565b9050919050565b611d7b81611d60565b82525050565b6000602082019050611d966000830184611d72565b92915050565b6000604051905090565b600080fd5b600080fd5b600080fd5b600080fd5b7f4e487b7100000000000000000000000000000000000000000000000000000000600052604160045260246000fd5b611df282611a89565b810181811067ffffffffffffffff82111715611e1157611e10611dba565b5b80604052505050565b6000611e24611d9c565b9050611e308282611de9565b919050565b600067ffffffffffffffff821115611e5057611e4f611dba565b5b611e5982611a89565b9050602081019050919050565b82818337600083830152505050565b6000611e88611e8384611e35565b611e1a565b905082815260208101848484011115611ea457611ea3611db5565b5b611eaf848285611e66565b509392505050565b600082601f830112611ecc57611ecb611db0565b5b8135611edc848260208601611e75565b91505092915050565b600060208284031215611efb57611efa611da6565b5b600082013567ffffffffffffffff811115611f1957611f18611dab565b5b611f2584828501611eb7565b91505092915050565b611f3781611b88565b82525050565b6000602082019050611f526000830184611f2e565b92915050565b600080fd5b600080fd5b611f6b81611960565b8114611f7657600080fd5b50565b600081359050611f8881611f62565b92915050565b600067ffffffffffffffff821115611fa957611fa8611dba565b5b611fb282611a89565b9050602081019050919050565b6000611fd2611fcd84611f8e565b611e1a565b905082815260208101848484011115611fee57611fed611db5565b5b611ff9848285611e66565b509392505050565b600082601f83011261201657612015611db0565b5b8135612026848260208601611fbf565b91505092915050565b6006811061203c57600080fd5b50565b60008135905061204e8161202f565b92915050565b6009811061206157600080fd5b50565b60008135905061207381612054565b92915050565b600060c0828403121561208f5761208e611f58565b5b61209960c0611e1a565b905060006120a984828501611f79565b60008301525060206120bd8482850161203f565b60208301525060406120d18482850161203f565b60408301525060606120e58482850161203f565b60608301525060806120f984828501612064565b60808301525060a082013567ffffffffffffffff81111561211d5761211c611f5d565b5b61212984828501612001565b60a08301525092915050565b600067ffffffffffffffff8211156121505761214f611dba565b5b602082029050602081019050919050565b600080fd5b60006080828403121561217c5761217b611f58565b5b6121866080611e1a565b9050600061219684828501611f79565b60008301525060206121aa8482850161203f565b602083015250604082013567ffffffffffffffff8111156121ce576121cd611f5d565b5b6121da84828501612001565b604083015250606082013567ffffffffffffffff8111156121fe576121fd611f5d565b5b61220a84828501612001565b60608301525092915050565b600061222961222484612135565b611e1a565b9050808382526020820190506020840283018581111561224c5761224b612161565b5b835b8181101561229357803567ffffffffffffffff81111561227157612270611db0565b5b80860161227e8982612166565b8552602085019450505060208101905061224e565b5050509392505050565b600082601f8301126122b2576122b1611db0565b5b81356122c2848260208601612216565b91505092915050565b600060a082840312156122e1576122e0611f58565b5b6122eb60a0611e1a565b905060006122fb84828501611f79565b600083015250602082013567ffffffffffffffff81111561231f5761231e611f5d565b5b61232b84828501612001565b602083015250604082013567ffffffffffffffff81111561234f5761234e611f5d565b5b61235b84828501612001565b604083015250606082013567ffffffffffffffff81111561237f5761237e611f5d565b5b61238b84828501612079565b606083015250608082013567ffffffffffffffff8111156123af576123ae611f5d565b5b6123bb8482850161229d565b60808301525092915050565b600067ffffffffffffffff8211156123e2576123e1611dba565b5b602082029050602081019050919050565b6123fc81611b88565b811461240757600080fd5b50565b600081359050612419816123f3565b92915050565b600061243261242d846123c7565b611e1a565b9050808382526020820190506020840283018581111561245557612454612161565b5b835b8181101561247e578061246a888261240a565b845260208401935050602081019050612457565b5050509392505050565b600082601f83011261249d5761249c611db0565b5b81356124ad84826020860161241f565b91505092915050565b600060c082840312156124cc576124cb611f58565b5b6124d660c0611e1a565b9050600082013567ffffffffffffffff8111156124f6576124f5611f5d565b5b61250284828501612488565b60008301525060206125168482850161240a565b602083015250604061252a8482850161240a565b604083015250606061253e8482850161240a565b606083015250608082013567ffffffffffffffff81111561256257612561611f5d565b5b61256e84828501612001565b60808301525060a06125828482850161203f565b60a08301525092915050565b6000608082840312156125a4576125a3611f58565b5b6125ae6080611e1a565b9050600082013567ffffffffffffffff8111156125ce576125cd611f5d565b5b6125da84828501612079565b600083015250602082013567ffffffffffffffff8111156125fe576125fd611f5d565b5b61260a848285016124b6565b602083015250604061261e8482850161240a565b60408301525060606126328482850161240a565b60608301525092915050565b600080600080600060a0868803121561265a57612659611da6565b5b600086013567ffffffffffffffff81111561267857612677611dab565b5b612684888289016122cb565b955050602086013567ffffffffffffffff8111156126a5576126a4611dab565b5b6126b18882890161258e565b945050604086013567ffffffffffffffff8111156126d2576126d1611dab565b5b6126de88828901612001565b935050606086013567ffffffffffffffff8111156126ff576126fe611dab565b5b61270b88828901612001565b925050608086013567ffffffffffffffff81111561272c5761272b611dab565b5b61273888828901612001565b9150509295509295909350565b600067ffffffffffffffff8211156127605761275f611dba565b5b602082029050602081019050919050565b600067ffffffffffffffff82111561278c5761278b611dba565b5b602082029050602081019050919050565b60006127b06127ab84612771565b611e1a565b905080838252602082019050602084028301858111156127d3576127d2612161565b5b835b8181101561281a57803567ffffffffffffffff8111156127f8576127f7611db0565b5b8086016128058982612001565b855260208501945050506020810190506127d5565b5050509392505050565b600082601f83011261283957612838611db0565b5b813561284984826020860161279d565b91505092915050565b600061286561286084612745565b611e1a565b9050808382526020820190506020840283018581111561288857612887612161565b5b835b818110156128cf57803567ffffffffffffffff8111156128ad576128ac611db0565b5b8086016128ba8982612824565b8552602085019450505060208101905061288a565b5050509392505050565b600082601f8301126128ee576128ed611db0565b5b81356128fe848260208601612852565b91505092915050565b60008060008060008060c0878903121561292457612923611da6565b5b600087013567ffffffffffffffff81111561294257612941611dab565b5b61294e89828a01612001565b965050602087013567ffffffffffffffff81111561296f5761296e611dab565b5b61297b89828a01612001565b955050604087013567ffffffffffffffff81111561299c5761299b611dab565b5b6129a889828a01612001565b945050606087013567ffffffffffffffff8111156129c9576129c8611dab565b5b6129d589828a01612488565b935050608087013567ffffffffffffffff8111156129f6576129f5611dab565b5b612a0289828a016128d9565b92505060a0612a1389828a0161240a565b9150509295509295509295565b600081519050919050565b600082825260208201905092915050565b6000819050602082019050919050565b6000608083016000830151612a64600086018261196c565b506020830151612a7760208601826119e3565b5060408301518482036040860152612a8f8282611a9a565b91505060608301518482036060860152612aa98282611a9a565b9150508091505092915050565b6000612ac28383612a4c565b905092915050565b6000602082019050919050565b6000612ae282612a20565b612aec8185612a2b565b935083602082028501612afe85612a3c565b8060005b85811015612b3a5784840389528151612b1b8582612ab6565b9450612b2683612aca565b925060208a01995050600181019050612b02565b50829750879550505050505092915050565b600060a083016000830151612b64600086018261196c565b5060208301518482036020860152612b7c8282611a9a565b91505060408301518482036040860152612b968282611a9a565b91505060608301518482036060860152612bb08282611ad3565b91505060808301518482036080860152612bca8282612ad7565b9150508091505092915050565b60006020820190508181036000830152612bf18184612b4c565b905092915050565b600060208284031215612c0f57612c0e611da6565b5b600082013567ffffffffffffffff811115612c2d57612c2c611dab565b5b612c3984828501612001565b91505092915050565b60008060008060008060008060006101208a8c031215612c6557612c64611da6565b5b60008a013567ffffffffffffffff811115612c8357612c82611dab565b5b612c8f8c828d01612488565b99505060208a013567ffffffffffffffff811115612cb057612caf611dab565b5b612cbc8c828d01612001565b98505060408a013567ffffffffffffffff811115612cdd57612cdc611dab565b5b612ce98c828d016128d9565b9750506060612cfa8c828d0161240a565b96505060808a013567ffffffffffffffff811115612d1b57612d1a611dab565b5b612d278c828d01612001565b95505060a08a013567ffffffffffffffff811115612d4857612d47611dab565b5b612d548c828d01612001565b94505060c08a013567ffffffffffffffff811115612d7557612d74611dab565b5b612d818c828d01612001565b93505060e08a013567ffffffffffffffff811115612da257612da1611dab565b5b612dae8c828d01612001565b9250506101008a013567ffffffffffffffff811115612dd057612dcf611dab565b5b612ddc8c828d01612001565b9150509295985092959850929598565b612df581611960565b82525050565b6000602082019050612e106000830184612dec565b92915050565b60008060008060008060c08789031215612e3357612e32611da6565b5b600087013567ffffffffffffffff811115612e5157612e50611dab565b5b612e5d89828a01612488565b965050602087013567ffffffffffffffff811115612e7e57612e7d611dab565b5b612e8a89828a01612001565b955050604087013567ffffffffffffffff811115612eab57612eaa611dab565b5b612eb789828a016128d9565b9450506060612ec889828a0161240a565b935050608087013567ffffffffffffffff811115612ee957612ee8611dab565b5b612ef589828a01612001565b92505060a087013567ffffffffffffffff811115612f1657612f15611dab565b5b612f2289828a01612001565b9150509295509295509295565b600082825260208201905092915050565b6000612f4b82611a3a565b612f558185612f2f565b9350612f65818560208601611a56565b612f6e81611a89565b840191505092915050565b60006020820190508181036000830152612f938184612f40565b905092915050565b7f4e487b7100000000000000000000000000000000000000000000000000000000600052603260045260246000fd5b7f4e487b7100000000000000000000000000000000000000000000000000000000600052601160045260246000fd5b600061300482611b88565b915061300f83611b88565b92508282101561302257613021612fca565b5b828203905092915050565b60008160011c9050919050565b6000808291508390505b6001851115613084578086048111156130605761305f612fca565b5b600185161561306f5780820291505b808102905061307d8561302d565b9450613044565b94509492505050565b60008261309d5760019050613159565b816130ab5760009050613159565b81600181146130c157600281146130cb576130fa565b6001915050613159565b60ff8411156130dd576130dc612fca565b5b8360020a9150848211156130f4576130f3612fca565b5b50613159565b5060208310610133831016604e8410600b841016171561312f5782820a90508381111561312a57613129612fca565b5b613159565b61313c848484600161303a565b9250905081840481111561315357613152612fca565b5b81810290505b9392505050565b600061316b82611b88565b915061317683611b88565b92506131a37fffffffffffffffffffffffffffffffffffffffffffffffffffffffffffffffff848461308d565b905092915050565b60006131b682611b88565b91506131c183611b88565b9250817fffffffffffffffffffffffffffffffffffffffffffffffffffffffffffffffff04831182151516156131fa576131f9612fca565b5b828202905092915050565b600061321082611b88565b915061321b83611b88565b9250827fffffffffffffffffffffffffffffffffffffffffffffffffffffffffffffffff038211156132505761324f612fca565b5b828201905092915050565b600061326682611b88565b91507fffffffffffffffffffffffffffffffffffffffffffffffffffffffffffffffff82141561329957613298612fca565b5b600182019050919050565b600082825260208201905092915050565b7f50726f7669646564206b657920646f65736e2774206d617463682070726f6f66600082015250565b60006132eb6020836132a4565b91506132f6826132b5565b602082019050919050565b6000602082019050818103600083015261331a816132de565b9050919050565b7f50726f76696465642076616c756520646f65736e2774206d617463682070726f60008201527f6f66000000000000000000000000000000000000000000000000000000000000602082015250565b600061337d6022836132a4565b915061338882613321565b604082019050919050565b600060208201905081810360008301526133ac81613370565b9050919050565b7f43616c63756c636174656420726f6f7420646f65736e2774206d61746368207060008201527f726f766964656420726f6f740000000000000000000000000000000000000000602082015250565b600061340f602c836132a4565b915061341a826133b3565b604082019050919050565b6000602082019050818103600083015261343e81613402565b9050919050565b7f4d7573742062652077686974656c6973746564206f722072656769737465726560008201527f6400000000000000000000000000000000000000000000000000000000000000602082015250565b60006134a16021836132a4565b91506134ac82613445565b604082019050919050565b600060208201905081810360008301526134d081613494565b9050919050565b7f496e6e65724f707320646570746820746f6f2073686f72740000000000000000600082015250565b600061350d6018836132a4565b9150613518826134d7565b602082019050919050565b6000602082019050818103600083015261353c81613500565b9050919050565b7f556e657870656374656420486173684f70000000000000000000000000000000600082015250565b60006135796011836132a4565b915061358482613543565b602082019050919050565b600060208201905081810360008301526135a88161356c565b9050919050565b7f556e657870656374656420507265686173684b65790000000000000000000000600082015250565b60006135e56015836132a4565b91506135f0826135af565b602082019050919050565b60006020820190508181036000830152613614816135d8565b9050919050565b7f556e657870656374656c65616653706563204c656e6774684f70000000000000600082015250565b6000613651601a836132a4565b915061365c8261361b565b602082019050919050565b6000602082019050818103600083015261368081613644565b9050919050565b7f4c6561664f704c69623a2077726f6e6720707265666978000000000000000000600082015250565b60006136bd6017836132a4565b91506136c882613687565b602082019050919050565b600060208201905081810360008301526136ec816136b0565b9050919050565b7f496e6e65724f704c69623a2077726f6e67207072656669780000000000000000600082015250565b60006137296018836132a4565b9150613734826136f3565b602082019050919050565b600060208201905081810360008301526137588161371c565b9050919050565b7f496e6e65724f702070726566697820746f6f2073686f72740000000000000000600082015250565b60006137956018836132a4565b91506137a08261375f565b602082019050919050565b600060208201905081810360008301526137c481613788565b9050919050565b7f4c656166206f70206e65656473206b6579000000000000000000000000000000600082015250565b60006138016011836132a4565b915061380c826137cb565b602082019050919050565b60006020820190508181036000830152613830816137f4565b9050919050565b7f4c656166206f70206e656564732076616c756500000000000000000000000000600082015250565b600061386d6013836132a4565b915061387882613837565b602082019050919050565b6000602082019050818103600083015261389c81613860565b9050919050565b600081905092915050565b60006138b982611a3a565b6138c381856138a3565b93506138d3818560208601611a56565b80840191505092915050565b60006138eb82856138ae565b91506138f782846138ae565b91508190509392505050565b7f496e6e6572206f70206e65656473206368696c642076616c7565000000000000600082015250565b6000613939601a836132a4565b915061394482613903565b602082019050919050565b600060208201905081810360008301526139688161392c565b9050919050565b600061397b82846138ae565b915081905092915050565b6000819050919050565b61399981613986565b81146139a457600080fd5b50565b6000815190506139b681613990565b92915050565b6000602082840312156139d2576139d1611da6565b5b60006139e0848285016139a7565b91505092915050565b7f534841353132206e6f7420696d706c656d656e74656400000000000000000000600082015250565b6000613a1f6016836132a4565b9150613a2a826139e9565b602082019050919050565b60006020820190508181036000830152613a4e81613a12565b9050919050565b7f556e737570706f7274656420686173686f700000000000000000000000000000600082015250565b6000613a8b6012836132a4565b9150613a9682613a55565b602082019050919050565b60006020820190508181036000830152613aba81613a7e565b9050919050565b7f4578706563746564203332206279746573000000000000000000000000000000600082015250565b6000613af76011836132a4565b9150613b0282613ac1565b602082019050919050565b60006020820190508181036000830152613b2681613aea565b9050919050565b7f4578706563746564203634206279746573000000000000000000000000000000600082015250565b6000613b636011836132a4565b9150613b6e82613b2d565b602082019050919050565b60006020820190508181036000830152613b9281613b56565b9050919050565b7f556e737570706f72746564206c656e6774686f70000000000000000000000000600082015250565b6000613bcf6014836132a4565b9150613bda82613b99565b602082019050919050565b60006020820190508181036000830152613bfe81613bc2565b9050919050565b600067ffffffffffffffff82169050919050565b6000613c2482613c05565b9150613c2f83613c05565b92508267ffffffffffffffff03821115613c4c57613c4b612fca565b5b828201905092915050565b6000613c6282613c05565b915067ffffffffffffffff821415613c7d57613c7c612fca565b5b600182019050919050565b6000613c9382613c05565b9150613c9e83613c05565b925082821015613cb157613cb0612fca565b5b82820390509291505056fea2646970667358221220f0a9fa48dad6c505bb3ae0bc53cc7478b934f9858786669e3b89c7a832d9666664736f6c63430008090033",
  "immutableReferences": {},
  "source": "// SPDX-License-Identifier: MIT\npragma solidity ^0.8.7;\n\nimport \"./ics23.sol\";\n\ncontract AnconVerifier is ICS23 {\n    address public whitelisted;\n\n    constructor(address onlyOwner) public {\n        whitelisted = onlyOwner;\n    }\n\n    //Gotten from https://stackoverflow.com/a/69007075\n    function st2num(string memory numString) public pure returns (uint256) {\n        uint256 val = 0;\n        bytes memory stringBytes = bytes(numString);\n        for (uint256 i = 0; i < stringBytes.length; i++) {\n            uint256 exp = stringBytes.length - i;\n            bytes1 ival = stringBytes[i];\n            uint8 uval = uint8(ival);\n            uint256 jval = uval - uint256(0x30);\n\n            val += (uint256(jval) * (10**(exp - 1)));\n        }\n        return val;\n    }\n\n    function bytes2num(bytes memory numBytes) public pure returns (uint256) {\n        return st2num(string(numBytes));\n    }\n\n    //Separate arguments to not convert from uint 256 to byte\n    function convertProof(\n        bytes memory key,\n        bytes memory value,\n        bytes memory _prefix,\n        uint256[] memory _leafOpUint,\n        bytes[][] memory _innerOp,\n        uint256 existenceProofInnerOpHash\n    ) public pure returns (ExistenceProof memory) {\n        LeafOp memory leafOp = LeafOp(\n            true,\n            HashOp((_leafOpUint[0])),\n            HashOp((_leafOpUint[1])),\n            HashOp((_leafOpUint[2])),\n            LengthOp((_leafOpUint[3])),\n            _prefix\n        );\n\n        // // innerOpArr\n        InnerOp[] memory innerOpArr = new InnerOp[](_innerOp.length);\n\n        for (uint256 i = 0; i < _innerOp.length; i++) {\n            bytes[] memory temp = _innerOp[i];\n            innerOpArr[i] = InnerOp({\n                valid: true,\n                hash: HashOp(existenceProofInnerOpHash),\n                prefix: temp[0],\n                suffix: temp[1]\n            });\n        }\n        ExistenceProof memory proof = ExistenceProof({\n            valid: true,\n            key: key,\n            value: value,\n            leaf: leafOp,\n            path: innerOpArr\n        });\n\n        return proof;\n    }\n\n    function requestRoot(\n        uint256[] memory leafOpUint,\n        bytes memory prefix,\n        bytes[][] memory existenceProofInnerOp,\n        uint256 existenceProofInnerOpHash,\n        bytes memory existenceProofKey,\n        bytes memory existenceProofValue\n    ) public view returns (bytes memory) {\n        require(msg.sender == whitelisted, \"Must be whitelisted or registered\");\n        // todo: verify not empty\n        ExistenceProof memory proof = convertProof(\n            existenceProofKey,\n            existenceProofValue,\n            prefix,\n            leafOpUint,\n            existenceProofInnerOp,\n            existenceProofInnerOpHash\n        );\n        return bytes(calculate(proof));\n    }\n// claimed ics23 proofs\n// key = prefix + cid eg  ancon+cid\n// value = sha256(dagcbor)\n// TODO: Change to verifyRelayMessage\n    function changeOwnerWithProof(\n        uint256[] memory leafOpUint,\n        bytes memory prefix,\n        bytes[][] memory existenceProofInnerOp,\n        uint256 existenceProofInnerOpHash,\n        bytes memory existenceProofKey,\n        bytes memory existenceProofValue,\n        bytes memory root,\n        bytes memory key,\n        bytes memory value\n    ) public pure returns (bool) {\n        // todo: verify not empty\n        ExistenceProof memory proof = convertProof(\n            existenceProofKey,\n            existenceProofValue,\n            prefix,\n            leafOpUint,\n            existenceProofInnerOp,\n            existenceProofInnerOpHash\n        );\n        //        return bytes(calculate(proof));\n        // Verify membership\n\n        verify(proof, getIavlSpec(), root, key, value);\n\n        return true;\n\n        //proof.key = xp.\n\n        // verify permit exists, has not revoked, has valid issuer and is not expired\n        //return this.verifyMembership(iavlSpec, root, xp, key, value);\n        // verify token exists\n        //_lock(vc.data);\n        // _release\n    }\n\n}\n",
  "sourcePath": "/home/rogelio/Code/ancon-protocol/ethereum/contracts/ancon/AnconVerifier.sol",
  "compiler": {
    "name": "solc",
    "version": "0.8.9+commit.e5eed63a.Emscripten.clang"
  },
  "schemaVersion": "3.4.0",
  "updatedAt": "2021-10-22T23:51:35.189Z",
  "networkType": "ethereum",
  "devdoc": {
    "kind": "dev",
    "methods": {},
    "version": 1
  },
  "userdoc": {
    "kind": "user",
    "methods": {},
    "version": 1
  }
}