{
  "contractName": "AnconMetadataOwnableBridge",
  "abi": [
    {
      "inputs": [],
      "stateMutability": "nonpayable",
      "type": "constructor"
    },
    {
      "anonymous": false,
      "inputs": [
        {
          "indexed": true,
          "internalType": "address",
          "name": "newOwner",
          "type": "address"
        },
        {
          "indexed": true,
          "internalType": "string",
          "name": "metadataHash",
          "type": "string"
        },
        {
          "indexed": true,
          "internalType": "uint256",
          "name": "tokenId",
          "type": "uint256"
        }
      ],
      "name": "CrossMintCallbackReceived",
      "type": "event"
    },
    {
      "inputs": [
        {
          "components": [
            {
              "internalType": "bool",
              "name": "valid",
              "type": "bool"
            },
            {
              "internalType": "enum ICS23.HashOp",
              "name": "hash",
              "type": "uint8"
            },
            {
              "internalType": "bytes",
              "name": "prefix",
              "type": "bytes"
            },
            {
              "internalType": "bytes",
              "name": "suffix",
              "type": "bytes"
            }
          ],
          "internalType": "struct ICS23.InnerOp",
          "name": "op",
          "type": "tuple"
        },
        {
          "internalType": "bytes",
          "name": "child",
          "type": "bytes"
        }
      ],
      "name": "applyInner",
      "outputs": [
        {
          "internalType": "bytes",
          "name": "",
          "type": "bytes"
        }
      ],
      "stateMutability": "pure",
      "type": "function",
      "constant": true
    },
    {
      "inputs": [
        {
          "components": [
            {
              "internalType": "bool",
              "name": "valid",
              "type": "bool"
            },
            {
              "internalType": "enum ICS23.HashOp",
              "name": "hash",
              "type": "uint8"
            },
            {
              "internalType": "enum ICS23.HashOp",
              "name": "prehash_key",
              "type": "uint8"
            },
            {
              "internalType": "enum ICS23.HashOp",
              "name": "prehash_value",
              "type": "uint8"
            },
            {
              "internalType": "enum ICS23.LengthOp",
              "name": "len",
              "type": "uint8"
            },
            {
              "internalType": "bytes",
              "name": "prefix",
              "type": "bytes"
            }
          ],
          "internalType": "struct ICS23.LeafOp",
          "name": "op",
          "type": "tuple"
        },
        {
          "internalType": "bytes",
          "name": "key",
          "type": "bytes"
        },
        {
          "internalType": "bytes",
          "name": "value",
          "type": "bytes"
        }
      ],
      "name": "applyLeaf",
      "outputs": [
        {
          "internalType": "bytes",
          "name": "",
          "type": "bytes"
        }
      ],
      "stateMutability": "pure",
      "type": "function",
      "constant": true
    },
    {
      "inputs": [
        {
          "components": [
            {
              "internalType": "bool",
              "name": "valid",
              "type": "bool"
            },
            {
              "internalType": "bytes",
              "name": "key",
              "type": "bytes"
            },
            {
              "internalType": "bytes",
              "name": "value",
              "type": "bytes"
            },
            {
              "components": [
                {
                  "internalType": "bool",
                  "name": "valid",
                  "type": "bool"
                },
                {
                  "internalType": "enum ICS23.HashOp",
                  "name": "hash",
                  "type": "uint8"
                },
                {
                  "internalType": "enum ICS23.HashOp",
                  "name": "prehash_key",
                  "type": "uint8"
                },
                {
                  "internalType": "enum ICS23.HashOp",
                  "name": "prehash_value",
                  "type": "uint8"
                },
                {
                  "internalType": "enum ICS23.LengthOp",
                  "name": "len",
                  "type": "uint8"
                },
                {
                  "internalType": "bytes",
                  "name": "prefix",
                  "type": "bytes"
                }
              ],
              "internalType": "struct ICS23.LeafOp",
              "name": "leaf",
              "type": "tuple"
            },
            {
              "components": [
                {
                  "internalType": "bool",
                  "name": "valid",
                  "type": "bool"
                },
                {
                  "internalType": "enum ICS23.HashOp",
                  "name": "hash",
                  "type": "uint8"
                },
                {
                  "internalType": "bytes",
                  "name": "prefix",
                  "type": "bytes"
                },
                {
                  "internalType": "bytes",
                  "name": "suffix",
                  "type": "bytes"
                }
              ],
              "internalType": "struct ICS23.InnerOp[]",
              "name": "path",
              "type": "tuple[]"
            }
          ],
          "internalType": "struct ICS23.ExistenceProof",
          "name": "proof",
          "type": "tuple"
        }
      ],
      "name": "calculate",
      "outputs": [
        {
          "internalType": "bytes",
          "name": "",
          "type": "bytes"
        }
      ],
      "stateMutability": "pure",
      "type": "function",
      "constant": true
    },
    {
      "inputs": [
        {
          "components": [
            {
              "internalType": "bool",
              "name": "valid",
              "type": "bool"
            },
            {
              "internalType": "bytes",
              "name": "key",
              "type": "bytes"
            },
            {
              "internalType": "bytes",
              "name": "value",
              "type": "bytes"
            },
            {
              "components": [
                {
                  "internalType": "bool",
                  "name": "valid",
                  "type": "bool"
                },
                {
                  "internalType": "enum ICS23.HashOp",
                  "name": "hash",
                  "type": "uint8"
                },
                {
                  "internalType": "enum ICS23.HashOp",
                  "name": "prehash_key",
                  "type": "uint8"
                },
                {
                  "internalType": "enum ICS23.HashOp",
                  "name": "prehash_value",
                  "type": "uint8"
                },
                {
                  "internalType": "enum ICS23.LengthOp",
                  "name": "len",
                  "type": "uint8"
                },
                {
                  "internalType": "bytes",
                  "name": "prefix",
                  "type": "bytes"
                }
              ],
              "internalType": "struct ICS23.LeafOp",
              "name": "leaf",
              "type": "tuple"
            },
            {
              "components": [
                {
                  "internalType": "bool",
                  "name": "valid",
                  "type": "bool"
                },
                {
                  "internalType": "enum ICS23.HashOp",
                  "name": "hash",
                  "type": "uint8"
                },
                {
                  "internalType": "bytes",
                  "name": "prefix",
                  "type": "bytes"
                },
                {
                  "internalType": "bytes",
                  "name": "suffix",
                  "type": "bytes"
                }
              ],
              "internalType": "struct ICS23.InnerOp[]",
              "name": "path",
              "type": "tuple[]"
            }
          ],
          "internalType": "struct ICS23.ExistenceProof",
          "name": "proof",
          "type": "tuple"
        },
        {
          "components": [
            {
              "internalType": "bool",
              "name": "valid",
              "type": "bool"
            },
            {
              "internalType": "enum ICS23.HashOp",
              "name": "hash",
              "type": "uint8"
            },
            {
              "internalType": "enum ICS23.HashOp",
              "name": "prehash_key",
              "type": "uint8"
            },
            {
              "internalType": "enum ICS23.HashOp",
              "name": "prehash_value",
              "type": "uint8"
            },
            {
              "internalType": "enum ICS23.LengthOp",
              "name": "len",
              "type": "uint8"
            },
            {
              "internalType": "bytes",
              "name": "prefix",
              "type": "bytes"
            }
          ],
          "internalType": "struct ICS23.LeafOp",
          "name": "spec",
          "type": "tuple"
        }
      ],
      "name": "checkAgainstSpec",
      "outputs": [
        {
          "internalType": "bool",
          "name": "",
          "type": "bool"
        }
      ],
      "stateMutability": "pure",
      "type": "function",
      "constant": true
    },
    {
      "inputs": [
        {
          "internalType": "bytes",
          "name": "bz1",
          "type": "bytes"
        },
        {
          "internalType": "bytes",
          "name": "bz2",
          "type": "bytes"
        }
      ],
      "name": "compareBytes",
      "outputs": [
        {
          "internalType": "enum ICS23.Ordering",
          "name": "",
          "type": "uint8"
        }
      ],
      "stateMutability": "pure",
      "type": "function",
      "constant": true
    },
    {
      "inputs": [
        {
          "internalType": "enum ICS23.HashOp",
          "name": "op",
          "type": "uint8"
        },
        {
          "internalType": "bytes",
          "name": "preimage",
          "type": "bytes"
        }
      ],
      "name": "doHash",
      "outputs": [
        {
          "internalType": "bytes",
          "name": "",
          "type": "bytes"
        }
      ],
      "stateMutability": "pure",
      "type": "function",
      "constant": true
    },
    {
      "inputs": [
        {
          "internalType": "enum ICS23.HashOp",
          "name": "op",
          "type": "uint8"
        },
        {
          "internalType": "bytes",
          "name": "preimage",
          "type": "bytes"
        }
      ],
      "name": "doHashOrNoop",
      "outputs": [
        {
          "internalType": "bytes",
          "name": "",
          "type": "bytes"
        }
      ],
      "stateMutability": "pure",
      "type": "function",
      "constant": true
    },
    {
      "inputs": [
        {
          "internalType": "enum ICS23.LengthOp",
          "name": "op",
          "type": "uint8"
        },
        {
          "internalType": "bytes",
          "name": "data",
          "type": "bytes"
        }
      ],
      "name": "doLength",
      "outputs": [
        {
          "internalType": "bytes",
          "name": "",
          "type": "bytes"
        }
      ],
      "stateMutability": "pure",
      "type": "function",
      "constant": true
    },
    {
      "inputs": [
        {
          "internalType": "bytes",
          "name": "bz1",
          "type": "bytes"
        },
        {
          "internalType": "bytes",
          "name": "bz2",
          "type": "bytes"
        }
      ],
      "name": "equalBytes",
      "outputs": [
        {
          "internalType": "bool",
          "name": "",
          "type": "bool"
        }
      ],
      "stateMutability": "pure",
      "type": "function",
      "constant": true
    },
    {
      "inputs": [
        {
          "components": [
            {
              "internalType": "uint256[]",
              "name": "childOrder",
              "type": "uint256[]"
            },
            {
              "internalType": "uint256",
              "name": "childSize",
              "type": "uint256"
            },
            {
              "internalType": "uint256",
              "name": "minPrefixLength",
              "type": "uint256"
            },
            {
              "internalType": "uint256",
              "name": "maxPrefixLength",
              "type": "uint256"
            },
            {
              "internalType": "bytes",
              "name": "emptyChild",
              "type": "bytes"
            },
            {
              "internalType": "enum ICS23.HashOp",
              "name": "hash",
              "type": "uint8"
            }
          ],
          "internalType": "struct ICS23.InnerSpec",
          "name": "spec",
          "type": "tuple"
        },
        {
          "internalType": "uint256",
          "name": "branch",
          "type": "uint256"
        }
      ],
      "name": "getPadding",
      "outputs": [
        {
          "internalType": "uint256",
          "name": "",
          "type": "uint256"
        },
        {
          "internalType": "uint256",
          "name": "",
          "type": "uint256"
        },
        {
          "internalType": "uint256",
          "name": "",
          "type": "uint256"
        }
      ],
      "stateMutability": "pure",
      "type": "function",
      "constant": true
    },
    {
      "inputs": [
        {
          "internalType": "uint256[]",
          "name": "order",
          "type": "uint256[]"
        },
        {
          "internalType": "uint256",
          "name": "branch",
          "type": "uint256"
        }
      ],
      "name": "getPosition",
      "outputs": [
        {
          "internalType": "uint256",
          "name": "",
          "type": "uint256"
        }
      ],
      "stateMutability": "pure",
      "type": "function",
      "constant": true
    },
    {
      "inputs": [
        {
          "components": [
            {
              "internalType": "bool",
              "name": "valid",
              "type": "bool"
            },
            {
              "internalType": "enum ICS23.HashOp",
              "name": "hash",
              "type": "uint8"
            },
            {
              "internalType": "bytes",
              "name": "prefix",
              "type": "bytes"
            },
            {
              "internalType": "bytes",
              "name": "suffix",
              "type": "bytes"
            }
          ],
          "internalType": "struct ICS23.InnerOp",
          "name": "op",
          "type": "tuple"
        },
        {
          "internalType": "uint256",
          "name": "minPrefix",
          "type": "uint256"
        },
        {
          "internalType": "uint256",
          "name": "maxPrefix",
          "type": "uint256"
        },
        {
          "internalType": "uint256",
          "name": "suffix",
          "type": "uint256"
        }
      ],
      "name": "hasPadding",
      "outputs": [
        {
          "internalType": "bool",
          "name": "",
          "type": "bool"
        }
      ],
      "stateMutability": "pure",
      "type": "function",
      "constant": true
    },
    {
      "inputs": [
        {
          "internalType": "bytes[]",
          "name": "data",
          "type": "bytes[]"
        }
      ],
      "name": "hashFromByteSlices",
      "outputs": [
        {
          "internalType": "bytes32",
          "name": "",
          "type": "bytes32"
        }
      ],
      "stateMutability": "pure",
      "type": "function",
      "constant": true
    },
    {
      "inputs": [
        {
          "internalType": "bytes",
          "name": "s",
          "type": "bytes"
        },
        {
          "internalType": "bytes",
          "name": "prefix",
          "type": "bytes"
        }
      ],
      "name": "hasprefix",
      "outputs": [
        {
          "internalType": "bool",
          "name": "",
          "type": "bool"
        }
      ],
      "stateMutability": "pure",
      "type": "function",
      "constant": true
    },
    {
      "inputs": [
        {
          "components": [
            {
              "internalType": "uint256[]",
              "name": "childOrder",
              "type": "uint256[]"
            },
            {
              "internalType": "uint256",
              "name": "childSize",
              "type": "uint256"
            },
            {
              "internalType": "uint256",
              "name": "minPrefixLength",
              "type": "uint256"
            },
            {
              "internalType": "uint256",
              "name": "maxPrefixLength",
              "type": "uint256"
            },
            {
              "internalType": "bytes",
              "name": "emptyChild",
              "type": "bytes"
            },
            {
              "internalType": "enum ICS23.HashOp",
              "name": "hash",
              "type": "uint8"
            }
          ],
          "internalType": "struct ICS23.InnerSpec",
          "name": "spec",
          "type": "tuple"
        },
        {
          "components": [
            {
              "internalType": "bool",
              "name": "valid",
              "type": "bool"
            },
            {
              "internalType": "enum ICS23.HashOp",
              "name": "hash",
              "type": "uint8"
            },
            {
              "internalType": "bytes",
              "name": "prefix",
              "type": "bytes"
            },
            {
              "internalType": "bytes",
              "name": "suffix",
              "type": "bytes"
            }
          ],
          "internalType": "struct ICS23.InnerOp[]",
          "name": "path",
          "type": "tuple[]"
        }
      ],
      "name": "isLeftMost",
      "outputs": [
        {
          "internalType": "bool",
          "name": "",
          "type": "bool"
        }
      ],
      "stateMutability": "pure",
      "type": "function",
      "constant": true
    },
    {
      "inputs": [
        {
          "components": [
            {
              "internalType": "uint256[]",
              "name": "childOrder",
              "type": "uint256[]"
            },
            {
              "internalType": "uint256",
              "name": "childSize",
              "type": "uint256"
            },
            {
              "internalType": "uint256",
              "name": "minPrefixLength",
              "type": "uint256"
            },
            {
              "internalType": "uint256",
              "name": "maxPrefixLength",
              "type": "uint256"
            },
            {
              "internalType": "bytes",
              "name": "emptyChild",
              "type": "bytes"
            },
            {
              "internalType": "enum ICS23.HashOp",
              "name": "hash",
              "type": "uint8"
            }
          ],
          "internalType": "struct ICS23.InnerSpec",
          "name": "spec",
          "type": "tuple"
        },
        {
          "components": [
            {
              "internalType": "bool",
              "name": "valid",
              "type": "bool"
            },
            {
              "internalType": "enum ICS23.HashOp",
              "name": "hash",
              "type": "uint8"
            },
            {
              "internalType": "bytes",
              "name": "prefix",
              "type": "bytes"
            },
            {
              "internalType": "bytes",
              "name": "suffix",
              "type": "bytes"
            }
          ],
          "internalType": "struct ICS23.InnerOp[]",
          "name": "left",
          "type": "tuple[]"
        },
        {
          "components": [
            {
              "internalType": "bool",
              "name": "valid",
              "type": "bool"
            },
            {
              "internalType": "enum ICS23.HashOp",
              "name": "hash",
              "type": "uint8"
            },
            {
              "internalType": "bytes",
              "name": "prefix",
              "type": "bytes"
            },
            {
              "internalType": "bytes",
              "name": "suffix",
              "type": "bytes"
            }
          ],
          "internalType": "struct ICS23.InnerOp[]",
          "name": "right",
          "type": "tuple[]"
        }
      ],
      "name": "isLeftNeighbor",
      "outputs": [
        {
          "internalType": "bool",
          "name": "",
          "type": "bool"
        }
      ],
      "stateMutability": "pure",
      "type": "function",
      "constant": true
    },
    {
      "inputs": [
        {
          "components": [
            {
              "internalType": "uint256[]",
              "name": "childOrder",
              "type": "uint256[]"
            },
            {
              "internalType": "uint256",
              "name": "childSize",
              "type": "uint256"
            },
            {
              "internalType": "uint256",
              "name": "minPrefixLength",
              "type": "uint256"
            },
            {
              "internalType": "uint256",
              "name": "maxPrefixLength",
              "type": "uint256"
            },
            {
              "internalType": "bytes",
              "name": "emptyChild",
              "type": "bytes"
            },
            {
              "internalType": "enum ICS23.HashOp",
              "name": "hash",
              "type": "uint8"
            }
          ],
          "internalType": "struct ICS23.InnerSpec",
          "name": "spec",
          "type": "tuple"
        },
        {
          "components": [
            {
              "internalType": "bool",
              "name": "valid",
              "type": "bool"
            },
            {
              "internalType": "enum ICS23.HashOp",
              "name": "hash",
              "type": "uint8"
            },
            {
              "internalType": "bytes",
              "name": "prefix",
              "type": "bytes"
            },
            {
              "internalType": "bytes",
              "name": "suffix",
              "type": "bytes"
            }
          ],
          "internalType": "struct ICS23.InnerOp",
          "name": "left",
          "type": "tuple"
        },
        {
          "components": [
            {
              "internalType": "bool",
              "name": "valid",
              "type": "bool"
            },
            {
              "internalType": "enum ICS23.HashOp",
              "name": "hash",
              "type": "uint8"
            },
            {
              "internalType": "bytes",
              "name": "prefix",
              "type": "bytes"
            },
            {
              "internalType": "bytes",
              "name": "suffix",
              "type": "bytes"
            }
          ],
          "internalType": "struct ICS23.InnerOp",
          "name": "right",
          "type": "tuple"
        }
      ],
      "name": "isLeftStep",
      "outputs": [
        {
          "internalType": "bool",
          "name": "",
          "type": "bool"
        }
      ],
      "stateMutability": "pure",
      "type": "function",
      "constant": true
    },
    {
      "inputs": [
        {
          "components": [
            {
              "internalType": "uint256[]",
              "name": "childOrder",
              "type": "uint256[]"
            },
            {
              "internalType": "uint256",
              "name": "childSize",
              "type": "uint256"
            },
            {
              "internalType": "uint256",
              "name": "minPrefixLength",
              "type": "uint256"
            },
            {
              "internalType": "uint256",
              "name": "maxPrefixLength",
              "type": "uint256"
            },
            {
              "internalType": "bytes",
              "name": "emptyChild",
              "type": "bytes"
            },
            {
              "internalType": "enum ICS23.HashOp",
              "name": "hash",
              "type": "uint8"
            }
          ],
          "internalType": "struct ICS23.InnerSpec",
          "name": "spec",
          "type": "tuple"
        },
        {
          "components": [
            {
              "internalType": "bool",
              "name": "valid",
              "type": "bool"
            },
            {
              "internalType": "enum ICS23.HashOp",
              "name": "hash",
              "type": "uint8"
            },
            {
              "internalType": "bytes",
              "name": "prefix",
              "type": "bytes"
            },
            {
              "internalType": "bytes",
              "name": "suffix",
              "type": "bytes"
            }
          ],
          "internalType": "struct ICS23.InnerOp[]",
          "name": "path",
          "type": "tuple[]"
        }
      ],
      "name": "isRightMost",
      "outputs": [
        {
          "internalType": "bool",
          "name": "",
          "type": "bool"
        }
      ],
      "stateMutability": "pure",
      "type": "function",
      "constant": true
    },
    {
      "inputs": [
        {
          "components": [
            {
              "internalType": "uint256[]",
              "name": "childOrder",
              "type": "uint256[]"
            },
            {
              "internalType": "uint256",
              "name": "childSize",
              "type": "uint256"
            },
            {
              "internalType": "uint256",
              "name": "minPrefixLength",
              "type": "uint256"
            },
            {
              "internalType": "uint256",
              "name": "maxPrefixLength",
              "type": "uint256"
            },
            {
              "internalType": "bytes",
              "name": "emptyChild",
              "type": "bytes"
            },
            {
              "internalType": "enum ICS23.HashOp",
              "name": "hash",
              "type": "uint8"
            }
          ],
          "internalType": "struct ICS23.InnerSpec",
          "name": "spec",
          "type": "tuple"
        },
        {
          "components": [
            {
              "internalType": "bool",
              "name": "valid",
              "type": "bool"
            },
            {
              "internalType": "enum ICS23.HashOp",
              "name": "hash",
              "type": "uint8"
            },
            {
              "internalType": "bytes",
              "name": "prefix",
              "type": "bytes"
            },
            {
              "internalType": "bytes",
              "name": "suffix",
              "type": "bytes"
            }
          ],
          "internalType": "struct ICS23.InnerOp",
          "name": "op",
          "type": "tuple"
        }
      ],
      "name": "orderFromPadding",
      "outputs": [
        {
          "internalType": "uint256",
          "name": "",
          "type": "uint256"
        }
      ],
      "stateMutability": "pure",
      "type": "function",
      "constant": true
    },
    {
      "inputs": [
        {
          "internalType": "enum ICS23.HashOp",
          "name": "hashop",
          "type": "uint8"
        },
        {
          "internalType": "enum ICS23.LengthOp",
          "name": "lengthop",
          "type": "uint8"
        },
        {
          "internalType": "bytes",
          "name": "data",
          "type": "bytes"
        }
      ],
      "name": "prepareLeafData",
      "outputs": [
        {
          "internalType": "bytes",
          "name": "",
          "type": "bytes"
        }
      ],
      "stateMutability": "pure",
      "type": "function",
      "constant": true
    },
    {
      "inputs": [
        {
          "components": [
            {
              "internalType": "bool",
              "name": "valid",
              "type": "bool"
            },
            {
              "internalType": "bytes",
              "name": "key",
              "type": "bytes"
            },
            {
              "internalType": "bytes",
              "name": "value",
              "type": "bytes"
            },
            {
              "components": [
                {
                  "internalType": "bool",
                  "name": "valid",
                  "type": "bool"
                },
                {
                  "internalType": "enum ICS23.HashOp",
                  "name": "hash",
                  "type": "uint8"
                },
                {
                  "internalType": "enum ICS23.HashOp",
                  "name": "prehash_key",
                  "type": "uint8"
                },
                {
                  "internalType": "enum ICS23.HashOp",
                  "name": "prehash_value",
                  "type": "uint8"
                },
                {
                  "internalType": "enum ICS23.LengthOp",
                  "name": "len",
                  "type": "uint8"
                },
                {
                  "internalType": "bytes",
                  "name": "prefix",
                  "type": "bytes"
                }
              ],
              "internalType": "struct ICS23.LeafOp",
              "name": "leaf",
              "type": "tuple"
            },
            {
              "components": [
                {
                  "internalType": "bool",
                  "name": "valid",
                  "type": "bool"
                },
                {
                  "internalType": "enum ICS23.HashOp",
                  "name": "hash",
                  "type": "uint8"
                },
                {
                  "internalType": "bytes",
                  "name": "prefix",
                  "type": "bytes"
                },
                {
                  "internalType": "bytes",
                  "name": "suffix",
                  "type": "bytes"
                }
              ],
              "internalType": "struct ICS23.InnerOp[]",
              "name": "path",
              "type": "tuple[]"
            }
          ],
          "internalType": "struct ICS23.ExistenceProof",
          "name": "proof",
          "type": "tuple"
        },
        {
          "components": [
            {
              "internalType": "bool",
              "name": "valid",
              "type": "bool"
            },
            {
              "internalType": "enum ICS23.HashOp",
              "name": "hash",
              "type": "uint8"
            },
            {
              "internalType": "enum ICS23.HashOp",
              "name": "prehash_key",
              "type": "uint8"
            },
            {
              "internalType": "enum ICS23.HashOp",
              "name": "prehash_value",
              "type": "uint8"
            },
            {
              "internalType": "enum ICS23.LengthOp",
              "name": "len",
              "type": "uint8"
            },
            {
              "internalType": "bytes",
              "name": "prefix",
              "type": "bytes"
            }
          ],
          "internalType": "struct ICS23.LeafOp",
          "name": "spec",
          "type": "tuple"
        },
        {
          "internalType": "bytes",
          "name": "root",
          "type": "bytes"
        },
        {
          "internalType": "bytes",
          "name": "key",
          "type": "bytes"
        },
        {
          "internalType": "bytes",
          "name": "value",
          "type": "bytes"
        }
      ],
      "name": "verifyExistence",
      "outputs": [
        {
          "internalType": "bool",
          "name": "",
          "type": "bool"
        }
      ],
      "stateMutability": "pure",
      "type": "function",
      "constant": true
    },
    {
      "inputs": [
        {
          "internalType": "bytes",
          "name": "proofBz",
          "type": "bytes"
        },
        {
          "internalType": "bytes",
          "name": "rootBz",
          "type": "bytes"
        },
        {
          "internalType": "bytes",
          "name": "pathBz",
          "type": "bytes"
        },
        {
          "internalType": "bytes",
          "name": "value",
          "type": "bytes"
        },
        {
          "components": [
            {
              "internalType": "bool",
              "name": "valid",
              "type": "bool"
            },
            {
              "internalType": "bytes",
              "name": "key",
              "type": "bytes"
            },
            {
              "internalType": "bytes",
              "name": "value",
              "type": "bytes"
            },
            {
              "components": [
                {
                  "internalType": "bool",
                  "name": "valid",
                  "type": "bool"
                },
                {
                  "internalType": "enum ICS23.HashOp",
                  "name": "hash",
                  "type": "uint8"
                },
                {
                  "internalType": "enum ICS23.HashOp",
                  "name": "prehash_key",
                  "type": "uint8"
                },
                {
                  "internalType": "enum ICS23.HashOp",
                  "name": "prehash_value",
                  "type": "uint8"
                },
                {
                  "internalType": "enum ICS23.LengthOp",
                  "name": "len",
                  "type": "uint8"
                },
                {
                  "internalType": "bytes",
                  "name": "prefix",
                  "type": "bytes"
                }
              ],
              "internalType": "struct ICS23.LeafOp",
              "name": "leaf",
              "type": "tuple"
            },
            {
              "components": [
                {
                  "internalType": "bool",
                  "name": "valid",
                  "type": "bool"
                },
                {
                  "internalType": "enum ICS23.HashOp",
                  "name": "hash",
                  "type": "uint8"
                },
                {
                  "internalType": "bytes",
                  "name": "prefix",
                  "type": "bytes"
                },
                {
                  "internalType": "bytes",
                  "name": "suffix",
                  "type": "bytes"
                }
              ],
              "internalType": "struct ICS23.InnerOp[]",
              "name": "path",
              "type": "tuple[]"
            }
          ],
          "internalType": "struct ICS23.ExistenceProof",
          "name": "proof",
          "type": "tuple"
        }
      ],
      "name": "verifyMembership",
      "outputs": [
        {
          "internalType": "bool",
          "name": "",
          "type": "bool"
        }
      ],
      "stateMutability": "view",
      "type": "function",
      "constant": true
    },
    {
      "inputs": [
        {
          "components": [
            {
              "internalType": "bool",
              "name": "valid",
              "type": "bool"
            },
            {
              "internalType": "enum ICS23.HashOp",
              "name": "hash",
              "type": "uint8"
            },
            {
              "internalType": "enum ICS23.HashOp",
              "name": "prehash_key",
              "type": "uint8"
            },
            {
              "internalType": "enum ICS23.HashOp",
              "name": "prehash_value",
              "type": "uint8"
            },
            {
              "internalType": "enum ICS23.LengthOp",
              "name": "len",
              "type": "uint8"
            },
            {
              "internalType": "bytes",
              "name": "prefix",
              "type": "bytes"
            }
          ],
          "internalType": "struct ICS23.LeafOp",
          "name": "spec",
          "type": "tuple"
        },
        {
          "internalType": "bytes",
          "name": "root",
          "type": "bytes"
        },
        {
          "components": [
            {
              "internalType": "bool",
              "name": "valid",
              "type": "bool"
            },
            {
              "internalType": "bytes",
              "name": "key",
              "type": "bytes"
            },
            {
              "internalType": "bytes",
              "name": "value",
              "type": "bytes"
            },
            {
              "components": [
                {
                  "internalType": "bool",
                  "name": "valid",
                  "type": "bool"
                },
                {
                  "internalType": "enum ICS23.HashOp",
                  "name": "hash",
                  "type": "uint8"
                },
                {
                  "internalType": "enum ICS23.HashOp",
                  "name": "prehash_key",
                  "type": "uint8"
                },
                {
                  "internalType": "enum ICS23.HashOp",
                  "name": "prehash_value",
                  "type": "uint8"
                },
                {
                  "internalType": "enum ICS23.LengthOp",
                  "name": "len",
                  "type": "uint8"
                },
                {
                  "internalType": "bytes",
                  "name": "prefix",
                  "type": "bytes"
                }
              ],
              "internalType": "struct ICS23.LeafOp",
              "name": "leaf",
              "type": "tuple"
            },
            {
              "components": [
                {
                  "internalType": "bool",
                  "name": "valid",
                  "type": "bool"
                },
                {
                  "internalType": "enum ICS23.HashOp",
                  "name": "hash",
                  "type": "uint8"
                },
                {
                  "internalType": "bytes",
                  "name": "prefix",
                  "type": "bytes"
                },
                {
                  "internalType": "bytes",
                  "name": "suffix",
                  "type": "bytes"
                }
              ],
              "internalType": "struct ICS23.InnerOp[]",
              "name": "path",
              "type": "tuple[]"
            }
          ],
          "internalType": "struct ICS23.ExistenceProof",
          "name": "proof",
          "type": "tuple"
        },
        {
          "internalType": "bytes",
          "name": "key",
          "type": "bytes"
        },
        {
          "internalType": "bytes",
          "name": "value",
          "type": "bytes"
        }
      ],
      "name": "verifyMembership",
      "outputs": [
        {
          "internalType": "bool",
          "name": "",
          "type": "bool"
        }
      ],
      "stateMutability": "pure",
      "type": "function",
      "constant": true
    },
    {
      "inputs": [
        {
          "components": [
            {
              "internalType": "bool",
              "name": "valid",
              "type": "bool"
            },
            {
              "internalType": "bytes",
              "name": "key",
              "type": "bytes"
            },
            {
              "components": [
                {
                  "internalType": "bool",
                  "name": "valid",
                  "type": "bool"
                },
                {
                  "internalType": "bytes",
                  "name": "key",
                  "type": "bytes"
                },
                {
                  "internalType": "bytes",
                  "name": "value",
                  "type": "bytes"
                },
                {
                  "components": [
                    {
                      "internalType": "bool",
                      "name": "valid",
                      "type": "bool"
                    },
                    {
                      "internalType": "enum ICS23.HashOp",
                      "name": "hash",
                      "type": "uint8"
                    },
                    {
                      "internalType": "enum ICS23.HashOp",
                      "name": "prehash_key",
                      "type": "uint8"
                    },
                    {
                      "internalType": "enum ICS23.HashOp",
                      "name": "prehash_value",
                      "type": "uint8"
                    },
                    {
                      "internalType": "enum ICS23.LengthOp",
                      "name": "len",
                      "type": "uint8"
                    },
                    {
                      "internalType": "bytes",
                      "name": "prefix",
                      "type": "bytes"
                    }
                  ],
                  "internalType": "struct ICS23.LeafOp",
                  "name": "leaf",
                  "type": "tuple"
                },
                {
                  "components": [
                    {
                      "internalType": "bool",
                      "name": "valid",
                      "type": "bool"
                    },
                    {
                      "internalType": "enum ICS23.HashOp",
                      "name": "hash",
                      "type": "uint8"
                    },
                    {
                      "internalType": "bytes",
                      "name": "prefix",
                      "type": "bytes"
                    },
                    {
                      "internalType": "bytes",
                      "name": "suffix",
                      "type": "bytes"
                    }
                  ],
                  "internalType": "struct ICS23.InnerOp[]",
                  "name": "path",
                  "type": "tuple[]"
                }
              ],
              "internalType": "struct ICS23.ExistenceProof",
              "name": "left",
              "type": "tuple"
            },
            {
              "components": [
                {
                  "internalType": "bool",
                  "name": "valid",
                  "type": "bool"
                },
                {
                  "internalType": "bytes",
                  "name": "key",
                  "type": "bytes"
                },
                {
                  "internalType": "bytes",
                  "name": "value",
                  "type": "bytes"
                },
                {
                  "components": [
                    {
                      "internalType": "bool",
                      "name": "valid",
                      "type": "bool"
                    },
                    {
                      "internalType": "enum ICS23.HashOp",
                      "name": "hash",
                      "type": "uint8"
                    },
                    {
                      "internalType": "enum ICS23.HashOp",
                      "name": "prehash_key",
                      "type": "uint8"
                    },
                    {
                      "internalType": "enum ICS23.HashOp",
                      "name": "prehash_value",
                      "type": "uint8"
                    },
                    {
                      "internalType": "enum ICS23.LengthOp",
                      "name": "len",
                      "type": "uint8"
                    },
                    {
                      "internalType": "bytes",
                      "name": "prefix",
                      "type": "bytes"
                    }
                  ],
                  "internalType": "struct ICS23.LeafOp",
                  "name": "leaf",
                  "type": "tuple"
                },
                {
                  "components": [
                    {
                      "internalType": "bool",
                      "name": "valid",
                      "type": "bool"
                    },
                    {
                      "internalType": "enum ICS23.HashOp",
                      "name": "hash",
                      "type": "uint8"
                    },
                    {
                      "internalType": "bytes",
                      "name": "prefix",
                      "type": "bytes"
                    },
                    {
                      "internalType": "bytes",
                      "name": "suffix",
                      "type": "bytes"
                    }
                  ],
                  "internalType": "struct ICS23.InnerOp[]",
                  "name": "path",
                  "type": "tuple[]"
                }
              ],
              "internalType": "struct ICS23.ExistenceProof",
              "name": "right",
              "type": "tuple"
            }
          ],
          "internalType": "struct ICS23.NonExistenceProof",
          "name": "proof",
          "type": "tuple"
        },
        {
          "components": [
            {
              "components": [
                {
                  "internalType": "bool",
                  "name": "valid",
                  "type": "bool"
                },
                {
                  "internalType": "enum ICS23.HashOp",
                  "name": "hash",
                  "type": "uint8"
                },
                {
                  "internalType": "enum ICS23.HashOp",
                  "name": "prehash_key",
                  "type": "uint8"
                },
                {
                  "internalType": "enum ICS23.HashOp",
                  "name": "prehash_value",
                  "type": "uint8"
                },
                {
                  "internalType": "enum ICS23.LengthOp",
                  "name": "len",
                  "type": "uint8"
                },
                {
                  "internalType": "bytes",
                  "name": "prefix",
                  "type": "bytes"
                }
              ],
              "internalType": "struct ICS23.LeafOp",
              "name": "leafSpec",
              "type": "tuple"
            },
            {
              "components": [
                {
                  "internalType": "uint256[]",
                  "name": "childOrder",
                  "type": "uint256[]"
                },
                {
                  "internalType": "uint256",
                  "name": "childSize",
                  "type": "uint256"
                },
                {
                  "internalType": "uint256",
                  "name": "minPrefixLength",
                  "type": "uint256"
                },
                {
                  "internalType": "uint256",
                  "name": "maxPrefixLength",
                  "type": "uint256"
                },
                {
                  "internalType": "bytes",
                  "name": "emptyChild",
                  "type": "bytes"
                },
                {
                  "internalType": "enum ICS23.HashOp",
                  "name": "hash",
                  "type": "uint8"
                }
              ],
              "internalType": "struct ICS23.InnerSpec",
              "name": "innerSpec",
              "type": "tuple"
            },
            {
              "internalType": "uint256",
              "name": "maxDepth",
              "type": "uint256"
            },
            {
              "internalType": "uint256",
              "name": "minDepth",
              "type": "uint256"
            }
          ],
          "internalType": "struct ICS23.ProofSpec",
          "name": "spec",
          "type": "tuple"
        },
        {
          "internalType": "bytes",
          "name": "root",
          "type": "bytes"
        },
        {
          "internalType": "bytes",
          "name": "key",
          "type": "bytes"
        }
      ],
      "name": "verifyNonExistence",
      "outputs": [
        {
          "internalType": "bool",
          "name": "",
          "type": "bool"
        }
      ],
      "stateMutability": "pure",
      "type": "function",
      "constant": true
    },
    {
      "inputs": [
        {
          "components": [
            {
              "components": [
                {
                  "internalType": "bool",
                  "name": "valid",
                  "type": "bool"
                },
                {
                  "internalType": "enum ICS23.HashOp",
                  "name": "hash",
                  "type": "uint8"
                },
                {
                  "internalType": "enum ICS23.HashOp",
                  "name": "prehash_key",
                  "type": "uint8"
                },
                {
                  "internalType": "enum ICS23.HashOp",
                  "name": "prehash_value",
                  "type": "uint8"
                },
                {
                  "internalType": "enum ICS23.LengthOp",
                  "name": "len",
                  "type": "uint8"
                },
                {
                  "internalType": "bytes",
                  "name": "prefix",
                  "type": "bytes"
                }
              ],
              "internalType": "struct ICS23.LeafOp",
              "name": "leafSpec",
              "type": "tuple"
            },
            {
              "components": [
                {
                  "internalType": "uint256[]",
                  "name": "childOrder",
                  "type": "uint256[]"
                },
                {
                  "internalType": "uint256",
                  "name": "childSize",
                  "type": "uint256"
                },
                {
                  "internalType": "uint256",
                  "name": "minPrefixLength",
                  "type": "uint256"
                },
                {
                  "internalType": "uint256",
                  "name": "maxPrefixLength",
                  "type": "uint256"
                },
                {
                  "internalType": "bytes",
                  "name": "emptyChild",
                  "type": "bytes"
                },
                {
                  "internalType": "enum ICS23.HashOp",
                  "name": "hash",
                  "type": "uint8"
                }
              ],
              "internalType": "struct ICS23.InnerSpec",
              "name": "innerSpec",
              "type": "tuple"
            },
            {
              "internalType": "uint256",
              "name": "maxDepth",
              "type": "uint256"
            },
            {
              "internalType": "uint256",
              "name": "minDepth",
              "type": "uint256"
            }
          ],
          "internalType": "struct ICS23.ProofSpec",
          "name": "spec",
          "type": "tuple"
        },
        {
          "internalType": "bytes",
          "name": "root",
          "type": "bytes"
        },
        {
          "components": [
            {
              "internalType": "bool",
              "name": "valid",
              "type": "bool"
            },
            {
              "internalType": "bytes",
              "name": "key",
              "type": "bytes"
            },
            {
              "components": [
                {
                  "internalType": "bool",
                  "name": "valid",
                  "type": "bool"
                },
                {
                  "internalType": "bytes",
                  "name": "key",
                  "type": "bytes"
                },
                {
                  "internalType": "bytes",
                  "name": "value",
                  "type": "bytes"
                },
                {
                  "components": [
                    {
                      "internalType": "bool",
                      "name": "valid",
                      "type": "bool"
                    },
                    {
                      "internalType": "enum ICS23.HashOp",
                      "name": "hash",
                      "type": "uint8"
                    },
                    {
                      "internalType": "enum ICS23.HashOp",
                      "name": "prehash_key",
                      "type": "uint8"
                    },
                    {
                      "internalType": "enum ICS23.HashOp",
                      "name": "prehash_value",
                      "type": "uint8"
                    },
                    {
                      "internalType": "enum ICS23.LengthOp",
                      "name": "len",
                      "type": "uint8"
                    },
                    {
                      "internalType": "bytes",
                      "name": "prefix",
                      "type": "bytes"
                    }
                  ],
                  "internalType": "struct ICS23.LeafOp",
                  "name": "leaf",
                  "type": "tuple"
                },
                {
                  "components": [
                    {
                      "internalType": "bool",
                      "name": "valid",
                      "type": "bool"
                    },
                    {
                      "internalType": "enum ICS23.HashOp",
                      "name": "hash",
                      "type": "uint8"
                    },
                    {
                      "internalType": "bytes",
                      "name": "prefix",
                      "type": "bytes"
                    },
                    {
                      "internalType": "bytes",
                      "name": "suffix",
                      "type": "bytes"
                    }
                  ],
                  "internalType": "struct ICS23.InnerOp[]",
                  "name": "path",
                  "type": "tuple[]"
                }
              ],
              "internalType": "struct ICS23.ExistenceProof",
              "name": "left",
              "type": "tuple"
            },
            {
              "components": [
                {
                  "internalType": "bool",
                  "name": "valid",
                  "type": "bool"
                },
                {
                  "internalType": "bytes",
                  "name": "key",
                  "type": "bytes"
                },
                {
                  "internalType": "bytes",
                  "name": "value",
                  "type": "bytes"
                },
                {
                  "components": [
                    {
                      "internalType": "bool",
                      "name": "valid",
                      "type": "bool"
                    },
                    {
                      "internalType": "enum ICS23.HashOp",
                      "name": "hash",
                      "type": "uint8"
                    },
                    {
                      "internalType": "enum ICS23.HashOp",
                      "name": "prehash_key",
                      "type": "uint8"
                    },
                    {
                      "internalType": "enum ICS23.HashOp",
                      "name": "prehash_value",
                      "type": "uint8"
                    },
                    {
                      "internalType": "enum ICS23.LengthOp",
                      "name": "len",
                      "type": "uint8"
                    },
                    {
                      "internalType": "bytes",
                      "name": "prefix",
                      "type": "bytes"
                    }
                  ],
                  "internalType": "struct ICS23.LeafOp",
                  "name": "leaf",
                  "type": "tuple"
                },
                {
                  "components": [
                    {
                      "internalType": "bool",
                      "name": "valid",
                      "type": "bool"
                    },
                    {
                      "internalType": "enum ICS23.HashOp",
                      "name": "hash",
                      "type": "uint8"
                    },
                    {
                      "internalType": "bytes",
                      "name": "prefix",
                      "type": "bytes"
                    },
                    {
                      "internalType": "bytes",
                      "name": "suffix",
                      "type": "bytes"
                    }
                  ],
                  "internalType": "struct ICS23.InnerOp[]",
                  "name": "path",
                  "type": "tuple[]"
                }
              ],
              "internalType": "struct ICS23.ExistenceProof",
              "name": "right",
              "type": "tuple"
            }
          ],
          "internalType": "struct ICS23.NonExistenceProof",
          "name": "proof",
          "type": "tuple"
        },
        {
          "internalType": "bytes",
          "name": "key",
          "type": "bytes"
        }
      ],
      "name": "verifyNonMembership",
      "outputs": [
        {
          "internalType": "bool",
          "name": "",
          "type": "bool"
        }
      ],
      "stateMutability": "pure",
      "type": "function",
      "constant": true
    },
    {
      "inputs": [
        {
          "components": [
            {
              "internalType": "bool",
              "name": "valid",
              "type": "bool"
            },
            {
              "internalType": "bytes",
              "name": "key",
              "type": "bytes"
            },
            {
              "internalType": "bytes",
              "name": "value",
              "type": "bytes"
            },
            {
              "components": [
                {
                  "internalType": "bool",
                  "name": "valid",
                  "type": "bool"
                },
                {
                  "internalType": "enum ICS23.HashOp",
                  "name": "hash",
                  "type": "uint8"
                },
                {
                  "internalType": "enum ICS23.HashOp",
                  "name": "prehash_key",
                  "type": "uint8"
                },
                {
                  "internalType": "enum ICS23.HashOp",
                  "name": "prehash_value",
                  "type": "uint8"
                },
                {
                  "internalType": "enum ICS23.LengthOp",
                  "name": "len",
                  "type": "uint8"
                },
                {
                  "internalType": "bytes",
                  "name": "prefix",
                  "type": "bytes"
                }
              ],
              "internalType": "struct ICS23.LeafOp",
              "name": "leaf",
              "type": "tuple"
            },
            {
              "components": [
                {
                  "internalType": "bool",
                  "name": "valid",
                  "type": "bool"
                },
                {
                  "internalType": "enum ICS23.HashOp",
                  "name": "hash",
                  "type": "uint8"
                },
                {
                  "internalType": "bytes",
                  "name": "prefix",
                  "type": "bytes"
                },
                {
                  "internalType": "bytes",
                  "name": "suffix",
                  "type": "bytes"
                }
              ],
              "internalType": "struct ICS23.InnerOp[]",
              "name": "path",
              "type": "tuple[]"
            }
          ],
          "internalType": "struct ICS23.ExistenceProof",
          "name": "existenceProof",
          "type": "tuple"
        },
        {
          "internalType": "bytes",
          "name": "rootBz",
          "type": "bytes"
        },
        {
          "internalType": "bytes",
          "name": "pathBz",
          "type": "bytes"
        },
        {
          "internalType": "bytes",
          "name": "value",
          "type": "bytes"
        }
      ],
      "name": "changeOwnerWithProof",
      "outputs": [
        {
          "internalType": "bool",
          "name": "",
          "type": "bool"
        }
      ],
      "stateMutability": "nonpayable",
      "type": "function"
    }
  ],
  "bytecode": "0x60806040526040518060c00160405280600115158152602001600160058111156200002f576200002e62000274565b5b8152602001600060058111156200004b576200004a62000274565b5b81526020016001600581111562000067576200006662000274565b5b81526020016001600881111562000083576200008262000274565b5b815260200160405180604001604052806001815260200160008152508152506000808201518160000160006101000a81548160ff02191690831515021790555060208201518160000160016101000a81548160ff02191690836005811115620000f157620000f062000274565b5b021790555060408201518160000160026101000a81548160ff0219169083600581111562000124576200012362000274565b5b021790555060608201518160000160036101000a81548160ff0219169083600581111562000157576200015662000274565b5b021790555060808201518160000160046101000a81548160ff021916908360088111156200018a576200018962000274565b5b021790555060a0820151816001019080519060200190620001ad929190620001c4565b505050348015620001bd57600080fd5b5062000308565b828054620001d290620002d2565b90600052602060002090601f016020900481019282620001f6576000855562000242565b82601f106200021157805160ff191683800117855562000242565b8280016001018555821562000242579182015b828111156200024157825182559160200191906001019062000224565b5b50905062000251919062000255565b5090565b5b808211156200027057600081600090555060010162000256565b5090565b7f4e487b7100000000000000000000000000000000000000000000000000000000600052602160045260246000fd5b7f4e487b7100000000000000000000000000000000000000000000000000000000600052602260045260246000fd5b60006002820490506001821680620002eb57607f821691505b60208210811415620003025762000301620002a3565b5b50919050565b61461d80620003186000396000f3fe608060405234801561001057600080fd5b506004361061018e5760003560e01c8063901d0e15116100de578063b6446a5f11610097578063e189ffa911610071578063e189ffa9146105b5578063e5c341e2146105e5578063fbc2674d14610615578063fd29e20a146106455761018e565b8063b6446a5f14610525578063d259183d14610555578063d48f1e4f146105855761018e565b8063901d0e1514610405578063951c0b90146104355780639c854fbe146104655780639d18a11514610495578063af630bb1146104c5578063b4219c6f146104f55761018e565b80633e339c301161014b57806367bb8e811161012557806367bb8e811461034557806370b175c31461037557806372aaf3df146103a557806383ead07c146103d55761018e565b80633e339c30146102b5578063452e99a3146102e55780634cac70ff146103155761018e565b806303801174146101935780630d4383f4146101c35780631e63e931146101f55780632f1cf26214610225578063356e77ff14610255578063382fd85f14610285575b600080fd5b6101ad60048036038101906101a891906122ae565b610675565b6040516101ba9190612392565b60405180910390f35b6101dd60048036038101906101d89190612594565b6106bf565b6040516101ec939291906125ff565b60405180910390f35b61020f600480360381019061020a9190612636565b610756565b60405161021c9190612692565b60405180910390f35b61023f600480360381019061023a9190612876565b6107bb565b60405161024c919061292c565b60405180910390f35b61026f600480360381019061026a9190612947565b610953565b60405161027c9190612692565b60405180910390f35b61029f600480360381019061029a9190612b9c565b6109be565b6040516102ac919061292c565b60405180910390f35b6102cf60048036038101906102ca9190612ca3565b610b7d565b6040516102dc919061292c565b60405180910390f35b6102ff60048036038101906102fa9190612daa565b610b97565b60405161030c919061292c565b60405180910390f35b61032f600480360381019061032a9190612eb1565b610bf4565b60405161033c919061292c565b60405180910390f35b61035f600480360381019061035a9190612f29565b610cc2565b60405161036c9190612392565b60405180910390f35b61038f600480360381019061038a9190612f85565b610e5d565b60405161039c919061292c565b60405180910390f35b6103bf60048036038101906103ba919061305c565b610efb565b6040516103cc9190612392565b60405180910390f35b6103ef60048036038101906103ea91906130d4565b610f53565b6040516103fc919061292c565b60405180910390f35b61041f600480360381019061041a9190612eb1565b610fe6565b60405161042c919061292c565b60405180910390f35b61044f600480360381019061044a91906130d4565b6110a5565b60405161045c919061292c565b60405180910390f35b61047f600480360381019061047a919061314c565b611121565b60405161048c919061292c565b60405180910390f35b6104af60048036038101906104aa91906131cf565b611162565b6040516104bc919061292c565b60405180910390f35b6104df60048036038101906104da9190613247565b6112e1565b6040516104ec9190612392565b60405180910390f35b61050f600480360381019061050a91906132ee565b611375565b60405161051c919061292c565b60405180910390f35b61053f600480360381019061053a9190613511565b6113ac565b60405161054c919061292c565b60405180910390f35b61056f600480360381019061056a9190612eb1565b61158a565b60405161057c919061365f565b60405180910390f35b61059f600480360381019061059a91906122ae565b611755565b6040516105ac9190612392565b60405180910390f35b6105cf60048036038101906105ca919061375b565b611a17565b6040516105dc91906137bd565b60405180910390f35b6105ff60048036038101906105fa91906137d8565b611a29565b60405161060c9190612392565b60405180910390f35b61062f600480360381019061062a9190613821565b611a9d565b60405161063c919061292c565b60405180910390f35b61065f600480360381019061065a91906138f8565b611ab5565b60405161066c9190612392565b60405180910390f35b60606000600581111561068b5761068a6135e8565b5b83600581111561069e5761069d6135e8565b5b14156106ac578190506106b9565b6106b68383611755565b90505b92915050565b6000806000806106d3866000015186610756565b905060008660200151826106e79190613996565b905060008760400151826106fb91906139f0565b9050600088606001518361070f91906139f0565b9050600089602001518560018c600001515161072b9190613a46565b6107359190613a46565b61073f9190613996565b905082828297509750975050505050509250925092565b60008251821061076557600080fd5b60005b83518110156107af578284828151811061078557610784613a7a565b5b6020026020010151141561079c57809150506107b5565b80806107a790613aa9565b915050610768565b50600080fd5b92915050565b600080600190505b610821848286516107d49190613a46565b815181106107e5576107e4613a7a565b5b602002602001015160400151848386516107ff9190613a46565b815181106108105761080f613a7a565b5b602002602001015160400151610bf4565b80156108875750610886848286516108399190613a46565b8151811061084a57610849613a7a565b5b602002602001015160600151848386516108649190613a46565b8151811061087557610874613a7a565b5b602002602001015160600151610bf4565b5b1561089f57808061089790613aa9565b9150506107c3565b6000848286516108af9190613a46565b815181106108c0576108bf613a7a565b5b602002602001015190506000848386516108da9190613a46565b815181106108eb576108ea613a7a565b5b60200260200101519050610900878383611375565b610910576000935050505061094c565b61091a8787610f53565b61092a576000935050505061094c565b61093487866110a5565b610944576000935050505061094c565b600193505050505b9392505050565b600080836000015151905060005b818110156109b257600080600061097888856106bf565b92509250925061098a87848484611121565b1561099c5783955050505050506109b8565b50505080806109aa90613aa9565b915050610961565b50600080fd5b92915050565b6000610b7260006040518060c00160405290816000820160009054906101000a900460ff161515151581526020016000820160019054906101000a900460ff166005811115610a1057610a0f6135e8565b5b6005811115610a2257610a216135e8565b5b81526020016000820160029054906101000a900460ff166005811115610a4b57610a4a6135e8565b5b6005811115610a5d57610a5c6135e8565b5b81526020016000820160039054906101000a900460ff166005811115610a8657610a856135e8565b5b6005811115610a9857610a976135e8565b5b81526020016000820160049054906101000a900460ff166008811115610ac157610ac06135e8565b5b6008811115610ad357610ad26135e8565b5b8152602001600182018054610ae790613b21565b80601f0160208091040260200160405190810160405280929190818152602001828054610b1390613b21565b8015610b605780601f10610b3557610100808354040283529160200191610b60565b820191906000526020600020905b815481529060010190602001808311610b4357829003601f168201915b50505050508152505086848787610b7d565b905095945050505050565b6000610b8c8487878686610b97565b905095945050505050565b6000610ba38686611162565b8015610bb95750610bb8838760200151610bf4565b5b8015610bcf5750610bce828760400151610bf4565b5b8015610be95750610be8610be287611a29565b85610bf4565b5b905095945050505050565b60008151835114610c085760009050610cbc565b60005b8351811015610cb657828181518110610c2757610c26613a7a565b5b602001015160f81c60f81b7effffffffffffffffffffffffffffffffffffffffffffffffffffffffffffff1916848281518110610c6757610c66613a7a565b5b602001015160f81c60f81b7effffffffffffffffffffffffffffffffffffffffffffffffffffffffffffff191614610ca3576000915050610cbc565b8080610cae90613aa9565b915050610c0b565b50600190505b92915050565b606060006008811115610cd857610cd76135e8565b5b836008811115610ceb57610cea6135e8565b5b1415610cf957819050610e57565b60016008811115610d0d57610d0c6135e8565b5b836008811115610d2057610d1f6135e8565b5b1415610d975760008251905060808110610d6d576080607f821617600782901c91508184604051602001610d5693929190613bd2565b604051602081830303815290604052915050610e57565b8083604051602001610d80929190613c0b565b604051602081830303815290604052915050610e57565b60076008811115610dab57610daa6135e8565b5b836008811115610dbe57610dbd6135e8565b5b1415610dda576020825114610dd257600080fd5b819050610e57565b600880811115610ded57610dec6135e8565b5b836008811115610e0057610dff6135e8565b5b1415610e1c576040825114610e1457600080fd5b819050610e57565b6040517f08c379a0000000000000000000000000000000000000000000000000000000008152600401610e4e90613cb6565b60405180910390fd5b92915050565b60003073ffffffffffffffffffffffffffffffffffffffff16633e339c306000868887876040518663ffffffff1660e01b8152600401610ea1959493929190614223565b60206040518083038186803b158015610eb957600080fd5b505afa158015610ecd573d6000803e3d6000fd5b505050506040513d601f19601f82011682018060405250810190610ef191906142ae565b9050949350505050565b6060600082511415610f0c57600080fd5b60008360400151838560600151604051602001610f2b939291906142db565b6040516020818303038152906040529050610f4a846020015182611755565b91505092915050565b6000806001846000015151610f689190613a46565b90506000806000610f7987856106bf565b92509250925060005b8651811015610fd657610fb1878281518110610fa157610fa0613a7a565b5b6020026020010151858585611121565b610fc357600095505050505050610fe0565b8080610fce90613aa9565b915050610f82565b5060019450505050505b92915050565b600080600090505b82518110156110995782818151811061100a57611009613a7a565b5b602001015160f81c60f81b7effffffffffffffffffffffffffffffffffffffffffffffffffffffffffffff191684828151811061104a57611049613a7a565b5b602001015160f81c60f81b7effffffffffffffffffffffffffffffffffffffffffffffffffffffffffffff19161461108657600091505061109f565b808061109190613aa9565b915050610fee565b50600190505b92915050565b6000806000806110b68660006106bf565b92509250925060005b8551811015611112576110ee8682815181106110de576110dd613a7a565b5b6020026020010151858585611121565b6110ff57600094505050505061111b565b808061110a90613aa9565b9150506110bf565b50600193505050505b92915050565b6000838560400151511015611139576000905061115a565b82856040015151111561114f576000905061115a565b818560600151511490505b949350505050565b60008160200151600581111561117b5761117a6135e8565b5b8360600151602001516005811115611196576111956135e8565b5b1480156111d25750816040015160058111156111b5576111b46135e8565b5b83606001516040015160058111156111d0576111cf6135e8565b5b145b801561120d5750816060015160058111156111f0576111ef6135e8565b5b836060015160600151600581111561120b5761120a6135e8565b5b145b801561124857508160800151600881111561122b5761122a6135e8565b5b8360600151608001516008811115611246576112456135e8565b5b145b80156112665750611265836060015160a001518360a00151610fe6565b5b61127357600090506112db565b60005b8360800151518110156112d5576112b38460800151828151811061129d5761129c613a7a565b5b6020026020010151604001518460a00151610fe6565b156112c25760009150506112db565b80806112cd90613aa9565b915050611276565b50600190505b92915050565b60606000835114156112f257600080fd5b60008251141561130157600080fd5b60006113168560400151866080015186611ab5565b9050600061132d8660600151876080015186611ab5565b905060008660a00151838360405160200161134a939291906142db565b6040516020818303038152906040529050611369876020015182611755565b93505050509392505050565b6000806113828585610953565b905060006113908685610953565b9050806001836113a091906139f0565b14925050509392505050565b60008460400151600001511580156113ca5750846060015160000151155b156113d85760009050611582565b8460400151600001511561145f5761140b8560400151856000015185886040015160200151896040015160400151610b97565b6114185760009050611582565b6000600281111561142c5761142b6135e8565b5b61143e8387606001516020015161158a565b60028111156114505761144f6135e8565b5b1461145e5760009050611582565b5b846060015160000151156114e5576114928560600151856000015185886060015160200151896060015160400151610b97565b61149f5760009050611582565b6002808111156114b2576114b16135e8565b5b6114c48387604001516020015161158a565b60028111156114d6576114d56135e8565b5b146114e45760009050611582565b5b84604001516000015161151a5761150884602001518660600151608001516110a5565b6115155760009050611582565b61157d565b84606001516000015161154f5761153d8460200151866040015160800151610f53565b61154a5760009050611582565b61157c565b61156e84602001518660400151608001518760600151608001516107bb565b61157b5760009050611582565b5b5b600190505b949350505050565b600080600090505b8351811080156115a25750825181105b156116da578281815181106115ba576115b9613a7a565b5b602001015160f81c60f81b7effffffffffffffffffffffffffffffffffffffffffffffffffffffffffffff19168482815181106115fa576115f9613a7a565b5b602001015160f81c60f81b7effffffffffffffffffffffffffffffffffffffffffffffffffffffffffffff1916101561163757600091505061174f565b82818151811061164a57611649613a7a565b5b602001015160f81c60f81b7effffffffffffffffffffffffffffffffffffffffffffffffffffffffffffff191684828151811061168a57611689613a7a565b5b602001015160f81c60f81b7effffffffffffffffffffffffffffffffffffffffffffffffffffffffffffff191611156116c757600291505061174f565b80806116d290613aa9565b915050611592565b508151835114156116ee576001905061174f565b815183511015611701576000905061174f565b815183511115611714576002905061174f565b6040517f08c379a000000000000000000000000000000000000000000000000000000000815260040161174690614358565b60405180910390fd5b92915050565b60606003600581111561176b5761176a6135e8565b5b83600581111561177e5761177d6135e8565b5b14156117b257818051906020012060405160200161179c9190614399565b6040516020818303038152906040529050611a11565b600160058111156117c6576117c56135e8565b5b8360058111156117d9576117d86135e8565b5b1415611855576002826040516117ef91906143b4565b602060405180830381855afa15801561180c573d6000803e3d6000fd5b5050506040513d601f19601f8201168201806040525081019061182f91906143f7565b60405160200161183f9190614399565b6040516020818303038152906040529050611a11565b60046005811115611869576118686135e8565b5b83600581111561187c5761187b6135e8565b5b14156118df5760038260405161189291906143b4565b602060405180830381855afa1580156118af573d6000803e3d6000fd5b5050506040515160601b6040516020016118c99190614471565b6040516020818303038152906040529050611a11565b6005808111156118f2576118f16135e8565b5b836005811115611905576119046135e8565b5b14156119d657600360028360405161191d91906143b4565b602060405180830381855afa15801561193a573d6000803e3d6000fd5b5050506040513d601f19601f8201168201806040525081019061195d91906143f7565b60405160200161196d9190614399565b60405160208183030381529060405260405161198991906143b4565b602060405180830381855afa1580156119a6573d6000803e3d6000fd5b5050506040515160601b6040516020016119c09190614471565b6040516020818303038152906040529050611a11565b6040517f08c379a0000000000000000000000000000000000000000000000000000000008152600401611a08906144fe565b60405180910390fd5b92915050565b6000611a2282611adf565b9050919050565b60606000611a448360600151846020015185604001516112e1565b905060005b836080015151811015611a9357611a7e84608001518281518110611a7057611a6f613a7a565b5b602002602001015183610efb565b91508080611a8b90613aa9565b915050611a49565b5080915050919050565b6000611aab838686856113ac565b9050949350505050565b60606000611ac38584610675565b90506000611ad18583610cc2565b905080925050509392505050565b600080825190506000811415611b94576002600067ffffffffffffffff811115611b0c57611b0b612183565b5b6040519080825280601f01601f191660200182016040528015611b3e5781602001600182028036833780820191505090505b50604051611b4c91906143b4565b602060405180830381855afa158015611b69573d6000803e3d6000fd5b5050506040513d601f19601f82011682018060405250810190611b8c91906143f7565b915050611c17565b6001811415611bc957611bc183600081518110611bb457611bb3613a7a565b5b6020026020010151611c1c565b915050611c17565b6000611bd58451611da7565b90506000611bed611be886600085611e38565b611adf565b90506000611c04611bff878587611e38565b611adf565b9050611c108282611f06565b9450505050505b919050565b60008060018351611c2d91906139f0565b67ffffffffffffffff811115611c4657611c45612183565b5b6040519080825280601f01601f191660200182016040528015611c785781602001600182028036833780820191505090505b509050600060f81b81600081518110611c9457611c93613a7a565b5b60200101907effffffffffffffffffffffffffffffffffffffffffffffffffffffffffffff1916908160001a90535060005b8351811015611d4e57838181518110611ce257611ce1613a7a565b5b602001015160f81c60f81b82600183611cfb91906139f0565b81518110611d0c57611d0b613a7a565b5b60200101907effffffffffffffffffffffffffffffffffffffffffffffffffffffffffffff1916908160001a9053508080611d4690613aa9565b915050611cc6565b50600281604051611d5f91906143b4565b602060405180830381855afa158015611d7c573d6000803e3d6000fd5b5050506040513d601f19601f82011682018060405250810190611d9f91906143f7565b915050919050565b60006001821015611ded576040517f08c379a0000000000000000000000000000000000000000000000000000000008152600401611de490614590565b60405180910390fd5b6001821415611dff5760009050611e33565b6000600190505b82600282611e149190613996565b1015611e2e57600281611e279190613996565b9050611e06565b809150505b919050565b606060008383611e489190613a46565b67ffffffffffffffff811115611e6157611e60612183565b5b604051908082528060200260200182016040528015611e9457816020015b6060815260200190600190039081611e7f5790505b50905060005b8151811015611efa57858186611eb091906139f0565b81518110611ec157611ec0613a7a565b5b6020026020010151828281518110611edc57611edb613a7a565b5b60200260200101819052508080611ef290613aa9565b915050611e9a565b50809150509392505050565b6000806001602080611f1891906145b0565b611f2291906145b0565b60ff1667ffffffffffffffff811115611f3e57611f3d612183565b5b6040519080825280601f01601f191660200182016040528015611f705781602001600182028036833780820191505090505b509050600160f81b81600081518110611f8c57611f8b613a7a565b5b60200101907effffffffffffffffffffffffffffffffffffffffffffffffffffffffffffff1916908160001a90535060006001905060005b602060ff1681101561204a57858160208110611fe357611fe2613a7a565b5b1a60f81b838381518110611ffa57611ff9613a7a565b5b60200101907effffffffffffffffffffffffffffffffffffffffffffffffffffffffffffff1916908160001a905350818061203490613aa9565b925050808061204290613aa9565b915050611fc4565b5060005b602060ff168110156120d45784816020811061206d5761206c613a7a565b5b1a60f81b83838151811061208457612083613a7a565b5b60200101907effffffffffffffffffffffffffffffffffffffffffffffffffffffffffffff1916908160001a90535081806120be90613aa9565b92505080806120cc90613aa9565b91505061204e565b506002826040516120e591906143b4565b602060405180830381855afa158015612102573d6000803e3d6000fd5b5050506040513d601f19601f8201168201806040525081019061212591906143f7565b9250505092915050565b6000604051905090565b600080fd5b600080fd5b6006811061215057600080fd5b50565b60008135905061216281612143565b92915050565b600080fd5b600080fd5b6000601f19601f8301169050919050565b7f4e487b7100000000000000000000000000000000000000000000000000000000600052604160045260246000fd5b6121bb82612172565b810181811067ffffffffffffffff821117156121da576121d9612183565b5b80604052505050565b60006121ed61212f565b90506121f982826121b2565b919050565b600067ffffffffffffffff82111561221957612218612183565b5b61222282612172565b9050602081019050919050565b82818337600083830152505050565b600061225161224c846121fe565b6121e3565b90508281526020810184848401111561226d5761226c61216d565b5b61227884828561222f565b509392505050565b600082601f83011261229557612294612168565b5b81356122a584826020860161223e565b91505092915050565b600080604083850312156122c5576122c4612139565b5b60006122d385828601612153565b925050602083013567ffffffffffffffff8111156122f4576122f361213e565b5b61230085828601612280565b9150509250929050565b600081519050919050565b600082825260208201905092915050565b60005b83811015612344578082015181840152602081019050612329565b83811115612353576000848401525b50505050565b60006123648261230a565b61236e8185612315565b935061237e818560208601612326565b61238781612172565b840191505092915050565b600060208201905081810360008301526123ac8184612359565b905092915050565b600080fd5b600080fd5b600067ffffffffffffffff8211156123d9576123d8612183565b5b602082029050602081019050919050565b600080fd5b6000819050919050565b612402816123ef565b811461240d57600080fd5b50565b60008135905061241f816123f9565b92915050565b6000612438612433846123be565b6121e3565b9050808382526020820190506020840283018581111561245b5761245a6123ea565b5b835b8181101561248457806124708882612410565b84526020840193505060208101905061245d565b5050509392505050565b600082601f8301126124a3576124a2612168565b5b81356124b3848260208601612425565b91505092915050565b600060c082840312156124d2576124d16123b4565b5b6124dc60c06121e3565b9050600082013567ffffffffffffffff8111156124fc576124fb6123b9565b5b6125088482850161248e565b600083015250602061251c84828501612410565b602083015250604061253084828501612410565b604083015250606061254484828501612410565b606083015250608082013567ffffffffffffffff811115612568576125676123b9565b5b61257484828501612280565b60808301525060a061258884828501612153565b60a08301525092915050565b600080604083850312156125ab576125aa612139565b5b600083013567ffffffffffffffff8111156125c9576125c861213e565b5b6125d5858286016124bc565b92505060206125e685828601612410565b9150509250929050565b6125f9816123ef565b82525050565b600060608201905061261460008301866125f0565b61262160208301856125f0565b61262e60408301846125f0565b949350505050565b6000806040838503121561264d5761264c612139565b5b600083013567ffffffffffffffff81111561266b5761266a61213e565b5b6126778582860161248e565b925050602061268885828601612410565b9150509250929050565b60006020820190506126a760008301846125f0565b92915050565b600067ffffffffffffffff8211156126c8576126c7612183565b5b602082029050602081019050919050565b60008115159050919050565b6126ee816126d9565b81146126f957600080fd5b50565b60008135905061270b816126e5565b92915050565b600060808284031215612727576127266123b4565b5b61273160806121e3565b90506000612741848285016126fc565b600083015250602061275584828501612153565b602083015250604082013567ffffffffffffffff811115612779576127786123b9565b5b61278584828501612280565b604083015250606082013567ffffffffffffffff8111156127a9576127a86123b9565b5b6127b584828501612280565b60608301525092915050565b60006127d46127cf846126ad565b6121e3565b905080838252602082019050602084028301858111156127f7576127f66123ea565b5b835b8181101561283e57803567ffffffffffffffff81111561281c5761281b612168565b5b8086016128298982612711565b855260208501945050506020810190506127f9565b5050509392505050565b600082601f83011261285d5761285c612168565b5b813561286d8482602086016127c1565b91505092915050565b60008060006060848603121561288f5761288e612139565b5b600084013567ffffffffffffffff8111156128ad576128ac61213e565b5b6128b9868287016124bc565b935050602084013567ffffffffffffffff8111156128da576128d961213e565b5b6128e686828701612848565b925050604084013567ffffffffffffffff8111156129075761290661213e565b5b61291386828701612848565b9150509250925092565b612926816126d9565b82525050565b6000602082019050612941600083018461291d565b92915050565b6000806040838503121561295e5761295d612139565b5b600083013567ffffffffffffffff81111561297c5761297b61213e565b5b612988858286016124bc565b925050602083013567ffffffffffffffff8111156129a9576129a861213e565b5b6129b585828601612711565b9150509250929050565b600981106129cc57600080fd5b50565b6000813590506129de816129bf565b92915050565b600060c082840312156129fa576129f96123b4565b5b612a0460c06121e3565b90506000612a14848285016126fc565b6000830152506020612a2884828501612153565b6020830152506040612a3c84828501612153565b6040830152506060612a5084828501612153565b6060830152506080612a64848285016129cf565b60808301525060a082013567ffffffffffffffff811115612a8857612a876123b9565b5b612a9484828501612280565b60a08301525092915050565b600060a08284031215612ab657612ab56123b4565b5b612ac060a06121e3565b90506000612ad0848285016126fc565b600083015250602082013567ffffffffffffffff811115612af457612af36123b9565b5b612b0084828501612280565b602083015250604082013567ffffffffffffffff811115612b2457612b236123b9565b5b612b3084828501612280565b604083015250606082013567ffffffffffffffff811115612b5457612b536123b9565b5b612b60848285016129e4565b606083015250608082013567ffffffffffffffff811115612b8457612b836123b9565b5b612b9084828501612848565b60808301525092915050565b600080600080600060a08688031215612bb857612bb7612139565b5b600086013567ffffffffffffffff811115612bd657612bd561213e565b5b612be288828901612280565b955050602086013567ffffffffffffffff811115612c0357612c0261213e565b5b612c0f88828901612280565b945050604086013567ffffffffffffffff811115612c3057612c2f61213e565b5b612c3c88828901612280565b935050606086013567ffffffffffffffff811115612c5d57612c5c61213e565b5b612c6988828901612280565b925050608086013567ffffffffffffffff811115612c8a57612c8961213e565b5b612c9688828901612aa0565b9150509295509295909350565b600080600080600060a08688031215612cbf57612cbe612139565b5b600086013567ffffffffffffffff811115612cdd57612cdc61213e565b5b612ce9888289016129e4565b955050602086013567ffffffffffffffff811115612d0a57612d0961213e565b5b612d1688828901612280565b945050604086013567ffffffffffffffff811115612d3757612d3661213e565b5b612d4388828901612aa0565b935050606086013567ffffffffffffffff811115612d6457612d6361213e565b5b612d7088828901612280565b925050608086013567ffffffffffffffff811115612d9157612d9061213e565b5b612d9d88828901612280565b9150509295509295909350565b600080600080600060a08688031215612dc657612dc5612139565b5b600086013567ffffffffffffffff811115612de457612de361213e565b5b612df088828901612aa0565b955050602086013567ffffffffffffffff811115612e1157612e1061213e565b5b612e1d888289016129e4565b945050604086013567ffffffffffffffff811115612e3e57612e3d61213e565b5b612e4a88828901612280565b935050606086013567ffffffffffffffff811115612e6b57612e6a61213e565b5b612e7788828901612280565b925050608086013567ffffffffffffffff811115612e9857612e9761213e565b5b612ea488828901612280565b9150509295509295909350565b60008060408385031215612ec857612ec7612139565b5b600083013567ffffffffffffffff811115612ee657612ee561213e565b5b612ef285828601612280565b925050602083013567ffffffffffffffff811115612f1357612f1261213e565b5b612f1f85828601612280565b9150509250929050565b60008060408385031215612f4057612f3f612139565b5b6000612f4e858286016129cf565b925050602083013567ffffffffffffffff811115612f6f57612f6e61213e565b5b612f7b85828601612280565b9150509250929050565b60008060008060808587031215612f9f57612f9e612139565b5b600085013567ffffffffffffffff811115612fbd57612fbc61213e565b5b612fc987828801612aa0565b945050602085013567ffffffffffffffff811115612fea57612fe961213e565b5b612ff687828801612280565b935050604085013567ffffffffffffffff8111156130175761301661213e565b5b61302387828801612280565b925050606085013567ffffffffffffffff8111156130445761304361213e565b5b61305087828801612280565b91505092959194509250565b6000806040838503121561307357613072612139565b5b600083013567ffffffffffffffff8111156130915761309061213e565b5b61309d85828601612711565b925050602083013567ffffffffffffffff8111156130be576130bd61213e565b5b6130ca85828601612280565b9150509250929050565b600080604083850312156130eb576130ea612139565b5b600083013567ffffffffffffffff8111156131095761310861213e565b5b613115858286016124bc565b925050602083013567ffffffffffffffff8111156131365761313561213e565b5b61314285828601612848565b9150509250929050565b6000806000806080858703121561316657613165612139565b5b600085013567ffffffffffffffff8111156131845761318361213e565b5b61319087828801612711565b94505060206131a187828801612410565b93505060406131b287828801612410565b92505060606131c387828801612410565b91505092959194509250565b600080604083850312156131e6576131e5612139565b5b600083013567ffffffffffffffff8111156132045761320361213e565b5b61321085828601612aa0565b925050602083013567ffffffffffffffff8111156132315761323061213e565b5b61323d858286016129e4565b9150509250929050565b6000806000606084860312156132605761325f612139565b5b600084013567ffffffffffffffff81111561327e5761327d61213e565b5b61328a868287016129e4565b935050602084013567ffffffffffffffff8111156132ab576132aa61213e565b5b6132b786828701612280565b925050604084013567ffffffffffffffff8111156132d8576132d761213e565b5b6132e486828701612280565b9150509250925092565b60008060006060848603121561330757613306612139565b5b600084013567ffffffffffffffff8111156133255761332461213e565b5b613331868287016124bc565b935050602084013567ffffffffffffffff8111156133525761335161213e565b5b61335e86828701612711565b925050604084013567ffffffffffffffff81111561337f5761337e61213e565b5b61338b86828701612711565b9150509250925092565b6000608082840312156133ab576133aa6123b4565b5b6133b560806121e3565b905060006133c5848285016126fc565b600083015250602082013567ffffffffffffffff8111156133e9576133e86123b9565b5b6133f584828501612280565b602083015250604082013567ffffffffffffffff811115613419576134186123b9565b5b61342584828501612aa0565b604083015250606082013567ffffffffffffffff811115613449576134486123b9565b5b61345584828501612aa0565b60608301525092915050565b600060808284031215613477576134766123b4565b5b61348160806121e3565b9050600082013567ffffffffffffffff8111156134a1576134a06123b9565b5b6134ad848285016129e4565b600083015250602082013567ffffffffffffffff8111156134d1576134d06123b9565b5b6134dd848285016124bc565b60208301525060406134f184828501612410565b604083015250606061350584828501612410565b60608301525092915050565b6000806000806080858703121561352b5761352a612139565b5b600085013567ffffffffffffffff8111156135495761354861213e565b5b61355587828801613395565b945050602085013567ffffffffffffffff8111156135765761357561213e565b5b61358287828801613461565b935050604085013567ffffffffffffffff8111156135a3576135a261213e565b5b6135af87828801612280565b925050606085013567ffffffffffffffff8111156135d0576135cf61213e565b5b6135dc87828801612280565b91505092959194509250565b7f4e487b7100000000000000000000000000000000000000000000000000000000600052602160045260246000fd5b60038110613628576136276135e8565b5b50565b600081905061363982613617565b919050565b60006136498261362b565b9050919050565b6136598161363e565b82525050565b60006020820190506136746000830184613650565b92915050565b600067ffffffffffffffff82111561369557613694612183565b5b602082029050602081019050919050565b60006136b96136b48461367a565b6121e3565b905080838252602082019050602084028301858111156136dc576136db6123ea565b5b835b8181101561372357803567ffffffffffffffff81111561370157613700612168565b5b80860161370e8982612280565b855260208501945050506020810190506136de565b5050509392505050565b600082601f83011261374257613741612168565b5b81356137528482602086016136a6565b91505092915050565b60006020828403121561377157613770612139565b5b600082013567ffffffffffffffff81111561378f5761378e61213e565b5b61379b8482850161372d565b91505092915050565b6000819050919050565b6137b7816137a4565b82525050565b60006020820190506137d260008301846137ae565b92915050565b6000602082840312156137ee576137ed612139565b5b600082013567ffffffffffffffff81111561380c5761380b61213e565b5b61381884828501612aa0565b91505092915050565b6000806000806080858703121561383b5761383a612139565b5b600085013567ffffffffffffffff8111156138595761385861213e565b5b61386587828801613461565b945050602085013567ffffffffffffffff8111156138865761388561213e565b5b61389287828801612280565b935050604085013567ffffffffffffffff8111156138b3576138b261213e565b5b6138bf87828801613395565b925050606085013567ffffffffffffffff8111156138e0576138df61213e565b5b6138ec87828801612280565b91505092959194509250565b60008060006060848603121561391157613910612139565b5b600061391f86828701612153565b9350506020613930868287016129cf565b925050604084013567ffffffffffffffff8111156139515761395061213e565b5b61395d86828701612280565b9150509250925092565b7f4e487b7100000000000000000000000000000000000000000000000000000000600052601160045260246000fd5b60006139a1826123ef565b91506139ac836123ef565b9250817fffffffffffffffffffffffffffffffffffffffffffffffffffffffffffffffff04831182151516156139e5576139e4613967565b5b828202905092915050565b60006139fb826123ef565b9150613a06836123ef565b9250827fffffffffffffffffffffffffffffffffffffffffffffffffffffffffffffffff03821115613a3b57613a3a613967565b5b828201905092915050565b6000613a51826123ef565b9150613a5c836123ef565b925082821015613a6f57613a6e613967565b5b828203905092915050565b7f4e487b7100000000000000000000000000000000000000000000000000000000600052603260045260246000fd5b6000613ab4826123ef565b91507fffffffffffffffffffffffffffffffffffffffffffffffffffffffffffffffff821415613ae757613ae6613967565b5b600182019050919050565b7f4e487b7100000000000000000000000000000000000000000000000000000000600052602260045260246000fd5b60006002820490506001821680613b3957607f821691505b60208210811415613b4d57613b4c613af2565b5b50919050565b600060ff82169050919050565b60008160f81b9050919050565b6000613b7882613b60565b9050919050565b613b90613b8b82613b53565b613b6d565b82525050565b600081905092915050565b6000613bac8261230a565b613bb68185613b96565b9350613bc6818560208601612326565b80840191505092915050565b6000613bde8286613b7f565b600182019150613bee8285613b7f565b600182019150613bfe8284613ba1565b9150819050949350505050565b6000613c178285613b7f565b600182019150613c278284613ba1565b91508190509392505050565b600082825260208201905092915050565b7f696e76616c6964206f7220756e737570706f72746564206c656e677468206f7060008201527f65726174696f6e00000000000000000000000000000000000000000000000000602082015250565b6000613ca0602783613c33565b9150613cab82613c44565b604082019050919050565b60006020820190508181036000830152613ccf81613c93565b9050919050565b60008160001c9050919050565b600060ff82169050919050565b6000613d03613cfe83613cd6565b613ce3565b9050919050565b613d13816126d9565b82525050565b60008160081c9050919050565b600060ff82169050919050565b6000613d46613d4183613d19565b613d26565b9050919050565b60068110613d5e57613d5d6135e8565b5b50565b6000819050613d6f82613d4d565b919050565b6000613d7f82613d61565b9050919050565b613d8f81613d74565b82525050565b60008160101c9050919050565b6000613db5613db083613d95565b613d26565b9050919050565b60008160181c9050919050565b6000613ddc613dd783613dbc565b613d26565b9050919050565b60008160201c9050919050565b600060ff82169050919050565b6000613e10613e0b83613de3565b613df0565b9050919050565b60098110613e2857613e276135e8565b5b50565b6000819050613e3982613e17565b919050565b6000613e4982613e2b565b9050919050565b613e5981613e3e565b82525050565b600082825260208201905092915050565b60008190508160005260206000209050919050565b60008154613e9281613b21565b613e9c8186613e5f565b94506001821660008114613eb75760018114613ec957613efc565b60ff1983168652602086019350613efc565b613ed285613e70565b60005b83811015613ef457815481890152600182019150602081019050613ed5565b808801955050505b50505092915050565b600060c083016000808401549050613f1c81613cf0565b613f296000870182613d0a565b50613f3381613d33565b613f406020870182613d86565b50613f4a81613da2565b613f576040870182613d86565b50613f6181613dc9565b613f6e6060870182613d86565b50613f7881613dfd565b613f856080870182613e50565b506001840185830360a0870152613f9c8382613e85565b925050819250505092915050565b6000613fb58261230a565b613fbf8185613e5f565b9350613fcf818560208601612326565b613fd881612172565b840191505092915050565b600060c083016000830151613ffb6000860182613d0a565b50602083015161400e6020860182613d86565b5060408301516140216040860182613d86565b5060608301516140346060860182613d86565b5060808301516140476080860182613e50565b5060a083015184820360a086015261405f8282613faa565b9150508091505092915050565b600081519050919050565b600082825260208201905092915050565b6000819050602082019050919050565b60006080830160008301516140b06000860182613d0a565b5060208301516140c36020860182613d86565b50604083015184820360408601526140db8282613faa565b915050606083015184820360608601526140f58282613faa565b9150508091505092915050565b600061410e8383614098565b905092915050565b6000602082019050919050565b600061412e8261406c565b6141388185614077565b93508360208202850161414a85614088565b8060005b8581101561418657848403895281516141678582614102565b945061417283614116565b925060208a0199505060018101905061414e565b50829750879550505050505092915050565b600060a0830160008301516141b06000860182613d0a565b50602083015184820360208601526141c88282613faa565b915050604083015184820360408601526141e28282613faa565b915050606083015184820360608601526141fc8282613fe3565b915050608083015184820360808601526142168282614123565b9150508091505092915050565b600060a082019050818103600083015261423d8188613f05565b905081810360208301526142518187612359565b905081810360408301526142658186614198565b905081810360608301526142798185612359565b9050818103608083015261428d8184612359565b90509695505050505050565b6000815190506142a8816126e5565b92915050565b6000602082840312156142c4576142c3612139565b5b60006142d284828501614299565b91505092915050565b60006142e78286613ba1565b91506142f38285613ba1565b91506142ff8284613ba1565b9150819050949350505050565b7f73686f756c64206e6f742072656163682074686973206c696e65000000000000600082015250565b6000614342601a83613c33565b915061434d8261430c565b602082019050919050565b6000602082019050818103600083015261437181614335565b9050919050565b6000819050919050565b61439361438e826137a4565b614378565b82525050565b60006143a58284614382565b60208201915081905092915050565b60006143c08284613ba1565b915081905092915050565b6143d4816137a4565b81146143df57600080fd5b50565b6000815190506143f1816143cb565b92915050565b60006020828403121561440d5761440c612139565b5b600061441b848285016143e2565b91505092915050565b60007fffffffffffffffffffffffffffffffffffffffff00000000000000000000000082169050919050565b6000819050919050565b61446b61446682614424565b614450565b82525050565b600061447d828461445a565b60148201915081905092915050565b7f696e76616c6964206f7220756e737570706f727465642068617368206f70657260008201527f6174696f6e000000000000000000000000000000000000000000000000000000602082015250565b60006144e8602583613c33565b91506144f38261448c565b604082019050919050565b60006020820190508181036000830152614517816144db565b9050919050565b7f547279696e6720746f2073706c69742061207472656520776974682073697a6560008201527f203c203100000000000000000000000000000000000000000000000000000000602082015250565b600061457a602483613c33565b91506145858261451e565b604082019050919050565b600060208201905081810360008301526145a98161456d565b9050919050565b60006145bb82613b53565b91506145c683613b53565b92508260ff038211156145dc576145db613967565b5b82820190509291505056fea26469706673582212202bd9e0dfb729190a4cb52f966adf06dcfe4ecb1bc7ee7041b7435e4d5f5dcabf64736f6c63430008090033",
  "immutableReferences": {},
  "source": "// SPDX-License-Identifier: MIT\npragma solidity ^0.8.7;\n\nimport \"../ICredentialRegistry.sol\";\nimport \"../ICrossmint.sol\";\nimport \"../IClaimsVerifier.sol\";\nimport \"@openzeppelin/contracts/access/Ownable.sol\";\nimport \"@openzeppelin/contracts/token/ERC20/IERC20.sol\";\n// import \"@openzeppelin/contracts/token/ERC20/IERC721Receiver.sol\";\nimport \"@openzeppelin/contracts/token/ERC721/ERC721.sol\";\nimport \"@openzeppelin/contracts/token/ERC721/extensions/ERC721Burnable.sol\";\nimport \"@openzeppelin/contracts/token/ERC721/extensions/ERC721Pausable.sol\";\nimport \"@openzeppelin/contracts/token/ERC721/extensions/ERC721URIStorage.sol\";\nimport \"@openzeppelin/contracts/utils/Counters.sol\";\nimport \"./ICS23Verifier.sol\";\n\ncontract AnconMetadataOwnableBridge is ICS23Verifier {\n\n\n    event CrossMintCallbackReceived(\n        address indexed newOwner,\n        string indexed metadataHash,\n        uint256 indexed tokenId\n    );\n\n    constructor(\n    ) public {\n     }\n\n \n \n    /**\n     * changeOwnerWithProof\n     */\n    function changeOwnerWithProof(\n        ExistenceProof memory existenceProof,\n        bytes memory rootBz,\n        bytes memory pathBz,\n        bytes memory value\n    ) public returns (bool) {\n        // verify permit exists, has not revoked, has valid issuer and is not expired\n        return this.verifyMembership(iavlSpec, rootBz, existenceProof, pathBz, value);\n        // verify token exists\n        //_execute(vc.data);\n    }\n\n    function _execute(bytes memory data) internal returns (bool){\n        // ERC721(tokenAddress)\n        (\n            string memory metadata,\n            address to,\n            address newOwner,\n            address fromOwner,\n            uint256 id,\n            bool isNew\n        ) = abi.decode(\n                data,\n                (string, address, address, address, uint256, bool)\n            );\n        ERC721 nft = ERC721(to);\n\n        require(nft.ownerOf(id) == fromOwner, \"Invalid token id\");\n\n        if (isNew) {\n            // todo: should mint\n        } else {\n            nft.safeTransferFrom(fromOwner, newOwner, id, data);\n        }\n\n        emit CrossMintCallbackReceived(newOwner, metadata, id);\n\n        return true;\n    }\n}\n",
  "sourcePath": "/home/rogelio/Code/ancon-protocol/ethereum/contracts/ancon/AnconMetadataOwnableBridge.sol",
  "compiler": {
    "name": "solc",
    "version": "0.8.9+commit.e5eed63a.Emscripten.clang"
  },
  "schemaVersion": "3.4.3",
  "updatedAt": "2021-10-15T18:52:29.791Z",
  "networkType": "ethereum",
  "devdoc": {
    "kind": "dev",
    "methods": {},
    "version": 1
  },
  "userdoc": {
    "kind": "user",
    "methods": {
      "changeOwnerWithProof((bool,bytes,bytes,(bool,uint8,uint8,uint8,uint8,bytes),(bool,uint8,bytes,bytes)[]),bytes,bytes,bytes)": {
        "notice": "changeOwnerWithProof"
      }
    },
    "version": 1
  }
}