{
  "contractName": "AnconMetadataOwnableBridge",
  "abi": [
    {
      "inputs": [],
      "stateMutability": "nonpayable",
      "type": "constructor"
    },
    {
      "anonymous": false,
      "inputs": [
        {
          "indexed": true,
          "internalType": "address",
          "name": "newOwner",
          "type": "address"
        },
        {
          "indexed": true,
          "internalType": "string",
          "name": "metadataHash",
          "type": "string"
        },
        {
          "indexed": true,
          "internalType": "uint256",
          "name": "tokenId",
          "type": "uint256"
        }
      ],
      "name": "CrossMintCallbackReceived",
      "type": "event"
    },
    {
      "inputs": [
        {
          "components": [
            {
              "internalType": "bool",
              "name": "valid",
              "type": "bool"
            },
            {
              "internalType": "enum ICS23.HashOp",
              "name": "hash",
              "type": "uint8"
            },
            {
              "internalType": "bytes",
              "name": "prefix",
              "type": "bytes"
            },
            {
              "internalType": "bytes",
              "name": "suffix",
              "type": "bytes"
            }
          ],
          "internalType": "struct ICS23.InnerOp",
          "name": "op",
          "type": "tuple"
        },
        {
          "internalType": "bytes",
          "name": "child",
          "type": "bytes"
        }
      ],
      "name": "applyInner",
      "outputs": [
        {
          "internalType": "bytes",
          "name": "",
          "type": "bytes"
        }
      ],
      "stateMutability": "pure",
      "type": "function"
    },
    {
      "inputs": [
        {
          "components": [
            {
              "internalType": "bool",
              "name": "valid",
              "type": "bool"
            },
            {
              "internalType": "enum ICS23.HashOp",
              "name": "hash",
              "type": "uint8"
            },
            {
              "internalType": "enum ICS23.HashOp",
              "name": "prehash_key",
              "type": "uint8"
            },
            {
              "internalType": "enum ICS23.HashOp",
              "name": "prehash_value",
              "type": "uint8"
            },
            {
              "internalType": "enum ICS23.LengthOp",
              "name": "len",
              "type": "uint8"
            },
            {
              "internalType": "bytes",
              "name": "prefix",
              "type": "bytes"
            }
          ],
          "internalType": "struct ICS23.LeafOp",
          "name": "op",
          "type": "tuple"
        },
        {
          "internalType": "bytes",
          "name": "key",
          "type": "bytes"
        },
        {
          "internalType": "bytes",
          "name": "value",
          "type": "bytes"
        }
      ],
      "name": "applyLeaf",
      "outputs": [
        {
          "internalType": "bytes",
          "name": "",
          "type": "bytes"
        }
      ],
      "stateMutability": "pure",
      "type": "function"
    },
    {
      "inputs": [
        {
          "components": [
            {
              "internalType": "bool",
              "name": "valid",
              "type": "bool"
            },
            {
              "internalType": "bytes",
              "name": "key",
              "type": "bytes"
            },
            {
              "internalType": "bytes",
              "name": "value",
              "type": "bytes"
            },
            {
              "components": [
                {
                  "internalType": "bool",
                  "name": "valid",
                  "type": "bool"
                },
                {
                  "internalType": "enum ICS23.HashOp",
                  "name": "hash",
                  "type": "uint8"
                },
                {
                  "internalType": "enum ICS23.HashOp",
                  "name": "prehash_key",
                  "type": "uint8"
                },
                {
                  "internalType": "enum ICS23.HashOp",
                  "name": "prehash_value",
                  "type": "uint8"
                },
                {
                  "internalType": "enum ICS23.LengthOp",
                  "name": "len",
                  "type": "uint8"
                },
                {
                  "internalType": "bytes",
                  "name": "prefix",
                  "type": "bytes"
                }
              ],
              "internalType": "struct ICS23.LeafOp",
              "name": "leaf",
              "type": "tuple"
            },
            {
              "components": [
                {
                  "internalType": "bool",
                  "name": "valid",
                  "type": "bool"
                },
                {
                  "internalType": "enum ICS23.HashOp",
                  "name": "hash",
                  "type": "uint8"
                },
                {
                  "internalType": "bytes",
                  "name": "prefix",
                  "type": "bytes"
                },
                {
                  "internalType": "bytes",
                  "name": "suffix",
                  "type": "bytes"
                }
              ],
              "internalType": "struct ICS23.InnerOp[]",
              "name": "path",
              "type": "tuple[]"
            }
          ],
          "internalType": "struct ICS23.ExistenceProof",
          "name": "proof",
          "type": "tuple"
        }
      ],
      "name": "calculate",
      "outputs": [
        {
          "internalType": "bytes",
          "name": "",
          "type": "bytes"
        }
      ],
      "stateMutability": "pure",
      "type": "function"
    },
    {
      "inputs": [
        {
          "components": [
            {
              "internalType": "bool",
              "name": "valid",
              "type": "bool"
            },
            {
              "internalType": "bytes",
              "name": "key",
              "type": "bytes"
            },
            {
              "internalType": "bytes",
              "name": "value",
              "type": "bytes"
            },
            {
              "components": [
                {
                  "internalType": "bool",
                  "name": "valid",
                  "type": "bool"
                },
                {
                  "internalType": "enum ICS23.HashOp",
                  "name": "hash",
                  "type": "uint8"
                },
                {
                  "internalType": "enum ICS23.HashOp",
                  "name": "prehash_key",
                  "type": "uint8"
                },
                {
                  "internalType": "enum ICS23.HashOp",
                  "name": "prehash_value",
                  "type": "uint8"
                },
                {
                  "internalType": "enum ICS23.LengthOp",
                  "name": "len",
                  "type": "uint8"
                },
                {
                  "internalType": "bytes",
                  "name": "prefix",
                  "type": "bytes"
                }
              ],
              "internalType": "struct ICS23.LeafOp",
              "name": "leaf",
              "type": "tuple"
            },
            {
              "components": [
                {
                  "internalType": "bool",
                  "name": "valid",
                  "type": "bool"
                },
                {
                  "internalType": "enum ICS23.HashOp",
                  "name": "hash",
                  "type": "uint8"
                },
                {
                  "internalType": "bytes",
                  "name": "prefix",
                  "type": "bytes"
                },
                {
                  "internalType": "bytes",
                  "name": "suffix",
                  "type": "bytes"
                }
              ],
              "internalType": "struct ICS23.InnerOp[]",
              "name": "path",
              "type": "tuple[]"
            }
          ],
          "internalType": "struct ICS23.ExistenceProof",
          "name": "proof",
          "type": "tuple"
        },
        {
          "components": [
            {
              "internalType": "bool",
              "name": "valid",
              "type": "bool"
            },
            {
              "internalType": "enum ICS23.HashOp",
              "name": "hash",
              "type": "uint8"
            },
            {
              "internalType": "enum ICS23.HashOp",
              "name": "prehash_key",
              "type": "uint8"
            },
            {
              "internalType": "enum ICS23.HashOp",
              "name": "prehash_value",
              "type": "uint8"
            },
            {
              "internalType": "enum ICS23.LengthOp",
              "name": "len",
              "type": "uint8"
            },
            {
              "internalType": "bytes",
              "name": "prefix",
              "type": "bytes"
            }
          ],
          "internalType": "struct ICS23.LeafOp",
          "name": "spec",
          "type": "tuple"
        }
      ],
      "name": "checkAgainstSpec",
      "outputs": [
        {
          "internalType": "bool",
          "name": "",
          "type": "bool"
        }
      ],
      "stateMutability": "pure",
      "type": "function"
    },
    {
      "inputs": [
        {
          "internalType": "bytes",
          "name": "bz1",
          "type": "bytes"
        },
        {
          "internalType": "bytes",
          "name": "bz2",
          "type": "bytes"
        }
      ],
      "name": "compareBytes",
      "outputs": [
        {
          "internalType": "enum ICS23.Ordering",
          "name": "",
          "type": "uint8"
        }
      ],
      "stateMutability": "pure",
      "type": "function"
    },
    {
      "inputs": [
        {
          "internalType": "enum ICS23.HashOp",
          "name": "op",
          "type": "uint8"
        },
        {
          "internalType": "bytes",
          "name": "preimage",
          "type": "bytes"
        }
      ],
      "name": "doHash",
      "outputs": [
        {
          "internalType": "bytes",
          "name": "",
          "type": "bytes"
        }
      ],
      "stateMutability": "pure",
      "type": "function"
    },
    {
      "inputs": [
        {
          "internalType": "enum ICS23.HashOp",
          "name": "op",
          "type": "uint8"
        },
        {
          "internalType": "bytes",
          "name": "preimage",
          "type": "bytes"
        }
      ],
      "name": "doHashOrNoop",
      "outputs": [
        {
          "internalType": "bytes",
          "name": "",
          "type": "bytes"
        }
      ],
      "stateMutability": "pure",
      "type": "function"
    },
    {
      "inputs": [
        {
          "internalType": "enum ICS23.LengthOp",
          "name": "op",
          "type": "uint8"
        },
        {
          "internalType": "bytes",
          "name": "data",
          "type": "bytes"
        }
      ],
      "name": "doLength",
      "outputs": [
        {
          "internalType": "bytes",
          "name": "",
          "type": "bytes"
        }
      ],
      "stateMutability": "pure",
      "type": "function"
    },
    {
      "inputs": [
        {
          "internalType": "bytes",
          "name": "bz1",
          "type": "bytes"
        },
        {
          "internalType": "bytes",
          "name": "bz2",
          "type": "bytes"
        }
      ],
      "name": "equalBytes",
      "outputs": [
        {
          "internalType": "bool",
          "name": "",
          "type": "bool"
        }
      ],
      "stateMutability": "pure",
      "type": "function"
    },
    {
      "inputs": [
        {
          "components": [
            {
              "internalType": "uint256[]",
              "name": "childOrder",
              "type": "uint256[]"
            },
            {
              "internalType": "uint256",
              "name": "childSize",
              "type": "uint256"
            },
            {
              "internalType": "uint256",
              "name": "minPrefixLength",
              "type": "uint256"
            },
            {
              "internalType": "uint256",
              "name": "maxPrefixLength",
              "type": "uint256"
            },
            {
              "internalType": "bytes",
              "name": "emptyChild",
              "type": "bytes"
            },
            {
              "internalType": "enum ICS23.HashOp",
              "name": "hash",
              "type": "uint8"
            }
          ],
          "internalType": "struct ICS23.InnerSpec",
          "name": "spec",
          "type": "tuple"
        },
        {
          "internalType": "uint256",
          "name": "branch",
          "type": "uint256"
        }
      ],
      "name": "getPadding",
      "outputs": [
        {
          "internalType": "uint256",
          "name": "",
          "type": "uint256"
        },
        {
          "internalType": "uint256",
          "name": "",
          "type": "uint256"
        },
        {
          "internalType": "uint256",
          "name": "",
          "type": "uint256"
        }
      ],
      "stateMutability": "pure",
      "type": "function"
    },
    {
      "inputs": [
        {
          "internalType": "uint256[]",
          "name": "order",
          "type": "uint256[]"
        },
        {
          "internalType": "uint256",
          "name": "branch",
          "type": "uint256"
        }
      ],
      "name": "getPosition",
      "outputs": [
        {
          "internalType": "uint256",
          "name": "",
          "type": "uint256"
        }
      ],
      "stateMutability": "pure",
      "type": "function"
    },
    {
      "inputs": [
        {
          "components": [
            {
              "internalType": "bool",
              "name": "valid",
              "type": "bool"
            },
            {
              "internalType": "enum ICS23.HashOp",
              "name": "hash",
              "type": "uint8"
            },
            {
              "internalType": "bytes",
              "name": "prefix",
              "type": "bytes"
            },
            {
              "internalType": "bytes",
              "name": "suffix",
              "type": "bytes"
            }
          ],
          "internalType": "struct ICS23.InnerOp",
          "name": "op",
          "type": "tuple"
        },
        {
          "internalType": "uint256",
          "name": "minPrefix",
          "type": "uint256"
        },
        {
          "internalType": "uint256",
          "name": "maxPrefix",
          "type": "uint256"
        },
        {
          "internalType": "uint256",
          "name": "suffix",
          "type": "uint256"
        }
      ],
      "name": "hasPadding",
      "outputs": [
        {
          "internalType": "bool",
          "name": "",
          "type": "bool"
        }
      ],
      "stateMutability": "pure",
      "type": "function"
    },
    {
      "inputs": [
        {
          "internalType": "bytes[]",
          "name": "data",
          "type": "bytes[]"
        }
      ],
      "name": "hashFromByteSlices",
      "outputs": [
        {
          "internalType": "bytes32",
          "name": "",
          "type": "bytes32"
        }
      ],
      "stateMutability": "pure",
      "type": "function"
    },
    {
      "inputs": [
        {
          "internalType": "bytes",
          "name": "s",
          "type": "bytes"
        },
        {
          "internalType": "bytes",
          "name": "prefix",
          "type": "bytes"
        }
      ],
      "name": "hasprefix",
      "outputs": [
        {
          "internalType": "bool",
          "name": "",
          "type": "bool"
        }
      ],
      "stateMutability": "pure",
      "type": "function"
    },
    {
      "inputs": [
        {
          "components": [
            {
              "internalType": "uint256[]",
              "name": "childOrder",
              "type": "uint256[]"
            },
            {
              "internalType": "uint256",
              "name": "childSize",
              "type": "uint256"
            },
            {
              "internalType": "uint256",
              "name": "minPrefixLength",
              "type": "uint256"
            },
            {
              "internalType": "uint256",
              "name": "maxPrefixLength",
              "type": "uint256"
            },
            {
              "internalType": "bytes",
              "name": "emptyChild",
              "type": "bytes"
            },
            {
              "internalType": "enum ICS23.HashOp",
              "name": "hash",
              "type": "uint8"
            }
          ],
          "internalType": "struct ICS23.InnerSpec",
          "name": "spec",
          "type": "tuple"
        },
        {
          "components": [
            {
              "internalType": "bool",
              "name": "valid",
              "type": "bool"
            },
            {
              "internalType": "enum ICS23.HashOp",
              "name": "hash",
              "type": "uint8"
            },
            {
              "internalType": "bytes",
              "name": "prefix",
              "type": "bytes"
            },
            {
              "internalType": "bytes",
              "name": "suffix",
              "type": "bytes"
            }
          ],
          "internalType": "struct ICS23.InnerOp[]",
          "name": "path",
          "type": "tuple[]"
        }
      ],
      "name": "isLeftMost",
      "outputs": [
        {
          "internalType": "bool",
          "name": "",
          "type": "bool"
        }
      ],
      "stateMutability": "pure",
      "type": "function"
    },
    {
      "inputs": [
        {
          "components": [
            {
              "internalType": "uint256[]",
              "name": "childOrder",
              "type": "uint256[]"
            },
            {
              "internalType": "uint256",
              "name": "childSize",
              "type": "uint256"
            },
            {
              "internalType": "uint256",
              "name": "minPrefixLength",
              "type": "uint256"
            },
            {
              "internalType": "uint256",
              "name": "maxPrefixLength",
              "type": "uint256"
            },
            {
              "internalType": "bytes",
              "name": "emptyChild",
              "type": "bytes"
            },
            {
              "internalType": "enum ICS23.HashOp",
              "name": "hash",
              "type": "uint8"
            }
          ],
          "internalType": "struct ICS23.InnerSpec",
          "name": "spec",
          "type": "tuple"
        },
        {
          "components": [
            {
              "internalType": "bool",
              "name": "valid",
              "type": "bool"
            },
            {
              "internalType": "enum ICS23.HashOp",
              "name": "hash",
              "type": "uint8"
            },
            {
              "internalType": "bytes",
              "name": "prefix",
              "type": "bytes"
            },
            {
              "internalType": "bytes",
              "name": "suffix",
              "type": "bytes"
            }
          ],
          "internalType": "struct ICS23.InnerOp[]",
          "name": "left",
          "type": "tuple[]"
        },
        {
          "components": [
            {
              "internalType": "bool",
              "name": "valid",
              "type": "bool"
            },
            {
              "internalType": "enum ICS23.HashOp",
              "name": "hash",
              "type": "uint8"
            },
            {
              "internalType": "bytes",
              "name": "prefix",
              "type": "bytes"
            },
            {
              "internalType": "bytes",
              "name": "suffix",
              "type": "bytes"
            }
          ],
          "internalType": "struct ICS23.InnerOp[]",
          "name": "right",
          "type": "tuple[]"
        }
      ],
      "name": "isLeftNeighbor",
      "outputs": [
        {
          "internalType": "bool",
          "name": "",
          "type": "bool"
        }
      ],
      "stateMutability": "pure",
      "type": "function"
    },
    {
      "inputs": [
        {
          "components": [
            {
              "internalType": "uint256[]",
              "name": "childOrder",
              "type": "uint256[]"
            },
            {
              "internalType": "uint256",
              "name": "childSize",
              "type": "uint256"
            },
            {
              "internalType": "uint256",
              "name": "minPrefixLength",
              "type": "uint256"
            },
            {
              "internalType": "uint256",
              "name": "maxPrefixLength",
              "type": "uint256"
            },
            {
              "internalType": "bytes",
              "name": "emptyChild",
              "type": "bytes"
            },
            {
              "internalType": "enum ICS23.HashOp",
              "name": "hash",
              "type": "uint8"
            }
          ],
          "internalType": "struct ICS23.InnerSpec",
          "name": "spec",
          "type": "tuple"
        },
        {
          "components": [
            {
              "internalType": "bool",
              "name": "valid",
              "type": "bool"
            },
            {
              "internalType": "enum ICS23.HashOp",
              "name": "hash",
              "type": "uint8"
            },
            {
              "internalType": "bytes",
              "name": "prefix",
              "type": "bytes"
            },
            {
              "internalType": "bytes",
              "name": "suffix",
              "type": "bytes"
            }
          ],
          "internalType": "struct ICS23.InnerOp",
          "name": "left",
          "type": "tuple"
        },
        {
          "components": [
            {
              "internalType": "bool",
              "name": "valid",
              "type": "bool"
            },
            {
              "internalType": "enum ICS23.HashOp",
              "name": "hash",
              "type": "uint8"
            },
            {
              "internalType": "bytes",
              "name": "prefix",
              "type": "bytes"
            },
            {
              "internalType": "bytes",
              "name": "suffix",
              "type": "bytes"
            }
          ],
          "internalType": "struct ICS23.InnerOp",
          "name": "right",
          "type": "tuple"
        }
      ],
      "name": "isLeftStep",
      "outputs": [
        {
          "internalType": "bool",
          "name": "",
          "type": "bool"
        }
      ],
      "stateMutability": "pure",
      "type": "function"
    },
    {
      "inputs": [
        {
          "components": [
            {
              "internalType": "uint256[]",
              "name": "childOrder",
              "type": "uint256[]"
            },
            {
              "internalType": "uint256",
              "name": "childSize",
              "type": "uint256"
            },
            {
              "internalType": "uint256",
              "name": "minPrefixLength",
              "type": "uint256"
            },
            {
              "internalType": "uint256",
              "name": "maxPrefixLength",
              "type": "uint256"
            },
            {
              "internalType": "bytes",
              "name": "emptyChild",
              "type": "bytes"
            },
            {
              "internalType": "enum ICS23.HashOp",
              "name": "hash",
              "type": "uint8"
            }
          ],
          "internalType": "struct ICS23.InnerSpec",
          "name": "spec",
          "type": "tuple"
        },
        {
          "components": [
            {
              "internalType": "bool",
              "name": "valid",
              "type": "bool"
            },
            {
              "internalType": "enum ICS23.HashOp",
              "name": "hash",
              "type": "uint8"
            },
            {
              "internalType": "bytes",
              "name": "prefix",
              "type": "bytes"
            },
            {
              "internalType": "bytes",
              "name": "suffix",
              "type": "bytes"
            }
          ],
          "internalType": "struct ICS23.InnerOp[]",
          "name": "path",
          "type": "tuple[]"
        }
      ],
      "name": "isRightMost",
      "outputs": [
        {
          "internalType": "bool",
          "name": "",
          "type": "bool"
        }
      ],
      "stateMutability": "pure",
      "type": "function"
    },
    {
      "inputs": [
        {
          "components": [
            {
              "internalType": "uint256[]",
              "name": "childOrder",
              "type": "uint256[]"
            },
            {
              "internalType": "uint256",
              "name": "childSize",
              "type": "uint256"
            },
            {
              "internalType": "uint256",
              "name": "minPrefixLength",
              "type": "uint256"
            },
            {
              "internalType": "uint256",
              "name": "maxPrefixLength",
              "type": "uint256"
            },
            {
              "internalType": "bytes",
              "name": "emptyChild",
              "type": "bytes"
            },
            {
              "internalType": "enum ICS23.HashOp",
              "name": "hash",
              "type": "uint8"
            }
          ],
          "internalType": "struct ICS23.InnerSpec",
          "name": "spec",
          "type": "tuple"
        },
        {
          "components": [
            {
              "internalType": "bool",
              "name": "valid",
              "type": "bool"
            },
            {
              "internalType": "enum ICS23.HashOp",
              "name": "hash",
              "type": "uint8"
            },
            {
              "internalType": "bytes",
              "name": "prefix",
              "type": "bytes"
            },
            {
              "internalType": "bytes",
              "name": "suffix",
              "type": "bytes"
            }
          ],
          "internalType": "struct ICS23.InnerOp",
          "name": "op",
          "type": "tuple"
        }
      ],
      "name": "orderFromPadding",
      "outputs": [
        {
          "internalType": "uint256",
          "name": "",
          "type": "uint256"
        }
      ],
      "stateMutability": "pure",
      "type": "function"
    },
    {
      "inputs": [
        {
          "internalType": "enum ICS23.HashOp",
          "name": "hashop",
          "type": "uint8"
        },
        {
          "internalType": "enum ICS23.LengthOp",
          "name": "lengthop",
          "type": "uint8"
        },
        {
          "internalType": "bytes",
          "name": "data",
          "type": "bytes"
        }
      ],
      "name": "prepareLeafData",
      "outputs": [
        {
          "internalType": "bytes",
          "name": "",
          "type": "bytes"
        }
      ],
      "stateMutability": "pure",
      "type": "function"
    },
    {
      "inputs": [
        {
          "components": [
            {
              "internalType": "bool",
              "name": "valid",
              "type": "bool"
            },
            {
              "internalType": "bytes",
              "name": "key",
              "type": "bytes"
            },
            {
              "internalType": "bytes",
              "name": "value",
              "type": "bytes"
            },
            {
              "components": [
                {
                  "internalType": "bool",
                  "name": "valid",
                  "type": "bool"
                },
                {
                  "internalType": "enum ICS23.HashOp",
                  "name": "hash",
                  "type": "uint8"
                },
                {
                  "internalType": "enum ICS23.HashOp",
                  "name": "prehash_key",
                  "type": "uint8"
                },
                {
                  "internalType": "enum ICS23.HashOp",
                  "name": "prehash_value",
                  "type": "uint8"
                },
                {
                  "internalType": "enum ICS23.LengthOp",
                  "name": "len",
                  "type": "uint8"
                },
                {
                  "internalType": "bytes",
                  "name": "prefix",
                  "type": "bytes"
                }
              ],
              "internalType": "struct ICS23.LeafOp",
              "name": "leaf",
              "type": "tuple"
            },
            {
              "components": [
                {
                  "internalType": "bool",
                  "name": "valid",
                  "type": "bool"
                },
                {
                  "internalType": "enum ICS23.HashOp",
                  "name": "hash",
                  "type": "uint8"
                },
                {
                  "internalType": "bytes",
                  "name": "prefix",
                  "type": "bytes"
                },
                {
                  "internalType": "bytes",
                  "name": "suffix",
                  "type": "bytes"
                }
              ],
              "internalType": "struct ICS23.InnerOp[]",
              "name": "path",
              "type": "tuple[]"
            }
          ],
          "internalType": "struct ICS23.ExistenceProof",
          "name": "proof",
          "type": "tuple"
        },
        {
          "components": [
            {
              "internalType": "bool",
              "name": "valid",
              "type": "bool"
            },
            {
              "internalType": "enum ICS23.HashOp",
              "name": "hash",
              "type": "uint8"
            },
            {
              "internalType": "enum ICS23.HashOp",
              "name": "prehash_key",
              "type": "uint8"
            },
            {
              "internalType": "enum ICS23.HashOp",
              "name": "prehash_value",
              "type": "uint8"
            },
            {
              "internalType": "enum ICS23.LengthOp",
              "name": "len",
              "type": "uint8"
            },
            {
              "internalType": "bytes",
              "name": "prefix",
              "type": "bytes"
            }
          ],
          "internalType": "struct ICS23.LeafOp",
          "name": "spec",
          "type": "tuple"
        },
        {
          "internalType": "bytes",
          "name": "root",
          "type": "bytes"
        },
        {
          "internalType": "bytes",
          "name": "key",
          "type": "bytes"
        },
        {
          "internalType": "bytes",
          "name": "value",
          "type": "bytes"
        }
      ],
      "name": "verifyExistence",
      "outputs": [
        {
          "internalType": "bool",
          "name": "",
          "type": "bool"
        }
      ],
      "stateMutability": "pure",
      "type": "function"
    },
    {
      "inputs": [
        {
          "internalType": "bytes",
          "name": "proofBz",
          "type": "bytes"
        },
        {
          "internalType": "bytes",
          "name": "rootBz",
          "type": "bytes"
        },
        {
          "internalType": "bytes",
          "name": "pathBz",
          "type": "bytes"
        },
        {
          "internalType": "bytes",
          "name": "value",
          "type": "bytes"
        },
        {
          "components": [
            {
              "internalType": "bool",
              "name": "valid",
              "type": "bool"
            },
            {
              "internalType": "bytes",
              "name": "key",
              "type": "bytes"
            },
            {
              "internalType": "bytes",
              "name": "value",
              "type": "bytes"
            },
            {
              "components": [
                {
                  "internalType": "bool",
                  "name": "valid",
                  "type": "bool"
                },
                {
                  "internalType": "enum ICS23.HashOp",
                  "name": "hash",
                  "type": "uint8"
                },
                {
                  "internalType": "enum ICS23.HashOp",
                  "name": "prehash_key",
                  "type": "uint8"
                },
                {
                  "internalType": "enum ICS23.HashOp",
                  "name": "prehash_value",
                  "type": "uint8"
                },
                {
                  "internalType": "enum ICS23.LengthOp",
                  "name": "len",
                  "type": "uint8"
                },
                {
                  "internalType": "bytes",
                  "name": "prefix",
                  "type": "bytes"
                }
              ],
              "internalType": "struct ICS23.LeafOp",
              "name": "leaf",
              "type": "tuple"
            },
            {
              "components": [
                {
                  "internalType": "bool",
                  "name": "valid",
                  "type": "bool"
                },
                {
                  "internalType": "enum ICS23.HashOp",
                  "name": "hash",
                  "type": "uint8"
                },
                {
                  "internalType": "bytes",
                  "name": "prefix",
                  "type": "bytes"
                },
                {
                  "internalType": "bytes",
                  "name": "suffix",
                  "type": "bytes"
                }
              ],
              "internalType": "struct ICS23.InnerOp[]",
              "name": "path",
              "type": "tuple[]"
            }
          ],
          "internalType": "struct ICS23.ExistenceProof",
          "name": "proof",
          "type": "tuple"
        }
      ],
      "name": "verifyMembership",
      "outputs": [
        {
          "internalType": "bool",
          "name": "",
          "type": "bool"
        }
      ],
      "stateMutability": "view",
      "type": "function"
    },
    {
      "inputs": [
        {
          "components": [
            {
              "internalType": "bool",
              "name": "valid",
              "type": "bool"
            },
            {
              "internalType": "enum ICS23.HashOp",
              "name": "hash",
              "type": "uint8"
            },
            {
              "internalType": "enum ICS23.HashOp",
              "name": "prehash_key",
              "type": "uint8"
            },
            {
              "internalType": "enum ICS23.HashOp",
              "name": "prehash_value",
              "type": "uint8"
            },
            {
              "internalType": "enum ICS23.LengthOp",
              "name": "len",
              "type": "uint8"
            },
            {
              "internalType": "bytes",
              "name": "prefix",
              "type": "bytes"
            }
          ],
          "internalType": "struct ICS23.LeafOp",
          "name": "spec",
          "type": "tuple"
        },
        {
          "internalType": "bytes",
          "name": "root",
          "type": "bytes"
        },
        {
          "components": [
            {
              "internalType": "bool",
              "name": "valid",
              "type": "bool"
            },
            {
              "internalType": "bytes",
              "name": "key",
              "type": "bytes"
            },
            {
              "internalType": "bytes",
              "name": "value",
              "type": "bytes"
            },
            {
              "components": [
                {
                  "internalType": "bool",
                  "name": "valid",
                  "type": "bool"
                },
                {
                  "internalType": "enum ICS23.HashOp",
                  "name": "hash",
                  "type": "uint8"
                },
                {
                  "internalType": "enum ICS23.HashOp",
                  "name": "prehash_key",
                  "type": "uint8"
                },
                {
                  "internalType": "enum ICS23.HashOp",
                  "name": "prehash_value",
                  "type": "uint8"
                },
                {
                  "internalType": "enum ICS23.LengthOp",
                  "name": "len",
                  "type": "uint8"
                },
                {
                  "internalType": "bytes",
                  "name": "prefix",
                  "type": "bytes"
                }
              ],
              "internalType": "struct ICS23.LeafOp",
              "name": "leaf",
              "type": "tuple"
            },
            {
              "components": [
                {
                  "internalType": "bool",
                  "name": "valid",
                  "type": "bool"
                },
                {
                  "internalType": "enum ICS23.HashOp",
                  "name": "hash",
                  "type": "uint8"
                },
                {
                  "internalType": "bytes",
                  "name": "prefix",
                  "type": "bytes"
                },
                {
                  "internalType": "bytes",
                  "name": "suffix",
                  "type": "bytes"
                }
              ],
              "internalType": "struct ICS23.InnerOp[]",
              "name": "path",
              "type": "tuple[]"
            }
          ],
          "internalType": "struct ICS23.ExistenceProof",
          "name": "proof",
          "type": "tuple"
        },
        {
          "internalType": "bytes",
          "name": "key",
          "type": "bytes"
        },
        {
          "internalType": "bytes",
          "name": "value",
          "type": "bytes"
        }
      ],
      "name": "verifyMembership",
      "outputs": [
        {
          "internalType": "bool",
          "name": "",
          "type": "bool"
        }
      ],
      "stateMutability": "pure",
      "type": "function"
    },
    {
      "inputs": [
        {
          "components": [
            {
              "internalType": "bool",
              "name": "valid",
              "type": "bool"
            },
            {
              "internalType": "bytes",
              "name": "key",
              "type": "bytes"
            },
            {
              "components": [
                {
                  "internalType": "bool",
                  "name": "valid",
                  "type": "bool"
                },
                {
                  "internalType": "bytes",
                  "name": "key",
                  "type": "bytes"
                },
                {
                  "internalType": "bytes",
                  "name": "value",
                  "type": "bytes"
                },
                {
                  "components": [
                    {
                      "internalType": "bool",
                      "name": "valid",
                      "type": "bool"
                    },
                    {
                      "internalType": "enum ICS23.HashOp",
                      "name": "hash",
                      "type": "uint8"
                    },
                    {
                      "internalType": "enum ICS23.HashOp",
                      "name": "prehash_key",
                      "type": "uint8"
                    },
                    {
                      "internalType": "enum ICS23.HashOp",
                      "name": "prehash_value",
                      "type": "uint8"
                    },
                    {
                      "internalType": "enum ICS23.LengthOp",
                      "name": "len",
                      "type": "uint8"
                    },
                    {
                      "internalType": "bytes",
                      "name": "prefix",
                      "type": "bytes"
                    }
                  ],
                  "internalType": "struct ICS23.LeafOp",
                  "name": "leaf",
                  "type": "tuple"
                },
                {
                  "components": [
                    {
                      "internalType": "bool",
                      "name": "valid",
                      "type": "bool"
                    },
                    {
                      "internalType": "enum ICS23.HashOp",
                      "name": "hash",
                      "type": "uint8"
                    },
                    {
                      "internalType": "bytes",
                      "name": "prefix",
                      "type": "bytes"
                    },
                    {
                      "internalType": "bytes",
                      "name": "suffix",
                      "type": "bytes"
                    }
                  ],
                  "internalType": "struct ICS23.InnerOp[]",
                  "name": "path",
                  "type": "tuple[]"
                }
              ],
              "internalType": "struct ICS23.ExistenceProof",
              "name": "left",
              "type": "tuple"
            },
            {
              "components": [
                {
                  "internalType": "bool",
                  "name": "valid",
                  "type": "bool"
                },
                {
                  "internalType": "bytes",
                  "name": "key",
                  "type": "bytes"
                },
                {
                  "internalType": "bytes",
                  "name": "value",
                  "type": "bytes"
                },
                {
                  "components": [
                    {
                      "internalType": "bool",
                      "name": "valid",
                      "type": "bool"
                    },
                    {
                      "internalType": "enum ICS23.HashOp",
                      "name": "hash",
                      "type": "uint8"
                    },
                    {
                      "internalType": "enum ICS23.HashOp",
                      "name": "prehash_key",
                      "type": "uint8"
                    },
                    {
                      "internalType": "enum ICS23.HashOp",
                      "name": "prehash_value",
                      "type": "uint8"
                    },
                    {
                      "internalType": "enum ICS23.LengthOp",
                      "name": "len",
                      "type": "uint8"
                    },
                    {
                      "internalType": "bytes",
                      "name": "prefix",
                      "type": "bytes"
                    }
                  ],
                  "internalType": "struct ICS23.LeafOp",
                  "name": "leaf",
                  "type": "tuple"
                },
                {
                  "components": [
                    {
                      "internalType": "bool",
                      "name": "valid",
                      "type": "bool"
                    },
                    {
                      "internalType": "enum ICS23.HashOp",
                      "name": "hash",
                      "type": "uint8"
                    },
                    {
                      "internalType": "bytes",
                      "name": "prefix",
                      "type": "bytes"
                    },
                    {
                      "internalType": "bytes",
                      "name": "suffix",
                      "type": "bytes"
                    }
                  ],
                  "internalType": "struct ICS23.InnerOp[]",
                  "name": "path",
                  "type": "tuple[]"
                }
              ],
              "internalType": "struct ICS23.ExistenceProof",
              "name": "right",
              "type": "tuple"
            }
          ],
          "internalType": "struct ICS23.NonExistenceProof",
          "name": "proof",
          "type": "tuple"
        },
        {
          "components": [
            {
              "components": [
                {
                  "internalType": "bool",
                  "name": "valid",
                  "type": "bool"
                },
                {
                  "internalType": "enum ICS23.HashOp",
                  "name": "hash",
                  "type": "uint8"
                },
                {
                  "internalType": "enum ICS23.HashOp",
                  "name": "prehash_key",
                  "type": "uint8"
                },
                {
                  "internalType": "enum ICS23.HashOp",
                  "name": "prehash_value",
                  "type": "uint8"
                },
                {
                  "internalType": "enum ICS23.LengthOp",
                  "name": "len",
                  "type": "uint8"
                },
                {
                  "internalType": "bytes",
                  "name": "prefix",
                  "type": "bytes"
                }
              ],
              "internalType": "struct ICS23.LeafOp",
              "name": "leafSpec",
              "type": "tuple"
            },
            {
              "components": [
                {
                  "internalType": "uint256[]",
                  "name": "childOrder",
                  "type": "uint256[]"
                },
                {
                  "internalType": "uint256",
                  "name": "childSize",
                  "type": "uint256"
                },
                {
                  "internalType": "uint256",
                  "name": "minPrefixLength",
                  "type": "uint256"
                },
                {
                  "internalType": "uint256",
                  "name": "maxPrefixLength",
                  "type": "uint256"
                },
                {
                  "internalType": "bytes",
                  "name": "emptyChild",
                  "type": "bytes"
                },
                {
                  "internalType": "enum ICS23.HashOp",
                  "name": "hash",
                  "type": "uint8"
                }
              ],
              "internalType": "struct ICS23.InnerSpec",
              "name": "innerSpec",
              "type": "tuple"
            },
            {
              "internalType": "uint256",
              "name": "maxDepth",
              "type": "uint256"
            },
            {
              "internalType": "uint256",
              "name": "minDepth",
              "type": "uint256"
            }
          ],
          "internalType": "struct ICS23.ProofSpec",
          "name": "spec",
          "type": "tuple"
        },
        {
          "internalType": "bytes",
          "name": "root",
          "type": "bytes"
        },
        {
          "internalType": "bytes",
          "name": "key",
          "type": "bytes"
        }
      ],
      "name": "verifyNonExistence",
      "outputs": [
        {
          "internalType": "bool",
          "name": "",
          "type": "bool"
        }
      ],
      "stateMutability": "pure",
      "type": "function"
    },
    {
      "inputs": [
        {
          "components": [
            {
              "components": [
                {
                  "internalType": "bool",
                  "name": "valid",
                  "type": "bool"
                },
                {
                  "internalType": "enum ICS23.HashOp",
                  "name": "hash",
                  "type": "uint8"
                },
                {
                  "internalType": "enum ICS23.HashOp",
                  "name": "prehash_key",
                  "type": "uint8"
                },
                {
                  "internalType": "enum ICS23.HashOp",
                  "name": "prehash_value",
                  "type": "uint8"
                },
                {
                  "internalType": "enum ICS23.LengthOp",
                  "name": "len",
                  "type": "uint8"
                },
                {
                  "internalType": "bytes",
                  "name": "prefix",
                  "type": "bytes"
                }
              ],
              "internalType": "struct ICS23.LeafOp",
              "name": "leafSpec",
              "type": "tuple"
            },
            {
              "components": [
                {
                  "internalType": "uint256[]",
                  "name": "childOrder",
                  "type": "uint256[]"
                },
                {
                  "internalType": "uint256",
                  "name": "childSize",
                  "type": "uint256"
                },
                {
                  "internalType": "uint256",
                  "name": "minPrefixLength",
                  "type": "uint256"
                },
                {
                  "internalType": "uint256",
                  "name": "maxPrefixLength",
                  "type": "uint256"
                },
                {
                  "internalType": "bytes",
                  "name": "emptyChild",
                  "type": "bytes"
                },
                {
                  "internalType": "enum ICS23.HashOp",
                  "name": "hash",
                  "type": "uint8"
                }
              ],
              "internalType": "struct ICS23.InnerSpec",
              "name": "innerSpec",
              "type": "tuple"
            },
            {
              "internalType": "uint256",
              "name": "maxDepth",
              "type": "uint256"
            },
            {
              "internalType": "uint256",
              "name": "minDepth",
              "type": "uint256"
            }
          ],
          "internalType": "struct ICS23.ProofSpec",
          "name": "spec",
          "type": "tuple"
        },
        {
          "internalType": "bytes",
          "name": "root",
          "type": "bytes"
        },
        {
          "components": [
            {
              "internalType": "bool",
              "name": "valid",
              "type": "bool"
            },
            {
              "internalType": "bytes",
              "name": "key",
              "type": "bytes"
            },
            {
              "components": [
                {
                  "internalType": "bool",
                  "name": "valid",
                  "type": "bool"
                },
                {
                  "internalType": "bytes",
                  "name": "key",
                  "type": "bytes"
                },
                {
                  "internalType": "bytes",
                  "name": "value",
                  "type": "bytes"
                },
                {
                  "components": [
                    {
                      "internalType": "bool",
                      "name": "valid",
                      "type": "bool"
                    },
                    {
                      "internalType": "enum ICS23.HashOp",
                      "name": "hash",
                      "type": "uint8"
                    },
                    {
                      "internalType": "enum ICS23.HashOp",
                      "name": "prehash_key",
                      "type": "uint8"
                    },
                    {
                      "internalType": "enum ICS23.HashOp",
                      "name": "prehash_value",
                      "type": "uint8"
                    },
                    {
                      "internalType": "enum ICS23.LengthOp",
                      "name": "len",
                      "type": "uint8"
                    },
                    {
                      "internalType": "bytes",
                      "name": "prefix",
                      "type": "bytes"
                    }
                  ],
                  "internalType": "struct ICS23.LeafOp",
                  "name": "leaf",
                  "type": "tuple"
                },
                {
                  "components": [
                    {
                      "internalType": "bool",
                      "name": "valid",
                      "type": "bool"
                    },
                    {
                      "internalType": "enum ICS23.HashOp",
                      "name": "hash",
                      "type": "uint8"
                    },
                    {
                      "internalType": "bytes",
                      "name": "prefix",
                      "type": "bytes"
                    },
                    {
                      "internalType": "bytes",
                      "name": "suffix",
                      "type": "bytes"
                    }
                  ],
                  "internalType": "struct ICS23.InnerOp[]",
                  "name": "path",
                  "type": "tuple[]"
                }
              ],
              "internalType": "struct ICS23.ExistenceProof",
              "name": "left",
              "type": "tuple"
            },
            {
              "components": [
                {
                  "internalType": "bool",
                  "name": "valid",
                  "type": "bool"
                },
                {
                  "internalType": "bytes",
                  "name": "key",
                  "type": "bytes"
                },
                {
                  "internalType": "bytes",
                  "name": "value",
                  "type": "bytes"
                },
                {
                  "components": [
                    {
                      "internalType": "bool",
                      "name": "valid",
                      "type": "bool"
                    },
                    {
                      "internalType": "enum ICS23.HashOp",
                      "name": "hash",
                      "type": "uint8"
                    },
                    {
                      "internalType": "enum ICS23.HashOp",
                      "name": "prehash_key",
                      "type": "uint8"
                    },
                    {
                      "internalType": "enum ICS23.HashOp",
                      "name": "prehash_value",
                      "type": "uint8"
                    },
                    {
                      "internalType": "enum ICS23.LengthOp",
                      "name": "len",
                      "type": "uint8"
                    },
                    {
                      "internalType": "bytes",
                      "name": "prefix",
                      "type": "bytes"
                    }
                  ],
                  "internalType": "struct ICS23.LeafOp",
                  "name": "leaf",
                  "type": "tuple"
                },
                {
                  "components": [
                    {
                      "internalType": "bool",
                      "name": "valid",
                      "type": "bool"
                    },
                    {
                      "internalType": "enum ICS23.HashOp",
                      "name": "hash",
                      "type": "uint8"
                    },
                    {
                      "internalType": "bytes",
                      "name": "prefix",
                      "type": "bytes"
                    },
                    {
                      "internalType": "bytes",
                      "name": "suffix",
                      "type": "bytes"
                    }
                  ],
                  "internalType": "struct ICS23.InnerOp[]",
                  "name": "path",
                  "type": "tuple[]"
                }
              ],
              "internalType": "struct ICS23.ExistenceProof",
              "name": "right",
              "type": "tuple"
            }
          ],
          "internalType": "struct ICS23.NonExistenceProof",
          "name": "proof",
          "type": "tuple"
        },
        {
          "internalType": "bytes",
          "name": "key",
          "type": "bytes"
        }
      ],
      "name": "verifyNonMembership",
      "outputs": [
        {
          "internalType": "bool",
          "name": "",
          "type": "bool"
        }
      ],
      "stateMutability": "pure",
      "type": "function"
    },
    {
      "inputs": [
        {
          "components": [
            {
              "internalType": "bytes",
              "name": "key",
              "type": "bytes"
            },
            {
              "internalType": "bytes",
              "name": "value",
              "type": "bytes"
            },
            {
              "components": [
                {
                  "internalType": "enum PROOFS_PROTO_GLOBAL_ENUMS.HashOp",
                  "name": "hash",
                  "type": "uint8"
                },
                {
                  "internalType": "enum PROOFS_PROTO_GLOBAL_ENUMS.HashOp",
                  "name": "prehash_key",
                  "type": "uint8"
                },
                {
                  "internalType": "enum PROOFS_PROTO_GLOBAL_ENUMS.HashOp",
                  "name": "prehash_value",
                  "type": "uint8"
                },
                {
                  "internalType": "enum PROOFS_PROTO_GLOBAL_ENUMS.LengthOp",
                  "name": "length",
                  "type": "uint8"
                },
                {
                  "internalType": "bytes",
                  "name": "prefix",
                  "type": "bytes"
                }
              ],
              "internalType": "struct LeafOp.Data",
              "name": "leaf",
              "type": "tuple"
            },
            {
              "components": [
                {
                  "internalType": "enum PROOFS_PROTO_GLOBAL_ENUMS.HashOp",
                  "name": "hash",
                  "type": "uint8"
                },
                {
                  "internalType": "bytes",
                  "name": "prefix",
                  "type": "bytes"
                },
                {
                  "internalType": "bytes",
                  "name": "suffix",
                  "type": "bytes"
                }
              ],
              "internalType": "struct InnerOp.Data[]",
              "name": "path",
              "type": "tuple[]"
            }
          ],
          "internalType": "struct IBCExistenceProof.Data",
          "name": "testxp",
          "type": "tuple"
        }
      ],
      "name": "convertProof",
      "outputs": [
        {
          "internalType": "bool",
          "name": "",
          "type": "bool"
        }
      ],
      "stateMutability": "nonpayable",
      "type": "function"
    },
    {
      "inputs": [
        {
          "internalType": "bytes",
          "name": "existenceProof",
          "type": "bytes"
        },
        {
          "internalType": "bytes",
          "name": "rootBz",
          "type": "bytes"
        },
        {
          "internalType": "bytes",
          "name": "pathBz",
          "type": "bytes"
        },
        {
          "internalType": "bytes",
          "name": "value",
          "type": "bytes"
        }
      ],
      "name": "changeOwnerWithProof",
      "outputs": [
        {
          "internalType": "bool",
          "name": "",
          "type": "bool"
        }
      ],
      "stateMutability": "nonpayable",
      "type": "function"
    }
  ],
  "bytecode": "0x60806040526040518060c00160405280600115158152602001600160058111156200002f576200002e62000274565b5b8152602001600060058111156200004b576200004a62000274565b5b81526020016001600581111562000067576200006662000274565b5b81526020016001600881111562000083576200008262000274565b5b815260200160405180604001604052806001815260200160008152508152506000808201518160000160006101000a81548160ff02191690831515021790555060208201518160000160016101000a81548160ff02191690836005811115620000f157620000f062000274565b5b021790555060408201518160000160026101000a81548160ff0219169083600581111562000124576200012362000274565b5b021790555060608201518160000160036101000a81548160ff0219169083600581111562000157576200015662000274565b5b021790555060808201518160000160046101000a81548160ff021916908360088111156200018a576200018962000274565b5b021790555060a0820151816001019080519060200190620001ad929190620001c4565b505050348015620001bd57600080fd5b5062000308565b828054620001d290620002d2565b90600052602060002090601f016020900481019282620001f6576000855562000242565b82601f106200021157805160ff191683800117855562000242565b8280016001018555821562000242579182015b828111156200024157825182559160200191906001019062000224565b5b50905062000251919062000255565b5090565b5b808211156200027057600081600090555060010162000256565b5090565b7f4e487b7100000000000000000000000000000000000000000000000000000000600052602160045260246000fd5b7f4e487b7100000000000000000000000000000000000000000000000000000000600052602260045260246000fd5b60006002820490506001821680620002eb57607f821691505b60208210811415620003025762000301620002a3565b5b50919050565b61633d80620003186000396000f3fe608060405234801561001057600080fd5b50600436106101a95760003560e01c806383ead07c116100f9578063b6446a5f11610097578063e189ffa911610071578063e189ffa914610600578063e5c341e214610630578063fbc2674d14610660578063fd29e20a14610690576101a9565b8063b6446a5f14610570578063d259183d146105a0578063d48f1e4f146105d0576101a9565b80639c854fbe116100d35780639c854fbe146104b05780639d18a115146104e0578063af630bb114610510578063b4219c6f14610540576101a9565b806383ead07c14610420578063901d0e1514610450578063951c0b9014610480576101a9565b80633e339c30116101665780634cac70ff116101405780634cac70ff1461036057806361f324941461039057806367bb8e81146103c057806372aaf3df146103f0576101a9565b80633e339c30146102d0578063446e00b814610300578063452e99a314610330576101a9565b806303801174146101ae5780630d4383f4146101de5780631e63e931146102105780632f1cf26214610240578063356e77ff14610270578063382fd85f146102a0575b600080fd5b6101c860048036038101906101c39190614026565b6106c0565b6040516101d5919061410a565b60405180910390f35b6101f860048036038101906101f3919061430c565b61070a565b60405161020793929190614377565b60405180910390f35b61022a600480360381019061022591906143ae565b6107a1565b604051610237919061440a565b60405180910390f35b61025a600480360381019061025591906145ee565b610806565b60405161026791906146a4565b60405180910390f35b61028a600480360381019061028591906146bf565b61099e565b604051610297919061440a565b60405180910390f35b6102ba60048036038101906102b59190614914565b610a09565b6040516102c791906146a4565b60405180910390f35b6102ea60048036038101906102e59190614a1b565b610bc8565b6040516102f791906146a4565b60405180910390f35b61031a60048036038101906103159190614e79565b610be2565b60405161032791906146a4565b60405180910390f35b61034a60048036038101906103459190614ec2565b610e24565b60405161035791906146a4565b60405180910390f35b61037a60048036038101906103759190614fc9565b610e81565b60405161038791906146a4565b60405180910390f35b6103aa60048036038101906103a59190615041565b610f4f565b6040516103b791906146a4565b60405180910390f35b6103da60048036038101906103d59190615118565b610f7b565b6040516103e7919061410a565b60405180910390f35b61040a60048036038101906104059190615174565b611116565b604051610417919061410a565b60405180910390f35b61043a600480360381019061043591906151ec565b61116e565b60405161044791906146a4565b60405180910390f35b61046a60048036038101906104659190614fc9565b611201565b60405161047791906146a4565b60405180910390f35b61049a600480360381019061049591906151ec565b6112c0565b6040516104a791906146a4565b60405180910390f35b6104ca60048036038101906104c59190615264565b61133c565b6040516104d791906146a4565b60405180910390f35b6104fa60048036038101906104f591906152e7565b61137d565b60405161050791906146a4565b60405180910390f35b61052a6004803603810190610525919061535f565b6114fc565b604051610537919061410a565b60405180910390f35b61055a60048036038101906105559190615406565b611590565b60405161056791906146a4565b60405180910390f35b61058a60048036038101906105859190615629565b6115c7565b60405161059791906146a4565b60405180910390f35b6105ba60048036038101906105b59190614fc9565b6117a5565b6040516105c79190615777565b60405180910390f35b6105ea60048036038101906105e59190614026565b611970565b6040516105f7919061410a565b60405180910390f35b61061a60048036038101906106159190615873565b611c32565b60405161062791906158d5565b60405180910390f35b61064a600480360381019061064591906158f0565b611c44565b604051610657919061410a565b60405180910390f35b61067a60048036038101906106759190615939565b611cb8565b60405161068791906146a4565b60405180910390f35b6106aa60048036038101906106a59190615a10565b611cd0565b6040516106b7919061410a565b60405180910390f35b6060600060058111156106d6576106d5615700565b5b8360058111156106e9576106e8615700565b5b14156106f757819050610704565b6107018383611970565b90505b92915050565b60008060008061071e8660000151866107a1565b905060008660200151826107329190615aae565b905060008760400151826107469190615b08565b9050600088606001518361075a9190615b08565b9050600089602001518560018c60000151516107769190615b5e565b6107809190615b5e565b61078a9190615aae565b905082828297509750975050505050509250925092565b6000825182106107b057600080fd5b60005b83518110156107fa57828482815181106107d0576107cf615b92565b5b602002602001015114156107e75780915050610800565b80806107f290615bc1565b9150506107b3565b50600080fd5b92915050565b600080600190505b61086c8482865161081f9190615b5e565b815181106108305761082f615b92565b5b6020026020010151604001518483865161084a9190615b5e565b8151811061085b5761085a615b92565b5b602002602001015160400151610e81565b80156108d257506108d1848286516108849190615b5e565b8151811061089557610894615b92565b5b602002602001015160600151848386516108af9190615b5e565b815181106108c0576108bf615b92565b5b602002602001015160600151610e81565b5b156108ea5780806108e290615bc1565b91505061080e565b6000848286516108fa9190615b5e565b8151811061090b5761090a615b92565b5b602002602001015190506000848386516109259190615b5e565b8151811061093657610935615b92565b5b6020026020010151905061094b878383611590565b61095b5760009350505050610997565b610965878761116e565b6109755760009350505050610997565b61097f87866112c0565b61098f5760009350505050610997565b600193505050505b9392505050565b600080836000015151905060005b818110156109fd5760008060006109c3888561070a565b9250925092506109d58784848461133c565b156109e7578395505050505050610a03565b50505080806109f590615bc1565b9150506109ac565b50600080fd5b92915050565b6000610bbd60006040518060c00160405290816000820160009054906101000a900460ff161515151581526020016000820160019054906101000a900460ff166005811115610a5b57610a5a615700565b5b6005811115610a6d57610a6c615700565b5b81526020016000820160029054906101000a900460ff166005811115610a9657610a95615700565b5b6005811115610aa857610aa7615700565b5b81526020016000820160039054906101000a900460ff166005811115610ad157610ad0615700565b5b6005811115610ae357610ae2615700565b5b81526020016000820160049054906101000a900460ff166008811115610b0c57610b0b615700565b5b6008811115610b1e57610b1d615700565b5b8152602001600182018054610b3290615c39565b80601f0160208091040260200160405190810160405280929190818152602001828054610b5e90615c39565b8015610bab5780601f10610b8057610100808354040283529160200191610bab565b820191906000526020600020905b815481529060010190602001808311610b8e57829003601f168201915b50505050508152505086848787610bc8565b905095945050505050565b6000610bd78487878686610e24565b905095945050505050565b6000806040518060c001604052806000151581526020018460400151600001516005811115610c1457610c13615700565b5b6005811115610c2657610c25615700565b5b6005811115610c3857610c37615700565b5b81526020018460400151602001516005811115610c5857610c57615700565b5b6005811115610c6a57610c69615700565b5b6005811115610c7c57610c7b615700565b5b81526020018460400151604001516005811115610c9c57610c9b615700565b5b6005811115610cae57610cad615700565b5b6005811115610cc057610cbf615700565b5b81526020018460400151606001516008811115610ce057610cdf615700565b5b6008811115610cf257610cf1615700565b5b6008811115610d0457610d03615700565b5b8152602001604051806020016040528060008152508152509050606060005b846060015151811015610de15760405180608001604052806000151581526020018660400151600001516005811115610d5f57610d5e615700565b5b6005811115610d7157610d70615700565b5b6005811115610d8357610d82615700565b5b815260200160405180602001604052806000815250815260200160405180602001604052806000815250815250828281518110610dc357610dc2615b92565b5b60200260200101819052508080610dd990615bc1565b915050610d23565b5060006040518060a00160405280600015158152602001866000015181526020018660200151815260200184815260200183815250905060019350505050919050565b6000610e30868661137d565b8015610e465750610e45838760200151610e81565b5b8015610e5c5750610e5b828760400151610e81565b5b8015610e765750610e75610e6f87611c44565b85610e81565b5b905095945050505050565b60008151835114610e955760009050610f49565b60005b8351811015610f4357828181518110610eb457610eb3615b92565b5b602001015160f81c60f81b7effffffffffffffffffffffffffffffffffffffffffffffffffffffffffffff1916848281518110610ef457610ef3615b92565b5b602001015160f81c60f81b7effffffffffffffffffffffffffffffffffffffffffffffffffffffffffffff191614610f30576000915050610f49565b8080610f3b90615bc1565b915050610e98565b50600190505b92915050565b6000610f59613d69565b610f6286611cfa565b9050610f6d81610be2565b506001915050949350505050565b606060006008811115610f9157610f90615700565b5b836008811115610fa457610fa3615700565b5b1415610fb257819050611110565b60016008811115610fc657610fc5615700565b5b836008811115610fd957610fd8615700565b5b14156110505760008251905060808110611026576080607f821617600782901c9150818460405160200161100f93929190615cea565b604051602081830303815290604052915050611110565b8083604051602001611039929190615d23565b604051602081830303815290604052915050611110565b6007600881111561106457611063615700565b5b83600881111561107757611076615700565b5b141561109357602082511461108b57600080fd5b819050611110565b6008808111156110a6576110a5615700565b5b8360088111156110b9576110b8615700565b5b14156110d55760408251146110cd57600080fd5b819050611110565b6040517f08c379a000000000000000000000000000000000000000000000000000000000815260040161110790615dce565b60405180910390fd5b92915050565b606060008251141561112757600080fd5b6000836040015183856060015160405160200161114693929190615dee565b6040516020818303038152906040529050611165846020015182611970565b91505092915050565b60008060018460000151516111839190615b5e565b90506000806000611194878561070a565b92509250925060005b86518110156111f1576111cc8782815181106111bc576111bb615b92565b5b602002602001015185858561133c565b6111de576000955050505050506111fb565b80806111e990615bc1565b91505061119d565b5060019450505050505b92915050565b600080600090505b82518110156112b45782818151811061122557611224615b92565b5b602001015160f81c60f81b7effffffffffffffffffffffffffffffffffffffffffffffffffffffffffffff191684828151811061126557611264615b92565b5b602001015160f81c60f81b7effffffffffffffffffffffffffffffffffffffffffffffffffffffffffffff1916146112a15760009150506112ba565b80806112ac90615bc1565b915050611209565b50600190505b92915050565b6000806000806112d186600061070a565b92509250925060005b855181101561132d576113098682815181106112f9576112f8615b92565b5b602002602001015185858561133c565b61131a576000945050505050611336565b808061132590615bc1565b9150506112da565b50600193505050505b92915050565b60008385604001515110156113545760009050611375565b82856040015151111561136a5760009050611375565b818560600151511490505b949350505050565b60008160200151600581111561139657611395615700565b5b83606001516020015160058111156113b1576113b0615700565b5b1480156113ed5750816040015160058111156113d0576113cf615700565b5b83606001516040015160058111156113eb576113ea615700565b5b145b801561142857508160600151600581111561140b5761140a615700565b5b836060015160600151600581111561142657611425615700565b5b145b801561146357508160800151600881111561144657611445615700565b5b836060015160800151600881111561146157611460615700565b5b145b80156114815750611480836060015160a001518360a00151611201565b5b61148e57600090506114f6565b60005b8360800151518110156114f0576114ce846080015182815181106114b8576114b7615b92565b5b6020026020010151604001518460a00151611201565b156114dd5760009150506114f6565b80806114e890615bc1565b915050611491565b50600190505b92915050565b606060008351141561150d57600080fd5b60008251141561151c57600080fd5b60006115318560400151866080015186611cd0565b905060006115488660600151876080015186611cd0565b905060008660a00151838360405160200161156593929190615dee565b6040516020818303038152906040529050611584876020015182611970565b93505050509392505050565b60008061159d858561099e565b905060006115ab868561099e565b9050806001836115bb9190615b08565b14925050509392505050565b60008460400151600001511580156115e55750846060015160000151155b156115f3576000905061179d565b8460400151600001511561167a576116268560400151856000015185886040015160200151896040015160400151610e24565b611633576000905061179d565b6000600281111561164757611646615700565b5b611659838760600151602001516117a5565b600281111561166b5761166a615700565b5b14611679576000905061179d565b5b84606001516000015115611700576116ad8560600151856000015185886060015160200151896060015160400151610e24565b6116ba576000905061179d565b6002808111156116cd576116cc615700565b5b6116df838760400151602001516117a5565b60028111156116f1576116f0615700565b5b146116ff576000905061179d565b5b8460400151600001516117355761172384602001518660600151608001516112c0565b611730576000905061179d565b611798565b84606001516000015161176a57611758846020015186604001516080015161116e565b611765576000905061179d565b611797565b6117898460200151866040015160800151876060015160800151610806565b611796576000905061179d565b5b5b600190505b949350505050565b600080600090505b8351811080156117bd5750825181105b156118f5578281815181106117d5576117d4615b92565b5b602001015160f81c60f81b7effffffffffffffffffffffffffffffffffffffffffffffffffffffffffffff191684828151811061181557611814615b92565b5b602001015160f81c60f81b7effffffffffffffffffffffffffffffffffffffffffffffffffffffffffffff1916101561185257600091505061196a565b82818151811061186557611864615b92565b5b602001015160f81c60f81b7effffffffffffffffffffffffffffffffffffffffffffffffffffffffffffff19168482815181106118a5576118a4615b92565b5b602001015160f81c60f81b7effffffffffffffffffffffffffffffffffffffffffffffffffffffffffffff191611156118e257600291505061196a565b80806118ed90615bc1565b9150506117ad565b50815183511415611909576001905061196a565b81518351101561191c576000905061196a565b81518351111561192f576002905061196a565b6040517f08c379a000000000000000000000000000000000000000000000000000000000815260040161196190615e6b565b60405180910390fd5b92915050565b60606003600581111561198657611985615700565b5b83600581111561199957611998615700565b5b14156119cd5781805190602001206040516020016119b79190615eac565b6040516020818303038152906040529050611c2c565b600160058111156119e1576119e0615700565b5b8360058111156119f4576119f3615700565b5b1415611a7057600282604051611a0a9190615ec7565b602060405180830381855afa158015611a27573d6000803e3d6000fd5b5050506040513d601f19601f82011682018060405250810190611a4a9190615f0a565b604051602001611a5a9190615eac565b6040516020818303038152906040529050611c2c565b60046005811115611a8457611a83615700565b5b836005811115611a9757611a96615700565b5b1415611afa57600382604051611aad9190615ec7565b602060405180830381855afa158015611aca573d6000803e3d6000fd5b5050506040515160601b604051602001611ae49190615f84565b6040516020818303038152906040529050611c2c565b600580811115611b0d57611b0c615700565b5b836005811115611b2057611b1f615700565b5b1415611bf1576003600283604051611b389190615ec7565b602060405180830381855afa158015611b55573d6000803e3d6000fd5b5050506040513d601f19601f82011682018060405250810190611b789190615f0a565b604051602001611b889190615eac565b604051602081830303815290604052604051611ba49190615ec7565b602060405180830381855afa158015611bc1573d6000803e3d6000fd5b5050506040515160601b604051602001611bdb9190615f84565b6040516020818303038152906040529050611c2c565b6040517f08c379a0000000000000000000000000000000000000000000000000000000008152600401611c2390616011565b60405180910390fd5b92915050565b6000611c3d82611d1d565b9050919050565b60606000611c5f8360600151846020015185604001516114fc565b905060005b836080015151811015611cae57611c9984608001518281518110611c8b57611c8a615b92565b5b602002602001015183611116565b91508080611ca690615bc1565b915050611c64565b5080915050919050565b6000611cc6838686856115c7565b9050949350505050565b60606000611cde85846106c0565b90506000611cec8583610f7b565b905080925050509392505050565b611d02613d69565b6000611d116020848551611e5a565b50905080915050919050565b600080825190506000811415611dd2576002600067ffffffffffffffff811115611d4a57611d49613efb565b5b6040519080825280601f01601f191660200182016040528015611d7c5781602001600182028036833780820191505090505b50604051611d8a9190615ec7565b602060405180830381855afa158015611da7573d6000803e3d6000fd5b5050506040513d601f19601f82011682018060405250810190611dca9190615f0a565b915050611e55565b6001811415611e0757611dff83600081518110611df257611df1615b92565b5b602002602001015161235a565b915050611e55565b6000611e1384516124e5565b90506000611e2b611e2686600085612576565b611d1d565b90506000611e42611e3d878587612576565b611d1d565b9050611e4e8282612644565b9450505050505b919050565b611e62613d69565b6000611e6c613d69565b611e74613d97565b6000806000808a905060008b90505b8982611e8f9190615b08565b8110156120a157611ea0818c61286d565b8095508196508297505050508281611eb89190615b08565b90506001851415611ee157611ecf818c89896128c2565b81611eda9190615b08565b905061209c565b6002851415611f0857611ef6818c898961297d565b81611f019190615b08565b905061209b565b6003851415611f2f57611f1d818c8989612a38565b81611f289190615b08565b905061209a565b6004851415611f5d57611f4b818c611f45612af3565b89612b02565b81611f569190615b08565b9050612099565b60016005811115611f7157611f70615700565b5b846005811115611f8457611f83615700565b5b1415611fac576000611f96828d612bff565b9050809150508082611fa89190615b08565b9150505b600580811115611fbf57611fbe615700565b5b846005811115611fd257611fd1615700565b5b1415611ffa576000611fe4828d612c24565b9050809150508082611ff69190615b08565b9150505b6000600581111561200e5761200d615700565b5b84600581111561202157612020615700565b5b1415612049576000612033828d612c49565b90508091505080826120459190615b08565b9150505b6002600581111561205d5761205c615700565b5b8460058111156120705761206f615700565b5b1415612098576000612082828d612d96565b90508091505080826120949190615b08565b9150505b5b5b5b5b611e83565b819050856004600581106120b8576120b7615b92565b5b602002015167ffffffffffffffff8111156120d6576120d5613efb565b5b60405190808252806020026020018201604052801561210f57816020015b6120fc613db9565b8152602001906001900390816120f45790505b5087606001819052505b89826121259190615b08565b81101561234557612136818c61286d565b809550819650829750505050828161214e9190615b08565b9050600185141561217e5761216c818c612166612af3565b896128c2565b816121779190615b08565b9050612340565b60028514156121ac5761219a818c612194612af3565b8961297d565b816121a59190615b08565b905061233f565b60038514156121da576121c8818c6121c2612af3565b89612a38565b816121d39190615b08565b905061233e565b6004851415612201576121ef818c8989612b02565b816121fa9190615b08565b905061233d565b6001600581111561221557612214615700565b5b84600581111561222857612227615700565b5b141561225057600061223a828d612bff565b905080915050808261224c9190615b08565b9150505b60058081111561226357612262615700565b5b84600581111561227657612275615700565b5b141561229e576000612288828d612c24565b905080915050808261229a9190615b08565b9150505b600060058111156122b2576122b1615700565b5b8460058111156122c5576122c4615700565b5b14156122ed5760006122d7828d612c49565b90508091505080826122e99190615b08565b9150505b6002600581111561230157612300615700565b5b84600581111561231457612313615700565b5b141561233c576000612326828d612d96565b90508091505080826123389190615b08565b9150505b5b5b5b5b612119565b868a9850985050505050505050935093915050565b6000806001835161236b9190615b08565b67ffffffffffffffff81111561238457612383613efb565b5b6040519080825280601f01601f1916602001820160405280156123b65781602001600182028036833780820191505090505b509050600060f81b816000815181106123d2576123d1615b92565b5b60200101907effffffffffffffffffffffffffffffffffffffffffffffffffffffffffffff1916908160001a90535060005b835181101561248c578381815181106124205761241f615b92565b5b602001015160f81c60f81b826001836124399190615b08565b8151811061244a57612449615b92565b5b60200101907effffffffffffffffffffffffffffffffffffffffffffffffffffffffffffff1916908160001a905350808061248490615bc1565b915050612404565b5060028160405161249d9190615ec7565b602060405180830381855afa1580156124ba573d6000803e3d6000fd5b5050506040513d601f19601f820116820180604052508101906124dd9190615f0a565b915050919050565b6000600182101561252b576040517f08c379a0000000000000000000000000000000000000000000000000000000008152600401612522906160a3565b60405180910390fd5b600182141561253d5760009050612571565b6000600190505b826002826125529190615aae565b101561256c576002816125659190615aae565b9050612544565b809150505b919050565b6060600083836125869190615b5e565b67ffffffffffffffff81111561259f5761259e613efb565b5b6040519080825280602002602001820160405280156125d257816020015b60608152602001906001900390816125bd5790505b50905060005b8151811015612638578581866125ee9190615b08565b815181106125ff576125fe615b92565b5b602002602001015182828151811061261a57612619615b92565b5b6020026020010181905250808061263090615bc1565b9150506125d8565b50809150509392505050565b600080600160208061265691906160c3565b61266091906160c3565b60ff1667ffffffffffffffff81111561267c5761267b613efb565b5b6040519080825280601f01601f1916602001820160405280156126ae5781602001600182028036833780820191505090505b509050600160f81b816000815181106126ca576126c9615b92565b5b60200101907effffffffffffffffffffffffffffffffffffffffffffffffffffffffffffff1916908160001a90535060006001905060005b602060ff168110156127885785816020811061272157612720615b92565b5b1a60f81b83838151811061273857612737615b92565b5b60200101907effffffffffffffffffffffffffffffffffffffffffffffffffffffffffffff1916908160001a905350818061277290615bc1565b925050808061278090615bc1565b915050612702565b5060005b602060ff16811015612812578481602081106127ab576127aa615b92565b5b1a60f81b8383815181106127c2576127c1615b92565b5b60200101907effffffffffffffffffffffffffffffffffffffffffffffffffffffffffffff1916908160001a90535081806127fc90615bc1565b925050808061280a90615bc1565b91505061278c565b506002826040516128239190615ec7565b602060405180830381855afa158015612840573d6000803e3d6000fd5b5050506040513d601f19601f820116820180604052508101906128639190615f0a565b9250505092915050565b600080600080600061287f8787612c49565b91509150600060078316600581111561289b5761289a615700565b5b905060006008846128ac9190616129565b9050808284965096509650505050509250925092565b60008060006128d18787612e6e565b915091506128de85612e87565b15612916576001846001600581106128f9576128f8615b92565b5b6020020181815161290a9190615b08565b91508181525050612970565b81856000018190525060008460016005811061293557612934615b92565b5b6020020151111561296f5760018460016005811061295657612955615b92565b5b602002018181516129679190615b5e565b915081815250505b5b8092505050949350505050565b600080600061298c8787612e6e565b9150915061299985612e87565b156129d1576001846002600581106129b4576129b3615b92565b5b602002018181516129c59190615b08565b91508181525050612a2b565b8185602001819052506000846002600581106129f0576129ef615b92565b5b60200201511115612a2a57600184600260058110612a1157612a10615b92565b5b60200201818151612a229190615b5e565b915081815250505b5b8092505050949350505050565b6000806000612a478787612e92565b91509150612a5485612e87565b15612a8c57600184600360058110612a6f57612a6e615b92565b5b60200201818151612a809190615b08565b91508181525050612ae6565b818560400181905250600084600360058110612aab57612aaa615b92565b5b60200201511115612ae557600184600360058110612acc57612acb615b92565b5b60200201818151612add9190615b5e565b915081815250505b5b8092505050949350505050565b612afb613d69565b6000905090565b6000806000612b118787612eeb565b91509150612b1e85612e87565b15612b5657600184600460058110612b3957612b38615b92565b5b60200201818151612b4a9190615b08565b91508181525050612bf2565b81856060015185600460058110612b7057612b6f615b92565b5b6020020151876060015151612b859190615b5e565b81518110612b9657612b95615b92565b5b6020026020010181905250600084600460058110612bb757612bb6615b92565b5b60200201511115612bf157600184600460058110612bd857612bd7615b92565b5b60200201818151612be99190615b5e565b915081815250505b5b8092505050949350505050565b600080600080612c1186866008612f44565b9150915081819350935050509250929050565b600080600080612c3686866004612f44565b9150915081819350935050509250929050565b600080600080600060208651612c5f9190615b08565b9050608087870197505b6080811660801415612d8557600082888a03101415612cda577f08c379a0000000000000000000000000000000000000000000000000000000006000526020600452600f6024527f6c656e677468206f766572666c6f77000000000000000000000000000000000060445260536000fd5b875160005b60208110608084166080141615612d7e576000848a8c03101415612d55577f08c379a0000000000000000000000000000000000000000000000000000000006000526020600452600f6024527f6c656e677468206f766572666c6f77000000000000000000000000000000000060445260536000fd5b81811a925082607f16856007021b8617955060018501945060018101905060018a019950612cdf565b5050612c69565b508282945094505050509250929050565b60606000806000612da78686612c49565b9150915060008267ffffffffffffffff811115612dc757612dc6613efb565b5b6040519080825280601f01601f191660200182016040528015612df95781602001600182028036833780820191505090505b509050600060208751612e0c9190615b08565b90508084848a612e1c9190615b08565b612e269190615b08565b1115612e3557612e3461615a565b5b600080602084019050848a8a01019150612e50828288612fb7565b838686612e5d9190615b08565b975097505050505050509250929050565b60606000612e7c8484612d96565b915091509250929050565b600081159050919050565b612e9a613dec565b600080849050600080612ead8387612c49565b915091508083612ebd9190615b08565b92506000612ecc848885613036565b509050808284612edc9190615b08565b95509550505050509250929050565b612ef3613db9565b600080849050600080612f068387612c49565b915091508083612f169190615b08565b92506000612f258488856132b3565b509050808284612f359190615b08565b95509550505050509250929050565b60008060008060208651612f589190615b08565b9050808588612f679190615b08565b1115612f7657612f7561615a565b5b6000878701975087515b86821015612fa55780821a826008021b84179350600189019850600182019150612f80565b50508185935093505050935093915050565b5b60208110612ff65782518252602082612fd19190615b08565b9150602083612fe09190615b08565b9250602081612fef9190615b5e565b9050612fb8565b600060018260206130079190615b5e565b61010061301491906162bc565b61301e9190615b5e565b90508019845116818451168181178552505050505050565b61303e613dec565b6000613048613dec565b613050613e63565b6000806000808a905060008b90505b898261306b9190615b08565b81101561329e5761307c818c61286d565b80955081965082975050505082816130949190615b08565b905060018514156130bd576130ab818c89896134e0565b816130b69190615b08565b9050613299565b60028514156130e4576130d2818c89896135d0565b816130dd9190615b08565b9050613298565b600385141561310b576130f9818c89896136c0565b816131049190615b08565b9050613297565b600485141561313257613120818c89896137b0565b8161312b9190615b08565b9050613296565b600585141561315957613147818c89896138a0565b816131529190615b08565b9050613295565b6001600581111561316d5761316c615700565b5b8460058111156131805761317f615700565b5b14156131a8576000613192828d612bff565b90508091505080826131a49190615b08565b9150505b6005808111156131bb576131ba615700565b5b8460058111156131ce576131cd615700565b5b14156131f65760006131e0828d612c24565b90508091505080826131f29190615b08565b9150505b6000600581111561320a57613209615700565b5b84600581111561321d5761321c615700565b5b141561324557600061322f828d612c49565b90508091505080826132419190615b08565b9150505b6002600581111561325957613258615700565b5b84600581111561326c5761326b615700565b5b141561329457600061327e828d612d96565b90508091505080826132909190615b08565b9150505b5b5b5b5b5b61305f565b868a9850985050505050505050935093915050565b6132bb613db9565b60006132c5613db9565b6132cd613e85565b6000806000808a905060008b90505b89826132e89190615b08565b8110156134cb576132f9818c61286d565b80955081965082975050505082816133119190615b08565b9050600185141561333a57613328818c898961395b565b816133339190615b08565b90506134c6565b60028514156133615761334f818c8989613a4b565b8161335a9190615b08565b90506134c5565b600385141561338857613376818c8989613b06565b816133819190615b08565b90506134c4565b6001600581111561339c5761339b615700565b5b8460058111156133af576133ae615700565b5b14156133d75760006133c1828d612bff565b90508091505080826133d39190615b08565b9150505b6005808111156133ea576133e9615700565b5b8460058111156133fd576133fc615700565b5b141561342557600061340f828d612c24565b90508091505080826134219190615b08565b9150505b6000600581111561343957613438615700565b5b84600581111561344c5761344b615700565b5b141561347457600061345e828d612c49565b90508091505080826134709190615b08565b9150505b6002600581111561348857613487615700565b5b84600581111561349b5761349a615700565b5b14156134c35760006134ad828d612d96565b90508091505080826134bf9190615b08565b9150505b5b5b5b6132dc565b868a9850985050505050505050935093915050565b60008060006134ef8787613bc1565b9150915060006134fe83613bd9565b905061350986613c62565b156135415760018560016006811061352457613523615b92565b5b602002018181516135359190615b08565b915081815250506135c2565b808660000190600581111561355957613558615700565b5b9081600581111561356d5761356c615700565b5b8152505060008560016006811061358757613586615b92565b5b602002015111156135c1576001856001600681106135a8576135a7615b92565b5b602002018181516135b99190615b5e565b915081815250505b5b819350505050949350505050565b60008060006135df8787613bc1565b9150915060006135ee83613bd9565b90506135f986613c62565b156136315760018560026006811061361457613613615b92565b5b602002018181516136259190615b08565b915081815250506136b2565b808660200190600581111561364957613648615700565b5b9081600581111561365d5761365c615700565b5b8152505060008560026006811061367757613676615b92565b5b602002015111156136b15760018560026006811061369857613697615b92565b5b602002018181516136a99190615b5e565b915081815250505b5b819350505050949350505050565b60008060006136cf8787613bc1565b9150915060006136de83613bd9565b90506136e986613c62565b156137215760018560036006811061370457613703615b92565b5b602002018181516137159190615b08565b915081815250506137a2565b808660400190600581111561373957613738615700565b5b9081600581111561374d5761374c615700565b5b8152505060008560036006811061376757613766615b92565b5b602002015111156137a15760018560036006811061378857613787615b92565b5b602002018181516137999190615b5e565b915081815250505b5b819350505050949350505050565b60008060006137bf8787613bc1565b9150915060006137ce83613c6d565b90506137d986613c62565b15613811576001856004600681106137f4576137f3615b92565b5b602002018181516138059190615b08565b91508181525050613892565b808660600190600881111561382957613828615700565b5b9081600881111561383d5761383c615700565b5b8152505060008560046006811061385757613856615b92565b5b602002015111156138915760018560046006811061387857613877615b92565b5b602002018181516138899190615b5e565b915081815250505b5b819350505050949350505050565b60008060006138af8787612e6e565b915091506138bc85613c62565b156138f4576001846005600681106138d7576138d6615b92565b5b602002018181516138e89190615b08565b9150818152505061394e565b81856080018190525060008460056006811061391357613912615b92565b5b6020020151111561394d5760018460056006811061393457613933615b92565b5b602002018181516139459190615b5e565b915081815250505b5b8092505050949350505050565b600080600061396a8787613bc1565b91509150600061397983613bd9565b905061398486613d35565b156139bc5760018560016004811061399f5761399e615b92565b5b602002018181516139b09190615b08565b91508181525050613a3d565b80866000019060058111156139d4576139d3615700565b5b908160058111156139e8576139e7615700565b5b81525050600085600160048110613a0257613a01615b92565b5b60200201511115613a3c57600185600160048110613a2357613a22615b92565b5b60200201818151613a349190615b5e565b915081815250505b5b819350505050949350505050565b6000806000613a5a8787612e6e565b91509150613a6785613d35565b15613a9f57600184600260048110613a8257613a81615b92565b5b60200201818151613a939190615b08565b91508181525050613af9565b818560200181905250600084600260048110613abe57613abd615b92565b5b60200201511115613af857600184600260048110613adf57613ade615b92565b5b60200201818151613af09190615b5e565b915081815250505b5b8092505050949350505050565b6000806000613b158787612e6e565b91509150613b2285613d35565b15613b5a57600184600360048110613b3d57613b3c615b92565b5b60200201818151613b4e9190615b08565b91508181525050613bb4565b818560400181905250600084600360048110613b7957613b78615b92565b5b60200201511115613bb357600184600360048110613b9a57613b99615b92565b5b60200201818151613bab9190615b5e565b915081815250505b5b8092505050949350505050565b600080613bce8484613d40565b915091509250929050565b6000808260070b1415613bef5760009050613c5d565b60018260070b1415613c045760019050613c5d565b60028260070b1415613c195760029050613c5d565b60038260070b1415613c2e5760039050613c5d565b60048260070b1415613c435760049050613c5d565b60058260070b1415613c585760059050613c5d565b600080fd5b919050565b600081159050919050565b6000808260070b1415613c835760009050613d30565b60018260070b1415613c985760019050613d30565b60028260070b1415613cad5760029050613d30565b60038260070b1415613cc25760039050613d30565b60048260070b1415613cd75760049050613d30565b60058260070b1415613cec5760059050613d30565b60068260070b1415613d015760069050613d30565b60078260070b1415613d165760079050613d30565b60088260070b1415613d2b5760089050613d30565b600080fd5b919050565b600081159050919050565b600080600080613d508686612c49565b9150915060008290508082945094505050509250929050565b60405180608001604052806060815260200160608152602001613d8a613dec565b8152602001606081525090565b6040518060a00160405280600590602082028036833780820191505090505090565b604051806060016040528060006005811115613dd857613dd7615700565b5b815260200160608152602001606081525090565b6040518060a0016040528060006005811115613e0b57613e0a615700565b5b815260200160006005811115613e2457613e23615700565b5b815260200160006005811115613e3d57613e3c615700565b5b815260200160006008811115613e5657613e55615700565b5b8152602001606081525090565b6040518060c00160405280600690602082028036833780820191505090505090565b6040518060800160405280600490602082028036833780820191505090505090565b6000604051905090565b600080fd5b600080fd5b60068110613ec857600080fd5b50565b600081359050613eda81613ebb565b92915050565b600080fd5b600080fd5b6000601f19601f8301169050919050565b7f4e487b7100000000000000000000000000000000000000000000000000000000600052604160045260246000fd5b613f3382613eea565b810181811067ffffffffffffffff82111715613f5257613f51613efb565b5b80604052505050565b6000613f65613ea7565b9050613f718282613f2a565b919050565b600067ffffffffffffffff821115613f9157613f90613efb565b5b613f9a82613eea565b9050602081019050919050565b82818337600083830152505050565b6000613fc9613fc484613f76565b613f5b565b905082815260208101848484011115613fe557613fe4613ee5565b5b613ff0848285613fa7565b509392505050565b600082601f83011261400d5761400c613ee0565b5b813561401d848260208601613fb6565b91505092915050565b6000806040838503121561403d5761403c613eb1565b5b600061404b85828601613ecb565b925050602083013567ffffffffffffffff81111561406c5761406b613eb6565b5b61407885828601613ff8565b9150509250929050565b600081519050919050565b600082825260208201905092915050565b60005b838110156140bc5780820151818401526020810190506140a1565b838111156140cb576000848401525b50505050565b60006140dc82614082565b6140e6818561408d565b93506140f681856020860161409e565b6140ff81613eea565b840191505092915050565b6000602082019050818103600083015261412481846140d1565b905092915050565b600080fd5b600080fd5b600067ffffffffffffffff82111561415157614150613efb565b5b602082029050602081019050919050565b600080fd5b6000819050919050565b61417a81614167565b811461418557600080fd5b50565b60008135905061419781614171565b92915050565b60006141b06141ab84614136565b613f5b565b905080838252602082019050602084028301858111156141d3576141d2614162565b5b835b818110156141fc57806141e88882614188565b8452602084019350506020810190506141d5565b5050509392505050565b600082601f83011261421b5761421a613ee0565b5b813561422b84826020860161419d565b91505092915050565b600060c0828403121561424a5761424961412c565b5b61425460c0613f5b565b9050600082013567ffffffffffffffff81111561427457614273614131565b5b61428084828501614206565b600083015250602061429484828501614188565b60208301525060406142a884828501614188565b60408301525060606142bc84828501614188565b606083015250608082013567ffffffffffffffff8111156142e0576142df614131565b5b6142ec84828501613ff8565b60808301525060a061430084828501613ecb565b60a08301525092915050565b6000806040838503121561432357614322613eb1565b5b600083013567ffffffffffffffff81111561434157614340613eb6565b5b61434d85828601614234565b925050602061435e85828601614188565b9150509250929050565b61437181614167565b82525050565b600060608201905061438c6000830186614368565b6143996020830185614368565b6143a66040830184614368565b949350505050565b600080604083850312156143c5576143c4613eb1565b5b600083013567ffffffffffffffff8111156143e3576143e2613eb6565b5b6143ef85828601614206565b925050602061440085828601614188565b9150509250929050565b600060208201905061441f6000830184614368565b92915050565b600067ffffffffffffffff8211156144405761443f613efb565b5b602082029050602081019050919050565b60008115159050919050565b61446681614451565b811461447157600080fd5b50565b6000813590506144838161445d565b92915050565b60006080828403121561449f5761449e61412c565b5b6144a96080613f5b565b905060006144b984828501614474565b60008301525060206144cd84828501613ecb565b602083015250604082013567ffffffffffffffff8111156144f1576144f0614131565b5b6144fd84828501613ff8565b604083015250606082013567ffffffffffffffff81111561452157614520614131565b5b61452d84828501613ff8565b60608301525092915050565b600061454c61454784614425565b613f5b565b9050808382526020820190506020840283018581111561456f5761456e614162565b5b835b818110156145b657803567ffffffffffffffff81111561459457614593613ee0565b5b8086016145a18982614489565b85526020850194505050602081019050614571565b5050509392505050565b600082601f8301126145d5576145d4613ee0565b5b81356145e5848260208601614539565b91505092915050565b60008060006060848603121561460757614606613eb1565b5b600084013567ffffffffffffffff81111561462557614624613eb6565b5b61463186828701614234565b935050602084013567ffffffffffffffff81111561465257614651613eb6565b5b61465e868287016145c0565b925050604084013567ffffffffffffffff81111561467f5761467e613eb6565b5b61468b868287016145c0565b9150509250925092565b61469e81614451565b82525050565b60006020820190506146b96000830184614695565b92915050565b600080604083850312156146d6576146d5613eb1565b5b600083013567ffffffffffffffff8111156146f4576146f3613eb6565b5b61470085828601614234565b925050602083013567ffffffffffffffff81111561472157614720613eb6565b5b61472d85828601614489565b9150509250929050565b6009811061474457600080fd5b50565b60008135905061475681614737565b92915050565b600060c082840312156147725761477161412c565b5b61477c60c0613f5b565b9050600061478c84828501614474565b60008301525060206147a084828501613ecb565b60208301525060406147b484828501613ecb565b60408301525060606147c884828501613ecb565b60608301525060806147dc84828501614747565b60808301525060a082013567ffffffffffffffff811115614800576147ff614131565b5b61480c84828501613ff8565b60a08301525092915050565b600060a0828403121561482e5761482d61412c565b5b61483860a0613f5b565b9050600061484884828501614474565b600083015250602082013567ffffffffffffffff81111561486c5761486b614131565b5b61487884828501613ff8565b602083015250604082013567ffffffffffffffff81111561489c5761489b614131565b5b6148a884828501613ff8565b604083015250606082013567ffffffffffffffff8111156148cc576148cb614131565b5b6148d88482850161475c565b606083015250608082013567ffffffffffffffff8111156148fc576148fb614131565b5b614908848285016145c0565b60808301525092915050565b600080600080600060a086880312156149305761492f613eb1565b5b600086013567ffffffffffffffff81111561494e5761494d613eb6565b5b61495a88828901613ff8565b955050602086013567ffffffffffffffff81111561497b5761497a613eb6565b5b61498788828901613ff8565b945050604086013567ffffffffffffffff8111156149a8576149a7613eb6565b5b6149b488828901613ff8565b935050606086013567ffffffffffffffff8111156149d5576149d4613eb6565b5b6149e188828901613ff8565b925050608086013567ffffffffffffffff811115614a0257614a01613eb6565b5b614a0e88828901614818565b9150509295509295909350565b600080600080600060a08688031215614a3757614a36613eb1565b5b600086013567ffffffffffffffff811115614a5557614a54613eb6565b5b614a618882890161475c565b955050602086013567ffffffffffffffff811115614a8257614a81613eb6565b5b614a8e88828901613ff8565b945050604086013567ffffffffffffffff811115614aaf57614aae613eb6565b5b614abb88828901614818565b935050606086013567ffffffffffffffff811115614adc57614adb613eb6565b5b614ae888828901613ff8565b925050608086013567ffffffffffffffff811115614b0957614b08613eb6565b5b614b1588828901613ff8565b9150509295509295909350565b60068110614b2f57600080fd5b50565b600081359050614b4181614b22565b92915050565b60098110614b5457600080fd5b50565b600081359050614b6681614b47565b92915050565b600060a08284031215614b8257614b8161412c565b5b614b8c60a0613f5b565b90506000614b9c84828501614b32565b6000830152506020614bb084828501614b32565b6020830152506040614bc484828501614b32565b6040830152506060614bd884828501614b57565b606083015250608082013567ffffffffffffffff811115614bfc57614bfb614131565b5b614c0884828501613ff8565b60808301525092915050565b600067ffffffffffffffff821115614c2f57614c2e613efb565b5b602082029050602081019050919050565b600060608284031215614c5657614c5561412c565b5b614c606060613f5b565b90506000614c7084828501614b32565b600083015250602082013567ffffffffffffffff811115614c9457614c93614131565b5b614ca084828501613ff8565b602083015250604082013567ffffffffffffffff811115614cc457614cc3614131565b5b614cd084828501613ff8565b60408301525092915050565b6000614cef614cea84614c14565b613f5b565b90508083825260208201905060208402830185811115614d1257614d11614162565b5b835b81811015614d5957803567ffffffffffffffff811115614d3757614d36613ee0565b5b808601614d448982614c40565b85526020850194505050602081019050614d14565b5050509392505050565b600082601f830112614d7857614d77613ee0565b5b8135614d88848260208601614cdc565b91505092915050565b600060808284031215614da757614da661412c565b5b614db16080613f5b565b9050600082013567ffffffffffffffff811115614dd157614dd0614131565b5b614ddd84828501613ff8565b600083015250602082013567ffffffffffffffff811115614e0157614e00614131565b5b614e0d84828501613ff8565b602083015250604082013567ffffffffffffffff811115614e3157614e30614131565b5b614e3d84828501614b6c565b604083015250606082013567ffffffffffffffff811115614e6157614e60614131565b5b614e6d84828501614d63565b60608301525092915050565b600060208284031215614e8f57614e8e613eb1565b5b600082013567ffffffffffffffff811115614ead57614eac613eb6565b5b614eb984828501614d91565b91505092915050565b600080600080600060a08688031215614ede57614edd613eb1565b5b600086013567ffffffffffffffff811115614efc57614efb613eb6565b5b614f0888828901614818565b955050602086013567ffffffffffffffff811115614f2957614f28613eb6565b5b614f358882890161475c565b945050604086013567ffffffffffffffff811115614f5657614f55613eb6565b5b614f6288828901613ff8565b935050606086013567ffffffffffffffff811115614f8357614f82613eb6565b5b614f8f88828901613ff8565b925050608086013567ffffffffffffffff811115614fb057614faf613eb6565b5b614fbc88828901613ff8565b9150509295509295909350565b60008060408385031215614fe057614fdf613eb1565b5b600083013567ffffffffffffffff811115614ffe57614ffd613eb6565b5b61500a85828601613ff8565b925050602083013567ffffffffffffffff81111561502b5761502a613eb6565b5b61503785828601613ff8565b9150509250929050565b6000806000806080858703121561505b5761505a613eb1565b5b600085013567ffffffffffffffff81111561507957615078613eb6565b5b61508587828801613ff8565b945050602085013567ffffffffffffffff8111156150a6576150a5613eb6565b5b6150b287828801613ff8565b935050604085013567ffffffffffffffff8111156150d3576150d2613eb6565b5b6150df87828801613ff8565b925050606085013567ffffffffffffffff811115615100576150ff613eb6565b5b61510c87828801613ff8565b91505092959194509250565b6000806040838503121561512f5761512e613eb1565b5b600061513d85828601614747565b925050602083013567ffffffffffffffff81111561515e5761515d613eb6565b5b61516a85828601613ff8565b9150509250929050565b6000806040838503121561518b5761518a613eb1565b5b600083013567ffffffffffffffff8111156151a9576151a8613eb6565b5b6151b585828601614489565b925050602083013567ffffffffffffffff8111156151d6576151d5613eb6565b5b6151e285828601613ff8565b9150509250929050565b6000806040838503121561520357615202613eb1565b5b600083013567ffffffffffffffff81111561522157615220613eb6565b5b61522d85828601614234565b925050602083013567ffffffffffffffff81111561524e5761524d613eb6565b5b61525a858286016145c0565b9150509250929050565b6000806000806080858703121561527e5761527d613eb1565b5b600085013567ffffffffffffffff81111561529c5761529b613eb6565b5b6152a887828801614489565b94505060206152b987828801614188565b93505060406152ca87828801614188565b92505060606152db87828801614188565b91505092959194509250565b600080604083850312156152fe576152fd613eb1565b5b600083013567ffffffffffffffff81111561531c5761531b613eb6565b5b61532885828601614818565b925050602083013567ffffffffffffffff81111561534957615348613eb6565b5b6153558582860161475c565b9150509250929050565b60008060006060848603121561537857615377613eb1565b5b600084013567ffffffffffffffff81111561539657615395613eb6565b5b6153a28682870161475c565b935050602084013567ffffffffffffffff8111156153c3576153c2613eb6565b5b6153cf86828701613ff8565b925050604084013567ffffffffffffffff8111156153f0576153ef613eb6565b5b6153fc86828701613ff8565b9150509250925092565b60008060006060848603121561541f5761541e613eb1565b5b600084013567ffffffffffffffff81111561543d5761543c613eb6565b5b61544986828701614234565b935050602084013567ffffffffffffffff81111561546a57615469613eb6565b5b61547686828701614489565b925050604084013567ffffffffffffffff81111561549757615496613eb6565b5b6154a386828701614489565b9150509250925092565b6000608082840312156154c3576154c261412c565b5b6154cd6080613f5b565b905060006154dd84828501614474565b600083015250602082013567ffffffffffffffff81111561550157615500614131565b5b61550d84828501613ff8565b602083015250604082013567ffffffffffffffff81111561553157615530614131565b5b61553d84828501614818565b604083015250606082013567ffffffffffffffff81111561556157615560614131565b5b61556d84828501614818565b60608301525092915050565b60006080828403121561558f5761558e61412c565b5b6155996080613f5b565b9050600082013567ffffffffffffffff8111156155b9576155b8614131565b5b6155c58482850161475c565b600083015250602082013567ffffffffffffffff8111156155e9576155e8614131565b5b6155f584828501614234565b602083015250604061560984828501614188565b604083015250606061561d84828501614188565b60608301525092915050565b6000806000806080858703121561564357615642613eb1565b5b600085013567ffffffffffffffff81111561566157615660613eb6565b5b61566d878288016154ad565b945050602085013567ffffffffffffffff81111561568e5761568d613eb6565b5b61569a87828801615579565b935050604085013567ffffffffffffffff8111156156bb576156ba613eb6565b5b6156c787828801613ff8565b925050606085013567ffffffffffffffff8111156156e8576156e7613eb6565b5b6156f487828801613ff8565b91505092959194509250565b7f4e487b7100000000000000000000000000000000000000000000000000000000600052602160045260246000fd5b600381106157405761573f615700565b5b50565b60008190506157518261572f565b919050565b600061576182615743565b9050919050565b61577181615756565b82525050565b600060208201905061578c6000830184615768565b92915050565b600067ffffffffffffffff8211156157ad576157ac613efb565b5b602082029050602081019050919050565b60006157d16157cc84615792565b613f5b565b905080838252602082019050602084028301858111156157f4576157f3614162565b5b835b8181101561583b57803567ffffffffffffffff81111561581957615818613ee0565b5b8086016158268982613ff8565b855260208501945050506020810190506157f6565b5050509392505050565b600082601f83011261585a57615859613ee0565b5b813561586a8482602086016157be565b91505092915050565b60006020828403121561588957615888613eb1565b5b600082013567ffffffffffffffff8111156158a7576158a6613eb6565b5b6158b384828501615845565b91505092915050565b6000819050919050565b6158cf816158bc565b82525050565b60006020820190506158ea60008301846158c6565b92915050565b60006020828403121561590657615905613eb1565b5b600082013567ffffffffffffffff81111561592457615923613eb6565b5b61593084828501614818565b91505092915050565b6000806000806080858703121561595357615952613eb1565b5b600085013567ffffffffffffffff81111561597157615970613eb6565b5b61597d87828801615579565b945050602085013567ffffffffffffffff81111561599e5761599d613eb6565b5b6159aa87828801613ff8565b935050604085013567ffffffffffffffff8111156159cb576159ca613eb6565b5b6159d7878288016154ad565b925050606085013567ffffffffffffffff8111156159f8576159f7613eb6565b5b615a0487828801613ff8565b91505092959194509250565b600080600060608486031215615a2957615a28613eb1565b5b6000615a3786828701613ecb565b9350506020615a4886828701614747565b925050604084013567ffffffffffffffff811115615a6957615a68613eb6565b5b615a7586828701613ff8565b9150509250925092565b7f4e487b7100000000000000000000000000000000000000000000000000000000600052601160045260246000fd5b6000615ab982614167565b9150615ac483614167565b9250817fffffffffffffffffffffffffffffffffffffffffffffffffffffffffffffffff0483118215151615615afd57615afc615a7f565b5b828202905092915050565b6000615b1382614167565b9150615b1e83614167565b9250827fffffffffffffffffffffffffffffffffffffffffffffffffffffffffffffffff03821115615b5357615b52615a7f565b5b828201905092915050565b6000615b6982614167565b9150615b7483614167565b925082821015615b8757615b86615a7f565b5b828203905092915050565b7f4e487b7100000000000000000000000000000000000000000000000000000000600052603260045260246000fd5b6000615bcc82614167565b91507fffffffffffffffffffffffffffffffffffffffffffffffffffffffffffffffff821415615bff57615bfe615a7f565b5b600182019050919050565b7f4e487b7100000000000000000000000000000000000000000000000000000000600052602260045260246000fd5b60006002820490506001821680615c5157607f821691505b60208210811415615c6557615c64615c0a565b5b50919050565b600060ff82169050919050565b60008160f81b9050919050565b6000615c9082615c78565b9050919050565b615ca8615ca382615c6b565b615c85565b82525050565b600081905092915050565b6000615cc482614082565b615cce8185615cae565b9350615cde81856020860161409e565b80840191505092915050565b6000615cf68286615c97565b600182019150615d068285615c97565b600182019150615d168284615cb9565b9150819050949350505050565b6000615d2f8285615c97565b600182019150615d3f8284615cb9565b91508190509392505050565b600082825260208201905092915050565b7f696e76616c6964206f7220756e737570706f72746564206c656e677468206f7060008201527f65726174696f6e00000000000000000000000000000000000000000000000000602082015250565b6000615db8602783615d4b565b9150615dc382615d5c565b604082019050919050565b60006020820190508181036000830152615de781615dab565b9050919050565b6000615dfa8286615cb9565b9150615e068285615cb9565b9150615e128284615cb9565b9150819050949350505050565b7f73686f756c64206e6f742072656163682074686973206c696e65000000000000600082015250565b6000615e55601a83615d4b565b9150615e6082615e1f565b602082019050919050565b60006020820190508181036000830152615e8481615e48565b9050919050565b6000819050919050565b615ea6615ea1826158bc565b615e8b565b82525050565b6000615eb88284615e95565b60208201915081905092915050565b6000615ed38284615cb9565b915081905092915050565b615ee7816158bc565b8114615ef257600080fd5b50565b600081519050615f0481615ede565b92915050565b600060208284031215615f2057615f1f613eb1565b5b6000615f2e84828501615ef5565b91505092915050565b60007fffffffffffffffffffffffffffffffffffffffff00000000000000000000000082169050919050565b6000819050919050565b615f7e615f7982615f37565b615f63565b82525050565b6000615f908284615f6d565b60148201915081905092915050565b7f696e76616c6964206f7220756e737570706f727465642068617368206f70657260008201527f6174696f6e000000000000000000000000000000000000000000000000000000602082015250565b6000615ffb602583615d4b565b915061600682615f9f565b604082019050919050565b6000602082019050818103600083015261602a81615fee565b9050919050565b7f547279696e6720746f2073706c69742061207472656520776974682073697a6560008201527f203c203100000000000000000000000000000000000000000000000000000000602082015250565b600061608d602483615d4b565b915061609882616031565b604082019050919050565b600060208201905081810360008301526160bc81616080565b9050919050565b60006160ce82615c6b565b91506160d983615c6b565b92508260ff038211156160ef576160ee615a7f565b5b828201905092915050565b7f4e487b7100000000000000000000000000000000000000000000000000000000600052601260045260246000fd5b600061613482614167565b915061613f83614167565b92508261614f5761614e6160fa565b5b828204905092915050565b7f4e487b7100000000000000000000000000000000000000000000000000000000600052600160045260246000fd5b60008160011c9050919050565b6000808291508390505b60018511156161e0578086048111156161bc576161bb615a7f565b5b60018516156161cb5780820291505b80810290506161d985616189565b94506161a0565b94509492505050565b6000826161f957600190506162b5565b8161620757600090506162b5565b816001811461621d576002811461622757616256565b60019150506162b5565b60ff84111561623957616238615a7f565b5b8360020a9150848211156162505761624f615a7f565b5b506162b5565b5060208310610133831016604e8410600b841016171561628b5782820a90508381111561628657616285615a7f565b5b6162b5565b6162988484846001616196565b925090508184048111156162af576162ae615a7f565b5b81810290505b9392505050565b60006162c782614167565b91506162d283614167565b92506162ff7fffffffffffffffffffffffffffffffffffffffffffffffffffffffffffffffff84846161e9565b90509291505056fea264697066735822122076376e7960bd5bf659725989c925ae8b3666e6e4e94dbf1d1e1e8cc9fb1299d664736f6c63430008090033",
  "immutableReferences": {},
  "source": "// SPDX-License-Identifier: MIT\npragma solidity ^0.8.7;\n\nimport \"../ICredentialRegistry.sol\";\nimport \"../ICrossmint.sol\";\nimport \"../IClaimsVerifier.sol\";\nimport \"./Proofs.sol\";\n//import \"@openzeppelin/contracts/access/Ownable.sol\";\n//import \"@openzeppelin/contracts/token/ERC20/IERC20.sol\";\n// import \"@openzeppelin/contracts/token/ERC20/IERC721Receiver.sol\";\nimport \"@openzeppelin/contracts/token/ERC721/ERC721.sol\";\n//import \"@openzeppelin/contracts/token/ERC721/extensions/ERC721Burnable.sol\";\n//import \"@openzeppelin/contracts/token/ERC721/extensions/ERC721Pausable.sol\";\n//import \"@openzeppelin/contracts/token/ERC721/extensions/ERC721URIStorage.sol\";\n//import \"@openzeppelin/contracts/utils/Counters.sol\";\nimport \"./ICS23Verifier.sol\";\n\ncontract AnconMetadataOwnableBridge is ICS23Verifier {\n    using IBCExistenceProof for IBCExistenceProof.Data;\n    event CrossMintCallbackReceived(\n        address indexed newOwner,\n        string indexed metadataHash,\n        uint256 indexed tokenId\n    );\n\n    constructor() public {}\n\n    function convertProof(IBCExistenceProof.Data memory testxp)\n        public\n        returns (bool)\n    {\n        LeafOp memory leafOp = LeafOp({\n            hash: HashOp(uint256(testxp.leaf.hash)),\n            prehash_key: HashOp(uint256(testxp.leaf.prehash_key)),\n            prehash_value: HashOp(uint256(testxp.leaf.prehash_value)),\n            len: LengthOp(uint256(testxp.leaf.length)),\n            valid: false,\n            prefix: bytes(\"\")\n        });\n\n        // innerOpArr\n        InnerOp[] memory innerOpArr;\n\n        for (uint256 i = 0; i < testxp.path.length; i++) {\n            innerOpArr[i] = InnerOp({\n                valid: false,\n                hash: HashOp(uint256(testxp.leaf.hash)),\n                prefix: bytes(\"\"),\n                suffix: bytes(\"\")\n            });\n        }\n        ExistenceProof memory proof = ExistenceProof({\n            valid: false,\n            key: testxp.key,\n            value: testxp.value,\n            leaf: leafOp,\n            path: innerOpArr\n        });\n\n        return true;\n    }\n\n    /**\n     * changeOwnerWithProof\n     */\n    function changeOwnerWithProof(\n        bytes memory existenceProof,\n        bytes memory rootBz,\n        bytes memory pathBz,\n        bytes memory value\n    ) public returns (bool) {\n        IBCExistenceProof.Data memory exProof;\n        \n        exProof = IBCExistenceProof.decode(existenceProof);\n\n        // IBCExistenceProof.Data memory memoryXp = IBCExistenceProof.Data({\n        //     key: testxp.key,\n        //     value: testxp.value,\n        //     leaf: testxp.leaf,\n        //     path: testxp.path\n        // });\n\n        convertProof(exProof);\n\n        //proof.key = xp.\n\n        // verify permit exists, has not revoked, has valid issuer and is not expired\n        //return this.verifyMembership(iavlSpec, rootBz, xp, pathBz, value);\n        return true;\n        // verify token exists\n        //_lock(vc.data);\n        // _release\n    }\n\n    function _lock(bytes memory data) internal returns (bool) {\n        // ERC721(tokenAddress)\n        (\n            string memory metadata,\n            address to,\n            address newOwner,\n            address fromOwner,\n            address escrowAddress,\n            // fromTokenId\n            // toTokenId\n            uint256 id,\n            bool isNew\n        ) = abi.decode(\n                data,\n                (string, address, address, address, address, uint256, bool)\n            );\n        // FromTokenId verification\n        ERC721 nft = ERC721(to);\n        require(nft.ownerOf(id) == fromOwner, \"Invalid token id\");\n\n        if (isNew) {\n            // todo: should mint\n        } else {\n            // Escrow Address aka Lock\n            nft.safeTransferFrom(fromOwner, escrowAddress, id, data);\n        }\n\n        emit CrossMintCallbackReceived(newOwner, metadata, id);\n\n        return true;\n    }\n}\n",
  "sourcePath": "/mnt/e/Code/ancon-protocol/ethereum/contracts/ancon/AnconMetadataOwnableBridge.sol",
  "compiler": {
    "name": "solc",
    "version": "0.8.9+commit.e5eed63a.Emscripten.clang"
  },
  "schemaVersion": "3.4.2",
  "updatedAt": "2021-10-18T22:41:58.616Z",
  "devdoc": {
    "kind": "dev",
    "methods": {},
    "version": 1
  },
  "userdoc": {
    "kind": "user",
    "methods": {
      "changeOwnerWithProof(bytes,bytes,bytes,bytes)": {
        "notice": "changeOwnerWithProof"
      }
    },
    "version": 1
  }
}