{
  "contractName": "AnconMetadataOwnable",
  "abi": [
    {
      "inputs": [
        {
          "internalType": "address",
          "name": "_tokenNFT",
          "type": "address"
        },
        {
          "internalType": "address",
          "name": "_credentialRegistry",
          "type": "address"
        },
        {
          "internalType": "address",
          "name": "_verifier",
          "type": "address"
        }
      ],
      "stateMutability": "nonpayable",
      "type": "constructor"
    },
    {
      "anonymous": false,
      "inputs": [
        {
          "indexed": true,
          "internalType": "address",
          "name": "newOwner",
          "type": "address"
        },
        {
          "indexed": true,
          "internalType": "string",
          "name": "metadataHash",
          "type": "string"
        },
        {
          "indexed": true,
          "internalType": "uint256",
          "name": "tokenId",
          "type": "uint256"
        }
      ],
      "name": "CrossMintCallbackReceived",
      "type": "event"
    },
    {
      "inputs": [],
      "name": "credentialRegistry",
      "outputs": [
        {
          "internalType": "contract ICredentialRegistry",
          "name": "",
          "type": "address"
        }
      ],
      "stateMutability": "view",
      "type": "function"
    },
    {
      "inputs": [],
      "name": "senderChainId",
      "outputs": [
        {
          "internalType": "uint256",
          "name": "",
          "type": "uint256"
        }
      ],
      "stateMutability": "view",
      "type": "function"
    },
    {
      "inputs": [],
      "name": "tokenNFT",
      "outputs": [
        {
          "internalType": "address",
          "name": "",
          "type": "address"
        }
      ],
      "stateMutability": "view",
      "type": "function"
    },
    {
      "inputs": [],
      "name": "verifier",
      "outputs": [
        {
          "internalType": "contract IClaimsVerifier",
          "name": "",
          "type": "address"
        }
      ],
      "stateMutability": "view",
      "type": "function"
    },
    {
      "inputs": [
        {
          "internalType": "address",
          "name": "fromOwner",
          "type": "address"
        },
        {
          "internalType": "address",
          "name": "toOwner",
          "type": "address"
        },
        {
          "internalType": "bytes",
          "name": "permitSignature",
          "type": "bytes"
        },
        {
          "internalType": "bytes32",
          "name": "permitHash",
          "type": "bytes32"
        }
      ],
      "name": "changeOwner",
      "outputs": [
        {
          "internalType": "bool",
          "name": "",
          "type": "bool"
        }
      ],
      "stateMutability": "nonpayable",
      "type": "function"
    },
    {
      "inputs": [
        {
          "components": [
            {
              "internalType": "address",
              "name": "issuer",
              "type": "address"
            },
            {
              "internalType": "address",
              "name": "subject",
              "type": "address"
            },
            {
              "internalType": "bytes",
              "name": "data",
              "type": "bytes"
            },
            {
              "internalType": "uint256",
              "name": "validFrom",
              "type": "uint256"
            },
            {
              "internalType": "uint256",
              "name": "validTo",
              "type": "uint256"
            }
          ],
          "internalType": "struct VerifiableCredential",
          "name": "vc",
          "type": "tuple"
        },
        {
          "internalType": "uint8",
          "name": "v",
          "type": "uint8"
        },
        {
          "internalType": "bytes32",
          "name": "r",
          "type": "bytes32"
        },
        {
          "internalType": "bytes32",
          "name": "s",
          "type": "bytes32"
        }
      ],
      "name": "changeOwnerWithProof",
      "outputs": [
        {
          "internalType": "bool",
          "name": "",
          "type": "bool"
        }
      ],
      "stateMutability": "nonpayable",
      "type": "function"
    }
  ],
  "bytecode": "0x60806040523480156200001157600080fd5b50604051620016f3380380620016f383398181016040528101906200003791906200016c565b80600160006101000a81548173ffffffffffffffffffffffffffffffffffffffff021916908373ffffffffffffffffffffffffffffffffffffffff16021790555081600360006101000a81548173ffffffffffffffffffffffffffffffffffffffff021916908373ffffffffffffffffffffffffffffffffffffffff160217905550826000806101000a81548173ffffffffffffffffffffffffffffffffffffffff021916908373ffffffffffffffffffffffffffffffffffffffff160217905550505050620001c8565b600080fd5b600073ffffffffffffffffffffffffffffffffffffffff82169050919050565b6000620001348262000107565b9050919050565b620001468162000127565b81146200015257600080fd5b50565b60008151905062000166816200013b565b92915050565b60008060006060848603121562000188576200018762000102565b5b6000620001988682870162000155565b9350506020620001ab8682870162000155565b9250506040620001be8682870162000155565b9150509250925092565b61151b80620001d86000396000f3fe608060405234801561001057600080fd5b50600436106100625760003560e01c80632b7ac3f31461006757806331fe10441461008557806351a973e9146100b55780635468cd69146100d3578063b948c3d414610103578063dcfc798714610121575b600080fd5b61006f61013f565b60405161007c9190610736565b60405180910390f35b61009f600480360381019061009a919061091f565b610165565b6040516100ac91906109bd565b60405180910390f35b6100bd61027b565b6040516100ca91906109f1565b60405180910390f35b6100ed60048036038101906100e89190610b23565b610281565b6040516100fa91906109bd565b60405180910390f35b61010b610460565b6040516101189190610bc7565b60405180910390f35b610129610486565b6040516101369190610bf1565b60405180910390f35b600160009054906101000a900473ffffffffffffffffffffffffffffffffffffffff1681565b600080600360009054906101000a900473ffffffffffffffffffffffffffffffffffffffff1673ffffffffffffffffffffffffffffffffffffffff16637513074787878642615460426101b89190610c3b565b8a6040518763ffffffff1660e01b81526004016101da96959493929190610d28565b602060405180830381600087803b1580156101f457600080fd5b505af1158015610208573d6000803e3d6000fd5b505050506040513d601f19601f8201168201806040525081019061022c9190610dbc565b90508061026e576040517f08c379a000000000000000000000000000000000000000000000000000000000815260040161026590610e6c565b60405180910390fd5b6001915050949350505050565b60025481565b600080600080600080600160009054906101000a900473ffffffffffffffffffffffffffffffffffffffff1673ffffffffffffffffffffffffffffffffffffffff1663a915687d8b8b8b8b6040518563ffffffff1660e01b81526004016102eb9493929190610f79565b60a06040518083038186803b15801561030357600080fd5b505afa158015610317573d6000803e3d6000fd5b505050506040513d601f19601f8201168201806040525081019061033b9190610fc5565b9450945094509450945084610385576040517f08c379a000000000000000000000000000000000000000000000000000000000815260040161037c9061108c565b60405180910390fd5b836103c5576040517f08c379a00000000000000000000000000000000000000000000000000000000081526004016103bc906110f8565b60405180910390fd5b82610405576040517f08c379a00000000000000000000000000000000000000000000000000000000081526004016103fc90611164565b60405180910390fd5b80610445576040517f08c379a000000000000000000000000000000000000000000000000000000000815260040161043c906111d0565b60405180910390fd5b6104528a604001516104aa565b505050505050949350505050565b600360009054906101000a900473ffffffffffffffffffffffffffffffffffffffff1681565b60008054906101000a900473ffffffffffffffffffffffffffffffffffffffff1681565b6000806000806000806000878060200190518101906104c991906112e4565b95509550955095509550955060008590508373ffffffffffffffffffffffffffffffffffffffff168173ffffffffffffffffffffffffffffffffffffffff16636352211e856040518263ffffffff1660e01b815260040161052a91906109f1565b60206040518083038186803b15801561054257600080fd5b505afa158015610556573d6000803e3d6000fd5b505050506040513d601f19601f8201168201806040525081019061057a91906113a2565b73ffffffffffffffffffffffffffffffffffffffff16146105d0576040517f08c379a00000000000000000000000000000000000000000000000000000000081526004016105c79061141b565b60405180910390fd5b81156105db5761064d565b8073ffffffffffffffffffffffffffffffffffffffff1663b88d4fde8587868d6040518563ffffffff1660e01b815260040161061a949392919061143b565b600060405180830381600087803b15801561063457600080fd5b505af1158015610648573d6000803e3d6000fd5b505050505b828760405161065c91906114ce565b60405180910390208673ffffffffffffffffffffffffffffffffffffffff167f7831155e0175a982ced95e13c3af42eed5182336de065cbc06ef3c68ff504f7660405160405180910390a46001975050505050505050919050565b600073ffffffffffffffffffffffffffffffffffffffff82169050919050565b6000819050919050565b60006106fc6106f76106f2846106b7565b6106d7565b6106b7565b9050919050565b600061070e826106e1565b9050919050565b600061072082610703565b9050919050565b61073081610715565b82525050565b600060208201905061074b6000830184610727565b92915050565b6000604051905090565b600080fd5b600080fd5b6000610770826106b7565b9050919050565b61078081610765565b811461078b57600080fd5b50565b60008135905061079d81610777565b92915050565b600080fd5b600080fd5b6000601f19601f8301169050919050565b7f4e487b7100000000000000000000000000000000000000000000000000000000600052604160045260246000fd5b6107f6826107ad565b810181811067ffffffffffffffff82111715610815576108146107be565b5b80604052505050565b6000610828610751565b905061083482826107ed565b919050565b600067ffffffffffffffff821115610854576108536107be565b5b61085d826107ad565b9050602081019050919050565b82818337600083830152505050565b600061088c61088784610839565b61081e565b9050828152602081018484840111156108a8576108a76107a8565b5b6108b384828561086a565b509392505050565b600082601f8301126108d0576108cf6107a3565b5b81356108e0848260208601610879565b91505092915050565b6000819050919050565b6108fc816108e9565b811461090757600080fd5b50565b600081359050610919816108f3565b92915050565b600080600080608085870312156109395761093861075b565b5b60006109478782880161078e565b94505060206109588782880161078e565b935050604085013567ffffffffffffffff81111561097957610978610760565b5b610985878288016108bb565b92505060606109968782880161090a565b91505092959194509250565b60008115159050919050565b6109b7816109a2565b82525050565b60006020820190506109d260008301846109ae565b92915050565b6000819050919050565b6109eb816109d8565b82525050565b6000602082019050610a0660008301846109e2565b92915050565b600080fd5b600080fd5b610a1f816109d8565b8114610a2a57600080fd5b50565b600081359050610a3c81610a16565b92915050565b600060a08284031215610a5857610a57610a0c565b5b610a6260a061081e565b90506000610a728482850161078e565b6000830152506020610a868482850161078e565b602083015250604082013567ffffffffffffffff811115610aaa57610aa9610a11565b5b610ab6848285016108bb565b6040830152506060610aca84828501610a2d565b6060830152506080610ade84828501610a2d565b60808301525092915050565b600060ff82169050919050565b610b0081610aea565b8114610b0b57600080fd5b50565b600081359050610b1d81610af7565b92915050565b60008060008060808587031215610b3d57610b3c61075b565b5b600085013567ffffffffffffffff811115610b5b57610b5a610760565b5b610b6787828801610a42565b9450506020610b7887828801610b0e565b9350506040610b898782880161090a565b9250506060610b9a8782880161090a565b91505092959194509250565b6000610bb182610703565b9050919050565b610bc181610ba6565b82525050565b6000602082019050610bdc6000830184610bb8565b92915050565b610beb81610765565b82525050565b6000602082019050610c066000830184610be2565b92915050565b7f4e487b7100000000000000000000000000000000000000000000000000000000600052601160045260246000fd5b6000610c46826109d8565b9150610c51836109d8565b9250827fffffffffffffffffffffffffffffffffffffffffffffffffffffffffffffffff03821115610c8657610c85610c0c565b5b828201905092915050565b610c9a816108e9565b82525050565b600081519050919050565b600082825260208201905092915050565b60005b83811015610cda578082015181840152602081019050610cbf565b83811115610ce9576000848401525b50505050565b6000610cfa82610ca0565b610d048185610cab565b9350610d14818560208601610cbc565b610d1d816107ad565b840191505092915050565b600060c082019050610d3d6000830189610be2565b610d4a6020830188610be2565b610d576040830187610c91565b610d6460608301866109e2565b610d7160808301856109e2565b81810360a0830152610d838184610cef565b9050979650505050505050565b610d99816109a2565b8114610da457600080fd5b50565b600081519050610db681610d90565b92915050565b600060208284031215610dd257610dd161075b565b5b6000610de084828501610da7565b91505092915050565b600082825260208201905092915050565b7f496e76616c6964207065726d69742063726564656e7469616c2c20747279206160008201527f6761696e00000000000000000000000000000000000000000000000000000000602082015250565b6000610e56602483610de9565b9150610e6182610dfa565b604082019050919050565b60006020820190508181036000830152610e8581610e49565b9050919050565b610e9581610765565b82525050565b600082825260208201905092915050565b6000610eb782610ca0565b610ec18185610e9b565b9350610ed1818560208601610cbc565b610eda816107ad565b840191505092915050565b610eee816109d8565b82525050565b600060a083016000830151610f0c6000860182610e8c565b506020830151610f1f6020860182610e8c565b5060408301518482036040860152610f378282610eac565b9150506060830151610f4c6060860182610ee5565b506080830151610f5f6080860182610ee5565b508091505092915050565b610f7381610aea565b82525050565b60006080820190508181036000830152610f938187610ef4565b9050610fa26020830186610f6a565b610faf6040830185610c91565b610fbc6060830184610c91565b95945050505050565b600080600080600060a08688031215610fe157610fe061075b565b5b6000610fef88828901610da7565b955050602061100088828901610da7565b945050604061101188828901610da7565b935050606061102288828901610da7565b925050608061103388828901610da7565b9150509295509295909350565b7f4d697373696e67207065726d6974000000000000000000000000000000000000600082015250565b6000611076600e83610de9565b915061108182611040565b602082019050919050565b600060208201905081810360008301526110a581611069565b9050919050565b7f5065726d697420686173206265656e207265766f6b6564000000000000000000600082015250565b60006110e2601783610de9565b91506110ed826110ac565b602082019050919050565b60006020820190508181036000830152611111816110d5565b9050919050565b7f497373756572206973206e6f742076616c696400000000000000000000000000600082015250565b600061114e601383610de9565b915061115982611118565b602082019050919050565b6000602082019050818103600083015261117d81611141565b9050919050565b7f5065726d69742068617320657870697265640000000000000000000000000000600082015250565b60006111ba601283610de9565b91506111c582611184565b602082019050919050565b600060208201905081810360008301526111e9816111ad565b9050919050565b600067ffffffffffffffff82111561120b5761120a6107be565b5b611214826107ad565b9050602081019050919050565b600061123461122f846111f0565b61081e565b9050828152602081018484840111156112505761124f6107a8565b5b61125b848285610cbc565b509392505050565b600082601f830112611278576112776107a3565b5b8151611288848260208601611221565b91505092915050565b600061129c826106b7565b9050919050565b6112ac81611291565b81146112b757600080fd5b50565b6000815190506112c9816112a3565b92915050565b6000815190506112de81610a16565b92915050565b60008060008060008060c087890312156113015761130061075b565b5b600087015167ffffffffffffffff81111561131f5761131e610760565b5b61132b89828a01611263565b965050602061133c89828a016112ba565b955050604061134d89828a016112ba565b945050606061135e89828a016112ba565b935050608061136f89828a016112cf565b92505060a061138089828a01610da7565b9150509295509295509295565b60008151905061139c81610777565b92915050565b6000602082840312156113b8576113b761075b565b5b60006113c68482850161138d565b91505092915050565b7f496e76616c696420746f6b656e20696400000000000000000000000000000000600082015250565b6000611405601083610de9565b9150611410826113cf565b602082019050919050565b60006020820190508181036000830152611434816113f8565b9050919050565b60006080820190506114506000830187610be2565b61145d6020830186610be2565b61146a60408301856109e2565b818103606083015261147c8184610cef565b905095945050505050565b600081519050919050565b600081905092915050565b60006114a882611487565b6114b28185611492565b93506114c2818560208601610cbc565b80840191505092915050565b60006114da828461149d565b91508190509291505056fea2646970667358221220fbaaf55fd94dcca496ccde4190ea13cc2ac3108e2550151f6ec5c7cde12877e164736f6c63430008090033",
  "immutableReferences": {},
  "source": "// SPDX-License-Identifier: MIT\npragma solidity ^0.8.7;\n\nimport \"./ICredentialRegistry.sol\";\nimport \"./ICrossmint.sol\";\nimport \"./IClaimsVerifier.sol\";\nimport \"@openzeppelin/contracts/access/Ownable.sol\";\nimport \"@openzeppelin/contracts/token/ERC20/IERC20.sol\";\n// import \"@openzeppelin/contracts/token/ERC20/IERC721Receiver.sol\";\nimport \"@openzeppelin/contracts/token/ERC721/ERC721.sol\";\nimport \"@openzeppelin/contracts/token/ERC721/extensions/ERC721Burnable.sol\";\nimport \"@openzeppelin/contracts/token/ERC721/extensions/ERC721Pausable.sol\";\nimport \"@openzeppelin/contracts/token/ERC721/extensions/ERC721URIStorage.sol\";\nimport \"@openzeppelin/contracts/utils/Counters.sol\";\n\ncontract AnconMetadataOwnable {\n    address public tokenNFT;\n    IClaimsVerifier public verifier;\n    uint256 public senderChainId;\n    ICredentialRegistry public credentialRegistry;\n\n    event CrossMintCallbackReceived(\n        address indexed newOwner,\n        string indexed metadataHash,\n        uint256 indexed tokenId\n    );\n\n    constructor(\n        address _tokenNFT,\n        address _credentialRegistry,\n        address _verifier\n    ) public {\n        verifier = IClaimsVerifier(_verifier);\n        credentialRegistry = ICredentialRegistry(_credentialRegistry);\n        tokenNFT = _tokenNFT;\n    }\n\n    // changeOwner\n    function changeOwner(\n        address fromOwner,\n        address toOwner,\n        bytes memory permitSignature,\n        bytes32 permitHash\n    ) public returns (bool) {\n        bool ok = credentialRegistry.registerCredential(\n            fromOwner,\n            toOwner,\n            permitHash,\n            block.timestamp,\n            block.timestamp + 6 hours,\n            permitSignature\n        );\n\n        require(ok, \"Invalid permit credential, try again\");\n\n        return true;\n    }\n\n    /**\n     * changeOwnerWithProof\n     */\n    function changeOwnerWithProof(\n        VerifiableCredential memory vc,\n        uint8 v,\n        bytes32 r,\n        bytes32 s\n    ) public returns (bool) {\n        // verify permit exists, has not revoked, has valid issuer and is not expired\n        (\n            bool exists,\n            bool hasRevoked,\n            bool issuerValid,\n            bool a,\n            bool expired\n        ) = verifier.verifyCredential(vc, v, r, s);\n        require(exists, \"Missing permit\");\n        require(hasRevoked, \"Permit has been revoked\");\n        require(issuerValid, \"Issuer is not valid\");\n        require(expired, \"Permit has expired\");\n        // verify token exists\n        _execute(vc.data);\n    }\n\n    function _execute(bytes memory data) internal returns (bool){\n        // ERC721(tokenAddress)\n        (\n            string memory metadata,\n            address to,\n            address newOwner,\n            address fromOwner,\n            uint256 id,\n            bool isNew\n        ) = abi.decode(\n                data,\n                (string, address, address, address, uint256, bool)\n            );\n        ERC721 nft = ERC721(to);\n\n        require(nft.ownerOf(id) == fromOwner, \"Invalid token id\");\n\n        if (isNew) {\n            // todo: should mint\n        } else {\n            nft.safeTransferFrom(fromOwner, newOwner, id, data);\n        }\n\n        emit CrossMintCallbackReceived(newOwner, metadata, id);\n\n        return true;\n    }\n}\n",
  "sourcePath": "/home/rogelio/Code/ancon-protocol/ethereum/contracts/AnconMetadataOwnable.sol",
  "compiler": {
    "name": "solc",
    "version": "0.8.9+commit.e5eed63a.Emscripten.clang"
  },
  "schemaVersion": "3.4.3",
  "updatedAt": "2021-10-10T20:05:01.441Z",
  "devdoc": {
    "kind": "dev",
    "methods": {},
    "version": 1
  },
  "userdoc": {
    "kind": "user",
    "methods": {
      "changeOwnerWithProof((address,address,bytes,uint256,uint256),uint8,bytes32,bytes32)": {
        "notice": "changeOwnerWithProof"
      }
    },
    "version": 1
  }
}