{
  "contractName": "ClaimsVerifier",
  "abi": [
    {
      "inputs": [
        {
          "internalType": "address",
          "name": "_registryAddress",
          "type": "address"
        }
      ],
      "stateMutability": "nonpayable",
      "type": "constructor"
    },
    {
      "anonymous": false,
      "inputs": [
        {
          "indexed": true,
          "internalType": "bytes32",
          "name": "role",
          "type": "bytes32"
        },
        {
          "indexed": true,
          "internalType": "bytes32",
          "name": "previousAdminRole",
          "type": "bytes32"
        },
        {
          "indexed": true,
          "internalType": "bytes32",
          "name": "newAdminRole",
          "type": "bytes32"
        }
      ],
      "name": "RoleAdminChanged",
      "type": "event"
    },
    {
      "anonymous": false,
      "inputs": [
        {
          "indexed": true,
          "internalType": "bytes32",
          "name": "role",
          "type": "bytes32"
        },
        {
          "indexed": true,
          "internalType": "address",
          "name": "account",
          "type": "address"
        },
        {
          "indexed": true,
          "internalType": "address",
          "name": "sender",
          "type": "address"
        }
      ],
      "name": "RoleGranted",
      "type": "event"
    },
    {
      "anonymous": false,
      "inputs": [
        {
          "indexed": true,
          "internalType": "bytes32",
          "name": "role",
          "type": "bytes32"
        },
        {
          "indexed": true,
          "internalType": "address",
          "name": "account",
          "type": "address"
        },
        {
          "indexed": true,
          "internalType": "address",
          "name": "sender",
          "type": "address"
        }
      ],
      "name": "RoleRevoked",
      "type": "event"
    },
    {
      "inputs": [],
      "name": "DEFAULT_ADMIN_ROLE",
      "outputs": [
        {
          "internalType": "bytes32",
          "name": "",
          "type": "bytes32"
        }
      ],
      "stateMutability": "view",
      "type": "function"
    },
    {
      "inputs": [],
      "name": "ISSUER_ROLE",
      "outputs": [
        {
          "internalType": "bytes32",
          "name": "",
          "type": "bytes32"
        }
      ],
      "stateMutability": "view",
      "type": "function"
    },
    {
      "inputs": [],
      "name": "SIGNER_ROLE",
      "outputs": [
        {
          "internalType": "bytes32",
          "name": "",
          "type": "bytes32"
        }
      ],
      "stateMutability": "view",
      "type": "function"
    },
    {
      "inputs": [
        {
          "internalType": "bytes32",
          "name": "role",
          "type": "bytes32"
        }
      ],
      "name": "getRoleAdmin",
      "outputs": [
        {
          "internalType": "bytes32",
          "name": "",
          "type": "bytes32"
        }
      ],
      "stateMutability": "view",
      "type": "function"
    },
    {
      "inputs": [
        {
          "internalType": "bytes32",
          "name": "role",
          "type": "bytes32"
        },
        {
          "internalType": "uint256",
          "name": "index",
          "type": "uint256"
        }
      ],
      "name": "getRoleMember",
      "outputs": [
        {
          "internalType": "address",
          "name": "",
          "type": "address"
        }
      ],
      "stateMutability": "view",
      "type": "function"
    },
    {
      "inputs": [
        {
          "internalType": "bytes32",
          "name": "role",
          "type": "bytes32"
        }
      ],
      "name": "getRoleMemberCount",
      "outputs": [
        {
          "internalType": "uint256",
          "name": "",
          "type": "uint256"
        }
      ],
      "stateMutability": "view",
      "type": "function"
    },
    {
      "inputs": [
        {
          "internalType": "bytes32",
          "name": "role",
          "type": "bytes32"
        },
        {
          "internalType": "address",
          "name": "account",
          "type": "address"
        }
      ],
      "name": "grantRole",
      "outputs": [],
      "stateMutability": "nonpayable",
      "type": "function"
    },
    {
      "inputs": [
        {
          "internalType": "bytes32",
          "name": "role",
          "type": "bytes32"
        },
        {
          "internalType": "address",
          "name": "account",
          "type": "address"
        }
      ],
      "name": "hasRole",
      "outputs": [
        {
          "internalType": "bool",
          "name": "",
          "type": "bool"
        }
      ],
      "stateMutability": "view",
      "type": "function"
    },
    {
      "inputs": [
        {
          "internalType": "bytes32",
          "name": "role",
          "type": "bytes32"
        },
        {
          "internalType": "address",
          "name": "account",
          "type": "address"
        }
      ],
      "name": "renounceRole",
      "outputs": [],
      "stateMutability": "nonpayable",
      "type": "function"
    },
    {
      "inputs": [
        {
          "internalType": "bytes32",
          "name": "role",
          "type": "bytes32"
        },
        {
          "internalType": "address",
          "name": "account",
          "type": "address"
        }
      ],
      "name": "revokeRole",
      "outputs": [],
      "stateMutability": "nonpayable",
      "type": "function"
    },
    {
      "inputs": [
        {
          "internalType": "bytes4",
          "name": "interfaceId",
          "type": "bytes4"
        }
      ],
      "name": "supportsInterface",
      "outputs": [
        {
          "internalType": "bool",
          "name": "",
          "type": "bool"
        }
      ],
      "stateMutability": "view",
      "type": "function"
    },
    {
      "inputs": [
        {
          "components": [
            {
              "internalType": "address",
              "name": "issuer",
              "type": "address"
            },
            {
              "internalType": "address",
              "name": "subject",
              "type": "address"
            },
            {
              "internalType": "bytes",
              "name": "data",
              "type": "bytes"
            },
            {
              "internalType": "uint256",
              "name": "validFrom",
              "type": "uint256"
            },
            {
              "internalType": "uint256",
              "name": "validTo",
              "type": "uint256"
            }
          ],
          "internalType": "struct ClaimTypes.VerifiableCredential",
          "name": "vc",
          "type": "tuple"
        },
        {
          "internalType": "uint8",
          "name": "v",
          "type": "uint8"
        },
        {
          "internalType": "bytes32",
          "name": "r",
          "type": "bytes32"
        },
        {
          "internalType": "bytes32",
          "name": "s",
          "type": "bytes32"
        }
      ],
      "name": "verifyCredential",
      "outputs": [
        {
          "internalType": "bool",
          "name": "",
          "type": "bool"
        },
        {
          "internalType": "bool",
          "name": "",
          "type": "bool"
        },
        {
          "internalType": "bool",
          "name": "",
          "type": "bool"
        },
        {
          "internalType": "bool",
          "name": "",
          "type": "bool"
        },
        {
          "internalType": "bool",
          "name": "",
          "type": "bool"
        }
      ],
      "stateMutability": "view",
      "type": "function"
    },
    {
      "inputs": [
        {
          "components": [
            {
              "internalType": "address",
              "name": "issuer",
              "type": "address"
            },
            {
              "internalType": "address",
              "name": "subject",
              "type": "address"
            },
            {
              "internalType": "bytes",
              "name": "data",
              "type": "bytes"
            },
            {
              "internalType": "uint256",
              "name": "validFrom",
              "type": "uint256"
            },
            {
              "internalType": "uint256",
              "name": "validTo",
              "type": "uint256"
            }
          ],
          "internalType": "struct ClaimTypes.VerifiableCredential",
          "name": "vc",
          "type": "tuple"
        },
        {
          "internalType": "bytes",
          "name": "_signature",
          "type": "bytes"
        }
      ],
      "name": "verifySigner",
      "outputs": [
        {
          "internalType": "bool",
          "name": "",
          "type": "bool"
        }
      ],
      "stateMutability": "view",
      "type": "function"
    },
    {
      "inputs": [
        {
          "internalType": "address",
          "name": "_subject",
          "type": "address"
        },
        {
          "internalType": "bytes32",
          "name": "_credentialHash",
          "type": "bytes32"
        },
        {
          "internalType": "uint256",
          "name": "_from",
          "type": "uint256"
        },
        {
          "internalType": "uint256",
          "name": "_exp",
          "type": "uint256"
        },
        {
          "internalType": "bytes",
          "name": "_signature",
          "type": "bytes"
        }
      ],
      "name": "registerCredential",
      "outputs": [
        {
          "internalType": "bool",
          "name": "",
          "type": "bool"
        }
      ],
      "stateMutability": "nonpayable",
      "type": "function"
    },
    {
      "inputs": [
        {
          "internalType": "bytes32",
          "name": "_credentialHash",
          "type": "bytes32"
        },
        {
          "internalType": "address",
          "name": "issuer",
          "type": "address"
        },
        {
          "internalType": "bytes",
          "name": "_signature",
          "type": "bytes"
        }
      ],
      "name": "registerSignature",
      "outputs": [
        {
          "internalType": "bool",
          "name": "",
          "type": "bool"
        }
      ],
      "stateMutability": "nonpayable",
      "type": "function"
    }
  ],
  "bytecode": "0x60806040523480156200001157600080fd5b5060405162003420380380620034208339818101604052810190620000379190620004d1565b6040518060400160405280600c81526020017f454950373132446f6d61696e00000000000000000000000000000000000000008152506040518060400160405280600181526020017f31000000000000000000000000000000000000000000000000000000000000008152506209e5513084620000f060405180608001604052808781526020018681526020018581526020018473ffffffffffffffffffffffffffffffffffffffff168152506200015760201b60201c565b600181905550806000806101000a81548173ffffffffffffffffffffffffffffffffffffffff021916908373ffffffffffffffffffffffffffffffffffffffff1602179055505050505050620001506000801b33620001cf60201b60201c565b50620005a7565b60007f8b73c3c69bb8fe3d512ecc4cf759cc79239f7b179b0ffacaa9a75d522b39400f82600001518051906020012083602001518051906020012084604001518560600151604051602001620001b29594939291906200054a565b604051602081830303815290604052805190602001209050919050565b620001e682826200021760201b62000a2b1760201c565b6200021281600360008581526020019081526020016000206200022d60201b62000a391790919060201c565b505050565b6200022982826200026560201b60201c565b5050565b60006200025d836000018373ffffffffffffffffffffffffffffffffffffffff1660001b6200035760201b60201c565b905092915050565b620002778282620003d160201b60201c565b620003535760016002600084815260200190815260200160002060000160008373ffffffffffffffffffffffffffffffffffffffff1673ffffffffffffffffffffffffffffffffffffffff16815260200190815260200160002060006101000a81548160ff021916908315150217905550620002f86200043c60201b60201c565b73ffffffffffffffffffffffffffffffffffffffff168173ffffffffffffffffffffffffffffffffffffffff16837f2f8788117e7eff1d82e926ec794901d17c78024a50270940304540a733656f0d60405160405180910390a45b5050565b60006200036b83836200044460201b60201c565b620003c6578260000182908060018154018082558091505060019003906000526020600020016000909190919091505582600001805490508360010160008481526020019081526020016000208190555060019050620003cb565b600090505b92915050565b60006002600084815260200190815260200160002060000160008373ffffffffffffffffffffffffffffffffffffffff1673ffffffffffffffffffffffffffffffffffffffff16815260200190815260200160002060009054906101000a900460ff16905092915050565b600033905090565b600080836001016000848152602001908152602001600020541415905092915050565b600080fd5b600073ffffffffffffffffffffffffffffffffffffffff82169050919050565b600062000499826200046c565b9050919050565b620004ab816200048c565b8114620004b757600080fd5b50565b600081519050620004cb81620004a0565b92915050565b600060208284031215620004ea57620004e962000467565b5b6000620004fa84828501620004ba565b91505092915050565b6000819050919050565b620005188162000503565b82525050565b6000819050919050565b62000533816200051e565b82525050565b62000544816200048c565b82525050565b600060a0820190506200056160008301886200050d565b6200057060208301876200050d565b6200057f60408301866200050d565b6200058e606083018562000528565b6200059d608083018462000539565b9695505050505050565b612e6980620005b76000396000f3fe608060405234801561001057600080fd5b50600436106100f55760003560e01c80639137ebec11610097578063a915687d11610066578063a915687d146102ac578063c4d8ce25146102e0578063ca15c87314610310578063d547741f14610340576100f5565b80639137ebec1461021057806391d1485414610240578063a1ebf35d14610270578063a217fddf1461028e576100f5565b806336568abe116100d357806336568abe14610176578063448684ac1461019257806382aefa24146101c25780639010d07c146101e0576100f5565b806301ffc9a7146100fa578063248a9ca31461012a5780632f2ff15d1461015a575b600080fd5b610114600480360381019061010f9190611b53565b61035c565b6040516101219190611b9b565b60405180910390f35b610144600480360381019061013f9190611bec565b6103d6565b6040516101519190611c28565b60405180910390f35b610174600480360381019061016f9190611ca1565b6103f6565b005b610190600480360381019061018b9190611ca1565b61042a565b005b6101ac60048036038101906101a79190611d46565b61045e565b6040516101b99190611b9b565b60405180910390f35b6101ca6105a9565b6040516101d79190611c28565b60405180910390f35b6101fa60048036038101906101f59190611df0565b6105cd565b6040516102079190611e3f565b60405180910390f35b61022a60048036038101906102259190611e5a565b6105fc565b6040516102379190611b9b565b60405180910390f35b61025a60048036038101906102559190611ca1565b61074c565b6040516102679190611b9b565b60405180910390f35b6102786107b7565b6040516102859190611c28565b60405180910390f35b6102966107db565b6040516102a39190611c28565b60405180910390f35b6102c660048036038101906102c19190612120565b6107e2565b6040516102d79594939291906121a3565b60405180910390f35b6102fa60048036038101906102f591906121f6565b6108b0565b6040516103079190611b9b565b60405180910390f35b61032a60048036038101906103259190611bec565b6109d3565b6040516103379190612281565b60405180910390f35b61035a60048036038101906103559190611ca1565b6109f7565b005b60007f5a05180f000000000000000000000000000000000000000000000000000000007bffffffffffffffffffffffffffffffffffffffffffffffffffffffff1916827bffffffffffffffffffffffffffffffffffffffffffffffffffffffff191614806103cf57506103ce82610a69565b5b9050919050565b600060026000838152602001908152602001600020600101549050919050565b6104008282610ae3565b6104258160036000858152602001908152602001600020610a3990919063ffffffff16565b505050565b6104348282610b0c565b6104598160036000858152602001908152602001600020610b8f90919063ffffffff16565b505050565b600061048a7fe2f4eaae4a9751e85a3e4a7b9587827a877f29914755229b07a7b2da98285f703361074c565b6104c9576040517f08c379a00000000000000000000000000000000000000000000000000000000081526004016104c0906122f9565b60405180910390fd5b600061052284848080601f016020809104026020016040519081016040528093929190818152602001838380828437600081840152601f19601f8201169050808301925050505050505087610bbf90919063ffffffff16565b90508073ffffffffffffffffffffffffffffffffffffffff163373ffffffffffffffffffffffffffffffffffffffff1614610592576040517f08c379a00000000000000000000000000000000000000000000000000000000081526004016105899061238b565b60405180910390fd5b61059e86868686610db0565b915050949350505050565b7f114e74f6ea3bd819998f78687bfcb11b140da08e9b7d222fa9c1f1ba1f2aa12281565b60006105f48260036000868152602001908152602001600020610e6e90919063ffffffff16565b905092915050565b60006106287f114e74f6ea3bd819998f78687bfcb11b140da08e9b7d222fa9c1f1ba1f2aa1223361074c565b610667576040517f08c379a000000000000000000000000000000000000000000000000000000000815260040161065e906123f7565b60405180910390fd5b60006106c084848080601f016020809104026020016040519081016040528093929190818152602001838380828437600081840152601f19601f8201169050808301925050505050505088610bbf90919063ffffffff16565b90508073ffffffffffffffffffffffffffffffffffffffff163373ffffffffffffffffffffffffffffffffffffffff1614610730576040517f08c379a00000000000000000000000000000000000000000000000000000000081526004016107279061238b565b60405180910390fd5b61073f33898989898989610e88565b9150509695505050505050565b60006002600084815260200190815260200160002060000160008373ffffffffffffffffffffffffffffffffffffffff1673ffffffffffffffffffffffffffffffffffffffff16815260200190815260200160002060009054906101000a900460ff16905092915050565b7fe2f4eaae4a9751e85a3e4a7b9587827a877f29914755229b07a7b2da98285f7081565b6000801b81565b6000806000806000806001546107f78b610f4f565b60405160200161080892919061248f565b60405160208183030381529060405280519060200120905061082e818b60000151610fbd565b61083c828c60000151611073565b61084d838d600001518d8d8d611129565b6108767fe2f4eaae4a9751e85a3e4a7b9587827a877f29914755229b07a7b2da98285f706109d3565b610884858f60000151611230565b60ff161461089a8e606001518f608001516112e6565b9550955095509550955050945094509450945094565b6000806001546108bf86610f4f565b6040516020016108d092919061248f565b604051602081830303815290604052805190602001209050600061094185858080601f016020809104026020016040519081016040528093929190818152602001838380828437600081840152601f19601f8201169050808301925050505050505083610bbf90919063ffffffff16565b905061096d7fe2f4eaae4a9751e85a3e4a7b9587827a877f29914755229b07a7b2da98285f708261074c565b80156109c857506109c782876000015187878080601f016020809104026020016040519081016040528093929190818152602001838380828437600081840152601f19601f820116905080830192505050505050506112ff565b5b925050509392505050565b60006109f0600360008481526020019081526020016000206113b8565b9050919050565b610a0182826113cd565b610a268160036000858152602001908152602001600020610b8f90919063ffffffff16565b505050565b610a3582826113f6565b5050565b6000610a61836000018373ffffffffffffffffffffffffffffffffffffffff1660001b6114d7565b905092915050565b60007f7965db0b000000000000000000000000000000000000000000000000000000007bffffffffffffffffffffffffffffffffffffffffffffffffffffffff1916827bffffffffffffffffffffffffffffffffffffffffffffffffffffffff19161480610adc5750610adb82611547565b5b9050919050565b610aec826103d6565b610afd81610af86115b1565b6115b9565b610b0783836113f6565b505050565b610b146115b1565b73ffffffffffffffffffffffffffffffffffffffff168173ffffffffffffffffffffffffffffffffffffffff1614610b81576040517f08c379a0000000000000000000000000000000000000000000000000000000008152600401610b7890612538565b60405180910390fd5b610b8b8282611656565b5050565b6000610bb7836000018373ffffffffffffffffffffffffffffffffffffffff1660001b611738565b905092915050565b60006041825114610c05576040517f08c379a0000000000000000000000000000000000000000000000000000000008152600401610bfc906125a4565b60405180910390fd5b60008060006020850151925060408501519150606085015160001a90507f7fffffffffffffffffffffffffffffff5d576e7357a4501ddfe92f46681b20a08260001c1115610c88576040517f08c379a0000000000000000000000000000000000000000000000000000000008152600401610c7f90612636565b60405180910390fd5b601b8160ff1614158015610ca05750601c8160ff1614155b15610ce0576040517f08c379a0000000000000000000000000000000000000000000000000000000008152600401610cd7906126c8565b60405180910390fd5b600060018783868660405160008152602001604052604051610d0594939291906126f7565b6020604051602081039080840390855afa158015610d27573d6000803e3d6000fd5b505050602060405103519050600073ffffffffffffffffffffffffffffffffffffffff168173ffffffffffffffffffffffffffffffffffffffff161415610da3576040517f08c379a0000000000000000000000000000000000000000000000000000000008152600401610d9a90612788565b60405180910390fd5b8094505050505092915050565b60008060009054906101000a900473ffffffffffffffffffffffffffffffffffffffff1673ffffffffffffffffffffffffffffffffffffffff1663448684ac868686866040518563ffffffff1660e01b8152600401610e1294939291906127e6565b602060405180830381600087803b158015610e2c57600080fd5b505af1158015610e40573d6000803e3d6000fd5b505050506040513d601f19601f82011682018060405250810190610e649190612852565b9050949350505050565b6000610e7d836000018361184c565b60001c905092915050565b60008060009054906101000a900473ffffffffffffffffffffffffffffffffffffffff1673ffffffffffffffffffffffffffffffffffffffff166375130747898989898989896040518863ffffffff1660e01b8152600401610ef0979695949392919061287f565b602060405180830381600087803b158015610f0a57600080fd5b505af1158015610f1e573d6000803e3d6000fd5b505050506040513d601f19601f82011682018060405250810190610f429190612852565b9050979650505050505050565b60007fd34b98f15f3cc8d5a74510607f2bdab05d90edf02fdc774dc8c26447466f86f182600001518360200151846040015185606001518660800151604051602001610fa096959493929190612960565b604051602081830303815290604052805190602001209050919050565b60008060009054906101000a900473ffffffffffffffffffffffffffffffffffffffff1673ffffffffffffffffffffffffffffffffffffffff1663957839d984846040518363ffffffff1660e01b815260040161101b9291906129c8565b60206040518083038186803b15801561103357600080fd5b505afa158015611047573d6000803e3d6000fd5b505050506040513d601f19601f8201168201806040525081019061106b9190612852565b905092915050565b60008060009054906101000a900473ffffffffffffffffffffffffffffffffffffffff1673ffffffffffffffffffffffffffffffffffffffff1663d6d76ed583856040518363ffffffff1660e01b81526004016110d19291906129f1565b60206040518083038186803b1580156110e957600080fd5b505afa1580156110fd573d6000803e3d6000fd5b505050506040513d601f19601f820116820180604052508101906111219190612852565b905092915050565b60008060009054906101000a900473ffffffffffffffffffffffffffffffffffffffff1673ffffffffffffffffffffffffffffffffffffffff166387cf356e866001898888886040516000815260200160405260405161118c94939291906126f7565b6020604051602081039080840390855afa1580156111ae573d6000803e3d6000fd5b505050602060405103516040518363ffffffff1660e01b81526004016111d5929190612a1a565b60206040518083038186803b1580156111ed57600080fd5b505afa158015611201573d6000803e3d6000fd5b505050506040513d601f19601f820116820180604052508101906112259190612852565b905095945050505050565b60008060009054906101000a900473ffffffffffffffffffffffffffffffffffffffff1673ffffffffffffffffffffffffffffffffffffffff166306b15df484846040518363ffffffff1660e01b815260040161128e9291906129c8565b60206040518083038186803b1580156112a657600080fd5b505afa1580156112ba573d6000803e3d6000fd5b505050506040513d601f19601f820116820180604052508101906112de9190612a58565b905092915050565b60004283111580156112f757508142105b905092915050565b60008060009054906101000a900473ffffffffffffffffffffffffffffffffffffffff1673ffffffffffffffffffffffffffffffffffffffff1663701ee4638585856040518463ffffffff1660e01b815260040161135f93929190612a85565b60206040518083038186803b15801561137757600080fd5b505afa15801561138b573d6000803e3d6000fd5b505050506040513d601f19601f820116820180604052508101906113af9190612852565b90509392505050565b60006113c682600001611877565b9050919050565b6113d6826103d6565b6113e7816113e26115b1565b6115b9565b6113f18383611656565b505050565b611400828261074c565b6114d35760016002600084815260200190815260200160002060000160008373ffffffffffffffffffffffffffffffffffffffff1673ffffffffffffffffffffffffffffffffffffffff16815260200190815260200160002060006101000a81548160ff0219169083151502179055506114786115b1565b73ffffffffffffffffffffffffffffffffffffffff168173ffffffffffffffffffffffffffffffffffffffff16837f2f8788117e7eff1d82e926ec794901d17c78024a50270940304540a733656f0d60405160405180910390a45b5050565b60006114e38383611888565b61153c578260000182908060018154018082558091505060019003906000526020600020016000909190919091505582600001805490508360010160008481526020019081526020016000208190555060019050611541565b600090505b92915050565b60007f01ffc9a7000000000000000000000000000000000000000000000000000000007bffffffffffffffffffffffffffffffffffffffffffffffffffffffff1916827bffffffffffffffffffffffffffffffffffffffffffffffffffffffff1916149050919050565b600033905090565b6115c3828261074c565b611652576115e88173ffffffffffffffffffffffffffffffffffffffff1660146118ab565b6115f68360001c60206118ab565b604051602001611607929190612b97565b6040516020818303038152906040526040517f08c379a00000000000000000000000000000000000000000000000000000000081526004016116499190612c0a565b60405180910390fd5b5050565b611660828261074c565b156117345760006002600084815260200190815260200160002060000160008373ffffffffffffffffffffffffffffffffffffffff1673ffffffffffffffffffffffffffffffffffffffff16815260200190815260200160002060006101000a81548160ff0219169083151502179055506116d96115b1565b73ffffffffffffffffffffffffffffffffffffffff168173ffffffffffffffffffffffffffffffffffffffff16837ff6391f5c32d9c69d2a47ea670b442974b53935d1edc7fd64eb21e047a839171b60405160405180910390a45b5050565b6000808360010160008481526020019081526020016000205490506000811461184057600060018261176a9190612c5b565b90506000600186600001805490506117829190612c5b565b90508181146117f15760008660000182815481106117a3576117a2612c8f565b5b90600052602060002001549050808760000184815481106117c7576117c6612c8f565b5b90600052602060002001819055508387600101600083815260200190815260200160002081905550505b8560000180548061180557611804612cbe565b5b600190038181906000526020600020016000905590558560010160008681526020019081526020016000206000905560019350505050611846565b60009150505b92915050565b600082600001828154811061186457611863612c8f565b5b9060005260206000200154905092915050565b600081600001805490509050919050565b600080836001016000848152602001908152602001600020541415905092915050565b6060600060028360026118be9190612ced565b6118c89190612d47565b67ffffffffffffffff8111156118e1576118e0611f0a565b5b6040519080825280601f01601f1916602001820160405280156119135781602001600182028036833780820191505090505b5090507f30000000000000000000000000000000000000000000000000000000000000008160008151811061194b5761194a612c8f565b5b60200101907effffffffffffffffffffffffffffffffffffffffffffffffffffffffffffff1916908160001a9053507f7800000000000000000000000000000000000000000000000000000000000000816001815181106119af576119ae612c8f565b5b60200101907effffffffffffffffffffffffffffffffffffffffffffffffffffffffffffff1916908160001a905350600060018460026119ef9190612ced565b6119f99190612d47565b90505b6001811115611a99577f3031323334353637383961626364656600000000000000000000000000000000600f861660108110611a3b57611a3a612c8f565b5b1a60f81b828281518110611a5257611a51612c8f565b5b60200101907effffffffffffffffffffffffffffffffffffffffffffffffffffffffffffff1916908160001a905350600485901c945080611a9290612d9d565b90506119fc565b5060008414611add576040517f08c379a0000000000000000000000000000000000000000000000000000000008152600401611ad490612e13565b60405180910390fd5b8091505092915050565b6000604051905090565b600080fd5b600080fd5b60007fffffffff0000000000000000000000000000000000000000000000000000000082169050919050565b611b3081611afb565b8114611b3b57600080fd5b50565b600081359050611b4d81611b27565b92915050565b600060208284031215611b6957611b68611af1565b5b6000611b7784828501611b3e565b91505092915050565b60008115159050919050565b611b9581611b80565b82525050565b6000602082019050611bb06000830184611b8c565b92915050565b6000819050919050565b611bc981611bb6565b8114611bd457600080fd5b50565b600081359050611be681611bc0565b92915050565b600060208284031215611c0257611c01611af1565b5b6000611c1084828501611bd7565b91505092915050565b611c2281611bb6565b82525050565b6000602082019050611c3d6000830184611c19565b92915050565b600073ffffffffffffffffffffffffffffffffffffffff82169050919050565b6000611c6e82611c43565b9050919050565b611c7e81611c63565b8114611c8957600080fd5b50565b600081359050611c9b81611c75565b92915050565b60008060408385031215611cb857611cb7611af1565b5b6000611cc685828601611bd7565b9250506020611cd785828601611c8c565b9150509250929050565b600080fd5b600080fd5b600080fd5b60008083601f840112611d0657611d05611ce1565b5b8235905067ffffffffffffffff811115611d2357611d22611ce6565b5b602083019150836001820283011115611d3f57611d3e611ceb565b5b9250929050565b60008060008060608587031215611d6057611d5f611af1565b5b6000611d6e87828801611bd7565b9450506020611d7f87828801611c8c565b935050604085013567ffffffffffffffff811115611da057611d9f611af6565b5b611dac87828801611cf0565b925092505092959194509250565b6000819050919050565b611dcd81611dba565b8114611dd857600080fd5b50565b600081359050611dea81611dc4565b92915050565b60008060408385031215611e0757611e06611af1565b5b6000611e1585828601611bd7565b9250506020611e2685828601611ddb565b9150509250929050565b611e3981611c63565b82525050565b6000602082019050611e546000830184611e30565b92915050565b60008060008060008060a08789031215611e7757611e76611af1565b5b6000611e8589828a01611c8c565b9650506020611e9689828a01611bd7565b9550506040611ea789828a01611ddb565b9450506060611eb889828a01611ddb565b935050608087013567ffffffffffffffff811115611ed957611ed8611af6565b5b611ee589828a01611cf0565b92509250509295509295509295565b600080fd5b6000601f19601f8301169050919050565b7f4e487b7100000000000000000000000000000000000000000000000000000000600052604160045260246000fd5b611f4282611ef9565b810181811067ffffffffffffffff82111715611f6157611f60611f0a565b5b80604052505050565b6000611f74611ae7565b9050611f808282611f39565b919050565b600080fd5b600080fd5b600067ffffffffffffffff821115611faa57611fa9611f0a565b5b611fb382611ef9565b9050602081019050919050565b82818337600083830152505050565b6000611fe2611fdd84611f8f565b611f6a565b905082815260208101848484011115611ffe57611ffd611f8a565b5b612009848285611fc0565b509392505050565b600082601f83011261202657612025611ce1565b5b8135612036848260208601611fcf565b91505092915050565b600060a0828403121561205557612054611ef4565b5b61205f60a0611f6a565b9050600061206f84828501611c8c565b600083015250602061208384828501611c8c565b602083015250604082013567ffffffffffffffff8111156120a7576120a6611f85565b5b6120b384828501612011565b60408301525060606120c784828501611ddb565b60608301525060806120db84828501611ddb565b60808301525092915050565b600060ff82169050919050565b6120fd816120e7565b811461210857600080fd5b50565b60008135905061211a816120f4565b92915050565b6000806000806080858703121561213a57612139611af1565b5b600085013567ffffffffffffffff81111561215857612157611af6565b5b6121648782880161203f565b94505060206121758782880161210b565b935050604061218687828801611bd7565b925050606061219787828801611bd7565b91505092959194509250565b600060a0820190506121b86000830188611b8c565b6121c56020830187611b8c565b6121d26040830186611b8c565b6121df6060830185611b8c565b6121ec6080830184611b8c565b9695505050505050565b60008060006040848603121561220f5761220e611af1565b5b600084013567ffffffffffffffff81111561222d5761222c611af6565b5b6122398682870161203f565b935050602084013567ffffffffffffffff81111561225a57612259611af6565b5b61226686828701611cf0565b92509250509250925092565b61227b81611dba565b82525050565b60006020820190506122966000830184612272565b92915050565b600082825260208201905092915050565b7f43616c6c6572206973206e6f742061207369676e657200000000000000000000600082015250565b60006122e360168361229c565b91506122ee826122ad565b602082019050919050565b60006020820190508181036000830152612312816122d6565b9050919050565b7f53656e646572206861736e2774207369676e6564207468652063726564656e7460008201527f69616c0000000000000000000000000000000000000000000000000000000000602082015250565b600061237560238361229c565b915061238082612319565b604082019050919050565b600060208201905081810360008301526123a481612368565b9050919050565b7f43616c6c6572206973206e6f7420612069737375657220310000000000000000600082015250565b60006123e160188361229c565b91506123ec826123ab565b602082019050919050565b60006020820190508181036000830152612410816123d4565b9050919050565b600081905092915050565b7f1901000000000000000000000000000000000000000000000000000000000000600082015250565b6000612458600283612417565b915061246382612422565b600282019050919050565b6000819050919050565b61248961248482611bb6565b61246e565b82525050565b600061249a8261244b565b91506124a68285612478565b6020820191506124b68284612478565b6020820191508190509392505050565b7f416363657373436f6e74726f6c3a2063616e206f6e6c792072656e6f756e636560008201527f20726f6c657320666f722073656c660000000000000000000000000000000000602082015250565b6000612522602f8361229c565b915061252d826124c6565b604082019050919050565b6000602082019050818103600083015261255181612515565b9050919050565b7f45434453413a20696e76616c6964207369676e6174757265206c656e67746800600082015250565b600061258e601f8361229c565b915061259982612558565b602082019050919050565b600060208201905081810360008301526125bd81612581565b9050919050565b7f45434453413a20696e76616c6964207369676e6174757265202773272076616c60008201527f7565000000000000000000000000000000000000000000000000000000000000602082015250565b600061262060228361229c565b915061262b826125c4565b604082019050919050565b6000602082019050818103600083015261264f81612613565b9050919050565b7f45434453413a20696e76616c6964207369676e6174757265202776272076616c60008201527f7565000000000000000000000000000000000000000000000000000000000000602082015250565b60006126b260228361229c565b91506126bd82612656565b604082019050919050565b600060208201905081810360008301526126e1816126a5565b9050919050565b6126f1816120e7565b82525050565b600060808201905061270c6000830187611c19565b61271960208301866126e8565b6127266040830185611c19565b6127336060830184611c19565b95945050505050565b7f45434453413a20696e76616c6964207369676e61747572650000000000000000600082015250565b600061277260188361229c565b915061277d8261273c565b602082019050919050565b600060208201905081810360008301526127a181612765565b9050919050565b600082825260208201905092915050565b60006127c583856127a8565b93506127d2838584611fc0565b6127db83611ef9565b840190509392505050565b60006060820190506127fb6000830187611c19565b6128086020830186611e30565b818103604083015261281b8184866127b9565b905095945050505050565b61282f81611b80565b811461283a57600080fd5b50565b60008151905061284c81612826565b92915050565b60006020828403121561286857612867611af1565b5b60006128768482850161283d565b91505092915050565b600060c082019050612894600083018a611e30565b6128a16020830189611e30565b6128ae6040830188611c19565b6128bb6060830187612272565b6128c86080830186612272565b81810360a08301526128db8184866127b9565b905098975050505050505050565b600081519050919050565b60005b838110156129125780820151818401526020810190506128f7565b83811115612921576000848401525b50505050565b6000612932826128e9565b61293c81856127a8565b935061294c8185602086016128f4565b61295581611ef9565b840191505092915050565b600060c0820190506129756000830189611c19565b6129826020830188611e30565b61298f6040830187611e30565b81810360608301526129a18186612927565b90506129b06080830185612272565b6129bd60a0830184612272565b979650505050505050565b60006040820190506129dd6000830185611c19565b6129ea6020830184611e30565b9392505050565b6000604082019050612a066000830185611e30565b612a136020830184611c19565b9392505050565b6000604082019050612a2f6000830185611e30565b612a3c6020830184611e30565b9392505050565b600081519050612a52816120f4565b92915050565b600060208284031215612a6e57612a6d611af1565b5b6000612a7c84828501612a43565b91505092915050565b6000606082019050612a9a6000830186611c19565b612aa76020830185611e30565b8181036040830152612ab98184612927565b9050949350505050565b7f416363657373436f6e74726f6c3a206163636f756e7420000000000000000000600082015250565b6000612af9601783612417565b9150612b0482612ac3565b601782019050919050565b600081519050919050565b6000612b2582612b0f565b612b2f8185612417565b9350612b3f8185602086016128f4565b80840191505092915050565b7f206973206d697373696e6720726f6c6520000000000000000000000000000000600082015250565b6000612b81601183612417565b9150612b8c82612b4b565b601182019050919050565b6000612ba282612aec565b9150612bae8285612b1a565b9150612bb982612b74565b9150612bc58284612b1a565b91508190509392505050565b6000612bdc82612b0f565b612be6818561229c565b9350612bf68185602086016128f4565b612bff81611ef9565b840191505092915050565b60006020820190508181036000830152612c248184612bd1565b905092915050565b7f4e487b7100000000000000000000000000000000000000000000000000000000600052601160045260246000fd5b6000612c6682611dba565b9150612c7183611dba565b925082821015612c8457612c83612c2c565b5b828203905092915050565b7f4e487b7100000000000000000000000000000000000000000000000000000000600052603260045260246000fd5b7f4e487b7100000000000000000000000000000000000000000000000000000000600052603160045260246000fd5b6000612cf882611dba565b9150612d0383611dba565b9250817fffffffffffffffffffffffffffffffffffffffffffffffffffffffffffffffff0483118215151615612d3c57612d3b612c2c565b5b828202905092915050565b6000612d5282611dba565b9150612d5d83611dba565b9250827fffffffffffffffffffffffffffffffffffffffffffffffffffffffffffffffff03821115612d9257612d91612c2c565b5b828201905092915050565b6000612da882611dba565b91506000821415612dbc57612dbb612c2c565b5b600182039050919050565b7f537472696e67733a20686578206c656e67746820696e73756666696369656e74600082015250565b6000612dfd60208361229c565b9150612e0882612dc7565b602082019050919050565b60006020820190508181036000830152612e2c81612df0565b905091905056fea26469706673582212209735ed547ecef11cfe4621732136143ca284bdcc990c68f84a506a93e234cd7664736f6c63430008090033",
  "immutableReferences": {},
  "source": "//SPDX-License-Identifier: UNLICENSED\n\npragma solidity ^0.8.7;\npragma experimental ABIEncoderV2;\n\nimport \"./lib/ECDSA.sol\";\n\nimport \"@openzeppelin/contracts/access/AccessControl.sol\";\nimport \"@openzeppelin/contracts/access/AccessControlEnumerable.sol\";\nimport \"./AbstractClaimsVerifier.sol\";\nimport \"@openzeppelin/contracts/access/IAccessControlEnumerable.sol\";\nimport \"./ClaimTypes.sol\";\n\ncontract ClaimsVerifier is AbstractClaimsVerifier, \nClaimTypes, \nAccessControlEnumerable{\n\n    using ECDSA for bytes32;\n\n    bytes32 public constant ISSUER_ROLE = keccak256(\"ISSUER_ROLE\");\n    bytes32 public constant SIGNER_ROLE = keccak256(\"SIGNER_ROLE\");\n\n    constructor (address _registryAddress)\n    AbstractClaimsVerifier(\n        \"EIP712Domain\",\n        \"1\",\n        648529,\n        address(this),\n        _registryAddress\n    ) public {\n        _setupRole(DEFAULT_ADMIN_ROLE, msg.sender);\n    }\n\n    function verifyCredential(VerifiableCredential memory vc, uint8 v, bytes32 r, bytes32 s) public view returns (bool, bool, bool, bool, bool) {\n        bytes32 digest = keccak256(\n            abi.encodePacked(\n                \"\\x19\\x01\",\n                DOMAIN_SEPARATOR,\n                hashVerifiableCredential(vc)\n            )\n        );\n        return (_exist(digest, vc.issuer), _verifyRevoked(digest, vc.issuer), _verifyIssuer(digest, vc.issuer, v, r, s), (_verifySigners(digest, vc.issuer) == getRoleMemberCount(keccak256(\"SIGNER_ROLE\"))), _validPeriod(vc.validFrom, vc.validTo));\n    }\n\n    function verifySigner(VerifiableCredential memory vc, bytes calldata _signature) public view returns (bool){\n        bytes32 digest = keccak256(\n            abi.encodePacked(\n                \"\\x19\\x01\",\n                DOMAIN_SEPARATOR,\n                hashVerifiableCredential(vc)\n            )\n        );\n\n        address signer = digest.recover(_signature);\n        return hasRole(SIGNER_ROLE, signer) && _isSigner(digest, vc.issuer, _signature);\n    }\n\n    function registerCredential(address _subject, bytes32 _credentialHash, uint256 _from, uint256 _exp, bytes calldata _signature) public onlyIssuer returns (bool) {\n        address signer = _credentialHash.recover(_signature);\n        require(msg.sender == signer, \"Sender hasn't signed the credential\");\n        return _registerCredential(msg.sender, _subject, _credentialHash, _from, _exp, _signature);\n    }\n\n    function registerSignature(bytes32 _credentialHash, address issuer, bytes calldata _signature) public onlySigner returns (bool){\n        address signer = _credentialHash.recover(_signature);\n        require(msg.sender == signer, \"Sender hasn't signed the credential\");\n        return _registerSignature(_credentialHash, issuer, _signature);\n    }\n\n    modifier onlyAdmin(){\n        require(hasRole(DEFAULT_ADMIN_ROLE, msg.sender), \"Caller is not Admin\");\n        _;\n    }\n\n    modifier onlySigner() {\n        require(hasRole(SIGNER_ROLE, msg.sender), \"Caller is not a signer\");\n        _;\n    }\n\n    modifier onlyIssuer() {\n        require(hasRole(ISSUER_ROLE, msg.sender), \"Caller is not a issuer 1\");\n        _;\n    }\n\n\n}",
  "sourcePath": "/mnt/e/Code/ancon-protocol/ethereum/contracts/vccontracts/ClaimsVerifier.sol",
  "compiler": {
    "name": "solc",
    "version": "0.8.9+commit.e5eed63a.Emscripten.clang"
  },
  "schemaVersion": "3.4.2",
  "updatedAt": "2021-10-18T22:42:02.909Z",
  "devdoc": {
    "kind": "dev",
    "methods": {
      "getRoleAdmin(bytes32)": {
        "details": "Returns the admin role that controls `role`. See {grantRole} and {revokeRole}. To change a role's admin, use {_setRoleAdmin}."
      },
      "getRoleMember(bytes32,uint256)": {
        "details": "Returns one of the accounts that have `role`. `index` must be a value between 0 and {getRoleMemberCount}, non-inclusive. Role bearers are not sorted in any particular way, and their ordering may change at any point. WARNING: When using {getRoleMember} and {getRoleMemberCount}, make sure you perform all queries on the same block. See the following https://forum.openzeppelin.com/t/iterating-over-elements-on-enumerableset-in-openzeppelin-contracts/2296[forum post] for more information."
      },
      "getRoleMemberCount(bytes32)": {
        "details": "Returns the number of accounts that have `role`. Can be used together with {getRoleMember} to enumerate all bearers of a role."
      },
      "grantRole(bytes32,address)": {
        "details": "Overload {grantRole} to track enumerable memberships"
      },
      "hasRole(bytes32,address)": {
        "details": "Returns `true` if `account` has been granted `role`."
      },
      "renounceRole(bytes32,address)": {
        "details": "Overload {renounceRole} to track enumerable memberships"
      },
      "revokeRole(bytes32,address)": {
        "details": "Overload {revokeRole} to track enumerable memberships"
      },
      "supportsInterface(bytes4)": {
        "details": "See {IERC165-supportsInterface}."
      }
    },
    "version": 1
  },
  "userdoc": {
    "kind": "user",
    "methods": {},
    "version": 1
  }
}