{
  "contractName": "CredentialRegistry",
  "abi": [
    {
      "inputs": [],
      "stateMutability": "nonpayable",
      "type": "constructor"
    },
    {
      "anonymous": false,
      "inputs": [
        {
          "indexed": true,
          "internalType": "bytes32",
          "name": "credentialHash",
          "type": "bytes32"
        },
        {
          "indexed": false,
          "internalType": "address",
          "name": "by",
          "type": "address"
        },
        {
          "indexed": false,
          "internalType": "address",
          "name": "id",
          "type": "address"
        },
        {
          "indexed": false,
          "internalType": "uint256",
          "name": "iat",
          "type": "uint256"
        }
      ],
      "name": "CredentialRegistered",
      "type": "event"
    },
    {
      "anonymous": false,
      "inputs": [
        {
          "indexed": true,
          "internalType": "bytes32",
          "name": "credentialHash",
          "type": "bytes32"
        },
        {
          "indexed": false,
          "internalType": "address",
          "name": "by",
          "type": "address"
        },
        {
          "indexed": false,
          "internalType": "uint256",
          "name": "date",
          "type": "uint256"
        }
      ],
      "name": "CredentialRevoked",
      "type": "event"
    },
    {
      "anonymous": false,
      "inputs": [
        {
          "indexed": true,
          "internalType": "bytes32",
          "name": "role",
          "type": "bytes32"
        },
        {
          "indexed": true,
          "internalType": "bytes32",
          "name": "previousAdminRole",
          "type": "bytes32"
        },
        {
          "indexed": true,
          "internalType": "bytes32",
          "name": "newAdminRole",
          "type": "bytes32"
        }
      ],
      "name": "RoleAdminChanged",
      "type": "event"
    },
    {
      "anonymous": false,
      "inputs": [
        {
          "indexed": true,
          "internalType": "bytes32",
          "name": "role",
          "type": "bytes32"
        },
        {
          "indexed": true,
          "internalType": "address",
          "name": "account",
          "type": "address"
        },
        {
          "indexed": true,
          "internalType": "address",
          "name": "sender",
          "type": "address"
        }
      ],
      "name": "RoleGranted",
      "type": "event"
    },
    {
      "anonymous": false,
      "inputs": [
        {
          "indexed": true,
          "internalType": "bytes32",
          "name": "role",
          "type": "bytes32"
        },
        {
          "indexed": true,
          "internalType": "address",
          "name": "account",
          "type": "address"
        },
        {
          "indexed": true,
          "internalType": "address",
          "name": "sender",
          "type": "address"
        }
      ],
      "name": "RoleRevoked",
      "type": "event"
    },
    {
      "anonymous": false,
      "inputs": [
        {
          "indexed": false,
          "internalType": "address",
          "name": "issuer",
          "type": "address"
        },
        {
          "indexed": false,
          "internalType": "bool",
          "name": "exits",
          "type": "bool"
        },
        {
          "components": [
            {
              "internalType": "bytes32",
              "name": "r",
              "type": "bytes32"
            },
            {
              "internalType": "bytes32",
              "name": "s",
              "type": "bytes32"
            },
            {
              "internalType": "uint8",
              "name": "v",
              "type": "uint8"
            }
          ],
          "indexed": false,
          "internalType": "struct ICredentialRegistry.Signature",
          "name": "signature",
          "type": "tuple"
        }
      ],
      "name": "SignatureRegistered",
      "type": "event"
    },
    {
      "inputs": [],
      "name": "DEFAULT_ADMIN_ROLE",
      "outputs": [
        {
          "internalType": "bytes32",
          "name": "",
          "type": "bytes32"
        }
      ],
      "stateMutability": "view",
      "type": "function"
    },
    {
      "inputs": [],
      "name": "ISSUER_ROLE",
      "outputs": [
        {
          "internalType": "bytes32",
          "name": "",
          "type": "bytes32"
        }
      ],
      "stateMutability": "view",
      "type": "function"
    },
    {
      "inputs": [
        {
          "internalType": "bytes32",
          "name": "",
          "type": "bytes32"
        },
        {
          "internalType": "address",
          "name": "",
          "type": "address"
        }
      ],
      "name": "credentials",
      "outputs": [
        {
          "internalType": "address",
          "name": "issuer",
          "type": "address"
        },
        {
          "internalType": "address",
          "name": "subject",
          "type": "address"
        },
        {
          "internalType": "uint256",
          "name": "validFrom",
          "type": "uint256"
        },
        {
          "internalType": "uint256",
          "name": "validTo",
          "type": "uint256"
        },
        {
          "internalType": "bool",
          "name": "status",
          "type": "bool"
        }
      ],
      "stateMutability": "view",
      "type": "function"
    },
    {
      "inputs": [
        {
          "internalType": "bytes32",
          "name": "role",
          "type": "bytes32"
        }
      ],
      "name": "getRoleAdmin",
      "outputs": [
        {
          "internalType": "bytes32",
          "name": "",
          "type": "bytes32"
        }
      ],
      "stateMutability": "view",
      "type": "function"
    },
    {
      "inputs": [
        {
          "internalType": "bytes32",
          "name": "role",
          "type": "bytes32"
        },
        {
          "internalType": "address",
          "name": "account",
          "type": "address"
        }
      ],
      "name": "grantRole",
      "outputs": [],
      "stateMutability": "nonpayable",
      "type": "function"
    },
    {
      "inputs": [
        {
          "internalType": "bytes32",
          "name": "role",
          "type": "bytes32"
        },
        {
          "internalType": "address",
          "name": "account",
          "type": "address"
        }
      ],
      "name": "hasRole",
      "outputs": [
        {
          "internalType": "bool",
          "name": "",
          "type": "bool"
        }
      ],
      "stateMutability": "view",
      "type": "function"
    },
    {
      "inputs": [
        {
          "internalType": "bytes32",
          "name": "role",
          "type": "bytes32"
        },
        {
          "internalType": "address",
          "name": "account",
          "type": "address"
        }
      ],
      "name": "renounceRole",
      "outputs": [],
      "stateMutability": "nonpayable",
      "type": "function"
    },
    {
      "inputs": [
        {
          "internalType": "bytes32",
          "name": "role",
          "type": "bytes32"
        },
        {
          "internalType": "address",
          "name": "account",
          "type": "address"
        }
      ],
      "name": "revokeRole",
      "outputs": [],
      "stateMutability": "nonpayable",
      "type": "function"
    },
    {
      "inputs": [
        {
          "internalType": "bytes4",
          "name": "interfaceId",
          "type": "bytes4"
        }
      ],
      "name": "supportsInterface",
      "outputs": [
        {
          "internalType": "bool",
          "name": "",
          "type": "bool"
        }
      ],
      "stateMutability": "view",
      "type": "function"
    },
    {
      "inputs": [
        {
          "internalType": "address",
          "name": "issuer",
          "type": "address"
        },
        {
          "internalType": "address",
          "name": "_subject",
          "type": "address"
        },
        {
          "internalType": "bytes32",
          "name": "_credentialHash",
          "type": "bytes32"
        },
        {
          "internalType": "uint256",
          "name": "_from",
          "type": "uint256"
        },
        {
          "internalType": "uint256",
          "name": "_exp",
          "type": "uint256"
        },
        {
          "internalType": "bytes",
          "name": "signature",
          "type": "bytes"
        }
      ],
      "name": "registerCredential",
      "outputs": [
        {
          "internalType": "bool",
          "name": "",
          "type": "bool"
        }
      ],
      "stateMutability": "nonpayable",
      "type": "function"
    },
    {
      "inputs": [
        {
          "internalType": "bytes32",
          "name": "_credentialHash",
          "type": "bytes32"
        },
        {
          "internalType": "address",
          "name": "issuer",
          "type": "address"
        },
        {
          "internalType": "bytes",
          "name": "signature",
          "type": "bytes"
        }
      ],
      "name": "registerSignature",
      "outputs": [
        {
          "internalType": "bool",
          "name": "",
          "type": "bool"
        }
      ],
      "stateMutability": "nonpayable",
      "type": "function"
    },
    {
      "inputs": [
        {
          "internalType": "bytes32",
          "name": "_credentialHash",
          "type": "bytes32"
        }
      ],
      "name": "revokeCredential",
      "outputs": [
        {
          "internalType": "bool",
          "name": "",
          "type": "bool"
        }
      ],
      "stateMutability": "nonpayable",
      "type": "function"
    },
    {
      "inputs": [
        {
          "internalType": "bytes32",
          "name": "_credentialHash",
          "type": "bytes32"
        },
        {
          "internalType": "address",
          "name": "issuer",
          "type": "address"
        }
      ],
      "name": "exist",
      "outputs": [
        {
          "internalType": "bool",
          "name": "exist",
          "type": "bool"
        }
      ],
      "stateMutability": "view",
      "type": "function"
    },
    {
      "inputs": [
        {
          "internalType": "address",
          "name": "issuer",
          "type": "address"
        },
        {
          "internalType": "bytes32",
          "name": "_credentialHash",
          "type": "bytes32"
        }
      ],
      "name": "status",
      "outputs": [
        {
          "internalType": "bool",
          "name": "",
          "type": "bool"
        }
      ],
      "stateMutability": "view",
      "type": "function"
    },
    {
      "inputs": [
        {
          "internalType": "address",
          "name": "issuer",
          "type": "address"
        },
        {
          "internalType": "address",
          "name": "signer",
          "type": "address"
        }
      ],
      "name": "verifyIssuer",
      "outputs": [
        {
          "internalType": "bool",
          "name": "isValid",
          "type": "bool"
        }
      ],
      "stateMutability": "pure",
      "type": "function"
    },
    {
      "inputs": [
        {
          "internalType": "bytes32",
          "name": "_credentialHash",
          "type": "bytes32"
        },
        {
          "internalType": "address",
          "name": "_issuer",
          "type": "address"
        }
      ],
      "name": "getSigners",
      "outputs": [
        {
          "internalType": "uint8",
          "name": "signers",
          "type": "uint8"
        }
      ],
      "stateMutability": "view",
      "type": "function"
    },
    {
      "inputs": [
        {
          "internalType": "bytes32",
          "name": "_credentialHash",
          "type": "bytes32"
        },
        {
          "internalType": "address",
          "name": "_issuer",
          "type": "address"
        },
        {
          "internalType": "bytes",
          "name": "_signature",
          "type": "bytes"
        }
      ],
      "name": "isSigner",
      "outputs": [
        {
          "internalType": "bool",
          "name": "",
          "type": "bool"
        }
      ],
      "stateMutability": "view",
      "type": "function"
    },
    {
      "inputs": [
        {
          "internalType": "bytes32",
          "name": "digest",
          "type": "bytes32"
        },
        {
          "internalType": "uint8",
          "name": "v",
          "type": "uint8"
        },
        {
          "internalType": "bytes32",
          "name": "r",
          "type": "bytes32"
        },
        {
          "internalType": "bytes32",
          "name": "s",
          "type": "bytes32"
        }
      ],
      "name": "getIssuer",
      "outputs": [
        {
          "internalType": "address",
          "name": "issuer",
          "type": "address"
        }
      ],
      "stateMutability": "pure",
      "type": "function"
    }
  ],
  "bytecode": "0x60806040523480156200001157600080fd5b50620000276000801b336200002d60201b60201c565b620001a6565b6200003f82826200004360201b60201c565b5050565b6200005582826200013460201b60201c565b6200013057600160008084815260200190815260200160002060000160008373ffffffffffffffffffffffffffffffffffffffff1673ffffffffffffffffffffffffffffffffffffffff16815260200190815260200160002060006101000a81548160ff021916908315150217905550620000d56200019e60201b60201c565b73ffffffffffffffffffffffffffffffffffffffff168173ffffffffffffffffffffffffffffffffffffffff16837f2f8788117e7eff1d82e926ec794901d17c78024a50270940304540a733656f0d60405160405180910390a45b5050565b600080600084815260200190815260200160002060000160008373ffffffffffffffffffffffffffffffffffffffff1673ffffffffffffffffffffffffffffffffffffffff16815260200190815260200160002060009054906101000a900460ff16905092915050565b600033905090565b612fa480620001b66000396000f3fe608060405234801561001057600080fd5b50600436106101165760003560e01c806387cf356e116100a2578063a217fddf11610071578063a217fddf14610351578063ca6eec781461036f578063d547741f1461039f578063d6d76ed5146103bb578063f078e5db146103eb57610116565b806387cf356e146102915780639052944e146102c157806391d14854146102f1578063957839d91461032157610116565b806336568abe116100e957806336568abe146101c7578063448684ac146101e3578063701ee46314610213578063751307471461024357806382aefa241461027357610116565b806301ffc9a71461011b57806306b15df41461014b578063248a9ca31461017b5780632f2ff15d146101ab575b600080fd5b6101356004803603810190610130919061212c565b61041f565b6040516101429190612174565b60405180910390f35b61016560048036038101906101609190612223565b610499565b604051610172919061227f565b60405180910390f35b6101956004803603810190610190919061229a565b6106b6565b6040516101a291906122d6565b60405180910390f35b6101c560048036038101906101c09190612223565b6106d5565b005b6101e160048036038101906101dc9190612223565b6106fe565b005b6101fd60048036038101906101f89190612356565b610781565b60405161020a9190612174565b60405180910390f35b61022d6004803603810190610228919061250b565b610799565b60405161023a9190612174565b60405180910390f35b61025d600480360381019061025891906125b0565b610ac3565b60405161026a9190612174565b60405180910390f35b61027b610e94565b60405161028891906122d6565b60405180910390f35b6102ab60048036038101906102a6919061265f565b610eb8565b6040516102b89190612174565b60405180910390f35b6102db60048036038101906102d691906126cb565b610ef1565b6040516102e89190612741565b60405180910390f35b61030b60048036038101906103069190612223565b610f4c565b6040516103189190612174565b60405180910390f35b61033b60048036038101906103369190612223565b610fb6565b6040516103489190612174565b60405180910390f35b6103596111bf565b60405161036691906122d6565b60405180910390f35b6103896004803603810190610384919061229a565b6111c6565b6040516103969190612174565b60405180910390f35b6103b960048036038101906103b49190612223565b6114db565b005b6103d560048036038101906103d0919061275c565b611504565b6040516103e29190612174565b60405180910390f35b61040560048036038101906104009190612223565b6116dd565b6040516104169594939291906127ab565b60405180910390f35b60007f7965db0b000000000000000000000000000000000000000000000000000000007bffffffffffffffffffffffffffffffffffffffffffffffffffffffff1916827bffffffffffffffffffffffffffffffffffffffffffffffffffffffff1916148061049257506104918261176d565b5b9050919050565b6000806001600085815260200190815260200160002060008473ffffffffffffffffffffffffffffffffffffffff1673ffffffffffffffffffffffffffffffffffffffff1681526020019081526020016000206040518060c00160405290816000820160009054906101000a900473ffffffffffffffffffffffffffffffffffffffff1673ffffffffffffffffffffffffffffffffffffffff1673ffffffffffffffffffffffffffffffffffffffff1681526020016001820160009054906101000a900473ffffffffffffffffffffffffffffffffffffffff1673ffffffffffffffffffffffffffffffffffffffff1673ffffffffffffffffffffffffffffffffffffffff168152602001600282015481526020016003820154815260200160048201805480602002602001604051908101604052809291908181526020016000905b8282101561063f578382906000526020600020906003020160405180606001604052908160008201548152602001600182015481526020016002820160009054906101000a900460ff1660ff1660ff1681525050815260200190600101906105dc565b5050505081526020016005820160009054906101000a900460ff1615151515815250509050600073ffffffffffffffffffffffffffffffffffffffff16816020015173ffffffffffffffffffffffffffffffffffffffff16146106aa578060800151519150506106b0565b60009150505b92915050565b6000806000838152602001908152602001600020600101549050919050565b6106de826106b6565b6106ef816106ea6117d7565b6117df565b6106f9838361187c565b505050565b6107066117d7565b73ffffffffffffffffffffffffffffffffffffffff168173ffffffffffffffffffffffffffffffffffffffff1614610773576040517f08c379a000000000000000000000000000000000000000000000000000000000815260040161076a90612881565b60405180910390fd5b61077d828261195c565b5050565b600061078f85858585611a3d565b9050949350505050565b6000806001600086815260200190815260200160002060008573ffffffffffffffffffffffffffffffffffffffff1673ffffffffffffffffffffffffffffffffffffffff1681526020019081526020016000206040518060c00160405290816000820160009054906101000a900473ffffffffffffffffffffffffffffffffffffffff1673ffffffffffffffffffffffffffffffffffffffff1673ffffffffffffffffffffffffffffffffffffffff1681526020016001820160009054906101000a900473ffffffffffffffffffffffffffffffffffffffff1673ffffffffffffffffffffffffffffffffffffffff1673ffffffffffffffffffffffffffffffffffffffff168152602001600282015481526020016003820154815260200160048201805480602002602001604051908101604052809291908181526020016000905b8282101561093f578382906000526020600020906003020160405180606001604052908160008201548152602001600182015481526020016002820160009054906101000a900460ff1660ff1660ff1681525050815260200190600101906108dc565b5050505081526020016005820160009054906101000a900460ff1615151515815250509050600073ffffffffffffffffffffffffffffffffffffffff16816020015173ffffffffffffffffffffffffffffffffffffffff1614156109d8576040517f08c379a00000000000000000000000000000000000000000000000000000000081526004016109cf906128ed565b60405180910390fd5b60008060006020860151925060408601519150606086015160001a9050600060405180606001604052808581526020018481526020018360ff1681525090506000805b8660800151518160ff16108015610a30575081155b15610ab257826000015187608001518260ff1681518110610a5457610a5361290d565b5b602002602001015160000151148015610a955750826020015187608001518260ff1681518110610a8757610a8661290d565b5b602002602001015160200151145b15610a9f57600191505b8080610aaa9061296b565b915050610a1b565b819750505050505050509392505050565b6000610aef7f114e74f6ea3bd819998f78687bfcb11b140da08e9b7d222fa9c1f1ba1f2aa12233610f4c565b610b2e576040517f08c379a0000000000000000000000000000000000000000000000000000000008152600401610b25906129e1565b60405180910390fd5b60006001600088815260200190815260200160002060008a73ffffffffffffffffffffffffffffffffffffffff1673ffffffffffffffffffffffffffffffffffffffff1681526020019081526020016000209050600073ffffffffffffffffffffffffffffffffffffffff168160010160009054906101000a900473ffffffffffffffffffffffffffffffffffffffff1673ffffffffffffffffffffffffffffffffffffffff1614610c15576040517f08c379a0000000000000000000000000000000000000000000000000000000008152600401610c0c90612a4d565b60405180910390fd5b888160000160006101000a81548173ffffffffffffffffffffffffffffffffffffffff021916908373ffffffffffffffffffffffffffffffffffffffff160217905550878160010160006101000a81548173ffffffffffffffffffffffffffffffffffffffff021916908373ffffffffffffffffffffffffffffffffffffffff16021790555085816002018190555084816003018190555060018160050160006101000a81548160ff021916908315150217905550806001600089815260200190815260200160002060008b73ffffffffffffffffffffffffffffffffffffffff1673ffffffffffffffffffffffffffffffffffffffff1681526020019081526020016000206000820160009054906101000a900473ffffffffffffffffffffffffffffffffffffffff168160000160006101000a81548173ffffffffffffffffffffffffffffffffffffffff021916908373ffffffffffffffffffffffffffffffffffffffff1602179055506001820160009054906101000a900473ffffffffffffffffffffffffffffffffffffffff168160010160006101000a81548173ffffffffffffffffffffffffffffffffffffffff021916908373ffffffffffffffffffffffffffffffffffffffff16021790555060028201548160020155600382015481600301556004820181600401908054610e13929190611feb565b506005820160009054906101000a900460ff168160050160006101000a81548160ff021916908315150217905550905050867f889569e4303664728fba29a472b24d3032707e6ebbee9a46e070c5c8f2ae4c258a8a8460020154604051610e7c93929190612a6d565b60405180910390a26001915050979650505050505050565b7f114e74f6ea3bd819998f78687bfcb11b140da08e9b7d222fa9c1f1ba1f2aa12281565b60008173ffffffffffffffffffffffffffffffffffffffff168373ffffffffffffffffffffffffffffffffffffffff1614905092915050565b600060018585858560405160008152602001604052604051610f169493929190612aa4565b6020604051602081039080840390855afa158015610f38573d6000803e3d6000fd5b505050602060405103519050949350505050565b600080600084815260200190815260200160002060000160008373ffffffffffffffffffffffffffffffffffffffff1673ffffffffffffffffffffffffffffffffffffffff16815260200190815260200160002060009054906101000a900460ff16905092915050565b6000806001600085815260200190815260200160002060008473ffffffffffffffffffffffffffffffffffffffff1673ffffffffffffffffffffffffffffffffffffffff1681526020019081526020016000206040518060c00160405290816000820160009054906101000a900473ffffffffffffffffffffffffffffffffffffffff1673ffffffffffffffffffffffffffffffffffffffff1673ffffffffffffffffffffffffffffffffffffffff1681526020016001820160009054906101000a900473ffffffffffffffffffffffffffffffffffffffff1673ffffffffffffffffffffffffffffffffffffffff1673ffffffffffffffffffffffffffffffffffffffff168152602001600282015481526020016003820154815260200160048201805480602002602001604051908101604052809291908181526020016000905b8282101561115c578382906000526020600020906003020160405180606001604052908160008201548152602001600182015481526020016002820160009054906101000a900460ff1660ff1660ff1681525050815260200190600101906110f9565b5050505081526020016005820160009054906101000a900460ff1615151515815250509050600073ffffffffffffffffffffffffffffffffffffffff16816020015173ffffffffffffffffffffffffffffffffffffffff16141591505092915050565b6000801b81565b6000806001600084815260200190815260200160002060003373ffffffffffffffffffffffffffffffffffffffff1673ffffffffffffffffffffffffffffffffffffffff1681526020019081526020016000209050600073ffffffffffffffffffffffffffffffffffffffff168160010160009054906101000a900473ffffffffffffffffffffffffffffffffffffffff1673ffffffffffffffffffffffffffffffffffffffff1614156112af576040517f08c379a00000000000000000000000000000000000000000000000000000000081526004016112a690612b35565b60405180910390fd5b8060050160009054906101000a900460ff16611300576040517f08c379a00000000000000000000000000000000000000000000000000000000081526004016112f790612ba1565b60405180910390fd5b60008160050160006101000a81548160ff021916908315150217905550806001600085815260200190815260200160002060003373ffffffffffffffffffffffffffffffffffffffff1673ffffffffffffffffffffffffffffffffffffffff1681526020019081526020016000206000820160009054906101000a900473ffffffffffffffffffffffffffffffffffffffff168160000160006101000a81548173ffffffffffffffffffffffffffffffffffffffff021916908373ffffffffffffffffffffffffffffffffffffffff1602179055506001820160009054906101000a900473ffffffffffffffffffffffffffffffffffffffff168160010160006101000a81548173ffffffffffffffffffffffffffffffffffffffff021916908373ffffffffffffffffffffffffffffffffffffffff16021790555060028201548160020155600382015481600301556004820181600401908054611466929190611feb565b506005820160009054906101000a900460ff168160050160006101000a81548160ff021916908315150217905550905050827f80d4746828447d65eceb938c7f9d85fbeb232fe7819d5209ed452b3940f8904b33426040516114c9929190612bc1565b60405180910390a26001915050919050565b6114e4826106b6565b6114f5816114f06117d7565b6117df565b6114ff838361195c565b505050565b6000806001600084815260200190815260200160002060008573ffffffffffffffffffffffffffffffffffffffff1673ffffffffffffffffffffffffffffffffffffffff1681526020019081526020016000206040518060c00160405290816000820160009054906101000a900473ffffffffffffffffffffffffffffffffffffffff1673ffffffffffffffffffffffffffffffffffffffff1673ffffffffffffffffffffffffffffffffffffffff1681526020016001820160009054906101000a900473ffffffffffffffffffffffffffffffffffffffff1673ffffffffffffffffffffffffffffffffffffffff1673ffffffffffffffffffffffffffffffffffffffff168152602001600282015481526020016003820154815260200160048201805480602002602001604051908101604052809291908181526020016000905b828210156116aa578382906000526020600020906003020160405180606001604052908160008201548152602001600182015481526020016002820160009054906101000a900460ff1660ff1660ff168152505081526020019060010190611647565b5050505081526020016005820160009054906101000a900460ff16151515158152505090508060a0015191505092915050565b6001602052816000526040600020602052806000526040600020600091509150508060000160009054906101000a900473ffffffffffffffffffffffffffffffffffffffff16908060010160009054906101000a900473ffffffffffffffffffffffffffffffffffffffff16908060020154908060030154908060050160009054906101000a900460ff16905085565b60007f01ffc9a7000000000000000000000000000000000000000000000000000000007bffffffffffffffffffffffffffffffffffffffffffffffffffffffff1916827bffffffffffffffffffffffffffffffffffffffffffffffffffffffff1916149050919050565b600033905090565b6117e98282610f4c565b6118785761180e8173ffffffffffffffffffffffffffffffffffffffff166014611daf565b61181c8360001c6020611daf565b60405160200161182d929190612cfc565b6040516020818303038152906040526040517f08c379a000000000000000000000000000000000000000000000000000000000815260040161186f9190612d6f565b60405180910390fd5b5050565b6118868282610f4c565b61195857600160008084815260200190815260200160002060000160008373ffffffffffffffffffffffffffffffffffffffff1673ffffffffffffffffffffffffffffffffffffffff16815260200190815260200160002060006101000a81548160ff0219169083151502179055506118fd6117d7565b73ffffffffffffffffffffffffffffffffffffffff168173ffffffffffffffffffffffffffffffffffffffff16837f2f8788117e7eff1d82e926ec794901d17c78024a50270940304540a733656f0d60405160405180910390a45b5050565b6119668282610f4c565b15611a3957600080600084815260200190815260200160002060000160008373ffffffffffffffffffffffffffffffffffffffff1673ffffffffffffffffffffffffffffffffffffffff16815260200190815260200160002060006101000a81548160ff0219169083151502179055506119de6117d7565b73ffffffffffffffffffffffffffffffffffffffff168173ffffffffffffffffffffffffffffffffffffffff16837ff6391f5c32d9c69d2a47ea670b442974b53935d1edc7fd64eb21e047a839171b60405160405180910390a45b5050565b6000611a697f114e74f6ea3bd819998f78687bfcb11b140da08e9b7d222fa9c1f1ba1f2aa12233610f4c565b611aa8576040517f08c379a0000000000000000000000000000000000000000000000000000000008152600401611a9f906129e1565b60405180910390fd5b60006001600087815260200190815260200160002060008673ffffffffffffffffffffffffffffffffffffffff1673ffffffffffffffffffffffffffffffffffffffff1681526020019081526020016000209050600073ffffffffffffffffffffffffffffffffffffffff168160010160009054906101000a900473ffffffffffffffffffffffffffffffffffffffff1673ffffffffffffffffffffffffffffffffffffffff161415611b90576040517f08c379a0000000000000000000000000000000000000000000000000000000008152600401611b87906128ed565b60405180910390fd5b600084848080601f016020809104026020016040519081016040528093929190818152602001838380828437600081840152601f19601f82011690508083019250505050505050905060008060006020840151925060408401519150606084015160001a9050600060405180606001604052808581526020018481526020018360ff1681525090506000805b87600401805490508160ff16108015611c33575081155b15611cbf578260000151886004018260ff1681548110611c5657611c5561290d565b5b906000526020600020906003020160000154148015611ca257508260200151886004018260ff1681548110611c8e57611c8d61290d565b5b906000526020600020906003020160010154145b15611cac57600191505b8080611cb79061296b565b915050611c1c565b8115611cd657600098505050505050505050611da7565b87600401839080600181540180825580915050600190039060005260206000209060030201600090919091909150600082015181600001556020820151816001015560408201518160020160006101000a81548160ff021916908360ff16021790555050507f0ffaced37e4d6f4a46de47c31d21fccaad48817a7da7f346154835a547780ecd8860000160009054906101000a900473ffffffffffffffffffffffffffffffffffffffff168385604051611d9293929190612df1565b60405180910390a16001985050505050505050505b949350505050565b606060006002836002611dc29190612e28565b611dcc9190612e82565b67ffffffffffffffff811115611de557611de46123e0565b5b6040519080825280601f01601f191660200182016040528015611e175781602001600182028036833780820191505090505b5090507f300000000000000000000000000000000000000000000000000000000000000081600081518110611e4f57611e4e61290d565b5b60200101907effffffffffffffffffffffffffffffffffffffffffffffffffffffffffffff1916908160001a9053507f780000000000000000000000000000000000000000000000000000000000000081600181518110611eb357611eb261290d565b5b60200101907effffffffffffffffffffffffffffffffffffffffffffffffffffffffffffff1916908160001a90535060006001846002611ef39190612e28565b611efd9190612e82565b90505b6001811115611f9d577f3031323334353637383961626364656600000000000000000000000000000000600f861660108110611f3f57611f3e61290d565b5b1a60f81b828281518110611f5657611f5561290d565b5b60200101907effffffffffffffffffffffffffffffffffffffffffffffffffffffffffffff1916908160001a905350600485901c945080611f9690612ed8565b9050611f00565b5060008414611fe1576040517f08c379a0000000000000000000000000000000000000000000000000000000008152600401611fd890612f4e565b60405180910390fd5b8091505092915050565b8280548282559060005260206000209060030281019282156120745760005260206000209160030282015b8281111561207357828260008201548160000155600182015481600101556002820160009054906101000a900460ff168160020160006101000a81548160ff021916908360ff160217905550505091600301919060030190612016565b5b5090506120819190612085565b5090565b5b808211156120bc5760008082016000905560018201600090556002820160006101000a81549060ff021916905550600301612086565b5090565b6000604051905090565b600080fd5b600080fd5b60007fffffffff0000000000000000000000000000000000000000000000000000000082169050919050565b612109816120d4565b811461211457600080fd5b50565b60008135905061212681612100565b92915050565b600060208284031215612142576121416120ca565b5b600061215084828501612117565b91505092915050565b60008115159050919050565b61216e81612159565b82525050565b60006020820190506121896000830184612165565b92915050565b6000819050919050565b6121a28161218f565b81146121ad57600080fd5b50565b6000813590506121bf81612199565b92915050565b600073ffffffffffffffffffffffffffffffffffffffff82169050919050565b60006121f0826121c5565b9050919050565b612200816121e5565b811461220b57600080fd5b50565b60008135905061221d816121f7565b92915050565b6000806040838503121561223a576122396120ca565b5b6000612248858286016121b0565b92505060206122598582860161220e565b9150509250929050565b600060ff82169050919050565b61227981612263565b82525050565b60006020820190506122946000830184612270565b92915050565b6000602082840312156122b0576122af6120ca565b5b60006122be848285016121b0565b91505092915050565b6122d08161218f565b82525050565b60006020820190506122eb60008301846122c7565b92915050565b600080fd5b600080fd5b600080fd5b60008083601f840112612316576123156122f1565b5b8235905067ffffffffffffffff811115612333576123326122f6565b5b60208301915083600182028301111561234f5761234e6122fb565b5b9250929050565b600080600080606085870312156123705761236f6120ca565b5b600061237e878288016121b0565b945050602061238f8782880161220e565b935050604085013567ffffffffffffffff8111156123b0576123af6120cf565b5b6123bc87828801612300565b925092505092959194509250565b600080fd5b6000601f19601f8301169050919050565b7f4e487b7100000000000000000000000000000000000000000000000000000000600052604160045260246000fd5b612418826123cf565b810181811067ffffffffffffffff82111715612437576124366123e0565b5b80604052505050565b600061244a6120c0565b9050612456828261240f565b919050565b600067ffffffffffffffff821115612476576124756123e0565b5b61247f826123cf565b9050602081019050919050565b82818337600083830152505050565b60006124ae6124a98461245b565b612440565b9050828152602081018484840111156124ca576124c96123ca565b5b6124d584828561248c565b509392505050565b600082601f8301126124f2576124f16122f1565b5b813561250284826020860161249b565b91505092915050565b600080600060608486031215612524576125236120ca565b5b6000612532868287016121b0565b93505060206125438682870161220e565b925050604084013567ffffffffffffffff811115612564576125636120cf565b5b612570868287016124dd565b9150509250925092565b6000819050919050565b61258d8161257a565b811461259857600080fd5b50565b6000813590506125aa81612584565b92915050565b600080600080600080600060c0888a0312156125cf576125ce6120ca565b5b60006125dd8a828b0161220e565b97505060206125ee8a828b0161220e565b96505060406125ff8a828b016121b0565b95505060606126108a828b0161259b565b94505060806126218a828b0161259b565b93505060a088013567ffffffffffffffff811115612642576126416120cf565b5b61264e8a828b01612300565b925092505092959891949750929550565b60008060408385031215612676576126756120ca565b5b60006126848582860161220e565b92505060206126958582860161220e565b9150509250929050565b6126a881612263565b81146126b357600080fd5b50565b6000813590506126c58161269f565b92915050565b600080600080608085870312156126e5576126e46120ca565b5b60006126f3878288016121b0565b9450506020612704878288016126b6565b9350506040612715878288016121b0565b9250506060612726878288016121b0565b91505092959194509250565b61273b816121e5565b82525050565b60006020820190506127566000830184612732565b92915050565b60008060408385031215612773576127726120ca565b5b60006127818582860161220e565b9250506020612792858286016121b0565b9150509250929050565b6127a58161257a565b82525050565b600060a0820190506127c06000830188612732565b6127cd6020830187612732565b6127da604083018661279c565b6127e7606083018561279c565b6127f46080830184612165565b9695505050505050565b600082825260208201905092915050565b7f416363657373436f6e74726f6c3a2063616e206f6e6c792072656e6f756e636560008201527f20726f6c657320666f722073656c660000000000000000000000000000000000602082015250565b600061286b602f836127fe565b91506128768261280f565b604082019050919050565b6000602082019050818103600083015261289a8161285e565b9050919050565b7f43726564656e7469616c20646f65736e27742065786973747300000000000000600082015250565b60006128d76019836127fe565b91506128e2826128a1565b602082019050919050565b60006020820190508181036000830152612906816128ca565b9050919050565b7f4e487b7100000000000000000000000000000000000000000000000000000000600052603260045260246000fd5b7f4e487b7100000000000000000000000000000000000000000000000000000000600052601160045260246000fd5b600061297682612263565b915060ff82141561298a5761298961293c565b5b600182019050919050565b7f43616c6c6572206973206e6f7420612069737375657220320000000000000000600082015250565b60006129cb6018836127fe565b91506129d682612995565b602082019050919050565b600060208201905081810360008301526129fa816129be565b9050919050565b7f43726564656e7469616c20616c72656164792065786973747300000000000000600082015250565b6000612a376019836127fe565b9150612a4282612a01565b602082019050919050565b60006020820190508181036000830152612a6681612a2a565b9050919050565b6000606082019050612a826000830186612732565b612a8f6020830185612732565b612a9c604083018461279c565b949350505050565b6000608082019050612ab960008301876122c7565b612ac66020830186612270565b612ad360408301856122c7565b612ae060608301846122c7565b95945050505050565b7f63726564656e7469616c206861736820646f65736e2774206578697374000000600082015250565b6000612b1f601d836127fe565b9150612b2a82612ae9565b602082019050919050565b60006020820190508181036000830152612b4e81612b12565b9050919050565b7f43726564656e7469616c20697320616c7265616479207265766f6b6564000000600082015250565b6000612b8b601d836127fe565b9150612b9682612b55565b602082019050919050565b60006020820190508181036000830152612bba81612b7e565b9050919050565b6000604082019050612bd66000830185612732565b612be3602083018461279c565b9392505050565b600081905092915050565b7f416363657373436f6e74726f6c3a206163636f756e7420000000000000000000600082015250565b6000612c2b601783612bea565b9150612c3682612bf5565b601782019050919050565b600081519050919050565b60005b83811015612c6a578082015181840152602081019050612c4f565b83811115612c79576000848401525b50505050565b6000612c8a82612c41565b612c948185612bea565b9350612ca4818560208601612c4c565b80840191505092915050565b7f206973206d697373696e6720726f6c6520000000000000000000000000000000600082015250565b6000612ce6601183612bea565b9150612cf182612cb0565b601182019050919050565b6000612d0782612c1e565b9150612d138285612c7f565b9150612d1e82612cd9565b9150612d2a8284612c7f565b91508190509392505050565b6000612d4182612c41565b612d4b81856127fe565b9350612d5b818560208601612c4c565b612d64816123cf565b840191505092915050565b60006020820190508181036000830152612d898184612d36565b905092915050565b612d9a8161218f565b82525050565b612da981612263565b82525050565b606082016000820151612dc56000850182612d91565b506020820151612dd86020850182612d91565b506040820151612deb6040850182612da0565b50505050565b600060a082019050612e066000830186612732565b612e136020830185612165565b612e206040830184612daf565b949350505050565b6000612e338261257a565b9150612e3e8361257a565b9250817fffffffffffffffffffffffffffffffffffffffffffffffffffffffffffffffff0483118215151615612e7757612e7661293c565b5b828202905092915050565b6000612e8d8261257a565b9150612e988361257a565b9250827fffffffffffffffffffffffffffffffffffffffffffffffffffffffffffffffff03821115612ecd57612ecc61293c565b5b828201905092915050565b6000612ee38261257a565b91506000821415612ef757612ef661293c565b5b600182039050919050565b7f537472696e67733a20686578206c656e67746820696e73756666696369656e74600082015250565b6000612f386020836127fe565b9150612f4382612f02565b602082019050919050565b60006020820190508181036000830152612f6781612f2b565b905091905056fea2646970667358221220061df952b0ec817f004ad5790a2b41755307d58915be5edd1a85cda884a778bd64736f6c63430008090033",
  "immutableReferences": {},
  "source": "//SPDX-License-Identifier: UNLICENSED\n\npragma solidity ^0.8.7;\npragma experimental ABIEncoderV2;\n\nimport \"@openzeppelin/contracts/access/AccessControl.sol\";\nimport \"./ICredentialRegistry.sol\";\n\ncontract CredentialRegistry is ICredentialRegistry, AccessControl {\n    bytes32 public constant ISSUER_ROLE = keccak256(\"ISSUER_ROLE\");\n\n    mapping(bytes32 => mapping(address => CredentialMetadata)) public credentials;\n\n    constructor() public {\n        _setupRole(DEFAULT_ADMIN_ROLE, msg.sender);\n    }\n\n    function registerCredential(address issuer, address _subject, bytes32 _credentialHash, uint256 _from, uint256 _exp, bytes calldata signature) external override onlyIssuer returns (bool) {\n        CredentialMetadata storage credential = credentials[_credentialHash][issuer];\n        require(credential.subject == address(0), \"Credential already exists\");\n        credential.issuer = issuer;\n        credential.subject = _subject;\n        credential.validFrom = _from;\n        credential.validTo = _exp;\n        credential.status = true;\n        credentials[_credentialHash][issuer] = credential;\n        emit CredentialRegistered(_credentialHash, issuer, _subject, credential.validFrom);\n        return true;\n    }\n\n    function registerSignature(bytes32 _credentialHash, address issuer, bytes calldata signature) external returns (bool){\n        return _registerSignature(_credentialHash, issuer, signature);\n    }\n\n    function revokeCredential(bytes32 _credentialHash) external override returns (bool) {\n        CredentialMetadata storage credential = credentials[_credentialHash][msg.sender];\n\n        require(credential.subject != address(0), \"credential hash doesn't exist\");\n        require(credential.status, \"Credential is already revoked\");\n\n        credential.status = false;\n        credentials[_credentialHash][msg.sender] = credential;\n        emit CredentialRevoked(_credentialHash, msg.sender, block.timestamp);\n        return true;\n    }\n\n    function exist(bytes32 _credentialHash, address issuer) override external view returns (bool exist){\n        CredentialMetadata memory credential = credentials[_credentialHash][issuer];\n        return (credential.subject != address(0));\n    }\n\n    function status(address issuer, bytes32 _credentialHash) override external view returns (bool){\n        CredentialMetadata memory credential = credentials[_credentialHash][issuer];\n        return credential.status;\n    }\n\n    function verifyIssuer(address issuer, address signer) external pure returns (bool isValid){\n        return (issuer == signer);\n    }\n\n    function _registerSignature(bytes32 _credentialHash, address issuer, bytes calldata _signature) private onlyIssuer returns (bool){\n        CredentialMetadata storage credential = credentials[_credentialHash][issuer];\n        require(credential.subject != address(0), \"Credential doesn't exists\");\n        bytes memory signature = _signature;\n        bytes32 r;\n        bytes32 s;\n        uint8 v;\n        assembly {\n            r := mload(add(signature, 0x20))\n            s := mload(add(signature, 0x40))\n            v := byte(0, mload(add(signature, 0x60)))\n        }\n        Signature memory _newSignature = Signature(r, s, v);\n        bool signExist = false;\n        uint8 i = 0;\n        while (i < credential.signatures.length && !signExist) {\n            if (credential.signatures[i].r == _newSignature.r && credential.signatures[i].s == _newSignature.s) {\n                signExist = true;\n            }\n            i++;\n        }\n\n        if (signExist) {\n            return false;\n        } else {\n            credential.signatures.push(_newSignature);\n            emit SignatureRegistered(credential.issuer, signExist, _newSignature);\n            return true;\n        }\n    }\n\n    function getSigners(bytes32 _credentialHash, address _issuer) external view returns (uint8 signers){\n        CredentialMetadata memory credential = credentials[_credentialHash][_issuer];\n        if (credential.subject != address(0)) {\n            return uint8(credential.signatures.length);\n        }\n        return 0;\n    }\n\n    function isSigner(bytes32 _credentialHash, address _issuer, bytes memory _signature) external view returns (bool){\n        CredentialMetadata memory credential = credentials[_credentialHash][_issuer];\n        require(credential.subject != address(0), \"Credential doesn't exists\");\n        //bytes memory signature = _signature;\n        bytes32 r;\n        bytes32 s;\n        uint8 v;\n        assembly {\n            r := mload(add(_signature, 0x20))\n            s := mload(add(_signature, 0x40))\n            v := byte(0, mload(add(_signature, 0x60)))\n        }\n        Signature memory _newSignature = Signature(r, s, v);\n        bool signExist = false;\n        uint8 i = 0;\n        while (i < credential.signatures.length && !signExist) {\n            if (credential.signatures[i].r == _newSignature.r && credential.signatures[i].s == _newSignature.s) {\n                signExist = true;\n            }\n            i++;\n        }\n\n        return signExist;\n    }\n\n    function getIssuer(bytes32 digest, uint8 v, bytes32 r, bytes32 s) external pure returns (address issuer){\n        return ecrecover(digest, v, r, s);\n    }\n\n    modifier onlyIssuer() {\n        require(hasRole(ISSUER_ROLE, msg.sender), \"Caller is not a issuer 2\");\n        _;\n    }\n\n    event SignatureRegistered(address issuer, bool exits, Signature signature);\n}",
  "sourcePath": "/home/dallant/Code/ancon-protocol/ethereum/contracts/vccontracts/CredentialRegistry.sol",
  "compiler": {
    "name": "solc",
    "version": "0.8.9+commit.e5eed63a.Emscripten.clang"
  },
  "schemaVersion": "3.4.3",
  "updatedAt": "2021-10-18T23:08:47.556Z",
  "devdoc": {
    "kind": "dev",
    "methods": {
      "getRoleAdmin(bytes32)": {
        "details": "Returns the admin role that controls `role`. See {grantRole} and {revokeRole}. To change a role's admin, use {_setRoleAdmin}."
      },
      "grantRole(bytes32,address)": {
        "details": "Grants `role` to `account`. If `account` had not been already granted `role`, emits a {RoleGranted} event. Requirements: - the caller must have ``role``'s admin role."
      },
      "hasRole(bytes32,address)": {
        "details": "Returns `true` if `account` has been granted `role`."
      },
      "renounceRole(bytes32,address)": {
        "details": "Revokes `role` from the calling account. Roles are often managed via {grantRole} and {revokeRole}: this function's purpose is to provide a mechanism for accounts to lose their privileges if they are compromised (such as when a trusted device is misplaced). If the calling account had been granted `role`, emits a {RoleRevoked} event. Requirements: - the caller must be `account`."
      },
      "revokeRole(bytes32,address)": {
        "details": "Revokes `role` from `account`. If `account` had been granted `role`, emits a {RoleRevoked} event. Requirements: - the caller must have ``role``'s admin role."
      },
      "supportsInterface(bytes4)": {
        "details": "See {IERC165-supportsInterface}."
      }
    },
    "version": 1
  },
  "userdoc": {
    "kind": "user",
    "methods": {},
    "version": 1
  }
}