{
  "contractName": "Crossmint",
  "abi": [
    {
      "inputs": [
        {
          "internalType": "address",
          "name": "_tokenNFT",
          "type": "address"
        },
        {
          "internalType": "address",
          "name": "_credentialRegistry",
          "type": "address"
        },
        {
          "internalType": "address",
          "name": "_verifier",
          "type": "address"
        },
        {
          "internalType": "uint256",
          "name": "_senderChainId",
          "type": "uint256"
        }
      ],
      "stateMutability": "nonpayable",
      "type": "constructor"
    },
    {
      "anonymous": false,
      "inputs": [
        {
          "indexed": true,
          "internalType": "address",
          "name": "newOwner",
          "type": "address"
        },
        {
          "indexed": true,
          "internalType": "string",
          "name": "metadataHash",
          "type": "string"
        },
        {
          "indexed": true,
          "internalType": "uint256",
          "name": "tokenId",
          "type": "uint256"
        }
      ],
      "name": "CrossMintCallbackReceived",
      "type": "event"
    },
    {
      "inputs": [],
      "name": "credentialRegistry",
      "outputs": [
        {
          "internalType": "contract ICredentialRegistry",
          "name": "",
          "type": "address"
        }
      ],
      "stateMutability": "view",
      "type": "function"
    },
    {
      "inputs": [],
      "name": "senderChainId",
      "outputs": [
        {
          "internalType": "uint256",
          "name": "",
          "type": "uint256"
        }
      ],
      "stateMutability": "view",
      "type": "function"
    },
    {
      "inputs": [],
      "name": "tokenNFT",
      "outputs": [
        {
          "internalType": "address",
          "name": "",
          "type": "address"
        }
      ],
      "stateMutability": "view",
      "type": "function"
    },
    {
      "inputs": [],
      "name": "verifier",
      "outputs": [
        {
          "internalType": "contract IClaimsVerifier",
          "name": "",
          "type": "address"
        }
      ],
      "stateMutability": "view",
      "type": "function"
    },
    {
      "inputs": [
        {
          "internalType": "address",
          "name": "fromOwner",
          "type": "address"
        },
        {
          "internalType": "address",
          "name": "toOwner",
          "type": "address"
        },
        {
          "internalType": "bytes",
          "name": "permitSignature",
          "type": "bytes"
        },
        {
          "internalType": "bytes32",
          "name": "permitHash",
          "type": "bytes32"
        }
      ],
      "name": "initiateCrossmint",
      "outputs": [
        {
          "internalType": "bool",
          "name": "",
          "type": "bool"
        }
      ],
      "stateMutability": "nonpayable",
      "type": "function"
    },
    {
      "inputs": [
        {
          "components": [
            {
              "internalType": "address",
              "name": "issuer",
              "type": "address"
            },
            {
              "internalType": "address",
              "name": "subject",
              "type": "address"
            },
            {
              "internalType": "bytes",
              "name": "data",
              "type": "bytes"
            },
            {
              "internalType": "uint256",
              "name": "validFrom",
              "type": "uint256"
            },
            {
              "internalType": "uint256",
              "name": "validTo",
              "type": "uint256"
            }
          ],
          "internalType": "struct VerifiableCredential",
          "name": "vc",
          "type": "tuple"
        },
        {
          "internalType": "uint8",
          "name": "v",
          "type": "uint8"
        },
        {
          "internalType": "bytes32",
          "name": "r",
          "type": "bytes32"
        },
        {
          "internalType": "bytes32",
          "name": "s",
          "type": "bytes32"
        }
      ],
      "name": "applyCrossmintChangeRequest",
      "outputs": [
        {
          "internalType": "uint256",
          "name": "",
          "type": "uint256"
        }
      ],
      "stateMutability": "nonpayable",
      "type": "function"
    }
  ],
  "bytecode": "0x60806040523480156200001157600080fd5b506040516200167a3803806200167a8339818101604052810190620000379190620001af565b8060018190555081600360006101000a81548173ffffffffffffffffffffffffffffffffffffffff021916908373ffffffffffffffffffffffffffffffffffffffff16021790555082600260006101000a81548173ffffffffffffffffffffffffffffffffffffffff021916908373ffffffffffffffffffffffffffffffffffffffff160217905550836000806101000a81548173ffffffffffffffffffffffffffffffffffffffff021916908373ffffffffffffffffffffffffffffffffffffffff1602179055505050505062000221565b600080fd5b600073ffffffffffffffffffffffffffffffffffffffff82169050919050565b60006200013c826200010f565b9050919050565b6200014e816200012f565b81146200015a57600080fd5b50565b6000815190506200016e8162000143565b92915050565b6000819050919050565b620001898162000174565b81146200019557600080fd5b50565b600081519050620001a9816200017e565b92915050565b60008060008060808587031215620001cc57620001cb6200010a565b5b6000620001dc878288016200015d565b9450506020620001ef878288016200015d565b935050604062000202878288016200015d565b9250506060620002158782880162000198565b91505092959194509250565b61144980620002316000396000f3fe608060405234801561001057600080fd5b50600436106100625760003560e01c80632b7ac3f3146100675780633d9c23821461008557806351a973e9146100b55780637bfb643a146100d3578063b948c3d414610103578063dcfc798714610121575b600080fd5b61006f61013f565b60405161007c91906106b0565b60405180910390f35b61009f600480360381019061009a91906109ba565b610165565b6040516100ac9190610a4c565b60405180910390f35b6100bd6104cb565b6040516100ca9190610a4c565b60405180910390f35b6100ed60048036038101906100e89190610a67565b6104d1565b6040516100fa9190610b05565b60405180910390f35b61010b6105e7565b6040516101189190610b41565b60405180910390f35b61012961060d565b6040516101369190610b6b565b60405180910390f35b600360009054906101000a900473ffffffffffffffffffffffffffffffffffffffff1681565b600080600080600080600360009054906101000a900473ffffffffffffffffffffffffffffffffffffffff1673ffffffffffffffffffffffffffffffffffffffff1663a915687d8b8b8b8b6040518563ffffffff1660e01b81526004016101cf9493929190610cc0565b60a06040518083038186803b1580156101e757600080fd5b505afa1580156101fb573d6000803e3d6000fd5b505050506040513d601f19601f8201168201806040525081019061021f9190610d38565b9450945094509450945084610269576040517f08c379a000000000000000000000000000000000000000000000000000000000815260040161026090610e10565b60405180910390fd5b836102a9576040517f08c379a00000000000000000000000000000000000000000000000000000000081526004016102a090610e7c565b60405180910390fd5b826102e9576040517f08c379a00000000000000000000000000000000000000000000000000000000081526004016102e090610ee8565b60405180910390fd5b80610329576040517f08c379a000000000000000000000000000000000000000000000000000000000815260040161032090610f54565b60405180910390fd5b6000806000806000808f6040015180602001905181019061034a9190611068565b955095509550955095509550600085905060008173ffffffffffffffffffffffffffffffffffffffff16636352211e856040518263ffffffff1660e01b81526004016103969190610a4c565b60206040518083038186803b1580156103ae57600080fd5b505afa1580156103c2573d6000803e3d6000fd5b505050506040513d601f19601f820116820180604052508101906103e69190611126565b90508573ffffffffffffffffffffffffffffffffffffffff168173ffffffffffffffffffffffffffffffffffffffff1614610456576040517f08c379a000000000000000000000000000000000000000000000000000000000815260040161044d9061119f565b60405180910390fd5b600080896040516104679190611206565b60405180910390208773ffffffffffffffffffffffffffffffffffffffff167f7831155e0175a982ced95e13c3af42eed5182336de065cbc06ef3c68ff504f7660405160405180910390a4809e505050505050505050505050505050949350505050565b60015481565b600080600260009054906101000a900473ffffffffffffffffffffffffffffffffffffffff1673ffffffffffffffffffffffffffffffffffffffff1663751307478787864261546042610524919061124c565b8a6040518763ffffffff1660e01b8152600401610546969594939291906112ec565b602060405180830381600087803b15801561056057600080fd5b505af1158015610574573d6000803e3d6000fd5b505050506040513d601f19601f820116820180604052508101906105989190611354565b9050806105da576040517f08c379a00000000000000000000000000000000000000000000000000000000081526004016105d1906113f3565b60405180910390fd5b6001915050949350505050565b600260009054906101000a900473ffffffffffffffffffffffffffffffffffffffff1681565b60008054906101000a900473ffffffffffffffffffffffffffffffffffffffff1681565b600073ffffffffffffffffffffffffffffffffffffffff82169050919050565b6000819050919050565b600061067661067161066c84610631565b610651565b610631565b9050919050565b60006106888261065b565b9050919050565b600061069a8261067d565b9050919050565b6106aa8161068f565b82525050565b60006020820190506106c560008301846106a1565b92915050565b6000604051905090565b600080fd5b600080fd5b600080fd5b6000601f19601f8301169050919050565b7f4e487b7100000000000000000000000000000000000000000000000000000000600052604160045260246000fd5b61072d826106e4565b810181811067ffffffffffffffff8211171561074c5761074b6106f5565b5b80604052505050565b600061075f6106cb565b905061076b8282610724565b919050565b600080fd5b600061078082610631565b9050919050565b61079081610775565b811461079b57600080fd5b50565b6000813590506107ad81610787565b92915050565b600080fd5b600080fd5b600067ffffffffffffffff8211156107d8576107d76106f5565b5b6107e1826106e4565b9050602081019050919050565b82818337600083830152505050565b600061081061080b846107bd565b610755565b90508281526020810184848401111561082c5761082b6107b8565b5b6108378482856107ee565b509392505050565b600082601f830112610854576108536107b3565b5b81356108648482602086016107fd565b91505092915050565b6000819050919050565b6108808161086d565b811461088b57600080fd5b50565b60008135905061089d81610877565b92915050565b600060a082840312156108b9576108b86106df565b5b6108c360a0610755565b905060006108d38482850161079e565b60008301525060206108e78482850161079e565b602083015250604082013567ffffffffffffffff81111561090b5761090a610770565b5b6109178482850161083f565b604083015250606061092b8482850161088e565b606083015250608061093f8482850161088e565b60808301525092915050565b600060ff82169050919050565b6109618161094b565b811461096c57600080fd5b50565b60008135905061097e81610958565b92915050565b6000819050919050565b61099781610984565b81146109a257600080fd5b50565b6000813590506109b48161098e565b92915050565b600080600080608085870312156109d4576109d36106d5565b5b600085013567ffffffffffffffff8111156109f2576109f16106da565b5b6109fe878288016108a3565b9450506020610a0f8782880161096f565b9350506040610a20878288016109a5565b9250506060610a31878288016109a5565b91505092959194509250565b610a468161086d565b82525050565b6000602082019050610a616000830184610a3d565b92915050565b60008060008060808587031215610a8157610a806106d5565b5b6000610a8f8782880161079e565b9450506020610aa08782880161079e565b935050604085013567ffffffffffffffff811115610ac157610ac06106da565b5b610acd8782880161083f565b9250506060610ade878288016109a5565b91505092959194509250565b60008115159050919050565b610aff81610aea565b82525050565b6000602082019050610b1a6000830184610af6565b92915050565b6000610b2b8261067d565b9050919050565b610b3b81610b20565b82525050565b6000602082019050610b566000830184610b32565b92915050565b610b6581610775565b82525050565b6000602082019050610b806000830184610b5c565b92915050565b610b8f81610775565b82525050565b600081519050919050565b600082825260208201905092915050565b60005b83811015610bcf578082015181840152602081019050610bb4565b83811115610bde576000848401525b50505050565b6000610bef82610b95565b610bf98185610ba0565b9350610c09818560208601610bb1565b610c12816106e4565b840191505092915050565b610c268161086d565b82525050565b600060a083016000830151610c446000860182610b86565b506020830151610c576020860182610b86565b5060408301518482036040860152610c6f8282610be4565b9150506060830151610c846060860182610c1d565b506080830151610c976080860182610c1d565b508091505092915050565b610cab8161094b565b82525050565b610cba81610984565b82525050565b60006080820190508181036000830152610cda8187610c2c565b9050610ce96020830186610ca2565b610cf66040830185610cb1565b610d036060830184610cb1565b95945050505050565b610d1581610aea565b8114610d2057600080fd5b50565b600081519050610d3281610d0c565b92915050565b600080600080600060a08688031215610d5457610d536106d5565b5b6000610d6288828901610d23565b9550506020610d7388828901610d23565b9450506040610d8488828901610d23565b9350506060610d9588828901610d23565b9250506080610da688828901610d23565b9150509295509295909350565b600082825260208201905092915050565b7f4d697373696e67207065726d6974000000000000000000000000000000000000600082015250565b6000610dfa600e83610db3565b9150610e0582610dc4565b602082019050919050565b60006020820190508181036000830152610e2981610ded565b9050919050565b7f5065726d697420686173206265656e207265766f6b6564000000000000000000600082015250565b6000610e66601783610db3565b9150610e7182610e30565b602082019050919050565b60006020820190508181036000830152610e9581610e59565b9050919050565b7f497373756572206973206e6f742076616c696400000000000000000000000000600082015250565b6000610ed2601383610db3565b9150610edd82610e9c565b602082019050919050565b60006020820190508181036000830152610f0181610ec5565b9050919050565b7f5065726d69742068617320657870697265640000000000000000000000000000600082015250565b6000610f3e601283610db3565b9150610f4982610f08565b602082019050919050565b60006020820190508181036000830152610f6d81610f31565b9050919050565b600067ffffffffffffffff821115610f8f57610f8e6106f5565b5b610f98826106e4565b9050602081019050919050565b6000610fb8610fb384610f74565b610755565b905082815260208101848484011115610fd457610fd36107b8565b5b610fdf848285610bb1565b509392505050565b600082601f830112610ffc57610ffb6107b3565b5b815161100c848260208601610fa5565b91505092915050565b600061102082610631565b9050919050565b61103081611015565b811461103b57600080fd5b50565b60008151905061104d81611027565b92915050565b60008151905061106281610877565b92915050565b60008060008060008060c08789031215611085576110846106d5565b5b600087015167ffffffffffffffff8111156110a3576110a26106da565b5b6110af89828a01610fe7565b96505060206110c089828a0161103e565b95505060406110d189828a0161103e565b94505060606110e289828a0161103e565b93505060806110f389828a01611053565b92505060a061110489828a01610d23565b9150509295509295509295565b60008151905061112081610787565b92915050565b60006020828403121561113c5761113b6106d5565b5b600061114a84828501611111565b91505092915050565b7f496e76616c696420746f6b656e20696400000000000000000000000000000000600082015250565b6000611189601083610db3565b915061119482611153565b602082019050919050565b600060208201905081810360008301526111b88161117c565b9050919050565b600081519050919050565b600081905092915050565b60006111e0826111bf565b6111ea81856111ca565b93506111fa818560208601610bb1565b80840191505092915050565b600061121282846111d5565b915081905092915050565b7f4e487b7100000000000000000000000000000000000000000000000000000000600052601160045260246000fd5b60006112578261086d565b91506112628361086d565b9250827fffffffffffffffffffffffffffffffffffffffffffffffffffffffffffffffff038211156112975761129661121d565b5b828201905092915050565b600082825260208201905092915050565b60006112be82610b95565b6112c881856112a2565b93506112d8818560208601610bb1565b6112e1816106e4565b840191505092915050565b600060c0820190506113016000830189610b5c565b61130e6020830188610b5c565b61131b6040830187610cb1565b6113286060830186610a3d565b6113356080830185610a3d565b81810360a083015261134781846112b3565b9050979650505050505050565b60006020828403121561136a576113696106d5565b5b600061137884828501610d23565b91505092915050565b7f496e76616c6964207065726d69742063726564656e7469616c2c20747279206160008201527f6761696e00000000000000000000000000000000000000000000000000000000602082015250565b60006113dd602483610db3565b91506113e882611381565b604082019050919050565b6000602082019050818103600083015261140c816113d0565b905091905056fea264697066735822122042b6e7353da61d31691689ccbec89969c95e6a34a8ae714e845429c1e501a2f064736f6c63430008090033",
  "immutableReferences": {},
  "source": "// SPDX-License-Identifier: MIT\npragma solidity ^0.8.7;\n\nimport \"./ICredentialRegistry.sol\";\nimport \"./ICrossmint.sol\";\nimport \"./IClaimsVerifier.sol\";\nimport \"@openzeppelin/contracts/access/Ownable.sol\";\nimport \"@openzeppelin/contracts/token/ERC20/IERC20.sol\";\n// import \"@openzeppelin/contracts/token/ERC20/IERC721Receiver.sol\";\nimport \"@openzeppelin/contracts/token/ERC721/ERC721.sol\";\nimport \"@openzeppelin/contracts/token/ERC721/extensions/ERC721Burnable.sol\";\nimport \"@openzeppelin/contracts/token/ERC721/extensions/ERC721Pausable.sol\";\nimport \"@openzeppelin/contracts/token/ERC721/extensions/ERC721URIStorage.sol\";\nimport \"@openzeppelin/contracts/utils/Counters.sol\";\n\ncontract Crossmint is ICrossmint {\n    address public tokenNFT;\n    uint256 public senderChainId;\n\n    ICredentialRegistry public credentialRegistry;\n    IClaimsVerifier public verifier;\n\n    event CrossMintCallbackReceived(\n        address indexed newOwner,\n        string indexed metadataHash,\n        uint256 indexed tokenId\n    );\n\n    constructor(\n        address _tokenNFT,\n        address _credentialRegistry,\n        address _verifier,\n        uint256 _senderChainId\n    ) public {\n        senderChainId = _senderChainId;\n        verifier = IClaimsVerifier(_verifier);\n        credentialRegistry = ICredentialRegistry(_credentialRegistry);\n        tokenNFT = _tokenNFT;\n    }\n\n    // initiateCrossmint from Cosmos EVM to EVM\n    function initiateCrossmint(\n        address fromOwner,\n        address toOwner,\n        bytes memory permitSignature,\n        bytes32 permitHash\n    ) public returns (bool) {\n\n// const role = await registryContract.ISSUER_ROLE()\n// console.log(role)\n// credentialRegistry.grantRole( credentialRegistry.ISSUER_ROLE, verifier.address );\n\n        bool ok = credentialRegistry.registerCredential(\n            fromOwner,\n            toOwner,\n            permitHash,\n            block.timestamp,\n            block.timestamp + 6 hours,\n            permitSignature\n        );\n\n        require(ok, \"Invalid permit credential, try again\");\n\n        return true;\n    }\n\n    /**\n     * applyCrossmintChangeRequest\n     */\n    function applyCrossmintChangeRequest(\n        VerifiableCredential memory vc,\n        uint8 v,\n        bytes32 r,\n        bytes32 s\n    ) public returns (uint256) {\n        // verify permit exists, has not revoked, has valid issuer and is not expired\n        (\n            bool exists,\n            bool hasRevoked,\n            bool issuerValid,\n            bool a,\n            bool expired\n        ) = verifier.verifyCredential(vc, v, r, s);\n        require(exists, \"Missing permit\");\n        require(hasRevoked, \"Permit has been revoked\");\n        require(issuerValid, \"Issuer is not valid\");\n        require(expired, \"Permit has expired\");\n        // verify token exists\n        // ERC721(tokenAddress)\n        (\n            string memory metadata,\n            address to,\n            address fromOwner,\n            address newOwner,\n            uint256 tokenId,\n            bool isNew\n        ) = abi.decode(\n                vc.data,\n                (string, address, address, address, uint256, bool)\n            );\n        ERC721 nft = ERC721(to);\n\n        address owned = nft.ownerOf(tokenId);\n        require(owned == fromOwner, \"Invalid token id\");\n\n        \n        // Cross update\n        //  function safeTransferFrom(\n        // address from,\n        // address to,\n        // uint256 tokenId,\n        // bytes memory _data\n        uint256 newItemId = 0;\n\n        emit CrossMintCallbackReceived(newOwner, metadata, newItemId);\n        return newItemId;\n    }\n}\n",
  "sourcePath": "/home/rogelio/Code/ancon-protocol/ethereum/contracts/Crossmint.sol",
  "compiler": {
    "name": "solc",
    "version": "0.8.9+commit.e5eed63a.Emscripten.clang"
  },
  "schemaVersion": "3.4.3",
  "updatedAt": "2021-10-10T19:24:57.946Z",
  "devdoc": {
    "kind": "dev",
    "methods": {},
    "version": 1
  },
  "userdoc": {
    "kind": "user",
    "methods": {
      "applyCrossmintChangeRequest((address,address,bytes,uint256,uint256),uint8,bytes32,bytes32)": {
        "notice": "applyCrossmintChangeRequest"
      }
    },
    "version": 1
  }
}