{
  "contractName": "Crossmint",
  "abi": [
    {
      "inputs": [
        {
          "internalType": "address",
          "name": "_tokenNFT",
          "type": "address"
        },
        {
          "internalType": "address",
          "name": "_credentialRegistry",
          "type": "address"
        },
        {
          "internalType": "address",
          "name": "_verifier",
          "type": "address"
        },
        {
          "internalType": "uint256",
          "name": "_senderChainId",
          "type": "uint256"
        }
      ],
      "stateMutability": "nonpayable",
      "type": "constructor"
    },
    {
      "anonymous": false,
      "inputs": [
        {
          "indexed": true,
          "internalType": "address",
          "name": "newOwner",
          "type": "address"
        },
        {
          "indexed": true,
          "internalType": "string",
          "name": "metadataHash",
          "type": "string"
        },
        {
          "indexed": true,
          "internalType": "uint256",
          "name": "tokenId",
          "type": "uint256"
        }
      ],
      "name": "CrossMintCallbackReceived",
      "type": "event"
    },
    {
      "inputs": [],
      "name": "credentialRegistry",
      "outputs": [
        {
          "internalType": "contract ICredentialRegistry",
          "name": "",
          "type": "address"
        }
      ],
      "stateMutability": "view",
      "type": "function"
    },
    {
      "inputs": [],
      "name": "senderChainId",
      "outputs": [
        {
          "internalType": "uint256",
          "name": "",
          "type": "uint256"
        }
      ],
      "stateMutability": "view",
      "type": "function"
    },
    {
      "inputs": [],
      "name": "tokenNFT",
      "outputs": [
        {
          "internalType": "address",
          "name": "",
          "type": "address"
        }
      ],
      "stateMutability": "view",
      "type": "function"
    },
    {
      "inputs": [],
      "name": "verifier",
      "outputs": [
        {
          "internalType": "contract IClaimsVerifier",
          "name": "",
          "type": "address"
        }
      ],
      "stateMutability": "view",
      "type": "function"
    },
    {
      "inputs": [
        {
          "internalType": "uint256",
          "name": "recipientChainId",
          "type": "uint256"
        },
        {
          "internalType": "address",
          "name": "fromOwner",
          "type": "address"
        },
        {
          "internalType": "address",
          "name": "toOwner",
          "type": "address"
        },
        {
          "internalType": "bytes",
          "name": "permitSignature",
          "type": "bytes"
        },
        {
          "internalType": "bytes32",
          "name": "permitHash",
          "type": "bytes32"
        }
      ],
      "name": "initiateCrossmint",
      "outputs": [
        {
          "internalType": "bool",
          "name": "",
          "type": "bool"
        }
      ],
      "stateMutability": "nonpayable",
      "type": "function"
    },
    {
      "inputs": [
        {
          "components": [
            {
              "internalType": "address",
              "name": "issuer",
              "type": "address"
            },
            {
              "internalType": "address",
              "name": "subject",
              "type": "address"
            },
            {
              "internalType": "bytes",
              "name": "data",
              "type": "bytes"
            },
            {
              "internalType": "uint256",
              "name": "validFrom",
              "type": "uint256"
            },
            {
              "internalType": "uint256",
              "name": "validTo",
              "type": "uint256"
            }
          ],
          "internalType": "struct VerifiableCredential",
          "name": "vc",
          "type": "tuple"
        },
        {
          "internalType": "uint8",
          "name": "v",
          "type": "uint8"
        },
        {
          "internalType": "bytes32",
          "name": "r",
          "type": "bytes32"
        },
        {
          "internalType": "bytes32",
          "name": "s",
          "type": "bytes32"
        }
      ],
      "name": "applyCrossmintChangeRequest",
      "outputs": [
        {
          "internalType": "uint256",
          "name": "",
          "type": "uint256"
        }
      ],
      "stateMutability": "nonpayable",
      "type": "function"
    }
  ],
  "bytecode": "0x60806040523480156200001157600080fd5b5060405162001767380380620017678339818101604052810190620000379190620001af565b8060018190555081600360006101000a81548173ffffffffffffffffffffffffffffffffffffffff021916908373ffffffffffffffffffffffffffffffffffffffff16021790555082600260006101000a81548173ffffffffffffffffffffffffffffffffffffffff021916908373ffffffffffffffffffffffffffffffffffffffff160217905550836000806101000a81548173ffffffffffffffffffffffffffffffffffffffff021916908373ffffffffffffffffffffffffffffffffffffffff1602179055505050505062000221565b600080fd5b600073ffffffffffffffffffffffffffffffffffffffff82169050919050565b60006200013c826200010f565b9050919050565b6200014e816200012f565b81146200015a57600080fd5b50565b6000815190506200016e8162000143565b92915050565b6000819050919050565b620001898162000174565b81146200019557600080fd5b50565b600081519050620001a9816200017e565b92915050565b60008060008060808587031215620001cc57620001cb6200010a565b5b6000620001dc878288016200015d565b9450506020620001ef878288016200015d565b935050604062000202878288016200015d565b9250506060620002158782880162000198565b91505092959194509250565b61153680620002316000396000f3fe608060405234801561001057600080fd5b50600436106100625760003560e01c80632b7ac3f3146100675780633d9c23821461008557806351a973e9146100b5578063afa71af7146100d3578063b948c3d414610103578063dcfc798714610121575b600080fd5b61006f61013f565b60405161007c91906106f7565b60405180910390f35b61009f600480360381019061009a9190610a01565b610165565b6040516100ac9190610a93565b60405180910390f35b6100bd6104cb565b6040516100ca9190610a93565b60405180910390f35b6100ed60048036038101906100e89190610aae565b6104d1565b6040516100fa9190610b60565b60405180910390f35b61010b61062e565b6040516101189190610b9c565b60405180910390f35b610129610654565b6040516101369190610bc6565b60405180910390f35b600360009054906101000a900473ffffffffffffffffffffffffffffffffffffffff1681565b600080600080600080600360009054906101000a900473ffffffffffffffffffffffffffffffffffffffff1673ffffffffffffffffffffffffffffffffffffffff1663a915687d8b8b8b8b6040518563ffffffff1660e01b81526004016101cf9493929190610d1b565b60a06040518083038186803b1580156101e757600080fd5b505afa1580156101fb573d6000803e3d6000fd5b505050506040513d601f19601f8201168201806040525081019061021f9190610d93565b9450945094509450945084610269576040517f08c379a000000000000000000000000000000000000000000000000000000000815260040161026090610e6b565b60405180910390fd5b836102a9576040517f08c379a00000000000000000000000000000000000000000000000000000000081526004016102a090610ed7565b60405180910390fd5b826102e9576040517f08c379a00000000000000000000000000000000000000000000000000000000081526004016102e090610f43565b60405180910390fd5b80610329576040517f08c379a000000000000000000000000000000000000000000000000000000000815260040161032090610faf565b60405180910390fd5b6000806000806000808f6040015180602001905181019061034a91906110c3565b955095509550955095509550600085905060008173ffffffffffffffffffffffffffffffffffffffff16636352211e856040518263ffffffff1660e01b81526004016103969190610a93565b60206040518083038186803b1580156103ae57600080fd5b505afa1580156103c2573d6000803e3d6000fd5b505050506040513d601f19601f820116820180604052508101906103e69190611181565b90508573ffffffffffffffffffffffffffffffffffffffff168173ffffffffffffffffffffffffffffffffffffffff1614610456576040517f08c379a000000000000000000000000000000000000000000000000000000000815260040161044d906111fa565b60405180910390fd5b600080896040516104679190611261565b60405180910390208773ffffffffffffffffffffffffffffffffffffffff167f7831155e0175a982ced95e13c3af42eed5182336de065cbc06ef3c68ff504f7660405160405180910390a4809e505050505050505050505050505050949350505050565b60015481565b6000856001541415610518576040517f08c379a000000000000000000000000000000000000000000000000000000000815260040161050f906112ea565b60405180910390fd5b6000600260009054906101000a900473ffffffffffffffffffffffffffffffffffffffff1673ffffffffffffffffffffffffffffffffffffffff166375130747878786426154604261056a9190611339565b8a6040518763ffffffff1660e01b815260040161058c969594939291906113d9565b602060405180830381600087803b1580156105a657600080fd5b505af11580156105ba573d6000803e3d6000fd5b505050506040513d601f19601f820116820180604052508101906105de9190611441565b905080610620576040517f08c379a0000000000000000000000000000000000000000000000000000000008152600401610617906114e0565b60405180910390fd5b600191505095945050505050565b600260009054906101000a900473ffffffffffffffffffffffffffffffffffffffff1681565b60008054906101000a900473ffffffffffffffffffffffffffffffffffffffff1681565b600073ffffffffffffffffffffffffffffffffffffffff82169050919050565b6000819050919050565b60006106bd6106b86106b384610678565b610698565b610678565b9050919050565b60006106cf826106a2565b9050919050565b60006106e1826106c4565b9050919050565b6106f1816106d6565b82525050565b600060208201905061070c60008301846106e8565b92915050565b6000604051905090565b600080fd5b600080fd5b600080fd5b6000601f19601f8301169050919050565b7f4e487b7100000000000000000000000000000000000000000000000000000000600052604160045260246000fd5b6107748261072b565b810181811067ffffffffffffffff821117156107935761079261073c565b5b80604052505050565b60006107a6610712565b90506107b2828261076b565b919050565b600080fd5b60006107c782610678565b9050919050565b6107d7816107bc565b81146107e257600080fd5b50565b6000813590506107f4816107ce565b92915050565b600080fd5b600080fd5b600067ffffffffffffffff82111561081f5761081e61073c565b5b6108288261072b565b9050602081019050919050565b82818337600083830152505050565b600061085761085284610804565b61079c565b905082815260208101848484011115610873576108726107ff565b5b61087e848285610835565b509392505050565b600082601f83011261089b5761089a6107fa565b5b81356108ab848260208601610844565b91505092915050565b6000819050919050565b6108c7816108b4565b81146108d257600080fd5b50565b6000813590506108e4816108be565b92915050565b600060a08284031215610900576108ff610726565b5b61090a60a061079c565b9050600061091a848285016107e5565b600083015250602061092e848285016107e5565b602083015250604082013567ffffffffffffffff811115610952576109516107b7565b5b61095e84828501610886565b6040830152506060610972848285016108d5565b6060830152506080610986848285016108d5565b60808301525092915050565b600060ff82169050919050565b6109a881610992565b81146109b357600080fd5b50565b6000813590506109c58161099f565b92915050565b6000819050919050565b6109de816109cb565b81146109e957600080fd5b50565b6000813590506109fb816109d5565b92915050565b60008060008060808587031215610a1b57610a1a61071c565b5b600085013567ffffffffffffffff811115610a3957610a38610721565b5b610a45878288016108ea565b9450506020610a56878288016109b6565b9350506040610a67878288016109ec565b9250506060610a78878288016109ec565b91505092959194509250565b610a8d816108b4565b82525050565b6000602082019050610aa86000830184610a84565b92915050565b600080600080600060a08688031215610aca57610ac961071c565b5b6000610ad8888289016108d5565b9550506020610ae9888289016107e5565b9450506040610afa888289016107e5565b935050606086013567ffffffffffffffff811115610b1b57610b1a610721565b5b610b2788828901610886565b9250506080610b38888289016109ec565b9150509295509295909350565b60008115159050919050565b610b5a81610b45565b82525050565b6000602082019050610b756000830184610b51565b92915050565b6000610b86826106c4565b9050919050565b610b9681610b7b565b82525050565b6000602082019050610bb16000830184610b8d565b92915050565b610bc0816107bc565b82525050565b6000602082019050610bdb6000830184610bb7565b92915050565b610bea816107bc565b82525050565b600081519050919050565b600082825260208201905092915050565b60005b83811015610c2a578082015181840152602081019050610c0f565b83811115610c39576000848401525b50505050565b6000610c4a82610bf0565b610c548185610bfb565b9350610c64818560208601610c0c565b610c6d8161072b565b840191505092915050565b610c81816108b4565b82525050565b600060a083016000830151610c9f6000860182610be1565b506020830151610cb26020860182610be1565b5060408301518482036040860152610cca8282610c3f565b9150506060830151610cdf6060860182610c78565b506080830151610cf26080860182610c78565b508091505092915050565b610d0681610992565b82525050565b610d15816109cb565b82525050565b60006080820190508181036000830152610d358187610c87565b9050610d446020830186610cfd565b610d516040830185610d0c565b610d5e6060830184610d0c565b95945050505050565b610d7081610b45565b8114610d7b57600080fd5b50565b600081519050610d8d81610d67565b92915050565b600080600080600060a08688031215610daf57610dae61071c565b5b6000610dbd88828901610d7e565b9550506020610dce88828901610d7e565b9450506040610ddf88828901610d7e565b9350506060610df088828901610d7e565b9250506080610e0188828901610d7e565b9150509295509295909350565b600082825260208201905092915050565b7f4d697373696e67207065726d6974000000000000000000000000000000000000600082015250565b6000610e55600e83610e0e565b9150610e6082610e1f565b602082019050919050565b60006020820190508181036000830152610e8481610e48565b9050919050565b7f5065726d697420686173206265656e207265766f6b6564000000000000000000600082015250565b6000610ec1601783610e0e565b9150610ecc82610e8b565b602082019050919050565b60006020820190508181036000830152610ef081610eb4565b9050919050565b7f497373756572206973206e6f742076616c696400000000000000000000000000600082015250565b6000610f2d601383610e0e565b9150610f3882610ef7565b602082019050919050565b60006020820190508181036000830152610f5c81610f20565b9050919050565b7f5065726d69742068617320657870697265640000000000000000000000000000600082015250565b6000610f99601283610e0e565b9150610fa482610f63565b602082019050919050565b60006020820190508181036000830152610fc881610f8c565b9050919050565b600067ffffffffffffffff821115610fea57610fe961073c565b5b610ff38261072b565b9050602081019050919050565b600061101361100e84610fcf565b61079c565b90508281526020810184848401111561102f5761102e6107ff565b5b61103a848285610c0c565b509392505050565b600082601f830112611057576110566107fa565b5b8151611067848260208601611000565b91505092915050565b600061107b82610678565b9050919050565b61108b81611070565b811461109657600080fd5b50565b6000815190506110a881611082565b92915050565b6000815190506110bd816108be565b92915050565b60008060008060008060c087890312156110e0576110df61071c565b5b600087015167ffffffffffffffff8111156110fe576110fd610721565b5b61110a89828a01611042565b965050602061111b89828a01611099565b955050604061112c89828a01611099565b945050606061113d89828a01611099565b935050608061114e89828a016110ae565b92505060a061115f89828a01610d7e565b9150509295509295509295565b60008151905061117b816107ce565b92915050565b6000602082840312156111975761119661071c565b5b60006111a58482850161116c565b91505092915050565b7f496e76616c696420746f6b656e20696400000000000000000000000000000000600082015250565b60006111e4601083610e0e565b91506111ef826111ae565b602082019050919050565b60006020820190508181036000830152611213816111d7565b9050919050565b600081519050919050565b600081905092915050565b600061123b8261121a565b6112458185611225565b9350611255818560208601610c0c565b80840191505092915050565b600061126d8284611230565b915081905092915050565b7f526563697069656e7420636861696e204964206d75737420626520646966666560008201527f72656e742066726f6d207468697320636861696e206964000000000000000000602082015250565b60006112d4603783610e0e565b91506112df82611278565b604082019050919050565b60006020820190508181036000830152611303816112c7565b9050919050565b7f4e487b7100000000000000000000000000000000000000000000000000000000600052601160045260246000fd5b6000611344826108b4565b915061134f836108b4565b9250827fffffffffffffffffffffffffffffffffffffffffffffffffffffffffffffffff038211156113845761138361130a565b5b828201905092915050565b600082825260208201905092915050565b60006113ab82610bf0565b6113b5818561138f565b93506113c5818560208601610c0c565b6113ce8161072b565b840191505092915050565b600060c0820190506113ee6000830189610bb7565b6113fb6020830188610bb7565b6114086040830187610d0c565b6114156060830186610a84565b6114226080830185610a84565b81810360a083015261143481846113a0565b9050979650505050505050565b6000602082840312156114575761145661071c565b5b600061146584828501610d7e565b91505092915050565b7f496e76616c6964207065726d69742063726564656e7469616c2c20747279206160008201527f6761696e00000000000000000000000000000000000000000000000000000000602082015250565b60006114ca602483610e0e565b91506114d58261146e565b604082019050919050565b600060208201905081810360008301526114f9816114bd565b905091905056fea2646970667358221220a09b9a2c048a7343c959f7ba6ab692383f17ba143bcf64e16ce2d2e5ad414fef64736f6c63430008090033",
  "immutableReferences": {},
  "source": "// SPDX-License-Identifier: MIT\npragma solidity ^0.8.7;\n\nimport \"./ICredentialRegistry.sol\";\nimport \"./ICrossmint.sol\";\nimport \"./IClaimsVerifier.sol\";\nimport \"@openzeppelin/contracts/access/Ownable.sol\";\nimport \"@openzeppelin/contracts/token/ERC20/IERC20.sol\";\nimport \"@openzeppelin/contracts/token/ERC721/ERC721.sol\";\nimport \"@openzeppelin/contracts/token/ERC721/extensions/ERC721Burnable.sol\";\nimport \"@openzeppelin/contracts/token/ERC721/extensions/ERC721Pausable.sol\";\nimport \"@openzeppelin/contracts/token/ERC721/extensions/ERC721URIStorage.sol\";\nimport \"@openzeppelin/contracts/utils/Counters.sol\";\n\ncontract Crossmint is ICrossmint {\n    address public tokenNFT;\n    uint256 public senderChainId;\n\n    ICredentialRegistry public credentialRegistry;\n    IClaimsVerifier public verifier;\n\n    event CrossMintCallbackReceived(\n        address indexed newOwner,\n        string indexed metadataHash,\n        uint256 indexed tokenId\n    );\n\n    constructor(\n        address _tokenNFT,\n        address _credentialRegistry,\n        address _verifier,\n        uint256 _senderChainId\n    ) public {\n        senderChainId = _senderChainId;\n        verifier = IClaimsVerifier(_verifier);\n        credentialRegistry = ICredentialRegistry(_credentialRegistry);\n        tokenNFT = _tokenNFT;\n    }\n\n    // initiateCrossmint from Cosmos EVM to EVM\n    function initiateCrossmint(\n        uint256 recipientChainId,\n        address fromOwner,\n        address toOwner,\n        bytes memory permitSignature,\n        bytes32 permitHash\n    ) public returns (bool) {\n        // require(\n        //    (fromTokenNft) == tokenNFT,\n        //     \"Contract does not support this token NFT\"\n        // );\n\n        require(\n            senderChainId != recipientChainId,\n            \"Recipient chain Id must be different from this chain id\"\n        );\n\n        bool ok = credentialRegistry.registerCredential(\n            fromOwner,\n            toOwner,\n            permitHash,\n            block.timestamp,\n            block.timestamp + 6 hours,\n            permitSignature\n        );\n\n        require(ok, \"Invalid permit credential, try again\");\n\n        return true;\n    }\n\n    /**\n     * applyCrossmintChangeRequest\n     */\n    function applyCrossmintChangeRequest(\n        VerifiableCredential memory vc,\n        uint8 v,\n        bytes32 r,\n        bytes32 s\n    ) public returns (uint256) {\n        // verify permit exists, has not revoked, has valid issuer and is not expired\n        (\n            bool exists,\n            bool hasRevoked,\n            bool issuerValid,\n            bool a,\n            bool expired\n        ) = verifier.verifyCredential(vc, v, r, s);\n        require(exists, \"Missing permit\");\n        require(hasRevoked, \"Permit has been revoked\");\n        require(issuerValid, \"Issuer is not valid\");\n        require(expired, \"Permit has expired\");\n        // verify token exists\n        // ERC721(tokenAddress)\n        (\n            string memory metadata,\n            address to,\n            address fromOwner,\n            address newOwner,\n            uint256 tokenId,\n            bool isNew\n        ) = abi.decode(\n                vc.data,\n                (string, address, address, address, uint256, bool)\n            );\n        ERC721 nft = ERC721(to);\n\n        address owned = nft.ownerOf(tokenId);\n        require(owned == fromOwner, \"Invalid token id\");\n\n        // MINT\n        uint256 newItemId = 0;\n\n        emit CrossMintCallbackReceived(newOwner, metadata, newItemId);\n        return newItemId;\n    }\n}\n",
  "sourcePath": "/home/rogelio/Code/ancon-protocol/ethereum/contracts/Crossmint.sol",
  "compiler": {
    "name": "solc",
    "version": "0.8.9+commit.e5eed63a.Emscripten.clang"
  },
  "schemaVersion": "3.4.3",
  "updatedAt": "2021-10-10T13:09:38.703Z",
  "devdoc": {
    "kind": "dev",
    "methods": {},
    "version": 1
  },
  "userdoc": {
    "kind": "user",
    "methods": {
      "applyCrossmintChangeRequest((address,address,bytes,uint256,uint256),uint8,bytes32,bytes32)": {
        "notice": "applyCrossmintChangeRequest"
      }
    },
    "version": 1
  }
}