{
  "contractName": "Faucet",
  "abi": [
    {
      "inputs": [
        {
          "internalType": "address",
          "name": "_token1",
          "type": "address"
        }
      ],
      "stateMutability": "nonpayable",
      "type": "constructor"
    },
    {
      "anonymous": false,
      "inputs": [
        {
          "indexed": true,
          "internalType": "address",
          "name": "paymentAddress",
          "type": "address"
        },
        {
          "indexed": false,
          "internalType": "uint256",
          "name": "amount",
          "type": "uint256"
        }
      ],
      "name": "Withdrawn",
      "type": "event"
    },
    {
      "inputs": [],
      "name": "token1",
      "outputs": [
        {
          "internalType": "address",
          "name": "",
          "type": "address"
        }
      ],
      "stateMutability": "view",
      "type": "function"
    },
    {
      "inputs": [],
      "name": "token2",
      "outputs": [
        {
          "internalType": "address",
          "name": "",
          "type": "address"
        }
      ],
      "stateMutability": "view",
      "type": "function"
    },
    {
      "inputs": [
        {
          "internalType": "address payable",
          "name": "payee",
          "type": "address"
        }
      ],
      "name": "getTokenFromFaucet",
      "outputs": [],
      "stateMutability": "nonpayable",
      "type": "function"
    }
  ],
  "bytecode": "0x608060405234801561001057600080fd5b506040516105b53803806105b583398101604081905261002f91610054565b600080546001600160a01b0319166001600160a01b0392909216919091179055610084565b60006020828403121561006657600080fd5b81516001600160a01b038116811461007d57600080fd5b9392505050565b610522806100936000396000f3fe608060405234801561001057600080fd5b50600436106100415760003560e01c806325be124e14610046578063ba27843114610075578063d21220a71461008a575b600080fd5b600154610059906001600160a01b031681565b6040516001600160a01b03909116815260200160405180910390f35b610088610083366004610481565b61009d565b005b600054610059906001600160a01b031681565b6001600160a01b03811660009081526002602052604090205462015180106101325760405162461bcd60e51b815260206004820152602d60248201527f4d757374207761697420312064617920746f2077697468647261772066726f6d60448201527f207468697320616464726573730000000000000000000000000000000000000060648201526084015b60405180910390fd5b6000546040517fdd62ed3e0000000000000000000000000000000000000000000000000000000081526001600160a01b03838116600483015230602483015290911690671bc16d674ec8000090829063dd62ed3e9060440160206040518083038186803b1580156101a257600080fd5b505afa1580156101b6573d6000803e3d6000fd5b505050506040513d601f19601f820116820180604052508101906101da91906104b1565b10156102285760405162461bcd60e51b815260206004820152601760248201527f496e76616c696420746f6b656e20616c6c6f77616e63650000000000000000006044820152606401610129565b6040517f70a082310000000000000000000000000000000000000000000000000000000081523060048201526000906001600160a01b038316906370a082319060240160206040518083038186803b15801561028357600080fd5b505afa158015610297573d6000803e3d6000fd5b505050506040513d601f19601f820116820180604052508101906102bb91906104b1565b9050670de0b6b3a764000081116103395760405162461bcd60e51b8152602060048201526024808201527f42616c616e6365206d75737420626520686967686572207468616e203120657460448201527f68657220000000000000000000000000000000000000000000000000000000006064820152608401610129565b6040517fa9059cbb0000000000000000000000000000000000000000000000000000000081526001600160a01b038481166004830152670de0b6b3a7640000602483015283169063a9059cbb90604401602060405180830381600087803b1580156103a357600080fd5b505af11580156103b7573d6000803e3d6000fd5b505050506040513d601f19601f820116820180604052508101906103db91906104ca565b6104275760405162461bcd60e51b815260206004820152601d60248201527f416e636f6e204661756365743a205472616e73666572206661696c65640000006044820152606401610129565b6001600160a01b03831660008181526002602052604090819020429055517f7084f5476618d8e60b11ef0d7d3f06914655adb8793e28ff7f018d4c76d505d5906104749084815260200190565b60405180910390a2505050565b60006020828403121561049357600080fd5b81356001600160a01b03811681146104aa57600080fd5b9392505050565b6000602082840312156104c357600080fd5b5051919050565b6000602082840312156104dc57600080fd5b815180151581146104aa57600080fdfea26469706673582212206dd8a2656ef7d3ee9a4c24a2a702cfbf271982c9152aeeb48d2eee80f11a6f1864736f6c63430008090033",
  "immutableReferences": {},
  "source": "pragma solidity ^0.8.7;\nimport \"@openzeppelin/contracts/token/ERC20/IERC20.sol\";\n\n//token1 token2, withdraw only to these tokens\ncontract Faucet {\n    address public token1;\n    address public token2;\n    mapping (address=>uint256) waitingList;\n\n    constructor(address _token1) {\n        token1 = _token1;\n    }\n\n    event Withdrawn(address indexed paymentAddress, uint256 amount);\n\n    function getTokenFromFaucet(address payable payee) public {\n        require(waitingList[payee] > 1 days, \"Must wait 1 day to withdraw from this address\");\n        \n        IERC20 token = IERC20 (token1);\n\n        //token.approve(payee, 1 ether);  \n        \n        require(\n            token.allowance(payee, address(this)) >= 2 ether,\n            \"Invalid token allowance\"\n        );\n\n        uint256 balance = token.balanceOf(address(this));\n\n        require(balance > (1 ether), \"Balance must be higher than 1 ether \");\n        require(token.transfer(payee, 1 ether), \"Ancon Faucet: Transfer failed\");\n        \n        waitingList[payee] = block.timestamp;\n        \n        emit Withdrawn(payee, balance);\n    }\n}\n",
  "sourcePath": "/home/rogelio/Code/ancon-protocol/ethereum/contracts/ancon/Faucet.sol",
  "compiler": {
    "name": "solc",
    "version": "0.8.9+commit.e5eed63a.Emscripten.clang"
  },
  "schemaVersion": "3.4.0",
  "updatedAt": "2021-10-29T23:56:50.517Z",
  "devdoc": {
    "kind": "dev",
    "methods": {},
    "version": 1
  },
  "userdoc": {
    "kind": "user",
    "methods": {},
    "version": 1
  }
}