{
  "contractName": "IBCClient",
  "abi": [
    {
      "inputs": [
        {
          "internalType": "contract IBCHost",
          "name": "host",
          "type": "IBCHost"
        },
        {
          "internalType": "bytes",
          "name": "clientStateBytes",
          "type": "bytes"
        }
      ],
      "name": "validateSelfClient",
      "outputs": [
        {
          "internalType": "bool",
          "name": "",
          "type": "bool"
        }
      ],
      "stateMutability": "view",
      "type": "function"
    },
    {
      "inputs": [
        {
          "internalType": "contract IBCHost",
          "name": "host",
          "type": "IBCHost"
        },
        {
          "internalType": "string",
          "name": "clientId",
          "type": "string"
        }
      ],
      "name": "getClient",
      "outputs": [
        {
          "internalType": "contract IClient",
          "name": "",
          "type": "IClient"
        }
      ],
      "stateMutability": "view",
      "type": "function"
    }
  ],
  "bytecode": "0x61125d61003a600b82828239805160001a60731461002d57634e487b7160e01b600052600060045260246000fd5b30600052607381538281f3fe73000000000000000000000000000000000000000030146080604052600436106100715760003560e01c806340f5a1e91161005a57806340f5a1e9146100c8578063854414f0146100eb5780639eab4ae21461010b57600080fd5b80632747cfee146100765780632b37b7c1146100a6575b600080fd5b610089610084366004610bd9565b61012b565b6040516001600160a01b0390911681526020015b60405180910390f35b8180156100b257600080fd5b506100c66100c1366004610c29565b610208565b005b6100db6100d6366004610c8d565b6102d7565b604051901515815260200161009d565b8180156100f757600080fd5b506100c6610106366004610d12565b6102e1565b81801561011757600080fd5b506100c6610126366004610d69565b61069d565b60008060006101aa85866001600160a01b03166384515f5d876040518263ffffffff1660e01b81526004016101609190610e11565b600060405180830381865afa15801561017d573d6000803e3d6000fd5b505050506040513d6000823e601f3d908101601f191682016040526101a59190810190610e54565b610a4d565b91509150806102005760405162461bcd60e51b815260206004820152601460248201527f636c69656e74496d706c206e6f7420666f756e6400000000000000000000000060448201526064015b60405180910390fd5b509392505050565b826001600160a01b0316631649a4f76040518163ffffffff1660e01b815260040160006040518083038186803b15801561024157600080fd5b505afa158015610255573d6000803e3d6000fd5b50506040517f9d0b76500000000000000000000000000000000000000000000000000000000081526001600160a01b0386169250639d0b765091506102a09085908590600401610ea5565b600060405180830381600087803b1580156102ba57600080fd5b505af11580156102ce573d6000803e3d6000fd5b50505050505050565b60015b9392505050565b816001600160a01b0316631649a4f76040518163ffffffff1660e01b815260040160006040518083038186803b15801561031a57600080fd5b505afa15801561032e573d6000803e3d6000fd5b506060925082915060009050806001600160a01b0386166376c81c426103548780610ed0565b6040518363ffffffff1660e01b8152600401610371929190610f40565b600060405180830381865afa15801561038e573d6000803e3d6000fd5b505050506040513d6000823e601f3d908101601f191682016040526103b69190810190610f89565b9094509050806104085760405162461bcd60e51b815260206004820152601560248201527f636c69656e745374617465206e6f7420666f756e64000000000000000000000060448201526064016101f7565b610450866104168780610ed0565b8080601f01602080910402602001604051908101604052809392919081815260200183838082843760009201919091525061012b92505050565b6001600160a01b031663fe4391fd876104698880610ed0565b8861047760208c018c610ed0565b6040518763ffffffff1660e01b815260040161049896959493929190610fd7565b600060405180830381865afa1580156104b5573d6000803e3d6000fd5b505050506040513d6000823e601f3d908101601f191682016040526104dd9190810190611044565b919550935091506001600160a01b038616630838f56d6104fd8780610ed0565b876040518463ffffffff1660e01b815260040161051c939291906110b1565b600060405180830381600087803b15801561053657600080fd5b505af115801561054a573d6000803e3d6000fd5b5050506001600160a01b038716905063ff6182926105688780610ed0565b85876040518563ffffffff1660e01b815260040161058994939291906110e1565b600060405180830381600087803b1580156105a357600080fd5b505af11580156105b7573d6000803e3d6000fd5b5050506001600160a01b038716905063fcc2fb006105d58780610ed0565b85426040518563ffffffff1660e01b81526004016105f69493929190611122565b600060405180830381600087803b15801561061057600080fd5b505af1158015610624573d6000803e3d6000fd5b5050506001600160a01b0387169050631ea8dfe16106428780610ed0565b85436040518563ffffffff1660e01b81526004016106639493929190611122565b600060405180830381600087803b15801561067d57600080fd5b505af1158015610691573d6000803e3d6000fd5b50505050505050505050565b816001600160a01b0316631649a4f76040518163ffffffff1660e01b815260040160006040518083038186803b1580156106d657600080fd5b505afa1580156106ea573d6000803e3d6000fd5b506000925061073b91508490506107018480610ed0565b8080601f016020809104026020016040519081016040528093929190818152602001838380828437600092019190915250610a4d92505050565b9150508061078b5760405162461bcd60e51b815260206004820152601860248201527f756e7265676973746572656420636c69656e742074797065000000000000000060448201526064016101f7565b60006001600160a01b0384166322c995366107a68580610ed0565b6040518363ffffffff1660e01b81526004016107c3929190610f40565b6000604051808303816000875af11580156107e2573d6000803e3d6000fd5b505050506040513d6000823e601f3d908101601f1916820160405261080a9190810190610e54565b90506001600160a01b0384166378338a17826108268680610ed0565b6040518463ffffffff1660e01b815260040161084493929190611153565b600060405180830381600087803b15801561085e57600080fd5b505af1158015610872573d6000803e3d6000fd5b5050506001600160a01b0385169050630838f56d826108946040870187610ed0565b6040518463ffffffff1660e01b81526004016108b293929190611153565b600060405180830381600087803b1580156108cc57600080fd5b505af11580156108e0573d6000803e3d6000fd5b5050506001600160a01b038516905063ff618292826109056040870160208801611179565b6109126060880188610ed0565b6040518563ffffffff1660e01b81526004016109319493929190611196565b600060405180830381600087803b15801561094b57600080fd5b505af115801561095f573d6000803e3d6000fd5b5050506001600160a01b038516905063fcc2fb00826109846040870160208801611179565b426040518463ffffffff1660e01b81526004016109a3939291906111cc565b600060405180830381600087803b1580156109bd57600080fd5b505af11580156109d1573d6000803e3d6000fd5b5050506001600160a01b0385169050631ea8dfe1826109f66040870160208801611179565b436040518463ffffffff1660e01b8152600401610a15939291906111cc565b600060405180830381600087803b158015610a2f57600080fd5b505af1158015610a43573d6000803e3d6000fd5b5050505050505050565b600080600080856001600160a01b031663bfe7aa66866040518263ffffffff1660e01b8152600401610a7f9190610e11565b6040805180830381865afa158015610a9b573d6000803e3d6000fd5b505050506040513d601f19601f82011682018060405250810190610abf91906111fb565b9150915080610ad4575060009150610adc9050565b509150600190505b9250929050565b6001600160a01b0381168114610af857600080fd5b50565b7f4e487b7100000000000000000000000000000000000000000000000000000000600052604160045260246000fd5b604051601f8201601f1916810167ffffffffffffffff81118282101715610b5357610b53610afb565b604052919050565b600067ffffffffffffffff821115610b7557610b75610afb565b50601f01601f191660200190565b600082601f830112610b9457600080fd5b8135610ba7610ba282610b5b565b610b2a565b818152846020838601011115610bbc57600080fd5b816020850160208301376000918101602001919091529392505050565b60008060408385031215610bec57600080fd5b8235610bf781610ae3565b9150602083013567ffffffffffffffff811115610c1357600080fd5b610c1f85828601610b83565b9150509250929050565b600080600060608486031215610c3e57600080fd5b8335610c4981610ae3565b9250602084013567ffffffffffffffff811115610c6557600080fd5b610c7186828701610b83565b9250506040840135610c8281610ae3565b809150509250925092565b600080600060408486031215610ca257600080fd5b8335610cad81610ae3565b9250602084013567ffffffffffffffff80821115610cca57600080fd5b818601915086601f830112610cde57600080fd5b813581811115610ced57600080fd5b876020828501011115610cff57600080fd5b6020830194508093505050509250925092565b60008060408385031215610d2557600080fd5b8235610d3081610ae3565b9150602083013567ffffffffffffffff811115610d4c57600080fd5b830160408186031215610d5e57600080fd5b809150509250929050565b60008060408385031215610d7c57600080fd5b8235610d8781610ae3565b9150602083013567ffffffffffffffff811115610da357600080fd5b830160808186031215610d5e57600080fd5b60005b83811015610dd0578181015183820152602001610db8565b83811115610ddf576000848401525b50505050565b60008151808452610dfd816020860160208601610db5565b601f01601f19169290920160200192915050565b6020815260006102da6020830184610de5565b6000610e32610ba284610b5b565b9050828152838383011115610e4657600080fd5b6102da836020830184610db5565b600060208284031215610e6657600080fd5b815167ffffffffffffffff811115610e7d57600080fd5b8201601f81018413610e8e57600080fd5b610e9d84825160208401610e24565b949350505050565b604081526000610eb86040830185610de5565b90506001600160a01b03831660208301529392505050565b6000808335601e19843603018112610ee757600080fd5b83018035915067ffffffffffffffff821115610f0257600080fd5b602001915036819003821315610adc57600080fd5b81835281816020850137506000828201602090810191909152601f909101601f19169091010190565b602081526000610e9d602083018486610f17565b600082601f830112610f6557600080fd5b6102da83835160208501610e24565b80518015158114610f8457600080fd5b919050565b60008060408385031215610f9c57600080fd5b825167ffffffffffffffff811115610fb357600080fd5b610fbf85828601610f54565b925050610fce60208401610f74565b90509250929050565b6001600160a01b0387168152608060208201526000610ffa608083018789610f17565b828103604084015261100c8187610de5565b90508281036060840152611021818587610f17565b9998505050505050505050565b67ffffffffffffffff81168114610af857600080fd5b60008060006060848603121561105957600080fd5b835167ffffffffffffffff8082111561107157600080fd5b61107d87838801610f54565b9450602086015191508082111561109357600080fd5b506110a086828701610f54565b9250506040840151610c828161102e565b6040815260006110c5604083018587610f17565b82810360208401526110d78185610de5565b9695505050505050565b6060815260006110f5606083018688610f17565b67ffffffffffffffff8516602084015282810360408401526111178185610de5565b979650505050505050565b606081526000611136606083018688610f17565b67ffffffffffffffff949094166020830152506040015292915050565b6040815260006111666040830186610de5565b82810360208401526110d7818587610f17565b60006020828403121561118b57600080fd5b81356102da8161102e565b6060815260006111a96060830187610de5565b67ffffffffffffffff861660208401528281036040840152611117818587610f17565b6060815260006111df6060830186610de5565b67ffffffffffffffff9490941660208301525060400152919050565b6000806040838503121561120e57600080fd5b825161121981610ae3565b9150610fce60208401610f7456fea264697066735822122046747661d13b285e53bb5416c7c3fb8735f410bbffad464368ea047fb0b9054464736f6c634300080a0033",
  "immutableReferences": {},
  "source": "pragma solidity ^0.8.9;\n\nimport \"./IClient.sol\";\nimport \"./IBCHost.sol\";\nimport \"./IBCMsgs.sol\";\n\nlibrary IBCClient {\n\n    /**\n     * @dev createClient creates a new client state and populates it with a given consensus state\n     */\n    function createClient(IBCHost host, IBCMsgs.MsgCreateClient calldata msg_) external {\n        host.onlyIBCModule();\n        (, bool found) = getClientByType(host, msg_.clientType);\n        require(found, \"unregistered client type\");\n\n        string memory clientId = host.generateClientIdentifier(msg_.clientType);\n        host.setClientType(clientId, msg_.clientType);\n        host.setClientState(clientId, msg_.clientStateBytes);\n        host.setConsensusState(clientId, msg_.height, msg_.consensusStateBytes);\n        host.setProcessedTime(clientId, msg_.height, block.timestamp);\n        host.setProcessedHeight(clientId, msg_.height, block.number);\n    }\n\n    /**\n     * @dev updateClient updates the consensus state and the state root from a provided header\n     */\n    function updateClient(IBCHost host, IBCMsgs.MsgUpdateClient calldata msg_) external {\n        host.onlyIBCModule();\n        bytes memory clientStateBytes;\n        bytes memory consensusStateBytes;\n        uint64 height;\n        bool found;\n    \n        (clientStateBytes, found) = host.getClientState(msg_.clientId);\n        require(found, \"clientState not found\");\n\n        (clientStateBytes, consensusStateBytes, height) = getClient(host, msg_.clientId).checkHeaderAndUpdateState(host, msg_.clientId, clientStateBytes, msg_.header);\n    \n        //// persist states ////\n        host.setClientState(msg_.clientId, clientStateBytes);\n        host.setConsensusState(msg_.clientId, height, consensusStateBytes);\n        host.setProcessedTime(msg_.clientId, height, block.timestamp);\n        host.setProcessedHeight(msg_.clientId, height, block.number);\n    }\n\n    // TODO implements\n    function validateSelfClient(IBCHost host, bytes calldata clientStateBytes) external view returns (bool) {\n        return true;\n    }\n\n    function registerClient(IBCHost host, string memory clientType, IClient client) public {\n        host.onlyIBCModule();\n        host.setClientImpl(clientType, address(client));\n    }\n\n    function getClient(IBCHost host, string memory clientId) public view returns (IClient) {\n        (IClient clientImpl, bool found) = getClientByType(host, host.getClientType(clientId));\n        require(found, \"clientImpl not found\");\n        return clientImpl;\n    }\n\n    function getClientByType(IBCHost host, string memory clientType) internal view returns (IClient clientImpl, bool) {\n        (address addr, bool found) = host.getClientImpl(clientType);\n        if (!found) {\n            return (clientImpl, false);\n        }\n        return (IClient(addr), true);\n    }\n}\n",
  "sourcePath": "/home/dallant/Code/ancon-protocol/ethereum/contracts/yui-ibc-solidity/core/IBCClient.sol",
  "compiler": {
    "name": "solc",
    "version": "0.8.10+commit.fc410830.Emscripten.clang"
  },
  "schemaVersion": "3.4.3",
  "updatedAt": "2021-11-09T21:15:58.984Z",
  "devdoc": {
    "kind": "dev",
    "methods": {
      "createClient(IBCHost,IBCMsgs.MsgCreateClient)": {
        "details": "createClient creates a new client state and populates it with a given consensus state"
      },
      "updateClient(IBCHost,IBCMsgs.MsgUpdateClient)": {
        "details": "updateClient updates the consensus state and the state root from a provided header"
      }
    },
    "version": 1
  },
  "userdoc": {
    "kind": "user",
    "methods": {},
    "version": 1
  }
}