{
  "contractName": "IBCClient",
  "abi": [
    {
      "inputs": [
        {
          "internalType": "contract IBCHost",
          "name": "host",
          "type": "IBCHost"
        },
        {
          "internalType": "bytes",
          "name": "clientStateBytes",
          "type": "bytes"
        }
      ],
      "name": "validateSelfClient",
      "outputs": [
        {
          "internalType": "bool",
          "name": "",
          "type": "bool"
        }
      ],
      "stateMutability": "view",
      "type": "function",
      "constant": true
    },
    {
      "inputs": [
        {
          "internalType": "contract IBCHost",
          "name": "host",
          "type": "IBCHost"
        },
        {
          "internalType": "string",
          "name": "clientId",
          "type": "string"
        }
      ],
      "name": "getClient",
      "outputs": [
        {
          "internalType": "contract IClient",
          "name": "",
          "type": "IClient"
        }
      ],
      "stateMutability": "view",
      "type": "function",
      "constant": true
    }
  ],
  "bytecode": "0x6112a861003a600b82828239805160001a60731461002d57634e487b7160e01b600052600060045260246000fd5b30600052607381538281f3fe73000000000000000000000000000000000000000030146080604052600436106100715760003560e01c806340f5a1e91161005a57806340f5a1e9146100c8578063854414f0146100eb5780639eab4ae21461010b57600080fd5b80632747cfee146100765780632b37b7c1146100a6575b600080fd5b610089610084366004610c24565b61012b565b6040516001600160a01b0390911681526020015b60405180910390f35b8180156100b257600080fd5b506100c66100c1366004610c74565b610217565b005b6100db6100d6366004610cd8565b6102e6565b604051901515815260200161009d565b8180156100f757600080fd5b506100c6610106366004610d5d565b6102f0565b81801561011757600080fd5b506100c6610126366004610db4565b6106ca565b60008060006101b985866001600160a01b03166384515f5d876040518263ffffffff1660e01b81526004016101609190610e5c565b60006040518083038186803b15801561017857600080fd5b505afa15801561018c573d6000803e3d6000fd5b505050506040513d6000823e601f3d908101601f191682016040526101b49190810190610e9f565b610a89565b915091508061020f5760405162461bcd60e51b815260206004820152601460248201527f636c69656e74496d706c206e6f7420666f756e6400000000000000000000000060448201526064015b60405180910390fd5b509392505050565b826001600160a01b0316631649a4f76040518163ffffffff1660e01b815260040160006040518083038186803b15801561025057600080fd5b505afa158015610264573d6000803e3d6000fd5b50506040517f9d0b76500000000000000000000000000000000000000000000000000000000081526001600160a01b0386169250639d0b765091506102af9085908590600401610ef0565b600060405180830381600087803b1580156102c957600080fd5b505af11580156102dd573d6000803e3d6000fd5b50505050505050565b60015b9392505050565b816001600160a01b0316631649a4f76040518163ffffffff1660e01b815260040160006040518083038186803b15801561032957600080fd5b505afa15801561033d573d6000803e3d6000fd5b506060925082915060009050806001600160a01b0386166376c81c426103638780610f1b565b6040518363ffffffff1660e01b8152600401610380929190610f8b565b60006040518083038186803b15801561039857600080fd5b505afa1580156103ac573d6000803e3d6000fd5b505050506040513d6000823e601f3d908101601f191682016040526103d49190810190610fd4565b9094509050806104265760405162461bcd60e51b815260206004820152601560248201527f636c69656e745374617465206e6f7420666f756e6400000000000000000000006044820152606401610206565b61046e866104348780610f1b565b8080601f01602080910402602001604051908101604052809392919081815260200183838082843760009201919091525061012b92505050565b6001600160a01b031663fe4391fd876104878880610f1b565b8861049560208c018c610f1b565b6040518763ffffffff1660e01b81526004016104b696959493929190611022565b60006040518083038186803b1580156104ce57600080fd5b505afa1580156104e2573d6000803e3d6000fd5b505050506040513d6000823e601f3d908101601f1916820160405261050a919081019061108f565b919550935091506001600160a01b038616630838f56d61052a8780610f1b565b876040518463ffffffff1660e01b8152600401610549939291906110fc565b600060405180830381600087803b15801561056357600080fd5b505af1158015610577573d6000803e3d6000fd5b5050506001600160a01b038716905063ff6182926105958780610f1b565b85876040518563ffffffff1660e01b81526004016105b6949392919061112c565b600060405180830381600087803b1580156105d057600080fd5b505af11580156105e4573d6000803e3d6000fd5b5050506001600160a01b038716905063fcc2fb006106028780610f1b565b85426040518563ffffffff1660e01b8152600401610623949392919061116d565b600060405180830381600087803b15801561063d57600080fd5b505af1158015610651573d6000803e3d6000fd5b5050506001600160a01b0387169050631ea8dfe161066f8780610f1b565b85436040518563ffffffff1660e01b8152600401610690949392919061116d565b600060405180830381600087803b1580156106aa57600080fd5b505af11580156106be573d6000803e3d6000fd5b50505050505050505050565b816001600160a01b0316631649a4f76040518163ffffffff1660e01b815260040160006040518083038186803b15801561070357600080fd5b505afa158015610717573d6000803e3d6000fd5b5060009250610768915084905061072e8480610f1b565b8080601f016020809104026020016040519081016040528093929190818152602001838380828437600092019190915250610a8992505050565b915050806107b85760405162461bcd60e51b815260206004820152601860248201527f756e7265676973746572656420636c69656e74207479706500000000000000006044820152606401610206565b60006001600160a01b0384166322c995366107d38580610f1b565b6040518363ffffffff1660e01b81526004016107f0929190610f8b565b600060405180830381600087803b15801561080a57600080fd5b505af115801561081e573d6000803e3d6000fd5b505050506040513d6000823e601f3d908101601f191682016040526108469190810190610e9f565b90506001600160a01b0384166378338a17826108628680610f1b565b6040518463ffffffff1660e01b81526004016108809392919061119e565b600060405180830381600087803b15801561089a57600080fd5b505af11580156108ae573d6000803e3d6000fd5b5050506001600160a01b0385169050630838f56d826108d06040870187610f1b565b6040518463ffffffff1660e01b81526004016108ee9392919061119e565b600060405180830381600087803b15801561090857600080fd5b505af115801561091c573d6000803e3d6000fd5b5050506001600160a01b038516905063ff6182928261094160408701602088016111c4565b61094e6060880188610f1b565b6040518563ffffffff1660e01b815260040161096d94939291906111e1565b600060405180830381600087803b15801561098757600080fd5b505af115801561099b573d6000803e3d6000fd5b5050506001600160a01b038516905063fcc2fb00826109c060408701602088016111c4565b426040518463ffffffff1660e01b81526004016109df93929190611217565b600060405180830381600087803b1580156109f957600080fd5b505af1158015610a0d573d6000803e3d6000fd5b5050506001600160a01b0385169050631ea8dfe182610a3260408701602088016111c4565b436040518463ffffffff1660e01b8152600401610a5193929190611217565b600060405180830381600087803b158015610a6b57600080fd5b505af1158015610a7f573d6000803e3d6000fd5b5050505050505050565b600080600080856001600160a01b031663bfe7aa66866040518263ffffffff1660e01b8152600401610abb9190610e5c565b604080518083038186803b158015610ad257600080fd5b505afa158015610ae6573d6000803e3d6000fd5b505050506040513d601f19601f82011682018060405250810190610b0a9190611246565b9150915080610b1f575060009150610b279050565b509150600190505b9250929050565b6001600160a01b0381168114610b4357600080fd5b50565b7f4e487b7100000000000000000000000000000000000000000000000000000000600052604160045260246000fd5b604051601f8201601f1916810167ffffffffffffffff81118282101715610b9e57610b9e610b46565b604052919050565b600067ffffffffffffffff821115610bc057610bc0610b46565b50601f01601f191660200190565b600082601f830112610bdf57600080fd5b8135610bf2610bed82610ba6565b610b75565b818152846020838601011115610c0757600080fd5b816020850160208301376000918101602001919091529392505050565b60008060408385031215610c3757600080fd5b8235610c4281610b2e565b9150602083013567ffffffffffffffff811115610c5e57600080fd5b610c6a85828601610bce565b9150509250929050565b600080600060608486031215610c8957600080fd5b8335610c9481610b2e565b9250602084013567ffffffffffffffff811115610cb057600080fd5b610cbc86828701610bce565b9250506040840135610ccd81610b2e565b809150509250925092565b600080600060408486031215610ced57600080fd5b8335610cf881610b2e565b9250602084013567ffffffffffffffff80821115610d1557600080fd5b818601915086601f830112610d2957600080fd5b813581811115610d3857600080fd5b876020828501011115610d4a57600080fd5b6020830194508093505050509250925092565b60008060408385031215610d7057600080fd5b8235610d7b81610b2e565b9150602083013567ffffffffffffffff811115610d9757600080fd5b830160408186031215610da957600080fd5b809150509250929050565b60008060408385031215610dc757600080fd5b8235610dd281610b2e565b9150602083013567ffffffffffffffff811115610dee57600080fd5b830160808186031215610da957600080fd5b60005b83811015610e1b578181015183820152602001610e03565b83811115610e2a576000848401525b50505050565b60008151808452610e48816020860160208601610e00565b601f01601f19169290920160200192915050565b6020815260006102e96020830184610e30565b6000610e7d610bed84610ba6565b9050828152838383011115610e9157600080fd5b6102e9836020830184610e00565b600060208284031215610eb157600080fd5b815167ffffffffffffffff811115610ec857600080fd5b8201601f81018413610ed957600080fd5b610ee884825160208401610e6f565b949350505050565b604081526000610f036040830185610e30565b90506001600160a01b03831660208301529392505050565b6000808335601e19843603018112610f3257600080fd5b83018035915067ffffffffffffffff821115610f4d57600080fd5b602001915036819003821315610b2757600080fd5b81835281816020850137506000828201602090810191909152601f909101601f19169091010190565b602081526000610ee8602083018486610f62565b600082601f830112610fb057600080fd5b6102e983835160208501610e6f565b80518015158114610fcf57600080fd5b919050565b60008060408385031215610fe757600080fd5b825167ffffffffffffffff811115610ffe57600080fd5b61100a85828601610f9f565b92505061101960208401610fbf565b90509250929050565b6001600160a01b0387168152608060208201526000611045608083018789610f62565b82810360408401526110578187610e30565b9050828103606084015261106c818587610f62565b9998505050505050505050565b67ffffffffffffffff81168114610b4357600080fd5b6000806000606084860312156110a457600080fd5b835167ffffffffffffffff808211156110bc57600080fd5b6110c887838801610f9f565b945060208601519150808211156110de57600080fd5b506110eb86828701610f9f565b9250506040840151610ccd81611079565b604081526000611110604083018587610f62565b82810360208401526111228185610e30565b9695505050505050565b606081526000611140606083018688610f62565b67ffffffffffffffff8516602084015282810360408401526111628185610e30565b979650505050505050565b606081526000611181606083018688610f62565b67ffffffffffffffff949094166020830152506040015292915050565b6040815260006111b16040830186610e30565b8281036020840152611122818587610f62565b6000602082840312156111d657600080fd5b81356102e981611079565b6060815260006111f46060830187610e30565b67ffffffffffffffff861660208401528281036040840152611162818587610f62565b60608152600061122a6060830186610e30565b67ffffffffffffffff9490941660208301525060400152919050565b6000806040838503121561125957600080fd5b825161126481610b2e565b915061101960208401610fbf56fea2646970667358221220da37a3627a0c7e5e2e2ec9d63e56d2f8df26b02976be55bfc94d0d81065719db64736f6c63430008090033",
  "immutableReferences": {},
  "source": "pragma solidity ^0.8.9;\n\nimport \"./IClient.sol\";\nimport \"./IBCHost.sol\";\nimport \"./IBCMsgs.sol\";\n\nlibrary IBCClient {\n\n    /**\n     * @dev createClient creates a new client state and populates it with a given consensus state\n     */\n    function createClient(IBCHost host, IBCMsgs.MsgCreateClient calldata msg_) external {\n        host.onlyIBCModule();\n        (, bool found) = getClientByType(host, msg_.clientType);\n        require(found, \"unregistered client type\");\n\n        string memory clientId = host.generateClientIdentifier(msg_.clientType);\n        host.setClientType(clientId, msg_.clientType);\n        host.setClientState(clientId, msg_.clientStateBytes);\n        host.setConsensusState(clientId, msg_.height, msg_.consensusStateBytes);\n        host.setProcessedTime(clientId, msg_.height, block.timestamp);\n        host.setProcessedHeight(clientId, msg_.height, block.number);\n    }\n\n    /**\n     * @dev updateClient updates the consensus state and the state root from a provided header\n     */\n    function updateClient(IBCHost host, IBCMsgs.MsgUpdateClient calldata msg_) external {\n        host.onlyIBCModule();\n        bytes memory clientStateBytes;\n        bytes memory consensusStateBytes;\n        uint64 height;\n        bool found;\n    \n        (clientStateBytes, found) = host.getClientState(msg_.clientId);\n        require(found, \"clientState not found\");\n\n        (clientStateBytes, consensusStateBytes, height) = getClient(host, msg_.clientId).checkHeaderAndUpdateState(host, msg_.clientId, clientStateBytes, msg_.header);\n    \n        //// persist states ////\n        host.setClientState(msg_.clientId, clientStateBytes);\n        host.setConsensusState(msg_.clientId, height, consensusStateBytes);\n        host.setProcessedTime(msg_.clientId, height, block.timestamp);\n        host.setProcessedHeight(msg_.clientId, height, block.number);\n    }\n\n    // TODO implements\n    function validateSelfClient(IBCHost host, bytes calldata clientStateBytes) external view returns (bool) {\n        return true;\n    }\n\n    function registerClient(IBCHost host, string memory clientType, IClient client) public {\n        host.onlyIBCModule();\n        host.setClientImpl(clientType, address(client));\n    }\n\n    function getClient(IBCHost host, string memory clientId) public view returns (IClient) {\n        (IClient clientImpl, bool found) = getClientByType(host, host.getClientType(clientId));\n        require(found, \"clientImpl not found\");\n        return clientImpl;\n    }\n\n    function getClientByType(IBCHost host, string memory clientType) internal view returns (IClient clientImpl, bool) {\n        (address addr, bool found) = host.getClientImpl(clientType);\n        if (!found) {\n            return (clientImpl, false);\n        }\n        return (IClient(addr), true);\n    }\n}\n",
  "sourcePath": "/home/rogelio/Code/ancon-protocol/ethereum/contracts/yui-ibc-solidity/core/IBCClient.sol",
  "compiler": {
    "name": "solc",
    "version": "0.8.9+commit.e5eed63a.Emscripten.clang"
  },
  "schemaVersion": "3.4.0",
  "updatedAt": "2021-11-02T12:42:28.320Z",
  "networkType": "ethereum",
  "devdoc": {
    "kind": "dev",
    "methods": {
      "createClient(IBCHost,IBCMsgs.MsgCreateClient)": {
        "details": "createClient creates a new client state and populates it with a given consensus state"
      },
      "updateClient(IBCHost,IBCMsgs.MsgUpdateClient)": {
        "details": "updateClient updates the consensus state and the state root from a provided header"
      }
    },
    "version": 1
  },
  "userdoc": {
    "kind": "user",
    "methods": {},
    "version": 1
  }
}