{
  "contractName": "IBCHost",
  "abi": [
    {
      "inputs": [],
      "stateMutability": "nonpayable",
      "type": "constructor"
    },
    {
      "anonymous": false,
      "inputs": [
        {
          "indexed": false,
          "internalType": "string",
          "name": "",
          "type": "string"
        }
      ],
      "name": "GeneratedChannelIdentifier",
      "type": "event"
    },
    {
      "anonymous": false,
      "inputs": [
        {
          "indexed": false,
          "internalType": "string",
          "name": "",
          "type": "string"
        }
      ],
      "name": "GeneratedClientIdentifier",
      "type": "event"
    },
    {
      "anonymous": false,
      "inputs": [
        {
          "indexed": false,
          "internalType": "string",
          "name": "",
          "type": "string"
        }
      ],
      "name": "GeneratedConnectionIdentifier",
      "type": "event"
    },
    {
      "inputs": [
        {
          "internalType": "address",
          "name": "ibcModule_",
          "type": "address"
        }
      ],
      "name": "setIBCModule",
      "outputs": [],
      "stateMutability": "nonpayable",
      "type": "function"
    },
    {
      "inputs": [],
      "name": "onlyIBCModule",
      "outputs": [],
      "stateMutability": "view",
      "type": "function"
    },
    {
      "inputs": [
        {
          "internalType": "string",
          "name": "clientType",
          "type": "string"
        },
        {
          "internalType": "address",
          "name": "clientImpl",
          "type": "address"
        }
      ],
      "name": "setClientImpl",
      "outputs": [],
      "stateMutability": "nonpayable",
      "type": "function"
    },
    {
      "inputs": [
        {
          "internalType": "string",
          "name": "clientType",
          "type": "string"
        }
      ],
      "name": "getClientImpl",
      "outputs": [
        {
          "internalType": "address",
          "name": "",
          "type": "address"
        },
        {
          "internalType": "bool",
          "name": "",
          "type": "bool"
        }
      ],
      "stateMutability": "view",
      "type": "function"
    },
    {
      "inputs": [
        {
          "internalType": "string",
          "name": "clientId",
          "type": "string"
        },
        {
          "internalType": "string",
          "name": "clientType",
          "type": "string"
        }
      ],
      "name": "setClientType",
      "outputs": [],
      "stateMutability": "nonpayable",
      "type": "function"
    },
    {
      "inputs": [
        {
          "internalType": "string",
          "name": "clientId",
          "type": "string"
        }
      ],
      "name": "getClientType",
      "outputs": [
        {
          "internalType": "string",
          "name": "",
          "type": "string"
        }
      ],
      "stateMutability": "view",
      "type": "function"
    },
    {
      "inputs": [
        {
          "internalType": "string",
          "name": "clientId",
          "type": "string"
        },
        {
          "internalType": "bytes",
          "name": "clientStateBytes",
          "type": "bytes"
        }
      ],
      "name": "setClientState",
      "outputs": [],
      "stateMutability": "nonpayable",
      "type": "function"
    },
    {
      "inputs": [
        {
          "internalType": "string",
          "name": "clientId",
          "type": "string"
        }
      ],
      "name": "getClientState",
      "outputs": [
        {
          "internalType": "bytes",
          "name": "",
          "type": "bytes"
        },
        {
          "internalType": "bool",
          "name": "",
          "type": "bool"
        }
      ],
      "stateMutability": "view",
      "type": "function"
    },
    {
      "inputs": [
        {
          "internalType": "string",
          "name": "clientId",
          "type": "string"
        },
        {
          "internalType": "uint64",
          "name": "height",
          "type": "uint64"
        },
        {
          "internalType": "bytes",
          "name": "consensusStateBytes",
          "type": "bytes"
        }
      ],
      "name": "setConsensusState",
      "outputs": [],
      "stateMutability": "nonpayable",
      "type": "function"
    },
    {
      "inputs": [
        {
          "internalType": "string",
          "name": "clientId",
          "type": "string"
        },
        {
          "internalType": "uint64",
          "name": "height",
          "type": "uint64"
        }
      ],
      "name": "getConsensusState",
      "outputs": [
        {
          "internalType": "bytes",
          "name": "",
          "type": "bytes"
        },
        {
          "internalType": "bool",
          "name": "",
          "type": "bool"
        }
      ],
      "stateMutability": "view",
      "type": "function"
    },
    {
      "inputs": [
        {
          "internalType": "string",
          "name": "clientId",
          "type": "string"
        },
        {
          "internalType": "uint64",
          "name": "height",
          "type": "uint64"
        },
        {
          "internalType": "uint256",
          "name": "processedTime",
          "type": "uint256"
        }
      ],
      "name": "setProcessedTime",
      "outputs": [],
      "stateMutability": "nonpayable",
      "type": "function"
    },
    {
      "inputs": [
        {
          "internalType": "string",
          "name": "clientId",
          "type": "string"
        },
        {
          "internalType": "uint64",
          "name": "height",
          "type": "uint64"
        }
      ],
      "name": "getProcessedTime",
      "outputs": [
        {
          "internalType": "uint256",
          "name": "",
          "type": "uint256"
        },
        {
          "internalType": "bool",
          "name": "",
          "type": "bool"
        }
      ],
      "stateMutability": "view",
      "type": "function"
    },
    {
      "inputs": [
        {
          "internalType": "string",
          "name": "clientId",
          "type": "string"
        },
        {
          "internalType": "uint64",
          "name": "height",
          "type": "uint64"
        },
        {
          "internalType": "uint256",
          "name": "processedHeight",
          "type": "uint256"
        }
      ],
      "name": "setProcessedHeight",
      "outputs": [],
      "stateMutability": "nonpayable",
      "type": "function"
    },
    {
      "inputs": [
        {
          "internalType": "string",
          "name": "clientId",
          "type": "string"
        },
        {
          "internalType": "uint64",
          "name": "height",
          "type": "uint64"
        }
      ],
      "name": "getProcessedHeight",
      "outputs": [
        {
          "internalType": "uint256",
          "name": "",
          "type": "uint256"
        },
        {
          "internalType": "bool",
          "name": "",
          "type": "bool"
        }
      ],
      "stateMutability": "view",
      "type": "function"
    },
    {
      "inputs": [
        {
          "internalType": "string",
          "name": "connectionId",
          "type": "string"
        },
        {
          "components": [
            {
              "internalType": "string",
              "name": "client_id",
              "type": "string"
            },
            {
              "components": [
                {
                  "internalType": "string",
                  "name": "identifier",
                  "type": "string"
                },
                {
                  "internalType": "string[]",
                  "name": "features",
                  "type": "string[]"
                }
              ],
              "internalType": "struct Version.Data[]",
              "name": "versions",
              "type": "tuple[]"
            },
            {
              "internalType": "enum ConnectionEnd.State",
              "name": "state",
              "type": "uint8"
            },
            {
              "components": [
                {
                  "internalType": "string",
                  "name": "client_id",
                  "type": "string"
                },
                {
                  "internalType": "string",
                  "name": "connection_id",
                  "type": "string"
                },
                {
                  "components": [
                    {
                      "internalType": "bytes",
                      "name": "key_prefix",
                      "type": "bytes"
                    }
                  ],
                  "internalType": "struct MerklePrefix.Data",
                  "name": "prefix",
                  "type": "tuple"
                }
              ],
              "internalType": "struct Counterparty.Data",
              "name": "counterparty",
              "type": "tuple"
            },
            {
              "internalType": "uint64",
              "name": "delay_period",
              "type": "uint64"
            }
          ],
          "internalType": "struct ConnectionEnd.Data",
          "name": "connection",
          "type": "tuple"
        }
      ],
      "name": "setConnection",
      "outputs": [],
      "stateMutability": "nonpayable",
      "type": "function"
    },
    {
      "inputs": [
        {
          "internalType": "string",
          "name": "connectionId",
          "type": "string"
        }
      ],
      "name": "getConnection",
      "outputs": [
        {
          "components": [
            {
              "internalType": "string",
              "name": "client_id",
              "type": "string"
            },
            {
              "components": [
                {
                  "internalType": "string",
                  "name": "identifier",
                  "type": "string"
                },
                {
                  "internalType": "string[]",
                  "name": "features",
                  "type": "string[]"
                }
              ],
              "internalType": "struct Version.Data[]",
              "name": "versions",
              "type": "tuple[]"
            },
            {
              "internalType": "enum ConnectionEnd.State",
              "name": "state",
              "type": "uint8"
            },
            {
              "components": [
                {
                  "internalType": "string",
                  "name": "client_id",
                  "type": "string"
                },
                {
                  "internalType": "string",
                  "name": "connection_id",
                  "type": "string"
                },
                {
                  "components": [
                    {
                      "internalType": "bytes",
                      "name": "key_prefix",
                      "type": "bytes"
                    }
                  ],
                  "internalType": "struct MerklePrefix.Data",
                  "name": "prefix",
                  "type": "tuple"
                }
              ],
              "internalType": "struct Counterparty.Data",
              "name": "counterparty",
              "type": "tuple"
            },
            {
              "internalType": "uint64",
              "name": "delay_period",
              "type": "uint64"
            }
          ],
          "internalType": "struct ConnectionEnd.Data",
          "name": "connection",
          "type": "tuple"
        },
        {
          "internalType": "bool",
          "name": "",
          "type": "bool"
        }
      ],
      "stateMutability": "view",
      "type": "function"
    },
    {
      "inputs": [
        {
          "internalType": "string",
          "name": "portId",
          "type": "string"
        },
        {
          "internalType": "string",
          "name": "channelId",
          "type": "string"
        },
        {
          "components": [
            {
              "internalType": "enum Channel.State",
              "name": "state",
              "type": "uint8"
            },
            {
              "internalType": "enum Channel.Order",
              "name": "ordering",
              "type": "uint8"
            },
            {
              "components": [
                {
                  "internalType": "string",
                  "name": "port_id",
                  "type": "string"
                },
                {
                  "internalType": "string",
                  "name": "channel_id",
                  "type": "string"
                }
              ],
              "internalType": "struct ChannelCounterparty.Data",
              "name": "counterparty",
              "type": "tuple"
            },
            {
              "internalType": "string[]",
              "name": "connection_hops",
              "type": "string[]"
            },
            {
              "internalType": "string",
              "name": "version",
              "type": "string"
            }
          ],
          "internalType": "struct Channel.Data",
          "name": "channel",
          "type": "tuple"
        }
      ],
      "name": "setChannel",
      "outputs": [],
      "stateMutability": "nonpayable",
      "type": "function"
    },
    {
      "inputs": [
        {
          "internalType": "string",
          "name": "portId",
          "type": "string"
        },
        {
          "internalType": "string",
          "name": "channelId",
          "type": "string"
        }
      ],
      "name": "getChannel",
      "outputs": [
        {
          "components": [
            {
              "internalType": "enum Channel.State",
              "name": "state",
              "type": "uint8"
            },
            {
              "internalType": "enum Channel.Order",
              "name": "ordering",
              "type": "uint8"
            },
            {
              "components": [
                {
                  "internalType": "string",
                  "name": "port_id",
                  "type": "string"
                },
                {
                  "internalType": "string",
                  "name": "channel_id",
                  "type": "string"
                }
              ],
              "internalType": "struct ChannelCounterparty.Data",
              "name": "counterparty",
              "type": "tuple"
            },
            {
              "internalType": "string[]",
              "name": "connection_hops",
              "type": "string[]"
            },
            {
              "internalType": "string",
              "name": "version",
              "type": "string"
            }
          ],
          "internalType": "struct Channel.Data",
          "name": "channel",
          "type": "tuple"
        },
        {
          "internalType": "bool",
          "name": "",
          "type": "bool"
        }
      ],
      "stateMutability": "view",
      "type": "function"
    },
    {
      "inputs": [
        {
          "internalType": "string",
          "name": "portId",
          "type": "string"
        },
        {
          "internalType": "string",
          "name": "channelId",
          "type": "string"
        },
        {
          "internalType": "uint64",
          "name": "sequence",
          "type": "uint64"
        }
      ],
      "name": "setNextSequenceSend",
      "outputs": [],
      "stateMutability": "nonpayable",
      "type": "function"
    },
    {
      "inputs": [
        {
          "internalType": "string",
          "name": "portId",
          "type": "string"
        },
        {
          "internalType": "string",
          "name": "channelId",
          "type": "string"
        }
      ],
      "name": "getNextSequenceSend",
      "outputs": [
        {
          "internalType": "uint64",
          "name": "",
          "type": "uint64"
        }
      ],
      "stateMutability": "view",
      "type": "function"
    },
    {
      "inputs": [
        {
          "internalType": "string",
          "name": "portId",
          "type": "string"
        },
        {
          "internalType": "string",
          "name": "channelId",
          "type": "string"
        },
        {
          "internalType": "uint64",
          "name": "sequence",
          "type": "uint64"
        }
      ],
      "name": "setNextSequenceRecv",
      "outputs": [],
      "stateMutability": "nonpayable",
      "type": "function"
    },
    {
      "inputs": [
        {
          "internalType": "string",
          "name": "portId",
          "type": "string"
        },
        {
          "internalType": "string",
          "name": "channelId",
          "type": "string"
        }
      ],
      "name": "getNextSequenceRecv",
      "outputs": [
        {
          "internalType": "uint64",
          "name": "",
          "type": "uint64"
        }
      ],
      "stateMutability": "view",
      "type": "function"
    },
    {
      "inputs": [
        {
          "internalType": "string",
          "name": "portId",
          "type": "string"
        },
        {
          "internalType": "string",
          "name": "channelId",
          "type": "string"
        },
        {
          "internalType": "uint64",
          "name": "sequence",
          "type": "uint64"
        }
      ],
      "name": "setNextSequenceAck",
      "outputs": [],
      "stateMutability": "nonpayable",
      "type": "function"
    },
    {
      "inputs": [
        {
          "internalType": "string",
          "name": "portId",
          "type": "string"
        },
        {
          "internalType": "string",
          "name": "channelId",
          "type": "string"
        }
      ],
      "name": "getNextSequenceAck",
      "outputs": [
        {
          "internalType": "uint64",
          "name": "",
          "type": "uint64"
        }
      ],
      "stateMutability": "view",
      "type": "function"
    },
    {
      "inputs": [
        {
          "internalType": "string",
          "name": "portId",
          "type": "string"
        },
        {
          "internalType": "string",
          "name": "channelId",
          "type": "string"
        },
        {
          "internalType": "uint64",
          "name": "sequence",
          "type": "uint64"
        },
        {
          "components": [
            {
              "internalType": "uint64",
              "name": "sequence",
              "type": "uint64"
            },
            {
              "internalType": "string",
              "name": "source_port",
              "type": "string"
            },
            {
              "internalType": "string",
              "name": "source_channel",
              "type": "string"
            },
            {
              "internalType": "string",
              "name": "destination_port",
              "type": "string"
            },
            {
              "internalType": "string",
              "name": "destination_channel",
              "type": "string"
            },
            {
              "internalType": "bytes",
              "name": "data",
              "type": "bytes"
            },
            {
              "components": [
                {
                  "internalType": "uint64",
                  "name": "revision_number",
                  "type": "uint64"
                },
                {
                  "internalType": "uint64",
                  "name": "revision_height",
                  "type": "uint64"
                }
              ],
              "internalType": "struct Height.Data",
              "name": "timeout_height",
              "type": "tuple"
            },
            {
              "internalType": "uint64",
              "name": "timeout_timestamp",
              "type": "uint64"
            }
          ],
          "internalType": "struct Packet.Data",
          "name": "packet",
          "type": "tuple"
        }
      ],
      "name": "setPacketCommitment",
      "outputs": [],
      "stateMutability": "nonpayable",
      "type": "function"
    },
    {
      "inputs": [
        {
          "internalType": "string",
          "name": "portId",
          "type": "string"
        },
        {
          "internalType": "string",
          "name": "channelId",
          "type": "string"
        },
        {
          "internalType": "uint64",
          "name": "sequence",
          "type": "uint64"
        }
      ],
      "name": "deletePacketCommitment",
      "outputs": [],
      "stateMutability": "nonpayable",
      "type": "function"
    },
    {
      "inputs": [
        {
          "internalType": "string",
          "name": "portId",
          "type": "string"
        },
        {
          "internalType": "string",
          "name": "channelId",
          "type": "string"
        },
        {
          "internalType": "uint64",
          "name": "sequence",
          "type": "uint64"
        }
      ],
      "name": "getPacketCommitment",
      "outputs": [
        {
          "internalType": "bytes32",
          "name": "",
          "type": "bytes32"
        },
        {
          "internalType": "bool",
          "name": "",
          "type": "bool"
        }
      ],
      "stateMutability": "view",
      "type": "function"
    },
    {
      "inputs": [
        {
          "components": [
            {
              "internalType": "uint64",
              "name": "sequence",
              "type": "uint64"
            },
            {
              "internalType": "string",
              "name": "source_port",
              "type": "string"
            },
            {
              "internalType": "string",
              "name": "source_channel",
              "type": "string"
            },
            {
              "internalType": "string",
              "name": "destination_port",
              "type": "string"
            },
            {
              "internalType": "string",
              "name": "destination_channel",
              "type": "string"
            },
            {
              "internalType": "bytes",
              "name": "data",
              "type": "bytes"
            },
            {
              "components": [
                {
                  "internalType": "uint64",
                  "name": "revision_number",
                  "type": "uint64"
                },
                {
                  "internalType": "uint64",
                  "name": "revision_height",
                  "type": "uint64"
                }
              ],
              "internalType": "struct Height.Data",
              "name": "timeout_height",
              "type": "tuple"
            },
            {
              "internalType": "uint64",
              "name": "timeout_timestamp",
              "type": "uint64"
            }
          ],
          "internalType": "struct Packet.Data",
          "name": "packet",
          "type": "tuple"
        }
      ],
      "name": "makePacketCommitment",
      "outputs": [
        {
          "internalType": "bytes32",
          "name": "",
          "type": "bytes32"
        }
      ],
      "stateMutability": "pure",
      "type": "function"
    },
    {
      "inputs": [
        {
          "internalType": "string",
          "name": "portId",
          "type": "string"
        },
        {
          "internalType": "string",
          "name": "channelId",
          "type": "string"
        },
        {
          "internalType": "uint64",
          "name": "sequence",
          "type": "uint64"
        },
        {
          "internalType": "bytes",
          "name": "acknowledgement",
          "type": "bytes"
        }
      ],
      "name": "setPacketAcknowledgementCommitment",
      "outputs": [],
      "stateMutability": "nonpayable",
      "type": "function"
    },
    {
      "inputs": [
        {
          "internalType": "string",
          "name": "portId",
          "type": "string"
        },
        {
          "internalType": "string",
          "name": "channelId",
          "type": "string"
        },
        {
          "internalType": "uint64",
          "name": "sequence",
          "type": "uint64"
        }
      ],
      "name": "getPacketAcknowledgementCommitment",
      "outputs": [
        {
          "internalType": "bytes32",
          "name": "",
          "type": "bytes32"
        },
        {
          "internalType": "bool",
          "name": "",
          "type": "bool"
        }
      ],
      "stateMutability": "view",
      "type": "function"
    },
    {
      "inputs": [
        {
          "internalType": "bytes",
          "name": "acknowledgement",
          "type": "bytes"
        }
      ],
      "name": "makePacketAcknowledgementCommitment",
      "outputs": [
        {
          "internalType": "bytes32",
          "name": "",
          "type": "bytes32"
        }
      ],
      "stateMutability": "pure",
      "type": "function"
    },
    {
      "inputs": [
        {
          "internalType": "string",
          "name": "portId",
          "type": "string"
        },
        {
          "internalType": "string",
          "name": "channelId",
          "type": "string"
        },
        {
          "internalType": "uint64",
          "name": "sequence",
          "type": "uint64"
        }
      ],
      "name": "setPacketReceipt",
      "outputs": [],
      "stateMutability": "nonpayable",
      "type": "function"
    },
    {
      "inputs": [
        {
          "internalType": "string",
          "name": "portId",
          "type": "string"
        },
        {
          "internalType": "string",
          "name": "channelId",
          "type": "string"
        },
        {
          "internalType": "uint64",
          "name": "sequence",
          "type": "uint64"
        }
      ],
      "name": "hasPacketReceipt",
      "outputs": [
        {
          "internalType": "bool",
          "name": "",
          "type": "bool"
        }
      ],
      "stateMutability": "view",
      "type": "function"
    },
    {
      "inputs": [],
      "name": "getExpectedTimePerBlock",
      "outputs": [
        {
          "internalType": "uint64",
          "name": "",
          "type": "uint64"
        }
      ],
      "stateMutability": "view",
      "type": "function"
    },
    {
      "inputs": [
        {
          "internalType": "uint64",
          "name": "expectedTimePerBlock_",
          "type": "uint64"
        }
      ],
      "name": "setExpectedTimePerBlock",
      "outputs": [],
      "stateMutability": "nonpayable",
      "type": "function"
    },
    {
      "inputs": [
        {
          "internalType": "bytes",
          "name": "name",
          "type": "bytes"
        },
        {
          "internalType": "address",
          "name": "addr",
          "type": "address"
        }
      ],
      "name": "claimCapability",
      "outputs": [],
      "stateMutability": "nonpayable",
      "type": "function"
    },
    {
      "inputs": [
        {
          "internalType": "bytes",
          "name": "name",
          "type": "bytes"
        },
        {
          "internalType": "address",
          "name": "addr",
          "type": "address"
        }
      ],
      "name": "authenticateCapability",
      "outputs": [
        {
          "internalType": "bool",
          "name": "",
          "type": "bool"
        }
      ],
      "stateMutability": "view",
      "type": "function"
    },
    {
      "inputs": [
        {
          "internalType": "bytes",
          "name": "name",
          "type": "bytes"
        }
      ],
      "name": "getModuleOwner",
      "outputs": [
        {
          "internalType": "address",
          "name": "",
          "type": "address"
        },
        {
          "internalType": "bool",
          "name": "",
          "type": "bool"
        }
      ],
      "stateMutability": "view",
      "type": "function"
    },
    {
      "inputs": [
        {
          "internalType": "string",
          "name": "clientType",
          "type": "string"
        }
      ],
      "name": "generateClientIdentifier",
      "outputs": [
        {
          "internalType": "string",
          "name": "",
          "type": "string"
        }
      ],
      "stateMutability": "nonpayable",
      "type": "function"
    },
    {
      "inputs": [],
      "name": "generateConnectionIdentifier",
      "outputs": [
        {
          "internalType": "string",
          "name": "",
          "type": "string"
        }
      ],
      "stateMutability": "nonpayable",
      "type": "function"
    },
    {
      "inputs": [],
      "name": "generateChannelIdentifier",
      "outputs": [
        {
          "internalType": "string",
          "name": "",
          "type": "string"
        }
      ],
      "stateMutability": "nonpayable",
      "type": "function"
    }
  ],
  "bytecode": "0x608060405234801561001057600080fd5b50600f80546001600160a01b03191633179055614f6c806100326000396000f3fe608060405234801561001057600080fd5b50600436106102d35760003560e01c806371f56c5911610186578063be3d6e92116100e3578063ec75d82911610097578063fcc2fb0011610071578063fcc2fb0014610636578063ff17174514610649578063ff6182921461065c57600080fd5b8063ec75d829146105f8578063f2a47da314610610578063f81cc9e11461062357600080fd5b8063d9e73f50116100c8578063d9e73f50146105ca578063ddc090dd146105d2578063e211bb06146105e557600080fd5b8063be3d6e92146105a4578063bfe7aa66146105b757600080fd5b806394dcb4c61161013a578063a37a45c81161011f578063a37a45c81461054c578063ace6cfb71461055f578063b7ccdc571461059157600080fd5b806394dcb4c6146105265780639d0b76501461053957600080fd5b806378338a171161016b57806378338a17146104ed57806384515f5d146105005780638a8896581461051357600080fd5b806371f56c59146104b957806376c81c42146104cc57600080fd5b80632dbe1450116102345780634e08c6f3116101e8578063582418b6116101cd578063582418b6146104805780635a9afac31461049357806361fc5e7b146104a657600080fd5b80634e08c6f31461044d57806353ccd1c81461047857600080fd5b80633000217a116102195780633000217a146104065780633564d5501461042757806336f575921461043a57600080fd5b80632dbe1450146103cb5780632f80e3ad146103de57600080fd5b806322c995361161028b57806327184c131161027057806327184c131461037457806327711a69146103875780632d46858f146103a857600080fd5b806322c995361461034157806324fe5ee81461036157600080fd5b80631649a4f7116102bc5780631649a4f7146103135780631e742f321461031b5780631ea8dfe11461032e57600080fd5b80630838f56d146102d857806312a68750146102ed575b600080fd5b6102eb6102e6366004613aa3565b61066f565b005b6103006102fb366004613ddc565b610752565b6040519081526020015b60405180910390f35b6102eb610872565b6102eb610329366004613e27565b61088b565b6102eb61033c366004613e42565b6108d1565b61035461034f366004613e9d565b610927565b60405161030a9190613f3a565b6102eb61036f366004613f4d565b6109f0565b6102eb610382366004613fcd565b610a60565b61039a610395366004613e9d565b610aa9565b60405161030a9291906140ba565b6103bb6103b63660046141c1565b610fab565b604051901515815260200161030a565b6102eb6103d9366004614475565b61106c565b6103f16103ec366004614572565b61133b565b6040805192835290151560208301520161030a565b610419610414366004613aa3565b611388565b60405161030a9291906145bc565b6102eb610435366004614713565b61174d565b6103f1610448366004614572565b6118f3565b61046061045b366004613aa3565b61190a565b6040516001600160401b03909116815260200161030a565b61035461195f565b61046061048e366004613aa3565b611a47565b6103bb6104a1366004613f4d565b611a5b565b6103f16104b4366004613f4d565b611ac2565b6103f16104c7366004613f4d565b611b6b565b6104df6104da366004613e9d565b611bb2565b60405161030a929190614834565b6102eb6104fb366004613aa3565b611c9d565b61035461050e366004613e9d565b611dcc565b610300610521366004614858565b611e7f565b6102eb610534366004613f4d565b611e91565b6102eb6105473660046141c1565b611f35565b6104df61055a366004614572565b612014565b61057261056d366004613e9d565b61212b565b604080516001600160a01b03909316835290151560208301520161030a565b6102eb61059f36600461488c565b6121b1565b6102eb6105b23660046141c1565b612200565b6105726105c5366004613e9d565b612310565b61035461237b565b6102eb6105e0366004613f4d565b612446565b6104606105f3366004613aa3565b612461565b601054600160a01b90046001600160401b0316610460565b6102eb61061e366004613f4d565b612475565b6102eb610631366004614924565b6124ed565b6102eb610644366004613e42565b6125d1565b6102eb610657366004613f4d565b6125ec565b6102eb61066a3660046149d1565b612607565b610677610872565b81816003868660405161068b929190614a54565b9081526040519081900360200190206106a5929091613786565b5081816040516106b6929190614a54565b604051809103902060008073__IBCIdentifier_________________________63c7ddc60688886040518363ffffffff1660e01b81526004016106fa929190614a8d565b602060405180830381865af4158015610717573d6000803e3d6000fd5b505050506040513d601f19601f8201168201806040525081019061073b9190614aa1565b815260208101919091526040016000205550505050565b600060028260e001518360c00151600001518460c001516020015160028660a001516040516107819190614aba565b602060405180830381855afa15801561079e573d6000803e3d6000fd5b5050506040513d601f19601f820116820180604052508101906107c19190614aa1565b6040517fffffffffffffffff00000000000000000000000000000000000000000000000060c095861b8116602083015293851b841660288201529190931b9091166030820152603881019190915260580160408051601f198184030181529082905261082c91614aba565b602060405180830381855afa158015610849573d6000803e3d6000fd5b5050506040513d601f19601f8201168201806040525081019061086c9190614aa1565b92915050565b6010546001600160a01b0316331461088957600080fd5b565b600f546001600160a01b031633146108a257600080fd5b6010805473ffffffffffffffffffffffffffffffffffffffff19166001600160a01b0392909216919091179055565b6108d9610872565b80600685856040516108ec929190614a54565b90815260200160405180910390206000846001600160401b03166001600160401b031681526020019081526020016000208190555050505050565b6060610931610872565b600e546000908490849061094d906001600160401b0316612702565b60405160200161095f93929190614ad6565b60408051601f19818403018152919052600e80549192506001600160401b0390911690600061098d83614b3c565b91906101000a8154816001600160401b0302191690836001600160401b03160217905550507f601bfcc455d5d4d7738f8c6ac232e0d7cc9c31dab811f1d87c100af0b7fc3a20816040516109e19190613f3a565b60405180910390a19392505050565b6109f8610872565b80600b8686604051610a0b929190614a54565b90815260200160405180910390208484604051610a29929190614a54565b90815260405190819003602001902080546001600160401b039290921667ffffffffffffffff199092169190911790555050505050565b610a68610872565b601080546001600160401b03909216600160a01b027fffffffff0000000000000000ffffffffffffffffffffffffffffffffffffffff909216919091179055565b610ab161380a565b600060078484604051610ac5929190614a54565b908152604051908190036020019020600060078686604051610ae8929190614a54565b9081526040519081900360200190206002015460ff166003811115610b0f57610b0f61403d565b1415816040518060a0016040529081600082018054610b2d90614b63565b80601f0160208091040260200160405190810160405280929190818152602001828054610b5990614b63565b8015610ba65780601f10610b7b57610100808354040283529160200191610ba6565b820191906000526020600020905b815481529060010190602001808311610b8957829003601f168201915b5050505050815260200160018201805480602002602001604051908101604052809291908181526020016000905b82821015610d715783829060005260206000209060020201604051806040016040529081600082018054610c0790614b63565b80601f0160208091040260200160405190810160405280929190818152602001828054610c3390614b63565b8015610c805780601f10610c5557610100808354040283529160200191610c80565b820191906000526020600020905b815481529060010190602001808311610c6357829003601f168201915b5050505050815260200160018201805480602002602001604051908101604052809291908181526020016000905b82821015610d5a578382906000526020600020018054610ccd90614b63565b80601f0160208091040260200160405190810160405280929190818152602001828054610cf990614b63565b8015610d465780601f10610d1b57610100808354040283529160200191610d46565b820191906000526020600020905b815481529060010190602001808311610d2957829003601f168201915b505050505081526020019060010190610cae565b505050508152505081526020019060010190610bd4565b50505090825250600282015460209091019060ff166003811115610d9757610d9761403d565b6003811115610da857610da861403d565b815260200160038201604051806060016040529081600082018054610dcc90614b63565b80601f0160208091040260200160405190810160405280929190818152602001828054610df890614b63565b8015610e455780601f10610e1a57610100808354040283529160200191610e45565b820191906000526020600020905b815481529060010190602001808311610e2857829003601f168201915b50505050508152602001600182018054610e5e90614b63565b80601f0160208091040260200160405190810160405280929190818152602001828054610e8a90614b63565b8015610ed75780601f10610eac57610100808354040283529160200191610ed7565b820191906000526020600020905b815481529060010190602001808311610eba57829003601f168201915b5050505050815260200160028201604051806020016040529081600082018054610f0090614b63565b80601f0160208091040260200160405190810160405280929190818152602001828054610f2c90614b63565b8015610f795780601f10610f4e57610100808354040283529160200191610f79565b820191906000526020600020905b815481529060010190602001808311610f5c57829003601f168201915b505050919092525050509052508152600691909101546001600160401b031660209091015293509150505b9250929050565b6000610fb5610872565b60005b600d8585604051610fca929190614a54565b9081526040519081900360200190205463ffffffff8216101561105f57826001600160a01b0316600d8686604051611003929190614a54565b90815260200160405180910390208263ffffffff168154811061102857611028614b9e565b6000918252602090912001546001600160a01b0316141561104d576001915050611065565b8061105781614bb4565b915050610fb8565b50600090505b9392505050565b611074610872565b8051604051600790611087908590614aba565b908152602001604051809103902060000190805190602001906110ab92919061383d565b5080604001516007836040516110c19190614aba565b908152604051908190036020019020600201805460ff191660018360038111156110ed576110ed61403d565b021790555080608001516007836040516111079190614aba565b90815260405190819003602001812060060180546001600160401b039390931667ffffffffffffffff1990931692909217909155600790611149908490614aba565b9081526020016040518091039020600101600061116691906138b1565b60005b8160200151518160ff16101561121b576007836040516111899190614aba565b908152602001604051809103902060010182602001518260ff16815181106111b3576111b3614b9e565b6020908102919091018101518254600181018455600093845292829020815180519294600202909101926111ec9284929091019061383d565b50602082810151805161120592600185019201906138d5565b505050808061121390614bce565b915050611169565b5080606001516007836040516112319190614aba565b9081526020016040518091039020600301600082015181600001908051906020019061125e92919061383d565b506020828101518051611277926001850192019061383d565b5060408201518051805160028401916112959183916020019061383d565b5050509050506112a48161288b565b8051906020012060008073__IBCIdentifier_________________________63a9dd3eb3866040518263ffffffff1660e01b81526004016112e59190613f3a565b602060405180830381865af4158015611302573d6000803e3d6000fd5b505050506040513d601f19601f820116820180604052508101906113269190614aa1565b81526020810191909152604001600020555050565b600080600060058686604051611352929190614a54565b908152604080519182900360209081019092206001600160401b0387166000908152925290205492505050801515935093915050565b61139061392e565b6000600886866040516113a4929190614a54565b908152602001604051809103902084846040516113c2929190614a54565b9081526040519081900360200190206000600888886040516113e5929190614a54565b90815260200160405180910390208686604051611403929190614a54565b9081526040519081900360200190205460ff1660048111156114275761142761403d565b6040805160a0810190915283549290911415918390829060ff1660048111156114525761145261403d565b60048111156114635761146361403d565b81528154602090910190610100900460ff1660028111156114865761148661403d565b60028111156114975761149761403d565b8152602001600182016040518060400160405290816000820180546114bb90614b63565b80601f01602080910402602001604051908101604052809291908181526020018280546114e790614b63565b80156115345780601f1061150957610100808354040283529160200191611534565b820191906000526020600020905b81548152906001019060200180831161151757829003601f168201915b5050505050815260200160018201805461154d90614b63565b80601f016020809104026020016040519081016040528092919081815260200182805461157990614b63565b80156115c65780601f1061159b576101008083540402835291602001916115c6565b820191906000526020600020905b8154815290600101906020018083116115a957829003601f168201915b505050505081525050815260200160038201805480602002602001604051908101604052809291908181526020016000905b828210156116a457838290600052602060002001805461161790614b63565b80601f016020809104026020016040519081016040528092919081815260200182805461164390614b63565b80156116905780601f1061166557610100808354040283529160200191611690565b820191906000526020600020905b81548152906001019060200180831161167357829003601f168201915b5050505050815260200190600101906115f8565b5050505081526020016004820180546116bc90614b63565b80601f01602080910402602001604051908101604052809291908181526020018280546116e890614b63565b80156117355780601f1061170a57610100808354040283529160200191611735565b820191906000526020600020905b81548152906001019060200180831161171857829003601f168201915b50505050508152505091509150915094509492505050565b611755610872565b806008846040516117669190614aba565b9081526020016040518091039020836040516117829190614aba565b90815260405190819003602001902081518154829060ff191660018360048111156117af576117af61403d565b021790555060208201518154829061ff0019166101008360028111156117d7576117d761403d565b021790555060408201518051805160018401916117f99183916020019061383d565b506020828101518051611812926001850192019061383d565b505050606082015180516118309160038401916020909101906138d5565b506080820151805161184c91600484019160209091019061383d565b50905050611859816128f3565b8051906020012060008073__IBCIdentifier_________________________63c6c9159c87876040518363ffffffff1660e01b815260040161189c929190614bee565b602060405180830381865af41580156118b9573d6000803e3d6000fd5b505050506040513d601f19601f820116820180604052508101906118dd9190614aa1565b8152602081019190915260400160002055505050565b600080600060068686604051611352929190614a54565b6000600b858560405161191e929190614a54565b9081526020016040518091039020838360405161193c929190614a54565b908152604051908190036020019020546001600160401b03169050949350505050565b6060611969610872565b600e546000906119959070010000000000000000000000000000000090046001600160401b0316612702565b6040516020016119a59190614c13565b60408051808303601f19018152919052600e80549192507001000000000000000000000000000000009091046001600160401b03169060106119e683614b3c565b91906101000a8154816001600160401b0302191690836001600160401b03160217905550507f01fb9b8778b6fb840b058bb971dea3ba81c167b010a0216afe600826884f9ba781604051611a3a9190613f3a565b60405180910390a1919050565b60006009858560405161191e929190614a54565b6000600c8686604051611a6f929190614a54565b90815260200160405180910390208484604051611a8d929190614a54565b908152604080519182900360209081019092206001600160401b0385166000908152925290205460ff16905095945050505050565b600080600080600073__IBCIdentifier_________________________63dae1b0f88b8b8b8b8b6040518663ffffffff1660e01b8152600401611b09959493929190614c58565b602060405180830381865af4158015611b26573d6000803e3d6000fd5b505050506040513d601f19601f82011682018060405250810190611b4a9190614aa1565b81526020810191909152604001600020549889151598509650505050505050565b600080600080600073__IBCIdentifier_________________________63e334f11b8b8b8b8b8b6040518663ffffffff1660e01b8152600401611b09959493929190614c58565b6060600060038484604051611bc8929190614a54565b9081526020016040518091039020600060038686604051611bea929190614a54565b90815260200160405180910390208054611c0390614b63565b905011818054611c1290614b63565b80601f0160208091040260200160405190810160405280929190818152602001828054611c3e90614b63565b8015611c8b5780601f10611c6057610100808354040283529160200191611c8b565b820191906000526020600020905b815481529060010190602001808311611c6e57829003601f168201915b50505050509150915091509250929050565b611ca5610872565b60028484604051611cb7929190614a54565b90815260200160405180910390208054611cd090614b63565b159050611d245760405162461bcd60e51b815260206004820152601760248201527f636c69656e74496420616c72656164792065786973747300000000000000000060448201526064015b60405180910390fd5b80611d975760405162461bcd60e51b815260206004820152602360248201527f636c69656e7454797065206d757374206e6f7420626520656d7074792073747260448201527f696e6700000000000000000000000000000000000000000000000000000000006064820152608401611d1b565b818160028686604051611dab929190614a54565b908152604051908190036020019020611dc5929091613786565b5050505050565b606060028383604051611de0929190614a54565b90815260200160405180910390208054611df990614b63565b80601f0160208091040260200160405190810160405280929190818152602001828054611e2590614b63565b8015611e725780601f10611e4757610100808354040283529160200191611e72565b820191906000526020600020905b815481529060010190602001808311611e5557829003601f168201915b5050505050905092915050565b600060028260405161082c9190614aba565b611e99610872565b60008073__IBCIdentifier_________________________63dae1b0f888888888886040518663ffffffff1660e01b8152600401611edb959493929190614c58565b602060405180830381865af4158015611ef8573d6000803e3d6000fd5b505050506040513d601f19601f82011682018060405250810190611f1c9190614aa1565b8152602001908152602001600020600090555050505050565b611f3d610872565b60006001600160a01b031660018484604051611f5a929190614a54565b908152604051908190036020019020546001600160a01b031614611fc05760405162461bcd60e51b815260206004820152601960248201527f636c69656e74496d706c20616c726561647920657869737473000000000000006044820152606401611d1b565b8060018484604051611fd3929190614a54565b90815260405190819003602001902080546001600160a01b039290921673ffffffffffffffffffffffffffffffffffffffff19909216919091179055505050565b606060006004858560405161202a929190614a54565b9081526040805191829003602090810183206001600160401b03871660009081529152908120916004906120619089908990614a54565b90815260408051602092819003830190206001600160401b038816600090815292529020805461209090614b63565b90501181805461209f90614b63565b80601f01602080910402602001604051908101604052809291908181526020018280546120cb90614b63565b80156121185780601f106120ed57610100808354040283529160200191612118565b820191906000526020600020905b8154815290600101906020018083116120fb57829003601f168201915b5050505050915091509150935093915050565b600080600d8484604051612140929190614a54565b9081526040519081900360200190205461215f57506000905080610fa4565b600d8484604051612171929190614a54565b908152602001604051809103902060008154811061219157612191614b9e565b6000918252602090912001546001600160a01b0316946001945092505050565b6121b9610872565b6121c281610752565b60008073__IBCIdentifier_________________________63dae1b0f88888886040518463ffffffff1660e01b81526004016106fa93929190614c9b565b612208610872565b60005b600d848460405161221d929190614a54565b9081526040519081900360200190205463ffffffff821610156122ad57816001600160a01b0316600d8585604051612256929190614a54565b90815260200160405180910390208263ffffffff168154811061227b5761227b614b9e565b6000918252602090912001546001600160a01b0316141561229b57600080fd5b806122a581614bb4565b91505061220b565b50600d83836040516122c0929190614a54565b908152604051602091819003820190208054600181018255600091825291902001805473ffffffffffffffffffffffffffffffffffffffff19166001600160a01b03929092169190911790555050565b60008060018484604051612325929190614a54565b908152604051908190036020018120546001600160a01b0316906000906001906123529088908890614a54565b908152604051908190036020019020549193506001600160a01b03909116141590509250929050565b6060612385610872565b600e546000906123a9906801000000000000000090046001600160401b0316612702565b6040516020016123b99190614cda565b60408051808303601f19018152919052600e8054919250680100000000000000009091046001600160401b03169060086123f283614b3c565b91906101000a8154816001600160401b0302191690836001600160401b03160217905550507fbcf8ae1e9272e040280c9adfc8033bb831043a9959e37ef4af1f7e8ded16321b81604051611a3a9190613f3a565b61244e610872565b8060098686604051610a0b929190614a54565b6000600a858560405161191e929190614a54565b61247d610872565b6001600c8686604051612491929190614a54565b908152602001604051809103902084846040516124af929190614a54565b90815260408051602092819003830190206001600160401b0394909416600090815293909152909120805460ff191691151591909117905550505050565b6124f5610872565b61253482828080601f016020809104026020016040519081016040528093929190818152602001838380828437600092019190915250611e7f92505050565b60008073__IBCIdentifier_________________________63e334f11b8b8b8b8b8b6040518663ffffffff1660e01b8152600401612576959493929190614c58565b602060405180830381865af4158015612593573d6000803e3d6000fd5b505050506040513d601f19601f820116820180604052508101906125b79190614aa1565b815260208101919091526040016000205550505050505050565b6125d9610872565b80600585856040516108ec929190614a54565b6125f4610872565b80600a8686604051610a0b929190614a54565b61260f610872565b818160048787604051612623929190614a54565b90815260408051602092819003830190206001600160401b038816600090815292529020612652929091613786565b508181604051612663929190614a54565b604051809103902060008073__IBCIdentifier_________________________63c1f0b6438989896040518463ffffffff1660e01b81526004016126a993929190614d1f565b602060405180830381865af41580156126c6573d6000803e3d6000fd5b505050506040513d601f19601f820116820180604052508101906126ea9190614aa1565b81526020810191909152604001600020555050505050565b60606001600160401b03821661274b57505060408051808201909152600181527f3000000000000000000000000000000000000000000000000000000000000000602082015290565b8160005b6001600160401b0382161561277e578061276881614b3c565b91506127779050600a83614d4c565b915061274f565b6000816001600160401b03166001600160401b038111156127a1576127a1613b0e565b6040519080825280601f01601f1916602001820160405280156127cb576020820181803683370190505b509050815b6001600160401b03861615612882576127ea600182614d80565b905060006127f9600a88614d4c565b61280490600a614da8565b61280e9088614d80565b612819906030614dd7565b905060008160f81b90508084846001600160401b03168151811061283f5761283f614b9e565b60200101907effffffffffffffffffffffffffffffffffffffffffffffffffffffffffffff1916908160001a905350612879600a89614d4c565b975050506127d0565b50949350505050565b6060600061289883612952565b6001600160401b038111156128af576128af613b0e565b6040519080825280601f01601f1916602001820160405280156128d9576020820181803683370190505b50905060006128ea84602084612a65565b82525092915050565b6060600061290083612c1b565b6001600160401b0381111561291757612917613b0e565b6040519080825280601f01601f191660200182016040528015612941576020820181803683370190505b50905060006128ea84602084612d05565b6000806000612965846000015151612eb0565b612970906001614dfc565b61297a9083614dfc565b9150600090505b8360200151518110156129e5576129bc6129b7856020015183815181106129aa576129aa614b9e565b6020026020010151612ec5565b612eb0565b6129c7906001614dfc565b6129d19083614dfc565b9150806129dd81614e14565b915050612981565b6129fd6129f58560400151612f4a565b60030b612fd3565b612a08906001614dfc565b612a129083614dfc565b9150612a246129b78560600151612fff565b612a2f906001614dfc565b612a399083614dfc565b9150612a488460800151613071565b612a53906001614dfc565b612a5d9083614dfc565b949350505050565b82515160009083908190839015612aac57612a84600160028488613085565b612a8e9083614dfc565b9150612a9f876000015183876130a5565b612aa99083614dfc565b91505b60208701515115612b27575060005b866020015151811015612b2757612ad56002808488613085565b612adf9083614dfc565b9150612b0987602001518281518110612afa57612afa614b9e565b602002602001015183876130b2565b612b139083614dfc565b915080612b1f81614e14565b915050612abb565b86604001516003811115612b3d57612b3d61403d565b15612b8657612b50600360008488613085565b612b5a9083614dfc565b91506000612b6b8860400151612f4a565b9050612b78818488613173565b612b829084614dfc565b9250505b612b94600460028488613085565b612b9e9083614dfc565b9150612baf87606001518387613180565b612bb99083614dfc565b915086608001516001600160401b0316600014612c0657612bde600560008488613085565b612be89083614dfc565b9150612bf9876080015183876131e2565b612c039083614dfc565b91505b612c108383614e2f565b979650505050505050565b6000806000612c306129f585600001516131f8565b612c3b906001614dfc565b612c459083614dfc565b9150612c576129f585602001516132a3565b612c62906001614dfc565b612c6c9083614dfc565b9150612c7e6129b7856040015161330a565b612c89906001614dfc565b612c939083614dfc565b9150600090505b836060015151811015612cf757612cce84606001518281518110612cc057612cc0614b9e565b602002602001015151612eb0565b612cd9906001614dfc565b612ce39083614dfc565b915080612cef81614e14565b915050612c9a565b612a48846080015151612eb0565b82516000908390819083906004811115612d2157612d2161403d565b15612d6a57612d34600160008488613085565b612d3e9083614dfc565b91506000612d4f88600001516131f8565b9050612d5c818488613173565b612d669084614dfc565b9250505b86602001516002811115612d8057612d8061403d565b15612dc957612d93600260008488613085565b612d9d9083614dfc565b91506000612dae88602001516132a3565b9050612dbb818488613173565b612dc59084614dfc565b9250505b612dd7600360028488613085565b612de19083614dfc565b9150612df287604001518387613340565b612dfc9083614dfc565b9150866060015151600014612e7c575060005b866060015151811015612e7c57612e2a600460028488613085565b612e349083614dfc565b9150612e5e87606001518281518110612e4f57612e4f614b9e565b602002602001015183876130a5565b612e689083614dfc565b915080612e7481614e14565b915050612e0f565b60808701515115612c0657612e95600560028488613085565b612e9f9083614dfc565b9150612bf9876080015183876130a5565b6000612ebb826133a2565b61086c9083614dfc565b6000806000612ed8846000015151612eb0565b612ee3906001614dfc565b612eed9083614dfc565b9150600090505b836020015151811015612f4357612f1a84602001518281518110612cc057612cc0614b9e565b612f25906001614dfc565b612f2f9083614dfc565b915080612f3b81614e14565b915050612ef4565b5092915050565b600080826003811115612f5f57612f5f61403d565b1415612f6d57506000919050565b6001826003811115612f8157612f8161403d565b1415612f8f57506001919050565b6002826003811115612fa357612fa361403d565b1415612fb157506002919050565b6003826003811115612fc557612fc561403d565b14156102d357506003919050565b6000808260070b1215612fe85750600a919050565b61086c826001600160401b03166133a2565b919050565b600080613010836000015151612eb0565b61301b906001614dfc565b6130259082614dfc565b9050613035836020015151612eb0565b613040906001614dfc565b61304a9082614dfc565b905061305c6129b784604001516133bf565b613067906001614dfc565b6110659082614dfc565b600061086c826001600160401b03166133a2565b600060088502600785161761309b8185856133d0565b9695505050505050565b6000612a5d848484613413565b60008280826130c087612ec5565b6001600160401b038111156130d7576130d7613b0e565b6040519080825280601f01601f191660200182016040528015613101576020820181803683370190505b509050808560006131148a60208561345e565b905061312181868a6133d0565b61312b9086614dfc565b945061314b61313b846020614dfc565b6131458785614dfc565b83613511565b6131558186614dfc565b9450606093506131658686614e2f565b9a9950505050505050505050565b6000612a5d848484613583565b600082808261318e87612fff565b6001600160401b038111156131a5576131a5613b0e565b6040519080825280601f01601f1916602001820160405280156131cf576020820181803683370190505b509050808560006131148a6020856135a3565b6000612a5d846001600160401b031684846133d0565b60008082600481111561320d5761320d61403d565b141561321b57506000919050565b600182600481111561322f5761322f61403d565b141561323d57506001919050565b60028260048111156132515761325161403d565b141561325f57506002919050565b60038260048111156132735761327361403d565b141561328157506003919050565b60048260048111156132955761329561403d565b14156102d357506004919050565b6000808260028111156132b8576132b861403d565b14156132c657506000919050565b60018260028111156132da576132da61403d565b14156132e857506001919050565b60028260028111156132fc576132fc61403d565b14156102d357506002919050565b60008061331b836000015151612eb0565b613326906001614dfc565b6133309082614dfc565b905061305c836020015151612eb0565b600082808261334e8761330a565b6001600160401b0381111561336557613365613b0e565b6040519080825280601f01601f19166020018201604052801561338f576020820181803683370190505b509050808560006131148a602085613667565b60071c600060015b821561086c5760079290921c916001016133aa565b60008061305c836000015151612eb0565b600080828401607f86165b600787901c15613403578060801782535060079590951c9460019182019101607f86166133db565b8082535050600101949350505050565b8251600090816134248286866133d0565b905060008186018501602088015b8483101561345157805160001a82536001928301929182019101613432565b50612c1090508183614dfc565b825151600090839081908390156134a55761347d600160028488613085565b6134879083614dfc565b9150613498876000015183876130a5565b6134a29083614dfc565b91505b60208701515115612c06575060005b866020015151811015612c06576134ce6002808488613085565b6134d89083614dfc565b91506134f387602001518281518110612e4f57612e4f614b9e565b6134fd9083614dfc565b91508061350981614e14565b9150506134b4565b602081111561354a5782518252613529602083614dfc565b9150613536602084614dfc565b9250613543602082614e2f565b9050613511565b60006001613559836020614e2f565b61356590610100614f2a565b61356f9190614e2f565b935183518516941916939093179091525050565b60008361359a6001600160401b03821685856133d0565b95945050505050565b82515160009083908190156135e8576135c0600160028387613085565b6135ca9082614dfc565b90506135db866000015182866130a5565b6135e59082614dfc565b90505b60208601515115613628576136006002808387613085565b61360a9082614dfc565b905061361b866020015182866130a5565b6136259082614dfc565b90505b613636600360028387613085565b6136409082614dfc565b9050613651866040015182866136e9565b61365b9082614dfc565b905061309b8282614e2f565b82515160009083908190156136ac57613684600160028387613085565b61368e9082614dfc565b905061369f866000015182866130a5565b6136a99082614dfc565b90505b602086015151156136df576136c46002808387613085565b6136ce9082614dfc565b9050613651866020015182866130a5565b61309b8282614e2f565b60008280826136f7876133bf565b6001600160401b0381111561370e5761370e613b0e565b6040519080825280601f01601f191660200182016040528015613738576020820181803683370190505b5090506000819050600086905060006131148a60208682515160009083908190156136df5761376b600160028387613085565b6137759082614dfc565b905061365186600001518286613413565b82805461379290614b63565b90600052602060002090601f0160209004810192826137b457600085556137fa565b82601f106137cd5782800160ff198235161785556137fa565b828001600101855582156137fa579182015b828111156137fa5782358255916020019190600101906137df565b50613806929150613979565b5090565b6040805160a081018252606080825260208201529081016000815260200161383061398e565b8152600060209091015290565b82805461384990614b63565b90600052602060002090601f01602090048101928261386b57600085556137fa565b82601f1061388457805160ff19168380011785556137fa565b828001600101855582156137fa579182015b828111156137fa578251825591602001919060010190613896565b50805460008255600202906000526020600020908101906138d291906139c2565b50565b828054828255906000526020600020908101928215613922579160200282015b82811115613922578251805161391291849160209091019061383d565b50916020019190600101906138f5565b506138069291506139ed565b6040805160a08101909152806000815260200160008152602001613965604051806040016040528060608152602001606081525090565b815260200160608152602001606081525090565b5b80821115613806576000815560010161397a565b604051806060016040528060608152602001606081526020016139bd6040518060200160405280606081525090565b905290565b808211156138065760006139d68282613a0a565b6139e4600183016000613a44565b506002016139c2565b80821115613806576000613a018282613a0a565b506001016139ed565b508054613a1690614b63565b6000825580601f10613a26575050565b601f0160209004906000526020600020908101906138d29190613979565b50805460008255906000526020600020908101906138d291906139ed565b60008083601f840112613a7457600080fd5b5081356001600160401b03811115613a8b57600080fd5b602083019150836020828501011115610fa457600080fd5b60008060008060408587031215613ab957600080fd5b84356001600160401b0380821115613ad057600080fd5b613adc88838901613a62565b90965094506020870135915080821115613af557600080fd5b50613b0287828801613a62565b95989497509550505050565b634e487b7160e01b600052604160045260246000fd5b604080519081016001600160401b0381118282101715613b4657613b46613b0e565b60405290565b60405161010081016001600160401b0381118282101715613b4657613b46613b0e565b604051606081016001600160401b0381118282101715613b4657613b46613b0e565b604051602081016001600160401b0381118282101715613b4657613b46613b0e565b60405160a081016001600160401b0381118282101715613b4657613b46613b0e565b604051601f8201601f191681016001600160401b0381118282101715613bfd57613bfd613b0e565b604052919050565b80356001600160401b0381168114612ffa57600080fd5b600082601f830112613c2d57600080fd5b81356001600160401b03811115613c4657613c46613b0e565b613c59601f8201601f1916602001613bd5565b818152846020838601011115613c6e57600080fd5b816020850160208301376000918101602001919091529392505050565b600060408284031215613c9d57600080fd5b613ca5613b24565b9050613cb082613c05565b8152613cbe60208301613c05565b602082015292915050565b60006101208284031215613cdc57600080fd5b613ce4613b4c565b9050613cef82613c05565b815260208201356001600160401b0380821115613d0b57600080fd5b613d1785838601613c1c565b60208401526040840135915080821115613d3057600080fd5b613d3c85838601613c1c565b60408401526060840135915080821115613d5557600080fd5b613d6185838601613c1c565b60608401526080840135915080821115613d7a57600080fd5b613d8685838601613c1c565b608084015260a0840135915080821115613d9f57600080fd5b50613dac84828501613c1c565b60a083015250613dbf8360c08401613c8b565b60c0820152613dd16101008301613c05565b60e082015292915050565b600060208284031215613dee57600080fd5b81356001600160401b03811115613e0457600080fd5b612a5d84828501613cc9565b80356001600160a01b0381168114612ffa57600080fd5b600060208284031215613e3957600080fd5b61106582613e10565b60008060008060608587031215613e5857600080fd5b84356001600160401b03811115613e6e57600080fd5b613e7a87828801613a62565b9095509350613e8d905060208601613c05565b9396929550929360400135925050565b60008060208385031215613eb057600080fd5b82356001600160401b03811115613ec657600080fd5b613ed285828601613a62565b90969095509350505050565b60005b83811015613ef9578181015183820152602001613ee1565b83811115613f08576000848401525b50505050565b60008151808452613f26816020860160208601613ede565b601f01601f19169290920160200192915050565b6020815260006110656020830184613f0e565b600080600080600060608688031215613f6557600080fd5b85356001600160401b0380821115613f7c57600080fd5b613f8889838a01613a62565b90975095506020880135915080821115613fa157600080fd5b50613fae88828901613a62565b9094509250613fc1905060408701613c05565b90509295509295909350565b600060208284031215613fdf57600080fd5b61106582613c05565b600081518084526020808501808196508360051b8101915082860160005b8581101561403057828403895261401e848351613f0e565b98850198935090840190600101614006565b5091979650505050505050565b634e487b7160e01b600052602160045260246000fd5b600481106140635761406361403d565b9052565b600081516060845261407c6060850182613f0e565b9050602083015184820360208601526140958282613f0e565b91505060408301518482036040860152805190506020825261359a6020830182613f0e565b60006040808352845160a0828501526140d660e0850182613f0e565b9050602080870151603f19808785030160608801528382518086528486019150848160051b870101858501945060005b8281101561415657878203601f19018452855180518a845261412a8b850182613f0e565b91890151848303858b01529190506141428183613fe8565b978901979589019593505050600101614106565b50968b01519661416960808b0189614053565b60608c01519750838a82030160a08b01526141848189614067565b97505050505050608087015191506141a760c08601836001600160401b03169052565b8293506141b78186018715159052565b5050509392505050565b6000806000604084860312156141d657600080fd5b83356001600160401b038111156141ec57600080fd5b6141f886828701613a62565b909450925061420b905060208501613e10565b90509250925092565b60006001600160401b0382111561422d5761422d613b0e565b5060051b60200190565b600082601f83011261424857600080fd5b8135602061425d61425883614214565b613bd5565b82815260059290921b8401810191818101908684111561427c57600080fd5b8286015b848110156142bb5780356001600160401b0381111561429f5760008081fd5b6142ad8986838b0101613c1c565b845250918301918301614280565b509695505050505050565b600082601f8301126142d757600080fd5b813560206142e761425883614214565b82815260059290921b8401810191818101908684111561430657600080fd5b8286015b848110156142bb5780356001600160401b038082111561432a5760008081fd5b908801906040828b03601f19018113156143445760008081fd5b61434c613b24565b878401358381111561435e5760008081fd5b61436c8d8a83880101613c1c565b8252509083013590828211156143825760008081fd5b6143908c8984870101614237565b81890152865250505091830191830161430a565b803560048110612ffa57600080fd5b6000606082840312156143c557600080fd5b6143cd613b6f565b905081356001600160401b03808211156143e657600080fd5b6143f285838601613c1c565b8352602084013591508082111561440857600080fd5b61441485838601613c1c565b6020840152604084013591508082111561442d57600080fd5b908301906020828603121561444157600080fd5b614449613b91565b82358281111561445857600080fd5b61446487828601613c1c565b825250604084015250909392505050565b6000806040838503121561448857600080fd5b82356001600160401b038082111561449f57600080fd5b6144ab86838701613c1c565b935060208501359150808211156144c157600080fd5b9084019060a082870312156144d557600080fd5b6144dd613bb3565b8235828111156144ec57600080fd5b6144f888828601613c1c565b82525060208301358281111561450d57600080fd5b614519888286016142c6565b60208301525061452b604084016143a4565b604082015260608301358281111561454257600080fd5b61454e888286016143b3565b60608301525061456060808401613c05565b60808201528093505050509250929050565b60008060006040848603121561458757600080fd5b83356001600160401b0381111561459d57600080fd5b6145a986828701613a62565b909450925061420b905060208501613c05565b6040815260008351600581106145d4576145d461403d565b60408301526020840151600381106145ee576145ee61403d565b80606084015250604084015160a060808401528051604060e0850152614618610120850182613f0e565b90506020820151915060df19848203016101008501526146388183613f0e565b9150506060850151603f19808584030160a08601526146578383613fe8565b925060808701519150808584030160c0860152506146758282613f0e565b92505050611065602083018415159052565b803560058110612ffa57600080fd5b803560038110612ffa57600080fd5b6000604082840312156146b757600080fd5b6146bf613b24565b905081356001600160401b03808211156146d857600080fd5b6146e485838601613c1c565b835260208401359150808211156146fa57600080fd5b5061470784828501613c1c565b60208301525092915050565b60008060006060848603121561472857600080fd5b83356001600160401b038082111561473f57600080fd5b61474b87838801613c1c565b9450602086013591508082111561476157600080fd5b61476d87838801613c1c565b9350604086013591508082111561478357600080fd5b9085019060a0828803121561479757600080fd5b61479f613bb3565b6147a883614687565b81526147b660208401614696565b60208201526040830135828111156147cd57600080fd5b6147d9898286016146a5565b6040830152506060830135828111156147f157600080fd5b6147fd89828601614237565b60608301525060808301358281111561481557600080fd5b61482189828601613c1c565b6080830152508093505050509250925092565b6040815260006148476040830185613f0e565b905082151560208301529392505050565b60006020828403121561486a57600080fd5b81356001600160401b0381111561488057600080fd5b612a5d84828501613c1c565b600080600080608085870312156148a257600080fd5b84356001600160401b03808211156148b957600080fd5b6148c588838901613c1c565b955060208701359150808211156148db57600080fd5b6148e788838901613c1c565b94506148f560408801613c05565b9350606087013591508082111561490b57600080fd5b5061491887828801613cc9565b91505092959194509250565b60008060008060008060006080888a03121561493f57600080fd5b87356001600160401b038082111561495657600080fd5b6149628b838c01613a62565b909950975060208a013591508082111561497b57600080fd5b6149878b838c01613a62565b909750955085915061499b60408b01613c05565b945060608a01359150808211156149b157600080fd5b506149be8a828b01613a62565b989b979a50959850939692959293505050565b6000806000806000606086880312156149e957600080fd5b85356001600160401b0380821115614a0057600080fd5b614a0c89838a01613a62565b9097509550859150614a2060208901613c05565b94506040880135915080821115614a3657600080fd5b50614a4388828901613a62565b969995985093965092949392505050565b8183823760009101908152919050565b81835281816020850137506000828201602090810191909152601f909101601f19169091010190565b602081526000612a5d602083018486614a64565b600060208284031215614ab357600080fd5b5051919050565b60008251614acc818460208701613ede565b9190910192915050565b828482376000838201600081527f2d0000000000000000000000000000000000000000000000000000000000000081528351614b19816001840160208801613ede565b0160010195945050505050565b634e487b7160e01b600052601160045260246000fd5b60006001600160401b0380831681811415614b5957614b59614b26565b6001019392505050565b600181811c90821680614b7757607f821691505b60208210811415614b9857634e487b7160e01b600052602260045260246000fd5b50919050565b634e487b7160e01b600052603260045260246000fd5b600063ffffffff80831681811415614b5957614b59614b26565b600060ff821660ff811415614be557614be5614b26565b60010192915050565b604081526000614c016040830185613f0e565b828103602084015261359a8185613f0e565b7f6368616e6e656c2d000000000000000000000000000000000000000000000000815260008251614c4b816008850160208701613ede565b9190910160080192915050565b606081526000614c6c606083018789614a64565b8281036020840152614c7f818688614a64565b9150506001600160401b03831660408301529695505050505050565b606081526000614cae6060830186613f0e565b8281036020840152614cc08186613f0e565b9150506001600160401b0383166040830152949350505050565b7f636f6e6e656374696f6e2d000000000000000000000000000000000000000000815260008251614d1281600b850160208701613ede565b91909101600b0192915050565b604081526000614d33604083018587614a64565b90506001600160401b0383166020830152949350505050565b60006001600160401b0380841680614d7457634e487b7160e01b600052601260045260246000fd5b92169190910492915050565b60006001600160401b0383811690831681811015614da057614da0614b26565b039392505050565b60006001600160401b0380831681851681830481118215151615614dce57614dce614b26565b02949350505050565b600060ff821660ff84168060ff03821115614df457614df4614b26565b019392505050565b60008219821115614e0f57614e0f614b26565b500190565b6000600019821415614e2857614e28614b26565b5060010190565b600082821015614e4157614e41614b26565b500390565b600181815b80851115614e81578160001904821115614e6757614e67614b26565b80851615614e7457918102915b93841c9390800290614e4b565b509250929050565b600082614e985750600161086c565b81614ea55750600061086c565b8160018114614ebb5760028114614ec557614ee1565b600191505061086c565b60ff841115614ed657614ed6614b26565b50506001821b61086c565b5060208310610133831016604e8410600b8410161715614f04575081810a61086c565b614f0e8383614e46565b8060001904821115614f2257614f22614b26565b029392505050565b60006110658383614e8956fea2646970667358221220b84ce5212c7cca673c20e82eb485a5221d28485473255306c4050ab8f1f38d3264736f6c634300080a0033",
  "immutableReferences": {},
  "source": "pragma solidity ^0.8.9;\n\nimport \"./types/Connection.sol\";\nimport \"./types/Channel.sol\";\nimport \"./IBCIdentifier.sol\";\n\ncontract IBCHost {\n    // Commitments\n    mapping (bytes32 => bytes32) commitments;\n\n    // Store\n    mapping (string => address) clientRegistry; // clientType => clientImpl\n    mapping (string => string) clientTypes; // clientID => clientType\n    mapping (string => bytes) clientStates;\n    mapping (string => mapping(uint64 => bytes)) consensusStates;\n    mapping (string => mapping(uint64 => uint256)) processedTimes;\n    mapping (string => mapping(uint64 => uint256)) processedHeights;\n    mapping (string => ConnectionEnd.Data) connections;\n    mapping (string => mapping(string => Channel.Data)) channels;\n    mapping (string => mapping(string => uint64)) nextSequenceSends;\n    mapping (string => mapping(string => uint64)) nextSequenceRecvs;\n    mapping (string => mapping(string => uint64)) nextSequenceAcks;\n    mapping (string => mapping(string => mapping(uint64 => bool))) packetReceipts;\n    mapping (bytes => address[]) capabilities;\n    uint64 nextClientSequence;\n    uint64 nextConnectionSequence;\n    uint64 nextChannelSequence;\n\n    event GeneratedClientIdentifier(string);\n    event GeneratedConnectionIdentifier(string);\n    event GeneratedChannelIdentifier(string);\n\n    address owner;\n    address ibcModule;\n\n    uint64 expectedTimePerBlock;\n\n    constructor() public {\n        owner = msg.sender;\n    }\n\n    function setIBCModule(address ibcModule_) external {\n        require(msg.sender == owner);\n        ibcModule = ibcModule_;\n    }\n\n    function onlyIBCModule() public view {\n        require(msg.sender == ibcModule);\n    }\n\n    /// Storage accessor ///\n\n    // Client implementation registry\n\n    function setClientImpl(string calldata clientType, address clientImpl) external {\n        onlyIBCModule();\n        require(address(clientRegistry[clientType]) == address(0), \"clientImpl already exists\");\n        clientRegistry[clientType] = clientImpl;\n    }\n\n    function getClientImpl(string calldata clientType) external view returns (address, bool) {\n        return (clientRegistry[clientType], clientRegistry[clientType] != address(0));\n    }\n\n    // Client types\n\n    function setClientType(string calldata clientId, string calldata clientType) external {\n        onlyIBCModule();\n        require(bytes(clientTypes[clientId]).length == 0, \"clientId already exists\");\n        require(bytes(clientType).length > 0, \"clientType must not be empty string\");\n        clientTypes[clientId] = clientType;\n    }\n\n    function getClientType(string calldata clientId) external view returns (string memory) {\n        return clientTypes[clientId];\n    }\n\n    // ClientState\n\n    function setClientState(string calldata clientId, bytes calldata clientStateBytes) external {\n        onlyIBCModule();\n        clientStates[clientId] = clientStateBytes;\n        commitments[IBCIdentifier.clientCommitmentKey(clientId)] = keccak256(clientStateBytes);\n    }\n\n    function getClientState(string calldata clientId) external view returns (bytes memory, bool) {\n        return (clientStates[clientId], clientStates[clientId].length > 0);\n    }\n\n    // ConsensusState\n\n    function setConsensusState(string calldata clientId, uint64 height, bytes calldata consensusStateBytes) external {\n        onlyIBCModule();\n        consensusStates[clientId][height] = consensusStateBytes;\n        commitments[IBCIdentifier.consensusCommitmentKey(clientId, height)] = keccak256(consensusStateBytes);\n    }\n\n    function getConsensusState(string calldata clientId, uint64 height) external view returns (bytes memory, bool) {\n        return (consensusStates[clientId][height], consensusStates[clientId][height].length > 0);\n    }\n\n    // Processed Time/Block\n\n    function setProcessedTime(string calldata clientId, uint64 height, uint256 processedTime) external {\n        onlyIBCModule();\n        processedTimes[clientId][height] = processedTime;\n    }\n\n    function getProcessedTime(string calldata clientId, uint64 height) external view returns (uint256, bool) {\n        uint256 processedTime = processedTimes[clientId][height];\n        return (processedTime, processedTime != 0);\n    }\n\n    function setProcessedHeight(string calldata clientId, uint64 height, uint256 processedHeight) external {\n        onlyIBCModule();\n        processedHeights[clientId][height] = processedHeight;\n    }\n\n    function getProcessedHeight(string calldata clientId, uint64 height) external view returns (uint256, bool) {\n        uint256 processedHeight = processedHeights[clientId][height];\n        return (processedHeight, processedHeight != 0);\n    }\n\n    // Connection\n\n    function setConnection(string memory connectionId, ConnectionEnd.Data memory connection) public {\n        onlyIBCModule();\n        connections[connectionId].client_id = connection.client_id;\n        connections[connectionId].state = connection.state;\n        connections[connectionId].delay_period = connection.delay_period;\n        delete connections[connectionId].versions;\n        for (uint8 i = 0; i < connection.versions.length; i++) {\n            connections[connectionId].versions.push(connection.versions[i]);\n        }\n        connections[connectionId].counterparty = connection.counterparty;\n        commitments[IBCIdentifier.connectionCommitmentKey(connectionId)] = keccak256(ConnectionEnd.encode(connection));\n    }\n\n    function getConnection(string calldata connectionId) external view returns (ConnectionEnd.Data memory connection, bool) {\n        return (connections[connectionId], connections[connectionId].state != ConnectionEnd.State.STATE_UNINITIALIZED_UNSPECIFIED);\n    }\n\n    // Channel\n\n    function setChannel(string memory portId, string memory channelId, Channel.Data memory channel) public {\n        onlyIBCModule();\n        channels[portId][channelId] = channel;\n        commitments[IBCIdentifier.channelCommitmentKey(portId, channelId)] = keccak256(Channel.encode(channel));\n    }\n\n    function getChannel(string calldata portId, string calldata channelId) external view returns (Channel.Data memory channel, bool) {\n        return (channels[portId][channelId], channels[portId][channelId].state != Channel.State.STATE_UNINITIALIZED_UNSPECIFIED);\n    }\n\n    // Packet\n\n    function setNextSequenceSend(string calldata portId, string calldata channelId, uint64 sequence) external {\n        onlyIBCModule();\n        nextSequenceSends[portId][channelId] = sequence;\n    }\n\n    function getNextSequenceSend(string calldata portId, string calldata channelId) external view returns (uint64) {\n        return nextSequenceSends[portId][channelId];\n    }\n\n    function setNextSequenceRecv(string calldata portId, string calldata channelId, uint64 sequence) external {\n        onlyIBCModule();\n        nextSequenceRecvs[portId][channelId] = sequence;\n    }\n\n    function getNextSequenceRecv(string calldata portId, string calldata channelId) external view returns (uint64) {\n        return nextSequenceRecvs[portId][channelId];\n    }\n\n    function setNextSequenceAck(string calldata portId, string calldata channelId, uint64 sequence) external {\n        onlyIBCModule();\n        nextSequenceAcks[portId][channelId] = sequence;\n    }\n\n    function getNextSequenceAck(string calldata portId, string calldata channelId) external view returns (uint64) {\n        return nextSequenceAcks[portId][channelId];\n    }\n\n    function setPacketCommitment(string memory portId, string memory channelId, uint64 sequence, Packet.Data memory packet) public {\n        onlyIBCModule();\n        commitments[IBCIdentifier.packetCommitmentKey(portId, channelId, sequence)] = makePacketCommitment(packet);\n    }\n\n    function deletePacketCommitment(string calldata portId, string calldata channelId, uint64 sequence) external {\n        onlyIBCModule();\n        delete commitments[IBCIdentifier.packetCommitmentKey(portId, channelId, sequence)];\n    }\n\n    function getPacketCommitment(string calldata portId, string calldata channelId, uint64 sequence) external view returns (bytes32, bool) {\n        bytes32 commitment = commitments[IBCIdentifier.packetCommitmentKey(portId, channelId, sequence)];\n        return (commitment, commitment != bytes32(0));\n    }\n\n    function makePacketCommitment(Packet.Data memory packet) public pure returns (bytes32) {\n        // TODO serialize uint64 to bytes(big-endian)\n        return sha256(abi.encodePacked(packet.timeout_timestamp, packet.timeout_height.revision_number, packet.timeout_height.revision_height, sha256(packet.data)));\n    }\n\n    function setPacketAcknowledgementCommitment(string calldata portId, string calldata channelId, uint64 sequence, bytes calldata acknowledgement) external {\n        onlyIBCModule();\n        commitments[IBCIdentifier.packetAcknowledgementCommitmentKey(portId, channelId, sequence)] = makePacketAcknowledgementCommitment(acknowledgement);\n    }\n\n    function getPacketAcknowledgementCommitment(string calldata portId, string calldata channelId, uint64 sequence) external view returns (bytes32, bool) {\n        bytes32 commitment = commitments[IBCIdentifier.packetAcknowledgementCommitmentKey(portId, channelId, sequence)];\n        return (commitment, commitment != bytes32(0));\n    }\n\n    function makePacketAcknowledgementCommitment(bytes memory acknowledgement) public pure returns (bytes32) {\n        return sha256(acknowledgement);\n    }\n\n    function setPacketReceipt(string calldata portId, string calldata channelId, uint64 sequence) external {\n        onlyIBCModule();\n        packetReceipts[portId][channelId][sequence] = true;\n    }\n\n    function hasPacketReceipt(string calldata portId, string calldata channelId, uint64 sequence) external view returns (bool) {\n        return packetReceipts[portId][channelId][sequence];\n    }\n\n    function getExpectedTimePerBlock() external view returns (uint64) {\n        return expectedTimePerBlock;\n    }\n\n    function setExpectedTimePerBlock(uint64 expectedTimePerBlock_) external {\n        onlyIBCModule();\n        expectedTimePerBlock = expectedTimePerBlock_;\n    }\n\n    // capabilities\n\n    function claimCapability(bytes calldata name, address addr) external {\n        onlyIBCModule();\n        for (uint32 i = 0; i < capabilities[name].length; i++) {\n            require(capabilities[name][i] != addr);\n        }\n        capabilities[name].push(addr);\n    }\n\n    function authenticateCapability(bytes calldata name, address addr) external view returns (bool) {\n        onlyIBCModule();\n        for (uint32 i = 0; i < capabilities[name].length; i++) {\n            if (capabilities[name][i] == addr) {\n                return true;\n            }\n        }\n        return false;\n    }\n\n    function getModuleOwner(bytes calldata name) external view returns (address, bool) {\n        if (capabilities[name].length == 0) {\n            return (address(0), false);\n        }\n        return (capabilities[name][0], true);\n    }\n\n    /// Identifier generators ///\n\n    function generateClientIdentifier(string calldata clientType) external returns (string memory) {\n        onlyIBCModule();\n        string memory identifier = string(abi.encodePacked(clientType, \"-\", uint2str(nextClientSequence)));\n        nextClientSequence++;\n        emit GeneratedClientIdentifier(identifier);\n        return identifier;\n    }\n\n    function generateConnectionIdentifier() external returns (string memory) {\n        onlyIBCModule();\n        string memory identifier = string(abi.encodePacked(\"connection-\", uint2str(nextConnectionSequence)));\n        nextConnectionSequence++;\n        emit GeneratedConnectionIdentifier(identifier);\n        return identifier;\n    }\n\n    function generateChannelIdentifier() external returns (string memory) {\n        onlyIBCModule();\n        string memory identifier = string(abi.encodePacked(\"channel-\", uint2str(nextChannelSequence)));\n        nextChannelSequence++;\n        emit GeneratedChannelIdentifier(identifier);\n        return identifier;\n    }\n\n    function uint2str(uint64 _i) internal pure returns (string memory _uintAsString) {\n        if (_i == 0) {\n            return \"0\";\n        }\n        uint64 j = _i;\n        uint64 len;\n        while (j != 0) {\n            len++;\n            j /= 10;\n        }\n        bytes memory bstr = new bytes(len);\n        uint64 k = len;\n        while (_i != 0) {\n            k = k-1;\n            uint8 temp = (48 + uint8(_i - _i / 10 * 10));\n            bytes1 b1 = bytes1(temp);\n            bstr[k] = b1;\n            _i /= 10;\n        }\n        return string(bstr);\n    }\n}\n",
  "sourcePath": "/home/dallant/Code/ancon-protocol/ethereum/contracts/yui-ibc-solidity/core/IBCHost.sol",
  "compiler": {
    "name": "solc",
    "version": "0.8.10+commit.fc410830.Emscripten.clang"
  },
  "schemaVersion": "3.4.3",
  "updatedAt": "2021-11-09T21:15:59.066Z",
  "devdoc": {
    "kind": "dev",
    "methods": {},
    "version": 1
  },
  "userdoc": {
    "kind": "user",
    "methods": {
      "generateClientIdentifier(string)": {
        "notice": "Identifier generators ///"
      },
      "setClientImpl(string,address)": {
        "notice": "Storage accessor ///"
      }
    },
    "version": 1
  }
}