{
  "contractName": "IBCHost",
  "abi": [
    {
      "inputs": [],
      "stateMutability": "nonpayable",
      "type": "constructor"
    },
    {
      "anonymous": false,
      "inputs": [
        {
          "indexed": false,
          "internalType": "string",
          "name": "",
          "type": "string"
        }
      ],
      "name": "GeneratedChannelIdentifier",
      "type": "event"
    },
    {
      "anonymous": false,
      "inputs": [
        {
          "indexed": false,
          "internalType": "string",
          "name": "",
          "type": "string"
        }
      ],
      "name": "GeneratedClientIdentifier",
      "type": "event"
    },
    {
      "anonymous": false,
      "inputs": [
        {
          "indexed": false,
          "internalType": "string",
          "name": "",
          "type": "string"
        }
      ],
      "name": "GeneratedConnectionIdentifier",
      "type": "event"
    },
    {
      "inputs": [
        {
          "internalType": "address",
          "name": "ibcModule_",
          "type": "address"
        }
      ],
      "name": "setIBCModule",
      "outputs": [],
      "stateMutability": "nonpayable",
      "type": "function"
    },
    {
      "inputs": [],
      "name": "onlyIBCModule",
      "outputs": [],
      "stateMutability": "view",
      "type": "function",
      "constant": true
    },
    {
      "inputs": [
        {
          "internalType": "string",
          "name": "clientType",
          "type": "string"
        },
        {
          "internalType": "address",
          "name": "clientImpl",
          "type": "address"
        }
      ],
      "name": "setClientImpl",
      "outputs": [],
      "stateMutability": "nonpayable",
      "type": "function"
    },
    {
      "inputs": [
        {
          "internalType": "string",
          "name": "clientType",
          "type": "string"
        }
      ],
      "name": "getClientImpl",
      "outputs": [
        {
          "internalType": "address",
          "name": "",
          "type": "address"
        },
        {
          "internalType": "bool",
          "name": "",
          "type": "bool"
        }
      ],
      "stateMutability": "view",
      "type": "function",
      "constant": true
    },
    {
      "inputs": [
        {
          "internalType": "string",
          "name": "clientId",
          "type": "string"
        },
        {
          "internalType": "string",
          "name": "clientType",
          "type": "string"
        }
      ],
      "name": "setClientType",
      "outputs": [],
      "stateMutability": "nonpayable",
      "type": "function"
    },
    {
      "inputs": [
        {
          "internalType": "string",
          "name": "clientId",
          "type": "string"
        }
      ],
      "name": "getClientType",
      "outputs": [
        {
          "internalType": "string",
          "name": "",
          "type": "string"
        }
      ],
      "stateMutability": "view",
      "type": "function",
      "constant": true
    },
    {
      "inputs": [
        {
          "internalType": "string",
          "name": "clientId",
          "type": "string"
        },
        {
          "internalType": "bytes",
          "name": "clientStateBytes",
          "type": "bytes"
        }
      ],
      "name": "setClientState",
      "outputs": [],
      "stateMutability": "nonpayable",
      "type": "function"
    },
    {
      "inputs": [
        {
          "internalType": "string",
          "name": "clientId",
          "type": "string"
        }
      ],
      "name": "getClientState",
      "outputs": [
        {
          "internalType": "bytes",
          "name": "",
          "type": "bytes"
        },
        {
          "internalType": "bool",
          "name": "",
          "type": "bool"
        }
      ],
      "stateMutability": "view",
      "type": "function",
      "constant": true
    },
    {
      "inputs": [
        {
          "internalType": "string",
          "name": "clientId",
          "type": "string"
        },
        {
          "internalType": "uint64",
          "name": "height",
          "type": "uint64"
        },
        {
          "internalType": "bytes",
          "name": "consensusStateBytes",
          "type": "bytes"
        }
      ],
      "name": "setConsensusState",
      "outputs": [],
      "stateMutability": "nonpayable",
      "type": "function"
    },
    {
      "inputs": [
        {
          "internalType": "string",
          "name": "clientId",
          "type": "string"
        },
        {
          "internalType": "uint64",
          "name": "height",
          "type": "uint64"
        }
      ],
      "name": "getConsensusState",
      "outputs": [
        {
          "internalType": "bytes",
          "name": "",
          "type": "bytes"
        },
        {
          "internalType": "bool",
          "name": "",
          "type": "bool"
        }
      ],
      "stateMutability": "view",
      "type": "function",
      "constant": true
    },
    {
      "inputs": [
        {
          "internalType": "string",
          "name": "clientId",
          "type": "string"
        },
        {
          "internalType": "uint64",
          "name": "height",
          "type": "uint64"
        },
        {
          "internalType": "uint256",
          "name": "processedTime",
          "type": "uint256"
        }
      ],
      "name": "setProcessedTime",
      "outputs": [],
      "stateMutability": "nonpayable",
      "type": "function"
    },
    {
      "inputs": [
        {
          "internalType": "string",
          "name": "clientId",
          "type": "string"
        },
        {
          "internalType": "uint64",
          "name": "height",
          "type": "uint64"
        }
      ],
      "name": "getProcessedTime",
      "outputs": [
        {
          "internalType": "uint256",
          "name": "",
          "type": "uint256"
        },
        {
          "internalType": "bool",
          "name": "",
          "type": "bool"
        }
      ],
      "stateMutability": "view",
      "type": "function",
      "constant": true
    },
    {
      "inputs": [
        {
          "internalType": "string",
          "name": "clientId",
          "type": "string"
        },
        {
          "internalType": "uint64",
          "name": "height",
          "type": "uint64"
        },
        {
          "internalType": "uint256",
          "name": "processedHeight",
          "type": "uint256"
        }
      ],
      "name": "setProcessedHeight",
      "outputs": [],
      "stateMutability": "nonpayable",
      "type": "function"
    },
    {
      "inputs": [
        {
          "internalType": "string",
          "name": "clientId",
          "type": "string"
        },
        {
          "internalType": "uint64",
          "name": "height",
          "type": "uint64"
        }
      ],
      "name": "getProcessedHeight",
      "outputs": [
        {
          "internalType": "uint256",
          "name": "",
          "type": "uint256"
        },
        {
          "internalType": "bool",
          "name": "",
          "type": "bool"
        }
      ],
      "stateMutability": "view",
      "type": "function",
      "constant": true
    },
    {
      "inputs": [
        {
          "internalType": "string",
          "name": "connectionId",
          "type": "string"
        },
        {
          "components": [
            {
              "internalType": "string",
              "name": "client_id",
              "type": "string"
            },
            {
              "components": [
                {
                  "internalType": "string",
                  "name": "identifier",
                  "type": "string"
                },
                {
                  "internalType": "string[]",
                  "name": "features",
                  "type": "string[]"
                }
              ],
              "internalType": "struct Version.Data[]",
              "name": "versions",
              "type": "tuple[]"
            },
            {
              "internalType": "enum ConnectionEnd.State",
              "name": "state",
              "type": "uint8"
            },
            {
              "components": [
                {
                  "internalType": "string",
                  "name": "client_id",
                  "type": "string"
                },
                {
                  "internalType": "string",
                  "name": "connection_id",
                  "type": "string"
                },
                {
                  "components": [
                    {
                      "internalType": "bytes",
                      "name": "key_prefix",
                      "type": "bytes"
                    }
                  ],
                  "internalType": "struct MerklePrefix.Data",
                  "name": "prefix",
                  "type": "tuple"
                }
              ],
              "internalType": "struct Counterparty.Data",
              "name": "counterparty",
              "type": "tuple"
            },
            {
              "internalType": "uint64",
              "name": "delay_period",
              "type": "uint64"
            }
          ],
          "internalType": "struct ConnectionEnd.Data",
          "name": "connection",
          "type": "tuple"
        }
      ],
      "name": "setConnection",
      "outputs": [],
      "stateMutability": "nonpayable",
      "type": "function"
    },
    {
      "inputs": [
        {
          "internalType": "string",
          "name": "connectionId",
          "type": "string"
        }
      ],
      "name": "getConnection",
      "outputs": [
        {
          "components": [
            {
              "internalType": "string",
              "name": "client_id",
              "type": "string"
            },
            {
              "components": [
                {
                  "internalType": "string",
                  "name": "identifier",
                  "type": "string"
                },
                {
                  "internalType": "string[]",
                  "name": "features",
                  "type": "string[]"
                }
              ],
              "internalType": "struct Version.Data[]",
              "name": "versions",
              "type": "tuple[]"
            },
            {
              "internalType": "enum ConnectionEnd.State",
              "name": "state",
              "type": "uint8"
            },
            {
              "components": [
                {
                  "internalType": "string",
                  "name": "client_id",
                  "type": "string"
                },
                {
                  "internalType": "string",
                  "name": "connection_id",
                  "type": "string"
                },
                {
                  "components": [
                    {
                      "internalType": "bytes",
                      "name": "key_prefix",
                      "type": "bytes"
                    }
                  ],
                  "internalType": "struct MerklePrefix.Data",
                  "name": "prefix",
                  "type": "tuple"
                }
              ],
              "internalType": "struct Counterparty.Data",
              "name": "counterparty",
              "type": "tuple"
            },
            {
              "internalType": "uint64",
              "name": "delay_period",
              "type": "uint64"
            }
          ],
          "internalType": "struct ConnectionEnd.Data",
          "name": "connection",
          "type": "tuple"
        },
        {
          "internalType": "bool",
          "name": "",
          "type": "bool"
        }
      ],
      "stateMutability": "view",
      "type": "function",
      "constant": true
    },
    {
      "inputs": [
        {
          "internalType": "string",
          "name": "portId",
          "type": "string"
        },
        {
          "internalType": "string",
          "name": "channelId",
          "type": "string"
        },
        {
          "components": [
            {
              "internalType": "enum Channel.State",
              "name": "state",
              "type": "uint8"
            },
            {
              "internalType": "enum Channel.Order",
              "name": "ordering",
              "type": "uint8"
            },
            {
              "components": [
                {
                  "internalType": "string",
                  "name": "port_id",
                  "type": "string"
                },
                {
                  "internalType": "string",
                  "name": "channel_id",
                  "type": "string"
                }
              ],
              "internalType": "struct ChannelCounterparty.Data",
              "name": "counterparty",
              "type": "tuple"
            },
            {
              "internalType": "string[]",
              "name": "connection_hops",
              "type": "string[]"
            },
            {
              "internalType": "string",
              "name": "version",
              "type": "string"
            }
          ],
          "internalType": "struct Channel.Data",
          "name": "channel",
          "type": "tuple"
        }
      ],
      "name": "setChannel",
      "outputs": [],
      "stateMutability": "nonpayable",
      "type": "function"
    },
    {
      "inputs": [
        {
          "internalType": "string",
          "name": "portId",
          "type": "string"
        },
        {
          "internalType": "string",
          "name": "channelId",
          "type": "string"
        }
      ],
      "name": "getChannel",
      "outputs": [
        {
          "components": [
            {
              "internalType": "enum Channel.State",
              "name": "state",
              "type": "uint8"
            },
            {
              "internalType": "enum Channel.Order",
              "name": "ordering",
              "type": "uint8"
            },
            {
              "components": [
                {
                  "internalType": "string",
                  "name": "port_id",
                  "type": "string"
                },
                {
                  "internalType": "string",
                  "name": "channel_id",
                  "type": "string"
                }
              ],
              "internalType": "struct ChannelCounterparty.Data",
              "name": "counterparty",
              "type": "tuple"
            },
            {
              "internalType": "string[]",
              "name": "connection_hops",
              "type": "string[]"
            },
            {
              "internalType": "string",
              "name": "version",
              "type": "string"
            }
          ],
          "internalType": "struct Channel.Data",
          "name": "channel",
          "type": "tuple"
        },
        {
          "internalType": "bool",
          "name": "",
          "type": "bool"
        }
      ],
      "stateMutability": "view",
      "type": "function",
      "constant": true
    },
    {
      "inputs": [
        {
          "internalType": "string",
          "name": "portId",
          "type": "string"
        },
        {
          "internalType": "string",
          "name": "channelId",
          "type": "string"
        },
        {
          "internalType": "uint64",
          "name": "sequence",
          "type": "uint64"
        }
      ],
      "name": "setNextSequenceSend",
      "outputs": [],
      "stateMutability": "nonpayable",
      "type": "function"
    },
    {
      "inputs": [
        {
          "internalType": "string",
          "name": "portId",
          "type": "string"
        },
        {
          "internalType": "string",
          "name": "channelId",
          "type": "string"
        }
      ],
      "name": "getNextSequenceSend",
      "outputs": [
        {
          "internalType": "uint64",
          "name": "",
          "type": "uint64"
        }
      ],
      "stateMutability": "view",
      "type": "function",
      "constant": true
    },
    {
      "inputs": [
        {
          "internalType": "string",
          "name": "portId",
          "type": "string"
        },
        {
          "internalType": "string",
          "name": "channelId",
          "type": "string"
        },
        {
          "internalType": "uint64",
          "name": "sequence",
          "type": "uint64"
        }
      ],
      "name": "setNextSequenceRecv",
      "outputs": [],
      "stateMutability": "nonpayable",
      "type": "function"
    },
    {
      "inputs": [
        {
          "internalType": "string",
          "name": "portId",
          "type": "string"
        },
        {
          "internalType": "string",
          "name": "channelId",
          "type": "string"
        }
      ],
      "name": "getNextSequenceRecv",
      "outputs": [
        {
          "internalType": "uint64",
          "name": "",
          "type": "uint64"
        }
      ],
      "stateMutability": "view",
      "type": "function",
      "constant": true
    },
    {
      "inputs": [
        {
          "internalType": "string",
          "name": "portId",
          "type": "string"
        },
        {
          "internalType": "string",
          "name": "channelId",
          "type": "string"
        },
        {
          "internalType": "uint64",
          "name": "sequence",
          "type": "uint64"
        }
      ],
      "name": "setNextSequenceAck",
      "outputs": [],
      "stateMutability": "nonpayable",
      "type": "function"
    },
    {
      "inputs": [
        {
          "internalType": "string",
          "name": "portId",
          "type": "string"
        },
        {
          "internalType": "string",
          "name": "channelId",
          "type": "string"
        }
      ],
      "name": "getNextSequenceAck",
      "outputs": [
        {
          "internalType": "uint64",
          "name": "",
          "type": "uint64"
        }
      ],
      "stateMutability": "view",
      "type": "function",
      "constant": true
    },
    {
      "inputs": [
        {
          "internalType": "string",
          "name": "portId",
          "type": "string"
        },
        {
          "internalType": "string",
          "name": "channelId",
          "type": "string"
        },
        {
          "internalType": "uint64",
          "name": "sequence",
          "type": "uint64"
        },
        {
          "components": [
            {
              "internalType": "uint64",
              "name": "sequence",
              "type": "uint64"
            },
            {
              "internalType": "string",
              "name": "source_port",
              "type": "string"
            },
            {
              "internalType": "string",
              "name": "source_channel",
              "type": "string"
            },
            {
              "internalType": "string",
              "name": "destination_port",
              "type": "string"
            },
            {
              "internalType": "string",
              "name": "destination_channel",
              "type": "string"
            },
            {
              "internalType": "bytes",
              "name": "data",
              "type": "bytes"
            },
            {
              "components": [
                {
                  "internalType": "uint64",
                  "name": "revision_number",
                  "type": "uint64"
                },
                {
                  "internalType": "uint64",
                  "name": "revision_height",
                  "type": "uint64"
                }
              ],
              "internalType": "struct Height.Data",
              "name": "timeout_height",
              "type": "tuple"
            },
            {
              "internalType": "uint64",
              "name": "timeout_timestamp",
              "type": "uint64"
            }
          ],
          "internalType": "struct Packet.Data",
          "name": "packet",
          "type": "tuple"
        }
      ],
      "name": "setPacketCommitment",
      "outputs": [],
      "stateMutability": "nonpayable",
      "type": "function"
    },
    {
      "inputs": [
        {
          "internalType": "string",
          "name": "portId",
          "type": "string"
        },
        {
          "internalType": "string",
          "name": "channelId",
          "type": "string"
        },
        {
          "internalType": "uint64",
          "name": "sequence",
          "type": "uint64"
        }
      ],
      "name": "deletePacketCommitment",
      "outputs": [],
      "stateMutability": "nonpayable",
      "type": "function"
    },
    {
      "inputs": [
        {
          "internalType": "string",
          "name": "portId",
          "type": "string"
        },
        {
          "internalType": "string",
          "name": "channelId",
          "type": "string"
        },
        {
          "internalType": "uint64",
          "name": "sequence",
          "type": "uint64"
        }
      ],
      "name": "getPacketCommitment",
      "outputs": [
        {
          "internalType": "bytes32",
          "name": "",
          "type": "bytes32"
        },
        {
          "internalType": "bool",
          "name": "",
          "type": "bool"
        }
      ],
      "stateMutability": "view",
      "type": "function",
      "constant": true
    },
    {
      "inputs": [
        {
          "components": [
            {
              "internalType": "uint64",
              "name": "sequence",
              "type": "uint64"
            },
            {
              "internalType": "string",
              "name": "source_port",
              "type": "string"
            },
            {
              "internalType": "string",
              "name": "source_channel",
              "type": "string"
            },
            {
              "internalType": "string",
              "name": "destination_port",
              "type": "string"
            },
            {
              "internalType": "string",
              "name": "destination_channel",
              "type": "string"
            },
            {
              "internalType": "bytes",
              "name": "data",
              "type": "bytes"
            },
            {
              "components": [
                {
                  "internalType": "uint64",
                  "name": "revision_number",
                  "type": "uint64"
                },
                {
                  "internalType": "uint64",
                  "name": "revision_height",
                  "type": "uint64"
                }
              ],
              "internalType": "struct Height.Data",
              "name": "timeout_height",
              "type": "tuple"
            },
            {
              "internalType": "uint64",
              "name": "timeout_timestamp",
              "type": "uint64"
            }
          ],
          "internalType": "struct Packet.Data",
          "name": "packet",
          "type": "tuple"
        }
      ],
      "name": "makePacketCommitment",
      "outputs": [
        {
          "internalType": "bytes32",
          "name": "",
          "type": "bytes32"
        }
      ],
      "stateMutability": "pure",
      "type": "function",
      "constant": true
    },
    {
      "inputs": [
        {
          "internalType": "string",
          "name": "portId",
          "type": "string"
        },
        {
          "internalType": "string",
          "name": "channelId",
          "type": "string"
        },
        {
          "internalType": "uint64",
          "name": "sequence",
          "type": "uint64"
        },
        {
          "internalType": "bytes",
          "name": "acknowledgement",
          "type": "bytes"
        }
      ],
      "name": "setPacketAcknowledgementCommitment",
      "outputs": [],
      "stateMutability": "nonpayable",
      "type": "function"
    },
    {
      "inputs": [
        {
          "internalType": "string",
          "name": "portId",
          "type": "string"
        },
        {
          "internalType": "string",
          "name": "channelId",
          "type": "string"
        },
        {
          "internalType": "uint64",
          "name": "sequence",
          "type": "uint64"
        }
      ],
      "name": "getPacketAcknowledgementCommitment",
      "outputs": [
        {
          "internalType": "bytes32",
          "name": "",
          "type": "bytes32"
        },
        {
          "internalType": "bool",
          "name": "",
          "type": "bool"
        }
      ],
      "stateMutability": "view",
      "type": "function",
      "constant": true
    },
    {
      "inputs": [
        {
          "internalType": "bytes",
          "name": "acknowledgement",
          "type": "bytes"
        }
      ],
      "name": "makePacketAcknowledgementCommitment",
      "outputs": [
        {
          "internalType": "bytes32",
          "name": "",
          "type": "bytes32"
        }
      ],
      "stateMutability": "pure",
      "type": "function",
      "constant": true
    },
    {
      "inputs": [
        {
          "internalType": "string",
          "name": "portId",
          "type": "string"
        },
        {
          "internalType": "string",
          "name": "channelId",
          "type": "string"
        },
        {
          "internalType": "uint64",
          "name": "sequence",
          "type": "uint64"
        }
      ],
      "name": "setPacketReceipt",
      "outputs": [],
      "stateMutability": "nonpayable",
      "type": "function"
    },
    {
      "inputs": [
        {
          "internalType": "string",
          "name": "portId",
          "type": "string"
        },
        {
          "internalType": "string",
          "name": "channelId",
          "type": "string"
        },
        {
          "internalType": "uint64",
          "name": "sequence",
          "type": "uint64"
        }
      ],
      "name": "hasPacketReceipt",
      "outputs": [
        {
          "internalType": "bool",
          "name": "",
          "type": "bool"
        }
      ],
      "stateMutability": "view",
      "type": "function",
      "constant": true
    },
    {
      "inputs": [],
      "name": "getExpectedTimePerBlock",
      "outputs": [
        {
          "internalType": "uint64",
          "name": "",
          "type": "uint64"
        }
      ],
      "stateMutability": "view",
      "type": "function",
      "constant": true
    },
    {
      "inputs": [
        {
          "internalType": "uint64",
          "name": "expectedTimePerBlock_",
          "type": "uint64"
        }
      ],
      "name": "setExpectedTimePerBlock",
      "outputs": [],
      "stateMutability": "nonpayable",
      "type": "function"
    },
    {
      "inputs": [
        {
          "internalType": "bytes",
          "name": "name",
          "type": "bytes"
        },
        {
          "internalType": "address",
          "name": "addr",
          "type": "address"
        }
      ],
      "name": "claimCapability",
      "outputs": [],
      "stateMutability": "nonpayable",
      "type": "function"
    },
    {
      "inputs": [
        {
          "internalType": "bytes",
          "name": "name",
          "type": "bytes"
        },
        {
          "internalType": "address",
          "name": "addr",
          "type": "address"
        }
      ],
      "name": "authenticateCapability",
      "outputs": [
        {
          "internalType": "bool",
          "name": "",
          "type": "bool"
        }
      ],
      "stateMutability": "view",
      "type": "function",
      "constant": true
    },
    {
      "inputs": [
        {
          "internalType": "bytes",
          "name": "name",
          "type": "bytes"
        }
      ],
      "name": "getModuleOwner",
      "outputs": [
        {
          "internalType": "address",
          "name": "",
          "type": "address"
        },
        {
          "internalType": "bool",
          "name": "",
          "type": "bool"
        }
      ],
      "stateMutability": "view",
      "type": "function",
      "constant": true
    },
    {
      "inputs": [
        {
          "internalType": "string",
          "name": "clientType",
          "type": "string"
        }
      ],
      "name": "generateClientIdentifier",
      "outputs": [
        {
          "internalType": "string",
          "name": "",
          "type": "string"
        }
      ],
      "stateMutability": "nonpayable",
      "type": "function"
    },
    {
      "inputs": [],
      "name": "generateConnectionIdentifier",
      "outputs": [
        {
          "internalType": "string",
          "name": "",
          "type": "string"
        }
      ],
      "stateMutability": "nonpayable",
      "type": "function"
    },
    {
      "inputs": [],
      "name": "generateChannelIdentifier",
      "outputs": [
        {
          "internalType": "string",
          "name": "",
          "type": "string"
        }
      ],
      "stateMutability": "nonpayable",
      "type": "function"
    }
  ],
  "bytecode": "0x608060405234801561001057600080fd5b50600f80546001600160a01b03191633179055614fd5806100326000396000f3fe608060405234801561001057600080fd5b50600436106102d35760003560e01c806371f56c5911610186578063be3d6e92116100e3578063ec75d82911610097578063fcc2fb0011610071578063fcc2fb0014610636578063ff17174514610649578063ff6182921461065c57600080fd5b8063ec75d829146105f8578063f2a47da314610610578063f81cc9e11461062357600080fd5b8063d9e73f50116100c8578063d9e73f50146105ca578063ddc090dd146105d2578063e211bb06146105e557600080fd5b8063be3d6e92146105a4578063bfe7aa66146105b757600080fd5b806394dcb4c61161013a578063a37a45c81161011f578063a37a45c81461054c578063ace6cfb71461055f578063b7ccdc571461059157600080fd5b806394dcb4c6146105265780639d0b76501461053957600080fd5b806378338a171161016b57806378338a17146104ed57806384515f5d146105005780638a8896581461051357600080fd5b806371f56c59146104b957806376c81c42146104cc57600080fd5b80632dbe1450116102345780634e08c6f3116101e8578063582418b6116101cd578063582418b6146104805780635a9afac31461049357806361fc5e7b146104a657600080fd5b80634e08c6f31461044d57806353ccd1c81461047857600080fd5b80633000217a116102195780633000217a146104065780633564d5501461042757806336f575921461043a57600080fd5b80632dbe1450146103cb5780632f80e3ad146103de57600080fd5b806322c995361161028b57806327184c131161027057806327184c131461037457806327711a69146103875780632d46858f146103a857600080fd5b806322c995361461034157806324fe5ee81461036157600080fd5b80631649a4f7116102bc5780631649a4f7146103135780631e742f321461031b5780631ea8dfe11461032e57600080fd5b80630838f56d146102d857806312a68750146102ed575b600080fd5b6102eb6102e6366004613b0c565b61066f565b005b6103006102fb366004613e45565b610761565b6040519081526020015b60405180910390f35b6102eb610881565b6102eb610329366004613e90565b61089a565b6102eb61033c366004613eab565b6108e0565b61035461034f366004613f06565b610936565b60405161030a9190613fa3565b6102eb61036f366004613fb6565b6109ff565b6102eb610382366004614036565b610a6f565b61039a610395366004613f06565b610ab8565b60405161030a929190614123565b6103bb6103b636600461422a565b610fba565b604051901515815260200161030a565b6102eb6103d93660046144de565b61107b565b6103f16103ec3660046145db565b611359565b6040805192835290151560208301520161030a565b610419610414366004613b0c565b6113a6565b60405161030a929190614625565b6102eb61043536600461477c565b61176b565b6103f16104483660046145db565b611920565b61046061045b366004613b0c565b611937565b6040516001600160401b03909116815260200161030a565b61035461198c565b61046061048e366004613b0c565b611a74565b6103bb6104a1366004613fb6565b611a88565b6103f16104b4366004613fb6565b611aef565b6103f16104c7366004613fb6565b611ba7565b6104df6104da366004613f06565b611bee565b60405161030a92919061489d565b6102eb6104fb366004613b0c565b611cd9565b61035461050e366004613f06565b611e08565b6103006105213660046148c1565b611ebb565b6102eb610534366004613fb6565b611ecd565b6102eb61054736600461422a565b611f80565b6104df61055a3660046145db565b61205f565b61057261056d366004613f06565b612176565b604080516001600160a01b03909316835290151560208301520161030a565b6102eb61059f3660046148f5565b6121fc565b6102eb6105b236600461422a565b61224b565b6105726105c5366004613f06565b61235b565b6103546123c6565b6102eb6105e0366004613fb6565b612491565b6104606105f3366004613b0c565b6124ac565b601054600160a01b90046001600160401b0316610460565b6102eb61061e366004613fb6565b6124c0565b6102eb61063136600461498d565b612538565b6102eb610644366004613eab565b61262b565b6102eb610657366004613fb6565b612646565b6102eb61066a366004614a3a565b612661565b610677610881565b81816003868660405161068b929190614abd565b9081526040519081900360200190206106a59290916137ef565b5081816040516106b6929190614abd565b604051809103902060008073__IBCIdentifier_________________________63c7ddc60688886040518363ffffffff1660e01b81526004016106fa929190614af6565b60206040518083038186803b15801561071257600080fd5b505af4158015610726573d6000803e3d6000fd5b505050506040513d601f19601f8201168201806040525081019061074a9190614b0a565b815260208101919091526040016000205550505050565b600060028260e001518360c00151600001518460c001516020015160028660a001516040516107909190614b23565b602060405180830381855afa1580156107ad573d6000803e3d6000fd5b5050506040513d601f19601f820116820180604052508101906107d09190614b0a565b6040517fffffffffffffffff00000000000000000000000000000000000000000000000060c095861b8116602083015293851b841660288201529190931b9091166030820152603881019190915260580160408051601f198184030181529082905261083b91614b23565b602060405180830381855afa158015610858573d6000803e3d6000fd5b5050506040513d601f19601f8201168201806040525081019061087b9190614b0a565b92915050565b6010546001600160a01b0316331461089857600080fd5b565b600f546001600160a01b031633146108b157600080fd5b6010805473ffffffffffffffffffffffffffffffffffffffff19166001600160a01b0392909216919091179055565b6108e8610881565b80600685856040516108fb929190614abd565b90815260200160405180910390206000846001600160401b03166001600160401b031681526020019081526020016000208190555050505050565b6060610940610881565b600e546000908490849061095c906001600160401b031661276b565b60405160200161096e93929190614b3f565b60408051601f19818403018152919052600e80549192506001600160401b0390911690600061099c83614ba5565b91906101000a8154816001600160401b0302191690836001600160401b03160217905550507f601bfcc455d5d4d7738f8c6ac232e0d7cc9c31dab811f1d87c100af0b7fc3a20816040516109f09190613fa3565b60405180910390a19392505050565b610a07610881565b80600b8686604051610a1a929190614abd565b90815260200160405180910390208484604051610a38929190614abd565b90815260405190819003602001902080546001600160401b039290921667ffffffffffffffff199092169190911790555050505050565b610a77610881565b601080546001600160401b03909216600160a01b027fffffffff0000000000000000ffffffffffffffffffffffffffffffffffffffff909216919091179055565b610ac0613873565b600060078484604051610ad4929190614abd565b908152604051908190036020019020600060078686604051610af7929190614abd565b9081526040519081900360200190206002015460ff166003811115610b1e57610b1e6140a6565b1415816040518060a0016040529081600082018054610b3c90614bcc565b80601f0160208091040260200160405190810160405280929190818152602001828054610b6890614bcc565b8015610bb55780601f10610b8a57610100808354040283529160200191610bb5565b820191906000526020600020905b815481529060010190602001808311610b9857829003601f168201915b5050505050815260200160018201805480602002602001604051908101604052809291908181526020016000905b82821015610d805783829060005260206000209060020201604051806040016040529081600082018054610c1690614bcc565b80601f0160208091040260200160405190810160405280929190818152602001828054610c4290614bcc565b8015610c8f5780601f10610c6457610100808354040283529160200191610c8f565b820191906000526020600020905b815481529060010190602001808311610c7257829003601f168201915b5050505050815260200160018201805480602002602001604051908101604052809291908181526020016000905b82821015610d69578382906000526020600020018054610cdc90614bcc565b80601f0160208091040260200160405190810160405280929190818152602001828054610d0890614bcc565b8015610d555780601f10610d2a57610100808354040283529160200191610d55565b820191906000526020600020905b815481529060010190602001808311610d3857829003601f168201915b505050505081526020019060010190610cbd565b505050508152505081526020019060010190610be3565b50505090825250600282015460209091019060ff166003811115610da657610da66140a6565b6003811115610db757610db76140a6565b815260200160038201604051806060016040529081600082018054610ddb90614bcc565b80601f0160208091040260200160405190810160405280929190818152602001828054610e0790614bcc565b8015610e545780601f10610e2957610100808354040283529160200191610e54565b820191906000526020600020905b815481529060010190602001808311610e3757829003601f168201915b50505050508152602001600182018054610e6d90614bcc565b80601f0160208091040260200160405190810160405280929190818152602001828054610e9990614bcc565b8015610ee65780601f10610ebb57610100808354040283529160200191610ee6565b820191906000526020600020905b815481529060010190602001808311610ec957829003601f168201915b5050505050815260200160028201604051806020016040529081600082018054610f0f90614bcc565b80601f0160208091040260200160405190810160405280929190818152602001828054610f3b90614bcc565b8015610f885780601f10610f5d57610100808354040283529160200191610f88565b820191906000526020600020905b815481529060010190602001808311610f6b57829003601f168201915b505050919092525050509052508152600691909101546001600160401b031660209091015293509150505b9250929050565b6000610fc4610881565b60005b600d8585604051610fd9929190614abd565b9081526040519081900360200190205463ffffffff8216101561106e57826001600160a01b0316600d8686604051611012929190614abd565b90815260200160405180910390208263ffffffff168154811061103757611037614c07565b6000918252602090912001546001600160a01b0316141561105c576001915050611074565b8061106681614c1d565b915050610fc7565b50600090505b9392505050565b611083610881565b8051604051600790611096908590614b23565b908152602001604051809103902060000190805190602001906110ba9291906138a6565b5080604001516007836040516110d09190614b23565b908152604051908190036020019020600201805460ff191660018360038111156110fc576110fc6140a6565b021790555080608001516007836040516111169190614b23565b90815260405190819003602001812060060180546001600160401b039390931667ffffffffffffffff1990931692909217909155600790611158908490614b23565b90815260200160405180910390206001016000611175919061391a565b60005b8160200151518160ff16101561122a576007836040516111989190614b23565b908152602001604051809103902060010182602001518260ff16815181106111c2576111c2614c07565b6020908102919091018101518254600181018455600093845292829020815180519294600202909101926111fb928492909101906138a6565b506020828101518051611214926001850192019061393e565b505050808061122290614c37565b915050611178565b5080606001516007836040516112409190614b23565b9081526020016040518091039020600301600082015181600001908051906020019061126d9291906138a6565b50602082810151805161128692600185019201906138a6565b5060408201518051805160028401916112a4918391602001906138a6565b5050509050506112b3816128f4565b8051906020012060008073__IBCIdentifier_________________________63a9dd3eb3866040518263ffffffff1660e01b81526004016112f49190613fa3565b60206040518083038186803b15801561130c57600080fd5b505af4158015611320573d6000803e3d6000fd5b505050506040513d601f19601f820116820180604052508101906113449190614b0a565b81526020810191909152604001600020555050565b600080600060058686604051611370929190614abd565b908152604080519182900360209081019092206001600160401b0387166000908152925290205492505050801515935093915050565b6113ae613997565b6000600886866040516113c2929190614abd565b908152602001604051809103902084846040516113e0929190614abd565b908152604051908190036020019020600060088888604051611403929190614abd565b90815260200160405180910390208686604051611421929190614abd565b9081526040519081900360200190205460ff166004811115611445576114456140a6565b6040805160a0810190915283549290911415918390829060ff166004811115611470576114706140a6565b6004811115611481576114816140a6565b81528154602090910190610100900460ff1660028111156114a4576114a46140a6565b60028111156114b5576114b56140a6565b8152602001600182016040518060400160405290816000820180546114d990614bcc565b80601f016020809104026020016040519081016040528092919081815260200182805461150590614bcc565b80156115525780601f1061152757610100808354040283529160200191611552565b820191906000526020600020905b81548152906001019060200180831161153557829003601f168201915b5050505050815260200160018201805461156b90614bcc565b80601f016020809104026020016040519081016040528092919081815260200182805461159790614bcc565b80156115e45780601f106115b9576101008083540402835291602001916115e4565b820191906000526020600020905b8154815290600101906020018083116115c757829003601f168201915b505050505081525050815260200160038201805480602002602001604051908101604052809291908181526020016000905b828210156116c257838290600052602060002001805461163590614bcc565b80601f016020809104026020016040519081016040528092919081815260200182805461166190614bcc565b80156116ae5780601f10611683576101008083540402835291602001916116ae565b820191906000526020600020905b81548152906001019060200180831161169157829003601f168201915b505050505081526020019060010190611616565b5050505081526020016004820180546116da90614bcc565b80601f016020809104026020016040519081016040528092919081815260200182805461170690614bcc565b80156117535780601f1061172857610100808354040283529160200191611753565b820191906000526020600020905b81548152906001019060200180831161173657829003601f168201915b50505050508152505091509150915094509492505050565b611773610881565b806008846040516117849190614b23565b9081526020016040518091039020836040516117a09190614b23565b90815260405190819003602001902081518154829060ff191660018360048111156117cd576117cd6140a6565b021790555060208201518154829061ff0019166101008360028111156117f5576117f56140a6565b02179055506040820151805180516001840191611817918391602001906138a6565b50602082810151805161183092600185019201906138a6565b5050506060820151805161184e91600384019160209091019061393e565b506080820151805161186a9160048401916020909101906138a6565b509050506118778161295c565b8051906020012060008073__IBCIdentifier_________________________63c6c9159c87876040518363ffffffff1660e01b81526004016118ba929190614c57565b60206040518083038186803b1580156118d257600080fd5b505af41580156118e6573d6000803e3d6000fd5b505050506040513d601f19601f8201168201806040525081019061190a9190614b0a565b8152602081019190915260400160002055505050565b600080600060068686604051611370929190614abd565b6000600b858560405161194b929190614abd565b90815260200160405180910390208383604051611969929190614abd565b908152604051908190036020019020546001600160401b03169050949350505050565b6060611996610881565b600e546000906119c29070010000000000000000000000000000000090046001600160401b031661276b565b6040516020016119d29190614c7c565b60408051808303601f19018152919052600e80549192507001000000000000000000000000000000009091046001600160401b0316906010611a1383614ba5565b91906101000a8154816001600160401b0302191690836001600160401b03160217905550507f01fb9b8778b6fb840b058bb971dea3ba81c167b010a0216afe600826884f9ba781604051611a679190613fa3565b60405180910390a1919050565b60006009858560405161194b929190614abd565b6000600c8686604051611a9c929190614abd565b90815260200160405180910390208484604051611aba929190614abd565b908152604080519182900360209081019092206001600160401b0385166000908152925290205460ff16905095945050505050565b600080600080600073__IBCIdentifier_________________________63dae1b0f88b8b8b8b8b6040518663ffffffff1660e01b8152600401611b36959493929190614cc1565b60206040518083038186803b158015611b4e57600080fd5b505af4158015611b62573d6000803e3d6000fd5b505050506040513d601f19601f82011682018060405250810190611b869190614b0a565b81526020810191909152604001600020549889151598509650505050505050565b600080600080600073__IBCIdentifier_________________________63e334f11b8b8b8b8b8b6040518663ffffffff1660e01b8152600401611b36959493929190614cc1565b6060600060038484604051611c04929190614abd565b9081526020016040518091039020600060038686604051611c26929190614abd565b90815260200160405180910390208054611c3f90614bcc565b905011818054611c4e90614bcc565b80601f0160208091040260200160405190810160405280929190818152602001828054611c7a90614bcc565b8015611cc75780601f10611c9c57610100808354040283529160200191611cc7565b820191906000526020600020905b815481529060010190602001808311611caa57829003601f168201915b50505050509150915091509250929050565b611ce1610881565b60028484604051611cf3929190614abd565b90815260200160405180910390208054611d0c90614bcc565b159050611d605760405162461bcd60e51b815260206004820152601760248201527f636c69656e74496420616c72656164792065786973747300000000000000000060448201526064015b60405180910390fd5b80611dd35760405162461bcd60e51b815260206004820152602360248201527f636c69656e7454797065206d757374206e6f7420626520656d7074792073747260448201527f696e6700000000000000000000000000000000000000000000000000000000006064820152608401611d57565b818160028686604051611de7929190614abd565b908152604051908190036020019020611e019290916137ef565b5050505050565b606060028383604051611e1c929190614abd565b90815260200160405180910390208054611e3590614bcc565b80601f0160208091040260200160405190810160405280929190818152602001828054611e6190614bcc565b8015611eae5780601f10611e8357610100808354040283529160200191611eae565b820191906000526020600020905b815481529060010190602001808311611e9157829003601f168201915b5050505050905092915050565b600060028260405161083b9190614b23565b611ed5610881565b60008073__IBCIdentifier_________________________63dae1b0f888888888886040518663ffffffff1660e01b8152600401611f17959493929190614cc1565b60206040518083038186803b158015611f2f57600080fd5b505af4158015611f43573d6000803e3d6000fd5b505050506040513d601f19601f82011682018060405250810190611f679190614b0a565b8152602001908152602001600020600090555050505050565b611f88610881565b60006001600160a01b031660018484604051611fa5929190614abd565b908152604051908190036020019020546001600160a01b03161461200b5760405162461bcd60e51b815260206004820152601960248201527f636c69656e74496d706c20616c726561647920657869737473000000000000006044820152606401611d57565b806001848460405161201e929190614abd565b90815260405190819003602001902080546001600160a01b039290921673ffffffffffffffffffffffffffffffffffffffff19909216919091179055505050565b6060600060048585604051612075929190614abd565b9081526040805191829003602090810183206001600160401b03871660009081529152908120916004906120ac9089908990614abd565b90815260408051602092819003830190206001600160401b03881660009081529252902080546120db90614bcc565b9050118180546120ea90614bcc565b80601f016020809104026020016040519081016040528092919081815260200182805461211690614bcc565b80156121635780601f1061213857610100808354040283529160200191612163565b820191906000526020600020905b81548152906001019060200180831161214657829003601f168201915b5050505050915091509150935093915050565b600080600d848460405161218b929190614abd565b908152604051908190036020019020546121aa57506000905080610fb3565b600d84846040516121bc929190614abd565b90815260200160405180910390206000815481106121dc576121dc614c07565b6000918252602090912001546001600160a01b0316946001945092505050565b612204610881565b61220d81610761565b60008073__IBCIdentifier_________________________63dae1b0f88888886040518463ffffffff1660e01b81526004016106fa93929190614d04565b612253610881565b60005b600d8484604051612268929190614abd565b9081526040519081900360200190205463ffffffff821610156122f857816001600160a01b0316600d85856040516122a1929190614abd565b90815260200160405180910390208263ffffffff16815481106122c6576122c6614c07565b6000918252602090912001546001600160a01b031614156122e657600080fd5b806122f081614c1d565b915050612256565b50600d838360405161230b929190614abd565b908152604051602091819003820190208054600181018255600091825291902001805473ffffffffffffffffffffffffffffffffffffffff19166001600160a01b03929092169190911790555050565b60008060018484604051612370929190614abd565b908152604051908190036020018120546001600160a01b03169060009060019061239d9088908890614abd565b908152604051908190036020019020549193506001600160a01b03909116141590509250929050565b60606123d0610881565b600e546000906123f4906801000000000000000090046001600160401b031661276b565b6040516020016124049190614d43565b60408051808303601f19018152919052600e8054919250680100000000000000009091046001600160401b031690600861243d83614ba5565b91906101000a8154816001600160401b0302191690836001600160401b03160217905550507fbcf8ae1e9272e040280c9adfc8033bb831043a9959e37ef4af1f7e8ded16321b81604051611a679190613fa3565b612499610881565b8060098686604051610a1a929190614abd565b6000600a858560405161194b929190614abd565b6124c8610881565b6001600c86866040516124dc929190614abd565b908152602001604051809103902084846040516124fa929190614abd565b90815260408051602092819003830190206001600160401b0394909416600090815293909152909120805460ff191691151591909117905550505050565b612540610881565b61257f82828080601f016020809104026020016040519081016040528093929190818152602001838380828437600092019190915250611ebb92505050565b60008073__IBCIdentifier_________________________63e334f11b8b8b8b8b8b6040518663ffffffff1660e01b81526004016125c1959493929190614cc1565b60206040518083038186803b1580156125d957600080fd5b505af41580156125ed573d6000803e3d6000fd5b505050506040513d601f19601f820116820180604052508101906126119190614b0a565b815260208101919091526040016000205550505050505050565b612633610881565b80600585856040516108fb929190614abd565b61264e610881565b80600a8686604051610a1a929190614abd565b612669610881565b81816004878760405161267d929190614abd565b90815260408051602092819003830190206001600160401b0388166000908152925290206126ac9290916137ef565b5081816040516126bd929190614abd565b604051809103902060008073__IBCIdentifier_________________________63c1f0b6438989896040518463ffffffff1660e01b815260040161270393929190614d88565b60206040518083038186803b15801561271b57600080fd5b505af415801561272f573d6000803e3d6000fd5b505050506040513d601f19601f820116820180604052508101906127539190614b0a565b81526020810191909152604001600020555050505050565b60606001600160401b0382166127b457505060408051808201909152600181527f3000000000000000000000000000000000000000000000000000000000000000602082015290565b8160005b6001600160401b038216156127e757806127d181614ba5565b91506127e09050600a83614db5565b91506127b8565b6000816001600160401b03166001600160401b0381111561280a5761280a613b77565b6040519080825280601f01601f191660200182016040528015612834576020820181803683370190505b509050815b6001600160401b038616156128eb57612853600182614de9565b90506000612862600a88614db5565b61286d90600a614e11565b6128779088614de9565b612882906030614e40565b905060008160f81b90508084846001600160401b0316815181106128a8576128a8614c07565b60200101907effffffffffffffffffffffffffffffffffffffffffffffffffffffffffffff1916908160001a9053506128e2600a89614db5565b97505050612839565b50949350505050565b60606000612901836129bb565b6001600160401b0381111561291857612918613b77565b6040519080825280601f01601f191660200182016040528015612942576020820181803683370190505b509050600061295384602084612ace565b82525092915050565b6060600061296983612c84565b6001600160401b0381111561298057612980613b77565b6040519080825280601f01601f1916602001820160405280156129aa576020820181803683370190505b509050600061295384602084612d6e565b60008060006129ce846000015151612f19565b6129d9906001614e65565b6129e39083614e65565b9150600090505b836020015151811015612a4e57612a25612a2085602001518381518110612a1357612a13614c07565b6020026020010151612f2e565b612f19565b612a30906001614e65565b612a3a9083614e65565b915080612a4681614e7d565b9150506129ea565b612a66612a5e8560400151612fb3565b60030b61303c565b612a71906001614e65565b612a7b9083614e65565b9150612a8d612a208560600151613068565b612a98906001614e65565b612aa29083614e65565b9150612ab184608001516130da565b612abc906001614e65565b612ac69083614e65565b949350505050565b82515160009083908190839015612b1557612aed6001600284886130ee565b612af79083614e65565b9150612b088760000151838761310e565b612b129083614e65565b91505b60208701515115612b90575060005b866020015151811015612b9057612b3e60028084886130ee565b612b489083614e65565b9150612b7287602001518281518110612b6357612b63614c07565b6020026020010151838761311b565b612b7c9083614e65565b915080612b8881614e7d565b915050612b24565b86604001516003811115612ba657612ba66140a6565b15612bef57612bb96003600084886130ee565b612bc39083614e65565b91506000612bd48860400151612fb3565b9050612be18184886131dc565b612beb9084614e65565b9250505b612bfd6004600284886130ee565b612c079083614e65565b9150612c18876060015183876131e9565b612c229083614e65565b915086608001516001600160401b0316600014612c6f57612c476005600084886130ee565b612c519083614e65565b9150612c628760800151838761324b565b612c6c9083614e65565b91505b612c798383614e98565b979650505050505050565b6000806000612c99612a5e8560000151613261565b612ca4906001614e65565b612cae9083614e65565b9150612cc0612a5e856020015161330c565b612ccb906001614e65565b612cd59083614e65565b9150612ce7612a208560400151613373565b612cf2906001614e65565b612cfc9083614e65565b9150600090505b836060015151811015612d6057612d3784606001518281518110612d2957612d29614c07565b602002602001015151612f19565b612d42906001614e65565b612d4c9083614e65565b915080612d5881614e7d565b915050612d03565b612ab1846080015151612f19565b82516000908390819083906004811115612d8a57612d8a6140a6565b15612dd357612d9d6001600084886130ee565b612da79083614e65565b91506000612db88860000151613261565b9050612dc58184886131dc565b612dcf9084614e65565b9250505b86602001516002811115612de957612de96140a6565b15612e3257612dfc6002600084886130ee565b612e069083614e65565b91506000612e17886020015161330c565b9050612e248184886131dc565b612e2e9084614e65565b9250505b612e406003600284886130ee565b612e4a9083614e65565b9150612e5b876040015183876133a9565b612e659083614e65565b9150866060015151600014612ee5575060005b866060015151811015612ee557612e936004600284886130ee565b612e9d9083614e65565b9150612ec787606001518281518110612eb857612eb8614c07565b6020026020010151838761310e565b612ed19083614e65565b915080612edd81614e7d565b915050612e78565b60808701515115612c6f57612efe6005600284886130ee565b612f089083614e65565b9150612c628760800151838761310e565b6000612f248261340b565b61087b9083614e65565b6000806000612f41846000015151612f19565b612f4c906001614e65565b612f569083614e65565b9150600090505b836020015151811015612fac57612f8384602001518281518110612d2957612d29614c07565b612f8e906001614e65565b612f989083614e65565b915080612fa481614e7d565b915050612f5d565b5092915050565b600080826003811115612fc857612fc86140a6565b1415612fd657506000919050565b6001826003811115612fea57612fea6140a6565b1415612ff857506001919050565b600282600381111561300c5761300c6140a6565b141561301a57506002919050565b600382600381111561302e5761302e6140a6565b14156102d357506003919050565b6000808260070b12156130515750600a919050565b61087b826001600160401b031661340b565b919050565b600080613079836000015151612f19565b613084906001614e65565b61308e9082614e65565b905061309e836020015151612f19565b6130a9906001614e65565b6130b39082614e65565b90506130c5612a208460400151613428565b6130d0906001614e65565b6110749082614e65565b600061087b826001600160401b031661340b565b6000600885026007851617613104818585613439565b9695505050505050565b6000612ac684848461347c565b600082808261312987612f2e565b6001600160401b0381111561314057613140613b77565b6040519080825280601f01601f19166020018201604052801561316a576020820181803683370190505b5090508085600061317d8a6020856134c7565b905061318a81868a613439565b6131949086614e65565b94506131b46131a4846020614e65565b6131ae8785614e65565b8361357a565b6131be8186614e65565b9450606093506131ce8686614e98565b9a9950505050505050505050565b6000612ac68484846135ec565b60008280826131f787613068565b6001600160401b0381111561320e5761320e613b77565b6040519080825280601f01601f191660200182016040528015613238576020820181803683370190505b5090508085600061317d8a60208561360c565b6000612ac6846001600160401b03168484613439565b600080826004811115613276576132766140a6565b141561328457506000919050565b6001826004811115613298576132986140a6565b14156132a657506001919050565b60028260048111156132ba576132ba6140a6565b14156132c857506002919050565b60038260048111156132dc576132dc6140a6565b14156132ea57506003919050565b60048260048111156132fe576132fe6140a6565b14156102d357506004919050565b600080826002811115613321576133216140a6565b141561332f57506000919050565b6001826002811115613343576133436140a6565b141561335157506001919050565b6002826002811115613365576133656140a6565b14156102d357506002919050565b600080613384836000015151612f19565b61338f906001614e65565b6133999082614e65565b90506130c5836020015151612f19565b60008280826133b787613373565b6001600160401b038111156133ce576133ce613b77565b6040519080825280601f01601f1916602001820160405280156133f8576020820181803683370190505b5090508085600061317d8a6020856136d0565b60071c600060015b821561087b5760079290921c91600101613413565b6000806130c5836000015151612f19565b600080828401607f86165b600787901c1561346c578060801782535060079590951c9460019182019101607f8616613444565b8082535050600101949350505050565b82516000908161348d828686613439565b905060008186018501602088015b848310156134ba57805160001a8253600192830192918201910161349b565b50612c7990508183614e65565b8251516000908390819083901561350e576134e66001600284886130ee565b6134f09083614e65565b91506135018760000151838761310e565b61350b9083614e65565b91505b60208701515115612c6f575060005b866020015151811015612c6f5761353760028084886130ee565b6135419083614e65565b915061355c87602001518281518110612eb857612eb8614c07565b6135669083614e65565b91508061357281614e7d565b91505061351d565b60208111156135b35782518252613592602083614e65565b915061359f602084614e65565b92506135ac602082614e98565b905061357a565b600060016135c2836020614e98565b6135ce90610100614f93565b6135d89190614e98565b935183518516941916939093179091525050565b6000836136036001600160401b0382168585613439565b95945050505050565b8251516000908390819015613651576136296001600283876130ee565b6136339082614e65565b90506136448660000151828661310e565b61364e9082614e65565b90505b602086015151156136915761366960028083876130ee565b6136739082614e65565b90506136848660200151828661310e565b61368e9082614e65565b90505b61369f6003600283876130ee565b6136a99082614e65565b90506136ba86604001518286613752565b6136c49082614e65565b90506131048282614e98565b8251516000908390819015613715576136ed6001600283876130ee565b6136f79082614e65565b90506137088660000151828661310e565b6137129082614e65565b90505b602086015151156137485761372d60028083876130ee565b6137379082614e65565b90506136ba8660200151828661310e565b6131048282614e98565b600082808261376087613428565b6001600160401b0381111561377757613777613b77565b6040519080825280601f01601f1916602001820160405280156137a1576020820181803683370190505b50905060008190506000869050600061317d8a6020868251516000908390819015613748576137d46001600283876130ee565b6137de9082614e65565b90506136ba8660000151828661347c565b8280546137fb90614bcc565b90600052602060002090601f01602090048101928261381d5760008555613863565b82601f106138365782800160ff19823516178555613863565b82800160010185558215613863579182015b82811115613863578235825591602001919060010190613848565b5061386f9291506139e2565b5090565b6040805160a08101825260608082526020820152908101600081526020016138996139f7565b8152600060209091015290565b8280546138b290614bcc565b90600052602060002090601f0160209004810192826138d45760008555613863565b82601f106138ed57805160ff1916838001178555613863565b82800160010185558215613863579182015b828111156138635782518255916020019190600101906138ff565b508054600082556002029060005260206000209081019061393b9190613a2b565b50565b82805482825590600052602060002090810192821561398b579160200282015b8281111561398b578251805161397b9184916020909101906138a6565b509160200191906001019061395e565b5061386f929150613a56565b6040805160a081019091528060008152602001600081526020016139ce604051806040016040528060608152602001606081525090565b815260200160608152602001606081525090565b5b8082111561386f57600081556001016139e3565b60405180606001604052806060815260200160608152602001613a266040518060200160405280606081525090565b905290565b8082111561386f576000613a3f8282613a73565b613a4d600183016000613aad565b50600201613a2b565b8082111561386f576000613a6a8282613a73565b50600101613a56565b508054613a7f90614bcc565b6000825580601f10613a8f575050565b601f01602090049060005260206000209081019061393b91906139e2565b508054600082559060005260206000209081019061393b9190613a56565b60008083601f840112613add57600080fd5b5081356001600160401b03811115613af457600080fd5b602083019150836020828501011115610fb357600080fd5b60008060008060408587031215613b2257600080fd5b84356001600160401b0380821115613b3957600080fd5b613b4588838901613acb565b90965094506020870135915080821115613b5e57600080fd5b50613b6b87828801613acb565b95989497509550505050565b634e487b7160e01b600052604160045260246000fd5b604080519081016001600160401b0381118282101715613baf57613baf613b77565b60405290565b60405161010081016001600160401b0381118282101715613baf57613baf613b77565b604051606081016001600160401b0381118282101715613baf57613baf613b77565b604051602081016001600160401b0381118282101715613baf57613baf613b77565b60405160a081016001600160401b0381118282101715613baf57613baf613b77565b604051601f8201601f191681016001600160401b0381118282101715613c6657613c66613b77565b604052919050565b80356001600160401b038116811461306357600080fd5b600082601f830112613c9657600080fd5b81356001600160401b03811115613caf57613caf613b77565b613cc2601f8201601f1916602001613c3e565b818152846020838601011115613cd757600080fd5b816020850160208301376000918101602001919091529392505050565b600060408284031215613d0657600080fd5b613d0e613b8d565b9050613d1982613c6e565b8152613d2760208301613c6e565b602082015292915050565b60006101208284031215613d4557600080fd5b613d4d613bb5565b9050613d5882613c6e565b815260208201356001600160401b0380821115613d7457600080fd5b613d8085838601613c85565b60208401526040840135915080821115613d9957600080fd5b613da585838601613c85565b60408401526060840135915080821115613dbe57600080fd5b613dca85838601613c85565b60608401526080840135915080821115613de357600080fd5b613def85838601613c85565b608084015260a0840135915080821115613e0857600080fd5b50613e1584828501613c85565b60a083015250613e288360c08401613cf4565b60c0820152613e3a6101008301613c6e565b60e082015292915050565b600060208284031215613e5757600080fd5b81356001600160401b03811115613e6d57600080fd5b612ac684828501613d32565b80356001600160a01b038116811461306357600080fd5b600060208284031215613ea257600080fd5b61107482613e79565b60008060008060608587031215613ec157600080fd5b84356001600160401b03811115613ed757600080fd5b613ee387828801613acb565b9095509350613ef6905060208601613c6e565b9396929550929360400135925050565b60008060208385031215613f1957600080fd5b82356001600160401b03811115613f2f57600080fd5b613f3b85828601613acb565b90969095509350505050565b60005b83811015613f62578181015183820152602001613f4a565b83811115613f71576000848401525b50505050565b60008151808452613f8f816020860160208601613f47565b601f01601f19169290920160200192915050565b6020815260006110746020830184613f77565b600080600080600060608688031215613fce57600080fd5b85356001600160401b0380821115613fe557600080fd5b613ff189838a01613acb565b9097509550602088013591508082111561400a57600080fd5b5061401788828901613acb565b909450925061402a905060408701613c6e565b90509295509295909350565b60006020828403121561404857600080fd5b61107482613c6e565b600081518084526020808501808196508360051b8101915082860160005b85811015614099578284038952614087848351613f77565b9885019893509084019060010161406f565b5091979650505050505050565b634e487b7160e01b600052602160045260246000fd5b600481106140cc576140cc6140a6565b9052565b60008151606084526140e56060850182613f77565b9050602083015184820360208601526140fe8282613f77565b9150506040830151848203604086015280519050602082526136036020830182613f77565b60006040808352845160a08285015261413f60e0850182613f77565b9050602080870151603f19808785030160608801528382518086528486019150848160051b870101858501945060005b828110156141bf57878203601f19018452855180518a84526141938b850182613f77565b91890151848303858b01529190506141ab8183614051565b97890197958901959350505060010161416f565b50968b0151966141d260808b01896140bc565b60608c01519750838a82030160a08b01526141ed81896140d0565b975050505050506080870151915061421060c08601836001600160401b03169052565b8293506142208186018715159052565b5050509392505050565b60008060006040848603121561423f57600080fd5b83356001600160401b0381111561425557600080fd5b61426186828701613acb565b9094509250614274905060208501613e79565b90509250925092565b60006001600160401b0382111561429657614296613b77565b5060051b60200190565b600082601f8301126142b157600080fd5b813560206142c66142c18361427d565b613c3e565b82815260059290921b840181019181810190868411156142e557600080fd5b8286015b848110156143245780356001600160401b038111156143085760008081fd5b6143168986838b0101613c85565b8452509183019183016142e9565b509695505050505050565b600082601f83011261434057600080fd5b813560206143506142c18361427d565b82815260059290921b8401810191818101908684111561436f57600080fd5b8286015b848110156143245780356001600160401b03808211156143935760008081fd5b908801906040828b03601f19018113156143ad5760008081fd5b6143b5613b8d565b87840135838111156143c75760008081fd5b6143d58d8a83880101613c85565b8252509083013590828211156143eb5760008081fd5b6143f98c89848701016142a0565b818901528652505050918301918301614373565b80356004811061306357600080fd5b60006060828403121561442e57600080fd5b614436613bd8565b905081356001600160401b038082111561444f57600080fd5b61445b85838601613c85565b8352602084013591508082111561447157600080fd5b61447d85838601613c85565b6020840152604084013591508082111561449657600080fd5b90830190602082860312156144aa57600080fd5b6144b2613bfa565b8235828111156144c157600080fd5b6144cd87828601613c85565b825250604084015250909392505050565b600080604083850312156144f157600080fd5b82356001600160401b038082111561450857600080fd5b61451486838701613c85565b9350602085013591508082111561452a57600080fd5b9084019060a0828703121561453e57600080fd5b614546613c1c565b82358281111561455557600080fd5b61456188828601613c85565b82525060208301358281111561457657600080fd5b6145828882860161432f565b6020830152506145946040840161440d565b60408201526060830135828111156145ab57600080fd5b6145b78882860161441c565b6060830152506145c960808401613c6e565b60808201528093505050509250929050565b6000806000604084860312156145f057600080fd5b83356001600160401b0381111561460657600080fd5b61461286828701613acb565b9094509250614274905060208501613c6e565b60408152600083516005811061463d5761463d6140a6565b6040830152602084015160038110614657576146576140a6565b80606084015250604084015160a060808401528051604060e0850152614681610120850182613f77565b90506020820151915060df19848203016101008501526146a18183613f77565b9150506060850151603f19808584030160a08601526146c08383614051565b925060808701519150808584030160c0860152506146de8282613f77565b92505050611074602083018415159052565b80356005811061306357600080fd5b80356003811061306357600080fd5b60006040828403121561472057600080fd5b614728613b8d565b905081356001600160401b038082111561474157600080fd5b61474d85838601613c85565b8352602084013591508082111561476357600080fd5b5061477084828501613c85565b60208301525092915050565b60008060006060848603121561479157600080fd5b83356001600160401b03808211156147a857600080fd5b6147b487838801613c85565b945060208601359150808211156147ca57600080fd5b6147d687838801613c85565b935060408601359150808211156147ec57600080fd5b9085019060a0828803121561480057600080fd5b614808613c1c565b614811836146f0565b815261481f602084016146ff565b602082015260408301358281111561483657600080fd5b6148428982860161470e565b60408301525060608301358281111561485a57600080fd5b614866898286016142a0565b60608301525060808301358281111561487e57600080fd5b61488a89828601613c85565b6080830152508093505050509250925092565b6040815260006148b06040830185613f77565b905082151560208301529392505050565b6000602082840312156148d357600080fd5b81356001600160401b038111156148e957600080fd5b612ac684828501613c85565b6000806000806080858703121561490b57600080fd5b84356001600160401b038082111561492257600080fd5b61492e88838901613c85565b9550602087013591508082111561494457600080fd5b61495088838901613c85565b945061495e60408801613c6e565b9350606087013591508082111561497457600080fd5b5061498187828801613d32565b91505092959194509250565b60008060008060008060006080888a0312156149a857600080fd5b87356001600160401b03808211156149bf57600080fd5b6149cb8b838c01613acb565b909950975060208a01359150808211156149e457600080fd5b6149f08b838c01613acb565b9097509550859150614a0460408b01613c6e565b945060608a0135915080821115614a1a57600080fd5b50614a278a828b01613acb565b989b979a50959850939692959293505050565b600080600080600060608688031215614a5257600080fd5b85356001600160401b0380821115614a6957600080fd5b614a7589838a01613acb565b9097509550859150614a8960208901613c6e565b94506040880135915080821115614a9f57600080fd5b50614aac88828901613acb565b969995985093965092949392505050565b8183823760009101908152919050565b81835281816020850137506000828201602090810191909152601f909101601f19169091010190565b602081526000612ac6602083018486614acd565b600060208284031215614b1c57600080fd5b5051919050565b60008251614b35818460208701613f47565b9190910192915050565b828482376000838201600081527f2d0000000000000000000000000000000000000000000000000000000000000081528351614b82816001840160208801613f47565b0160010195945050505050565b634e487b7160e01b600052601160045260246000fd5b60006001600160401b0380831681811415614bc257614bc2614b8f565b6001019392505050565b600181811c90821680614be057607f821691505b60208210811415614c0157634e487b7160e01b600052602260045260246000fd5b50919050565b634e487b7160e01b600052603260045260246000fd5b600063ffffffff80831681811415614bc257614bc2614b8f565b600060ff821660ff811415614c4e57614c4e614b8f565b60010192915050565b604081526000614c6a6040830185613f77565b82810360208401526136038185613f77565b7f6368616e6e656c2d000000000000000000000000000000000000000000000000815260008251614cb4816008850160208701613f47565b9190910160080192915050565b606081526000614cd5606083018789614acd565b8281036020840152614ce8818688614acd565b9150506001600160401b03831660408301529695505050505050565b606081526000614d176060830186613f77565b8281036020840152614d298186613f77565b9150506001600160401b0383166040830152949350505050565b7f636f6e6e656374696f6e2d000000000000000000000000000000000000000000815260008251614d7b81600b850160208701613f47565b91909101600b0192915050565b604081526000614d9c604083018587614acd565b90506001600160401b0383166020830152949350505050565b60006001600160401b0380841680614ddd57634e487b7160e01b600052601260045260246000fd5b92169190910492915050565b60006001600160401b0383811690831681811015614e0957614e09614b8f565b039392505050565b60006001600160401b0380831681851681830481118215151615614e3757614e37614b8f565b02949350505050565b600060ff821660ff84168060ff03821115614e5d57614e5d614b8f565b019392505050565b60008219821115614e7857614e78614b8f565b500190565b6000600019821415614e9157614e91614b8f565b5060010190565b600082821015614eaa57614eaa614b8f565b500390565b600181815b80851115614eea578160001904821115614ed057614ed0614b8f565b80851615614edd57918102915b93841c9390800290614eb4565b509250929050565b600082614f015750600161087b565b81614f0e5750600061087b565b8160018114614f245760028114614f2e57614f4a565b600191505061087b565b60ff841115614f3f57614f3f614b8f565b50506001821b61087b565b5060208310610133831016604e8410600b8410161715614f6d575081810a61087b565b614f778383614eaf565b8060001904821115614f8b57614f8b614b8f565b029392505050565b60006110748383614ef256fea2646970667358221220ebf2ea658ae219b7380a7dfb6b595285b871e5a884e897db3a4210aef791fb0b64736f6c63430008090033",
  "immutableReferences": {},
  "source": "pragma solidity ^0.8.9;\n\nimport \"./types/Connection.sol\";\nimport \"./types/Channel.sol\";\nimport \"./IBCIdentifier.sol\";\n\ncontract IBCHost {\n    // Commitments\n    mapping (bytes32 => bytes32) commitments;\n\n    // Store\n    mapping (string => address) clientRegistry; // clientType => clientImpl\n    mapping (string => string) clientTypes; // clientID => clientType\n    mapping (string => bytes) clientStates;\n    mapping (string => mapping(uint64 => bytes)) consensusStates;\n    mapping (string => mapping(uint64 => uint256)) processedTimes;\n    mapping (string => mapping(uint64 => uint256)) processedHeights;\n    mapping (string => ConnectionEnd.Data) connections;\n    mapping (string => mapping(string => Channel.Data)) channels;\n    mapping (string => mapping(string => uint64)) nextSequenceSends;\n    mapping (string => mapping(string => uint64)) nextSequenceRecvs;\n    mapping (string => mapping(string => uint64)) nextSequenceAcks;\n    mapping (string => mapping(string => mapping(uint64 => bool))) packetReceipts;\n    mapping (bytes => address[]) capabilities;\n    uint64 nextClientSequence;\n    uint64 nextConnectionSequence;\n    uint64 nextChannelSequence;\n\n    event GeneratedClientIdentifier(string);\n    event GeneratedConnectionIdentifier(string);\n    event GeneratedChannelIdentifier(string);\n\n    address owner;\n    address ibcModule;\n\n    uint64 expectedTimePerBlock;\n\n    constructor() public {\n        owner = msg.sender;\n    }\n\n    function setIBCModule(address ibcModule_) external {\n        require(msg.sender == owner);\n        ibcModule = ibcModule_;\n    }\n\n    function onlyIBCModule() public view {\n        require(msg.sender == ibcModule);\n    }\n\n    /// Storage accessor ///\n\n    // Client implementation registry\n\n    function setClientImpl(string calldata clientType, address clientImpl) external {\n        onlyIBCModule();\n        require(address(clientRegistry[clientType]) == address(0), \"clientImpl already exists\");\n        clientRegistry[clientType] = clientImpl;\n    }\n\n    function getClientImpl(string calldata clientType) external view returns (address, bool) {\n        return (clientRegistry[clientType], clientRegistry[clientType] != address(0));\n    }\n\n    // Client types\n\n    function setClientType(string calldata clientId, string calldata clientType) external {\n        onlyIBCModule();\n        require(bytes(clientTypes[clientId]).length == 0, \"clientId already exists\");\n        require(bytes(clientType).length > 0, \"clientType must not be empty string\");\n        clientTypes[clientId] = clientType;\n    }\n\n    function getClientType(string calldata clientId) external view returns (string memory) {\n        return clientTypes[clientId];\n    }\n\n    // ClientState\n\n    function setClientState(string calldata clientId, bytes calldata clientStateBytes) external {\n        onlyIBCModule();\n        clientStates[clientId] = clientStateBytes;\n        commitments[IBCIdentifier.clientCommitmentKey(clientId)] = keccak256(clientStateBytes);\n    }\n\n    function getClientState(string calldata clientId) external view returns (bytes memory, bool) {\n        return (clientStates[clientId], clientStates[clientId].length > 0);\n    }\n\n    // ConsensusState\n\n    function setConsensusState(string calldata clientId, uint64 height, bytes calldata consensusStateBytes) external {\n        onlyIBCModule();\n        consensusStates[clientId][height] = consensusStateBytes;\n        commitments[IBCIdentifier.consensusCommitmentKey(clientId, height)] = keccak256(consensusStateBytes);\n    }\n\n    function getConsensusState(string calldata clientId, uint64 height) external view returns (bytes memory, bool) {\n        return (consensusStates[clientId][height], consensusStates[clientId][height].length > 0);\n    }\n\n    // Processed Time/Block\n\n    function setProcessedTime(string calldata clientId, uint64 height, uint256 processedTime) external {\n        onlyIBCModule();\n        processedTimes[clientId][height] = processedTime;\n    }\n\n    function getProcessedTime(string calldata clientId, uint64 height) external view returns (uint256, bool) {\n        uint256 processedTime = processedTimes[clientId][height];\n        return (processedTime, processedTime != 0);\n    }\n\n    function setProcessedHeight(string calldata clientId, uint64 height, uint256 processedHeight) external {\n        onlyIBCModule();\n        processedHeights[clientId][height] = processedHeight;\n    }\n\n    function getProcessedHeight(string calldata clientId, uint64 height) external view returns (uint256, bool) {\n        uint256 processedHeight = processedHeights[clientId][height];\n        return (processedHeight, processedHeight != 0);\n    }\n\n    // Connection\n\n    function setConnection(string memory connectionId, ConnectionEnd.Data memory connection) public {\n        onlyIBCModule();\n        connections[connectionId].client_id = connection.client_id;\n        connections[connectionId].state = connection.state;\n        connections[connectionId].delay_period = connection.delay_period;\n        delete connections[connectionId].versions;\n        for (uint8 i = 0; i < connection.versions.length; i++) {\n            connections[connectionId].versions.push(connection.versions[i]);\n        }\n        connections[connectionId].counterparty = connection.counterparty;\n        commitments[IBCIdentifier.connectionCommitmentKey(connectionId)] = keccak256(ConnectionEnd.encode(connection));\n    }\n\n    function getConnection(string calldata connectionId) external view returns (ConnectionEnd.Data memory connection, bool) {\n        return (connections[connectionId], connections[connectionId].state != ConnectionEnd.State.STATE_UNINITIALIZED_UNSPECIFIED);\n    }\n\n    // Channel\n\n    function setChannel(string memory portId, string memory channelId, Channel.Data memory channel) public {\n        onlyIBCModule();\n        channels[portId][channelId] = channel;\n        commitments[IBCIdentifier.channelCommitmentKey(portId, channelId)] = keccak256(Channel.encode(channel));\n    }\n\n    function getChannel(string calldata portId, string calldata channelId) external view returns (Channel.Data memory channel, bool) {\n        return (channels[portId][channelId], channels[portId][channelId].state != Channel.State.STATE_UNINITIALIZED_UNSPECIFIED);\n    }\n\n    // Packet\n\n    function setNextSequenceSend(string calldata portId, string calldata channelId, uint64 sequence) external {\n        onlyIBCModule();\n        nextSequenceSends[portId][channelId] = sequence;\n    }\n\n    function getNextSequenceSend(string calldata portId, string calldata channelId) external view returns (uint64) {\n        return nextSequenceSends[portId][channelId];\n    }\n\n    function setNextSequenceRecv(string calldata portId, string calldata channelId, uint64 sequence) external {\n        onlyIBCModule();\n        nextSequenceRecvs[portId][channelId] = sequence;\n    }\n\n    function getNextSequenceRecv(string calldata portId, string calldata channelId) external view returns (uint64) {\n        return nextSequenceRecvs[portId][channelId];\n    }\n\n    function setNextSequenceAck(string calldata portId, string calldata channelId, uint64 sequence) external {\n        onlyIBCModule();\n        nextSequenceAcks[portId][channelId] = sequence;\n    }\n\n    function getNextSequenceAck(string calldata portId, string calldata channelId) external view returns (uint64) {\n        return nextSequenceAcks[portId][channelId];\n    }\n\n    function setPacketCommitment(string memory portId, string memory channelId, uint64 sequence, Packet.Data memory packet) public {\n        onlyIBCModule();\n        commitments[IBCIdentifier.packetCommitmentKey(portId, channelId, sequence)] = makePacketCommitment(packet);\n    }\n\n    function deletePacketCommitment(string calldata portId, string calldata channelId, uint64 sequence) external {\n        onlyIBCModule();\n        delete commitments[IBCIdentifier.packetCommitmentKey(portId, channelId, sequence)];\n    }\n\n    function getPacketCommitment(string calldata portId, string calldata channelId, uint64 sequence) external view returns (bytes32, bool) {\n        bytes32 commitment = commitments[IBCIdentifier.packetCommitmentKey(portId, channelId, sequence)];\n        return (commitment, commitment != bytes32(0));\n    }\n\n    function makePacketCommitment(Packet.Data memory packet) public pure returns (bytes32) {\n        // TODO serialize uint64 to bytes(big-endian)\n        return sha256(abi.encodePacked(packet.timeout_timestamp, packet.timeout_height.revision_number, packet.timeout_height.revision_height, sha256(packet.data)));\n    }\n\n    function setPacketAcknowledgementCommitment(string calldata portId, string calldata channelId, uint64 sequence, bytes calldata acknowledgement) external {\n        onlyIBCModule();\n        commitments[IBCIdentifier.packetAcknowledgementCommitmentKey(portId, channelId, sequence)] = makePacketAcknowledgementCommitment(acknowledgement);\n    }\n\n    function getPacketAcknowledgementCommitment(string calldata portId, string calldata channelId, uint64 sequence) external view returns (bytes32, bool) {\n        bytes32 commitment = commitments[IBCIdentifier.packetAcknowledgementCommitmentKey(portId, channelId, sequence)];\n        return (commitment, commitment != bytes32(0));\n    }\n\n    function makePacketAcknowledgementCommitment(bytes memory acknowledgement) public pure returns (bytes32) {\n        return sha256(acknowledgement);\n    }\n\n    function setPacketReceipt(string calldata portId, string calldata channelId, uint64 sequence) external {\n        onlyIBCModule();\n        packetReceipts[portId][channelId][sequence] = true;\n    }\n\n    function hasPacketReceipt(string calldata portId, string calldata channelId, uint64 sequence) external view returns (bool) {\n        return packetReceipts[portId][channelId][sequence];\n    }\n\n    function getExpectedTimePerBlock() external view returns (uint64) {\n        return expectedTimePerBlock;\n    }\n\n    function setExpectedTimePerBlock(uint64 expectedTimePerBlock_) external {\n        onlyIBCModule();\n        expectedTimePerBlock = expectedTimePerBlock_;\n    }\n\n    // capabilities\n\n    function claimCapability(bytes calldata name, address addr) external {\n        onlyIBCModule();\n        for (uint32 i = 0; i < capabilities[name].length; i++) {\n            require(capabilities[name][i] != addr);\n        }\n        capabilities[name].push(addr);\n    }\n\n    function authenticateCapability(bytes calldata name, address addr) external view returns (bool) {\n        onlyIBCModule();\n        for (uint32 i = 0; i < capabilities[name].length; i++) {\n            if (capabilities[name][i] == addr) {\n                return true;\n            }\n        }\n        return false;\n    }\n\n    function getModuleOwner(bytes calldata name) external view returns (address, bool) {\n        if (capabilities[name].length == 0) {\n            return (address(0), false);\n        }\n        return (capabilities[name][0], true);\n    }\n\n    /// Identifier generators ///\n\n    function generateClientIdentifier(string calldata clientType) external returns (string memory) {\n        onlyIBCModule();\n        string memory identifier = string(abi.encodePacked(clientType, \"-\", uint2str(nextClientSequence)));\n        nextClientSequence++;\n        emit GeneratedClientIdentifier(identifier);\n        return identifier;\n    }\n\n    function generateConnectionIdentifier() external returns (string memory) {\n        onlyIBCModule();\n        string memory identifier = string(abi.encodePacked(\"connection-\", uint2str(nextConnectionSequence)));\n        nextConnectionSequence++;\n        emit GeneratedConnectionIdentifier(identifier);\n        return identifier;\n    }\n\n    function generateChannelIdentifier() external returns (string memory) {\n        onlyIBCModule();\n        string memory identifier = string(abi.encodePacked(\"channel-\", uint2str(nextChannelSequence)));\n        nextChannelSequence++;\n        emit GeneratedChannelIdentifier(identifier);\n        return identifier;\n    }\n\n    function uint2str(uint64 _i) internal pure returns (string memory _uintAsString) {\n        if (_i == 0) {\n            return \"0\";\n        }\n        uint64 j = _i;\n        uint64 len;\n        while (j != 0) {\n            len++;\n            j /= 10;\n        }\n        bytes memory bstr = new bytes(len);\n        uint64 k = len;\n        while (_i != 0) {\n            k = k-1;\n            uint8 temp = (48 + uint8(_i - _i / 10 * 10));\n            bytes1 b1 = bytes1(temp);\n            bstr[k] = b1;\n            _i /= 10;\n        }\n        return string(bstr);\n    }\n}\n",
  "sourcePath": "/home/rogelio/Code/ancon-protocol/ethereum/contracts/yui-ibc-solidity/core/IBCHost.sol",
  "compiler": {
    "name": "solc",
    "version": "0.8.9+commit.e5eed63a.Emscripten.clang"
  },
  "schemaVersion": "3.4.0",
  "updatedAt": "2021-11-02T12:42:58.312Z",
  "networkType": "ethereum",
  "devdoc": {
    "kind": "dev",
    "methods": {},
    "version": 1
  },
  "userdoc": {
    "kind": "user",
    "methods": {
      "generateClientIdentifier(string)": {
        "notice": "Identifier generators ///"
      },
      "setClientImpl(string,address)": {
        "notice": "Storage accessor ///"
      }
    },
    "version": 1
  }
}