{
  "contractName": "IBCHandler",
  "abi": [
    {
      "inputs": [
        {
          "internalType": "contract IBCHost",
          "name": "host_",
          "type": "address"
        }
      ],
      "stateMutability": "nonpayable",
      "type": "constructor"
    },
    {
      "anonymous": false,
      "inputs": [
        {
          "components": [
            {
              "internalType": "uint64",
              "name": "sequence",
              "type": "uint64"
            },
            {
              "internalType": "string",
              "name": "source_port",
              "type": "string"
            },
            {
              "internalType": "string",
              "name": "source_channel",
              "type": "string"
            },
            {
              "internalType": "string",
              "name": "destination_port",
              "type": "string"
            },
            {
              "internalType": "string",
              "name": "destination_channel",
              "type": "string"
            },
            {
              "internalType": "bytes",
              "name": "data",
              "type": "bytes"
            },
            {
              "components": [
                {
                  "internalType": "uint64",
                  "name": "revision_number",
                  "type": "uint64"
                },
                {
                  "internalType": "uint64",
                  "name": "revision_height",
                  "type": "uint64"
                }
              ],
              "internalType": "struct Height.Data",
              "name": "timeout_height",
              "type": "tuple"
            },
            {
              "internalType": "uint64",
              "name": "timeout_timestamp",
              "type": "uint64"
            }
          ],
          "indexed": false,
          "internalType": "struct Packet.Data",
          "name": "packet",
          "type": "tuple"
        },
        {
          "indexed": false,
          "internalType": "bytes",
          "name": "acknowledgement",
          "type": "bytes"
        }
      ],
      "name": "AcknowledgePacket",
      "type": "event"
    },
    {
      "anonymous": false,
      "inputs": [
        {
          "components": [
            {
              "internalType": "uint64",
              "name": "sequence",
              "type": "uint64"
            },
            {
              "internalType": "string",
              "name": "source_port",
              "type": "string"
            },
            {
              "internalType": "string",
              "name": "source_channel",
              "type": "string"
            },
            {
              "internalType": "string",
              "name": "destination_port",
              "type": "string"
            },
            {
              "internalType": "string",
              "name": "destination_channel",
              "type": "string"
            },
            {
              "internalType": "bytes",
              "name": "data",
              "type": "bytes"
            },
            {
              "components": [
                {
                  "internalType": "uint64",
                  "name": "revision_number",
                  "type": "uint64"
                },
                {
                  "internalType": "uint64",
                  "name": "revision_height",
                  "type": "uint64"
                }
              ],
              "internalType": "struct Height.Data",
              "name": "timeout_height",
              "type": "tuple"
            },
            {
              "internalType": "uint64",
              "name": "timeout_timestamp",
              "type": "uint64"
            }
          ],
          "indexed": false,
          "internalType": "struct Packet.Data",
          "name": "packet",
          "type": "tuple"
        }
      ],
      "name": "RecvPacket",
      "type": "event"
    },
    {
      "anonymous": false,
      "inputs": [
        {
          "components": [
            {
              "internalType": "uint64",
              "name": "sequence",
              "type": "uint64"
            },
            {
              "internalType": "string",
              "name": "source_port",
              "type": "string"
            },
            {
              "internalType": "string",
              "name": "source_channel",
              "type": "string"
            },
            {
              "internalType": "string",
              "name": "destination_port",
              "type": "string"
            },
            {
              "internalType": "string",
              "name": "destination_channel",
              "type": "string"
            },
            {
              "internalType": "bytes",
              "name": "data",
              "type": "bytes"
            },
            {
              "components": [
                {
                  "internalType": "uint64",
                  "name": "revision_number",
                  "type": "uint64"
                },
                {
                  "internalType": "uint64",
                  "name": "revision_height",
                  "type": "uint64"
                }
              ],
              "internalType": "struct Height.Data",
              "name": "timeout_height",
              "type": "tuple"
            },
            {
              "internalType": "uint64",
              "name": "timeout_timestamp",
              "type": "uint64"
            }
          ],
          "indexed": false,
          "internalType": "struct Packet.Data",
          "name": "packet",
          "type": "tuple"
        }
      ],
      "name": "SendPacket",
      "type": "event"
    },
    {
      "anonymous": false,
      "inputs": [
        {
          "indexed": false,
          "internalType": "string",
          "name": "destinationPortId",
          "type": "string"
        },
        {
          "indexed": false,
          "internalType": "string",
          "name": "destinationChannel",
          "type": "string"
        },
        {
          "indexed": false,
          "internalType": "uint64",
          "name": "sequence",
          "type": "uint64"
        },
        {
          "indexed": false,
          "internalType": "bytes",
          "name": "acknowledgement",
          "type": "bytes"
        }
      ],
      "name": "WriteAcknowledgement",
      "type": "event"
    },
    {
      "inputs": [],
      "name": "getHostAddress",
      "outputs": [
        {
          "internalType": "address",
          "name": "",
          "type": "address"
        }
      ],
      "stateMutability": "view",
      "type": "function"
    },
    {
      "inputs": [
        {
          "internalType": "string",
          "name": "clientType",
          "type": "string"
        },
        {
          "internalType": "contract IClient",
          "name": "client",
          "type": "address"
        }
      ],
      "name": "registerClient",
      "outputs": [],
      "stateMutability": "nonpayable",
      "type": "function"
    },
    {
      "inputs": [
        {
          "components": [
            {
              "internalType": "string",
              "name": "clientType",
              "type": "string"
            },
            {
              "internalType": "uint64",
              "name": "height",
              "type": "uint64"
            },
            {
              "internalType": "bytes",
              "name": "clientStateBytes",
              "type": "bytes"
            },
            {
              "internalType": "bytes",
              "name": "consensusStateBytes",
              "type": "bytes"
            }
          ],
          "internalType": "struct IBCMsgs.MsgCreateClient",
          "name": "msg_",
          "type": "tuple"
        }
      ],
      "name": "createClient",
      "outputs": [],
      "stateMutability": "nonpayable",
      "type": "function"
    },
    {
      "inputs": [
        {
          "components": [
            {
              "internalType": "string",
              "name": "clientId",
              "type": "string"
            },
            {
              "internalType": "bytes",
              "name": "header",
              "type": "bytes"
            }
          ],
          "internalType": "struct IBCMsgs.MsgUpdateClient",
          "name": "msg_",
          "type": "tuple"
        }
      ],
      "name": "updateClient",
      "outputs": [],
      "stateMutability": "nonpayable",
      "type": "function"
    },
    {
      "inputs": [
        {
          "components": [
            {
              "internalType": "string",
              "name": "clientId",
              "type": "string"
            },
            {
              "components": [
                {
                  "internalType": "string",
                  "name": "client_id",
                  "type": "string"
                },
                {
                  "internalType": "string",
                  "name": "connection_id",
                  "type": "string"
                },
                {
                  "components": [
                    {
                      "internalType": "bytes",
                      "name": "key_prefix",
                      "type": "bytes"
                    }
                  ],
                  "internalType": "struct MerklePrefix.Data",
                  "name": "prefix",
                  "type": "tuple"
                }
              ],
              "internalType": "struct Counterparty.Data",
              "name": "counterparty",
              "type": "tuple"
            },
            {
              "internalType": "uint64",
              "name": "delayPeriod",
              "type": "uint64"
            }
          ],
          "internalType": "struct IBCMsgs.MsgConnectionOpenInit",
          "name": "msg_",
          "type": "tuple"
        }
      ],
      "name": "connectionOpenInit",
      "outputs": [
        {
          "internalType": "string",
          "name": "",
          "type": "string"
        }
      ],
      "stateMutability": "nonpayable",
      "type": "function"
    },
    {
      "inputs": [
        {
          "components": [
            {
              "internalType": "string",
              "name": "previousConnectionId",
              "type": "string"
            },
            {
              "components": [
                {
                  "internalType": "string",
                  "name": "client_id",
                  "type": "string"
                },
                {
                  "internalType": "string",
                  "name": "connection_id",
                  "type": "string"
                },
                {
                  "components": [
                    {
                      "internalType": "bytes",
                      "name": "key_prefix",
                      "type": "bytes"
                    }
                  ],
                  "internalType": "struct MerklePrefix.Data",
                  "name": "prefix",
                  "type": "tuple"
                }
              ],
              "internalType": "struct Counterparty.Data",
              "name": "counterparty",
              "type": "tuple"
            },
            {
              "internalType": "uint64",
              "name": "delayPeriod",
              "type": "uint64"
            },
            {
              "internalType": "string",
              "name": "clientId",
              "type": "string"
            },
            {
              "internalType": "bytes",
              "name": "clientStateBytes",
              "type": "bytes"
            },
            {
              "components": [
                {
                  "internalType": "string",
                  "name": "identifier",
                  "type": "string"
                },
                {
                  "internalType": "string[]",
                  "name": "features",
                  "type": "string[]"
                }
              ],
              "internalType": "struct Version.Data[]",
              "name": "counterpartyVersions",
              "type": "tuple[]"
            },
            {
              "internalType": "bytes",
              "name": "proofInit",
              "type": "bytes"
            },
            {
              "internalType": "bytes",
              "name": "proofClient",
              "type": "bytes"
            },
            {
              "internalType": "bytes",
              "name": "proofConsensus",
              "type": "bytes"
            },
            {
              "internalType": "uint64",
              "name": "proofHeight",
              "type": "uint64"
            },
            {
              "internalType": "uint64",
              "name": "consensusHeight",
              "type": "uint64"
            }
          ],
          "internalType": "struct IBCMsgs.MsgConnectionOpenTry",
          "name": "msg_",
          "type": "tuple"
        }
      ],
      "name": "connectionOpenTry",
      "outputs": [
        {
          "internalType": "string",
          "name": "",
          "type": "string"
        }
      ],
      "stateMutability": "nonpayable",
      "type": "function"
    },
    {
      "inputs": [
        {
          "components": [
            {
              "internalType": "string",
              "name": "connectionId",
              "type": "string"
            },
            {
              "internalType": "bytes",
              "name": "clientStateBytes",
              "type": "bytes"
            },
            {
              "components": [
                {
                  "internalType": "string",
                  "name": "identifier",
                  "type": "string"
                },
                {
                  "internalType": "string[]",
                  "name": "features",
                  "type": "string[]"
                }
              ],
              "internalType": "struct Version.Data",
              "name": "version",
              "type": "tuple"
            },
            {
              "internalType": "string",
              "name": "counterpartyConnectionID",
              "type": "string"
            },
            {
              "internalType": "bytes",
              "name": "proofTry",
              "type": "bytes"
            },
            {
              "internalType": "bytes",
              "name": "proofClient",
              "type": "bytes"
            },
            {
              "internalType": "bytes",
              "name": "proofConsensus",
              "type": "bytes"
            },
            {
              "internalType": "uint64",
              "name": "proofHeight",
              "type": "uint64"
            },
            {
              "internalType": "uint64",
              "name": "consensusHeight",
              "type": "uint64"
            }
          ],
          "internalType": "struct IBCMsgs.MsgConnectionOpenAck",
          "name": "msg_",
          "type": "tuple"
        }
      ],
      "name": "connectionOpenAck",
      "outputs": [],
      "stateMutability": "nonpayable",
      "type": "function"
    },
    {
      "inputs": [
        {
          "components": [
            {
              "internalType": "string",
              "name": "connectionId",
              "type": "string"
            },
            {
              "internalType": "bytes",
              "name": "proofAck",
              "type": "bytes"
            },
            {
              "internalType": "uint64",
              "name": "proofHeight",
              "type": "uint64"
            }
          ],
          "internalType": "struct IBCMsgs.MsgConnectionOpenConfirm",
          "name": "msg_",
          "type": "tuple"
        }
      ],
      "name": "connectionOpenConfirm",
      "outputs": [],
      "stateMutability": "nonpayable",
      "type": "function"
    },
    {
      "inputs": [
        {
          "components": [
            {
              "internalType": "string",
              "name": "portId",
              "type": "string"
            },
            {
              "components": [
                {
                  "internalType": "enum Channel.State",
                  "name": "state",
                  "type": "uint8"
                },
                {
                  "internalType": "enum Channel.Order",
                  "name": "ordering",
                  "type": "uint8"
                },
                {
                  "components": [
                    {
                      "internalType": "string",
                      "name": "port_id",
                      "type": "string"
                    },
                    {
                      "internalType": "string",
                      "name": "channel_id",
                      "type": "string"
                    }
                  ],
                  "internalType": "struct ChannelCounterparty.Data",
                  "name": "counterparty",
                  "type": "tuple"
                },
                {
                  "internalType": "string[]",
                  "name": "connection_hops",
                  "type": "string[]"
                },
                {
                  "internalType": "string",
                  "name": "version",
                  "type": "string"
                }
              ],
              "internalType": "struct Channel.Data",
              "name": "channel",
              "type": "tuple"
            }
          ],
          "internalType": "struct IBCMsgs.MsgChannelOpenInit",
          "name": "msg_",
          "type": "tuple"
        }
      ],
      "name": "channelOpenInit",
      "outputs": [
        {
          "internalType": "string",
          "name": "",
          "type": "string"
        }
      ],
      "stateMutability": "nonpayable",
      "type": "function"
    },
    {
      "inputs": [
        {
          "components": [
            {
              "internalType": "string",
              "name": "portId",
              "type": "string"
            },
            {
              "internalType": "string",
              "name": "previousChannelId",
              "type": "string"
            },
            {
              "components": [
                {
                  "internalType": "enum Channel.State",
                  "name": "state",
                  "type": "uint8"
                },
                {
                  "internalType": "enum Channel.Order",
                  "name": "ordering",
                  "type": "uint8"
                },
                {
                  "components": [
                    {
                      "internalType": "string",
                      "name": "port_id",
                      "type": "string"
                    },
                    {
                      "internalType": "string",
                      "name": "channel_id",
                      "type": "string"
                    }
                  ],
                  "internalType": "struct ChannelCounterparty.Data",
                  "name": "counterparty",
                  "type": "tuple"
                },
                {
                  "internalType": "string[]",
                  "name": "connection_hops",
                  "type": "string[]"
                },
                {
                  "internalType": "string",
                  "name": "version",
                  "type": "string"
                }
              ],
              "internalType": "struct Channel.Data",
              "name": "channel",
              "type": "tuple"
            },
            {
              "internalType": "string",
              "name": "counterpartyVersion",
              "type": "string"
            },
            {
              "internalType": "bytes",
              "name": "proofInit",
              "type": "bytes"
            },
            {
              "internalType": "uint64",
              "name": "proofHeight",
              "type": "uint64"
            }
          ],
          "internalType": "struct IBCMsgs.MsgChannelOpenTry",
          "name": "msg_",
          "type": "tuple"
        }
      ],
      "name": "channelOpenTry",
      "outputs": [
        {
          "internalType": "string",
          "name": "",
          "type": "string"
        }
      ],
      "stateMutability": "nonpayable",
      "type": "function"
    },
    {
      "inputs": [
        {
          "components": [
            {
              "internalType": "string",
              "name": "portId",
              "type": "string"
            },
            {
              "internalType": "string",
              "name": "channelId",
              "type": "string"
            },
            {
              "internalType": "string",
              "name": "counterpartyVersion",
              "type": "string"
            },
            {
              "internalType": "string",
              "name": "counterpartyChannelId",
              "type": "string"
            },
            {
              "internalType": "bytes",
              "name": "proofTry",
              "type": "bytes"
            },
            {
              "internalType": "uint64",
              "name": "proofHeight",
              "type": "uint64"
            }
          ],
          "internalType": "struct IBCMsgs.MsgChannelOpenAck",
          "name": "msg_",
          "type": "tuple"
        }
      ],
      "name": "channelOpenAck",
      "outputs": [],
      "stateMutability": "nonpayable",
      "type": "function"
    },
    {
      "inputs": [
        {
          "components": [
            {
              "internalType": "string",
              "name": "portId",
              "type": "string"
            },
            {
              "internalType": "string",
              "name": "channelId",
              "type": "string"
            },
            {
              "internalType": "bytes",
              "name": "proofAck",
              "type": "bytes"
            },
            {
              "internalType": "uint64",
              "name": "proofHeight",
              "type": "uint64"
            }
          ],
          "internalType": "struct IBCMsgs.MsgChannelOpenConfirm",
          "name": "msg_",
          "type": "tuple"
        }
      ],
      "name": "channelOpenConfirm",
      "outputs": [],
      "stateMutability": "nonpayable",
      "type": "function"
    },
    {
      "inputs": [
        {
          "components": [
            {
              "internalType": "string",
              "name": "portId",
              "type": "string"
            },
            {
              "internalType": "string",
              "name": "channelId",
              "type": "string"
            }
          ],
          "internalType": "struct IBCMsgs.MsgChannelCloseInit",
          "name": "msg_",
          "type": "tuple"
        }
      ],
      "name": "channelCloseInit",
      "outputs": [],
      "stateMutability": "nonpayable",
      "type": "function"
    },
    {
      "inputs": [
        {
          "components": [
            {
              "internalType": "string",
              "name": "portId",
              "type": "string"
            },
            {
              "internalType": "string",
              "name": "channelId",
              "type": "string"
            },
            {
              "internalType": "bytes",
              "name": "proofInit",
              "type": "bytes"
            },
            {
              "internalType": "uint64",
              "name": "proofHeight",
              "type": "uint64"
            }
          ],
          "internalType": "struct IBCMsgs.MsgChannelCloseConfirm",
          "name": "msg_",
          "type": "tuple"
        }
      ],
      "name": "channelCloseConfirm",
      "outputs": [],
      "stateMutability": "nonpayable",
      "type": "function"
    },
    {
      "inputs": [
        {
          "components": [
            {
              "internalType": "uint64",
              "name": "sequence",
              "type": "uint64"
            },
            {
              "internalType": "string",
              "name": "source_port",
              "type": "string"
            },
            {
              "internalType": "string",
              "name": "source_channel",
              "type": "string"
            },
            {
              "internalType": "string",
              "name": "destination_port",
              "type": "string"
            },
            {
              "internalType": "string",
              "name": "destination_channel",
              "type": "string"
            },
            {
              "internalType": "bytes",
              "name": "data",
              "type": "bytes"
            },
            {
              "components": [
                {
                  "internalType": "uint64",
                  "name": "revision_number",
                  "type": "uint64"
                },
                {
                  "internalType": "uint64",
                  "name": "revision_height",
                  "type": "uint64"
                }
              ],
              "internalType": "struct Height.Data",
              "name": "timeout_height",
              "type": "tuple"
            },
            {
              "internalType": "uint64",
              "name": "timeout_timestamp",
              "type": "uint64"
            }
          ],
          "internalType": "struct Packet.Data",
          "name": "packet",
          "type": "tuple"
        }
      ],
      "name": "sendPacket",
      "outputs": [],
      "stateMutability": "nonpayable",
      "type": "function"
    },
    {
      "inputs": [
        {
          "components": [
            {
              "components": [
                {
                  "internalType": "uint64",
                  "name": "sequence",
                  "type": "uint64"
                },
                {
                  "internalType": "string",
                  "name": "source_port",
                  "type": "string"
                },
                {
                  "internalType": "string",
                  "name": "source_channel",
                  "type": "string"
                },
                {
                  "internalType": "string",
                  "name": "destination_port",
                  "type": "string"
                },
                {
                  "internalType": "string",
                  "name": "destination_channel",
                  "type": "string"
                },
                {
                  "internalType": "bytes",
                  "name": "data",
                  "type": "bytes"
                },
                {
                  "components": [
                    {
                      "internalType": "uint64",
                      "name": "revision_number",
                      "type": "uint64"
                    },
                    {
                      "internalType": "uint64",
                      "name": "revision_height",
                      "type": "uint64"
                    }
                  ],
                  "internalType": "struct Height.Data",
                  "name": "timeout_height",
                  "type": "tuple"
                },
                {
                  "internalType": "uint64",
                  "name": "timeout_timestamp",
                  "type": "uint64"
                }
              ],
              "internalType": "struct Packet.Data",
              "name": "packet",
              "type": "tuple"
            },
            {
              "internalType": "bytes",
              "name": "proof",
              "type": "bytes"
            },
            {
              "internalType": "uint64",
              "name": "proofHeight",
              "type": "uint64"
            }
          ],
          "internalType": "struct IBCMsgs.MsgPacketRecv",
          "name": "msg_",
          "type": "tuple"
        }
      ],
      "name": "recvPacket",
      "outputs": [
        {
          "internalType": "bytes",
          "name": "acknowledgement",
          "type": "bytes"
        }
      ],
      "stateMutability": "nonpayable",
      "type": "function"
    },
    {
      "inputs": [
        {
          "internalType": "string",
          "name": "destinationPortId",
          "type": "string"
        },
        {
          "internalType": "string",
          "name": "destinationChannel",
          "type": "string"
        },
        {
          "internalType": "uint64",
          "name": "sequence",
          "type": "uint64"
        },
        {
          "internalType": "bytes",
          "name": "acknowledgement",
          "type": "bytes"
        }
      ],
      "name": "writeAcknowledgement",
      "outputs": [],
      "stateMutability": "nonpayable",
      "type": "function"
    },
    {
      "inputs": [
        {
          "components": [
            {
              "components": [
                {
                  "internalType": "uint64",
                  "name": "sequence",
                  "type": "uint64"
                },
                {
                  "internalType": "string",
                  "name": "source_port",
                  "type": "string"
                },
                {
                  "internalType": "string",
                  "name": "source_channel",
                  "type": "string"
                },
                {
                  "internalType": "string",
                  "name": "destination_port",
                  "type": "string"
                },
                {
                  "internalType": "string",
                  "name": "destination_channel",
                  "type": "string"
                },
                {
                  "internalType": "bytes",
                  "name": "data",
                  "type": "bytes"
                },
                {
                  "components": [
                    {
                      "internalType": "uint64",
                      "name": "revision_number",
                      "type": "uint64"
                    },
                    {
                      "internalType": "uint64",
                      "name": "revision_height",
                      "type": "uint64"
                    }
                  ],
                  "internalType": "struct Height.Data",
                  "name": "timeout_height",
                  "type": "tuple"
                },
                {
                  "internalType": "uint64",
                  "name": "timeout_timestamp",
                  "type": "uint64"
                }
              ],
              "internalType": "struct Packet.Data",
              "name": "packet",
              "type": "tuple"
            },
            {
              "internalType": "bytes",
              "name": "acknowledgement",
              "type": "bytes"
            },
            {
              "internalType": "bytes",
              "name": "proof",
              "type": "bytes"
            },
            {
              "internalType": "uint64",
              "name": "proofHeight",
              "type": "uint64"
            }
          ],
          "internalType": "struct IBCMsgs.MsgPacketAcknowledgement",
          "name": "msg_",
          "type": "tuple"
        }
      ],
      "name": "acknowledgePacket",
      "outputs": [],
      "stateMutability": "nonpayable",
      "type": "function"
    },
    {
      "inputs": [
        {
          "internalType": "string",
          "name": "portId",
          "type": "string"
        },
        {
          "internalType": "address",
          "name": "moduleAddress",
          "type": "address"
        }
      ],
      "name": "bindPort",
      "outputs": [],
      "stateMutability": "nonpayable",
      "type": "function"
    },
    {
      "inputs": [
        {
          "internalType": "uint64",
          "name": "expectedTimePerBlock_",
          "type": "uint64"
        }
      ],
      "name": "setExpectedTimePerBlock",
      "outputs": [],
      "stateMutability": "nonpayable",
      "type": "function"
    }
  ],
  "bytecode": "0x60806040523480156200001157600080fd5b5060405162003c1938038062003c19833981016040819052620000349162000068565b60008054336001600160a01b031991821617909155600180549091166001600160a01b03929092169190911790556200009a565b6000602082840312156200007b57600080fd5b81516001600160a01b03811681146200009357600080fd5b9392505050565b613b6f80620000aa6000396000f3fe608060405234801561001057600080fd5b506004361061016c5760003560e01c8063a06cb3a2116100cd578063e2b5827d11610081578063eb238c7711610066578063eb238c77146102cc578063ec0cda87146102e7578063fa044e8f146102fa57600080fd5b8063e2b5827d146102a6578063e46ea828146102b957600080fd5b8063b56e79de116100b2578063b56e79de1461026d578063da6cea5514610280578063dd3469fc1461029357600080fd5b8063a06cb3a214610247578063a3af5cf31461025a57600080fd5b806327184c131161012457806356a5dc5a1161010957806356a5dc5a1461020e5780636cf60640146102215780639e6d49591461023457600080fd5b806327184c13146101e857806340835e44146101fb57600080fd5b8063117e886a11610155578063117e886a146101af578063147aec7f146101c257806318c19870146101d557600080fd5b806301c6400f14610171578063102f80911461019a575b600080fd5b61018461017f366004611d4e565b61030d565b6040516101919190611e4c565b60405180910390f35b6101ad6101a8366004611f26565b6103c9565b005b6101ad6101bd366004611f7b565b6104e6565b6101846101d036600461216b565b6105e2565b6101ad6101e336600461235b565b610644565b6101ad6101f63660046123b2565b6106f1565b6101ad6102093660046123cd565b61074c565b61018461021c366004612540565b610942565b6101ad61022f36600461264e565b610ba7565b6101ad610242366004611f26565b610c30565b6101ad6102553660046127ac565b610d18565b6101846102683660046127e1565b610e00565b6101ad61027b36600461281c565b611162565b6101ad61028e3660046128ca565b611364565b6101846102a1366004612905565b6113c1565b6101ad6102b43660046129ae565b6114f0565b6101ad6102c73660046129e3565b61154d565b6001546040516001600160a01b039091168152602001610191565b6101ad6102f5366004612a89565b611622565b6101ad6103083660046129ae565b61167f565b6001546040517f6046ff5100000000000000000000000000000000000000000000000000000000815260609173__IBCConnection_________________________91636046ff519161036f916001600160a01b03909116908690600401612b67565b60006040518083038186803b15801561038757600080fd5b505af415801561039b573d6000803e3d6000fd5b505050506040513d6000823e601f3d908101601f191682016040526103c39190810190612c01565b92915050565b6001546040517faa9208a700000000000000000000000000000000000000000000000000000000815273__IBCChannel____________________________9163aa9208a791610426916001600160a01b0316908590600401612cb3565b60006040518083038186803b15801561043e57600080fd5b505af4158015610452573d6000803e3d6000fd5b505050506104638160000151611846565b815160208301516040517fef4776d20000000000000000000000000000000000000000000000000000000081526001600160a01b03939093169263ef4776d2926104b1929091600401612cd5565b600060405180830381600087803b1580156104cb57600080fd5b505af11580156104df573d6000803e3d6000fd5b5050505050565b6104ee61196b565b60015460405163012b86d760e51b81526001600160a01b039091169063be3d6e929073__IBCIdentifier_________________________90632570dae09061053a908790600401611e4c565b60006040518083038186803b15801561055257600080fd5b505af4158015610566573d6000803e3d6000fd5b505050506040513d6000823e601f3d908101601f1916820160405261058e9190810190612c01565b836040518363ffffffff1660e01b81526004016105ac929190612cfa565b600060405180830381600087803b1580156105c657600080fd5b505af11580156105da573d6000803e3d6000fd5b505050505050565b6001546040517f42725ef600000000000000000000000000000000000000000000000000000000815260609173__IBCConnection_________________________916342725ef69161036f916001600160a01b03909116908690600401612df0565b6000546001600160a01b0316331461065b57600080fd5b6001546040517f2b37b7c100000000000000000000000000000000000000000000000000000000815273__IBCClient_____________________________91632b37b7c1916106bc916001600160a01b031690879087908790600401612f76565b60006040518083038186803b1580156106d457600080fd5b505af41580156106e8573d6000803e3d6000fd5b50505050505050565b6106f961196b565b6001546040517f27184c1300000000000000000000000000000000000000000000000000000000815267ffffffffffffffff831660048201526001600160a01b03909116906327184c13906024016104b1565b6001546001600160a01b0316632d46858f73__IBCIdentifier_________________________633bc3339f6107846020860186612fae565b6107916040880188612fae565b6040518563ffffffff1660e01b81526004016107b09493929190612ff5565b60006040518083038186803b1580156107c857600080fd5b505af41580156107dc573d6000803e3d6000fd5b505050506040513d6000823e601f3d908101601f191682016040526108049190810190612c01565b336040518363ffffffff1660e01b8152600401610822929190612cfa565b60206040518083038186803b15801561083a57600080fd5b505afa15801561084e573d6000803e3d6000fd5b505050506040513d601f19601f820116820180604052508101906108729190613037565b61087b57600080fd5b6001546040517f0a48b8a600000000000000000000000000000000000000000000000000000000815273__IBCChannel____________________________91630a48b8a6916108d8916001600160a01b03169085906004016131cf565b60006040518083038186803b1580156108f057600080fd5b505af4158015610904573d6000803e3d6000fd5b505050507fe701f25bda8992b211749f81adb9a8ea6e8cf8a3c9f2e29ed496e6c5f059154c8160405161093791906131f1565b60405180910390a150565b6001546040517fb1d534ac00000000000000000000000000000000000000000000000000000000815260609160009173__IBCChannel____________________________9163b1d534ac916109a5916001600160a01b03169087906004016132d3565b60006040518083038186803b1580156109bd57600080fd5b505af41580156109d1573d6000803e3d6000fd5b505050506040513d6000823e601f3d908101601f191682016040526109f99190810190612c01565b90506000610a0a8460000151611846565b6040808601516020810151606080830151895184860151608090950151928b015195517f981389f20000000000000000000000000000000000000000000000000000000081529697506001600160a01b0388169663981389f296610a7b96939492938b939092909190600401613397565b600060405180830381600087803b158015610a9557600080fd5b505af1158015610aa9573d6000803e3d6000fd5b50506001548651604051633bc3339f60e01b81526001600160a01b03909216935063be3d6e92925073__IBCIdentifier_________________________91633bc3339f91610afb918890600401612cd5565b60006040518083038186803b158015610b1357600080fd5b505af4158015610b27573d6000803e3d6000fd5b505050506040513d6000823e601f3d908101601f19168201604052610b4f9190810190612c01565b836040518363ffffffff1660e01b8152600401610b6d929190612cfa565b600060405180830381600087803b158015610b8757600080fd5b505af1158015610b9b573d6000803e3d6000fd5b50939695505050505050565b6001546040517f8ef4f1b600000000000000000000000000000000000000000000000000000000815273__IBCConnection_________________________91638ef4f1b691610c04916001600160a01b0316908590600401613427565b60006040518083038186803b158015610c1c57600080fd5b505af41580156104df573d6000803e3d6000fd5b6001546040517fc39e08d200000000000000000000000000000000000000000000000000000000815273__IBCChannel____________________________9163c39e08d291610c8d916001600160a01b0316908590600401612cb3565b60006040518083038186803b158015610ca557600080fd5b505af4158015610cb9573d6000803e3d6000fd5b50505050610cca8160000151611846565b815160208301516040517fa113e4110000000000000000000000000000000000000000000000000000000081526001600160a01b03939093169263a113e411926104b1929091600401612cd5565b6001546040517fd24b868700000000000000000000000000000000000000000000000000000000815273__IBCChannel____________________________9163d24b868791610d75916001600160a01b0316908590600401613542565b60006040518083038186803b158015610d8d57600080fd5b505af4158015610da1573d6000803e3d6000fd5b50505050610db28160000151611846565b815160208301516040517fe74a1ac20000000000000000000000000000000000000000000000000000000081526001600160a01b03939093169263e74a1ac2926104b1929091600401612cd5565b60606000610ea8610e118480613564565b610e1f906060810190612fae565b8080601f016020809104026020016040519081016040528093929190818152602001838380828437600092019190915250610e609250879150819050613564565b610e6e906080810190612fae565b8080601f01602080910402602001604051908101604052809392919081815260200183838082843760009201919091525061198492505050565b90506001600160a01b038116635550b656610ec38580613564565b6040518263ffffffff1660e01b8152600401610edf91906131f1565b600060405180830381600087803b158015610ef957600080fd5b505af1158015610f0d573d6000803e3d6000fd5b505050506040513d6000823e601f3d908101601f19168201604052610f359190810190612c01565b6001546040517fb5d6d6f900000000000000000000000000000000000000000000000000000000815291935073__IBCChannel____________________________9163b5d6d6f991610f97916001600160a01b039091169087906004016135a5565b60006040518083038186803b158015610faf57600080fd5b505af4158015610fc3573d6000803e3d6000fd5b5050505060008251111561111c5760015473__IBCChannel____________________________90630badf100906001600160a01b03166110038680613564565b611011906060810190612fae565b61101b8880613564565b611029906080810190612fae565b6110338a80613564565b6110419060208101906123b2565b896040518863ffffffff1660e01b81526004016110649796959493929190613628565b60006040518083038186803b15801561107c57600080fd5b505af4158015611090573d6000803e3d6000fd5b507f39b14668930c816f244f4073c0fdf459d3dd73ae571b57b3efe8205919472d2a92506110c2915085905080613564565b6110d0906060810190612fae565b6110da8680613564565b6110e8906080810190612fae565b6110f28880613564565b6111009060208101906123b2565b8760405161111396959493929190613682565b60405180910390a15b7f346f4351ee865d86a679d00f3995f0520f803d3a227604af08430e26e9345a7a6111478480613564565b60405161115491906131f1565b60405180910390a150919050565b600154604051633bc3339f60e01b81526001600160a01b0390911690632d46858f9073__IBCIdentifier_________________________90633bc3339f906111b4908c908c908c908c90600401612ff5565b60006040518083038186803b1580156111cc57600080fd5b505af41580156111e0573d6000803e3d6000fd5b505050506040513d6000823e601f3d908101601f191682016040526112089190810190612c01565b336040518363ffffffff1660e01b8152600401611226929190612cfa565b60206040518083038186803b15801561123e57600080fd5b505afa158015611252573d6000803e3d6000fd5b505050506040513d601f19601f820116820180604052508101906112769190613037565b61127f57600080fd5b6001546040517f0badf10000000000000000000000000000000000000000000000000000000000815273__IBCChannel____________________________91630badf100916112e8916001600160a01b0316908b908b908b908b908b908b908b906004016136da565b60006040518083038186803b15801561130057600080fd5b505af4158015611314573d6000803e3d6000fd5b505050507f39b14668930c816f244f4073c0fdf459d3dd73ae571b57b3efe8205919472d2a878787878787876040516113539796959493929190613744565b60405180910390a150505050505050565b6001546040517f854414f000000000000000000000000000000000000000000000000000000000815273__IBCClient_____________________________9163854414f091610c04916001600160a01b0316908590600401613790565b6001546040517f20d98d5300000000000000000000000000000000000000000000000000000000815260609160009173__IBCChannel____________________________916320d98d5391611424916001600160a01b03169087906004016137ea565b60006040518083038186803b15801561143c57600080fd5b505af4158015611450573d6000803e3d6000fd5b505050506040513d6000823e601f3d908101601f191682016040526114789190810190612c01565b905060006114898460000151611846565b602080860151908101516060820151875160408085015160809095015190517f44dd96380000000000000000000000000000000000000000000000000000000081529596506001600160a01b038716956344dd963895610a7b959493928a9260040161383b565b6001546040517f9eab4ae200000000000000000000000000000000000000000000000000000000815273__IBCClient_____________________________91639eab4ae291610c04916001600160a01b03169085906004016138a9565b6001546040517faf07ea3c00000000000000000000000000000000000000000000000000000000815273__IBCChannel____________________________9163af07ea3c916115aa916001600160a01b0316908590600401613949565b60006040518083038186803b1580156115c257600080fd5b505af41580156115d6573d6000803e3d6000fd5b505050506115e78160000151611846565b6001600160a01b0316634942d1ac8260000151836020015184604001516040518463ffffffff1660e01b81526004016104b1939291906139b0565b6001546040517f1b155bee00000000000000000000000000000000000000000000000000000000815273__IBCConnection_________________________91631b155bee91610c04916001600160a01b03169085906004016139e9565b60006116eb61168e8380613564565b61169c906020810190612fae565b8080601f0160208091040260200160405190810160405280939291908181526020018383808284376000920191909152506116dd9250869150819050613564565b610e6e906040810190612fae565b90506001600160a01b03811663da7b08a76117068480613564565b6117136020860186612fae565b6040518463ffffffff1660e01b815260040161173193929190613a31565b600060405180830381600087803b15801561174b57600080fd5b505af115801561175f573d6000803e3d6000fd5b50506001546040517fed2c8c9a00000000000000000000000000000000000000000000000000000000815273__IBCChannel____________________________935063ed2c8c9a92506117c0916001600160a01b0316908690600401613a57565b60006040518083038186803b1580156117d857600080fd5b505af41580156117ec573d6000803e3d6000fd5b507f47471450765e6e1b0b055ba2a1de04d4ce71f778c92b306e725083eb120dfd89925061181e915084905080613564565b61182b6020850185612fae565b60405161183a93929190613a31565b60405180910390a15050565b60015460405163012b86d760e51b8152600091829182916001600160a01b03169063ace6cfb79073__IBCIdentifier_________________________90632570dae090611897908990600401611e4c565b60006040518083038186803b1580156118af57600080fd5b505af41580156118c3573d6000803e3d6000fd5b505050506040513d6000823e601f3d908101601f191682016040526118eb9190810190612c01565b6040518263ffffffff1660e01b81526004016119079190611e4c565b604080518083038186803b15801561191e57600080fd5b505afa158015611932573d6000803e3d6000fd5b505050506040513d601f19601f820116820180604052508101906119569190613b04565b915091508061196457600080fd5b5092915050565b6000546001600160a01b0316331461198257600080fd5b565b600154604051633bc3339f60e01b8152600091829182916001600160a01b03169063ace6cfb79073__IBCIdentifier_________________________90633bc3339f906119d7908a908a90600401612cd5565b60006040518083038186803b1580156119ef57600080fd5b505af4158015611a03573d6000803e3d6000fd5b505050506040513d6000823e601f3d908101601f19168201604052611a2b9190810190612c01565b6040518263ffffffff1660e01b8152600401611a479190611e4c565b604080518083038186803b158015611a5e57600080fd5b505afa158015611a72573d6000803e3d6000fd5b505050506040513d601f19601f82011682018060405250810190611a969190613b04565b9150915080611aa457600080fd5b509392505050565b634e487b7160e01b600052604160045260246000fd5b6040516060810167ffffffffffffffff81118282101715611ae557611ae5611aac565b60405290565b6040516020810167ffffffffffffffff81118282101715611ae557611ae5611aac565b6040805190810167ffffffffffffffff81118282101715611ae557611ae5611aac565b604051610160810167ffffffffffffffff81118282101715611ae557611ae5611aac565b60405160a0810167ffffffffffffffff81118282101715611ae557611ae5611aac565b60405160c0810167ffffffffffffffff81118282101715611ae557611ae5611aac565b604051610120810167ffffffffffffffff81118282101715611ae557611ae5611aac565b604051601f8201601f1916810167ffffffffffffffff81118282101715611be857611be8611aac565b604052919050565b600067ffffffffffffffff821115611c0a57611c0a611aac565b50601f01601f191660200190565b600082601f830112611c2957600080fd5b8135611c3c611c3782611bf0565b611bbf565b818152846020838601011115611c5157600080fd5b816020850160208301376000918101602001919091529392505050565b600060608284031215611c8057600080fd5b611c88611ac2565b9050813567ffffffffffffffff80821115611ca257600080fd5b611cae85838601611c18565b83526020840135915080821115611cc457600080fd5b611cd085838601611c18565b60208401526040840135915080821115611ce957600080fd5b9083019060208286031215611cfd57600080fd5b611d05611aeb565b823582811115611d1457600080fd5b611d2087828601611c18565b825250604084015250909392505050565b803567ffffffffffffffff81168114611d4957600080fd5b919050565b600060208284031215611d6057600080fd5b813567ffffffffffffffff80821115611d7857600080fd5b9083019060608286031215611d8c57600080fd5b611d94611ac2565b823582811115611da357600080fd5b611daf87828601611c18565b825250602083013582811115611dc457600080fd5b611dd087828601611c6e565b602083015250611de260408401611d31565b604082015295945050505050565b60005b83811015611e0b578181015183820152602001611df3565b83811115611e1a576000848401525b50505050565b60008151808452611e38816020860160208601611df0565b601f01601f19169290920160200192915050565b602081526000611e5f6020830184611e20565b9392505050565b600060808284031215611e7857600080fd5b6040516080810167ffffffffffffffff8282108183111715611e9c57611e9c611aac565b816040528293508435915080821115611eb457600080fd5b611ec086838701611c18565b83526020850135915080821115611ed657600080fd5b611ee286838701611c18565b60208401526040850135915080821115611efb57600080fd5b50611f0885828601611c18565b604083015250611f1a60608401611d31565b60608201525092915050565b600060208284031215611f3857600080fd5b813567ffffffffffffffff811115611f4f57600080fd5b611f5b84828501611e66565b949350505050565b6001600160a01b0381168114611f7857600080fd5b50565b60008060408385031215611f8e57600080fd5b823567ffffffffffffffff811115611fa557600080fd5b611fb185828601611c18565b9250506020830135611fc281611f63565b809150509250929050565b600067ffffffffffffffff821115611fe757611fe7611aac565b5060051b60200190565b600082601f83011261200257600080fd5b81356020612012611c3783611fcd565b82815260059290921b8401810191818101908684111561203157600080fd5b8286015b8481101561207157803567ffffffffffffffff8111156120555760008081fd5b6120638986838b0101611c18565b845250918301918301612035565b509695505050505050565b60006040828403121561208e57600080fd5b612096611b0e565b9050813567ffffffffffffffff808211156120b057600080fd5b6120bc85838601611c18565b835260208401359150808211156120d257600080fd5b506120df84828501611ff1565b60208301525092915050565b600082601f8301126120fc57600080fd5b8135602061210c611c3783611fcd565b82815260059290921b8401810191818101908684111561212b57600080fd5b8286015b8481101561207157803567ffffffffffffffff81111561214f5760008081fd5b61215d8986838b010161207c565b84525091830191830161212f565b60006020828403121561217d57600080fd5b813567ffffffffffffffff8082111561219557600080fd5b9083019061016082860312156121aa57600080fd5b6121b2611b31565b8235828111156121c157600080fd5b6121cd87828601611c18565b8252506020830135828111156121e257600080fd5b6121ee87828601611c6e565b60208301525061220060408401611d31565b604082015260608301358281111561221757600080fd5b61222387828601611c18565b60608301525060808301358281111561223b57600080fd5b61224787828601611c18565b60808301525060a08301358281111561225f57600080fd5b61226b878286016120eb565b60a08301525060c08301358281111561228357600080fd5b61228f87828601611c18565b60c08301525060e0830135828111156122a757600080fd5b6122b387828601611c18565b60e08301525061010080840135838111156122cd57600080fd5b6122d988828701611c18565b82840152505061012091506122ef828401611d31565b828201526101409150612303828401611d31565b91810191909152949350505050565b60008083601f84011261232457600080fd5b50813567ffffffffffffffff81111561233c57600080fd5b60208301915083602082850101111561235457600080fd5b9250929050565b60008060006040848603121561237057600080fd5b833567ffffffffffffffff81111561238757600080fd5b61239386828701612312565b90945092505060208401356123a781611f63565b809150509250925092565b6000602082840312156123c457600080fd5b611e5f82611d31565b6000602082840312156123df57600080fd5b813567ffffffffffffffff8111156123f657600080fd5b82016101208185031215611e5f57600080fd5b803560058110611d4957600080fd5b803560038110611d4957600080fd5b60006040828403121561243957600080fd5b612441611b0e565b9050813567ffffffffffffffff8082111561245b57600080fd5b61246785838601611c18565b8352602084013591508082111561247d57600080fd5b506120df84828501611c18565b600060a0828403121561249c57600080fd5b6124a4611b55565b90506124af82612409565b81526124bd60208301612418565b6020820152604082013567ffffffffffffffff808211156124dd57600080fd5b6124e985838601612427565b6040840152606084013591508082111561250257600080fd5b61250e85838601611ff1565b6060840152608084013591508082111561252757600080fd5b5061253484828501611c18565b60808301525092915050565b60006020828403121561255257600080fd5b813567ffffffffffffffff8082111561256a57600080fd5b9083019060c0828603121561257e57600080fd5b612586611b78565b82358281111561259557600080fd5b6125a187828601611c18565b8252506020830135828111156125b657600080fd5b6125c287828601611c18565b6020830152506040830135828111156125da57600080fd5b6125e68782860161248a565b6040830152506060830135828111156125fe57600080fd5b61260a87828601611c18565b60608301525060808301358281111561262257600080fd5b61262e87828601611c18565b60808301525061264060a08401611d31565b60a082015295945050505050565b60006020828403121561266057600080fd5b813567ffffffffffffffff8082111561267857600080fd5b90830190610120828603121561268d57600080fd5b612695611b9b565b8235828111156126a457600080fd5b6126b087828601611c18565b8252506020830135828111156126c557600080fd5b6126d187828601611c18565b6020830152506040830135828111156126e957600080fd5b6126f58782860161207c565b60408301525060608301358281111561270d57600080fd5b61271987828601611c18565b60608301525060808301358281111561273157600080fd5b61273d87828601611c18565b60808301525060a08301358281111561275557600080fd5b61276187828601611c18565b60a08301525060c08301358281111561277957600080fd5b61278587828601611c18565b60c08301525061279760e08401611d31565b60e08201526101009150612303828401611d31565b6000602082840312156127be57600080fd5b813567ffffffffffffffff8111156127d557600080fd5b611f5b84828501612427565b6000602082840312156127f357600080fd5b813567ffffffffffffffff81111561280a57600080fd5b820160608185031215611e5f57600080fd5b60008060008060008060006080888a03121561283757600080fd5b873567ffffffffffffffff8082111561284f57600080fd5b61285b8b838c01612312565b909950975060208a013591508082111561287457600080fd5b6128808b838c01612312565b909750955085915061289460408b01611d31565b945060608a01359150808211156128aa57600080fd5b506128b78a828b01612312565b989b979a50959850939692959293505050565b6000602082840312156128dc57600080fd5b813567ffffffffffffffff8111156128f357600080fd5b820160408185031215611e5f57600080fd5b60006020828403121561291757600080fd5b813567ffffffffffffffff8082111561292f57600080fd5b908301906040828603121561294357600080fd5b61294b611b0e565b82358281111561295a57600080fd5b61296687828601611c18565b82525060208301358281111561297b57600080fd5b6129878782860161248a565b60208301525095945050505050565b6000608082840312156129a857600080fd5b50919050565b6000602082840312156129c057600080fd5b813567ffffffffffffffff8111156129d757600080fd5b611f5b84828501612996565b6000602082840312156129f557600080fd5b813567ffffffffffffffff80821115612a0d57600080fd5b9083019060c08286031215612a2157600080fd5b612a29611b78565b823582811115612a3857600080fd5b612a4487828601611c18565b825250602083013582811115612a5957600080fd5b612a6587828601611c18565b602083015250604083013582811115612a7d57600080fd5b6125e687828601611c18565b600060208284031215612a9b57600080fd5b813567ffffffffffffffff80821115612ab357600080fd5b9083019060608286031215612ac757600080fd5b612acf611ac2565b823582811115612ade57600080fd5b612aea87828601611c18565b825250602083013582811115612aff57600080fd5b611dd087828601611c18565b6000815160608452612b206060850182611e20565b905060208301518482036020860152612b398282611e20565b915050604083015184820360408601528051905060208252612b5e6020830182611e20565b95945050505050565b6001600160a01b0383168152604060208201526000825160606040840152612b9260a0840182611e20565b90506020840151603f19848303016060850152612baf8282612b0b565b91505067ffffffffffffffff6040850151166080840152809150509392505050565b6000612bdf611c3784611bf0565b9050828152838383011115612bf357600080fd5b611e5f836020830184611df0565b600060208284031215612c1357600080fd5b815167ffffffffffffffff811115612c2a57600080fd5b8201601f81018413612c3b57600080fd5b611f5b84825160208401612bd1565b6000815160808452612c5f6080850182611e20565b905060208301518482036020860152612c788282611e20565b91505060408301518482036040860152612c928282611e20565b91505067ffffffffffffffff60608401511660608501528091505092915050565b6001600160a01b0383168152604060208201526000611f5b6040830184612c4a565b604081526000612ce86040830185611e20565b8281036020840152612b5e8185611e20565b604081526000612d0d6040830185611e20565b90506001600160a01b03831660208301529392505050565b600081518084526020808501808196508360051b8101915082860160005b85811015612d6d578284038952612d5b848351611e20565b98850198935090840190600101612d43565b5091979650505050505050565b6000815160408452612d8f6040850182611e20565b905060208301518482036020860152612b5e8282612d25565b600081518084526020808501808196508360051b8101915082860160005b85811015612d6d578284038952612dde848351612d7a565b98850198935090840190600101612dc6565b6001600160a01b03831681526040602082015260008251610160806040850152612e1e6101a0850183611e20565b91506020850151603f1980868503016060870152612e3c8483612b0b565b935060408701519150612e5b608087018367ffffffffffffffff169052565b60608701519150808685030160a0870152612e768483611e20565b935060808701519150808685030160c0870152612e938483611e20565b935060a08701519150808685030160e0870152612eb08483612da8565b935060c08701519150610100818786030181880152612ecf8584611e20565b945060e08801519250610120828887030181890152612eee8685611e20565b95508189015193506101409150828887030182890152612f0e8685611e20565b9089015167ffffffffffffffff811689870152909550925087015167ffffffffffffffff81166101808801529250612f44915050565b50949350505050565b81835281816020850137506000828201602090810191909152601f909101601f19169091010190565b60006001600160a01b03808716835260606020840152612f9a606084018688612f4d565b915080841660408401525095945050505050565b6000808335601e19843603018112612fc557600080fd5b83018035915067ffffffffffffffff821115612fe057600080fd5b60200191503681900382131561235457600080fd5b604081526000613009604083018688612f4d565b828103602084015261301c818587612f4d565b979650505050505050565b80518015158114611d4957600080fd5b60006020828403121561304957600080fd5b611e5f82613027565b6000808335601e1984360301811261306957600080fd5b830160208101925035905067ffffffffffffffff81111561308957600080fd5b80360383131561235457600080fd5b67ffffffffffffffff806130ab83611d31565b168352806130bb60208401611d31565b166020840152505050565b60006101206130e6846130d885611d31565b67ffffffffffffffff169052565b6130f36020840184613052565b8260208701526131068387018284612f4d565b925050506131176040840184613052565b858303604087015261312a838284612f4d565b9250505061313b6060840184613052565b858303606087015261314e838284612f4d565b9250505061315f6080840184613052565b8583036080870152613172838284612f4d565b9250505061318360a0840184613052565b85830360a0870152613196838284612f4d565b925050506131aa60c0850160c08501613098565b6101006131b8818501611d31565b67ffffffffffffffff169401939093525090919050565b6001600160a01b0383168152604060208201526000611f5b60408301846130c6565b602081526000611e5f60208301846130c6565b634e487b7160e01b600052602160045260246000fd5b6003811061322a5761322a613204565b9052565b60008151604084526132436040850182611e20565b905060208301518482036020860152612b5e8282611e20565b600081516005811061327057613270613204565b808452506020820151613286602085018261321a565b50604082015160a060408501526132a060a085018261322e565b9050606083015184820360608601526132b98282612d25565b91505060808301518482036080860152612b5e8282611e20565b6001600160a01b0383168152604060208201526000825160c060408401526132ff610100840182611e20565b90506020840151603f198085840301606086015261331d8383611e20565b9250604086015191508085840301608086015261333a838361325c565b925060608601519150808584030160a08601526133578383611e20565b925060808601519150808584030160c0860152506133758282611e20565b91505067ffffffffffffffff60a08501511660e0840152809150509392505050565b6133a1818961321a565b60e0602082015260006133b760e0830189612d25565b82810360408401526133c98189611e20565b905082810360608401526133dd8188611e20565b905082810360808401526133f1818761322e565b905082810360a08401526134058186611e20565b905082810360c08401526134198185611e20565b9a9950505050505050505050565b6001600160a01b03831681526040602082015260008251610120806040850152613455610160850183611e20565b91506020850151603f19808685030160608701526134738483611e20565b935060408701519150808685030160808701526134908483612d7a565b935060608701519150808685030160a08701526134ad8483611e20565b935060808701519150808685030160c08701526134ca8483611e20565b935060a08701519150808685030160e08701526134e78483611e20565b935060c087015191506101008187860301818801526135068584611e20565b945060e088015192506135248488018467ffffffffffffffff169052565b87015167ffffffffffffffff81166101408801529250612f44915050565b6001600160a01b0383168152604060208201526000611f5b604083018461322e565b6000823561011e1983360301811261357b57600080fd5b9190910192915050565b6000823561011e1983360301811261359c57600080fd5b90910192915050565b6001600160a01b03831681526040602082015260006135c48384613585565b606060408401526135d860a08401826130c6565b90506135e76020850185613052565b848303603f190160608601526135fe838284612f4d565b9250505067ffffffffffffffff61361760408601611d31565b166080840152809150509392505050565b6001600160a01b038816815260a06020820152600061364b60a08301888a612f4d565b828103604084015261365e818789612f4d565b905067ffffffffffffffff8516606084015282810360808401526134198185611e20565b60808152600061369660808301888a612f4d565b82810360208401526136a9818789612f4d565b905067ffffffffffffffff8516604084015282810360608401526136cd8185611e20565b9998505050505050505050565b6001600160a01b038916815260a0602082015260006136fd60a08301898b612f4d565b828103604084015261371081888a612f4d565b905067ffffffffffffffff861660608401528281036080840152613735818587612f4d565b9b9a5050505050505050505050565b60808152600061375860808301898b612f4d565b828103602084015261376b81888a612f4d565b905067ffffffffffffffff861660408401528281036060840152613419818587612f4d565b6001600160a01b03831681526040602082015260006137af8384613052565b6040808501526137c3608085018284612f4d565b9150506137d36020850185613052565b848303603f1901606086015261301c838284612f4d565b6001600160a01b038316815260406020820152600082516040808401526138146080840182611e20565b90506020840151603f19848303016060850152613831828261325c565b9695505050505050565b613845818861321a565b60c06020820152600061385b60c0830188612d25565b828103604084015261386d8188611e20565b905082810360608401526138818187611e20565b90508281036080840152613895818661322e565b905082810360a08401526136cd8185611e20565b6001600160a01b03831681526040602082015260006138c88384613052565b608060408501526138dd60c085018284612f4d565b91505067ffffffffffffffff6138f560208601611d31565b1660608401526139086040850185613052565b603f1980868503016080870152613920848385612f4d565b935061392f6060880188613052565b93509150808685030160a08701525061301c838383612f4d565b6001600160a01b0383168152604060208201526000825160c06040840152613975610100840182611e20565b90506020840151603f19808584030160608601526139938383611e20565b9250604086015191508085840301608086015261333a8383611e20565b6060815260006139c36060830186611e20565b82810360208401526139d58186611e20565b905082810360408401526138318185611e20565b6001600160a01b0383168152604060208201526000825160606040840152613a1460a0840182611e20565b90506020840151603f19848303016060850152612baf8282611e20565b604081526000613a4460408301866130c6565b8281036020840152613831818587612f4d565b6001600160a01b0383168152604060208201526000613a768384613585565b60806040840152613a8a60c08401826130c6565b9050613a996020850185613052565b603f1980868503016060870152613ab1848385612f4d565b9350613ac06040880188613052565b935091508086850301608087015250613ada838383612f4d565b9250505067ffffffffffffffff613af360608601611d31565b1660a0840152809150509392505050565b60008060408385031215613b1757600080fd5b8251613b2281611f63565b9150613b3060208401613027565b9050925092905056fea2646970667358221220e86f0b004e14a4fe64e7384ecaa6941711e1636a94d04b0d6ea81222a463f5f464736f6c63430008090033",
  "immutableReferences": {},
  "source": "pragma solidity ^0.8.9;\n\nimport \"./IClient.sol\";\nimport \"./IBCClient.sol\";\nimport \"./IBCChannel.sol\";\nimport \"./IBCModule.sol\";\nimport \"./IBCMsgs.sol\";\nimport \"./IBCIdentifier.sol\";\nimport \"./types/Channel.sol\";\n\ncontract IBCHandler {\n\n    address owner;\n    IBCHost host;\n\n    /// Event definitions ///\n    event SendPacket(Packet.Data packet);\n    event RecvPacket(Packet.Data packet);\n    event WriteAcknowledgement(string destinationPortId, string destinationChannel, uint64 sequence, bytes acknowledgement);\n    event AcknowledgePacket(Packet.Data packet, bytes acknowledgement);\n\n    constructor(IBCHost host_) public {\n        owner = msg.sender;\n        host = host_;\n    }\n\n    function getHostAddress() external view returns (address) {\n        return address(host);\n    }\n\n    function registerClient(string calldata clientType, IClient client) external {\n        require(msg.sender == owner);\n        return IBCClient.registerClient(host, clientType, client);\n    }\n\n    /// Handler interface implementations ///\n\n    function createClient(IBCMsgs.MsgCreateClient calldata msg_) external {\n        return IBCClient.createClient(host, msg_);\n    }\n\n    function updateClient(IBCMsgs.MsgUpdateClient calldata msg_) external {\n        return IBCClient.updateClient(host, msg_);\n    }\n\n    function connectionOpenInit(IBCMsgs.MsgConnectionOpenInit memory msg_) public returns (string memory) {\n        return IBCConnection.connectionOpenInit(host, msg_);\n    }\n\n    function connectionOpenTry(IBCMsgs.MsgConnectionOpenTry memory msg_) public returns (string memory) {\n        return IBCConnection.connectionOpenTry(host, msg_);\n    }\n\n    function connectionOpenAck(IBCMsgs.MsgConnectionOpenAck memory msg_) public {\n        return IBCConnection.connectionOpenAck(host, msg_);\n    }\n\n    function connectionOpenConfirm(IBCMsgs.MsgConnectionOpenConfirm memory msg_) public {\n        return IBCConnection.connectionOpenConfirm(host, msg_);\n    }\n\n    function channelOpenInit(IBCMsgs.MsgChannelOpenInit memory msg_) public returns (string memory) {\n        string memory channelId = IBCChannel.channelOpenInit(host, msg_);\n        IModuleCallbacks module = lookupModuleByPortId(msg_.portId);\n        module.onChanOpenInit(\n            msg_.channel.ordering,\n            msg_.channel.connection_hops,\n            msg_.portId,\n            channelId,\n            msg_.channel.counterparty,\n            msg_.channel.version\n        );\n        host.claimCapability(IBCIdentifier.channelCapabilityPath(msg_.portId, channelId), address(module));\n        return channelId;\n    }\n\n    function channelOpenTry(IBCMsgs.MsgChannelOpenTry memory msg_) public returns (string memory) {\n        string memory channelId = IBCChannel.channelOpenTry(host, msg_);\n        IModuleCallbacks module = lookupModuleByPortId(msg_.portId);\n        module.onChanOpenTry(\n            msg_.channel.ordering,\n            msg_.channel.connection_hops,\n            msg_.portId,\n            channelId,\n            msg_.channel.counterparty,\n            msg_.channel.version,\n            msg_.counterpartyVersion\n        );\n        host.claimCapability(IBCIdentifier.channelCapabilityPath(msg_.portId, channelId), address(module));\n        return channelId;\n    }\n\n    function channelOpenAck(IBCMsgs.MsgChannelOpenAck memory msg_) public {\n        IBCChannel.channelOpenAck(host, msg_);\n        lookupModuleByPortId(msg_.portId).onChanOpenAck(msg_.portId, msg_.channelId, msg_.counterpartyVersion);\n    }\n\n    function channelOpenConfirm(IBCMsgs.MsgChannelOpenConfirm memory msg_) public {\n        IBCChannel.channelOpenConfirm(host, msg_);\n        lookupModuleByPortId(msg_.portId).onChanOpenConfirm(msg_.portId, msg_.channelId);\n    }\n\n    function channelCloseInit(IBCMsgs.MsgChannelCloseInit memory msg_) public {\n        IBCChannel.channelCloseInit(host, msg_);\n        lookupModuleByPortId(msg_.portId).onChanCloseInit(msg_.portId, msg_.channelId);\n    }\n\n    function channelCloseConfirm(IBCMsgs.MsgChannelCloseConfirm memory msg_) public {\n        IBCChannel.channelCloseConfirm(host, msg_);\n        lookupModuleByPortId(msg_.portId).onChanCloseConfirm(msg_.portId, msg_.channelId);\n    }\n\n    function sendPacket(Packet.Data calldata packet) external {\n        require(host.authenticateCapability(\n            IBCIdentifier.channelCapabilityPath(packet.source_port, packet.source_channel),\n            msg.sender\n        ));\n        IBCChannel.sendPacket(host, packet);\n        emit SendPacket(packet);\n    }\n\n    function recvPacket(IBCMsgs.MsgPacketRecv calldata msg_) external returns (bytes memory acknowledgement) {\n        IModuleCallbacks module = lookupModuleByChannel(msg_.packet.destination_port, msg_.packet.destination_channel);\n        acknowledgement = module.onRecvPacket(msg_.packet);\n        IBCChannel.recvPacket(host, msg_);\n        if (acknowledgement.length > 0) {\n            IBCChannel.writeAcknowledgement(host, msg_.packet.destination_port, msg_.packet.destination_channel, msg_.packet.sequence, acknowledgement);\n            emit WriteAcknowledgement(msg_.packet.destination_port, msg_.packet.destination_channel, msg_.packet.sequence, acknowledgement);\n        }\n        emit RecvPacket(msg_.packet);\n        return acknowledgement;\n    }\n\n    function writeAcknowledgement(string calldata destinationPortId, string calldata destinationChannel, uint64 sequence, bytes calldata acknowledgement) external {\n        require(host.authenticateCapability(\n            IBCIdentifier.channelCapabilityPath(destinationPortId, destinationChannel),\n            msg.sender\n        ));\n        IBCChannel.writeAcknowledgement(host, destinationPortId, destinationChannel, sequence, acknowledgement);\n        emit WriteAcknowledgement(destinationPortId, destinationChannel, sequence, acknowledgement);\n    }\n\n    function acknowledgePacket(IBCMsgs.MsgPacketAcknowledgement calldata msg_) external {\n        IModuleCallbacks module = lookupModuleByChannel(msg_.packet.source_port, msg_.packet.source_channel);\n        module.onAcknowledgementPacket(msg_.packet, msg_.acknowledgement);\n        IBCChannel.acknowledgePacket(host, msg_);\n        emit AcknowledgePacket(msg_.packet, msg_.acknowledgement);\n    }\n\n    function bindPort(string memory portId, address moduleAddress) public {\n        onlyOwner();\n        host.claimCapability(IBCIdentifier.portCapabilityPath(portId), moduleAddress);\n    }\n\n    function setExpectedTimePerBlock(uint64 expectedTimePerBlock_) external {\n        // TODO: consider better authn/authz for this operation\n        onlyOwner();\n        host.setExpectedTimePerBlock(expectedTimePerBlock_);\n    }\n\n    function lookupModuleByPortId(string memory portId) internal view returns (IModuleCallbacks) {\n        (address module, bool found) = host.getModuleOwner(IBCIdentifier.portCapabilityPath(portId));\n        require(found);\n        return IModuleCallbacks(module);\n    }\n\n    function lookupModuleByChannel(string memory portId, string memory channelId) internal view returns (IModuleCallbacks) {\n        (address module, bool found) = host.getModuleOwner(IBCIdentifier.channelCapabilityPath(portId, channelId));\n        require(found);\n        return IModuleCallbacks(module);\n    }\n\n    function onlyOwner() internal view {\n        require(msg.sender == owner);\n    }\n}\n",
  "sourcePath": "/home/rogelio/Code/ancon-protocol/ethereum/contracts/yui-ibc-solidity/core/IBCHandler.sol",
  "compiler": {
    "name": "solc",
    "version": "0.8.9+commit.e5eed63a.Emscripten.clang"
  },
  "schemaVersion": "3.4.0",
  "updatedAt": "2021-10-29T23:56:50.640Z",
  "devdoc": {
    "kind": "dev",
    "methods": {},
    "version": 1
  },
  "userdoc": {
    "events": {
      "SendPacket((uint64,string,string,string,string,bytes,(uint64,uint64),uint64))": {
        "notice": "Event definitions ///"
      }
    },
    "kind": "user",
    "methods": {
      "createClient((string,uint64,bytes,bytes))": {
        "notice": "Handler interface implementations ///"
      }
    },
    "version": 1
  }
}