{
  "contractName": "IBCHandler",
  "abi": [
    {
      "inputs": [
        {
          "internalType": "contract IBCHost",
          "name": "host_",
          "type": "address"
        }
      ],
      "stateMutability": "nonpayable",
      "type": "constructor"
    },
    {
      "anonymous": false,
      "inputs": [
        {
          "components": [
            {
              "internalType": "uint64",
              "name": "sequence",
              "type": "uint64"
            },
            {
              "internalType": "string",
              "name": "source_port",
              "type": "string"
            },
            {
              "internalType": "string",
              "name": "source_channel",
              "type": "string"
            },
            {
              "internalType": "string",
              "name": "destination_port",
              "type": "string"
            },
            {
              "internalType": "string",
              "name": "destination_channel",
              "type": "string"
            },
            {
              "internalType": "bytes",
              "name": "data",
              "type": "bytes"
            },
            {
              "components": [
                {
                  "internalType": "uint64",
                  "name": "revision_number",
                  "type": "uint64"
                },
                {
                  "internalType": "uint64",
                  "name": "revision_height",
                  "type": "uint64"
                }
              ],
              "internalType": "struct Height.Data",
              "name": "timeout_height",
              "type": "tuple"
            },
            {
              "internalType": "uint64",
              "name": "timeout_timestamp",
              "type": "uint64"
            }
          ],
          "indexed": false,
          "internalType": "struct Packet.Data",
          "name": "packet",
          "type": "tuple"
        },
        {
          "indexed": false,
          "internalType": "bytes",
          "name": "acknowledgement",
          "type": "bytes"
        }
      ],
      "name": "AcknowledgePacket",
      "type": "event"
    },
    {
      "anonymous": false,
      "inputs": [
        {
          "components": [
            {
              "internalType": "uint64",
              "name": "sequence",
              "type": "uint64"
            },
            {
              "internalType": "string",
              "name": "source_port",
              "type": "string"
            },
            {
              "internalType": "string",
              "name": "source_channel",
              "type": "string"
            },
            {
              "internalType": "string",
              "name": "destination_port",
              "type": "string"
            },
            {
              "internalType": "string",
              "name": "destination_channel",
              "type": "string"
            },
            {
              "internalType": "bytes",
              "name": "data",
              "type": "bytes"
            },
            {
              "components": [
                {
                  "internalType": "uint64",
                  "name": "revision_number",
                  "type": "uint64"
                },
                {
                  "internalType": "uint64",
                  "name": "revision_height",
                  "type": "uint64"
                }
              ],
              "internalType": "struct Height.Data",
              "name": "timeout_height",
              "type": "tuple"
            },
            {
              "internalType": "uint64",
              "name": "timeout_timestamp",
              "type": "uint64"
            }
          ],
          "indexed": false,
          "internalType": "struct Packet.Data",
          "name": "packet",
          "type": "tuple"
        }
      ],
      "name": "RecvPacket",
      "type": "event"
    },
    {
      "anonymous": false,
      "inputs": [
        {
          "components": [
            {
              "internalType": "uint64",
              "name": "sequence",
              "type": "uint64"
            },
            {
              "internalType": "string",
              "name": "source_port",
              "type": "string"
            },
            {
              "internalType": "string",
              "name": "source_channel",
              "type": "string"
            },
            {
              "internalType": "string",
              "name": "destination_port",
              "type": "string"
            },
            {
              "internalType": "string",
              "name": "destination_channel",
              "type": "string"
            },
            {
              "internalType": "bytes",
              "name": "data",
              "type": "bytes"
            },
            {
              "components": [
                {
                  "internalType": "uint64",
                  "name": "revision_number",
                  "type": "uint64"
                },
                {
                  "internalType": "uint64",
                  "name": "revision_height",
                  "type": "uint64"
                }
              ],
              "internalType": "struct Height.Data",
              "name": "timeout_height",
              "type": "tuple"
            },
            {
              "internalType": "uint64",
              "name": "timeout_timestamp",
              "type": "uint64"
            }
          ],
          "indexed": false,
          "internalType": "struct Packet.Data",
          "name": "packet",
          "type": "tuple"
        }
      ],
      "name": "SendPacket",
      "type": "event"
    },
    {
      "anonymous": false,
      "inputs": [
        {
          "indexed": false,
          "internalType": "string",
          "name": "destinationPortId",
          "type": "string"
        },
        {
          "indexed": false,
          "internalType": "string",
          "name": "destinationChannel",
          "type": "string"
        },
        {
          "indexed": false,
          "internalType": "uint64",
          "name": "sequence",
          "type": "uint64"
        },
        {
          "indexed": false,
          "internalType": "bytes",
          "name": "acknowledgement",
          "type": "bytes"
        }
      ],
      "name": "WriteAcknowledgement",
      "type": "event"
    },
    {
      "inputs": [],
      "name": "getHostAddress",
      "outputs": [
        {
          "internalType": "address",
          "name": "",
          "type": "address"
        }
      ],
      "stateMutability": "view",
      "type": "function"
    },
    {
      "inputs": [
        {
          "internalType": "string",
          "name": "clientType",
          "type": "string"
        },
        {
          "internalType": "contract IClient",
          "name": "client",
          "type": "address"
        }
      ],
      "name": "registerClient",
      "outputs": [],
      "stateMutability": "nonpayable",
      "type": "function"
    },
    {
      "inputs": [
        {
          "components": [
            {
              "internalType": "string",
              "name": "clientType",
              "type": "string"
            },
            {
              "internalType": "uint64",
              "name": "height",
              "type": "uint64"
            },
            {
              "internalType": "bytes",
              "name": "clientStateBytes",
              "type": "bytes"
            },
            {
              "internalType": "bytes",
              "name": "consensusStateBytes",
              "type": "bytes"
            }
          ],
          "internalType": "struct IBCMsgs.MsgCreateClient",
          "name": "msg_",
          "type": "tuple"
        }
      ],
      "name": "createClient",
      "outputs": [],
      "stateMutability": "nonpayable",
      "type": "function"
    },
    {
      "inputs": [
        {
          "components": [
            {
              "internalType": "string",
              "name": "clientId",
              "type": "string"
            },
            {
              "internalType": "bytes",
              "name": "header",
              "type": "bytes"
            }
          ],
          "internalType": "struct IBCMsgs.MsgUpdateClient",
          "name": "msg_",
          "type": "tuple"
        }
      ],
      "name": "updateClient",
      "outputs": [],
      "stateMutability": "nonpayable",
      "type": "function"
    },
    {
      "inputs": [
        {
          "components": [
            {
              "internalType": "string",
              "name": "clientId",
              "type": "string"
            },
            {
              "components": [
                {
                  "internalType": "string",
                  "name": "client_id",
                  "type": "string"
                },
                {
                  "internalType": "string",
                  "name": "connection_id",
                  "type": "string"
                },
                {
                  "components": [
                    {
                      "internalType": "bytes",
                      "name": "key_prefix",
                      "type": "bytes"
                    }
                  ],
                  "internalType": "struct MerklePrefix.Data",
                  "name": "prefix",
                  "type": "tuple"
                }
              ],
              "internalType": "struct Counterparty.Data",
              "name": "counterparty",
              "type": "tuple"
            },
            {
              "internalType": "uint64",
              "name": "delayPeriod",
              "type": "uint64"
            }
          ],
          "internalType": "struct IBCMsgs.MsgConnectionOpenInit",
          "name": "msg_",
          "type": "tuple"
        }
      ],
      "name": "connectionOpenInit",
      "outputs": [
        {
          "internalType": "string",
          "name": "",
          "type": "string"
        }
      ],
      "stateMutability": "nonpayable",
      "type": "function"
    },
    {
      "inputs": [
        {
          "components": [
            {
              "internalType": "string",
              "name": "previousConnectionId",
              "type": "string"
            },
            {
              "components": [
                {
                  "internalType": "string",
                  "name": "client_id",
                  "type": "string"
                },
                {
                  "internalType": "string",
                  "name": "connection_id",
                  "type": "string"
                },
                {
                  "components": [
                    {
                      "internalType": "bytes",
                      "name": "key_prefix",
                      "type": "bytes"
                    }
                  ],
                  "internalType": "struct MerklePrefix.Data",
                  "name": "prefix",
                  "type": "tuple"
                }
              ],
              "internalType": "struct Counterparty.Data",
              "name": "counterparty",
              "type": "tuple"
            },
            {
              "internalType": "uint64",
              "name": "delayPeriod",
              "type": "uint64"
            },
            {
              "internalType": "string",
              "name": "clientId",
              "type": "string"
            },
            {
              "internalType": "bytes",
              "name": "clientStateBytes",
              "type": "bytes"
            },
            {
              "components": [
                {
                  "internalType": "string",
                  "name": "identifier",
                  "type": "string"
                },
                {
                  "internalType": "string[]",
                  "name": "features",
                  "type": "string[]"
                }
              ],
              "internalType": "struct Version.Data[]",
              "name": "counterpartyVersions",
              "type": "tuple[]"
            },
            {
              "internalType": "bytes",
              "name": "proofInit",
              "type": "bytes"
            },
            {
              "internalType": "bytes",
              "name": "proofClient",
              "type": "bytes"
            },
            {
              "internalType": "bytes",
              "name": "proofConsensus",
              "type": "bytes"
            },
            {
              "internalType": "uint64",
              "name": "proofHeight",
              "type": "uint64"
            },
            {
              "internalType": "uint64",
              "name": "consensusHeight",
              "type": "uint64"
            }
          ],
          "internalType": "struct IBCMsgs.MsgConnectionOpenTry",
          "name": "msg_",
          "type": "tuple"
        }
      ],
      "name": "connectionOpenTry",
      "outputs": [
        {
          "internalType": "string",
          "name": "",
          "type": "string"
        }
      ],
      "stateMutability": "nonpayable",
      "type": "function"
    },
    {
      "inputs": [
        {
          "components": [
            {
              "internalType": "string",
              "name": "connectionId",
              "type": "string"
            },
            {
              "internalType": "bytes",
              "name": "clientStateBytes",
              "type": "bytes"
            },
            {
              "components": [
                {
                  "internalType": "string",
                  "name": "identifier",
                  "type": "string"
                },
                {
                  "internalType": "string[]",
                  "name": "features",
                  "type": "string[]"
                }
              ],
              "internalType": "struct Version.Data",
              "name": "version",
              "type": "tuple"
            },
            {
              "internalType": "string",
              "name": "counterpartyConnectionID",
              "type": "string"
            },
            {
              "internalType": "bytes",
              "name": "proofTry",
              "type": "bytes"
            },
            {
              "internalType": "bytes",
              "name": "proofClient",
              "type": "bytes"
            },
            {
              "internalType": "bytes",
              "name": "proofConsensus",
              "type": "bytes"
            },
            {
              "internalType": "uint64",
              "name": "proofHeight",
              "type": "uint64"
            },
            {
              "internalType": "uint64",
              "name": "consensusHeight",
              "type": "uint64"
            }
          ],
          "internalType": "struct IBCMsgs.MsgConnectionOpenAck",
          "name": "msg_",
          "type": "tuple"
        }
      ],
      "name": "connectionOpenAck",
      "outputs": [],
      "stateMutability": "nonpayable",
      "type": "function"
    },
    {
      "inputs": [
        {
          "components": [
            {
              "internalType": "string",
              "name": "connectionId",
              "type": "string"
            },
            {
              "internalType": "bytes",
              "name": "proofAck",
              "type": "bytes"
            },
            {
              "internalType": "uint64",
              "name": "proofHeight",
              "type": "uint64"
            }
          ],
          "internalType": "struct IBCMsgs.MsgConnectionOpenConfirm",
          "name": "msg_",
          "type": "tuple"
        }
      ],
      "name": "connectionOpenConfirm",
      "outputs": [],
      "stateMutability": "nonpayable",
      "type": "function"
    },
    {
      "inputs": [
        {
          "components": [
            {
              "internalType": "string",
              "name": "portId",
              "type": "string"
            },
            {
              "components": [
                {
                  "internalType": "enum Channel.State",
                  "name": "state",
                  "type": "uint8"
                },
                {
                  "internalType": "enum Channel.Order",
                  "name": "ordering",
                  "type": "uint8"
                },
                {
                  "components": [
                    {
                      "internalType": "string",
                      "name": "port_id",
                      "type": "string"
                    },
                    {
                      "internalType": "string",
                      "name": "channel_id",
                      "type": "string"
                    }
                  ],
                  "internalType": "struct ChannelCounterparty.Data",
                  "name": "counterparty",
                  "type": "tuple"
                },
                {
                  "internalType": "string[]",
                  "name": "connection_hops",
                  "type": "string[]"
                },
                {
                  "internalType": "string",
                  "name": "version",
                  "type": "string"
                }
              ],
              "internalType": "struct Channel.Data",
              "name": "channel",
              "type": "tuple"
            }
          ],
          "internalType": "struct IBCMsgs.MsgChannelOpenInit",
          "name": "msg_",
          "type": "tuple"
        }
      ],
      "name": "channelOpenInit",
      "outputs": [
        {
          "internalType": "string",
          "name": "",
          "type": "string"
        }
      ],
      "stateMutability": "nonpayable",
      "type": "function"
    },
    {
      "inputs": [
        {
          "components": [
            {
              "internalType": "string",
              "name": "portId",
              "type": "string"
            },
            {
              "internalType": "string",
              "name": "previousChannelId",
              "type": "string"
            },
            {
              "components": [
                {
                  "internalType": "enum Channel.State",
                  "name": "state",
                  "type": "uint8"
                },
                {
                  "internalType": "enum Channel.Order",
                  "name": "ordering",
                  "type": "uint8"
                },
                {
                  "components": [
                    {
                      "internalType": "string",
                      "name": "port_id",
                      "type": "string"
                    },
                    {
                      "internalType": "string",
                      "name": "channel_id",
                      "type": "string"
                    }
                  ],
                  "internalType": "struct ChannelCounterparty.Data",
                  "name": "counterparty",
                  "type": "tuple"
                },
                {
                  "internalType": "string[]",
                  "name": "connection_hops",
                  "type": "string[]"
                },
                {
                  "internalType": "string",
                  "name": "version",
                  "type": "string"
                }
              ],
              "internalType": "struct Channel.Data",
              "name": "channel",
              "type": "tuple"
            },
            {
              "internalType": "string",
              "name": "counterpartyVersion",
              "type": "string"
            },
            {
              "internalType": "bytes",
              "name": "proofInit",
              "type": "bytes"
            },
            {
              "internalType": "uint64",
              "name": "proofHeight",
              "type": "uint64"
            }
          ],
          "internalType": "struct IBCMsgs.MsgChannelOpenTry",
          "name": "msg_",
          "type": "tuple"
        }
      ],
      "name": "channelOpenTry",
      "outputs": [
        {
          "internalType": "string",
          "name": "",
          "type": "string"
        }
      ],
      "stateMutability": "nonpayable",
      "type": "function"
    },
    {
      "inputs": [
        {
          "components": [
            {
              "internalType": "string",
              "name": "portId",
              "type": "string"
            },
            {
              "internalType": "string",
              "name": "channelId",
              "type": "string"
            },
            {
              "internalType": "string",
              "name": "counterpartyVersion",
              "type": "string"
            },
            {
              "internalType": "string",
              "name": "counterpartyChannelId",
              "type": "string"
            },
            {
              "internalType": "bytes",
              "name": "proofTry",
              "type": "bytes"
            },
            {
              "internalType": "uint64",
              "name": "proofHeight",
              "type": "uint64"
            }
          ],
          "internalType": "struct IBCMsgs.MsgChannelOpenAck",
          "name": "msg_",
          "type": "tuple"
        }
      ],
      "name": "channelOpenAck",
      "outputs": [],
      "stateMutability": "nonpayable",
      "type": "function"
    },
    {
      "inputs": [
        {
          "components": [
            {
              "internalType": "string",
              "name": "portId",
              "type": "string"
            },
            {
              "internalType": "string",
              "name": "channelId",
              "type": "string"
            },
            {
              "internalType": "bytes",
              "name": "proofAck",
              "type": "bytes"
            },
            {
              "internalType": "uint64",
              "name": "proofHeight",
              "type": "uint64"
            }
          ],
          "internalType": "struct IBCMsgs.MsgChannelOpenConfirm",
          "name": "msg_",
          "type": "tuple"
        }
      ],
      "name": "channelOpenConfirm",
      "outputs": [],
      "stateMutability": "nonpayable",
      "type": "function"
    },
    {
      "inputs": [
        {
          "components": [
            {
              "internalType": "string",
              "name": "portId",
              "type": "string"
            },
            {
              "internalType": "string",
              "name": "channelId",
              "type": "string"
            }
          ],
          "internalType": "struct IBCMsgs.MsgChannelCloseInit",
          "name": "msg_",
          "type": "tuple"
        }
      ],
      "name": "channelCloseInit",
      "outputs": [],
      "stateMutability": "nonpayable",
      "type": "function"
    },
    {
      "inputs": [
        {
          "components": [
            {
              "internalType": "string",
              "name": "portId",
              "type": "string"
            },
            {
              "internalType": "string",
              "name": "channelId",
              "type": "string"
            },
            {
              "internalType": "bytes",
              "name": "proofInit",
              "type": "bytes"
            },
            {
              "internalType": "uint64",
              "name": "proofHeight",
              "type": "uint64"
            }
          ],
          "internalType": "struct IBCMsgs.MsgChannelCloseConfirm",
          "name": "msg_",
          "type": "tuple"
        }
      ],
      "name": "channelCloseConfirm",
      "outputs": [],
      "stateMutability": "nonpayable",
      "type": "function"
    },
    {
      "inputs": [
        {
          "components": [
            {
              "internalType": "uint64",
              "name": "sequence",
              "type": "uint64"
            },
            {
              "internalType": "string",
              "name": "source_port",
              "type": "string"
            },
            {
              "internalType": "string",
              "name": "source_channel",
              "type": "string"
            },
            {
              "internalType": "string",
              "name": "destination_port",
              "type": "string"
            },
            {
              "internalType": "string",
              "name": "destination_channel",
              "type": "string"
            },
            {
              "internalType": "bytes",
              "name": "data",
              "type": "bytes"
            },
            {
              "components": [
                {
                  "internalType": "uint64",
                  "name": "revision_number",
                  "type": "uint64"
                },
                {
                  "internalType": "uint64",
                  "name": "revision_height",
                  "type": "uint64"
                }
              ],
              "internalType": "struct Height.Data",
              "name": "timeout_height",
              "type": "tuple"
            },
            {
              "internalType": "uint64",
              "name": "timeout_timestamp",
              "type": "uint64"
            }
          ],
          "internalType": "struct Packet.Data",
          "name": "packet",
          "type": "tuple"
        }
      ],
      "name": "sendPacket",
      "outputs": [],
      "stateMutability": "nonpayable",
      "type": "function"
    },
    {
      "inputs": [
        {
          "components": [
            {
              "components": [
                {
                  "internalType": "uint64",
                  "name": "sequence",
                  "type": "uint64"
                },
                {
                  "internalType": "string",
                  "name": "source_port",
                  "type": "string"
                },
                {
                  "internalType": "string",
                  "name": "source_channel",
                  "type": "string"
                },
                {
                  "internalType": "string",
                  "name": "destination_port",
                  "type": "string"
                },
                {
                  "internalType": "string",
                  "name": "destination_channel",
                  "type": "string"
                },
                {
                  "internalType": "bytes",
                  "name": "data",
                  "type": "bytes"
                },
                {
                  "components": [
                    {
                      "internalType": "uint64",
                      "name": "revision_number",
                      "type": "uint64"
                    },
                    {
                      "internalType": "uint64",
                      "name": "revision_height",
                      "type": "uint64"
                    }
                  ],
                  "internalType": "struct Height.Data",
                  "name": "timeout_height",
                  "type": "tuple"
                },
                {
                  "internalType": "uint64",
                  "name": "timeout_timestamp",
                  "type": "uint64"
                }
              ],
              "internalType": "struct Packet.Data",
              "name": "packet",
              "type": "tuple"
            },
            {
              "internalType": "bytes",
              "name": "proof",
              "type": "bytes"
            },
            {
              "internalType": "uint64",
              "name": "proofHeight",
              "type": "uint64"
            }
          ],
          "internalType": "struct IBCMsgs.MsgPacketRecv",
          "name": "msg_",
          "type": "tuple"
        }
      ],
      "name": "recvPacket",
      "outputs": [
        {
          "internalType": "bytes",
          "name": "acknowledgement",
          "type": "bytes"
        }
      ],
      "stateMutability": "nonpayable",
      "type": "function"
    },
    {
      "inputs": [
        {
          "internalType": "string",
          "name": "destinationPortId",
          "type": "string"
        },
        {
          "internalType": "string",
          "name": "destinationChannel",
          "type": "string"
        },
        {
          "internalType": "uint64",
          "name": "sequence",
          "type": "uint64"
        },
        {
          "internalType": "bytes",
          "name": "acknowledgement",
          "type": "bytes"
        }
      ],
      "name": "writeAcknowledgement",
      "outputs": [],
      "stateMutability": "nonpayable",
      "type": "function"
    },
    {
      "inputs": [
        {
          "components": [
            {
              "components": [
                {
                  "internalType": "uint64",
                  "name": "sequence",
                  "type": "uint64"
                },
                {
                  "internalType": "string",
                  "name": "source_port",
                  "type": "string"
                },
                {
                  "internalType": "string",
                  "name": "source_channel",
                  "type": "string"
                },
                {
                  "internalType": "string",
                  "name": "destination_port",
                  "type": "string"
                },
                {
                  "internalType": "string",
                  "name": "destination_channel",
                  "type": "string"
                },
                {
                  "internalType": "bytes",
                  "name": "data",
                  "type": "bytes"
                },
                {
                  "components": [
                    {
                      "internalType": "uint64",
                      "name": "revision_number",
                      "type": "uint64"
                    },
                    {
                      "internalType": "uint64",
                      "name": "revision_height",
                      "type": "uint64"
                    }
                  ],
                  "internalType": "struct Height.Data",
                  "name": "timeout_height",
                  "type": "tuple"
                },
                {
                  "internalType": "uint64",
                  "name": "timeout_timestamp",
                  "type": "uint64"
                }
              ],
              "internalType": "struct Packet.Data",
              "name": "packet",
              "type": "tuple"
            },
            {
              "internalType": "bytes",
              "name": "acknowledgement",
              "type": "bytes"
            },
            {
              "internalType": "bytes",
              "name": "proof",
              "type": "bytes"
            },
            {
              "internalType": "uint64",
              "name": "proofHeight",
              "type": "uint64"
            }
          ],
          "internalType": "struct IBCMsgs.MsgPacketAcknowledgement",
          "name": "msg_",
          "type": "tuple"
        }
      ],
      "name": "acknowledgePacket",
      "outputs": [],
      "stateMutability": "nonpayable",
      "type": "function"
    },
    {
      "inputs": [
        {
          "internalType": "string",
          "name": "portId",
          "type": "string"
        },
        {
          "internalType": "address",
          "name": "moduleAddress",
          "type": "address"
        }
      ],
      "name": "bindPort",
      "outputs": [],
      "stateMutability": "nonpayable",
      "type": "function"
    },
    {
      "inputs": [
        {
          "internalType": "uint64",
          "name": "expectedTimePerBlock_",
          "type": "uint64"
        }
      ],
      "name": "setExpectedTimePerBlock",
      "outputs": [],
      "stateMutability": "nonpayable",
      "type": "function"
    }
  ],
  "bytecode": "0x60806040523480156200001157600080fd5b5060405162003b4738038062003b47833981016040819052620000349162000068565b60008054336001600160a01b031991821617909155600180549091166001600160a01b03929092169190911790556200009a565b6000602082840312156200007b57600080fd5b81516001600160a01b03811681146200009357600080fd5b9392505050565b613a9d80620000aa6000396000f3fe608060405234801561001057600080fd5b506004361061016c5760003560e01c8063a06cb3a2116100cd578063e2b5827d11610081578063eb238c7711610066578063eb238c77146102cc578063ec0cda87146102e7578063fa044e8f146102fa57600080fd5b8063e2b5827d146102a6578063e46ea828146102b957600080fd5b8063b56e79de116100b2578063b56e79de1461026d578063da6cea5514610280578063dd3469fc1461029357600080fd5b8063a06cb3a214610247578063a3af5cf31461025a57600080fd5b806327184c131161012457806356a5dc5a1161010957806356a5dc5a1461020e5780636cf60640146102215780639e6d49591461023457600080fd5b806327184c13146101e857806340835e44146101fb57600080fd5b8063117e886a11610155578063117e886a146101af578063147aec7f146101c257806318c19870146101d557600080fd5b806301c6400f14610171578063102f80911461019a575b600080fd5b61018461017f366004611c7c565b61030d565b6040516101919190611d7a565b60405180910390f35b6101ad6101a8366004611e54565b6103ba565b005b6101ad6101bd366004611ea9565b6104d7565b6101846101d0366004612099565b6105c4565b6101ad6101e3366004612289565b610626565b6101ad6101f63660046122e0565b6106d3565b6101ad6102093660046122fb565b61072e565b61018461021c36600461246e565b610906565b6101ad61022f36600461257c565b610b4d565b6101ad610242366004611e54565b610bd6565b6101ad6102553660046126da565b610cbe565b61018461026836600461270f565b610da6565b6101ad61027b36600461274a565b6110f9565b6101ad61028e3660046127f8565b6112dd565b6101846102a1366004612833565b61133a565b6101ad6102b43660046128dc565b61145a565b6101ad6102c7366004612911565b6114b7565b6001546040516001600160a01b039091168152602001610191565b6101ad6102f53660046129b7565b61158c565b6101ad6103083660046128dc565b6115e9565b6001546040517f6046ff5100000000000000000000000000000000000000000000000000000000815260609173__IBCConnection_________________________91636046ff519161036f916001600160a01b03909116908690600401612a95565b600060405180830381865af415801561038c573d6000803e3d6000fd5b505050506040513d6000823e601f3d908101601f191682016040526103b49190810190612b2f565b92915050565b6001546040517faa9208a700000000000000000000000000000000000000000000000000000000815273__IBCChannel____________________________9163aa9208a791610417916001600160a01b0316908590600401612be1565b60006040518083038186803b15801561042f57600080fd5b505af4158015610443573d6000803e3d6000fd5b5050505061045481600001516117b0565b815160208301516040517fef4776d20000000000000000000000000000000000000000000000000000000081526001600160a01b03939093169263ef4776d2926104a2929091600401612c03565b600060405180830381600087803b1580156104bc57600080fd5b505af11580156104d0573d6000803e3d6000fd5b5050505050565b6104df6118b7565b60015460405163012b86d760e51b81526001600160a01b039091169063be3d6e929073__IBCIdentifier_________________________90632570dae09061052b908790600401611d7a565b600060405180830381865af4158015610548573d6000803e3d6000fd5b505050506040513d6000823e601f3d908101601f191682016040526105709190810190612b2f565b836040518363ffffffff1660e01b815260040161058e929190612c28565b600060405180830381600087803b1580156105a857600080fd5b505af11580156105bc573d6000803e3d6000fd5b505050505050565b6001546040517f42725ef600000000000000000000000000000000000000000000000000000000815260609173__IBCConnection_________________________916342725ef69161036f916001600160a01b03909116908690600401612d1e565b6000546001600160a01b0316331461063d57600080fd5b6001546040517f2b37b7c100000000000000000000000000000000000000000000000000000000815273__IBCClient_____________________________91632b37b7c19161069e916001600160a01b031690879087908790600401612ea4565b60006040518083038186803b1580156106b657600080fd5b505af41580156106ca573d6000803e3d6000fd5b50505050505050565b6106db6118b7565b6001546040517f27184c1300000000000000000000000000000000000000000000000000000000815267ffffffffffffffff831660048201526001600160a01b03909116906327184c13906024016104a2565b6001546001600160a01b0316632d46858f73__IBCIdentifier_________________________633bc3339f6107666020860186612edc565b6107736040880188612edc565b6040518563ffffffff1660e01b81526004016107929493929190612f23565b600060405180830381865af41580156107af573d6000803e3d6000fd5b505050506040513d6000823e601f3d908101601f191682016040526107d79190810190612b2f565b336040518363ffffffff1660e01b81526004016107f5929190612c28565b602060405180830381865afa158015610812573d6000803e3d6000fd5b505050506040513d601f19601f820116820180604052508101906108369190612f65565b61083f57600080fd5b6001546040517f0a48b8a600000000000000000000000000000000000000000000000000000000815273__IBCChannel____________________________91630a48b8a69161089c916001600160a01b03169085906004016130fd565b60006040518083038186803b1580156108b457600080fd5b505af41580156108c8573d6000803e3d6000fd5b505050507fe701f25bda8992b211749f81adb9a8ea6e8cf8a3c9f2e29ed496e6c5f059154c816040516108fb919061311f565b60405180910390a150565b6001546040517fb1d534ac00000000000000000000000000000000000000000000000000000000815260609160009173__IBCChannel____________________________9163b1d534ac91610969916001600160a01b0316908790600401613201565b600060405180830381865af4158015610986573d6000803e3d6000fd5b505050506040513d6000823e601f3d908101601f191682016040526109ae9190810190612b2f565b905060006109bf84600001516117b0565b6040808601516020810151606080830151895184860151608090950151928b015195517f981389f20000000000000000000000000000000000000000000000000000000081529697506001600160a01b0388169663981389f296610a3096939492938b9390929091906004016132c5565b600060405180830381600087803b158015610a4a57600080fd5b505af1158015610a5e573d6000803e3d6000fd5b50506001548651604051633bc3339f60e01b81526001600160a01b03909216935063be3d6e92925073__IBCIdentifier_________________________91633bc3339f91610ab0918890600401612c03565b600060405180830381865af4158015610acd573d6000803e3d6000fd5b505050506040513d6000823e601f3d908101601f19168201604052610af59190810190612b2f565b836040518363ffffffff1660e01b8152600401610b13929190612c28565b600060405180830381600087803b158015610b2d57600080fd5b505af1158015610b41573d6000803e3d6000fd5b50939695505050505050565b6001546040517f8ef4f1b600000000000000000000000000000000000000000000000000000000815273__IBCConnection_________________________91638ef4f1b691610baa916001600160a01b0316908590600401613355565b60006040518083038186803b158015610bc257600080fd5b505af41580156104d0573d6000803e3d6000fd5b6001546040517fc39e08d200000000000000000000000000000000000000000000000000000000815273__IBCChannel____________________________9163c39e08d291610c33916001600160a01b0316908590600401612be1565b60006040518083038186803b158015610c4b57600080fd5b505af4158015610c5f573d6000803e3d6000fd5b50505050610c7081600001516117b0565b815160208301516040517fa113e4110000000000000000000000000000000000000000000000000000000081526001600160a01b03939093169263a113e411926104a2929091600401612c03565b6001546040517fd24b868700000000000000000000000000000000000000000000000000000000815273__IBCChannel____________________________9163d24b868791610d1b916001600160a01b0316908590600401613470565b60006040518083038186803b158015610d3357600080fd5b505af4158015610d47573d6000803e3d6000fd5b50505050610d5881600001516117b0565b815160208301516040517fe74a1ac20000000000000000000000000000000000000000000000000000000081526001600160a01b03939093169263e74a1ac2926104a2929091600401612c03565b60606000610e4e610db78480613492565b610dc5906060810190612edc565b8080601f016020809104026020016040519081016040528093929190818152602001838380828437600092019190915250610e069250879150819050613492565b610e14906080810190612edc565b8080601f0160208091040260200160405190810160405280939291908181526020018383808284376000920191909152506118d092505050565b90506001600160a01b038116635550b656610e698580613492565b6040518263ffffffff1660e01b8152600401610e85919061311f565b6000604051808303816000875af1158015610ea4573d6000803e3d6000fd5b505050506040513d6000823e601f3d908101601f19168201604052610ecc9190810190612b2f565b6001546040517fb5d6d6f900000000000000000000000000000000000000000000000000000000815291935073__IBCChannel____________________________9163b5d6d6f991610f2e916001600160a01b039091169087906004016134d3565b60006040518083038186803b158015610f4657600080fd5b505af4158015610f5a573d6000803e3d6000fd5b505050506000825111156110b35760015473__IBCChannel____________________________90630badf100906001600160a01b0316610f9a8680613492565b610fa8906060810190612edc565b610fb28880613492565b610fc0906080810190612edc565b610fca8a80613492565b610fd89060208101906122e0565b896040518863ffffffff1660e01b8152600401610ffb9796959493929190613556565b60006040518083038186803b15801561101357600080fd5b505af4158015611027573d6000803e3d6000fd5b507f39b14668930c816f244f4073c0fdf459d3dd73ae571b57b3efe8205919472d2a9250611059915085905080613492565b611067906060810190612edc565b6110718680613492565b61107f906080810190612edc565b6110898880613492565b6110979060208101906122e0565b876040516110aa969594939291906135b0565b60405180910390a15b7f346f4351ee865d86a679d00f3995f0520f803d3a227604af08430e26e9345a7a6110de8480613492565b6040516110eb919061311f565b60405180910390a150919050565b600154604051633bc3339f60e01b81526001600160a01b0390911690632d46858f9073__IBCIdentifier_________________________90633bc3339f9061114b908c908c908c908c90600401612f23565b600060405180830381865af4158015611168573d6000803e3d6000fd5b505050506040513d6000823e601f3d908101601f191682016040526111909190810190612b2f565b336040518363ffffffff1660e01b81526004016111ae929190612c28565b602060405180830381865afa1580156111cb573d6000803e3d6000fd5b505050506040513d601f19601f820116820180604052508101906111ef9190612f65565b6111f857600080fd5b6001546040517f0badf10000000000000000000000000000000000000000000000000000000000815273__IBCChannel____________________________91630badf10091611261916001600160a01b0316908b908b908b908b908b908b908b90600401613608565b60006040518083038186803b15801561127957600080fd5b505af415801561128d573d6000803e3d6000fd5b505050507f39b14668930c816f244f4073c0fdf459d3dd73ae571b57b3efe8205919472d2a878787878787876040516112cc9796959493929190613672565b60405180910390a150505050505050565b6001546040517f854414f000000000000000000000000000000000000000000000000000000000815273__IBCClient_____________________________9163854414f091610baa916001600160a01b03169085906004016136be565b6001546040517f20d98d5300000000000000000000000000000000000000000000000000000000815260609160009173__IBCChannel____________________________916320d98d539161139d916001600160a01b0316908790600401613718565b600060405180830381865af41580156113ba573d6000803e3d6000fd5b505050506040513d6000823e601f3d908101601f191682016040526113e29190810190612b2f565b905060006113f384600001516117b0565b602080860151908101516060820151875160408085015160809095015190517f44dd96380000000000000000000000000000000000000000000000000000000081529596506001600160a01b038716956344dd963895610a30959493928a92600401613769565b6001546040517f9eab4ae200000000000000000000000000000000000000000000000000000000815273__IBCClient_____________________________91639eab4ae291610baa916001600160a01b03169085906004016137d7565b6001546040517faf07ea3c00000000000000000000000000000000000000000000000000000000815273__IBCChannel____________________________9163af07ea3c91611514916001600160a01b0316908590600401613877565b60006040518083038186803b15801561152c57600080fd5b505af4158015611540573d6000803e3d6000fd5b5050505061155181600001516117b0565b6001600160a01b0316634942d1ac8260000151836020015184604001516040518463ffffffff1660e01b81526004016104a2939291906138de565b6001546040517f1b155bee00000000000000000000000000000000000000000000000000000000815273__IBCConnection_________________________91631b155bee91610baa916001600160a01b0316908590600401613917565b60006116556115f88380613492565b611606906020810190612edc565b8080601f0160208091040260200160405190810160405280939291908181526020018383808284376000920191909152506116479250869150819050613492565b610e14906040810190612edc565b90506001600160a01b03811663da7b08a76116708480613492565b61167d6020860186612edc565b6040518463ffffffff1660e01b815260040161169b9392919061395f565b600060405180830381600087803b1580156116b557600080fd5b505af11580156116c9573d6000803e3d6000fd5b50506001546040517fed2c8c9a00000000000000000000000000000000000000000000000000000000815273__IBCChannel____________________________935063ed2c8c9a925061172a916001600160a01b0316908690600401613985565b60006040518083038186803b15801561174257600080fd5b505af4158015611756573d6000803e3d6000fd5b507f47471450765e6e1b0b055ba2a1de04d4ce71f778c92b306e725083eb120dfd899250611788915084905080613492565b6117956020850185612edc565b6040516117a49392919061395f565b60405180910390a15050565b60015460405163012b86d760e51b8152600091829182916001600160a01b03169063ace6cfb79073__IBCIdentifier_________________________90632570dae090611801908990600401611d7a565b600060405180830381865af415801561181e573d6000803e3d6000fd5b505050506040513d6000823e601f3d908101601f191682016040526118469190810190612b2f565b6040518263ffffffff1660e01b81526004016118629190611d7a565b6040805180830381865afa15801561187e573d6000803e3d6000fd5b505050506040513d601f19601f820116820180604052508101906118a29190613a32565b91509150806118b057600080fd5b5092915050565b6000546001600160a01b031633146118ce57600080fd5b565b600154604051633bc3339f60e01b8152600091829182916001600160a01b03169063ace6cfb79073__IBCIdentifier_________________________90633bc3339f90611923908a908a90600401612c03565b600060405180830381865af4158015611940573d6000803e3d6000fd5b505050506040513d6000823e601f3d908101601f191682016040526119689190810190612b2f565b6040518263ffffffff1660e01b81526004016119849190611d7a565b6040805180830381865afa1580156119a0573d6000803e3d6000fd5b505050506040513d601f19601f820116820180604052508101906119c49190613a32565b91509150806119d257600080fd5b509392505050565b634e487b7160e01b600052604160045260246000fd5b6040516060810167ffffffffffffffff81118282101715611a1357611a136119da565b60405290565b6040516020810167ffffffffffffffff81118282101715611a1357611a136119da565b6040805190810167ffffffffffffffff81118282101715611a1357611a136119da565b604051610160810167ffffffffffffffff81118282101715611a1357611a136119da565b60405160a0810167ffffffffffffffff81118282101715611a1357611a136119da565b60405160c0810167ffffffffffffffff81118282101715611a1357611a136119da565b604051610120810167ffffffffffffffff81118282101715611a1357611a136119da565b604051601f8201601f1916810167ffffffffffffffff81118282101715611b1657611b166119da565b604052919050565b600067ffffffffffffffff821115611b3857611b386119da565b50601f01601f191660200190565b600082601f830112611b5757600080fd5b8135611b6a611b6582611b1e565b611aed565b818152846020838601011115611b7f57600080fd5b816020850160208301376000918101602001919091529392505050565b600060608284031215611bae57600080fd5b611bb66119f0565b9050813567ffffffffffffffff80821115611bd057600080fd5b611bdc85838601611b46565b83526020840135915080821115611bf257600080fd5b611bfe85838601611b46565b60208401526040840135915080821115611c1757600080fd5b9083019060208286031215611c2b57600080fd5b611c33611a19565b823582811115611c4257600080fd5b611c4e87828601611b46565b825250604084015250909392505050565b803567ffffffffffffffff81168114611c7757600080fd5b919050565b600060208284031215611c8e57600080fd5b813567ffffffffffffffff80821115611ca657600080fd5b9083019060608286031215611cba57600080fd5b611cc26119f0565b823582811115611cd157600080fd5b611cdd87828601611b46565b825250602083013582811115611cf257600080fd5b611cfe87828601611b9c565b602083015250611d1060408401611c5f565b604082015295945050505050565b60005b83811015611d39578181015183820152602001611d21565b83811115611d48576000848401525b50505050565b60008151808452611d66816020860160208601611d1e565b601f01601f19169290920160200192915050565b602081526000611d8d6020830184611d4e565b9392505050565b600060808284031215611da657600080fd5b6040516080810167ffffffffffffffff8282108183111715611dca57611dca6119da565b816040528293508435915080821115611de257600080fd5b611dee86838701611b46565b83526020850135915080821115611e0457600080fd5b611e1086838701611b46565b60208401526040850135915080821115611e2957600080fd5b50611e3685828601611b46565b604083015250611e4860608401611c5f565b60608201525092915050565b600060208284031215611e6657600080fd5b813567ffffffffffffffff811115611e7d57600080fd5b611e8984828501611d94565b949350505050565b6001600160a01b0381168114611ea657600080fd5b50565b60008060408385031215611ebc57600080fd5b823567ffffffffffffffff811115611ed357600080fd5b611edf85828601611b46565b9250506020830135611ef081611e91565b809150509250929050565b600067ffffffffffffffff821115611f1557611f156119da565b5060051b60200190565b600082601f830112611f3057600080fd5b81356020611f40611b6583611efb565b82815260059290921b84018101918181019086841115611f5f57600080fd5b8286015b84811015611f9f57803567ffffffffffffffff811115611f835760008081fd5b611f918986838b0101611b46565b845250918301918301611f63565b509695505050505050565b600060408284031215611fbc57600080fd5b611fc4611a3c565b9050813567ffffffffffffffff80821115611fde57600080fd5b611fea85838601611b46565b8352602084013591508082111561200057600080fd5b5061200d84828501611f1f565b60208301525092915050565b600082601f83011261202a57600080fd5b8135602061203a611b6583611efb565b82815260059290921b8401810191818101908684111561205957600080fd5b8286015b84811015611f9f57803567ffffffffffffffff81111561207d5760008081fd5b61208b8986838b0101611faa565b84525091830191830161205d565b6000602082840312156120ab57600080fd5b813567ffffffffffffffff808211156120c357600080fd5b9083019061016082860312156120d857600080fd5b6120e0611a5f565b8235828111156120ef57600080fd5b6120fb87828601611b46565b82525060208301358281111561211057600080fd5b61211c87828601611b9c565b60208301525061212e60408401611c5f565b604082015260608301358281111561214557600080fd5b61215187828601611b46565b60608301525060808301358281111561216957600080fd5b61217587828601611b46565b60808301525060a08301358281111561218d57600080fd5b61219987828601612019565b60a08301525060c0830135828111156121b157600080fd5b6121bd87828601611b46565b60c08301525060e0830135828111156121d557600080fd5b6121e187828601611b46565b60e08301525061010080840135838111156121fb57600080fd5b61220788828701611b46565b828401525050610120915061221d828401611c5f565b828201526101409150612231828401611c5f565b91810191909152949350505050565b60008083601f84011261225257600080fd5b50813567ffffffffffffffff81111561226a57600080fd5b60208301915083602082850101111561228257600080fd5b9250929050565b60008060006040848603121561229e57600080fd5b833567ffffffffffffffff8111156122b557600080fd5b6122c186828701612240565b90945092505060208401356122d581611e91565b809150509250925092565b6000602082840312156122f257600080fd5b611d8d82611c5f565b60006020828403121561230d57600080fd5b813567ffffffffffffffff81111561232457600080fd5b82016101208185031215611d8d57600080fd5b803560058110611c7757600080fd5b803560038110611c7757600080fd5b60006040828403121561236757600080fd5b61236f611a3c565b9050813567ffffffffffffffff8082111561238957600080fd5b61239585838601611b46565b835260208401359150808211156123ab57600080fd5b5061200d84828501611b46565b600060a082840312156123ca57600080fd5b6123d2611a83565b90506123dd82612337565b81526123eb60208301612346565b6020820152604082013567ffffffffffffffff8082111561240b57600080fd5b61241785838601612355565b6040840152606084013591508082111561243057600080fd5b61243c85838601611f1f565b6060840152608084013591508082111561245557600080fd5b5061246284828501611b46565b60808301525092915050565b60006020828403121561248057600080fd5b813567ffffffffffffffff8082111561249857600080fd5b9083019060c082860312156124ac57600080fd5b6124b4611aa6565b8235828111156124c357600080fd5b6124cf87828601611b46565b8252506020830135828111156124e457600080fd5b6124f087828601611b46565b60208301525060408301358281111561250857600080fd5b612514878286016123b8565b60408301525060608301358281111561252c57600080fd5b61253887828601611b46565b60608301525060808301358281111561255057600080fd5b61255c87828601611b46565b60808301525061256e60a08401611c5f565b60a082015295945050505050565b60006020828403121561258e57600080fd5b813567ffffffffffffffff808211156125a657600080fd5b9083019061012082860312156125bb57600080fd5b6125c3611ac9565b8235828111156125d257600080fd5b6125de87828601611b46565b8252506020830135828111156125f357600080fd5b6125ff87828601611b46565b60208301525060408301358281111561261757600080fd5b61262387828601611faa565b60408301525060608301358281111561263b57600080fd5b61264787828601611b46565b60608301525060808301358281111561265f57600080fd5b61266b87828601611b46565b60808301525060a08301358281111561268357600080fd5b61268f87828601611b46565b60a08301525060c0830135828111156126a757600080fd5b6126b387828601611b46565b60c0830152506126c560e08401611c5f565b60e08201526101009150612231828401611c5f565b6000602082840312156126ec57600080fd5b813567ffffffffffffffff81111561270357600080fd5b611e8984828501612355565b60006020828403121561272157600080fd5b813567ffffffffffffffff81111561273857600080fd5b820160608185031215611d8d57600080fd5b60008060008060008060006080888a03121561276557600080fd5b873567ffffffffffffffff8082111561277d57600080fd5b6127898b838c01612240565b909950975060208a01359150808211156127a257600080fd5b6127ae8b838c01612240565b90975095508591506127c260408b01611c5f565b945060608a01359150808211156127d857600080fd5b506127e58a828b01612240565b989b979a50959850939692959293505050565b60006020828403121561280a57600080fd5b813567ffffffffffffffff81111561282157600080fd5b820160408185031215611d8d57600080fd5b60006020828403121561284557600080fd5b813567ffffffffffffffff8082111561285d57600080fd5b908301906040828603121561287157600080fd5b612879611a3c565b82358281111561288857600080fd5b61289487828601611b46565b8252506020830135828111156128a957600080fd5b6128b5878286016123b8565b60208301525095945050505050565b6000608082840312156128d657600080fd5b50919050565b6000602082840312156128ee57600080fd5b813567ffffffffffffffff81111561290557600080fd5b611e89848285016128c4565b60006020828403121561292357600080fd5b813567ffffffffffffffff8082111561293b57600080fd5b9083019060c0828603121561294f57600080fd5b612957611aa6565b82358281111561296657600080fd5b61297287828601611b46565b82525060208301358281111561298757600080fd5b61299387828601611b46565b6020830152506040830135828111156129ab57600080fd5b61251487828601611b46565b6000602082840312156129c957600080fd5b813567ffffffffffffffff808211156129e157600080fd5b90830190606082860312156129f557600080fd5b6129fd6119f0565b823582811115612a0c57600080fd5b612a1887828601611b46565b825250602083013582811115612a2d57600080fd5b611cfe87828601611b46565b6000815160608452612a4e6060850182611d4e565b905060208301518482036020860152612a678282611d4e565b915050604083015184820360408601528051905060208252612a8c6020830182611d4e565b95945050505050565b6001600160a01b0383168152604060208201526000825160606040840152612ac060a0840182611d4e565b90506020840151603f19848303016060850152612add8282612a39565b91505067ffffffffffffffff6040850151166080840152809150509392505050565b6000612b0d611b6584611b1e565b9050828152838383011115612b2157600080fd5b611d8d836020830184611d1e565b600060208284031215612b4157600080fd5b815167ffffffffffffffff811115612b5857600080fd5b8201601f81018413612b6957600080fd5b611e8984825160208401612aff565b6000815160808452612b8d6080850182611d4e565b905060208301518482036020860152612ba68282611d4e565b91505060408301518482036040860152612bc08282611d4e565b91505067ffffffffffffffff60608401511660608501528091505092915050565b6001600160a01b0383168152604060208201526000611e896040830184612b78565b604081526000612c166040830185611d4e565b8281036020840152612a8c8185611d4e565b604081526000612c3b6040830185611d4e565b90506001600160a01b03831660208301529392505050565b600081518084526020808501808196508360051b8101915082860160005b85811015612c9b578284038952612c89848351611d4e565b98850198935090840190600101612c71565b5091979650505050505050565b6000815160408452612cbd6040850182611d4e565b905060208301518482036020860152612a8c8282612c53565b600081518084526020808501808196508360051b8101915082860160005b85811015612c9b578284038952612d0c848351612ca8565b98850198935090840190600101612cf4565b6001600160a01b03831681526040602082015260008251610160806040850152612d4c6101a0850183611d4e565b91506020850151603f1980868503016060870152612d6a8483612a39565b935060408701519150612d89608087018367ffffffffffffffff169052565b60608701519150808685030160a0870152612da48483611d4e565b935060808701519150808685030160c0870152612dc18483611d4e565b935060a08701519150808685030160e0870152612dde8483612cd6565b935060c08701519150610100818786030181880152612dfd8584611d4e565b945060e08801519250610120828887030181890152612e1c8685611d4e565b95508189015193506101409150828887030182890152612e3c8685611d4e565b9089015167ffffffffffffffff811689870152909550925087015167ffffffffffffffff81166101808801529250612e72915050565b50949350505050565b81835281816020850137506000828201602090810191909152601f909101601f19169091010190565b60006001600160a01b03808716835260606020840152612ec8606084018688612e7b565b915080841660408401525095945050505050565b6000808335601e19843603018112612ef357600080fd5b83018035915067ffffffffffffffff821115612f0e57600080fd5b60200191503681900382131561228257600080fd5b604081526000612f37604083018688612e7b565b8281036020840152612f4a818587612e7b565b979650505050505050565b80518015158114611c7757600080fd5b600060208284031215612f7757600080fd5b611d8d82612f55565b6000808335601e19843603018112612f9757600080fd5b830160208101925035905067ffffffffffffffff811115612fb757600080fd5b80360383131561228257600080fd5b67ffffffffffffffff80612fd983611c5f565b16835280612fe960208401611c5f565b166020840152505050565b60006101206130148461300685611c5f565b67ffffffffffffffff169052565b6130216020840184612f80565b8260208701526130348387018284612e7b565b925050506130456040840184612f80565b8583036040870152613058838284612e7b565b925050506130696060840184612f80565b858303606087015261307c838284612e7b565b9250505061308d6080840184612f80565b85830360808701526130a0838284612e7b565b925050506130b160a0840184612f80565b85830360a08701526130c4838284612e7b565b925050506130d860c0850160c08501612fc6565b6101006130e6818501611c5f565b67ffffffffffffffff169401939093525090919050565b6001600160a01b0383168152604060208201526000611e896040830184612ff4565b602081526000611d8d6020830184612ff4565b634e487b7160e01b600052602160045260246000fd5b6003811061315857613158613132565b9052565b60008151604084526131716040850182611d4e565b905060208301518482036020860152612a8c8282611d4e565b600081516005811061319e5761319e613132565b8084525060208201516131b46020850182613148565b50604082015160a060408501526131ce60a085018261315c565b9050606083015184820360608601526131e78282612c53565b91505060808301518482036080860152612a8c8282611d4e565b6001600160a01b0383168152604060208201526000825160c0604084015261322d610100840182611d4e565b90506020840151603f198085840301606086015261324b8383611d4e565b92506040860151915080858403016080860152613268838361318a565b925060608601519150808584030160a08601526132858383611d4e565b925060808601519150808584030160c0860152506132a38282611d4e565b91505067ffffffffffffffff60a08501511660e0840152809150509392505050565b6132cf8189613148565b60e0602082015260006132e560e0830189612c53565b82810360408401526132f78189611d4e565b9050828103606084015261330b8188611d4e565b9050828103608084015261331f818761315c565b905082810360a08401526133338186611d4e565b905082810360c08401526133478185611d4e565b9a9950505050505050505050565b6001600160a01b03831681526040602082015260008251610120806040850152613383610160850183611d4e565b91506020850151603f19808685030160608701526133a18483611d4e565b935060408701519150808685030160808701526133be8483612ca8565b935060608701519150808685030160a08701526133db8483611d4e565b935060808701519150808685030160c08701526133f88483611d4e565b935060a08701519150808685030160e08701526134158483611d4e565b935060c087015191506101008187860301818801526134348584611d4e565b945060e088015192506134528488018467ffffffffffffffff169052565b87015167ffffffffffffffff81166101408801529250612e72915050565b6001600160a01b0383168152604060208201526000611e89604083018461315c565b6000823561011e198336030181126134a957600080fd5b9190910192915050565b6000823561011e198336030181126134ca57600080fd5b90910192915050565b6001600160a01b03831681526040602082015260006134f283846134b3565b6060604084015261350660a0840182612ff4565b90506135156020850185612f80565b848303603f1901606086015261352c838284612e7b565b9250505067ffffffffffffffff61354560408601611c5f565b166080840152809150509392505050565b6001600160a01b038816815260a06020820152600061357960a08301888a612e7b565b828103604084015261358c818789612e7b565b905067ffffffffffffffff8516606084015282810360808401526133478185611d4e565b6080815260006135c460808301888a612e7b565b82810360208401526135d7818789612e7b565b905067ffffffffffffffff8516604084015282810360608401526135fb8185611d4e565b9998505050505050505050565b6001600160a01b038916815260a06020820152600061362b60a08301898b612e7b565b828103604084015261363e81888a612e7b565b905067ffffffffffffffff861660608401528281036080840152613663818587612e7b565b9b9a5050505050505050505050565b60808152600061368660808301898b612e7b565b828103602084015261369981888a612e7b565b905067ffffffffffffffff861660408401528281036060840152613347818587612e7b565b6001600160a01b03831681526040602082015260006136dd8384612f80565b6040808501526136f1608085018284612e7b565b9150506137016020850185612f80565b848303603f19016060860152612f4a838284612e7b565b6001600160a01b038316815260406020820152600082516040808401526137426080840182611d4e565b90506020840151603f1984830301606085015261375f828261318a565b9695505050505050565b6137738188613148565b60c06020820152600061378960c0830188612c53565b828103604084015261379b8188611d4e565b905082810360608401526137af8187611d4e565b905082810360808401526137c3818661315c565b905082810360a08401526135fb8185611d4e565b6001600160a01b03831681526040602082015260006137f68384612f80565b6080604085015261380b60c085018284612e7b565b91505067ffffffffffffffff61382360208601611c5f565b1660608401526138366040850185612f80565b603f198086850301608087015261384e848385612e7b565b935061385d6060880188612f80565b93509150808685030160a087015250612f4a838383612e7b565b6001600160a01b0383168152604060208201526000825160c060408401526138a3610100840182611d4e565b90506020840151603f19808584030160608601526138c18383611d4e565b925060408601519150808584030160808601526132688383611d4e565b6060815260006138f16060830186611d4e565b82810360208401526139038186611d4e565b9050828103604084015261375f8185611d4e565b6001600160a01b038316815260406020820152600082516060604084015261394260a0840182611d4e565b90506020840151603f19848303016060850152612add8282611d4e565b6040815260006139726040830186612ff4565b828103602084015261375f818587612e7b565b6001600160a01b03831681526040602082015260006139a483846134b3565b608060408401526139b860c0840182612ff4565b90506139c76020850185612f80565b603f19808685030160608701526139df848385612e7b565b93506139ee6040880188612f80565b935091508086850301608087015250613a08838383612e7b565b9250505067ffffffffffffffff613a2160608601611c5f565b1660a0840152809150509392505050565b60008060408385031215613a4557600080fd5b8251613a5081611e91565b9150613a5e60208401612f55565b9050925092905056fea26469706673582212202b527022ef14779c4a6fb0ddacbd86a5da6682f5507c9310eb7601203de63e2f64736f6c634300080a0033",
  "immutableReferences": {},
  "source": "pragma solidity ^0.8.9;\n\nimport \"./IClient.sol\";\nimport \"./IBCClient.sol\";\nimport \"./IBCChannel.sol\";\nimport \"./IBCModule.sol\";\nimport \"./IBCMsgs.sol\";\nimport \"./IBCIdentifier.sol\";\nimport \"./types/Channel.sol\";\n\ncontract IBCHandler {\n\n    address owner;\n    IBCHost host;\n\n    /// Event definitions ///\n    event SendPacket(Packet.Data packet);\n    event RecvPacket(Packet.Data packet);\n    event WriteAcknowledgement(string destinationPortId, string destinationChannel, uint64 sequence, bytes acknowledgement);\n    event AcknowledgePacket(Packet.Data packet, bytes acknowledgement);\n\n    constructor(IBCHost host_) public {\n        owner = msg.sender;\n        host = host_;\n    }\n\n    function getHostAddress() external view returns (address) {\n        return address(host);\n    }\n\n    function registerClient(string calldata clientType, IClient client) external {\n        require(msg.sender == owner);\n        return IBCClient.registerClient(host, clientType, client);\n    }\n\n    /// Handler interface implementations ///\n\n    function createClient(IBCMsgs.MsgCreateClient calldata msg_) external {\n        return IBCClient.createClient(host, msg_);\n    }\n\n    function updateClient(IBCMsgs.MsgUpdateClient calldata msg_) external {\n        return IBCClient.updateClient(host, msg_);\n    }\n\n    function connectionOpenInit(IBCMsgs.MsgConnectionOpenInit memory msg_) public returns (string memory) {\n        return IBCConnection.connectionOpenInit(host, msg_);\n    }\n\n    function connectionOpenTry(IBCMsgs.MsgConnectionOpenTry memory msg_) public returns (string memory) {\n        return IBCConnection.connectionOpenTry(host, msg_);\n    }\n\n    function connectionOpenAck(IBCMsgs.MsgConnectionOpenAck memory msg_) public {\n        return IBCConnection.connectionOpenAck(host, msg_);\n    }\n\n    function connectionOpenConfirm(IBCMsgs.MsgConnectionOpenConfirm memory msg_) public {\n        return IBCConnection.connectionOpenConfirm(host, msg_);\n    }\n\n    function channelOpenInit(IBCMsgs.MsgChannelOpenInit memory msg_) public returns (string memory) {\n        string memory channelId = IBCChannel.channelOpenInit(host, msg_);\n        IModuleCallbacks module = lookupModuleByPortId(msg_.portId);\n        module.onChanOpenInit(\n            msg_.channel.ordering,\n            msg_.channel.connection_hops,\n            msg_.portId,\n            channelId,\n            msg_.channel.counterparty,\n            msg_.channel.version\n        );\n        host.claimCapability(IBCIdentifier.channelCapabilityPath(msg_.portId, channelId), address(module));\n        return channelId;\n    }\n\n    function channelOpenTry(IBCMsgs.MsgChannelOpenTry memory msg_) public returns (string memory) {\n        string memory channelId = IBCChannel.channelOpenTry(host, msg_);\n        IModuleCallbacks module = lookupModuleByPortId(msg_.portId);\n        module.onChanOpenTry(\n            msg_.channel.ordering,\n            msg_.channel.connection_hops,\n            msg_.portId,\n            channelId,\n            msg_.channel.counterparty,\n            msg_.channel.version,\n            msg_.counterpartyVersion\n        );\n        host.claimCapability(IBCIdentifier.channelCapabilityPath(msg_.portId, channelId), address(module));\n        return channelId;\n    }\n\n    function channelOpenAck(IBCMsgs.MsgChannelOpenAck memory msg_) public {\n        IBCChannel.channelOpenAck(host, msg_);\n        lookupModuleByPortId(msg_.portId).onChanOpenAck(msg_.portId, msg_.channelId, msg_.counterpartyVersion);\n    }\n\n    function channelOpenConfirm(IBCMsgs.MsgChannelOpenConfirm memory msg_) public {\n        IBCChannel.channelOpenConfirm(host, msg_);\n        lookupModuleByPortId(msg_.portId).onChanOpenConfirm(msg_.portId, msg_.channelId);\n    }\n\n    function channelCloseInit(IBCMsgs.MsgChannelCloseInit memory msg_) public {\n        IBCChannel.channelCloseInit(host, msg_);\n        lookupModuleByPortId(msg_.portId).onChanCloseInit(msg_.portId, msg_.channelId);\n    }\n\n    function channelCloseConfirm(IBCMsgs.MsgChannelCloseConfirm memory msg_) public {\n        IBCChannel.channelCloseConfirm(host, msg_);\n        lookupModuleByPortId(msg_.portId).onChanCloseConfirm(msg_.portId, msg_.channelId);\n    }\n\n    function sendPacket(Packet.Data calldata packet) external {\n        require(host.authenticateCapability(\n            IBCIdentifier.channelCapabilityPath(packet.source_port, packet.source_channel),\n            msg.sender\n        ));\n        IBCChannel.sendPacket(host, packet);\n        emit SendPacket(packet);\n    }\n\n    function recvPacket(IBCMsgs.MsgPacketRecv calldata msg_) external returns (bytes memory acknowledgement) {\n        IModuleCallbacks module = lookupModuleByChannel(msg_.packet.destination_port, msg_.packet.destination_channel);\n        acknowledgement = module.onRecvPacket(msg_.packet);\n        IBCChannel.recvPacket(host, msg_);\n        if (acknowledgement.length > 0) {\n            IBCChannel.writeAcknowledgement(host, msg_.packet.destination_port, msg_.packet.destination_channel, msg_.packet.sequence, acknowledgement);\n            emit WriteAcknowledgement(msg_.packet.destination_port, msg_.packet.destination_channel, msg_.packet.sequence, acknowledgement);\n        }\n        emit RecvPacket(msg_.packet);\n        return acknowledgement;\n    }\n\n    function writeAcknowledgement(string calldata destinationPortId, string calldata destinationChannel, uint64 sequence, bytes calldata acknowledgement) external {\n        require(host.authenticateCapability(\n            IBCIdentifier.channelCapabilityPath(destinationPortId, destinationChannel),\n            msg.sender\n        ));\n        IBCChannel.writeAcknowledgement(host, destinationPortId, destinationChannel, sequence, acknowledgement);\n        emit WriteAcknowledgement(destinationPortId, destinationChannel, sequence, acknowledgement);\n    }\n\n    function acknowledgePacket(IBCMsgs.MsgPacketAcknowledgement calldata msg_) external {\n        IModuleCallbacks module = lookupModuleByChannel(msg_.packet.source_port, msg_.packet.source_channel);\n        module.onAcknowledgementPacket(msg_.packet, msg_.acknowledgement);\n        IBCChannel.acknowledgePacket(host, msg_);\n        emit AcknowledgePacket(msg_.packet, msg_.acknowledgement);\n    }\n\n    function bindPort(string memory portId, address moduleAddress) public {\n        onlyOwner();\n        host.claimCapability(IBCIdentifier.portCapabilityPath(portId), moduleAddress);\n    }\n\n    function setExpectedTimePerBlock(uint64 expectedTimePerBlock_) external {\n        // TODO: consider better authn/authz for this operation\n        onlyOwner();\n        host.setExpectedTimePerBlock(expectedTimePerBlock_);\n    }\n\n    function lookupModuleByPortId(string memory portId) internal view returns (IModuleCallbacks) {\n        (address module, bool found) = host.getModuleOwner(IBCIdentifier.portCapabilityPath(portId));\n        require(found);\n        return IModuleCallbacks(module);\n    }\n\n    function lookupModuleByChannel(string memory portId, string memory channelId) internal view returns (IModuleCallbacks) {\n        (address module, bool found) = host.getModuleOwner(IBCIdentifier.channelCapabilityPath(portId, channelId));\n        require(found);\n        return IModuleCallbacks(module);\n    }\n\n    function onlyOwner() internal view {\n        require(msg.sender == owner);\n    }\n}\n",
  "sourcePath": "/home/dallant/Code/ancon-protocol/ethereum/contracts/yui-ibc-solidity/core/IBCHandler.sol",
  "compiler": {
    "name": "solc",
    "version": "0.8.10+commit.fc410830.Emscripten.clang"
  },
  "schemaVersion": "3.4.3",
  "updatedAt": "2021-11-09T21:15:59.035Z",
  "devdoc": {
    "kind": "dev",
    "methods": {},
    "version": 1
  },
  "userdoc": {
    "events": {
      "SendPacket((uint64,string,string,string,string,bytes,(uint64,uint64),uint64))": {
        "notice": "Event definitions ///"
      }
    },
    "kind": "user",
    "methods": {
      "createClient((string,uint64,bytes,bytes))": {
        "notice": "Handler interface implementations ///"
      }
    },
    "version": 1
  }
}