{
  "contractName": "IBCIdentifier",
  "abi": [
    {
      "inputs": [
        {
          "internalType": "string",
          "name": "clientId",
          "type": "string"
        }
      ],
      "name": "clientCommitmentKey",
      "outputs": [
        {
          "internalType": "bytes32",
          "name": "",
          "type": "bytes32"
        }
      ],
      "stateMutability": "pure",
      "type": "function"
    },
    {
      "inputs": [
        {
          "internalType": "string",
          "name": "clientId",
          "type": "string"
        },
        {
          "internalType": "uint64",
          "name": "height",
          "type": "uint64"
        }
      ],
      "name": "consensusCommitmentKey",
      "outputs": [
        {
          "internalType": "bytes32",
          "name": "",
          "type": "bytes32"
        }
      ],
      "stateMutability": "pure",
      "type": "function"
    },
    {
      "inputs": [
        {
          "internalType": "string",
          "name": "connectionId",
          "type": "string"
        }
      ],
      "name": "connectionCommitmentKey",
      "outputs": [
        {
          "internalType": "bytes32",
          "name": "",
          "type": "bytes32"
        }
      ],
      "stateMutability": "pure",
      "type": "function"
    },
    {
      "inputs": [
        {
          "internalType": "string",
          "name": "portId",
          "type": "string"
        },
        {
          "internalType": "string",
          "name": "channelId",
          "type": "string"
        }
      ],
      "name": "channelCommitmentKey",
      "outputs": [
        {
          "internalType": "bytes32",
          "name": "",
          "type": "bytes32"
        }
      ],
      "stateMutability": "pure",
      "type": "function"
    },
    {
      "inputs": [
        {
          "internalType": "string",
          "name": "portId",
          "type": "string"
        },
        {
          "internalType": "string",
          "name": "channelId",
          "type": "string"
        },
        {
          "internalType": "uint64",
          "name": "sequence",
          "type": "uint64"
        }
      ],
      "name": "packetCommitmentKey",
      "outputs": [
        {
          "internalType": "bytes32",
          "name": "",
          "type": "bytes32"
        }
      ],
      "stateMutability": "pure",
      "type": "function"
    },
    {
      "inputs": [
        {
          "internalType": "string",
          "name": "portId",
          "type": "string"
        },
        {
          "internalType": "string",
          "name": "channelId",
          "type": "string"
        },
        {
          "internalType": "uint64",
          "name": "sequence",
          "type": "uint64"
        }
      ],
      "name": "packetAcknowledgementCommitmentKey",
      "outputs": [
        {
          "internalType": "bytes32",
          "name": "",
          "type": "bytes32"
        }
      ],
      "stateMutability": "pure",
      "type": "function"
    },
    {
      "inputs": [
        {
          "internalType": "string",
          "name": "clientId",
          "type": "string"
        }
      ],
      "name": "clientStateCommitmentSlot",
      "outputs": [
        {
          "internalType": "bytes32",
          "name": "",
          "type": "bytes32"
        }
      ],
      "stateMutability": "pure",
      "type": "function"
    },
    {
      "inputs": [
        {
          "internalType": "string",
          "name": "clientId",
          "type": "string"
        },
        {
          "internalType": "uint64",
          "name": "height",
          "type": "uint64"
        }
      ],
      "name": "consensusStateCommitmentSlot",
      "outputs": [
        {
          "internalType": "bytes32",
          "name": "",
          "type": "bytes32"
        }
      ],
      "stateMutability": "pure",
      "type": "function"
    },
    {
      "inputs": [
        {
          "internalType": "string",
          "name": "connectionId",
          "type": "string"
        }
      ],
      "name": "connectionCommitmentSlot",
      "outputs": [
        {
          "internalType": "bytes32",
          "name": "",
          "type": "bytes32"
        }
      ],
      "stateMutability": "pure",
      "type": "function"
    },
    {
      "inputs": [
        {
          "internalType": "string",
          "name": "portId",
          "type": "string"
        },
        {
          "internalType": "string",
          "name": "channelId",
          "type": "string"
        }
      ],
      "name": "channelCommitmentSlot",
      "outputs": [
        {
          "internalType": "bytes32",
          "name": "",
          "type": "bytes32"
        }
      ],
      "stateMutability": "pure",
      "type": "function"
    },
    {
      "inputs": [
        {
          "internalType": "string",
          "name": "portId",
          "type": "string"
        },
        {
          "internalType": "string",
          "name": "channelId",
          "type": "string"
        },
        {
          "internalType": "uint64",
          "name": "sequence",
          "type": "uint64"
        }
      ],
      "name": "packetCommitmentSlot",
      "outputs": [
        {
          "internalType": "bytes32",
          "name": "",
          "type": "bytes32"
        }
      ],
      "stateMutability": "pure",
      "type": "function"
    },
    {
      "inputs": [
        {
          "internalType": "string",
          "name": "portId",
          "type": "string"
        },
        {
          "internalType": "string",
          "name": "channelId",
          "type": "string"
        },
        {
          "internalType": "uint64",
          "name": "sequence",
          "type": "uint64"
        }
      ],
      "name": "packetAcknowledgementCommitmentSlot",
      "outputs": [
        {
          "internalType": "bytes32",
          "name": "",
          "type": "bytes32"
        }
      ],
      "stateMutability": "pure",
      "type": "function"
    },
    {
      "inputs": [
        {
          "internalType": "string",
          "name": "portId",
          "type": "string"
        }
      ],
      "name": "portCapabilityPath",
      "outputs": [
        {
          "internalType": "bytes",
          "name": "",
          "type": "bytes"
        }
      ],
      "stateMutability": "pure",
      "type": "function"
    },
    {
      "inputs": [
        {
          "internalType": "string",
          "name": "portId",
          "type": "string"
        },
        {
          "internalType": "string",
          "name": "channelId",
          "type": "string"
        }
      ],
      "name": "channelCapabilityPath",
      "outputs": [
        {
          "internalType": "bytes",
          "name": "",
          "type": "bytes"
        }
      ],
      "stateMutability": "pure",
      "type": "function"
    }
  ],
  "bytecode": "0x610c7c61003a600b82828239805160001a60731461002d57634e487b7160e01b600052600060045260246000fd5b30600052607381538281f3fe73000000000000000000000000000000000000000030146080604052600436106100f45760003560e01c8063b0db45ba11610096578063c6c9159c11610070578063c6c9159c146101db578063c7ddc606146101ee578063dae1b0f814610201578063e334f11b1461021457600080fd5b8063b0db45ba146101a2578063c1f0b643146101b5578063c50839ec146101c857600080fd5b80638b89bf24116100d25780638b89bf2414610156578063a9dd3eb314610169578063ad30116c1461017c578063b0cbb1201461018f57600080fd5b80632570dae0146100f95780633560a02d146101225780633bc3339f14610143575b600080fd5b61010c610107366004610676565b610227565b60405161011991906106e8565b60405180910390f35b61013561013036600461071b565b610253565b604051908152602001610119565b61010c61015136600461071b565b6102fd565b610135610164366004610676565b61032f565b610135610177366004610843565b6103a4565b61013561018a36600461089d565b6103d7565b61013561019d366004610676565b61044f565b6101356101b03660046108f1565b610490565b6101356101c3366004610972565b61053d565b6101356101d63660046108f1565b610555565b6101356101e93660046109c0565b6105cc565b6101356101fc366004610843565b6105e4565b61013561020f366004610a24565b6105f9565b610135610222366004610a24565b610613565b6060828260405160200161023c929190610a8f565b604051602081830303815290604052905092915050565b60006102c885858080601f01602080910402602001604051908101604052809392919081815260200183838082843760009201919091525050604080516020601f890181900481028201810190925287815292508791508690819084018382808284376000920191909152506105cc92505050565b604080516020810192909252600090820152606001604051602081830303815290604052805190602001209050949350505050565b6060848484846040516020016103169493929190610a9f565b6040516020818303038152906040529050949350505050565b600061037083838080601f0160208091040260200160405190810160405280939291908181526020018383808284376000920191909152506103a492505050565b6040805160208101929092526000908201526060015b60405160208183030381529060405280519060200120905092915050565b60006002826040516020016103ba929190610acc565b604051602081830303815290604052805190602001209050919050565b600061041a84848080601f01602080910402602001604051908101604052809392919081815260200183838082843760009201919091525086925061053d915050565b6040805160208101929092526000908201526060015b6040516020818303038152906040528051906020012090509392505050565b600061037083838080601f0160208091040260200160405190810160405280939291908181526020018383808284376000920191909152506105e492505050565b600061050786868080601f01602080910402602001604051908101604052809392919081815260200183838082843760009201919091525050604080516020601f8a0181900481028201810190925288815292508891508790819084018382808284376000920191909152508792506105f9915050565b60408051602081019290925260009082015260600160405160208183030381529060405280519060200120905095945050505050565b60006001838360405160200161038693929190610aff565b600061050786868080601f01602080910402602001604051908101604052809392919081815260200183838082843760009201919091525050604080516020601f8a018190048102820181019092528881529250889150879081908401838280828437600092019190915250879250610613915050565b60006003838360405160200161038693929190610b6a565b600080826040516020016103ba929190610acc565b600060048484846040516020016104309493929190610bbd565b600060058484846040516020016104309493929190610bbd565b60008083601f84011261063f57600080fd5b50813567ffffffffffffffff81111561065757600080fd5b60208301915083602082850101111561066f57600080fd5b9250929050565b6000806020838503121561068957600080fd5b823567ffffffffffffffff8111156106a057600080fd5b6106ac8582860161062d565b90969095509350505050565b60005b838110156106d35781810151838201526020016106bb565b838111156106e2576000848401525b50505050565b60208152600082518060208401526107078160408501602087016106b8565b601f01601f19169190910160400192915050565b6000806000806040858703121561073157600080fd5b843567ffffffffffffffff8082111561074957600080fd5b6107558883890161062d565b9096509450602087013591508082111561076e57600080fd5b5061077b8782880161062d565b95989497509550505050565b7f4e487b7100000000000000000000000000000000000000000000000000000000600052604160045260246000fd5b600082601f8301126107c757600080fd5b813567ffffffffffffffff808211156107e2576107e2610787565b604051601f8301601f19908116603f0116810190828211818310171561080a5761080a610787565b8160405283815286602085880101111561082357600080fd5b836020870160208301376000602085830101528094505050505092915050565b60006020828403121561085557600080fd5b813567ffffffffffffffff81111561086c57600080fd5b610878848285016107b6565b949350505050565b803567ffffffffffffffff8116811461089857600080fd5b919050565b6000806000604084860312156108b257600080fd5b833567ffffffffffffffff8111156108c957600080fd5b6108d58682870161062d565b90945092506108e8905060208501610880565b90509250925092565b60008060008060006060868803121561090957600080fd5b853567ffffffffffffffff8082111561092157600080fd5b61092d89838a0161062d565b9097509550602088013591508082111561094657600080fd5b506109538882890161062d565b9094509250610966905060408701610880565b90509295509295909350565b6000806040838503121561098557600080fd5b823567ffffffffffffffff81111561099c57600080fd5b6109a8858286016107b6565b9250506109b760208401610880565b90509250929050565b600080604083850312156109d357600080fd5b823567ffffffffffffffff808211156109eb57600080fd5b6109f7868387016107b6565b93506020850135915080821115610a0d57600080fd5b50610a1a858286016107b6565b9150509250929050565b600080600060608486031215610a3957600080fd5b833567ffffffffffffffff80821115610a5157600080fd5b610a5d878388016107b6565b94506020860135915080821115610a7357600080fd5b50610a80868287016107b6565b9250506108e860408501610880565b8183823760009101908152919050565b83858237602f60f81b81850190815260009083856001830137600093016001019283525090949350505050565b6001600160f81b03198360f81b16815260008251610af18160018501602087016106b8565b919091016001019392505050565b6001600160f81b03198460f81b16815260008351610b248160018501602088016106b8565b602f60f81b600193909101928301525060c09190911b7fffffffffffffffff000000000000000000000000000000000000000000000000166002820152600a0192915050565b6001600160f81b03198460f81b16815260008351610b8f8160018501602088016106b8565b602f60f81b6001918401918201528351610bb08160028401602088016106b8565b0160020195945050505050565b6001600160f81b03198560f81b16815260008451610be28160018501602089016106b8565b8083019050602f60f81b8060018301528551610c05816002850160208a016106b8565b600292019182015260c09390931b7fffffffffffffffff0000000000000000000000000000000000000000000000001660038401525050600b01939250505056fea2646970667358221220548dc19a0a1304c59b8d9a6c67c1a4758841179a7ab808d78dfb2aaedb6ba06964736f6c63430008090033",
  "immutableReferences": {},
  "source": "pragma solidity ^0.8.9;\n\nlibrary IBCIdentifier {\n\n    // constant values\n\n    uint256 constant commitmentSlot = 0;\n    uint8 constant clientPrefix = 0;\n    uint8 constant consensusStatePrefix = 1;\n    uint8 constant connectionPrefix = 2;\n    uint8 constant channelPrefix = 3;\n    uint8 constant packetPrefix = 4;\n    uint8 constant packetAckPrefix = 5;\n\n    // Commitment key generator\n\n    function clientCommitmentKey(string memory clientId) public pure returns (bytes32) {\n        return keccak256(abi.encodePacked(clientPrefix, clientId));\n    }\n\n    function consensusCommitmentKey(string memory clientId, uint64 height) public pure returns (bytes32) {\n        return keccak256(abi.encodePacked(consensusStatePrefix, clientId, \"/\", height));\n    }\n\n    function connectionCommitmentKey(string memory connectionId) public pure returns (bytes32) {\n        return keccak256(abi.encodePacked(connectionPrefix, connectionId));\n    }\n\n    function channelCommitmentKey(string memory portId, string memory channelId) public pure returns (bytes32) {\n        return keccak256(abi.encodePacked(channelPrefix, portId, \"/\", channelId));\n    }\n\n    function packetCommitmentKey(string memory portId, string memory channelId, uint64 sequence) public pure returns (bytes32) {\n        return keccak256(abi.encodePacked(packetPrefix, portId, \"/\", channelId, \"/\", sequence));\n    }\n\n    function packetAcknowledgementCommitmentKey(string memory portId, string memory channelId, uint64 sequence) public pure returns (bytes32) {\n        return keccak256(abi.encodePacked(packetAckPrefix, portId, \"/\", channelId, \"/\", sequence));\n    }\n\n    // Slot calculator\n\n    function clientStateCommitmentSlot(string calldata clientId) external pure returns (bytes32) {\n        return keccak256(abi.encodePacked(clientCommitmentKey(clientId), commitmentSlot));\n    }\n\n    function consensusStateCommitmentSlot(string calldata clientId, uint64 height) external pure returns (bytes32) {\n        return keccak256(abi.encodePacked(consensusCommitmentKey(clientId, height), commitmentSlot));\n    }\n\n    function connectionCommitmentSlot(string calldata connectionId) external pure returns (bytes32) {\n        return keccak256(abi.encodePacked(connectionCommitmentKey(connectionId), commitmentSlot));\n    }\n\n    function channelCommitmentSlot(string calldata portId, string calldata channelId) external pure returns (bytes32) {\n        return keccak256(abi.encodePacked(channelCommitmentKey(portId, channelId), commitmentSlot));\n    }\n\n    function packetCommitmentSlot(string calldata portId, string calldata channelId, uint64 sequence) external pure returns (bytes32) {\n        return keccak256(abi.encodePacked(packetCommitmentKey(portId, channelId, sequence), commitmentSlot));\n    }\n\n    function packetAcknowledgementCommitmentSlot(string calldata portId, string calldata channelId, uint64 sequence) external pure returns (bytes32) {\n        return keccak256(abi.encodePacked(packetAcknowledgementCommitmentKey(portId, channelId, sequence), commitmentSlot));\n    }\n\n    // CapabilityPath\n\n    function portCapabilityPath(string calldata portId) external pure returns (bytes memory) {\n        return abi.encodePacked(portId);\n    }\n\n    function channelCapabilityPath(string calldata portId, string calldata channelId) external pure returns (bytes memory) {\n        return abi.encodePacked(portId, \"/\", channelId);\n    }\n}\n",
  "sourcePath": "/home/rogelio/Code/ancon-protocol/ethereum/contracts/yui-ibc-solidity/core/IBCIdentifier.sol",
  "compiler": {
    "name": "solc",
    "version": "0.8.9+commit.e5eed63a.Emscripten.clang"
  },
  "schemaVersion": "3.4.0",
  "updatedAt": "2021-10-29T23:56:50.679Z",
  "devdoc": {
    "kind": "dev",
    "methods": {},
    "version": 1
  },
  "userdoc": {
    "kind": "user",
    "methods": {},
    "version": 1
  }
}