{
  "contractName": "IBFT2Client",
  "abi": [
    {
      "inputs": [],
      "stateMutability": "nonpayable",
      "type": "constructor"
    },
    {
      "inputs": [
        {
          "internalType": "contract IBCHost",
          "name": "host",
          "type": "address"
        },
        {
          "internalType": "string",
          "name": "clientId",
          "type": "string"
        },
        {
          "internalType": "uint64",
          "name": "height",
          "type": "uint64"
        }
      ],
      "name": "getTimestampAtHeight",
      "outputs": [
        {
          "internalType": "uint64",
          "name": "",
          "type": "uint64"
        },
        {
          "internalType": "bool",
          "name": "",
          "type": "bool"
        }
      ],
      "stateMutability": "view",
      "type": "function",
      "constant": true
    },
    {
      "inputs": [
        {
          "internalType": "contract IBCHost",
          "name": "host",
          "type": "address"
        },
        {
          "internalType": "string",
          "name": "clientId",
          "type": "string"
        }
      ],
      "name": "getLatestHeight",
      "outputs": [
        {
          "internalType": "uint64",
          "name": "",
          "type": "uint64"
        },
        {
          "internalType": "bool",
          "name": "",
          "type": "bool"
        }
      ],
      "stateMutability": "view",
      "type": "function",
      "constant": true
    },
    {
      "inputs": [
        {
          "internalType": "contract IBCHost",
          "name": "host",
          "type": "address"
        },
        {
          "internalType": "string",
          "name": "clientId",
          "type": "string"
        },
        {
          "internalType": "bytes",
          "name": "clientStateBytes",
          "type": "bytes"
        },
        {
          "internalType": "bytes",
          "name": "headerBytes",
          "type": "bytes"
        }
      ],
      "name": "checkHeaderAndUpdateState",
      "outputs": [
        {
          "internalType": "bytes",
          "name": "newClientStateBytes",
          "type": "bytes"
        },
        {
          "internalType": "bytes",
          "name": "newConsensusStateBytes",
          "type": "bytes"
        },
        {
          "internalType": "uint64",
          "name": "height",
          "type": "uint64"
        }
      ],
      "stateMutability": "view",
      "type": "function",
      "constant": true
    },
    {
      "inputs": [
        {
          "internalType": "contract IBCHost",
          "name": "host",
          "type": "address"
        },
        {
          "internalType": "string",
          "name": "clientId",
          "type": "string"
        },
        {
          "internalType": "uint64",
          "name": "height",
          "type": "uint64"
        },
        {
          "internalType": "bytes",
          "name": "prefix",
          "type": "bytes"
        },
        {
          "internalType": "string",
          "name": "counterpartyClientIdentifier",
          "type": "string"
        },
        {
          "internalType": "bytes",
          "name": "proof",
          "type": "bytes"
        },
        {
          "internalType": "bytes",
          "name": "clientStateBytes",
          "type": "bytes"
        }
      ],
      "name": "verifyClientState",
      "outputs": [
        {
          "internalType": "bool",
          "name": "",
          "type": "bool"
        }
      ],
      "stateMutability": "nonpayable",
      "type": "function"
    },
    {
      "inputs": [
        {
          "internalType": "contract IBCHost",
          "name": "host",
          "type": "address"
        },
        {
          "internalType": "string",
          "name": "clientId",
          "type": "string"
        },
        {
          "internalType": "uint64",
          "name": "height",
          "type": "uint64"
        },
        {
          "internalType": "string",
          "name": "counterpartyClientIdentifier",
          "type": "string"
        },
        {
          "internalType": "uint64",
          "name": "consensusHeight",
          "type": "uint64"
        },
        {
          "internalType": "bytes",
          "name": "prefix",
          "type": "bytes"
        },
        {
          "internalType": "bytes",
          "name": "proof",
          "type": "bytes"
        },
        {
          "internalType": "bytes",
          "name": "consensusStateBytes",
          "type": "bytes"
        }
      ],
      "name": "verifyClientConsensusState",
      "outputs": [
        {
          "internalType": "bool",
          "name": "",
          "type": "bool"
        }
      ],
      "stateMutability": "nonpayable",
      "type": "function"
    },
    {
      "inputs": [
        {
          "internalType": "contract IBCHost",
          "name": "host",
          "type": "address"
        },
        {
          "internalType": "string",
          "name": "clientId",
          "type": "string"
        },
        {
          "internalType": "uint64",
          "name": "height",
          "type": "uint64"
        },
        {
          "internalType": "bytes",
          "name": "prefix",
          "type": "bytes"
        },
        {
          "internalType": "bytes",
          "name": "proof",
          "type": "bytes"
        },
        {
          "internalType": "string",
          "name": "connectionId",
          "type": "string"
        },
        {
          "internalType": "bytes",
          "name": "connectionBytes",
          "type": "bytes"
        }
      ],
      "name": "verifyConnectionState",
      "outputs": [
        {
          "internalType": "bool",
          "name": "",
          "type": "bool"
        }
      ],
      "stateMutability": "nonpayable",
      "type": "function"
    },
    {
      "inputs": [
        {
          "internalType": "contract IBCHost",
          "name": "host",
          "type": "address"
        },
        {
          "internalType": "string",
          "name": "clientId",
          "type": "string"
        },
        {
          "internalType": "uint64",
          "name": "height",
          "type": "uint64"
        },
        {
          "internalType": "bytes",
          "name": "prefix",
          "type": "bytes"
        },
        {
          "internalType": "bytes",
          "name": "proof",
          "type": "bytes"
        },
        {
          "internalType": "string",
          "name": "portId",
          "type": "string"
        },
        {
          "internalType": "string",
          "name": "channelId",
          "type": "string"
        },
        {
          "internalType": "bytes",
          "name": "channelBytes",
          "type": "bytes"
        }
      ],
      "name": "verifyChannelState",
      "outputs": [
        {
          "internalType": "bool",
          "name": "",
          "type": "bool"
        }
      ],
      "stateMutability": "nonpayable",
      "type": "function"
    },
    {
      "inputs": [
        {
          "internalType": "contract IBCHost",
          "name": "host",
          "type": "address"
        },
        {
          "internalType": "string",
          "name": "clientId",
          "type": "string"
        },
        {
          "internalType": "uint64",
          "name": "height",
          "type": "uint64"
        },
        {
          "internalType": "uint64",
          "name": "delayPeriodTime",
          "type": "uint64"
        },
        {
          "internalType": "uint64",
          "name": "delayPeriodBlocks",
          "type": "uint64"
        },
        {
          "internalType": "bytes",
          "name": "prefix",
          "type": "bytes"
        },
        {
          "internalType": "bytes",
          "name": "proof",
          "type": "bytes"
        },
        {
          "internalType": "string",
          "name": "portId",
          "type": "string"
        },
        {
          "internalType": "string",
          "name": "channelId",
          "type": "string"
        },
        {
          "internalType": "uint64",
          "name": "sequence",
          "type": "uint64"
        },
        {
          "internalType": "bytes32",
          "name": "commitmentBytes",
          "type": "bytes32"
        }
      ],
      "name": "verifyPacketCommitment",
      "outputs": [
        {
          "internalType": "bool",
          "name": "",
          "type": "bool"
        }
      ],
      "stateMutability": "nonpayable",
      "type": "function"
    },
    {
      "inputs": [
        {
          "internalType": "contract IBCHost",
          "name": "host",
          "type": "address"
        },
        {
          "internalType": "string",
          "name": "clientId",
          "type": "string"
        },
        {
          "internalType": "uint64",
          "name": "height",
          "type": "uint64"
        },
        {
          "internalType": "uint64",
          "name": "delayPeriodTime",
          "type": "uint64"
        },
        {
          "internalType": "uint64",
          "name": "delayPeriodBlocks",
          "type": "uint64"
        },
        {
          "internalType": "bytes",
          "name": "prefix",
          "type": "bytes"
        },
        {
          "internalType": "bytes",
          "name": "proof",
          "type": "bytes"
        },
        {
          "internalType": "string",
          "name": "portId",
          "type": "string"
        },
        {
          "internalType": "string",
          "name": "channelId",
          "type": "string"
        },
        {
          "internalType": "uint64",
          "name": "sequence",
          "type": "uint64"
        },
        {
          "internalType": "bytes",
          "name": "acknowledgement",
          "type": "bytes"
        }
      ],
      "name": "verifyPacketAcknowledgement",
      "outputs": [
        {
          "internalType": "bool",
          "name": "",
          "type": "bool"
        }
      ],
      "stateMutability": "nonpayable",
      "type": "function"
    },
    {
      "inputs": [
        {
          "internalType": "contract IBCHost",
          "name": "host",
          "type": "address"
        },
        {
          "internalType": "string",
          "name": "clientId",
          "type": "string"
        }
      ],
      "name": "getClientState",
      "outputs": [
        {
          "components": [
            {
              "internalType": "string",
              "name": "chain_id",
              "type": "string"
            },
            {
              "internalType": "bytes",
              "name": "ibc_store_address",
              "type": "bytes"
            },
            {
              "internalType": "uint64",
              "name": "latest_height",
              "type": "uint64"
            }
          ],
          "internalType": "struct IbcLightclientsIbft2V1ClientState.Data",
          "name": "clientState",
          "type": "tuple"
        },
        {
          "internalType": "bool",
          "name": "found",
          "type": "bool"
        }
      ],
      "stateMutability": "view",
      "type": "function",
      "constant": true
    },
    {
      "inputs": [
        {
          "internalType": "contract IBCHost",
          "name": "host",
          "type": "address"
        },
        {
          "internalType": "string",
          "name": "clientId",
          "type": "string"
        },
        {
          "internalType": "uint64",
          "name": "height",
          "type": "uint64"
        }
      ],
      "name": "getConsensusState",
      "outputs": [
        {
          "components": [
            {
              "internalType": "uint64",
              "name": "timestamp",
              "type": "uint64"
            },
            {
              "internalType": "bytes",
              "name": "root",
              "type": "bytes"
            },
            {
              "internalType": "bytes[]",
              "name": "validators",
              "type": "bytes[]"
            }
          ],
          "internalType": "struct IbcLightclientsIbft2V1ConsensusState.Data",
          "name": "consensusState",
          "type": "tuple"
        },
        {
          "internalType": "bool",
          "name": "found",
          "type": "bool"
        }
      ],
      "stateMutability": "view",
      "type": "function",
      "constant": true
    }
  ],
  "bytecode": "0x60806040523480156200001157600080fd5b5060408051606081019091527f2f6962632e6c69676874636c69656e74732e69626674322e76312e436c69656e60808201526574537461746560d01b60a08201528060a68101604051602081830303815290604052805190602001208152602001604051602001620000b8907f2f6962632e6c69676874636c69656e74732e69626674322e76312e436f6e73658152686e737573537461746560b81b602082015260290190565b60405160208183030381529060405280519060200120815260200160405160200162000111907f2f6962632e6c69676874636c69656e74732e69626674322e76312e48656164658152603960f91b602082015260210190565b60408051601f19818403018152918152815160209283012090925282516000558201516001550151600255615202806200014c6000396000f3fe608060405234801561001057600080fd5b50600436106100c95760003560e01c8063d112d0b511610081578063fe0177501161005b578063fe017750146101a8578063fe4391fd146101bb578063ff33b3e6146101dd57600080fd5b8063d112d0b51461016f578063eb4561fb14610182578063f30fef521461019557600080fd5b80636455eb57116100b25780636455eb5714610109578063bd90991a1461011c578063d10c838e1461014e57600080fd5b80630a888023146100ce5780633b8b16bc146100f6575b600080fd5b6100e16100dc366004614580565b6101fe565b60405190151581526020015b60405180910390f35b6100e16101043660046146b8565b610394565b6100e161011736600461480d565b610524565b61012f61012a366004614924565b61069e565b604080516001600160401b0390931683529015156020830152016100ed565b61016161015c366004614924565b6106d7565b6040516100ed9291906149dd565b6100e161017d366004614a7a565b6107bf565b6100e1610190366004614b6c565b6108da565b6100e16101a3366004614a7a565b6109cc565b61012f6101b6366004614bf8565b610ad6565b6101ce6101c9366004614c45565b610b10565b6040516100ed93929190614cdd565b6101f06101eb366004614bf8565b610e59565b6040516100ed929190614d1c565b604080516060808201835280825260208201526000918101829052610246604051806060016040528060006001600160401b0316815260200160608152602001606081525090565b60006102528f8f610e59565b9093509050806102685760009350505050610385565b610274838e8c8c610f2d565b6102845760009350505050610385565b6102918f8f8f8f8f610f7d565b6102a15760009350505050610385565b6102ac8f8f8f6106d7565b9092509050806102c25760009350505050610385565b61037f896102d38460200151611039565b6040517fb0db45ba0000000000000000000000000000000000000000000000000000000081528d9073__IBCIdentifier_________________________9063b0db45ba90610329908f908f908f90600401614cdd565b60206040518083038186803b15801561034157600080fd5b505af4158015610355573d6000803e3d6000fd5b505050506040513d601f19601f820116820180604052508101906103799190614d79565b89611094565b93505050505b9b9a5050505050505050505050565b6000806103a18d8d6110fa565b90506103af818c8a8a610f2d565b6103bd576000915050610385565b6103ca8d8d8d8d8d610f7d565b6103d8576000915050610385565b60006103f16103e88f8f8f61117c565b60200151611039565b9050600073__IBCIdentifier_________________________63c50839ec8989896040518463ffffffff1660e01b815260040161043093929190614cdd565b60206040518083038186803b15801561044857600080fd5b505af415801561045c573d6000803e3d6000fd5b505050506040513d601f19601f820116820180604052508101906104809190614d79565b905060008f6001600160a01b0316638a889658876040518263ffffffff1660e01b81526004016104b09190614d92565b60206040518083038186803b1580156104c857600080fd5b505afa1580156104dc573d6000803e3d6000fd5b505050506040513d601f19601f820116820180604052508101906105009190614d79565b905061050f8a848d8585611094565b9450505050509b9a5050505050505050505050565b60408051606080820183528082526020820152600091810182905261056c604051806060016040528060006001600160401b0316815260200160608152602001606081525090565b60006105788c8c610e59565b90935090508061058e5760009350505050610692565b61059a838b8b8b610f2d565b6105aa5760009350505050610692565b6105b58c8c8c6106d7565b9092509050806105cb5760009350505050610692565b61068c886105dc8460200151611039565b6040517f3560a02d0000000000000000000000000000000000000000000000000000000081528c9073__IBCIdentifier_________________________90633560a02d90610630908e908e90600401614da5565b60206040518083038186803b15801561064857600080fd5b505af415801561065c573d6000803e3d6000fd5b505050506040513d601f19601f820116820180604052508101906106809190614d79565b895160208b0120611094565b93505050505b98975050505050505050565b6000806000806106af8787876106d7565b91509150806106c6576000809350935050506106cf565b50519150600190505b935093915050565b610704604051806060016040528060006001600160401b0316815260200160608152602001606081525090565b60006060856001600160a01b031663a37a45c886866040518363ffffffff1660e01b8152600401610736929190614dca565b60006040518083038186803b15801561074e57600080fd5b505afa158015610762573d6000803e3d6000fd5b505050506040513d6000823e601f3d908101601f1916820160405261078a9190810190614e05565b925090508161079d5750600090506106cf565b6107b26107a982611213565b6020015161123e565b9660019650945050505050565b604080516060808201835280825260208201526000918101829052610807604051806060016040528060006001600160401b0316815260200160608152602001606081525090565b60006108138b8b610e59565b90935090508061082957600093505050506108cf565b610835838a8a8a610f2d565b61084557600093505050506108cf565b6108508b8b8b6106d7565b90925090508061086657600093505050506108cf565b6108c9876108778460200151611039565b6040517f8b89bf240000000000000000000000000000000000000000000000000000000081528b9073__IBCIdentifier_________________________90638b89bf2490610630908d90600401614d92565b93505050505b979650505050505050565b604080516060808201835280825260208201526000918101829052610922604051806060016040528060006001600160401b0316815260200160608152602001606081525090565b600061092e8c8c610e59565b9093509050806109445760009350505050610692565b610950838b8989610f2d565b6109605760009350505050610692565b61096b8c8c8c6106d7565b9092509050806109815760009350505050610692565b61068c866109928460200151611039565b8973__IBCIdentifier_________________________63ad30116c8e8e6040518363ffffffff1660e01b8152600401610630929190614dca565b604080516060808201835280825260208201526000918101829052610a14604051806060016040528060006001600160401b0316815260200160608152602001606081525090565b6000610a208b8b610e59565b909350905080610a3657600093505050506108cf565b610a42838a8a89610f2d565b610a5257600093505050506108cf565b610a5d8b8b8b6106d7565b909250905080610a7357600093505050506108cf565b6108c986610a848460200151611039565b6040517fb0cbb1200000000000000000000000000000000000000000000000000000000081528b9073__IBCIdentifier_________________________9063b0cbb12090610630908e90600401614d92565b600080600080610ae68686610e59565b9150915080610afd57600080935093505050610b09565b50604001519150600190505b9250929050565b6060806000610b496040518060800160405280606081526020016060815260200160006001600160401b03168152602001606081525090565b60408051606080820183528082526020808301829052600083850181905284518084018652908152908101829052928301529060606000610b898a61127a565b909450905080610be05760405162461bcd60e51b815260206004820152601760248201527f636c69656e7420737461746520697320696e76616c696400000000000000000060448201526064015b60405180910390fd5b610be9896112f8565b909550905080610c3b5760405162461bcd60e51b815260206004820152601160248201527f68656164657220697320696e76616c69640000000000000000000000000000006044820152606401610bd7565b610c4a8c8c87604001516106d7565b909350905080610c9c5760405162461bcd60e51b815260206004820152601860248201527f636f6e73656e7375735374617465206e6f7420666f756e6400000000000000006044820152606401610bd7565b6000610ca786611385565b905085604001516001600160401b031681602001516001600160401b031611610d385760405162461bcd60e51b815260206004820152602760248201527f68656164657220686569676874203c3d20636f6e73656e73757320737461746560448201527f20686569676874000000000000000000000000000000000000000000000000006064820152608401610bd7565b610d4284826115a0565b909350915081610d945760405162461bcd60e51b815260206004820152601b60248201527f6661696c656420746f20766572696679207468652068656164657200000000006044820152606401610bd7565b60608101516001600160401b031684526020850151610dc590610db69061160d565b82604001518860600151611668565b604051602001610dd791815260200190565b604051602081830303815290604052846020018190525082846040018190525084604001516001600160401b031681602001516001600160401b03161115610e2d5760208101516001600160401b031660408601525b610e36856116e1565b610e3f85611732565b602090920151909e919d509b509950505050505050505050565b6040805160608082018352808252602082015260009181019190915260006060846001600160a01b03166376c81c42856040518263ffffffff1660e01b8152600401610ea59190614d92565b60006040518083038186803b158015610ebd57600080fd5b505afa158015610ed1573d6000803e3d6000fd5b505050506040513d6000823e601f3d908101601f19168201604052610ef99190810190614e05565b9250905081610f0c575060009050610b09565b610f21610f1882611213565b60200151611775565b95600195509350505050565b6000836001600160401b031685604001516001600160401b03161015610f5557506000610f75565b8251610f6357506000610f75565b8151610f7157506000610f75565b5060015b949350505050565b600080610f8c426103e8614ea3565b610f98906103e8614ea3565b610fa4906103e8614ea3565b9050600084610fb48989896117a0565b610fbe9190614ec2565b9050806001600160401b0316826001600160401b03161015610fe557600092505050611030565b43600085610ff48b8b8b611897565b610ffe9190614ec2565b9050806001600160401b0316826001600160401b03161015611027576000945050505050611030565b60019450505050505b95945050505050565b6000815160201461108c5760405162461bcd60e51b815260206004820152601b60248201527f63616e6e6f7420636f6e7665727420696e746f206164647265737300000000006044820152606401610bd7565b506020015190565b600080836040516020016110aa91815260200190565b60408051601f198184030181529190528051602090910120905060006110d188888461196a565b90506110ec6110e76110e283611ed7565b611f28565b611039565b909314979650505050505050565b60408051606080820183528082526020820152600091810182905290806111218585610e59565b91509150806111725760405162461bcd60e51b815260206004820152601660248201527f636c69656e74207374617465206e6f7420666f756e64000000000000000000006044820152606401610bd7565b5090505b92915050565b6111a9604051806060016040528060006001600160401b0316815260200160608152602001606081525090565b6000806111b78686866106d7565b91509150806112085760405162461bcd60e51b815260206004820152601960248201527f636f6e73656e737573207374617465206e6f7420666f756e64000000000000006044820152606401610bd7565b5090505b9392505050565b604080518082019091526060808252602082015260006112366020848551611fc1565b509392505050565b61126b604051806060016040528060006001600160401b0316815260200160608152602001606081525090565b60006112366020848551612163565b60408051606080820183528082526020820152600091810182905290806112a084611213565b600054815160405192935090916112ba9190602001614eed565b60405160208183030381529060405280519060200120146112e057509092600092509050565b6112ed8160200151611775565b946001945092505050565b61132c6040518060800160405280606081526020016060815260200160006001600160401b03168152602001606081525090565b60008061133884611213565b600254815160405192935090916113529190602001614eed565b604051602081830303815290604052805190602001201461137857509092600092509050565b6112ed81602001516124ee565b604080516101208082018352606060a080840182815260c0808601849052600060e08088018290526101008089018790529388526020808901839052888a018390528689018390526080808a018890528a519889018b52958801879052928701869052860181905291850184905284018190529483018590528282018590528201528381528351919290916114229061141d90611ed7565b612531565b905061144a6110e78260038151811061143d5761143d614f09565b6020026020010151611f28565b60408301528051611475908290600890811061146857611468614f09565b60200260200101516126ab565b6001600160401b031660208301528051600f146114d45760405162461bcd60e51b815260206004820152601760248201527f6974656d73206c656e677468206d7573742062652031350000000000000000006044820152606401610bd7565b6114ea81600b8151811061146857611468614f09565b6001600160401b03166060830152805161151e9061141d90611519908490600c90811061143d5761143d614f09565b611ed7565b905080516004146115715760405162461bcd60e51b815260206004820152601660248201527f6578747261206c656e677468206d7573742062652034000000000000000000006044820152606401610bd7565b6115948160018151811061158757611587614f09565b6020026020010151612531565b60808301525092915050565b805180518051602091820120604080860151938301518151808301909252600182526003938201939093526060936000936115dc9284906126f9565b6115ea575060009050610b09565b6116018460800151856000015160200151836128aa565b92509250509250929050565b600081516014146116605760405162461bcd60e51b815260206004820152601b60248201527f63616e6e6f7420636f6e7665727420696e746f206164647265737300000000006044820152606401610bd7565b506014015190565b6040516bffffffffffffffffffffffff19606085901b166020820152600090819060340160408051601f198184030181529190528051602090910120905060006116b384868461196a565b90506116d76116c461141d83611ed7565b8051600290811061146857611468614f09565b9695505050505050565b6060611700604051806040016040528060608152602001606081525090565b60405180606001604052806026815260200161517e602691398152611724836129f6565b602082015261120c81612a5e565b6060611751604051806040016040528060608152602001606081525090565b6040518060600160405280602981526020016151a460299139815261172483612abd565b6040805160608082018352808252602082015260009181019190915260006112366020848551612b1c565b6000806000856001600160a01b0316632f80e3ad86866040518363ffffffff1660e01b81526004016117d3929190614dca565b604080518083038186803b1580156117ea57600080fd5b505afa1580156117fe573d6000803e3d6000fd5b505050506040513d601f19601f820116820180604052508101906118229190614f1f565b91509150806118735760405162461bcd60e51b815260206004820152601860248201527f70726f6365737365642074696d65206e6f7420666f756e6400000000000000006044820152606401610bd7565b61187f826103e8614f42565b61188b906103e8614f42565b6116d7906103e8614f42565b6000806000856001600160a01b03166336f5759286866040518363ffffffff1660e01b81526004016118ca929190614dca565b604080518083038186803b1580156118e157600080fd5b505afa1580156118f5573d6000803e3d6000fd5b505050506040513d601f19601f820116820180604052508101906119199190614f1f565b91509150806112085760405162461bcd60e51b815260206004820152601a60248201527f70726f63657373656420686569676874206e6f7420666f756e640000000000006044820152606401610bd7565b604080516020808252818301909252606091600091906020820181803683370190505090508260208201526119a0816000612cc5565b905060006119b061141d87611ed7565b905060006119d1604051806040016040528060008152602001600081525090565b600080845160001415611a6a577f56e81f171bcc55a6ff8345e692c0f86e5b48e01b996cadc001622fb5e363b4218914611a4d5760405162461bcd60e51b815260206004820152600f60248201527f42616420656d7074792070726f6f6600000000000000000000000000000000006044820152606401610bd7565b5050604080516000815260208101909152945061120c9350505050565b60005b8551811015611ec1576000611a9a878381518110611a8d57611a8d614f09565b6020026020010151612f1d565b905081611afb57805160208201208b14611af65760405162461bcd60e51b815260206004820152601460248201527f4261642066697273742070726f6f6620706172740000000000000000000000006044820152606401610bd7565b611b50565b805160208201208314611b505760405162461bcd60e51b815260206004820152600860248201527f42616420686173680000000000000000000000000000000000000000000000006044820152606401610bd7565b6000611b6788848151811061158757611587614f09565b9050805160021415611c8b576000611b93611b8e8360008151811061143d5761143d614f09565b612f8c565b9050611ba0868b8361304e565b611baa9087614f71565b955060018951611bba9190614f89565b841415611c385789518614611c115760405162461bcd60e51b815260206004820152601e60248201527f556e657870656374656420656e64206f662070726f6f6620286c6561662900006044820152606401610bd7565b611c278260018151811061143d5761143d614f09565b9a505050505050505050505061120c565b81600181518110611c4b57611c4b614f09565b60200260200101519650611c5e87613109565b611c7257611c6b87613134565b9450611c85565b611c7b87612f1d565b8051906020012094505b50611eac565b8051601114611cdc5760405162461bcd60e51b815260206004820152601360248201527f496e76616c6964206e6f6465206c656e677468000000000000000000000000006044820152606401610bd7565b60018851611cea9190614f89565b831415611dcc578851611cfe866001614f71565b1415611d2a57611d1a8160108151811061143d5761143d614f09565b995050505050505050505061120c565b611d348b8661319d565b9650808760ff1681518110611d4b57611d4b614f09565b60200260200101519550611d5e86611f28565b5115611dac5760405162461bcd60e51b815260206004820152601760248201527f496e76616c6964206578636c7573696f6e2070726f6f660000000000000000006044820152606401610bd7565b5050604080516000815260208101909152975061120c9650505050505050565b88518510611e425760405162461bcd60e51b815260206004820152602360248201527f436f6e74696e75696e67206272616e636820686173206465706c65746564207060448201527f61746800000000000000000000000000000000000000000000000000000000006064820152608401610bd7565b611e4c8b8661319d565b9650808760ff1681518110611e6357611e63614f09565b60200260200101519550600185611e7a9190614f71565b9450611e8586613109565b611e9957611e9286613134565b9350611eac565b611ea286612f1d565b8051906020012093505b50508080611eb990614fa0565b915050611a6d565b50611eca614fbb565b5050505050509392505050565b60408051808201909152600080825260208201528151611f0a575050604080518082019091526000808252602082015290565b50604080518082019091528151815260209182019181019190915290565b60606000611f398360200151613229565b90506000818460000151611f4d9190614f89565b90506000816001600160401b03811115611f6957611f696144a6565b6040519080825280601f01601f191660200182016040528015611f93576020820181803683370190505b5090506000816020019050611fb8848760200151611fb19190614f71565b82856132aa565b50949350505050565b60408051808201909152606080825260208201526000611ff4604051806040016040528060608152602001606081525090565b611ffc614430565b6000808089805b61200d8a83614f71565b8110156121515761201e818c61331c565b9196509450925061202f8382614f71565b9050846001141561205757612046818c8989613367565b6120509082614f71565b9050612003565b846002141561206c57612046818c89896133d5565b600184600581111561208057612080614fd1565b14156120a4576000612092828d61341a565b91506120a090508183614f71565b9150505b60058460058111156120b8576120b8614fd1565b14156120dc5760006120ca828d613439565b91506120d890508183614f71565b9150505b60008460058111156120f0576120f0614fd1565b1415612114576000612102828d61344b565b915061211090508183614f71565b9150505b600284600581111561212857612128614fd1565b141561214c57600061213a828d613551565b915061214890508183614f71565b9150505b612003565b50949a97995096975050505050505050565b612190604051806060016040528060006001600160401b0316815260200160608152602001606081525090565b6040805160608082018352600080835260208301829052928201526121b361444e565b6000808089805b6121c48a83614f71565b811015612324576121d5818c61331c565b919650945092506121e68382614f71565b9050846001141561220e576121fd818c8989613613565b6122079082614f71565b90506121ba565b8460021415612223576121fd818c89896133d5565b846003141561223f576121fd818c612239613662565b89613695565b600184600581111561225357612253614fd1565b1415612277576000612265828d61341a565b915061227390508183614f71565b9150505b600584600581111561228b5761228b614fd1565b14156122af57600061229d828d613439565b91506122ab90508183614f71565b9150505b60008460058111156122c3576122c3614fd1565b14156122e75760006122d5828d61344b565b91506122e390508183614f71565b9150505b60028460058111156122fb576122fb614fd1565b141561231f57600061230d828d613551565b915061231b90508183614f71565b9150505b6121ba565b50606085015181906001600160401b03811115612343576123436144a6565b60405190808252806020026020018201604052801561237657816020015b60608152602001906001900390816123615790505b5060408801525b6123878a83614f71565b81101561215157612398818c61331c565b919650945092506123a98382614f71565b905084600114156123d8576123c7818c6123c1613662565b89613613565b6123d19082614f71565b905061237d565b84600214156123f4576123c7818c6123ee613662565b896133d5565b8460031415612409576123c7818c8989613695565b600184600581111561241d5761241d614fd1565b141561244157600061242f828d61341a565b915061243d90508183614f71565b9150505b600584600581111561245557612455614fd1565b1415612479576000612467828d613439565b915061247590508183614f71565b9150505b600084600581111561248d5761248d614fd1565b14156124b157600061249f828d61344b565b91506124ad90508183614f71565b9150505b60028460058111156124c5576124c5614fd1565b14156124e95760006124d7828d613551565b91506124e590508183614f71565b9150505b61237d565b6125226040518060800160405280606081526020016060815260200160006001600160401b03168152602001606081525090565b6000611236602084855161370d565b606061253c82613109565b6125ae5760405162461bcd60e51b815260206004820152602a60248201527f43616e6e6f7420636f6e7665727420746f206c6973742061206e6f6e2d6c697360448201527f7420524c504974656d2e000000000000000000000000000000000000000000006064820152608401610bd7565b60006125b983613ad7565b9050806001600160401b038111156125d3576125d36144a6565b60405190808252806020026020018201604052801561261857816020015b60408051808201909152600080825260208201528152602001906001900390816125f15790505b509150600061262a8460200151613229565b84602001516126399190614f71565b90506000805b838110156126a25761265083613b4f565b915060405180604001604052808381526020018481525085828151811061267957612679614f09565b602090810291909101015261268e8284614f71565b92508061269a81614fa0565b91505061263f565b50505050919050565b6000806126bb8360200151613229565b905060008184600001516126cf9190614f89565b905060008285602001516126e39190614f71565b516020929092036101000a909104949350505050565b60008060009050600086516001600160401b0381111561271b5761271b6144a6565b604051908082528060200260200182016040528015612744578160200160208202803683370190505b50905060005b86518110156128655786818151811061276557612765614f09565b6020026020010151516000141561277b57612853565b60006127a08789848151811061279357612793614f09565b6020026020010151613bde565b905060005b8951811015612850578381815181106127c0576127c0614f09565b60200260200101511580156128075750816001600160a01b03166127fc8b83815181106127ef576127ef614f09565b602002602001015161160d565b6001600160a01b0316145b1561283e578461281681614fe7565b955050600184828151811061282d5761282d614f09565b911515602092830291909101909101525b8061284881614fa0565b9150506127a5565b50505b8061285d81614fa0565b91505061274a565b5083602001516001600160401b031684600001516001600160401b0316885161288e9190614ea3565b612898919061501d565b8260ff16101592505050949350505050565b606060008085516001600160401b038111156128c8576128c86144a6565b6040519080825280602002602001820160405280156128fb57816020015b60608152602001906001900390816128e65790505b5090506000805b86518110156129c85761292088828151811061143d5761143d614f09565b83828151811061293257612932614f09565b602002602001018190525086818151811061294f5761294f614f09565b60200260200101515160001415612965576129b6565b61297b8688838151811061279357612793614f09565b6001600160a01b03166129998483815181106127ef576127ef614f09565b6001600160a01b031614156129b657816129b281614fe7565b9250505b806129c081614fa0565b915050612902565b50816003885160026129da9190614ea3565b6129e4919061501d565b909860ff909216119650945050505050565b60606000612a0383613cb5565b6001600160401b03811115612a1a57612a1a6144a6565b6040519080825280601f01601f191660200182016040528015612a44576020820181803683370190505b5090506000612a5584602084613d24565b82525092915050565b60606000612a6b83613dfc565b6001600160401b03811115612a8257612a826144a6565b6040519080825280601f01601f191660200182016040528015612aac576020820181803683370190505b5090506000612a5584602084613e32565b60606000612aca83613e93565b6001600160401b03811115612ae157612ae16144a6565b6040519080825280601f01601f191660200182016040528015612b0b576020820181803683370190505b5090506000612a5584602084613f43565b60408051606080820183528082526020820152600091810191909152604080516060808201835280825260208201526000918101829052612b5b61444e565b6000808089805b612b6c8a83614f71565b81101561215157612b7d818c61331c565b91965094509250612b8e8382614f71565b90508460011415612bb657612ba5818c8989614058565b612baf9082614f71565b9050612b62565b8460021415612bcb57612ba5818c89896133d5565b8460031415612be057612ba5818c898961408e565b6001846005811115612bf457612bf4614fd1565b1415612c18576000612c06828d61341a565b9150612c1490508183614f71565b9150505b6005846005811115612c2c57612c2c614fd1565b1415612c50576000612c3e828d613439565b9150612c4c90508183614f71565b9150505b6000846005811115612c6457612c64614fd1565b1415612c88576000612c76828d61344b565b9150612c8490508183614f71565b9150505b6002846005811115612c9c57612c9c614fd1565b1415612cc0576000612cae828d613551565b9150612cbc90508183614f71565b9150505b612b62565b60606000835111612d185760405162461bcd60e51b815260206004820152601160248201527f456d7074792062797465732061727261790000000000000000000000000000006044820152606401610bd7565b600083516002612d289190614ea3565b905080831115612d7a5760405162461bcd60e51b815260206004820152601d60248201527f536b6970206e6962626c657320616d6f756e7420746f6f206c617267650000006044820152606401610bd7565b612d848382614f89565b9050806001600160401b03811115612d9e57612d9e6144a6565b6040519080825280601f01601f191660200182016040528015612dc8576020820181803683370190505b5091506000835b612dd98386614f71565b811015612f0457612deb600282615031565b612e6c57600486612dfd60028461501d565b81518110612e0d57612e0d614f09565b602001015160f81c60f81b60f81c60ff16901c600f1660f81b848381518110612e3857612e38614f09565b60200101907effffffffffffffffffffffffffffffffffffffffffffffffffffffffffffff1916908160001a905350612ee5565b600086612e7a60028461501d565b81518110612e8a57612e8a614f09565b602001015160f81c60f81b60f81c60ff16901c600f1660f81b848381518110612eb557612eb5614f09565b60200101907effffffffffffffffffffffffffffffffffffffffffffffffffffffffffffff1916908160001a9053505b612ef0600183614f71565b9150612efd600182614f71565b9050612dcf565b5082518114612f1557612f15614fbb565b505092915050565b6060600082600001516001600160401b03811115612f3d57612f3d6144a6565b6040519080825280601f01601f191660200182016040528015612f67576020820181803683370190505b5090506000816020019050612f8584602001518286600001516132aa565b5092915050565b60606000825111612fdf5760405162461bcd60e51b815260206004820152601160248201527f456d7074792062797465732061727261790000000000000000000000000000006044820152606401610bd7565b6000600483600081518110612ff657612ff6614f09565b60209101015160f81c901c600f16905060008161301557506002613044565b816001141561302657506001613044565b816002141561303757506002613044565b81600314156100c9575060015b610f758482612cc5565b6000805b835161305e8683614f71565b10801561306b5750825181105b15610f755782818151811061308257613082614f09565b01602001517fff0000000000000000000000000000000000000000000000000000000000000016846130b48784614f71565b815181106130c4576130c4614f09565b01602001517fff0000000000000000000000000000000000000000000000000000000000000016146130f757905061120c565b8061310181614fa0565b915050613052565b6020810151805160009190821a9060c082101561312a575060009392505050565b5060019392505050565b60008061314083611f28565b905080516020146131935760405162461bcd60e51b815260206004820152600c60248201527f496e76616c6964206e6f646500000000000000000000000000000000000000006044820152606401610bd7565b6020015192915050565b6000604082106131ef5760405162461bcd60e51b815260206004820152601760248201527f496e76616c6964206e6962626c6520706f736974696f6e0000000000000000006044820152606401610bd7565b6000821561321557613202600184614f89565b61320d906004614ea3565b84901b61321b565b600484901c5b60f81c600f16949350505050565b8051600090811a60808110156132425750600092915050565b60b881108061325d575060c0811080159061325d575060f881105b1561326b5750600192915050565b60c081101561329857613280600160b8615045565b61328d9060ff1682614f89565b61120c906001614f71565b613280600160f8615045565b50919050565b60208111156132e357825182526132c2602084614f71565b92506132cf602083614f71565b91506132dc602082614f89565b90506132aa565b600060016132f2836020614f89565b6132fe9061010061514c565b6133089190614f89565b935183518516941916939093179091525050565b600080600080600061332e878761344b565b91509150600082600716600581111561334957613349614fd1565b9050600061335860088561501d565b99919850919650945050505050565b600080600061337687876140d1565b91509150613382851590565b156133a557600184815b6020020181815161339d9190614f71565b9052506116d7565b8185526020840151156116d757600184815b602002018181516133c89190614f89565b9052509695505050505050565b60008060006133e487876140e2565b915091506133f0851590565b156133ff57600184600261338c565b602085018290526040840151156116d75760018460026133b7565b60008060008061342c868660086140fb565b9097909650945050505050565b60008060008061342c868660046140fb565b6000806000806000602086516134619190614f71565b96860196905060805b60808116608014156135445786880382116134bd5762461bcd60e51b6000526020600452600f6024527f6c656e677468206f766572666c6f77000000000000000000000000000000000060445260536000fd5b875160005b6020811060808416608014161561353d57888a03841161351a5762461bcd60e51b6000526020600452600f6024527f6c656e677468206f766572666c6f77000000000000000000000000000000000060445260536000fd5b6001998a019982821a607f8116600788021b9790971796958101959350016134c2565b505061346a565b5091969095509350505050565b60606000806000613562868661344b565b915091506000826001600160401b03811115613580576135806144a6565b6040519080825280601f01601f1916602001820160405280156135aa576020820181803683370190505b5090506000602087516135bd9190614f71565b905080846135cb858b614f71565b6135d59190614f71565b11156135e3576135e3614fbb565b8688018301602083016135f7828288614168565b836136028787614f71565b975097505050505050509250929050565b600080600061362287876141a1565b9150915061362e851590565b1561363c576001848161338c565b6001600160401b038216855260008460015b602002015111156116d757600184816133b7565b61368f604051806060016040528060006001600160401b0316815260200160608152602001606081525090565b50600090565b60008060006136a487876140e2565b915091506136b0851590565b156136bf57600184600361338c565b6040850151606085015181518492916136d791614f89565b815181106136e7576136e7614f09565b602090810291909101015260008460035b602002015111156116d75760018460036133b7565b6137416040518060800160405280606081526020016060815260200160006001600160401b03168152602001606081525090565b6040805160808101825260608082526020820181905260009282018390528082015261376b61446c565b6000808089805b61377c8a83614f71565b8110156138f15761378d818c61331c565b9196509450925061379e8382614f71565b905084600114156137c6576137b5818c89896141b1565b6137bf9082614f71565b9050613772565b84600214156137e2576137b5818c6137dc6141f0565b89614224565b84600314156137f7576137b5818c8989614295565b846004141561380c576137b5818c89896142e2565b600184600581111561382057613820614fd1565b1415613844576000613832828d61341a565b915061384090508183614f71565b9150505b600584600581111561385857613858614fd1565b141561387c57600061386a828d613439565b915061387890508183614f71565b9150505b600084600581111561389057613890614fd1565b14156138b45760006138a2828d61344b565b91506138b090508183614f71565b9150505b60028460058111156138c8576138c8614fd1565b14156138ec5760006138da828d613551565b91506138e890508183614f71565b9150505b613772565b50604085015181906001600160401b03811115613910576139106144a6565b60405190808252806020026020018201604052801561394357816020015b606081526020019060019003908161392e5790505b5060208801525b6139548a83614f71565b81101561215157613965818c61331c565b919650945092506139768382614f71565b905084600114156139a557613994818c61398e6141f0565b896141b1565b61399e9082614f71565b905061394a565b84600214156139ba57613994818c8989614224565b84600314156139d657613994818c6139d06141f0565b89614295565b84600414156139f257613994818c6139ec6141f0565b896142e2565b6001846005811115613a0657613a06614fd1565b1415613a2a576000613a18828d61341a565b9150613a2690508183614f71565b9150505b6005846005811115613a3e57613a3e614fd1565b1415613a62576000613a50828d613439565b9150613a5e90508183614f71565b9150505b6000846005811115613a7657613a76614fd1565b1415613a9a576000613a88828d61344b565b9150613a9690508183614f71565b9150505b6002846005811115613aae57613aae614fd1565b1415613ad2576000613ac0828d613551565b9150613ace90508183614f71565b9150505b61394a565b600080600090506000613aed8460200151613229565b8460200151613afc9190614f71565b9050600084600001518560200151613b149190614f71565b90505b80821015613b4657613b2882613b4f565b613b329083614f71565b915082613b3e81614fa0565b935050613b17565b50909392505050565b8051600090811a6080811015613b685750600192915050565b60b8811015613b7c5761328d608082614f89565b60c0811015613ba95760b78103600184019350806020036101000a845104600182018101935050506132a4565b60f8811015613bbd5761328d60c082614f89565b60019290920151602083900360f7016101000a900490910160f51901919050565b6000806000808451604114613bf95760009350505050611176565b50505060208201516040830151606084015160001a601b811015613c2557613c22601b82615158565b90505b8060ff16601b14158015613c3d57508060ff16601c14155b15613c4e5760009350505050611176565b60408051600081526020810180835288905260ff831691810191909152606081018490526080810183905260019060a0016020604051602081039080840390855afa158015613ca1573d6000803e3d6000fd5b505050602060405103519350505050611176565b600080613cc6836000015151614327565b613cd1906001614f71565b613cdb9082614f71565b9050613ceb836020015151614327565b613cf6906001614f71565b613d009082614f71565b9050613d0f836040015161433c565b613d1a906001614f71565b61120c9082614f71565b8251516000908390819015613d6957613d41600160028387614350565b613d4b9082614f71565b9050613d5c86600001518286614366565b613d669082614f71565b90505b60208601515115613da957613d816002808387614350565b613d8b9082614f71565b9050613d9c8660200151828661436f565b613da69082614f71565b90505b60408601516001600160401b031615613df257613dca600360008387614350565b613dd49082614f71565b9050613de5866040015182866143ba565b613def9082614f71565b90505b6116d78282614f89565b600080613e0d836000015151614327565b613e18906001614f71565b613e229082614f71565b9050613d0f836020015151614327565b60008280613e44600160028387614350565b613e4e9082614f71565b9050613e5f86600001518286614366565b613e699082614f71565b9050613e786002808387614350565b613e829082614f71565b9050613de58660200151828661436f565b6000806000613ea5846000015161433c565b613eb0906001614f71565b613eba9083614f71565b9150613eca846020015151614327565b613ed5906001614f71565b613edf9083614f71565b9150600090505b836040015151811015612f8557613f1a84604001518281518110613f0c57613f0c614f09565b602002602001015151614327565b613f25906001614f71565b613f2f9083614f71565b915080613f3b81614fa0565b915050613ee6565b82516000908390819083906001600160401b031615613f9257613f6a600160008488614350565b613f749083614f71565b9150613f85876000015183876143ba565b613f8f9083614f71565b91505b60208701515115613fd257613faa6002808488614350565b613fb49083614f71565b9150613fc58760200151838761436f565b613fcf9083614f71565b91505b6040870151511561404e575060005b86604001515181101561404e57613ffc600360028488614350565b6140069083614f71565b91506140308760400151828151811061402157614021614f09565b6020026020010151838761436f565b61403a9083614f71565b91508061404681614fa0565b915050613fe1565b6108cf8383614f89565b600080600061406787876140d1565b91509150614073851590565b15614081576001848161338c565b818552600084600161364e565b600080600061409d87876141a1565b915091506140a9851590565b156140b857600184600361338c565b6001600160401b038216604086015260008460036136f8565b6060600080600061342c8686613551565b606060006140f08484613551565b915091509250929050565b6000806000806020865161410f9190614f71565b90508061411c8689614f71565b111561412a5761412a614fbb565b6000878701975087515b868210156141595780821a826008021b84179350600189019850600182019150614134565b50919794965093945050505050565b60208111156132e35782518252614180602083614f71565b915061418d602084614f71565b925061419a602082614f89565b9050614168565b60008060008061342c868661344b565b60008060006141c087876140e2565b915091506141cc851590565b156141da576001848161338c565b8185526020840151156116d757600184816133b7565b61368f6040518060800160405280606081526020016060815260200160006001600160401b03168152602001606081525090565b600080600061423387876140e2565b9150915061423f851590565b1561424e57600184600261338c565b60208501516040850151815184929161426691614f89565b8151811061427657614276614f09565b60209081029190910101526040840151156116d75760018460026133b7565b60008060006142a487876141a1565b915091506142b0851590565b156142bf57600184600361338c565b6001600160401b03821660408601526060840151156116d75760018460036133b7565b60008060006142f187876140e2565b915091506142fd851590565b1561430c57600184600461338c565b606085018290526080840151156116d75760018460046133b7565b6000614332826143d0565b6111769083614f71565b6000611176826001600160401b03166143d0565b60006008850260078516176116d78185856143ed565b6000610f758484845b8251600090816143808286866143ed565b905060008186018501602088015b848310156143ad57805160001a8253600192830192918201910161438e565b506108cf90508183614f71565b6000610f75846001600160401b031684846143ed565b60071c600060015b82156111765760079290921c916001016143d8565b600080828401607f86165b600787901c15614420578060801782535060079590951c9460019182019101607f86166143f8565b8082535050600101949350505050565b60405180606001604052806003906020820280368337509192915050565b60405180608001604052806004906020820280368337509192915050565b6040518060a001604052806005906020820280368337509192915050565b80356001600160a01b03811681146144a157600080fd5b919050565b634e487b7160e01b600052604160045260246000fd5b604051601f8201601f191681016001600160401b03811182821017156144e4576144e46144a6565b604052919050565b60006001600160401b03821115614505576145056144a6565b50601f01601f191660200190565b600082601f83011261452457600080fd5b8135614537614532826144ec565b6144bc565b81815284602083860101111561454c57600080fd5b816020850160208301376000918101602001919091529392505050565b80356001600160401b03811681146144a157600080fd5b60008060008060008060008060008060006101608c8e0312156145a257600080fd5b6145ab8c61448a565b9a506001600160401b038060208e013511156145c657600080fd5b6145d68e60208f01358f01614513565b9a506145e460408e01614569565b99506145f260608e01614569565b985061460060808e01614569565b97508060a08e0135111561461357600080fd5b6146238e60a08f01358f01614513565b96508060c08e0135111561463657600080fd5b6146468e60c08f01358f01614513565b95508060e08e0135111561465957600080fd5b6146698e60e08f01358f01614513565b9450806101008e0135111561467d57600080fd5b5061468f8d6101008e01358e01614513565b925061469e6101208d01614569565b91506101408c013590509295989b509295989b9093969950565b60008060008060008060008060008060006101608c8e0312156146da57600080fd5b6146e38c61448a565b9a506001600160401b038060208e013511156146fe57600080fd5b61470e8e60208f01358f01614513565b9a5061471c60408e01614569565b995061472a60608e01614569565b985061473860808e01614569565b97508060a08e0135111561474b57600080fd5b61475b8e60a08f01358f01614513565b96508060c08e0135111561476e57600080fd5b61477e8e60c08f01358f01614513565b95508060e08e0135111561479157600080fd5b6147a18e60e08f01358f01614513565b9450806101008e013511156147b557600080fd5b6147c68e6101008f01358f01614513565b93506147d56101208e01614569565b9250806101408e013511156147e957600080fd5b506147fb8d6101408e01358e01614513565b90509295989b509295989b9093969950565b600080600080600080600080610100898b03121561482a57600080fd5b6148338961448a565b975060208901356001600160401b038082111561484f57600080fd5b61485b8c838d01614513565b985061486960408c01614569565b975060608b013591508082111561487f57600080fd5b61488b8c838d01614513565b965060808b01359150808211156148a157600080fd5b6148ad8c838d01614513565b955060a08b01359150808211156148c357600080fd5b6148cf8c838d01614513565b945060c08b01359150808211156148e557600080fd5b6148f18c838d01614513565b935060e08b013591508082111561490757600080fd5b506149148b828c01614513565b9150509295985092959890939650565b60008060006060848603121561493957600080fd5b6149428461448a565b925060208401356001600160401b0381111561495d57600080fd5b61496986828701614513565b92505061497860408501614569565b90509250925092565b60005b8381101561499c578181015183820152602001614984565b838111156149ab576000848401525b50505050565b600081518084526149c9816020860160208601614981565b601f01601f19169290920160200192915050565b604081526001600160401b0383511660408201526000602080850151606080850152614a0c60a08501826149b1565b6040870151858203603f19016080870152805180835291925083019083830190600581901b8401850160005b82811015614a6657601f19868303018452614a548286516149b1565b94870194938701939150600101614a38565b508815158887015295506112369350505050565b600080600080600080600060e0888a031215614a9557600080fd5b614a9e8861448a565b965060208801356001600160401b0380821115614aba57600080fd5b614ac68b838c01614513565b9750614ad460408b01614569565b965060608a0135915080821115614aea57600080fd5b614af68b838c01614513565b955060808a0135915080821115614b0c57600080fd5b614b188b838c01614513565b945060a08a0135915080821115614b2e57600080fd5b614b3a8b838c01614513565b935060c08a0135915080821115614b5057600080fd5b50614b5d8a828b01614513565b91505092959891949750929550565b600080600080600080600080610100898b031215614b8957600080fd5b614b928961448a565b975060208901356001600160401b0380821115614bae57600080fd5b614bba8c838d01614513565b9850614bc860408c01614569565b975060608b0135915080821115614bde57600080fd5b614bea8c838d01614513565b96506148ad60808c01614569565b60008060408385031215614c0b57600080fd5b614c148361448a565b915060208301356001600160401b03811115614c2f57600080fd5b614c3b85828601614513565b9150509250929050565b60008060008060808587031215614c5b57600080fd5b614c648561448a565b935060208501356001600160401b0380821115614c8057600080fd5b614c8c88838901614513565b94506040870135915080821115614ca257600080fd5b614cae88838901614513565b93506060870135915080821115614cc457600080fd5b50614cd187828801614513565b91505092959194509250565b606081526000614cf060608301866149b1565b8281036020840152614d0281866149b1565b9150506001600160401b0383166040830152949350505050565b604081526000835160606040840152614d3860a08401826149b1565b90506020850151603f19848303016060850152614d5582826149b1565b604096909601516001600160401b0316608085015250505090151560209091015290565b600060208284031215614d8b57600080fd5b5051919050565b60208152600061120c60208301846149b1565b604081526000614db860408301856149b1565b828103602084015261103081856149b1565b604081526000614ddd60408301856149b1565b90506001600160401b03831660208301529392505050565b805180151581146144a157600080fd5b60008060408385031215614e1857600080fd5b82516001600160401b03811115614e2e57600080fd5b8301601f81018513614e3f57600080fd5b8051614e4d614532826144ec565b818152866020838501011115614e6257600080fd5b614e73826020830160208601614981565b9350614e8491505060208401614df5565b90509250929050565b634e487b7160e01b600052601160045260246000fd5b6000816000190483118215151615614ebd57614ebd614e8d565b500290565b60006001600160401b03808316818516808303821115614ee457614ee4614e8d565b01949350505050565b60008251614eff818460208701614981565b9190910192915050565b634e487b7160e01b600052603260045260246000fd5b60008060408385031215614f3257600080fd5b82519150614e8460208401614df5565b60006001600160401b0380831681851681830481118215151615614f6857614f68614e8d565b02949350505050565b60008219821115614f8457614f84614e8d565b500190565b600082821015614f9b57614f9b614e8d565b500390565b6000600019821415614fb457614fb4614e8d565b5060010190565b634e487b7160e01b600052600160045260246000fd5b634e487b7160e01b600052602160045260246000fd5b600060ff821660ff811415614ffe57614ffe614e8d565b60010192915050565b634e487b7160e01b600052601260045260246000fd5b60008261502c5761502c615007565b500490565b60008261504057615040615007565b500690565b600060ff821660ff84168082101561505f5761505f614e8d565b90039392505050565b600181815b808511156150a357816000190482111561508957615089614e8d565b8085161561509657918102915b93841c939080029061506d565b509250929050565b6000826150ba57506001611176565b816150c757506000611176565b81600181146150dd57600281146150e757615103565b6001915050611176565b60ff8411156150f8576150f8614e8d565b50506001821b611176565b5060208310610133831016604e8410600b8410161715615126575081810a611176565b6151308383615068565b806000190482111561514457615144614e8d565b029392505050565b600061120c83836150ab565b600060ff821660ff84168060ff0382111561517557615175614e8d565b01939250505056fe2f6962632e6c69676874636c69656e74732e69626674322e76312e436c69656e7453746174652f6962632e6c69676874636c69656e74732e69626674322e76312e436f6e73656e7375735374617465a2646970667358221220c9d3a46907279118049e1a1c230e233acb3da50c813cdfae8ea6f8bfca61862064736f6c63430008090033",
  "immutableReferences": {},
  "source": "pragma solidity ^0.8.9;\n\nimport \"./IClient.sol\";\nimport \"./IBCHost.sol\";\nimport \"./IBCMsgs.sol\";\nimport {\n    IbcLightclientsIbft2V1ClientState as ClientState,\n    IbcLightclientsIbft2V1ConsensusState as ConsensusState,\n    IbcLightclientsIbft2V1Header as Header\n} from \"./types/IBFT2.sol\";\nimport {GoogleProtobufAny as Any} from \"./types/GoogleProtobufAny.sol\";\nimport \"../lib/ECRecovery.sol\";\nimport \"../lib/Bytes.sol\";\nimport \"../lib/TrieProofs.sol\";\nimport \"../lib/RLP.sol\";\nimport \"./IBCIdentifier.sol\";\n\n// please see docs/ibft2-light-client.md for client spec\ncontract IBFT2Client is IClient {\n    using TrieProofs for bytes;\n    using RLP for RLP.RLPItem;\n    using RLP for bytes;\n    using Bytes for bytes;\n\n    struct protoTypes {\n        bytes32 clientState;\n        bytes32 consensusState;\n        bytes32 header;\n    }\n\n    protoTypes pts;\n\n    constructor() public {\n        // TODO The typeUrl should be defined in types/IBFT2Client.sol\n        // The schema of typeUrl follows cosmos/cosmos-sdk/codec/types/any.go\n        pts = protoTypes({\n            clientState: keccak256(abi.encodePacked(\"/ibc.lightclients.ibft2.v1.ClientState\")),\n            consensusState: keccak256(abi.encodePacked(\"/ibc.lightclients.ibft2.v1.ConsensusState\")),\n            header: keccak256(abi.encodePacked(\"/ibc.lightclients.ibft2.v1.Header\"))\n        });\n    }\n\n    struct ParsedBesuHeader {\n        Header.Data base;\n        uint64 height;\n        bytes32 stateRoot;\n        uint64 time;\n        RLP.RLPItem[] validators;\n    }\n\n    struct Fraction {\n        uint64 numerator;\n        uint64 denominator;\n    }\n\n    uint8 private constant ACCOUNT_STORAGE_ROOT_INDEX = 2;\n\n    /**\n     * @dev getTimestampAtHeight returns the timestamp of the consensus state at the given height.\n     */\n    function getTimestampAtHeight(\n        IBCHost host,\n        string memory clientId,\n        uint64 height\n    ) public override view returns (uint64, bool) {\n        (ConsensusState.Data memory consensusState, bool found) = getConsensusState(host, clientId, height);\n        if (!found) {\n            return (0, false);\n        }\n        return (consensusState.timestamp, true);\n    }\n\n    function getLatestHeight(\n        IBCHost host,\n        string memory clientId\n    ) public override view returns (uint64, bool) {\n        (ClientState.Data memory clientState, bool found) = getClientState(host, clientId);\n        if (!found) {\n            return (0, false);\n        }\n        return (clientState.latest_height, true);\n    }\n\n    /**\n     * @dev checkHeaderAndUpdateState checks if the provided header is valid\n     */\n    function checkHeaderAndUpdateState(\n        IBCHost host,\n        string memory clientId, \n        bytes memory clientStateBytes,\n        bytes memory headerBytes\n    ) public override view returns (bytes memory newClientStateBytes, bytes memory newConsensusStateBytes, uint64 height) {\n        Header.Data memory header;\n        ClientState.Data memory clientState;\n        ConsensusState.Data memory consensusState;\n        bytes[] memory validators;\n        bool ok;\n\n        (clientState, ok) = unmarshalClientState(clientStateBytes);\n        require(ok, \"client state is invalid\");\n\n        (header, ok) = unmarshalHeader(headerBytes);\n        require(ok, \"header is invalid\");\n\n        (consensusState, ok) = getConsensusState(host, clientId, header.trusted_height);\n        require(ok, \"consensusState not found\");\n\n        //// check validity ////\n        ParsedBesuHeader memory parsedHeader = parseBesuHeader(header);\n        require(parsedHeader.height > header.trusted_height, \"header height <= consensus state height\");\n        (validators, ok) = verify(consensusState, parsedHeader);\n        require(ok, \"failed to verify the header\");\n\n        //// update ////\n        consensusState.timestamp = parsedHeader.time;\n        consensusState.root = abi.encodePacked(\n            verifyStorageProof(Bytes.toAddress(clientState.ibc_store_address), parsedHeader.stateRoot, header.account_state_proof)\n        );\n        consensusState.validators = validators;\n\n        if (parsedHeader.height > clientState.latest_height) {\n            clientState.latest_height = parsedHeader.height;\n        }\n        return (marshalClientState(clientState), marshalConsensusState(consensusState), parsedHeader.height);\n    }\n\n    function marshalClientState(ClientState.Data memory clientState) internal view returns (bytes memory) {\n        Any.Data memory anyClientState;\n        anyClientState.type_url = \"/ibc.lightclients.ibft2.v1.ClientState\";\n        anyClientState.value = ClientState.encode(clientState);\n        return Any.encode(anyClientState);\n    }\n\n    function marshalConsensusState(ConsensusState.Data memory consensusState) internal view returns (bytes memory) {\n        Any.Data memory anyConsensusState;\n        anyConsensusState.type_url = \"/ibc.lightclients.ibft2.v1.ConsensusState\";\n        anyConsensusState.value = ConsensusState.encode(consensusState);\n        return Any.encode(anyConsensusState);\n    }\n\n    function unmarshalHeader(bytes memory bz) internal view returns (Header.Data memory header, bool ok) {\n        Any.Data memory anyHeader = Any.decode(bz);\n        if (keccak256(abi.encodePacked(anyHeader.type_url)) != pts.header) {\n            return (header, false);\n        }\n        return (Header.decode(anyHeader.value), true);\n    }\n\n    function unmarshalClientState(bytes memory bz) internal view returns (ClientState.Data memory clientState, bool ok) {\n        Any.Data memory anyClientState = Any.decode(bz);\n        if (keccak256(abi.encodePacked(anyClientState.type_url)) != pts.clientState) {\n            return (clientState, false);\n        }\n        return (ClientState.decode(anyClientState.value), true);\n    }\n\n    function unmarshalConsensusState(bytes memory bz) internal view returns (ConsensusState.Data memory consensusState, bool ok) {\n        Any.Data memory anyConsensusState = Any.decode(bz);\n        if (keccak256(abi.encodePacked(anyConsensusState.type_url)) != pts.consensusState) {\n            return (consensusState, false);\n        }\n        return (ConsensusState.decode(anyConsensusState.value), true);\n    }\n\n    /// Validity predicate ///\n\n    /**\n     * @dev verify verifies untrusted header\n     * @param consensusState consensusState corresponding to trusted height\n     * @param untrustedHeader untrusted header\n     */\n    function verify(ConsensusState.Data memory consensusState, ParsedBesuHeader memory untrustedHeader) internal pure returns (bytes[] memory validators, bool ok) {\n        bytes32 blkHash = keccak256(untrustedHeader.base.besu_header_rlp);\n\n        if (!verifyCommitSealsTrusting(consensusState.validators, untrustedHeader.base.seals, blkHash, Fraction({numerator: 1, denominator: 3}))) {\n            return (validators, false);\n        }\n\n        return verifyCommitSeals(untrustedHeader.validators, untrustedHeader.base.seals, blkHash);\n    }\n\n    /**\n     * @dev verifyCommitSealsTrusting verifies that trustLevel of the validator set signed this commit.\n     * @param trustedVals trusted validators\n     * @param seals commit seals for untrusted block header\n     * @param blkHash the hash of untrusted block\n     * @param trustLevel new header can be trusted if at least one correct validator signed it\n     */\n    function verifyCommitSealsTrusting(bytes[] memory trustedVals, bytes[] memory seals, bytes32 blkHash, Fraction memory trustLevel) internal pure returns (bool) {\n        uint8 success = 0;\n        bool[] memory marked = new bool[](trustedVals.length);\n        for (uint i = 0; i < seals.length; i++) {\n            if (seals[i].length == 0) {\n                continue;\n            }\n            address signer = ECRecovery.recover(blkHash, seals[i]);\n            for (uint j = 0; j < trustedVals.length; j++) {\n                if (!marked[j] && trustedVals[j].toAddress() == signer) {\n                    success++;\n                    marked[j] = true;\n                }\n            }\n        }\n        return success >= trustedVals.length * trustLevel.numerator / trustLevel.denominator;\n    }\n\n    /**\n     * @dev verifyCommitSeals verifies the seals with untrustedVals. The order of seals must match the order of untrustedVals.\n     * @param untrustedVals validators of untrusted block header\n     * @param seals commit seals for untrusted block header\n     * @param blkHash the hash of untrusted block\n     */\n    function verifyCommitSeals(RLP.RLPItem[] memory untrustedVals, bytes[] memory seals, bytes32 blkHash) internal pure returns (bytes[] memory, bool) {\n        bytes[] memory validators = new bytes[](untrustedVals.length);\n        uint8 success = 0;\n        for (uint i = 0; i < seals.length; i++) {\n            validators[i] = untrustedVals[i].toBytes();\n            if (seals[i].length == 0) {\n                continue;\n            } else if (validators[i].toAddress() == ECRecovery.recover(blkHash, seals[i])) {\n                success++;\n            }\n        }\n        return (validators, success > untrustedVals.length * 2 / 3);\n    }\n\n    /// State verification functions ///\n\n    function verifyClientState(\n        IBCHost host,\n        string memory clientId,\n        uint64 height,\n        bytes memory prefix,\n        string memory counterpartyClientIdentifier,\n        bytes memory proof,\n        bytes memory clientStateBytes\n    ) public override returns (bool) {\n        ClientState.Data memory clientState;\n        ConsensusState.Data memory consensusState;\n        bool found;\n\n        (clientState, found) = getClientState(host, clientId);\n        if (!found) {\n            return false;\n        }\n        if (!validateArgs(clientState, height, prefix, proof)) {\n            return false;\n        }\n        (consensusState, found) = getConsensusState(host, clientId, height);\n        if (!found) {\n            return false;\n        }\n        return verifyMembership(proof, consensusState.root.toBytes32(), prefix, IBCIdentifier.clientStateCommitmentSlot(counterpartyClientIdentifier), keccak256(clientStateBytes));\n    }\n\n    function verifyClientConsensusState(\n        IBCHost host,\n        string memory clientId,\n        uint64 height,\n        string memory counterpartyClientIdentifier,\n        uint64 consensusHeight,\n        bytes memory prefix,\n        bytes memory proof,\n        bytes memory consensusStateBytes // serialized with pb\n    ) public override returns (bool) {\n        ClientState.Data memory clientState;\n        ConsensusState.Data memory consensusState;\n        bool found;\n\n        (clientState, found) = getClientState(host, clientId);\n        if (!found) {\n            return false;\n        }\n        if (!validateArgs(clientState, height, prefix, proof)) {\n            return false;\n        }\n        (consensusState, found) = getConsensusState(host, clientId, height);\n        if (!found) {\n            return false;\n        }\n        return verifyMembership(proof, consensusState.root.toBytes32(), prefix, IBCIdentifier.consensusStateCommitmentSlot(counterpartyClientIdentifier, consensusHeight), keccak256(consensusStateBytes));\n    }\n\n    function verifyConnectionState(\n        IBCHost host,\n        string memory clientId,\n        uint64 height,\n        bytes memory prefix,\n        bytes memory proof,\n        string memory connectionId,\n        bytes memory connectionBytes // serialized with pb\n    ) public override returns (bool) {\n        ClientState.Data memory clientState;\n        ConsensusState.Data memory consensusState;\n        bool found;\n\n        (clientState, found) = getClientState(host, clientId);\n        if (!found) {\n            return false;\n        }\n        if (!validateArgs(clientState, height, prefix, proof)) {\n            return false;\n        }\n        (consensusState, found) = getConsensusState(host, clientId, height);\n        if (!found) {\n            return false;\n        }\n        return verifyMembership(proof, consensusState.root.toBytes32(), prefix, IBCIdentifier.connectionCommitmentSlot(connectionId), keccak256(connectionBytes));\n    }\n\n    function verifyChannelState(\n        IBCHost host,\n        string memory clientId,\n        uint64 height,\n        bytes memory prefix,\n        bytes memory proof,\n        string memory portId,\n        string memory channelId,\n        bytes memory channelBytes // serialized with pb\n    ) public override returns (bool) {\n        ClientState.Data memory clientState;\n        ConsensusState.Data memory consensusState;\n        bool found;\n\n        (clientState, found) = getClientState(host, clientId);\n        if (!found) {\n            return false;\n        }\n        if (!validateArgs(clientState, height, prefix, proof)) {\n            return false;\n        }\n        (consensusState, found) = getConsensusState(host, clientId, height);\n        if (!found) {\n            return false;\n        }\n        return verifyMembership(proof, consensusState.root.toBytes32(), prefix, IBCIdentifier.channelCommitmentSlot(portId, channelId), keccak256(channelBytes));\n    }\n\n    function verifyPacketCommitment(\n        IBCHost host,\n        string memory clientId,\n        uint64 height,\n        uint64 delayPeriodTime,\n        uint64 delayPeriodBlocks,\n        bytes memory prefix,\n        bytes memory proof,\n        string memory portId,\n        string memory channelId,\n        uint64 sequence,\n        bytes32 commitmentBytes\n    ) public override returns (bool) {\n        ClientState.Data memory clientState;\n        ConsensusState.Data memory consensusState;\n        bool found;\n\n        (clientState, found) = getClientState(host, clientId);\n        if (!found) {\n            return false;\n        }\n        if (!validateArgs(clientState, height, prefix, proof)) {\n            return false;\n        }\n        if (!validateDelayPeriod(host, clientId, height, delayPeriodTime, delayPeriodBlocks)) {\n            return false;\n        }\n        (consensusState, found) = getConsensusState(host, clientId, height);\n        if (!found) {\n            return false;\n        }\n        return verifyMembership(proof, consensusState.root.toBytes32(), prefix, IBCIdentifier.packetCommitmentSlot(portId, channelId, sequence), commitmentBytes);\n    }\n\n    function verifyPacketAcknowledgement(\n        IBCHost host,\n        string memory clientId,\n        uint64 height,\n        uint64 delayPeriodTime,\n        uint64 delayPeriodBlocks,\n        bytes memory prefix,\n        bytes memory proof,\n        string memory portId,\n        string memory channelId,\n        uint64 sequence,\n        bytes memory acknowledgement\n    ) public override returns (bool) {\n        ClientState.Data memory clientState = mustGetClientState(host, clientId);\n        if (!validateArgs(clientState, height, prefix, proof)) {\n            return false;\n        }\n        if (!validateDelayPeriod(host, clientId, height, delayPeriodTime, delayPeriodBlocks)) {\n            return false;\n        }\n        bytes32 stateRoot = mustGetConsensusState(host, clientId, height).root.toBytes32();\n        bytes32 ackCommitmentSlot = IBCIdentifier.packetAcknowledgementCommitmentSlot(portId, channelId, sequence);\n        bytes32 ackCommitment = host.makePacketAcknowledgementCommitment(acknowledgement);\n        return verifyMembership(proof, stateRoot, prefix, ackCommitmentSlot, ackCommitment);\n    }\n\n    /// helper functions ///\n\n    function getClientState(IBCHost host, string memory clientId) public view returns (ClientState.Data memory clientState, bool found) {\n        bytes memory clientStateBytes;\n        (clientStateBytes, found) = host.getClientState(clientId);\n        if (!found) {\n            return (clientState, false);\n        }\n        return (ClientState.decode(Any.decode(clientStateBytes).value), true);\n    }\n\n    function getConsensusState(IBCHost host, string memory clientId, uint64 height) public view returns (ConsensusState.Data memory consensusState, bool found) {\n        bytes memory consensusStateBytes;\n        (consensusStateBytes, found) = host.getConsensusState(clientId, height);\n        if (!found) {\n            return (consensusState, false);\n        }\n        return (ConsensusState.decode(Any.decode(consensusStateBytes).value), true);\n    }\n\n    function validateArgs(ClientState.Data memory cs, uint64 height, bytes memory prefix, bytes memory proof) internal pure returns (bool) {\n        if (cs.latest_height < height) {\n            return false;\n        } else if (prefix.length == 0) {\n            return false;\n        } else if (proof.length == 0) {\n            return false;\n        }\n        return true;\n    }\n\n    function validateDelayPeriod(IBCHost host, string memory clientId, uint64 height, uint64 delayPeriodTime, uint64 delayPeriodBlocks) private view returns (bool) {\n        uint64 currentTime = uint64(block.timestamp * 1000 * 1000 * 1000);\n        uint64 validTime = mustGetProcessedTime(host, clientId, height) + delayPeriodTime;\n        if (currentTime < validTime) {\n            return false;\n        }\n        uint64 currentHeight = uint64(block.number);\n        uint64 validHeight = mustGetProcessedHeight(host, clientId, height) + delayPeriodBlocks;\n        if (currentHeight < validHeight) {\n            return false;\n        }\n        return true;\n    }\n\n    // NOTE: this is a workaround to avoid the error `Stack too deep` in caller side\n    function mustGetClientState(IBCHost host, string memory clientId) internal view returns (ClientState.Data memory) {\n        (ClientState.Data memory clientState, bool found) = getClientState(host, clientId);\n        require(found, \"client state not found\");\n        return clientState;\n    }\n\n    // NOTE: this is a workaround to avoid the error `Stack too deep` in caller side\n    function mustGetConsensusState(IBCHost host, string memory clientId, uint64 height) internal view returns (ConsensusState.Data memory) {\n        (ConsensusState.Data memory consensusState, bool found) = getConsensusState(host, clientId, height);\n        require(found, \"consensus state not found\");\n        return consensusState;\n    }\n\n    function mustGetProcessedTime(IBCHost host, string memory clientId, uint64 height) internal view returns (uint64) {\n        (uint256 processedTime, bool found) = host.getProcessedTime(clientId, height);\n        require(found, \"processed time not found\");\n        return uint64(processedTime) * 1000 * 1000 * 1000;\n    }\n\n    function mustGetProcessedHeight(IBCHost host, string memory clientId, uint64 height) internal view returns (uint64) {\n        (uint256 processedHeight, bool found) = host.getProcessedHeight(clientId, height);\n        require(found, \"processed height not found\");\n        return uint64(processedHeight);\n    }\n\n    function verifyMembership(\n        bytes memory proof,\n        bytes32 root,\n        bytes memory prefix,\n        bytes32 slot,\n        bytes32 expectedValue\n    ) internal pure returns (bool) {\n        bytes32 path = keccak256(abi.encodePacked(slot));\n        bytes memory dataHash = proof.verify(root, path); // reverts if proof is invalid\n        return expectedValue == dataHash.toRLPItem().toBytes().toBytes32();\n    }\n\n    function parseBesuHeader(Header.Data memory header) internal pure returns (ParsedBesuHeader memory) {\n        ParsedBesuHeader memory parsedHeader;\n\n        parsedHeader.base = header;\n        RLP.RLPItem[] memory items = header.besu_header_rlp.toRLPItem().toList();\n        parsedHeader.stateRoot = items[3].toBytes().toBytes32();\n        parsedHeader.height = uint64(items[8].toUint());\n\n        require(items.length == 15, \"items length must be 15\");\n        parsedHeader.time = uint64(items[11].toUint());\n        items = items[12].toBytes().toRLPItem().toList();\n        require(items.length == 4, \"extra length must be 4\");\n\n        parsedHeader.validators = items[1].toList();\n        return parsedHeader;\n    }\n\n    function verifyStorageProof(address account, bytes32 stateRoot, bytes memory accountStateProof) internal pure returns (bytes32) {\n        bytes32 proofPath = keccak256(abi.encodePacked(account));\n        bytes memory accountRLP = accountStateProof.verify(stateRoot, proofPath); // reverts if proof is invalid\n        return bytes32(accountRLP.toRLPItem().toList()[ACCOUNT_STORAGE_ROOT_INDEX].toUint());\n    }\n}\n",
  "sourcePath": "/home/dallant/Code/ancon-protocol/ethereum/contracts/yui-ibc-solidity/core/IBFT2Client.sol",
  "compiler": {
    "name": "solc",
    "version": "0.8.9+commit.e5eed63a.Emscripten.clang"
  },
  "schemaVersion": "3.4.3",
  "updatedAt": "2021-11-02T23:10:38.010Z",
  "networkType": "ethereum",
  "devdoc": {
    "kind": "dev",
    "methods": {
      "checkHeaderAndUpdateState(address,string,bytes,bytes)": {
        "details": "checkHeaderAndUpdateState checks if the provided header is valid"
      },
      "getTimestampAtHeight(address,string,uint64)": {
        "details": "getTimestampAtHeight returns the timestamp of the consensus state at the given height."
      }
    },
    "version": 1
  },
  "userdoc": {
    "kind": "user",
    "methods": {
      "getClientState(address,string)": {
        "notice": "helper functions ///"
      },
      "verifyClientState(address,string,uint64,bytes,string,bytes,bytes)": {
        "notice": "State verification functions ///"
      }
    },
    "version": 1
  }
}