{
  "contractName": "ICS20Bank",
  "abi": [
    {
      "inputs": [],
      "stateMutability": "nonpayable",
      "type": "constructor"
    },
    {
      "anonymous": false,
      "inputs": [
        {
          "indexed": true,
          "internalType": "bytes32",
          "name": "role",
          "type": "bytes32"
        },
        {
          "indexed": true,
          "internalType": "bytes32",
          "name": "previousAdminRole",
          "type": "bytes32"
        },
        {
          "indexed": true,
          "internalType": "bytes32",
          "name": "newAdminRole",
          "type": "bytes32"
        }
      ],
      "name": "RoleAdminChanged",
      "type": "event"
    },
    {
      "anonymous": false,
      "inputs": [
        {
          "indexed": true,
          "internalType": "bytes32",
          "name": "role",
          "type": "bytes32"
        },
        {
          "indexed": true,
          "internalType": "address",
          "name": "account",
          "type": "address"
        },
        {
          "indexed": true,
          "internalType": "address",
          "name": "sender",
          "type": "address"
        }
      ],
      "name": "RoleGranted",
      "type": "event"
    },
    {
      "anonymous": false,
      "inputs": [
        {
          "indexed": true,
          "internalType": "bytes32",
          "name": "role",
          "type": "bytes32"
        },
        {
          "indexed": true,
          "internalType": "address",
          "name": "account",
          "type": "address"
        },
        {
          "indexed": true,
          "internalType": "address",
          "name": "sender",
          "type": "address"
        }
      ],
      "name": "RoleRevoked",
      "type": "event"
    },
    {
      "inputs": [],
      "name": "ADMIN_ROLE",
      "outputs": [
        {
          "internalType": "bytes32",
          "name": "",
          "type": "bytes32"
        }
      ],
      "stateMutability": "view",
      "type": "function",
      "constant": true
    },
    {
      "inputs": [],
      "name": "DEFAULT_ADMIN_ROLE",
      "outputs": [
        {
          "internalType": "bytes32",
          "name": "",
          "type": "bytes32"
        }
      ],
      "stateMutability": "view",
      "type": "function",
      "constant": true
    },
    {
      "inputs": [],
      "name": "OPERATOR_ROLE",
      "outputs": [
        {
          "internalType": "bytes32",
          "name": "",
          "type": "bytes32"
        }
      ],
      "stateMutability": "view",
      "type": "function",
      "constant": true
    },
    {
      "inputs": [
        {
          "internalType": "bytes32",
          "name": "role",
          "type": "bytes32"
        }
      ],
      "name": "getRoleAdmin",
      "outputs": [
        {
          "internalType": "bytes32",
          "name": "",
          "type": "bytes32"
        }
      ],
      "stateMutability": "view",
      "type": "function",
      "constant": true
    },
    {
      "inputs": [
        {
          "internalType": "bytes32",
          "name": "role",
          "type": "bytes32"
        },
        {
          "internalType": "address",
          "name": "account",
          "type": "address"
        }
      ],
      "name": "grantRole",
      "outputs": [],
      "stateMutability": "nonpayable",
      "type": "function"
    },
    {
      "inputs": [
        {
          "internalType": "bytes32",
          "name": "role",
          "type": "bytes32"
        },
        {
          "internalType": "address",
          "name": "account",
          "type": "address"
        }
      ],
      "name": "hasRole",
      "outputs": [
        {
          "internalType": "bool",
          "name": "",
          "type": "bool"
        }
      ],
      "stateMutability": "view",
      "type": "function",
      "constant": true
    },
    {
      "inputs": [
        {
          "internalType": "bytes32",
          "name": "role",
          "type": "bytes32"
        },
        {
          "internalType": "address",
          "name": "account",
          "type": "address"
        }
      ],
      "name": "renounceRole",
      "outputs": [],
      "stateMutability": "nonpayable",
      "type": "function"
    },
    {
      "inputs": [
        {
          "internalType": "bytes32",
          "name": "role",
          "type": "bytes32"
        },
        {
          "internalType": "address",
          "name": "account",
          "type": "address"
        }
      ],
      "name": "revokeRole",
      "outputs": [],
      "stateMutability": "nonpayable",
      "type": "function"
    },
    {
      "inputs": [
        {
          "internalType": "bytes4",
          "name": "interfaceId",
          "type": "bytes4"
        }
      ],
      "name": "supportsInterface",
      "outputs": [
        {
          "internalType": "bool",
          "name": "",
          "type": "bool"
        }
      ],
      "stateMutability": "view",
      "type": "function",
      "constant": true
    },
    {
      "inputs": [
        {
          "internalType": "address",
          "name": "operator",
          "type": "address"
        }
      ],
      "name": "setOperator",
      "outputs": [],
      "stateMutability": "nonpayable",
      "type": "function"
    },
    {
      "inputs": [
        {
          "internalType": "address",
          "name": "account",
          "type": "address"
        },
        {
          "internalType": "string",
          "name": "id",
          "type": "string"
        }
      ],
      "name": "balanceOf",
      "outputs": [
        {
          "internalType": "uint256",
          "name": "",
          "type": "uint256"
        }
      ],
      "stateMutability": "view",
      "type": "function",
      "constant": true
    },
    {
      "inputs": [
        {
          "internalType": "address",
          "name": "from",
          "type": "address"
        },
        {
          "internalType": "address",
          "name": "to",
          "type": "address"
        },
        {
          "internalType": "string",
          "name": "id",
          "type": "string"
        },
        {
          "internalType": "uint256",
          "name": "amount",
          "type": "uint256"
        }
      ],
      "name": "transferFrom",
      "outputs": [],
      "stateMutability": "nonpayable",
      "type": "function"
    },
    {
      "inputs": [
        {
          "internalType": "address",
          "name": "account",
          "type": "address"
        },
        {
          "internalType": "string",
          "name": "id",
          "type": "string"
        },
        {
          "internalType": "uint256",
          "name": "amount",
          "type": "uint256"
        }
      ],
      "name": "mint",
      "outputs": [],
      "stateMutability": "nonpayable",
      "type": "function"
    },
    {
      "inputs": [
        {
          "internalType": "address",
          "name": "account",
          "type": "address"
        },
        {
          "internalType": "string",
          "name": "id",
          "type": "string"
        },
        {
          "internalType": "uint256",
          "name": "amount",
          "type": "uint256"
        }
      ],
      "name": "burn",
      "outputs": [],
      "stateMutability": "nonpayable",
      "type": "function"
    },
    {
      "inputs": [
        {
          "internalType": "address",
          "name": "tokenContract",
          "type": "address"
        },
        {
          "internalType": "uint256",
          "name": "amount",
          "type": "uint256"
        },
        {
          "internalType": "address",
          "name": "receiver",
          "type": "address"
        }
      ],
      "name": "deposit",
      "outputs": [],
      "stateMutability": "nonpayable",
      "type": "function"
    },
    {
      "inputs": [
        {
          "internalType": "address",
          "name": "tokenContract",
          "type": "address"
        },
        {
          "internalType": "uint256",
          "name": "amount",
          "type": "uint256"
        },
        {
          "internalType": "address",
          "name": "receiver",
          "type": "address"
        }
      ],
      "name": "withdraw",
      "outputs": [],
      "stateMutability": "nonpayable",
      "type": "function"
    }
  ],
  "bytecode": "0x608060405234801561001057600080fd5b5061003b7fa49807205ce4d355092ef5a8a18f56e8913cf4a201fbe287825b095693c2177533610040565b6100ec565b61004a828261004e565b5050565b6000828152602081815260408083206001600160a01b038516845290915290205460ff1661004a576000828152602081815260408083206001600160a01b03851684529091529020805460ff191660011790556100a83390565b6001600160a01b0316816001600160a01b0316837f2f8788117e7eff1d82e926ec794901d17c78024a50270940304540a733656f0d60405160405180910390a45050565b611658806100fb6000396000f3fe608060405234801561001057600080fd5b50600436106101005760003560e01c8063b3ab15fb11610097578063d547741f11610066578063d547741f1461024b578063f24dc1da1461025e578063f45346dc14610271578063f5b541a61461028457600080fd5b8063b3ab15fb146101ff578063b9b092c814610212578063ba7aef4314610225578063c45b71de1461023857600080fd5b806369328dec116100d357806369328dec1461018657806375b238fc1461019957806391d14854146101c0578063a217fddf146101f757600080fd5b806301ffc9a714610105578063248a9ca31461012d5780632f2ff15d1461015e57806336568abe14610173575b600080fd5b6101186101133660046111f1565b6102ab565b60405190151581526020015b60405180910390f35b61015061013b36600461121b565b60009081526020819052604090206001015490565b604051908152602001610124565b61017161016c366004611250565b610314565b005b610171610181366004611250565b61033f565b61017161019436600461127c565b6103d0565b6101507fa49807205ce4d355092ef5a8a18f56e8913cf4a201fbe287825b095693c2177581565b6101186101ce366004611250565b6000918252602082815260408084206001600160a01b0393909316845291905290205460ff1690565b610150600081565b61017161020d3660046112b8565b61049b565b61015061022036600461131c565b610564565b61017161023336600461136f565b610624565b61017161024636600461136f565b6106f3565b610171610259366004611250565b6107bc565b61017161026c3660046113c9565b6107e2565b61017161027f36600461127c565b610a60565b6101507f97667070c54ef182b0f5858b034beac1b6f3089aa2d3188bb1e8929f4fa9b92981565b60006001600160e01b031982167f7965db0b00000000000000000000000000000000000000000000000000000000148061030e57507f01ffc9a7000000000000000000000000000000000000000000000000000000006001600160e01b03198316145b92915050565b6000828152602081905260409020600101546103308133610b26565b61033a8383610ba4565b505050565b6001600160a01b03811633146103c25760405162461bcd60e51b815260206004820152602f60248201527f416363657373436f6e74726f6c3a2063616e206f6e6c792072656e6f756e636560448201527f20726f6c657320666f722073656c66000000000000000000000000000000000060648201526084015b60405180910390fd5b6103cc8282610c42565b5050565b6001600160a01b0383163b6103e457600080fd5b6103f7336103f185610cc1565b84610ccc565b6040517fa9059cbb0000000000000000000000000000000000000000000000000000000081526001600160a01b0382811660048301526024820184905284169063a9059cbb90604401602060405180830381600087803b15801561045a57600080fd5b505af115801561046e573d6000803e3d6000fd5b505050506040513d601f19601f820116820180604052508101906104929190611432565b61033a57600080fd5b6104c57fa49807205ce4d355092ef5a8a18f56e8913cf4a201fbe287825b095693c21775336101ce565b6105375760405162461bcd60e51b815260206004820152602860248201527f6d75737420686176652061646d696e20726f6c6520746f20736574206e65772060448201527f6f70657261746f7200000000000000000000000000000000000000000000000060648201526084016103b9565b6105617f97667070c54ef182b0f5858b034beac1b6f3089aa2d3188bb1e8929f4fa9b92982610dd0565b50565b60006001600160a01b0384166105e25760405162461bcd60e51b815260206004820152602d60248201527f494353323042616e6b3a2062616c616e636520717565727920666f722074686560448201527f207a65726f20616464726573730000000000000000000000000000000000000060648201526084016103b9565b600183836040516105f4929190611454565b908152604080519182900360209081019092206001600160a01b0387166000908152925290205490509392505050565b61064e7f97667070c54ef182b0f5858b034beac1b6f3089aa2d3188bb1e8929f4fa9b929336101ce565b6106ab5760405162461bcd60e51b815260206004820152602860248201527f494353323042616e6b3a206d7573742068617665206d696e74657220726f6c65604482015267081d1bc81b5a5b9d60c21b60648201526084016103b9565b6106ed8484848080601f016020809104026020016040519081016040528093929190818152602001838380828437600092019190915250869250610dda915050565b50505050565b61071d7f97667070c54ef182b0f5858b034beac1b6f3089aa2d3188bb1e8929f4fa9b929336101ce565b61077a5760405162461bcd60e51b815260206004820152602860248201527f494353323042616e6b3a206d7573742068617665206d696e74657220726f6c65604482015267081d1bc81b5a5b9d60c21b60648201526084016103b9565b6106ed8484848080601f016020809104026020016040519081016040528093929190818152602001838380828437600092019190915250869250610ccc915050565b6000828152602081905260409020600101546107d88133610b26565b61033a8383610c42565b6001600160a01b03841661085e5760405162461bcd60e51b815260206004820152602760248201527f494353323042616e6b3a207472616e7366657220746f20746865207a65726f2060448201527f616464726573730000000000000000000000000000000000000000000000000060648201526084016103b9565b6001600160a01b03851633148061089a575061089a7f97667070c54ef182b0f5858b034beac1b6f3089aa2d3188bb1e8929f4fa9b929336101ce565b61090c5760405162461bcd60e51b815260206004820152602b60248201527f494353323042616e6b3a2063616c6c6572206973206e6f74206f776e6572206e60448201527f6f7220617070726f76656400000000000000000000000000000000000000000060648201526084016103b9565b600060018484604051610920929190611454565b90815260408051602092819003830190206001600160a01b038916600090815292529020549050818110156109bd5760405162461bcd60e51b815260206004820152602c60248201527f494353323042616e6b3a20696e73756666696369656e742062616c616e63652060448201527f666f72207472616e73666572000000000000000000000000000000000000000060648201526084016103b9565b6109c7828261147a565b600185856040516109d9929190611454565b9081526040805191829003602090810183206001600160a01b038b166000908152915220919091558290600190610a139087908790611454565b90815260200160405180910390206000876001600160a01b03166001600160a01b031681526020019081526020016000206000828254610a539190611491565b9091555050505050505050565b6001600160a01b0383163b610a7457600080fd5b6001600160a01b0383166323b872dd336040516001600160e01b031960e084901b1681526001600160a01b03909116600482015230602482015260448101859052606401602060405180830381600087803b158015610ad257600080fd5b505af1158015610ae6573d6000803e3d6000fd5b505050506040513d601f19601f82011682018060405250810190610b0a9190611432565b610b1357600080fd5b61033a81610b2085610cc1565b84610dda565b6000828152602081815260408083206001600160a01b038516845290915290205460ff166103cc57610b62816001600160a01b03166014610e35565b610b6d836020610e35565b604051602001610b7e9291906114d5565b60408051601f198184030181529082905262461bcd60e51b82526103b991600401611556565b6000828152602081815260408083206001600160a01b038516845290915290205460ff166103cc576000828152602081815260408083206001600160a01b03851684529091529020805460ff19166001179055610bfe3390565b6001600160a01b0316816001600160a01b0316837f2f8788117e7eff1d82e926ec794901d17c78024a50270940304540a733656f0d60405160405180910390a45050565b6000828152602081815260408083206001600160a01b038516845290915290205460ff16156103cc576000828152602081815260408083206001600160a01b0385168085529252808320805460ff1916905551339285917ff6391f5c32d9c69d2a47ea670b442974b53935d1edc7fd64eb21e047a839171b9190a45050565b606061030e82610fe5565b6000600183604051610cde9190611589565b90815260408051602092819003830190206001600160a01b03871660009081529252902054905081811015610d7b5760405162461bcd60e51b815260206004820152602660248201527f494353323042616e6b3a206275726e20616d6f756e742065786365656473206260448201527f616c616e6365000000000000000000000000000000000000000000000000000060648201526084016103b9565b610d85828261147a565b600184604051610d959190611589565b90815260200160405180910390206000866001600160a01b03166001600160a01b031681526020019081526020016000208190555050505050565b6103cc8282610ba4565b80600183604051610deb9190611589565b90815260200160405180910390206000856001600160a01b03166001600160a01b031681526020019081526020016000206000828254610e2b9190611491565b9091555050505050565b60606000610e448360026115a5565b610e4f906002611491565b67ffffffffffffffff811115610e6757610e676115c4565b6040519080825280601f01601f191660200182016040528015610e91576020820181803683370190505b509050600360fc1b81600081518110610eac57610eac6115da565b60200101906001600160f81b031916908160001a905350600f60fb1b81600181518110610edb57610edb6115da565b60200101906001600160f81b031916908160001a9053506000610eff8460026115a5565b610f0a906001611491565b90505b6001811115610f8f577f303132333435363738396162636465660000000000000000000000000000000085600f1660108110610f4b57610f4b6115da565b1a60f81b828281518110610f6157610f616115da565b60200101906001600160f81b031916908160001a90535060049490941c93610f88816115f0565b9050610f0d565b508315610fde5760405162461bcd60e51b815260206004820181905260248201527f537472696e67733a20686578206c656e67746820696e73756666696369656e7460448201526064016103b9565b9392505050565b604080518082018252601081527f303132333435363738396162636465660000000000000000000000000000000060208201528151602a808252606082810190945284841b91600091602082018180368337019050509050600360fc1b81600081518110611055576110556115da565b60200101906001600160f81b031916908160001a905350600f60fb1b81600181518110611084576110846115da565b60200101906001600160f81b031916908160001a90535060005b60148110156111e8578360048483601481106110bc576110bc6115da565b1a60f81b6001600160f81b031916901c60f81c60ff16815181106110e2576110e26115da565b01602001517fff0000000000000000000000000000000000000000000000000000000000000016826111158360026115a5565b611120906002611491565b81518110611130576111306115da565b60200101906001600160f81b031916908160001a9053508383826014811061115a5761115a6115da565b825191901a600f16908110611171576111716115da565b01602001517fff0000000000000000000000000000000000000000000000000000000000000016826111a48360026115a5565b6111af906003611491565b815181106111bf576111bf6115da565b60200101906001600160f81b031916908160001a905350806111e081611607565b91505061109e565b50949350505050565b60006020828403121561120357600080fd5b81356001600160e01b031981168114610fde57600080fd5b60006020828403121561122d57600080fd5b5035919050565b80356001600160a01b038116811461124b57600080fd5b919050565b6000806040838503121561126357600080fd5b8235915061127360208401611234565b90509250929050565b60008060006060848603121561129157600080fd5b61129a84611234565b9250602084013591506112af60408501611234565b90509250925092565b6000602082840312156112ca57600080fd5b610fde82611234565b60008083601f8401126112e557600080fd5b50813567ffffffffffffffff8111156112fd57600080fd5b60208301915083602082850101111561131557600080fd5b9250929050565b60008060006040848603121561133157600080fd5b61133a84611234565b9250602084013567ffffffffffffffff81111561135657600080fd5b611362868287016112d3565b9497909650939450505050565b6000806000806060858703121561138557600080fd5b61138e85611234565b9350602085013567ffffffffffffffff8111156113aa57600080fd5b6113b6878288016112d3565b9598909750949560400135949350505050565b6000806000806000608086880312156113e157600080fd5b6113ea86611234565b94506113f860208701611234565b9350604086013567ffffffffffffffff81111561141457600080fd5b611420888289016112d3565b96999598509660600135949350505050565b60006020828403121561144457600080fd5b81518015158114610fde57600080fd5b8183823760009101908152919050565b634e487b7160e01b600052601160045260246000fd5b60008282101561148c5761148c611464565b500390565b600082198211156114a4576114a4611464565b500190565b60005b838110156114c45781810151838201526020016114ac565b838111156106ed5750506000910152565b7f416363657373436f6e74726f6c3a206163636f756e742000000000000000000081526000835161150d8160178501602088016114a9565b7f206973206d697373696e6720726f6c6520000000000000000000000000000000601791840191820152835161154a8160288401602088016114a9565b01602801949350505050565b60208152600082518060208401526115758160408501602087016114a9565b601f01601f19169190910160400192915050565b6000825161159b8184602087016114a9565b9190910192915050565b60008160001904831182151516156115bf576115bf611464565b500290565b634e487b7160e01b600052604160045260246000fd5b634e487b7160e01b600052603260045260246000fd5b6000816115ff576115ff611464565b506000190190565b600060001982141561161b5761161b611464565b506001019056fea2646970667358221220077ebd5d041579b2c2caee5d149d1f0e01ec573147068d9152200c8026dbc34b64736f6c63430008090033",
  "immutableReferences": {},
  "source": "pragma solidity ^0.8.9;\n\nimport \"@openzeppelin/contracts/utils/Context.sol\";\nimport \"@openzeppelin/contracts/access/AccessControl.sol\";\nimport \"@openzeppelin/contracts/token/ERC20/IERC20.sol\";\nimport \"@openzeppelin/contracts/utils/Address.sol\";\nimport \"./IICS20Bank.sol\";\n\ncontract ICS20Bank is Context, AccessControl, IICS20Bank {\n    using Address for address;\n\n    bytes32 public constant ADMIN_ROLE = keccak256(\"ADMIN_ROLE\");\n    bytes32 public constant OPERATOR_ROLE = keccak256(\"OPERATOR_ROLE\");\n\n    // Mapping from token ID to account balances\n    mapping(string => mapping(address => uint256)) private _balances;\n\n    constructor() public {\n        _setupRole(ADMIN_ROLE, _msgSender());\n    }\n\n    function setOperator(address operator) virtual public {\n        require(hasRole(ADMIN_ROLE, _msgSender()), \"must have admin role to set new operator\");\n        _setupRole(OPERATOR_ROLE, operator);\n    }\n\n    function balanceOf(address account, string calldata id) virtual external view returns (uint256) {\n        require(account != address(0), \"ICS20Bank: balance query for the zero address\");\n        return _balances[id][account];\n    }\n\n    function transferFrom(address from, address to, string calldata id, uint256 amount) override virtual external {\n        require(to != address(0), \"ICS20Bank: transfer to the zero address\");\n        require(\n            from == _msgSender() || hasRole(OPERATOR_ROLE, _msgSender()),\n            \"ICS20Bank: caller is not owner nor approved\"\n        );\n\n        uint256 fromBalance = _balances[id][from];\n        require(fromBalance >= amount, \"ICS20Bank: insufficient balance for transfer\");\n        _balances[id][from] = fromBalance - amount;\n        _balances[id][to] += amount;\n    }\n\n    function mint(address account, string calldata id, uint256 amount) override virtual external {\n        require(hasRole(OPERATOR_ROLE, _msgSender()), \"ICS20Bank: must have minter role to mint\");\n        _mint(account, id, amount);\n    }\n\n    function burn(address account, string calldata id, uint256 amount) override virtual external {\n        require(hasRole(OPERATOR_ROLE, _msgSender()), \"ICS20Bank: must have minter role to mint\");\n        _burn(account, id, amount);\n    }\n\n    function deposit(\n        address tokenContract,\n        uint256 amount,\n        address receiver\n    ) virtual external {\n        require(tokenContract.isContract());\n        require(IERC20(tokenContract).transferFrom(_msgSender(), address(this), amount));\n        _mint(receiver, _genDenom(tokenContract), amount);\n    }\n\n    function withdraw(\n        address tokenContract,\n        uint256 amount,\n        address receiver\n    ) virtual external {\n        require(tokenContract.isContract());\n        _burn(_msgSender(), _genDenom(tokenContract), amount);\n        require(IERC20(tokenContract).transfer(receiver, amount));\n    }\n\n    function _mint(address account, string memory id, uint256 amount) virtual internal {\n        _balances[id][account] += amount;\n    }\n\n    function _burn(address account, string memory id, uint256 amount) virtual internal {\n        uint256 accountBalance = _balances[id][account];\n        require(accountBalance >= amount, \"ICS20Bank: burn amount exceeds balance\");\n        _balances[id][account] = accountBalance - amount;\n    }\n\n    function _genDenom(address tokenContract) virtual pure internal returns (string memory) {\n        return addressToString(tokenContract);\n    }\n\n    /// Helper functions ///\n    // TODO move following functions into any library\n    function addressToString(address _address) internal pure returns(string memory) {\n        bytes memory alphabet = \"0123456789abcdef\";\n        bytes20 data = bytes20(_address);\n\n        bytes memory str = new bytes(42);\n        str[0] = \"0\";\n        str[1] = \"x\";\n        for (uint i = 0; i < 20; i++) {\n            str[2+i*2] = alphabet[uint(uint8(data[i] >> 4))];\n            str[2+1+i*2] = alphabet[uint(uint8(data[i] & 0x0f))];\n        }\n        return string(str);\n    }\n\n    // a copy from https://github.com/provable-things/ethereum-api/blob/161552ebd4f77090d86482cff8c863cf903c6f5f/oraclizeAPI_0.6.sol\n    function parseAddr(string memory _a) internal pure returns (address _parsedAddress) {\n        bytes memory tmp = bytes(_a);\n        uint160 iaddr = 0;\n        uint160 b1;\n        uint160 b2;\n        for (uint i = 2; i < 2 + 2 * 20; i += 2) {\n            iaddr *= 256;\n            b1 = uint160(uint8(tmp[i]));\n            b2 = uint160(uint8(tmp[i + 1]));\n            if ((b1 >= 97) && (b1 <= 102)) {\n                b1 -= 87;\n            } else if ((b1 >= 65) && (b1 <= 70)) {\n                b1 -= 55;\n            } else if ((b1 >= 48) && (b1 <= 57)) {\n                b1 -= 48;\n            }\n            if ((b2 >= 97) && (b2 <= 102)) {\n                b2 -= 87;\n            } else if ((b2 >= 65) && (b2 <= 70)) {\n                b2 -= 55;\n            } else if ((b2 >= 48) && (b2 <= 57)) {\n                b2 -= 48;\n            }\n            iaddr += (b1 * 16 + b2);\n        }\n        return address(iaddr);\n    }\n}\n",
  "sourcePath": "/home/rogelio/Code/ancon-protocol/ethereum/contracts/yui-ibc-solidity/app/ICS20Bank.sol",
  "compiler": {
    "name": "solc",
    "version": "0.8.9+commit.e5eed63a.Emscripten.clang"
  },
  "schemaVersion": "3.4.0",
  "updatedAt": "2021-11-07T20:17:15.946Z",
  "networkType": "ethereum",
  "devdoc": {
    "kind": "dev",
    "methods": {
      "getRoleAdmin(bytes32)": {
        "details": "Returns the admin role that controls `role`. See {grantRole} and {revokeRole}. To change a role's admin, use {_setRoleAdmin}."
      },
      "grantRole(bytes32,address)": {
        "details": "Grants `role` to `account`. If `account` had not been already granted `role`, emits a {RoleGranted} event. Requirements: - the caller must have ``role``'s admin role."
      },
      "hasRole(bytes32,address)": {
        "details": "Returns `true` if `account` has been granted `role`."
      },
      "renounceRole(bytes32,address)": {
        "details": "Revokes `role` from the calling account. Roles are often managed via {grantRole} and {revokeRole}: this function's purpose is to provide a mechanism for accounts to lose their privileges if they are compromised (such as when a trusted device is misplaced). If the calling account had been granted `role`, emits a {RoleRevoked} event. Requirements: - the caller must be `account`."
      },
      "revokeRole(bytes32,address)": {
        "details": "Revokes `role` from `account`. If `account` had been granted `role`, emits a {RoleRevoked} event. Requirements: - the caller must have ``role``'s admin role."
      },
      "supportsInterface(bytes4)": {
        "details": "See {IERC165-supportsInterface}."
      }
    },
    "version": 1
  },
  "userdoc": {
    "kind": "user",
    "methods": {},
    "version": 1
  }
}