{
  "contractName": "ICS23Verifier",
  "abi": [
    {
      "inputs": [
        {
          "internalType": "bytes[]",
          "name": "data",
          "type": "bytes[]"
        }
      ],
      "name": "hashFromByteSlices",
      "outputs": [
        {
          "internalType": "bytes32",
          "name": "",
          "type": "bytes32"
        }
      ],
      "stateMutability": "pure",
      "type": "function"
    }
  ],
  "bytecode": "0x608060405234801561001057600080fd5b50610d1b806100206000396000f3fe608060405234801561001057600080fd5b506004361061002b5760003560e01c8063e189ffa914610030575b600080fd5b61004a60048036038101906100459190610902565b610060565b6040516100579190610964565b60405180910390f35b600061006b82610072565b9050919050565b600080825190506000811415610127576002600067ffffffffffffffff81111561009f5761009e6106ec565b5b6040519080825280601f01601f1916602001820160405280156100d15781602001600182028036833780820191505090505b506040516100df91906109f9565b602060405180830381855afa1580156100fc573d6000803e3d6000fd5b5050506040513d601f19601f8201168201806040525081019061011f9190610a3c565b9150506101aa565b600181141561015c576101548360008151811061014757610146610a69565b5b60200260200101516101af565b9150506101aa565b6000610168845161033a565b9050600061018061017b866000856103cb565b610072565b905060006101976101928785876103cb565b610072565b90506101a38282610499565b9450505050505b919050565b600080600183516101c09190610ad1565b67ffffffffffffffff8111156101d9576101d86106ec565b5b6040519080825280601f01601f19166020018201604052801561020b5781602001600182028036833780820191505090505b509050600060f81b8160008151811061022757610226610a69565b5b60200101907effffffffffffffffffffffffffffffffffffffffffffffffffffffffffffff1916908160001a90535060005b83518110156102e15783818151811061027557610274610a69565b5b602001015160f81c60f81b8260018361028e9190610ad1565b8151811061029f5761029e610a69565b5b60200101907effffffffffffffffffffffffffffffffffffffffffffffffffffffffffffff1916908160001a90535080806102d990610b27565b915050610259565b506002816040516102f291906109f9565b602060405180830381855afa15801561030f573d6000803e3d6000fd5b5050506040513d601f19601f820116820180604052508101906103329190610a3c565b915050919050565b60006001821015610380576040517f08c379a000000000000000000000000000000000000000000000000000000000815260040161037790610bf3565b60405180910390fd5b600182141561039257600090506103c6565b6000600190505b826002826103a79190610c13565b10156103c1576002816103ba9190610c13565b9050610399565b809150505b919050565b6060600083836103db9190610c6d565b67ffffffffffffffff8111156103f4576103f36106ec565b5b60405190808252806020026020018201604052801561042757816020015b60608152602001906001900390816104125790505b50905060005b815181101561048d578581866104439190610ad1565b8151811061045457610453610a69565b5b602002602001015182828151811061046f5761046e610a69565b5b6020026020010181905250808061048590610b27565b91505061042d565b50809150509392505050565b60008060016020806104ab9190610cae565b6104b59190610cae565b60ff1667ffffffffffffffff8111156104d1576104d06106ec565b5b6040519080825280601f01601f1916602001820160405280156105035781602001600182028036833780820191505090505b509050600160f81b8160008151811061051f5761051e610a69565b5b60200101907effffffffffffffffffffffffffffffffffffffffffffffffffffffffffffff1916908160001a90535060006001905060005b602060ff168110156105dd5785816020811061057657610575610a69565b5b1a60f81b83838151811061058d5761058c610a69565b5b60200101907effffffffffffffffffffffffffffffffffffffffffffffffffffffffffffff1916908160001a90535081806105c790610b27565b92505080806105d590610b27565b915050610557565b5060005b602060ff1681101561066757848160208110610600576105ff610a69565b5b1a60f81b83838151811061061757610616610a69565b5b60200101907effffffffffffffffffffffffffffffffffffffffffffffffffffffffffffff1916908160001a905350818061065190610b27565b925050808061065f90610b27565b9150506105e1565b5060028260405161067891906109f9565b602060405180830381855afa158015610695573d6000803e3d6000fd5b5050506040513d601f19601f820116820180604052508101906106b89190610a3c565b9250505092915050565b6000604051905090565b600080fd5b600080fd5b600080fd5b6000601f19601f8301169050919050565b7f4e487b7100000000000000000000000000000000000000000000000000000000600052604160045260246000fd5b610724826106db565b810181811067ffffffffffffffff82111715610743576107426106ec565b5b80604052505050565b60006107566106c2565b9050610762828261071b565b919050565b600067ffffffffffffffff821115610782576107816106ec565b5b602082029050602081019050919050565b600080fd5b600080fd5b600067ffffffffffffffff8211156107b8576107b76106ec565b5b6107c1826106db565b9050602081019050919050565b82818337600083830152505050565b60006107f06107eb8461079d565b61074c565b90508281526020810184848401111561080c5761080b610798565b5b6108178482856107ce565b509392505050565b600082601f830112610834576108336106d6565b5b81356108448482602086016107dd565b91505092915050565b600061086061085b84610767565b61074c565b9050808382526020820190506020840283018581111561088357610882610793565b5b835b818110156108ca57803567ffffffffffffffff8111156108a8576108a76106d6565b5b8086016108b5898261081f565b85526020850194505050602081019050610885565b5050509392505050565b600082601f8301126108e9576108e86106d6565b5b81356108f984826020860161084d565b91505092915050565b600060208284031215610918576109176106cc565b5b600082013567ffffffffffffffff811115610936576109356106d1565b5b610942848285016108d4565b91505092915050565b6000819050919050565b61095e8161094b565b82525050565b60006020820190506109796000830184610955565b92915050565b600081519050919050565b600081905092915050565b60005b838110156109b3578082015181840152602081019050610998565b838111156109c2576000848401525b50505050565b60006109d38261097f565b6109dd818561098a565b93506109ed818560208601610995565b80840191505092915050565b6000610a0582846109c8565b915081905092915050565b610a198161094b565b8114610a2457600080fd5b50565b600081519050610a3681610a10565b92915050565b600060208284031215610a5257610a516106cc565b5b6000610a6084828501610a27565b91505092915050565b7f4e487b7100000000000000000000000000000000000000000000000000000000600052603260045260246000fd5b6000819050919050565b7f4e487b7100000000000000000000000000000000000000000000000000000000600052601160045260246000fd5b6000610adc82610a98565b9150610ae783610a98565b9250827fffffffffffffffffffffffffffffffffffffffffffffffffffffffffffffffff03821115610b1c57610b1b610aa2565b5b828201905092915050565b6000610b3282610a98565b91507fffffffffffffffffffffffffffffffffffffffffffffffffffffffffffffffff821415610b6557610b64610aa2565b5b600182019050919050565b600082825260208201905092915050565b7f547279696e6720746f2073706c69742061207472656520776974682073697a6560008201527f203c203100000000000000000000000000000000000000000000000000000000602082015250565b6000610bdd602483610b70565b9150610be882610b81565b604082019050919050565b60006020820190508181036000830152610c0c81610bd0565b9050919050565b6000610c1e82610a98565b9150610c2983610a98565b9250817fffffffffffffffffffffffffffffffffffffffffffffffffffffffffffffffff0483118215151615610c6257610c61610aa2565b5b828202905092915050565b6000610c7882610a98565b9150610c8383610a98565b925082821015610c9657610c95610aa2565b5b828203905092915050565b600060ff82169050919050565b6000610cb982610ca1565b9150610cc483610ca1565b92508260ff03821115610cda57610cd9610aa2565b5b82820190509291505056fea2646970667358221220712d8fe1c1ca612cbf2de1e88afbf51fa180a334e44497e5b53b38554d6555cf64736f6c63430008090033",
  "immutableReferences": {},
  "source": "// SPDX-License-Identifier: Apache-2.0\npragma solidity ^0.8.7;\npragma experimental ABIEncoderV2;\n\nimport \"./MerkleTree.sol\";\nimport \"./ics23.sol\";\n\ncontract ICS23Verifier {\n\n    function hashFromByteSlices(bytes[] memory data)\n        public\n        pure\n        returns (bytes32)\n    {\n        return MerkleTree.hashFromByteSlices(data);\n    }\n\n    // function verifyMembership(\n    //     bytes memory proofBz,\n        \n    //     bytes memory rootBz,\n    //     bytes memory pathBz,\n    //     bytes memory value,\n    //     ExistenceProof memory proof\n    // ) public view returns (bool) {\n        \n    //     return verifyMembership(\n    //         iavlSpec,\n    //         rootBz,\n    //         proof,\n    //         pathBz,\n    //         value\n    //     );\n    // }\n}\n",
  "sourcePath": "/home/rogelio/Code/ancon-protocol/ethereum/contracts/ancon/ICS23Verifier.sol",
  "compiler": {
    "name": "solc",
    "version": "0.8.9+commit.e5eed63a.Emscripten.clang"
  },
  "schemaVersion": "3.4.0",
  "updatedAt": "2021-10-18T23:39:01.137Z",
  "devdoc": {
    "kind": "dev",
    "methods": {},
    "version": 1
  },
  "userdoc": {
    "kind": "user",
    "methods": {},
    "version": 1
  }
}