{
  "contractName": "ICS20Bank",
  "abi": [
    {
      "inputs": [],
      "stateMutability": "nonpayable",
      "type": "constructor"
    },
    {
      "anonymous": false,
      "inputs": [
        {
          "indexed": true,
          "internalType": "bytes32",
          "name": "role",
          "type": "bytes32"
        },
        {
          "indexed": true,
          "internalType": "bytes32",
          "name": "previousAdminRole",
          "type": "bytes32"
        },
        {
          "indexed": true,
          "internalType": "bytes32",
          "name": "newAdminRole",
          "type": "bytes32"
        }
      ],
      "name": "RoleAdminChanged",
      "type": "event"
    },
    {
      "anonymous": false,
      "inputs": [
        {
          "indexed": true,
          "internalType": "bytes32",
          "name": "role",
          "type": "bytes32"
        },
        {
          "indexed": true,
          "internalType": "address",
          "name": "account",
          "type": "address"
        },
        {
          "indexed": true,
          "internalType": "address",
          "name": "sender",
          "type": "address"
        }
      ],
      "name": "RoleGranted",
      "type": "event"
    },
    {
      "anonymous": false,
      "inputs": [
        {
          "indexed": true,
          "internalType": "bytes32",
          "name": "role",
          "type": "bytes32"
        },
        {
          "indexed": true,
          "internalType": "address",
          "name": "account",
          "type": "address"
        },
        {
          "indexed": true,
          "internalType": "address",
          "name": "sender",
          "type": "address"
        }
      ],
      "name": "RoleRevoked",
      "type": "event"
    },
    {
      "inputs": [],
      "name": "ADMIN_ROLE",
      "outputs": [
        {
          "internalType": "bytes32",
          "name": "",
          "type": "bytes32"
        }
      ],
      "stateMutability": "view",
      "type": "function"
    },
    {
      "inputs": [],
      "name": "DEFAULT_ADMIN_ROLE",
      "outputs": [
        {
          "internalType": "bytes32",
          "name": "",
          "type": "bytes32"
        }
      ],
      "stateMutability": "view",
      "type": "function"
    },
    {
      "inputs": [],
      "name": "OPERATOR_ROLE",
      "outputs": [
        {
          "internalType": "bytes32",
          "name": "",
          "type": "bytes32"
        }
      ],
      "stateMutability": "view",
      "type": "function"
    },
    {
      "inputs": [
        {
          "internalType": "bytes32",
          "name": "role",
          "type": "bytes32"
        }
      ],
      "name": "getRoleAdmin",
      "outputs": [
        {
          "internalType": "bytes32",
          "name": "",
          "type": "bytes32"
        }
      ],
      "stateMutability": "view",
      "type": "function"
    },
    {
      "inputs": [
        {
          "internalType": "bytes32",
          "name": "role",
          "type": "bytes32"
        },
        {
          "internalType": "address",
          "name": "account",
          "type": "address"
        }
      ],
      "name": "grantRole",
      "outputs": [],
      "stateMutability": "nonpayable",
      "type": "function"
    },
    {
      "inputs": [
        {
          "internalType": "bytes32",
          "name": "role",
          "type": "bytes32"
        },
        {
          "internalType": "address",
          "name": "account",
          "type": "address"
        }
      ],
      "name": "hasRole",
      "outputs": [
        {
          "internalType": "bool",
          "name": "",
          "type": "bool"
        }
      ],
      "stateMutability": "view",
      "type": "function"
    },
    {
      "inputs": [
        {
          "internalType": "bytes32",
          "name": "role",
          "type": "bytes32"
        },
        {
          "internalType": "address",
          "name": "account",
          "type": "address"
        }
      ],
      "name": "renounceRole",
      "outputs": [],
      "stateMutability": "nonpayable",
      "type": "function"
    },
    {
      "inputs": [
        {
          "internalType": "bytes32",
          "name": "role",
          "type": "bytes32"
        },
        {
          "internalType": "address",
          "name": "account",
          "type": "address"
        }
      ],
      "name": "revokeRole",
      "outputs": [],
      "stateMutability": "nonpayable",
      "type": "function"
    },
    {
      "inputs": [
        {
          "internalType": "bytes4",
          "name": "interfaceId",
          "type": "bytes4"
        }
      ],
      "name": "supportsInterface",
      "outputs": [
        {
          "internalType": "bool",
          "name": "",
          "type": "bool"
        }
      ],
      "stateMutability": "view",
      "type": "function"
    },
    {
      "inputs": [
        {
          "internalType": "address",
          "name": "operator",
          "type": "address"
        }
      ],
      "name": "setOperator",
      "outputs": [],
      "stateMutability": "nonpayable",
      "type": "function"
    },
    {
      "inputs": [
        {
          "internalType": "address",
          "name": "account",
          "type": "address"
        },
        {
          "internalType": "string",
          "name": "id",
          "type": "string"
        }
      ],
      "name": "balanceOf",
      "outputs": [
        {
          "internalType": "uint256",
          "name": "",
          "type": "uint256"
        }
      ],
      "stateMutability": "view",
      "type": "function"
    },
    {
      "inputs": [
        {
          "internalType": "address",
          "name": "from",
          "type": "address"
        },
        {
          "internalType": "address",
          "name": "to",
          "type": "address"
        },
        {
          "internalType": "string",
          "name": "id",
          "type": "string"
        },
        {
          "internalType": "uint256",
          "name": "amount",
          "type": "uint256"
        }
      ],
      "name": "transferFrom",
      "outputs": [],
      "stateMutability": "nonpayable",
      "type": "function"
    },
    {
      "inputs": [
        {
          "internalType": "address",
          "name": "account",
          "type": "address"
        },
        {
          "internalType": "string",
          "name": "id",
          "type": "string"
        },
        {
          "internalType": "uint256",
          "name": "amount",
          "type": "uint256"
        }
      ],
      "name": "mint",
      "outputs": [],
      "stateMutability": "nonpayable",
      "type": "function"
    },
    {
      "inputs": [
        {
          "internalType": "address",
          "name": "account",
          "type": "address"
        },
        {
          "internalType": "string",
          "name": "id",
          "type": "string"
        },
        {
          "internalType": "uint256",
          "name": "amount",
          "type": "uint256"
        }
      ],
      "name": "burn",
      "outputs": [],
      "stateMutability": "nonpayable",
      "type": "function"
    },
    {
      "inputs": [
        {
          "internalType": "address",
          "name": "tokenContract",
          "type": "address"
        },
        {
          "internalType": "uint256",
          "name": "amount",
          "type": "uint256"
        },
        {
          "internalType": "address",
          "name": "receiver",
          "type": "address"
        }
      ],
      "name": "deposit",
      "outputs": [],
      "stateMutability": "nonpayable",
      "type": "function"
    },
    {
      "inputs": [
        {
          "internalType": "address",
          "name": "tokenContract",
          "type": "address"
        },
        {
          "internalType": "uint256",
          "name": "amount",
          "type": "uint256"
        },
        {
          "internalType": "address",
          "name": "receiver",
          "type": "address"
        }
      ],
      "name": "withdraw",
      "outputs": [],
      "stateMutability": "nonpayable",
      "type": "function"
    }
  ],
  "bytecode": "0x608060405234801561001057600080fd5b5061003b7fa49807205ce4d355092ef5a8a18f56e8913cf4a201fbe287825b095693c2177533610040565b6100ec565b61004a828261004e565b5050565b6000828152602081815260408083206001600160a01b038516845290915290205460ff1661004a576000828152602081815260408083206001600160a01b03851684529091529020805460ff191660011790556100a83390565b6001600160a01b0316816001600160a01b0316837f2f8788117e7eff1d82e926ec794901d17c78024a50270940304540a733656f0d60405160405180910390a45050565b61163a806100fb6000396000f3fe608060405234801561001057600080fd5b50600436106101005760003560e01c8063b3ab15fb11610097578063d547741f11610066578063d547741f1461024b578063f24dc1da1461025e578063f45346dc14610271578063f5b541a61461028457600080fd5b8063b3ab15fb146101ff578063b9b092c814610212578063ba7aef4314610225578063c45b71de1461023857600080fd5b806369328dec116100d357806369328dec1461018657806375b238fc1461019957806391d14854146101c0578063a217fddf146101f757600080fd5b806301ffc9a714610105578063248a9ca31461012d5780632f2ff15d1461015e57806336568abe14610173575b600080fd5b6101186101133660046111d3565b6102ab565b60405190151581526020015b60405180910390f35b61015061013b3660046111fd565b60009081526020819052604090206001015490565b604051908152602001610124565b61017161016c366004611232565b610314565b005b610171610181366004611232565b61033f565b61017161019436600461125e565b6103d0565b6101507fa49807205ce4d355092ef5a8a18f56e8913cf4a201fbe287825b095693c2177581565b6101186101ce366004611232565b6000918252602082815260408084206001600160a01b0393909316845291905290205460ff1690565b610150600081565b61017161020d36600461129a565b61048c565b6101506102203660046112fe565b610555565b610171610233366004611351565b610615565b610171610246366004611351565b6106e4565b610171610259366004611232565b6107ad565b61017161026c3660046113ab565b6107d3565b61017161027f36600461125e565b610a51565b6101507f97667070c54ef182b0f5858b034beac1b6f3089aa2d3188bb1e8929f4fa9b92981565b60006001600160e01b031982167f7965db0b00000000000000000000000000000000000000000000000000000000148061030e57507f01ffc9a7000000000000000000000000000000000000000000000000000000006001600160e01b03198316145b92915050565b6000828152602081905260409020600101546103308133610b08565b61033a8383610b86565b505050565b6001600160a01b03811633146103c25760405162461bcd60e51b815260206004820152602f60248201527f416363657373436f6e74726f6c3a2063616e206f6e6c792072656e6f756e636560448201527f20726f6c657320666f722073656c66000000000000000000000000000000000060648201526084015b60405180910390fd5b6103cc8282610c24565b5050565b6001600160a01b0383163b6103e457600080fd5b6103f7336103f185610ca3565b84610cae565b6040517fa9059cbb0000000000000000000000000000000000000000000000000000000081526001600160a01b0382811660048301526024820184905284169063a9059cbb906044016020604051808303816000875af115801561045f573d6000803e3d6000fd5b505050506040513d601f19601f820116820180604052508101906104839190611414565b61033a57600080fd5b6104b67fa49807205ce4d355092ef5a8a18f56e8913cf4a201fbe287825b095693c21775336101ce565b6105285760405162461bcd60e51b815260206004820152602860248201527f6d75737420686176652061646d696e20726f6c6520746f20736574206e65772060448201527f6f70657261746f7200000000000000000000000000000000000000000000000060648201526084016103b9565b6105527f97667070c54ef182b0f5858b034beac1b6f3089aa2d3188bb1e8929f4fa9b92982610db2565b50565b60006001600160a01b0384166105d35760405162461bcd60e51b815260206004820152602d60248201527f494353323042616e6b3a2062616c616e636520717565727920666f722074686560448201527f207a65726f20616464726573730000000000000000000000000000000000000060648201526084016103b9565b600183836040516105e5929190611436565b908152604080519182900360209081019092206001600160a01b0387166000908152925290205490509392505050565b61063f7f97667070c54ef182b0f5858b034beac1b6f3089aa2d3188bb1e8929f4fa9b929336101ce565b61069c5760405162461bcd60e51b815260206004820152602860248201527f494353323042616e6b3a206d7573742068617665206d696e74657220726f6c65604482015267081d1bc81b5a5b9d60c21b60648201526084016103b9565b6106de8484848080601f016020809104026020016040519081016040528093929190818152602001838380828437600092019190915250869250610dbc915050565b50505050565b61070e7f97667070c54ef182b0f5858b034beac1b6f3089aa2d3188bb1e8929f4fa9b929336101ce565b61076b5760405162461bcd60e51b815260206004820152602860248201527f494353323042616e6b3a206d7573742068617665206d696e74657220726f6c65604482015267081d1bc81b5a5b9d60c21b60648201526084016103b9565b6106de8484848080601f016020809104026020016040519081016040528093929190818152602001838380828437600092019190915250869250610cae915050565b6000828152602081905260409020600101546107c98133610b08565b61033a8383610c24565b6001600160a01b03841661084f5760405162461bcd60e51b815260206004820152602760248201527f494353323042616e6b3a207472616e7366657220746f20746865207a65726f2060448201527f616464726573730000000000000000000000000000000000000000000000000060648201526084016103b9565b6001600160a01b03851633148061088b575061088b7f97667070c54ef182b0f5858b034beac1b6f3089aa2d3188bb1e8929f4fa9b929336101ce565b6108fd5760405162461bcd60e51b815260206004820152602b60248201527f494353323042616e6b3a2063616c6c6572206973206e6f74206f776e6572206e60448201527f6f7220617070726f76656400000000000000000000000000000000000000000060648201526084016103b9565b600060018484604051610911929190611436565b90815260408051602092819003830190206001600160a01b038916600090815292529020549050818110156109ae5760405162461bcd60e51b815260206004820152602c60248201527f494353323042616e6b3a20696e73756666696369656e742062616c616e63652060448201527f666f72207472616e73666572000000000000000000000000000000000000000060648201526084016103b9565b6109b8828261145c565b600185856040516109ca929190611436565b9081526040805191829003602090810183206001600160a01b038b166000908152915220919091558290600190610a049087908790611436565b90815260200160405180910390206000876001600160a01b03166001600160a01b031681526020019081526020016000206000828254610a449190611473565b9091555050505050505050565b6001600160a01b0383163b610a6557600080fd5b6001600160a01b0383166323b872dd336040516001600160e01b031960e084901b1681526001600160a01b039091166004820152306024820152604481018590526064016020604051808303816000875af1158015610ac8573d6000803e3d6000fd5b505050506040513d601f19601f82011682018060405250810190610aec9190611414565b610af557600080fd5b61033a81610b0285610ca3565b84610dbc565b6000828152602081815260408083206001600160a01b038516845290915290205460ff166103cc57610b44816001600160a01b03166014610e17565b610b4f836020610e17565b604051602001610b609291906114b7565b60408051601f198184030181529082905262461bcd60e51b82526103b991600401611538565b6000828152602081815260408083206001600160a01b038516845290915290205460ff166103cc576000828152602081815260408083206001600160a01b03851684529091529020805460ff19166001179055610be03390565b6001600160a01b0316816001600160a01b0316837f2f8788117e7eff1d82e926ec794901d17c78024a50270940304540a733656f0d60405160405180910390a45050565b6000828152602081815260408083206001600160a01b038516845290915290205460ff16156103cc576000828152602081815260408083206001600160a01b0385168085529252808320805460ff1916905551339285917ff6391f5c32d9c69d2a47ea670b442974b53935d1edc7fd64eb21e047a839171b9190a45050565b606061030e82610fc7565b6000600183604051610cc0919061156b565b90815260408051602092819003830190206001600160a01b03871660009081529252902054905081811015610d5d5760405162461bcd60e51b815260206004820152602660248201527f494353323042616e6b3a206275726e20616d6f756e742065786365656473206260448201527f616c616e6365000000000000000000000000000000000000000000000000000060648201526084016103b9565b610d67828261145c565b600184604051610d77919061156b565b90815260200160405180910390206000866001600160a01b03166001600160a01b031681526020019081526020016000208190555050505050565b6103cc8282610b86565b80600183604051610dcd919061156b565b90815260200160405180910390206000856001600160a01b03166001600160a01b031681526020019081526020016000206000828254610e0d9190611473565b9091555050505050565b60606000610e26836002611587565b610e31906002611473565b67ffffffffffffffff811115610e4957610e496115a6565b6040519080825280601f01601f191660200182016040528015610e73576020820181803683370190505b509050600360fc1b81600081518110610e8e57610e8e6115bc565b60200101906001600160f81b031916908160001a905350600f60fb1b81600181518110610ebd57610ebd6115bc565b60200101906001600160f81b031916908160001a9053506000610ee1846002611587565b610eec906001611473565b90505b6001811115610f71577f303132333435363738396162636465660000000000000000000000000000000085600f1660108110610f2d57610f2d6115bc565b1a60f81b828281518110610f4357610f436115bc565b60200101906001600160f81b031916908160001a90535060049490941c93610f6a816115d2565b9050610eef565b508315610fc05760405162461bcd60e51b815260206004820181905260248201527f537472696e67733a20686578206c656e67746820696e73756666696369656e7460448201526064016103b9565b9392505050565b604080518082018252601081527f303132333435363738396162636465660000000000000000000000000000000060208201528151602a808252606082810190945284841b91600091602082018180368337019050509050600360fc1b81600081518110611037576110376115bc565b60200101906001600160f81b031916908160001a905350600f60fb1b81600181518110611066576110666115bc565b60200101906001600160f81b031916908160001a90535060005b60148110156111ca5783600484836014811061109e5761109e6115bc565b1a60f81b6001600160f81b031916901c60f81c60ff16815181106110c4576110c46115bc565b01602001517fff0000000000000000000000000000000000000000000000000000000000000016826110f7836002611587565b611102906002611473565b81518110611112576111126115bc565b60200101906001600160f81b031916908160001a9053508383826014811061113c5761113c6115bc565b825191901a600f16908110611153576111536115bc565b01602001517fff000000000000000000000000000000000000000000000000000000000000001682611186836002611587565b611191906003611473565b815181106111a1576111a16115bc565b60200101906001600160f81b031916908160001a905350806111c2816115e9565b915050611080565b50949350505050565b6000602082840312156111e557600080fd5b81356001600160e01b031981168114610fc057600080fd5b60006020828403121561120f57600080fd5b5035919050565b80356001600160a01b038116811461122d57600080fd5b919050565b6000806040838503121561124557600080fd5b8235915061125560208401611216565b90509250929050565b60008060006060848603121561127357600080fd5b61127c84611216565b92506020840135915061129160408501611216565b90509250925092565b6000602082840312156112ac57600080fd5b610fc082611216565b60008083601f8401126112c757600080fd5b50813567ffffffffffffffff8111156112df57600080fd5b6020830191508360208285010111156112f757600080fd5b9250929050565b60008060006040848603121561131357600080fd5b61131c84611216565b9250602084013567ffffffffffffffff81111561133857600080fd5b611344868287016112b5565b9497909650939450505050565b6000806000806060858703121561136757600080fd5b61137085611216565b9350602085013567ffffffffffffffff81111561138c57600080fd5b611398878288016112b5565b9598909750949560400135949350505050565b6000806000806000608086880312156113c357600080fd5b6113cc86611216565b94506113da60208701611216565b9350604086013567ffffffffffffffff8111156113f657600080fd5b611402888289016112b5565b96999598509660600135949350505050565b60006020828403121561142657600080fd5b81518015158114610fc057600080fd5b8183823760009101908152919050565b634e487b7160e01b600052601160045260246000fd5b60008282101561146e5761146e611446565b500390565b6000821982111561148657611486611446565b500190565b60005b838110156114a657818101518382015260200161148e565b838111156106de5750506000910152565b7f416363657373436f6e74726f6c3a206163636f756e74200000000000000000008152600083516114ef81601785016020880161148b565b7f206973206d697373696e6720726f6c6520000000000000000000000000000000601791840191820152835161152c81602884016020880161148b565b01602801949350505050565b602081526000825180602084015261155781604085016020870161148b565b601f01601f19169190910160400192915050565b6000825161157d81846020870161148b565b9190910192915050565b60008160001904831182151516156115a1576115a1611446565b500290565b634e487b7160e01b600052604160045260246000fd5b634e487b7160e01b600052603260045260246000fd5b6000816115e1576115e1611446565b506000190190565b60006000198214156115fd576115fd611446565b506001019056fea26469706673582212207c72413a907f90b857acbe15514bc2407fec2d2a53de9325ce4764c309a4292864736f6c634300080a0033",
  "immutableReferences": {},
  "source": "pragma solidity ^0.8.9;\n\nimport \"@openzeppelin/contracts/utils/Context.sol\";\nimport \"@openzeppelin/contracts/access/AccessControl.sol\";\nimport \"@openzeppelin/contracts/token/ERC20/IERC20.sol\";\nimport \"@openzeppelin/contracts/utils/Address.sol\";\nimport \"./IICS20Bank.sol\";\n\ncontract ICS20Bank is Context, AccessControl, IICS20Bank {\n    using Address for address;\n\n    bytes32 public constant ADMIN_ROLE = keccak256(\"ADMIN_ROLE\");\n    bytes32 public constant OPERATOR_ROLE = keccak256(\"OPERATOR_ROLE\");\n\n    // Mapping from token ID to account balances\n    mapping(string => mapping(address => uint256)) private _balances;\n\n    constructor() public {\n        _setupRole(ADMIN_ROLE, _msgSender());\n    }\n\n    function setOperator(address operator) virtual public {\n        require(hasRole(ADMIN_ROLE, _msgSender()), \"must have admin role to set new operator\");\n        _setupRole(OPERATOR_ROLE, operator);\n    }\n\n    function balanceOf(address account, string calldata id) virtual external view returns (uint256) {\n        require(account != address(0), \"ICS20Bank: balance query for the zero address\");\n        return _balances[id][account];\n    }\n\n    function transferFrom(address from, address to, string calldata id, uint256 amount) override virtual external {\n        require(to != address(0), \"ICS20Bank: transfer to the zero address\");\n        require(\n            from == _msgSender() || hasRole(OPERATOR_ROLE, _msgSender()),\n            \"ICS20Bank: caller is not owner nor approved\"\n        );\n\n        uint256 fromBalance = _balances[id][from];\n        require(fromBalance >= amount, \"ICS20Bank: insufficient balance for transfer\");\n        _balances[id][from] = fromBalance - amount;\n        _balances[id][to] += amount;\n    }\n\n    function mint(address account, string calldata id, uint256 amount) override virtual external {\n        require(hasRole(OPERATOR_ROLE, _msgSender()), \"ICS20Bank: must have minter role to mint\");\n        _mint(account, id, amount);\n    }\n\n    function burn(address account, string calldata id, uint256 amount) override virtual external {\n        require(hasRole(OPERATOR_ROLE, _msgSender()), \"ICS20Bank: must have minter role to mint\");\n        _burn(account, id, amount);\n    }\n\n    function deposit(\n        address tokenContract,\n        uint256 amount,\n        address receiver\n    ) virtual external {\n        require(tokenContract.isContract());\n        require(IERC20(tokenContract).transferFrom(_msgSender(), address(this), amount));\n        _mint(receiver, _genDenom(tokenContract), amount);\n    }\n\n    function withdraw(\n        address tokenContract,\n        uint256 amount,\n        address receiver\n    ) virtual external {\n        require(tokenContract.isContract());\n        _burn(_msgSender(), _genDenom(tokenContract), amount);\n        require(IERC20(tokenContract).transfer(receiver, amount));\n    }\n\n    function _mint(address account, string memory id, uint256 amount) virtual internal {\n        _balances[id][account] += amount;\n    }\n\n    function _burn(address account, string memory id, uint256 amount) virtual internal {\n        uint256 accountBalance = _balances[id][account];\n        require(accountBalance >= amount, \"ICS20Bank: burn amount exceeds balance\");\n        _balances[id][account] = accountBalance - amount;\n    }\n\n    function _genDenom(address tokenContract) virtual pure internal returns (string memory) {\n        return addressToString(tokenContract);\n    }\n\n    /// Helper functions ///\n    // TODO move following functions into any library\n    function addressToString(address _address) internal pure returns(string memory) {\n        bytes memory alphabet = \"0123456789abcdef\";\n        bytes20 data = bytes20(_address);\n\n        bytes memory str = new bytes(42);\n        str[0] = \"0\";\n        str[1] = \"x\";\n        for (uint i = 0; i < 20; i++) {\n            str[2+i*2] = alphabet[uint(uint8(data[i] >> 4))];\n            str[2+1+i*2] = alphabet[uint(uint8(data[i] & 0x0f))];\n        }\n        return string(str);\n    }\n\n    // a copy from https://github.com/provable-things/ethereum-api/blob/161552ebd4f77090d86482cff8c863cf903c6f5f/oraclizeAPI_0.6.sol\n    function parseAddr(string memory _a) internal pure returns (address _parsedAddress) {\n        bytes memory tmp = bytes(_a);\n        uint160 iaddr = 0;\n        uint160 b1;\n        uint160 b2;\n        for (uint i = 2; i < 2 + 2 * 20; i += 2) {\n            iaddr *= 256;\n            b1 = uint160(uint8(tmp[i]));\n            b2 = uint160(uint8(tmp[i + 1]));\n            if ((b1 >= 97) && (b1 <= 102)) {\n                b1 -= 87;\n            } else if ((b1 >= 65) && (b1 <= 70)) {\n                b1 -= 55;\n            } else if ((b1 >= 48) && (b1 <= 57)) {\n                b1 -= 48;\n            }\n            if ((b2 >= 97) && (b2 <= 102)) {\n                b2 -= 87;\n            } else if ((b2 >= 65) && (b2 <= 70)) {\n                b2 -= 55;\n            } else if ((b2 >= 48) && (b2 <= 57)) {\n                b2 -= 48;\n            }\n            iaddr += (b1 * 16 + b2);\n        }\n        return address(iaddr);\n    }\n}\n",
  "sourcePath": "/home/dallant/Code/ancon-protocol/ethereum/contracts/yui-ibc-solidity/app/ICS20Bank.sol",
  "compiler": {
    "name": "solc",
    "version": "0.8.10+commit.fc410830.Emscripten.clang"
  },
  "schemaVersion": "3.4.3",
  "updatedAt": "2021-11-09T21:14:57.264Z",
  "devdoc": {
    "kind": "dev",
    "methods": {
      "getRoleAdmin(bytes32)": {
        "details": "Returns the admin role that controls `role`. See {grantRole} and {revokeRole}. To change a role's admin, use {_setRoleAdmin}."
      },
      "grantRole(bytes32,address)": {
        "details": "Grants `role` to `account`. If `account` had not been already granted `role`, emits a {RoleGranted} event. Requirements: - the caller must have ``role``'s admin role."
      },
      "hasRole(bytes32,address)": {
        "details": "Returns `true` if `account` has been granted `role`."
      },
      "renounceRole(bytes32,address)": {
        "details": "Revokes `role` from the calling account. Roles are often managed via {grantRole} and {revokeRole}: this function's purpose is to provide a mechanism for accounts to lose their privileges if they are compromised (such as when a trusted device is misplaced). If the calling account had been granted `role`, emits a {RoleRevoked} event. Requirements: - the caller must be `account`."
      },
      "revokeRole(bytes32,address)": {
        "details": "Revokes `role` from `account`. If `account` had been granted `role`, emits a {RoleRevoked} event. Requirements: - the caller must have ``role``'s admin role."
      },
      "supportsInterface(bytes4)": {
        "details": "See {IERC165-supportsInterface}."
      }
    },
    "version": 1
  },
  "userdoc": {
    "kind": "user",
    "methods": {},
    "version": 1
  }
}