{
  "contractName": "ICS23Verifier",
  "abi": [
    {
      "inputs": [
        {
          "components": [
            {
              "internalType": "bool",
              "name": "valid",
              "type": "bool"
            },
            {
              "internalType": "enum ICS23.HashOp",
              "name": "hash",
              "type": "uint8"
            },
            {
              "internalType": "bytes",
              "name": "prefix",
              "type": "bytes"
            },
            {
              "internalType": "bytes",
              "name": "suffix",
              "type": "bytes"
            }
          ],
          "internalType": "struct ICS23.InnerOp",
          "name": "op",
          "type": "tuple"
        },
        {
          "internalType": "bytes",
          "name": "child",
          "type": "bytes"
        }
      ],
      "name": "applyInner",
      "outputs": [
        {
          "internalType": "bytes",
          "name": "",
          "type": "bytes"
        }
      ],
      "stateMutability": "pure",
      "type": "function"
    },
    {
      "inputs": [
        {
          "components": [
            {
              "internalType": "bool",
              "name": "valid",
              "type": "bool"
            },
            {
              "internalType": "enum ICS23.HashOp",
              "name": "hash",
              "type": "uint8"
            },
            {
              "internalType": "enum ICS23.HashOp",
              "name": "prehash_key",
              "type": "uint8"
            },
            {
              "internalType": "enum ICS23.HashOp",
              "name": "prehash_value",
              "type": "uint8"
            },
            {
              "internalType": "enum ICS23.LengthOp",
              "name": "len",
              "type": "uint8"
            },
            {
              "internalType": "bytes",
              "name": "prefix",
              "type": "bytes"
            }
          ],
          "internalType": "struct ICS23.LeafOp",
          "name": "op",
          "type": "tuple"
        },
        {
          "internalType": "bytes",
          "name": "key",
          "type": "bytes"
        },
        {
          "internalType": "bytes",
          "name": "value",
          "type": "bytes"
        }
      ],
      "name": "applyLeaf",
      "outputs": [
        {
          "internalType": "bytes",
          "name": "",
          "type": "bytes"
        }
      ],
      "stateMutability": "pure",
      "type": "function"
    },
    {
      "inputs": [
        {
          "components": [
            {
              "internalType": "bool",
              "name": "valid",
              "type": "bool"
            },
            {
              "internalType": "bytes",
              "name": "key",
              "type": "bytes"
            },
            {
              "internalType": "bytes",
              "name": "value",
              "type": "bytes"
            },
            {
              "components": [
                {
                  "internalType": "bool",
                  "name": "valid",
                  "type": "bool"
                },
                {
                  "internalType": "enum ICS23.HashOp",
                  "name": "hash",
                  "type": "uint8"
                },
                {
                  "internalType": "enum ICS23.HashOp",
                  "name": "prehash_key",
                  "type": "uint8"
                },
                {
                  "internalType": "enum ICS23.HashOp",
                  "name": "prehash_value",
                  "type": "uint8"
                },
                {
                  "internalType": "enum ICS23.LengthOp",
                  "name": "len",
                  "type": "uint8"
                },
                {
                  "internalType": "bytes",
                  "name": "prefix",
                  "type": "bytes"
                }
              ],
              "internalType": "struct ICS23.LeafOp",
              "name": "leaf",
              "type": "tuple"
            },
            {
              "components": [
                {
                  "internalType": "bool",
                  "name": "valid",
                  "type": "bool"
                },
                {
                  "internalType": "enum ICS23.HashOp",
                  "name": "hash",
                  "type": "uint8"
                },
                {
                  "internalType": "bytes",
                  "name": "prefix",
                  "type": "bytes"
                },
                {
                  "internalType": "bytes",
                  "name": "suffix",
                  "type": "bytes"
                }
              ],
              "internalType": "struct ICS23.InnerOp[]",
              "name": "path",
              "type": "tuple[]"
            }
          ],
          "internalType": "struct ICS23.ExistenceProof",
          "name": "proof",
          "type": "tuple"
        }
      ],
      "name": "calculate",
      "outputs": [
        {
          "internalType": "bytes",
          "name": "",
          "type": "bytes"
        }
      ],
      "stateMutability": "pure",
      "type": "function"
    },
    {
      "inputs": [
        {
          "components": [
            {
              "internalType": "bool",
              "name": "valid",
              "type": "bool"
            },
            {
              "internalType": "bytes",
              "name": "key",
              "type": "bytes"
            },
            {
              "internalType": "bytes",
              "name": "value",
              "type": "bytes"
            },
            {
              "components": [
                {
                  "internalType": "bool",
                  "name": "valid",
                  "type": "bool"
                },
                {
                  "internalType": "enum ICS23.HashOp",
                  "name": "hash",
                  "type": "uint8"
                },
                {
                  "internalType": "enum ICS23.HashOp",
                  "name": "prehash_key",
                  "type": "uint8"
                },
                {
                  "internalType": "enum ICS23.HashOp",
                  "name": "prehash_value",
                  "type": "uint8"
                },
                {
                  "internalType": "enum ICS23.LengthOp",
                  "name": "len",
                  "type": "uint8"
                },
                {
                  "internalType": "bytes",
                  "name": "prefix",
                  "type": "bytes"
                }
              ],
              "internalType": "struct ICS23.LeafOp",
              "name": "leaf",
              "type": "tuple"
            },
            {
              "components": [
                {
                  "internalType": "bool",
                  "name": "valid",
                  "type": "bool"
                },
                {
                  "internalType": "enum ICS23.HashOp",
                  "name": "hash",
                  "type": "uint8"
                },
                {
                  "internalType": "bytes",
                  "name": "prefix",
                  "type": "bytes"
                },
                {
                  "internalType": "bytes",
                  "name": "suffix",
                  "type": "bytes"
                }
              ],
              "internalType": "struct ICS23.InnerOp[]",
              "name": "path",
              "type": "tuple[]"
            }
          ],
          "internalType": "struct ICS23.ExistenceProof",
          "name": "proof",
          "type": "tuple"
        },
        {
          "components": [
            {
              "internalType": "bool",
              "name": "valid",
              "type": "bool"
            },
            {
              "internalType": "enum ICS23.HashOp",
              "name": "hash",
              "type": "uint8"
            },
            {
              "internalType": "enum ICS23.HashOp",
              "name": "prehash_key",
              "type": "uint8"
            },
            {
              "internalType": "enum ICS23.HashOp",
              "name": "prehash_value",
              "type": "uint8"
            },
            {
              "internalType": "enum ICS23.LengthOp",
              "name": "len",
              "type": "uint8"
            },
            {
              "internalType": "bytes",
              "name": "prefix",
              "type": "bytes"
            }
          ],
          "internalType": "struct ICS23.LeafOp",
          "name": "spec",
          "type": "tuple"
        }
      ],
      "name": "checkAgainstSpec",
      "outputs": [
        {
          "internalType": "bool",
          "name": "",
          "type": "bool"
        }
      ],
      "stateMutability": "pure",
      "type": "function"
    },
    {
      "inputs": [
        {
          "internalType": "bytes",
          "name": "bz1",
          "type": "bytes"
        },
        {
          "internalType": "bytes",
          "name": "bz2",
          "type": "bytes"
        }
      ],
      "name": "compareBytes",
      "outputs": [
        {
          "internalType": "enum ICS23.Ordering",
          "name": "",
          "type": "uint8"
        }
      ],
      "stateMutability": "pure",
      "type": "function"
    },
    {
      "inputs": [
        {
          "internalType": "enum ICS23.HashOp",
          "name": "op",
          "type": "uint8"
        },
        {
          "internalType": "bytes",
          "name": "preimage",
          "type": "bytes"
        }
      ],
      "name": "doHash",
      "outputs": [
        {
          "internalType": "bytes",
          "name": "",
          "type": "bytes"
        }
      ],
      "stateMutability": "pure",
      "type": "function"
    },
    {
      "inputs": [
        {
          "internalType": "enum ICS23.HashOp",
          "name": "op",
          "type": "uint8"
        },
        {
          "internalType": "bytes",
          "name": "preimage",
          "type": "bytes"
        }
      ],
      "name": "doHashOrNoop",
      "outputs": [
        {
          "internalType": "bytes",
          "name": "",
          "type": "bytes"
        }
      ],
      "stateMutability": "pure",
      "type": "function"
    },
    {
      "inputs": [
        {
          "internalType": "enum ICS23.LengthOp",
          "name": "op",
          "type": "uint8"
        },
        {
          "internalType": "bytes",
          "name": "data",
          "type": "bytes"
        }
      ],
      "name": "doLength",
      "outputs": [
        {
          "internalType": "bytes",
          "name": "",
          "type": "bytes"
        }
      ],
      "stateMutability": "pure",
      "type": "function"
    },
    {
      "inputs": [
        {
          "internalType": "bytes",
          "name": "bz1",
          "type": "bytes"
        },
        {
          "internalType": "bytes",
          "name": "bz2",
          "type": "bytes"
        }
      ],
      "name": "equalBytes",
      "outputs": [
        {
          "internalType": "bool",
          "name": "",
          "type": "bool"
        }
      ],
      "stateMutability": "pure",
      "type": "function"
    },
    {
      "inputs": [
        {
          "components": [
            {
              "internalType": "uint256[]",
              "name": "childOrder",
              "type": "uint256[]"
            },
            {
              "internalType": "uint256",
              "name": "childSize",
              "type": "uint256"
            },
            {
              "internalType": "uint256",
              "name": "minPrefixLength",
              "type": "uint256"
            },
            {
              "internalType": "uint256",
              "name": "maxPrefixLength",
              "type": "uint256"
            },
            {
              "internalType": "bytes",
              "name": "emptyChild",
              "type": "bytes"
            },
            {
              "internalType": "enum ICS23.HashOp",
              "name": "hash",
              "type": "uint8"
            }
          ],
          "internalType": "struct ICS23.InnerSpec",
          "name": "spec",
          "type": "tuple"
        },
        {
          "internalType": "uint256",
          "name": "branch",
          "type": "uint256"
        }
      ],
      "name": "getPadding",
      "outputs": [
        {
          "internalType": "uint256",
          "name": "",
          "type": "uint256"
        },
        {
          "internalType": "uint256",
          "name": "",
          "type": "uint256"
        },
        {
          "internalType": "uint256",
          "name": "",
          "type": "uint256"
        }
      ],
      "stateMutability": "pure",
      "type": "function"
    },
    {
      "inputs": [
        {
          "internalType": "uint256[]",
          "name": "order",
          "type": "uint256[]"
        },
        {
          "internalType": "uint256",
          "name": "branch",
          "type": "uint256"
        }
      ],
      "name": "getPosition",
      "outputs": [
        {
          "internalType": "uint256",
          "name": "",
          "type": "uint256"
        }
      ],
      "stateMutability": "pure",
      "type": "function"
    },
    {
      "inputs": [
        {
          "components": [
            {
              "internalType": "bool",
              "name": "valid",
              "type": "bool"
            },
            {
              "internalType": "enum ICS23.HashOp",
              "name": "hash",
              "type": "uint8"
            },
            {
              "internalType": "bytes",
              "name": "prefix",
              "type": "bytes"
            },
            {
              "internalType": "bytes",
              "name": "suffix",
              "type": "bytes"
            }
          ],
          "internalType": "struct ICS23.InnerOp",
          "name": "op",
          "type": "tuple"
        },
        {
          "internalType": "uint256",
          "name": "minPrefix",
          "type": "uint256"
        },
        {
          "internalType": "uint256",
          "name": "maxPrefix",
          "type": "uint256"
        },
        {
          "internalType": "uint256",
          "name": "suffix",
          "type": "uint256"
        }
      ],
      "name": "hasPadding",
      "outputs": [
        {
          "internalType": "bool",
          "name": "",
          "type": "bool"
        }
      ],
      "stateMutability": "pure",
      "type": "function"
    },
    {
      "inputs": [
        {
          "internalType": "bytes",
          "name": "s",
          "type": "bytes"
        },
        {
          "internalType": "bytes",
          "name": "prefix",
          "type": "bytes"
        }
      ],
      "name": "hasprefix",
      "outputs": [
        {
          "internalType": "bool",
          "name": "",
          "type": "bool"
        }
      ],
      "stateMutability": "pure",
      "type": "function"
    },
    {
      "inputs": [
        {
          "components": [
            {
              "internalType": "uint256[]",
              "name": "childOrder",
              "type": "uint256[]"
            },
            {
              "internalType": "uint256",
              "name": "childSize",
              "type": "uint256"
            },
            {
              "internalType": "uint256",
              "name": "minPrefixLength",
              "type": "uint256"
            },
            {
              "internalType": "uint256",
              "name": "maxPrefixLength",
              "type": "uint256"
            },
            {
              "internalType": "bytes",
              "name": "emptyChild",
              "type": "bytes"
            },
            {
              "internalType": "enum ICS23.HashOp",
              "name": "hash",
              "type": "uint8"
            }
          ],
          "internalType": "struct ICS23.InnerSpec",
          "name": "spec",
          "type": "tuple"
        },
        {
          "components": [
            {
              "internalType": "bool",
              "name": "valid",
              "type": "bool"
            },
            {
              "internalType": "enum ICS23.HashOp",
              "name": "hash",
              "type": "uint8"
            },
            {
              "internalType": "bytes",
              "name": "prefix",
              "type": "bytes"
            },
            {
              "internalType": "bytes",
              "name": "suffix",
              "type": "bytes"
            }
          ],
          "internalType": "struct ICS23.InnerOp[]",
          "name": "path",
          "type": "tuple[]"
        }
      ],
      "name": "isLeftMost",
      "outputs": [
        {
          "internalType": "bool",
          "name": "",
          "type": "bool"
        }
      ],
      "stateMutability": "pure",
      "type": "function"
    },
    {
      "inputs": [
        {
          "components": [
            {
              "internalType": "uint256[]",
              "name": "childOrder",
              "type": "uint256[]"
            },
            {
              "internalType": "uint256",
              "name": "childSize",
              "type": "uint256"
            },
            {
              "internalType": "uint256",
              "name": "minPrefixLength",
              "type": "uint256"
            },
            {
              "internalType": "uint256",
              "name": "maxPrefixLength",
              "type": "uint256"
            },
            {
              "internalType": "bytes",
              "name": "emptyChild",
              "type": "bytes"
            },
            {
              "internalType": "enum ICS23.HashOp",
              "name": "hash",
              "type": "uint8"
            }
          ],
          "internalType": "struct ICS23.InnerSpec",
          "name": "spec",
          "type": "tuple"
        },
        {
          "components": [
            {
              "internalType": "bool",
              "name": "valid",
              "type": "bool"
            },
            {
              "internalType": "enum ICS23.HashOp",
              "name": "hash",
              "type": "uint8"
            },
            {
              "internalType": "bytes",
              "name": "prefix",
              "type": "bytes"
            },
            {
              "internalType": "bytes",
              "name": "suffix",
              "type": "bytes"
            }
          ],
          "internalType": "struct ICS23.InnerOp[]",
          "name": "left",
          "type": "tuple[]"
        },
        {
          "components": [
            {
              "internalType": "bool",
              "name": "valid",
              "type": "bool"
            },
            {
              "internalType": "enum ICS23.HashOp",
              "name": "hash",
              "type": "uint8"
            },
            {
              "internalType": "bytes",
              "name": "prefix",
              "type": "bytes"
            },
            {
              "internalType": "bytes",
              "name": "suffix",
              "type": "bytes"
            }
          ],
          "internalType": "struct ICS23.InnerOp[]",
          "name": "right",
          "type": "tuple[]"
        }
      ],
      "name": "isLeftNeighbor",
      "outputs": [
        {
          "internalType": "bool",
          "name": "",
          "type": "bool"
        }
      ],
      "stateMutability": "pure",
      "type": "function"
    },
    {
      "inputs": [
        {
          "components": [
            {
              "internalType": "uint256[]",
              "name": "childOrder",
              "type": "uint256[]"
            },
            {
              "internalType": "uint256",
              "name": "childSize",
              "type": "uint256"
            },
            {
              "internalType": "uint256",
              "name": "minPrefixLength",
              "type": "uint256"
            },
            {
              "internalType": "uint256",
              "name": "maxPrefixLength",
              "type": "uint256"
            },
            {
              "internalType": "bytes",
              "name": "emptyChild",
              "type": "bytes"
            },
            {
              "internalType": "enum ICS23.HashOp",
              "name": "hash",
              "type": "uint8"
            }
          ],
          "internalType": "struct ICS23.InnerSpec",
          "name": "spec",
          "type": "tuple"
        },
        {
          "components": [
            {
              "internalType": "bool",
              "name": "valid",
              "type": "bool"
            },
            {
              "internalType": "enum ICS23.HashOp",
              "name": "hash",
              "type": "uint8"
            },
            {
              "internalType": "bytes",
              "name": "prefix",
              "type": "bytes"
            },
            {
              "internalType": "bytes",
              "name": "suffix",
              "type": "bytes"
            }
          ],
          "internalType": "struct ICS23.InnerOp",
          "name": "left",
          "type": "tuple"
        },
        {
          "components": [
            {
              "internalType": "bool",
              "name": "valid",
              "type": "bool"
            },
            {
              "internalType": "enum ICS23.HashOp",
              "name": "hash",
              "type": "uint8"
            },
            {
              "internalType": "bytes",
              "name": "prefix",
              "type": "bytes"
            },
            {
              "internalType": "bytes",
              "name": "suffix",
              "type": "bytes"
            }
          ],
          "internalType": "struct ICS23.InnerOp",
          "name": "right",
          "type": "tuple"
        }
      ],
      "name": "isLeftStep",
      "outputs": [
        {
          "internalType": "bool",
          "name": "",
          "type": "bool"
        }
      ],
      "stateMutability": "pure",
      "type": "function"
    },
    {
      "inputs": [
        {
          "components": [
            {
              "internalType": "uint256[]",
              "name": "childOrder",
              "type": "uint256[]"
            },
            {
              "internalType": "uint256",
              "name": "childSize",
              "type": "uint256"
            },
            {
              "internalType": "uint256",
              "name": "minPrefixLength",
              "type": "uint256"
            },
            {
              "internalType": "uint256",
              "name": "maxPrefixLength",
              "type": "uint256"
            },
            {
              "internalType": "bytes",
              "name": "emptyChild",
              "type": "bytes"
            },
            {
              "internalType": "enum ICS23.HashOp",
              "name": "hash",
              "type": "uint8"
            }
          ],
          "internalType": "struct ICS23.InnerSpec",
          "name": "spec",
          "type": "tuple"
        },
        {
          "components": [
            {
              "internalType": "bool",
              "name": "valid",
              "type": "bool"
            },
            {
              "internalType": "enum ICS23.HashOp",
              "name": "hash",
              "type": "uint8"
            },
            {
              "internalType": "bytes",
              "name": "prefix",
              "type": "bytes"
            },
            {
              "internalType": "bytes",
              "name": "suffix",
              "type": "bytes"
            }
          ],
          "internalType": "struct ICS23.InnerOp[]",
          "name": "path",
          "type": "tuple[]"
        }
      ],
      "name": "isRightMost",
      "outputs": [
        {
          "internalType": "bool",
          "name": "",
          "type": "bool"
        }
      ],
      "stateMutability": "pure",
      "type": "function"
    },
    {
      "inputs": [
        {
          "components": [
            {
              "internalType": "uint256[]",
              "name": "childOrder",
              "type": "uint256[]"
            },
            {
              "internalType": "uint256",
              "name": "childSize",
              "type": "uint256"
            },
            {
              "internalType": "uint256",
              "name": "minPrefixLength",
              "type": "uint256"
            },
            {
              "internalType": "uint256",
              "name": "maxPrefixLength",
              "type": "uint256"
            },
            {
              "internalType": "bytes",
              "name": "emptyChild",
              "type": "bytes"
            },
            {
              "internalType": "enum ICS23.HashOp",
              "name": "hash",
              "type": "uint8"
            }
          ],
          "internalType": "struct ICS23.InnerSpec",
          "name": "spec",
          "type": "tuple"
        },
        {
          "components": [
            {
              "internalType": "bool",
              "name": "valid",
              "type": "bool"
            },
            {
              "internalType": "enum ICS23.HashOp",
              "name": "hash",
              "type": "uint8"
            },
            {
              "internalType": "bytes",
              "name": "prefix",
              "type": "bytes"
            },
            {
              "internalType": "bytes",
              "name": "suffix",
              "type": "bytes"
            }
          ],
          "internalType": "struct ICS23.InnerOp",
          "name": "op",
          "type": "tuple"
        }
      ],
      "name": "orderFromPadding",
      "outputs": [
        {
          "internalType": "uint256",
          "name": "",
          "type": "uint256"
        }
      ],
      "stateMutability": "pure",
      "type": "function"
    },
    {
      "inputs": [
        {
          "internalType": "enum ICS23.HashOp",
          "name": "hashop",
          "type": "uint8"
        },
        {
          "internalType": "enum ICS23.LengthOp",
          "name": "lengthop",
          "type": "uint8"
        },
        {
          "internalType": "bytes",
          "name": "data",
          "type": "bytes"
        }
      ],
      "name": "prepareLeafData",
      "outputs": [
        {
          "internalType": "bytes",
          "name": "",
          "type": "bytes"
        }
      ],
      "stateMutability": "pure",
      "type": "function"
    },
    {
      "inputs": [
        {
          "components": [
            {
              "internalType": "bool",
              "name": "valid",
              "type": "bool"
            },
            {
              "internalType": "bytes",
              "name": "key",
              "type": "bytes"
            },
            {
              "internalType": "bytes",
              "name": "value",
              "type": "bytes"
            },
            {
              "components": [
                {
                  "internalType": "bool",
                  "name": "valid",
                  "type": "bool"
                },
                {
                  "internalType": "enum ICS23.HashOp",
                  "name": "hash",
                  "type": "uint8"
                },
                {
                  "internalType": "enum ICS23.HashOp",
                  "name": "prehash_key",
                  "type": "uint8"
                },
                {
                  "internalType": "enum ICS23.HashOp",
                  "name": "prehash_value",
                  "type": "uint8"
                },
                {
                  "internalType": "enum ICS23.LengthOp",
                  "name": "len",
                  "type": "uint8"
                },
                {
                  "internalType": "bytes",
                  "name": "prefix",
                  "type": "bytes"
                }
              ],
              "internalType": "struct ICS23.LeafOp",
              "name": "leaf",
              "type": "tuple"
            },
            {
              "components": [
                {
                  "internalType": "bool",
                  "name": "valid",
                  "type": "bool"
                },
                {
                  "internalType": "enum ICS23.HashOp",
                  "name": "hash",
                  "type": "uint8"
                },
                {
                  "internalType": "bytes",
                  "name": "prefix",
                  "type": "bytes"
                },
                {
                  "internalType": "bytes",
                  "name": "suffix",
                  "type": "bytes"
                }
              ],
              "internalType": "struct ICS23.InnerOp[]",
              "name": "path",
              "type": "tuple[]"
            }
          ],
          "internalType": "struct ICS23.ExistenceProof",
          "name": "proof",
          "type": "tuple"
        },
        {
          "components": [
            {
              "internalType": "bool",
              "name": "valid",
              "type": "bool"
            },
            {
              "internalType": "enum ICS23.HashOp",
              "name": "hash",
              "type": "uint8"
            },
            {
              "internalType": "enum ICS23.HashOp",
              "name": "prehash_key",
              "type": "uint8"
            },
            {
              "internalType": "enum ICS23.HashOp",
              "name": "prehash_value",
              "type": "uint8"
            },
            {
              "internalType": "enum ICS23.LengthOp",
              "name": "len",
              "type": "uint8"
            },
            {
              "internalType": "bytes",
              "name": "prefix",
              "type": "bytes"
            }
          ],
          "internalType": "struct ICS23.LeafOp",
          "name": "spec",
          "type": "tuple"
        },
        {
          "internalType": "bytes",
          "name": "root",
          "type": "bytes"
        },
        {
          "internalType": "bytes",
          "name": "key",
          "type": "bytes"
        },
        {
          "internalType": "bytes",
          "name": "value",
          "type": "bytes"
        }
      ],
      "name": "verifyExistence",
      "outputs": [
        {
          "internalType": "bool",
          "name": "",
          "type": "bool"
        }
      ],
      "stateMutability": "pure",
      "type": "function"
    },
    {
      "inputs": [
        {
          "components": [
            {
              "internalType": "bool",
              "name": "valid",
              "type": "bool"
            },
            {
              "internalType": "bytes",
              "name": "key",
              "type": "bytes"
            },
            {
              "components": [
                {
                  "internalType": "bool",
                  "name": "valid",
                  "type": "bool"
                },
                {
                  "internalType": "bytes",
                  "name": "key",
                  "type": "bytes"
                },
                {
                  "internalType": "bytes",
                  "name": "value",
                  "type": "bytes"
                },
                {
                  "components": [
                    {
                      "internalType": "bool",
                      "name": "valid",
                      "type": "bool"
                    },
                    {
                      "internalType": "enum ICS23.HashOp",
                      "name": "hash",
                      "type": "uint8"
                    },
                    {
                      "internalType": "enum ICS23.HashOp",
                      "name": "prehash_key",
                      "type": "uint8"
                    },
                    {
                      "internalType": "enum ICS23.HashOp",
                      "name": "prehash_value",
                      "type": "uint8"
                    },
                    {
                      "internalType": "enum ICS23.LengthOp",
                      "name": "len",
                      "type": "uint8"
                    },
                    {
                      "internalType": "bytes",
                      "name": "prefix",
                      "type": "bytes"
                    }
                  ],
                  "internalType": "struct ICS23.LeafOp",
                  "name": "leaf",
                  "type": "tuple"
                },
                {
                  "components": [
                    {
                      "internalType": "bool",
                      "name": "valid",
                      "type": "bool"
                    },
                    {
                      "internalType": "enum ICS23.HashOp",
                      "name": "hash",
                      "type": "uint8"
                    },
                    {
                      "internalType": "bytes",
                      "name": "prefix",
                      "type": "bytes"
                    },
                    {
                      "internalType": "bytes",
                      "name": "suffix",
                      "type": "bytes"
                    }
                  ],
                  "internalType": "struct ICS23.InnerOp[]",
                  "name": "path",
                  "type": "tuple[]"
                }
              ],
              "internalType": "struct ICS23.ExistenceProof",
              "name": "left",
              "type": "tuple"
            },
            {
              "components": [
                {
                  "internalType": "bool",
                  "name": "valid",
                  "type": "bool"
                },
                {
                  "internalType": "bytes",
                  "name": "key",
                  "type": "bytes"
                },
                {
                  "internalType": "bytes",
                  "name": "value",
                  "type": "bytes"
                },
                {
                  "components": [
                    {
                      "internalType": "bool",
                      "name": "valid",
                      "type": "bool"
                    },
                    {
                      "internalType": "enum ICS23.HashOp",
                      "name": "hash",
                      "type": "uint8"
                    },
                    {
                      "internalType": "enum ICS23.HashOp",
                      "name": "prehash_key",
                      "type": "uint8"
                    },
                    {
                      "internalType": "enum ICS23.HashOp",
                      "name": "prehash_value",
                      "type": "uint8"
                    },
                    {
                      "internalType": "enum ICS23.LengthOp",
                      "name": "len",
                      "type": "uint8"
                    },
                    {
                      "internalType": "bytes",
                      "name": "prefix",
                      "type": "bytes"
                    }
                  ],
                  "internalType": "struct ICS23.LeafOp",
                  "name": "leaf",
                  "type": "tuple"
                },
                {
                  "components": [
                    {
                      "internalType": "bool",
                      "name": "valid",
                      "type": "bool"
                    },
                    {
                      "internalType": "enum ICS23.HashOp",
                      "name": "hash",
                      "type": "uint8"
                    },
                    {
                      "internalType": "bytes",
                      "name": "prefix",
                      "type": "bytes"
                    },
                    {
                      "internalType": "bytes",
                      "name": "suffix",
                      "type": "bytes"
                    }
                  ],
                  "internalType": "struct ICS23.InnerOp[]",
                  "name": "path",
                  "type": "tuple[]"
                }
              ],
              "internalType": "struct ICS23.ExistenceProof",
              "name": "right",
              "type": "tuple"
            }
          ],
          "internalType": "struct ICS23.NonExistenceProof",
          "name": "proof",
          "type": "tuple"
        },
        {
          "components": [
            {
              "components": [
                {
                  "internalType": "bool",
                  "name": "valid",
                  "type": "bool"
                },
                {
                  "internalType": "enum ICS23.HashOp",
                  "name": "hash",
                  "type": "uint8"
                },
                {
                  "internalType": "enum ICS23.HashOp",
                  "name": "prehash_key",
                  "type": "uint8"
                },
                {
                  "internalType": "enum ICS23.HashOp",
                  "name": "prehash_value",
                  "type": "uint8"
                },
                {
                  "internalType": "enum ICS23.LengthOp",
                  "name": "len",
                  "type": "uint8"
                },
                {
                  "internalType": "bytes",
                  "name": "prefix",
                  "type": "bytes"
                }
              ],
              "internalType": "struct ICS23.LeafOp",
              "name": "leafSpec",
              "type": "tuple"
            },
            {
              "components": [
                {
                  "internalType": "uint256[]",
                  "name": "childOrder",
                  "type": "uint256[]"
                },
                {
                  "internalType": "uint256",
                  "name": "childSize",
                  "type": "uint256"
                },
                {
                  "internalType": "uint256",
                  "name": "minPrefixLength",
                  "type": "uint256"
                },
                {
                  "internalType": "uint256",
                  "name": "maxPrefixLength",
                  "type": "uint256"
                },
                {
                  "internalType": "bytes",
                  "name": "emptyChild",
                  "type": "bytes"
                },
                {
                  "internalType": "enum ICS23.HashOp",
                  "name": "hash",
                  "type": "uint8"
                }
              ],
              "internalType": "struct ICS23.InnerSpec",
              "name": "innerSpec",
              "type": "tuple"
            },
            {
              "internalType": "uint256",
              "name": "maxDepth",
              "type": "uint256"
            },
            {
              "internalType": "uint256",
              "name": "minDepth",
              "type": "uint256"
            }
          ],
          "internalType": "struct ICS23.ProofSpec",
          "name": "spec",
          "type": "tuple"
        },
        {
          "internalType": "bytes",
          "name": "root",
          "type": "bytes"
        },
        {
          "internalType": "bytes",
          "name": "key",
          "type": "bytes"
        }
      ],
      "name": "verifyNonExistence",
      "outputs": [
        {
          "internalType": "bool",
          "name": "",
          "type": "bool"
        }
      ],
      "stateMutability": "pure",
      "type": "function"
    },
    {
      "inputs": [
        {
          "components": [
            {
              "components": [
                {
                  "internalType": "bool",
                  "name": "valid",
                  "type": "bool"
                },
                {
                  "internalType": "enum ICS23.HashOp",
                  "name": "hash",
                  "type": "uint8"
                },
                {
                  "internalType": "enum ICS23.HashOp",
                  "name": "prehash_key",
                  "type": "uint8"
                },
                {
                  "internalType": "enum ICS23.HashOp",
                  "name": "prehash_value",
                  "type": "uint8"
                },
                {
                  "internalType": "enum ICS23.LengthOp",
                  "name": "len",
                  "type": "uint8"
                },
                {
                  "internalType": "bytes",
                  "name": "prefix",
                  "type": "bytes"
                }
              ],
              "internalType": "struct ICS23.LeafOp",
              "name": "leafSpec",
              "type": "tuple"
            },
            {
              "components": [
                {
                  "internalType": "uint256[]",
                  "name": "childOrder",
                  "type": "uint256[]"
                },
                {
                  "internalType": "uint256",
                  "name": "childSize",
                  "type": "uint256"
                },
                {
                  "internalType": "uint256",
                  "name": "minPrefixLength",
                  "type": "uint256"
                },
                {
                  "internalType": "uint256",
                  "name": "maxPrefixLength",
                  "type": "uint256"
                },
                {
                  "internalType": "bytes",
                  "name": "emptyChild",
                  "type": "bytes"
                },
                {
                  "internalType": "enum ICS23.HashOp",
                  "name": "hash",
                  "type": "uint8"
                }
              ],
              "internalType": "struct ICS23.InnerSpec",
              "name": "innerSpec",
              "type": "tuple"
            },
            {
              "internalType": "uint256",
              "name": "maxDepth",
              "type": "uint256"
            },
            {
              "internalType": "uint256",
              "name": "minDepth",
              "type": "uint256"
            }
          ],
          "internalType": "struct ICS23.ProofSpec",
          "name": "spec",
          "type": "tuple"
        },
        {
          "internalType": "bytes",
          "name": "root",
          "type": "bytes"
        },
        {
          "components": [
            {
              "internalType": "bool",
              "name": "valid",
              "type": "bool"
            },
            {
              "internalType": "bytes",
              "name": "key",
              "type": "bytes"
            },
            {
              "components": [
                {
                  "internalType": "bool",
                  "name": "valid",
                  "type": "bool"
                },
                {
                  "internalType": "bytes",
                  "name": "key",
                  "type": "bytes"
                },
                {
                  "internalType": "bytes",
                  "name": "value",
                  "type": "bytes"
                },
                {
                  "components": [
                    {
                      "internalType": "bool",
                      "name": "valid",
                      "type": "bool"
                    },
                    {
                      "internalType": "enum ICS23.HashOp",
                      "name": "hash",
                      "type": "uint8"
                    },
                    {
                      "internalType": "enum ICS23.HashOp",
                      "name": "prehash_key",
                      "type": "uint8"
                    },
                    {
                      "internalType": "enum ICS23.HashOp",
                      "name": "prehash_value",
                      "type": "uint8"
                    },
                    {
                      "internalType": "enum ICS23.LengthOp",
                      "name": "len",
                      "type": "uint8"
                    },
                    {
                      "internalType": "bytes",
                      "name": "prefix",
                      "type": "bytes"
                    }
                  ],
                  "internalType": "struct ICS23.LeafOp",
                  "name": "leaf",
                  "type": "tuple"
                },
                {
                  "components": [
                    {
                      "internalType": "bool",
                      "name": "valid",
                      "type": "bool"
                    },
                    {
                      "internalType": "enum ICS23.HashOp",
                      "name": "hash",
                      "type": "uint8"
                    },
                    {
                      "internalType": "bytes",
                      "name": "prefix",
                      "type": "bytes"
                    },
                    {
                      "internalType": "bytes",
                      "name": "suffix",
                      "type": "bytes"
                    }
                  ],
                  "internalType": "struct ICS23.InnerOp[]",
                  "name": "path",
                  "type": "tuple[]"
                }
              ],
              "internalType": "struct ICS23.ExistenceProof",
              "name": "left",
              "type": "tuple"
            },
            {
              "components": [
                {
                  "internalType": "bool",
                  "name": "valid",
                  "type": "bool"
                },
                {
                  "internalType": "bytes",
                  "name": "key",
                  "type": "bytes"
                },
                {
                  "internalType": "bytes",
                  "name": "value",
                  "type": "bytes"
                },
                {
                  "components": [
                    {
                      "internalType": "bool",
                      "name": "valid",
                      "type": "bool"
                    },
                    {
                      "internalType": "enum ICS23.HashOp",
                      "name": "hash",
                      "type": "uint8"
                    },
                    {
                      "internalType": "enum ICS23.HashOp",
                      "name": "prehash_key",
                      "type": "uint8"
                    },
                    {
                      "internalType": "enum ICS23.HashOp",
                      "name": "prehash_value",
                      "type": "uint8"
                    },
                    {
                      "internalType": "enum ICS23.LengthOp",
                      "name": "len",
                      "type": "uint8"
                    },
                    {
                      "internalType": "bytes",
                      "name": "prefix",
                      "type": "bytes"
                    }
                  ],
                  "internalType": "struct ICS23.LeafOp",
                  "name": "leaf",
                  "type": "tuple"
                },
                {
                  "components": [
                    {
                      "internalType": "bool",
                      "name": "valid",
                      "type": "bool"
                    },
                    {
                      "internalType": "enum ICS23.HashOp",
                      "name": "hash",
                      "type": "uint8"
                    },
                    {
                      "internalType": "bytes",
                      "name": "prefix",
                      "type": "bytes"
                    },
                    {
                      "internalType": "bytes",
                      "name": "suffix",
                      "type": "bytes"
                    }
                  ],
                  "internalType": "struct ICS23.InnerOp[]",
                  "name": "path",
                  "type": "tuple[]"
                }
              ],
              "internalType": "struct ICS23.ExistenceProof",
              "name": "right",
              "type": "tuple"
            }
          ],
          "internalType": "struct ICS23.NonExistenceProof",
          "name": "proof",
          "type": "tuple"
        },
        {
          "internalType": "bytes",
          "name": "key",
          "type": "bytes"
        }
      ],
      "name": "verifyNonMembership",
      "outputs": [
        {
          "internalType": "bool",
          "name": "",
          "type": "bool"
        }
      ],
      "stateMutability": "pure",
      "type": "function"
    },
    {
      "inputs": [
        {
          "internalType": "bytes[]",
          "name": "data",
          "type": "bytes[]"
        }
      ],
      "name": "hashFromByteSlices",
      "outputs": [
        {
          "internalType": "bytes32",
          "name": "",
          "type": "bytes32"
        }
      ],
      "stateMutability": "pure",
      "type": "function"
    },
    {
      "inputs": [
        {
          "internalType": "bytes",
          "name": "proofBz",
          "type": "bytes"
        },
        {
          "internalType": "bytes",
          "name": "rootBz",
          "type": "bytes"
        },
        {
          "internalType": "bytes",
          "name": "pathBz",
          "type": "bytes"
        },
        {
          "internalType": "bytes",
          "name": "value",
          "type": "bytes"
        },
        {
          "components": [
            {
              "internalType": "bool",
              "name": "valid",
              "type": "bool"
            },
            {
              "internalType": "bytes",
              "name": "key",
              "type": "bytes"
            },
            {
              "internalType": "bytes",
              "name": "value",
              "type": "bytes"
            },
            {
              "components": [
                {
                  "internalType": "bool",
                  "name": "valid",
                  "type": "bool"
                },
                {
                  "internalType": "enum ICS23.HashOp",
                  "name": "hash",
                  "type": "uint8"
                },
                {
                  "internalType": "enum ICS23.HashOp",
                  "name": "prehash_key",
                  "type": "uint8"
                },
                {
                  "internalType": "enum ICS23.HashOp",
                  "name": "prehash_value",
                  "type": "uint8"
                },
                {
                  "internalType": "enum ICS23.LengthOp",
                  "name": "len",
                  "type": "uint8"
                },
                {
                  "internalType": "bytes",
                  "name": "prefix",
                  "type": "bytes"
                }
              ],
              "internalType": "struct ICS23.LeafOp",
              "name": "leaf",
              "type": "tuple"
            },
            {
              "components": [
                {
                  "internalType": "bool",
                  "name": "valid",
                  "type": "bool"
                },
                {
                  "internalType": "enum ICS23.HashOp",
                  "name": "hash",
                  "type": "uint8"
                },
                {
                  "internalType": "bytes",
                  "name": "prefix",
                  "type": "bytes"
                },
                {
                  "internalType": "bytes",
                  "name": "suffix",
                  "type": "bytes"
                }
              ],
              "internalType": "struct ICS23.InnerOp[]",
              "name": "path",
              "type": "tuple[]"
            }
          ],
          "internalType": "struct ICS23.ExistenceProof",
          "name": "proof",
          "type": "tuple"
        }
      ],
      "name": "verifyMembership",
      "outputs": [
        {
          "internalType": "bool",
          "name": "",
          "type": "bool"
        }
      ],
      "stateMutability": "view",
      "type": "function"
    },
    {
      "inputs": [
        {
          "components": [
            {
              "internalType": "bool",
              "name": "valid",
              "type": "bool"
            },
            {
              "internalType": "enum ICS23.HashOp",
              "name": "hash",
              "type": "uint8"
            },
            {
              "internalType": "enum ICS23.HashOp",
              "name": "prehash_key",
              "type": "uint8"
            },
            {
              "internalType": "enum ICS23.HashOp",
              "name": "prehash_value",
              "type": "uint8"
            },
            {
              "internalType": "enum ICS23.LengthOp",
              "name": "len",
              "type": "uint8"
            },
            {
              "internalType": "bytes",
              "name": "prefix",
              "type": "bytes"
            }
          ],
          "internalType": "struct ICS23.LeafOp",
          "name": "spec",
          "type": "tuple"
        },
        {
          "internalType": "bytes",
          "name": "root",
          "type": "bytes"
        },
        {
          "components": [
            {
              "internalType": "bool",
              "name": "valid",
              "type": "bool"
            },
            {
              "internalType": "bytes",
              "name": "key",
              "type": "bytes"
            },
            {
              "internalType": "bytes",
              "name": "value",
              "type": "bytes"
            },
            {
              "components": [
                {
                  "internalType": "bool",
                  "name": "valid",
                  "type": "bool"
                },
                {
                  "internalType": "enum ICS23.HashOp",
                  "name": "hash",
                  "type": "uint8"
                },
                {
                  "internalType": "enum ICS23.HashOp",
                  "name": "prehash_key",
                  "type": "uint8"
                },
                {
                  "internalType": "enum ICS23.HashOp",
                  "name": "prehash_value",
                  "type": "uint8"
                },
                {
                  "internalType": "enum ICS23.LengthOp",
                  "name": "len",
                  "type": "uint8"
                },
                {
                  "internalType": "bytes",
                  "name": "prefix",
                  "type": "bytes"
                }
              ],
              "internalType": "struct ICS23.LeafOp",
              "name": "leaf",
              "type": "tuple"
            },
            {
              "components": [
                {
                  "internalType": "bool",
                  "name": "valid",
                  "type": "bool"
                },
                {
                  "internalType": "enum ICS23.HashOp",
                  "name": "hash",
                  "type": "uint8"
                },
                {
                  "internalType": "bytes",
                  "name": "prefix",
                  "type": "bytes"
                },
                {
                  "internalType": "bytes",
                  "name": "suffix",
                  "type": "bytes"
                }
              ],
              "internalType": "struct ICS23.InnerOp[]",
              "name": "path",
              "type": "tuple[]"
            }
          ],
          "internalType": "struct ICS23.ExistenceProof",
          "name": "proof",
          "type": "tuple"
        },
        {
          "internalType": "bytes",
          "name": "key",
          "type": "bytes"
        },
        {
          "internalType": "bytes",
          "name": "value",
          "type": "bytes"
        }
      ],
      "name": "verifyMembership",
      "outputs": [
        {
          "internalType": "bool",
          "name": "",
          "type": "bool"
        }
      ],
      "stateMutability": "pure",
      "type": "function"
    }
  ],
  "bytecode": "0x60806040526040518060c00160405280600115158152602001600160058111156200002f576200002e62000274565b5b8152602001600060058111156200004b576200004a62000274565b5b81526020016001600581111562000067576200006662000274565b5b81526020016001600881111562000083576200008262000274565b5b815260200160405180604001604052806001815260200160008152508152506000808201518160000160006101000a81548160ff02191690831515021790555060208201518160000160016101000a81548160ff02191690836005811115620000f157620000f062000274565b5b021790555060408201518160000160026101000a81548160ff0219169083600581111562000124576200012362000274565b5b021790555060608201518160000160036101000a81548160ff0219169083600581111562000157576200015662000274565b5b021790555060808201518160000160046101000a81548160ff021916908360088111156200018a576200018962000274565b5b021790555060a0820151816001019080519060200190620001ad929190620001c4565b505050348015620001bd57600080fd5b5062000308565b828054620001d290620002d2565b90600052602060002090601f016020900481019282620001f6576000855562000242565b82601f106200021157805160ff191683800117855562000242565b8280016001018555821562000242579182015b828111156200024157825182559160200191906001019062000224565b5b50905062000251919062000255565b5090565b5b808211156200027057600081600090555060010162000256565b5090565b7f4e487b7100000000000000000000000000000000000000000000000000000000600052602160045260246000fd5b7f4e487b7100000000000000000000000000000000000000000000000000000000600052602260045260246000fd5b60006002820490506001821680620002eb57607f821691505b60208210811415620003025762000301620002a3565b5b50919050565b613e5880620003186000396000f3fe608060405234801561001057600080fd5b50600436106101735760003560e01c8063901d0e15116100de578063b6446a5f11610097578063e189ffa911610071578063e189ffa91461056a578063e5c341e21461059a578063fbc2674d146105ca578063fd29e20a146105fa57610173565b8063b6446a5f146104da578063d259183d1461050a578063d48f1e4f1461053a57610173565b8063901d0e15146103ba578063951c0b90146103ea5780639c854fbe1461041a5780639d18a1151461044a578063af630bb11461047a578063b4219c6f146104aa57610173565b80633e339c30116101305780633e339c301461029a578063452e99a3146102ca5780634cac70ff146102fa57806367bb8e811461032a57806372aaf3df1461035a57806383ead07c1461038a57610173565b806303801174146101785780630d4383f4146101a85780631e63e931146101da5780632f1cf2621461020a578063356e77ff1461023a578063382fd85f1461026a575b600080fd5b610192600480360381019061018d91906121c5565b61062a565b60405161019f91906122a9565b60405180910390f35b6101c260048036038101906101bd91906124ab565b610674565b6040516101d193929190612516565b60405180910390f35b6101f460048036038101906101ef919061254d565b61070b565b60405161020191906125a9565b60405180910390f35b610224600480360381019061021f919061278d565b610770565b6040516102319190612843565b60405180910390f35b610254600480360381019061024f919061285e565b610908565b60405161026191906125a9565b60405180910390f35b610284600480360381019061027f9190612ab3565b610973565b6040516102919190612843565b60405180910390f35b6102b460048036038101906102af9190612bba565b610b32565b6040516102c19190612843565b60405180910390f35b6102e460048036038101906102df9190612cc1565b610b4c565b6040516102f19190612843565b60405180910390f35b610314600480360381019061030f9190612dc8565b610ba9565b6040516103219190612843565b60405180910390f35b610344600480360381019061033f9190612e40565b610c77565b60405161035191906122a9565b60405180910390f35b610374600480360381019061036f9190612e9c565b610e12565b60405161038191906122a9565b60405180910390f35b6103a4600480360381019061039f9190612f14565b610e6a565b6040516103b19190612843565b60405180910390f35b6103d460048036038101906103cf9190612dc8565b610efd565b6040516103e19190612843565b60405180910390f35b61040460048036038101906103ff9190612f14565b610fbc565b6040516104119190612843565b60405180910390f35b610434600480360381019061042f9190612f8c565b611038565b6040516104419190612843565b60405180910390f35b610464600480360381019061045f919061300f565b611079565b6040516104719190612843565b60405180910390f35b610494600480360381019061048f9190613087565b6111f8565b6040516104a191906122a9565b60405180910390f35b6104c460048036038101906104bf919061312e565b61128c565b6040516104d19190612843565b60405180910390f35b6104f460048036038101906104ef9190613351565b6112c3565b6040516105019190612843565b60405180910390f35b610524600480360381019061051f9190612dc8565b6114a1565b604051610531919061349f565b60405180910390f35b610554600480360381019061054f91906121c5565b61166c565b60405161056191906122a9565b60405180910390f35b610584600480360381019061057f919061359b565b61192e565b60405161059191906135fd565b60405180910390f35b6105b460048036038101906105af9190613618565b611940565b6040516105c191906122a9565b60405180910390f35b6105e460048036038101906105df9190613661565b6119b4565b6040516105f19190612843565b60405180910390f35b610614600480360381019061060f9190613738565b6119cc565b60405161062191906122a9565b60405180910390f35b6060600060058111156106405761063f613428565b5b83600581111561065357610652613428565b5b14156106615781905061066e565b61066b838361166c565b90505b92915050565b60008060008061068886600001518661070b565b9050600086602001518261069c91906137d6565b905060008760400151826106b09190613830565b905060008860600151836106c49190613830565b9050600089602001518560018c60000151516106e09190613886565b6106ea9190613886565b6106f491906137d6565b905082828297509750975050505050509250925092565b60008251821061071a57600080fd5b60005b8351811015610764578284828151811061073a576107396138ba565b5b60200260200101511415610751578091505061076a565b808061075c906138e9565b91505061071d565b50600080fd5b92915050565b600080600190505b6107d6848286516107899190613886565b8151811061079a576107996138ba565b5b602002602001015160400151848386516107b49190613886565b815181106107c5576107c46138ba565b5b602002602001015160400151610ba9565b801561083c575061083b848286516107ee9190613886565b815181106107ff576107fe6138ba565b5b602002602001015160600151848386516108199190613886565b8151811061082a576108296138ba565b5b602002602001015160600151610ba9565b5b1561085457808061084c906138e9565b915050610778565b6000848286516108649190613886565b81518110610875576108746138ba565b5b6020026020010151905060008483865161088f9190613886565b815181106108a05761089f6138ba565b5b602002602001015190506108b587838361128c565b6108c55760009350505050610901565b6108cf8787610e6a565b6108df5760009350505050610901565b6108e98786610fbc565b6108f95760009350505050610901565b600193505050505b9392505050565b600080836000015151905060005b8181101561096757600080600061092d8885610674565b92509250925061093f87848484611038565b1561095157839550505050505061096d565b505050808061095f906138e9565b915050610916565b50600080fd5b92915050565b6000610b2760006040518060c00160405290816000820160009054906101000a900460ff161515151581526020016000820160019054906101000a900460ff1660058111156109c5576109c4613428565b5b60058111156109d7576109d6613428565b5b81526020016000820160029054906101000a900460ff166005811115610a00576109ff613428565b5b6005811115610a1257610a11613428565b5b81526020016000820160039054906101000a900460ff166005811115610a3b57610a3a613428565b5b6005811115610a4d57610a4c613428565b5b81526020016000820160049054906101000a900460ff166008811115610a7657610a75613428565b5b6008811115610a8857610a87613428565b5b8152602001600182018054610a9c90613961565b80601f0160208091040260200160405190810160405280929190818152602001828054610ac890613961565b8015610b155780601f10610aea57610100808354040283529160200191610b15565b820191906000526020600020905b815481529060010190602001808311610af857829003601f168201915b50505050508152505086848787610b32565b905095945050505050565b6000610b418487878686610b4c565b905095945050505050565b6000610b588686611079565b8015610b6e5750610b6d838760200151610ba9565b5b8015610b845750610b83828760400151610ba9565b5b8015610b9e5750610b9d610b9787611940565b85610ba9565b5b905095945050505050565b60008151835114610bbd5760009050610c71565b60005b8351811015610c6b57828181518110610bdc57610bdb6138ba565b5b602001015160f81c60f81b7effffffffffffffffffffffffffffffffffffffffffffffffffffffffffffff1916848281518110610c1c57610c1b6138ba565b5b602001015160f81c60f81b7effffffffffffffffffffffffffffffffffffffffffffffffffffffffffffff191614610c58576000915050610c71565b8080610c63906138e9565b915050610bc0565b50600190505b92915050565b606060006008811115610c8d57610c8c613428565b5b836008811115610ca057610c9f613428565b5b1415610cae57819050610e0c565b60016008811115610cc257610cc1613428565b5b836008811115610cd557610cd4613428565b5b1415610d4c5760008251905060808110610d22576080607f821617600782901c91508184604051602001610d0b93929190613a12565b604051602081830303815290604052915050610e0c565b8083604051602001610d35929190613a4b565b604051602081830303815290604052915050610e0c565b60076008811115610d6057610d5f613428565b5b836008811115610d7357610d72613428565b5b1415610d8f576020825114610d8757600080fd5b819050610e0c565b600880811115610da257610da1613428565b5b836008811115610db557610db4613428565b5b1415610dd1576040825114610dc957600080fd5b819050610e0c565b6040517f08c379a0000000000000000000000000000000000000000000000000000000008152600401610e0390613af6565b60405180910390fd5b92915050565b6060600082511415610e2357600080fd5b60008360400151838560600151604051602001610e4293929190613b16565b6040516020818303038152906040529050610e6184602001518261166c565b91505092915050565b6000806001846000015151610e7f9190613886565b90506000806000610e908785610674565b92509250925060005b8651811015610eed57610ec8878281518110610eb857610eb76138ba565b5b6020026020010151858585611038565b610eda57600095505050505050610ef7565b8080610ee5906138e9565b915050610e99565b5060019450505050505b92915050565b600080600090505b8251811015610fb057828181518110610f2157610f206138ba565b5b602001015160f81c60f81b7effffffffffffffffffffffffffffffffffffffffffffffffffffffffffffff1916848281518110610f6157610f606138ba565b5b602001015160f81c60f81b7effffffffffffffffffffffffffffffffffffffffffffffffffffffffffffff191614610f9d576000915050610fb6565b8080610fa8906138e9565b915050610f05565b50600190505b92915050565b600080600080610fcd866000610674565b92509250925060005b855181101561102957611005868281518110610ff557610ff46138ba565b5b6020026020010151858585611038565b611016576000945050505050611032565b8080611021906138e9565b915050610fd6565b50600193505050505b92915050565b60008385604001515110156110505760009050611071565b8285604001515111156110665760009050611071565b818560600151511490505b949350505050565b60008160200151600581111561109257611091613428565b5b83606001516020015160058111156110ad576110ac613428565b5b1480156110e95750816040015160058111156110cc576110cb613428565b5b83606001516040015160058111156110e7576110e6613428565b5b145b801561112457508160600151600581111561110757611106613428565b5b836060015160600151600581111561112257611121613428565b5b145b801561115f57508160800151600881111561114257611141613428565b5b836060015160800151600881111561115d5761115c613428565b5b145b801561117d575061117c836060015160a001518360a00151610efd565b5b61118a57600090506111f2565b60005b8360800151518110156111ec576111ca846080015182815181106111b4576111b36138ba565b5b6020026020010151604001518460a00151610efd565b156111d95760009150506111f2565b80806111e4906138e9565b91505061118d565b50600190505b92915050565b606060008351141561120957600080fd5b60008251141561121857600080fd5b600061122d85604001518660800151866119cc565b9050600061124486606001518760800151866119cc565b905060008660a00151838360405160200161126193929190613b16565b604051602081830303815290604052905061128087602001518261166c565b93505050509392505050565b6000806112998585610908565b905060006112a78685610908565b9050806001836112b79190613830565b14925050509392505050565b60008460400151600001511580156112e15750846060015160000151155b156112ef5760009050611499565b84604001516000015115611376576113228560400151856000015185886040015160200151896040015160400151610b4c565b61132f5760009050611499565b6000600281111561134357611342613428565b5b611355838760600151602001516114a1565b600281111561136757611366613428565b5b146113755760009050611499565b5b846060015160000151156113fc576113a98560600151856000015185886060015160200151896060015160400151610b4c565b6113b65760009050611499565b6002808111156113c9576113c8613428565b5b6113db838760400151602001516114a1565b60028111156113ed576113ec613428565b5b146113fb5760009050611499565b5b8460400151600001516114315761141f8460200151866060015160800151610fbc565b61142c5760009050611499565b611494565b846060015160000151611466576114548460200151866040015160800151610e6a565b6114615760009050611499565b611493565b6114858460200151866040015160800151876060015160800151610770565b6114925760009050611499565b5b5b600190505b949350505050565b600080600090505b8351811080156114b95750825181105b156115f1578281815181106114d1576114d06138ba565b5b602001015160f81c60f81b7effffffffffffffffffffffffffffffffffffffffffffffffffffffffffffff1916848281518110611511576115106138ba565b5b602001015160f81c60f81b7effffffffffffffffffffffffffffffffffffffffffffffffffffffffffffff1916101561154e576000915050611666565b828181518110611561576115606138ba565b5b602001015160f81c60f81b7effffffffffffffffffffffffffffffffffffffffffffffffffffffffffffff19168482815181106115a1576115a06138ba565b5b602001015160f81c60f81b7effffffffffffffffffffffffffffffffffffffffffffffffffffffffffffff191611156115de576002915050611666565b80806115e9906138e9565b9150506114a9565b508151835114156116055760019050611666565b8151835110156116185760009050611666565b81518351111561162b5760029050611666565b6040517f08c379a000000000000000000000000000000000000000000000000000000000815260040161165d90613b93565b60405180910390fd5b92915050565b60606003600581111561168257611681613428565b5b83600581111561169557611694613428565b5b14156116c95781805190602001206040516020016116b39190613bd4565b6040516020818303038152906040529050611928565b600160058111156116dd576116dc613428565b5b8360058111156116f0576116ef613428565b5b141561176c576002826040516117069190613bef565b602060405180830381855afa158015611723573d6000803e3d6000fd5b5050506040513d601f19601f820116820180604052508101906117469190613c32565b6040516020016117569190613bd4565b6040516020818303038152906040529050611928565b600460058111156117805761177f613428565b5b83600581111561179357611792613428565b5b14156117f6576003826040516117a99190613bef565b602060405180830381855afa1580156117c6573d6000803e3d6000fd5b5050506040515160601b6040516020016117e09190613cac565b6040516020818303038152906040529050611928565b60058081111561180957611808613428565b5b83600581111561181c5761181b613428565b5b14156118ed5760036002836040516118349190613bef565b602060405180830381855afa158015611851573d6000803e3d6000fd5b5050506040513d601f19601f820116820180604052508101906118749190613c32565b6040516020016118849190613bd4565b6040516020818303038152906040526040516118a09190613bef565b602060405180830381855afa1580156118bd573d6000803e3d6000fd5b5050506040515160601b6040516020016118d79190613cac565b6040516020818303038152906040529050611928565b6040517f08c379a000000000000000000000000000000000000000000000000000000000815260040161191f90613d39565b60405180910390fd5b92915050565b6000611939826119f6565b9050919050565b6060600061195b8360600151846020015185604001516111f8565b905060005b8360800151518110156119aa5761199584608001518281518110611987576119866138ba565b5b602002602001015183610e12565b915080806119a2906138e9565b915050611960565b5080915050919050565b60006119c2838686856112c3565b9050949350505050565b606060006119da858461062a565b905060006119e88583610c77565b905080925050509392505050565b600080825190506000811415611aab576002600067ffffffffffffffff811115611a2357611a2261209a565b5b6040519080825280601f01601f191660200182016040528015611a555781602001600182028036833780820191505090505b50604051611a639190613bef565b602060405180830381855afa158015611a80573d6000803e3d6000fd5b5050506040513d601f19601f82011682018060405250810190611aa39190613c32565b915050611b2e565b6001811415611ae057611ad883600081518110611acb57611aca6138ba565b5b6020026020010151611b33565b915050611b2e565b6000611aec8451611cbe565b90506000611b04611aff86600085611d4f565b6119f6565b90506000611b1b611b16878587611d4f565b6119f6565b9050611b278282611e1d565b9450505050505b919050565b60008060018351611b449190613830565b67ffffffffffffffff811115611b5d57611b5c61209a565b5b6040519080825280601f01601f191660200182016040528015611b8f5781602001600182028036833780820191505090505b509050600060f81b81600081518110611bab57611baa6138ba565b5b60200101907effffffffffffffffffffffffffffffffffffffffffffffffffffffffffffff1916908160001a90535060005b8351811015611c6557838181518110611bf957611bf86138ba565b5b602001015160f81c60f81b82600183611c129190613830565b81518110611c2357611c226138ba565b5b60200101907effffffffffffffffffffffffffffffffffffffffffffffffffffffffffffff1916908160001a9053508080611c5d906138e9565b915050611bdd565b50600281604051611c769190613bef565b602060405180830381855afa158015611c93573d6000803e3d6000fd5b5050506040513d601f19601f82011682018060405250810190611cb69190613c32565b915050919050565b60006001821015611d04576040517f08c379a0000000000000000000000000000000000000000000000000000000008152600401611cfb90613dcb565b60405180910390fd5b6001821415611d165760009050611d4a565b6000600190505b82600282611d2b91906137d6565b1015611d4557600281611d3e91906137d6565b9050611d1d565b809150505b919050565b606060008383611d5f9190613886565b67ffffffffffffffff811115611d7857611d7761209a565b5b604051908082528060200260200182016040528015611dab57816020015b6060815260200190600190039081611d965790505b50905060005b8151811015611e1157858186611dc79190613830565b81518110611dd857611dd76138ba565b5b6020026020010151828281518110611df357611df26138ba565b5b60200260200101819052508080611e09906138e9565b915050611db1565b50809150509392505050565b6000806001602080611e2f9190613deb565b611e399190613deb565b60ff1667ffffffffffffffff811115611e5557611e5461209a565b5b6040519080825280601f01601f191660200182016040528015611e875781602001600182028036833780820191505090505b509050600160f81b81600081518110611ea357611ea26138ba565b5b60200101907effffffffffffffffffffffffffffffffffffffffffffffffffffffffffffff1916908160001a90535060006001905060005b602060ff16811015611f6157858160208110611efa57611ef96138ba565b5b1a60f81b838381518110611f1157611f106138ba565b5b60200101907effffffffffffffffffffffffffffffffffffffffffffffffffffffffffffff1916908160001a9053508180611f4b906138e9565b9250508080611f59906138e9565b915050611edb565b5060005b602060ff16811015611feb57848160208110611f8457611f836138ba565b5b1a60f81b838381518110611f9b57611f9a6138ba565b5b60200101907effffffffffffffffffffffffffffffffffffffffffffffffffffffffffffff1916908160001a9053508180611fd5906138e9565b9250508080611fe3906138e9565b915050611f65565b50600282604051611ffc9190613bef565b602060405180830381855afa158015612019573d6000803e3d6000fd5b5050506040513d601f19601f8201168201806040525081019061203c9190613c32565b9250505092915050565b6000604051905090565b600080fd5b600080fd5b6006811061206757600080fd5b50565b6000813590506120798161205a565b92915050565b600080fd5b600080fd5b6000601f19601f8301169050919050565b7f4e487b7100000000000000000000000000000000000000000000000000000000600052604160045260246000fd5b6120d282612089565b810181811067ffffffffffffffff821117156120f1576120f061209a565b5b80604052505050565b6000612104612046565b905061211082826120c9565b919050565b600067ffffffffffffffff8211156121305761212f61209a565b5b61213982612089565b9050602081019050919050565b82818337600083830152505050565b600061216861216384612115565b6120fa565b90508281526020810184848401111561218457612183612084565b5b61218f848285612146565b509392505050565b600082601f8301126121ac576121ab61207f565b5b81356121bc848260208601612155565b91505092915050565b600080604083850312156121dc576121db612050565b5b60006121ea8582860161206a565b925050602083013567ffffffffffffffff81111561220b5761220a612055565b5b61221785828601612197565b9150509250929050565b600081519050919050565b600082825260208201905092915050565b60005b8381101561225b578082015181840152602081019050612240565b8381111561226a576000848401525b50505050565b600061227b82612221565b612285818561222c565b935061229581856020860161223d565b61229e81612089565b840191505092915050565b600060208201905081810360008301526122c38184612270565b905092915050565b600080fd5b600080fd5b600067ffffffffffffffff8211156122f0576122ef61209a565b5b602082029050602081019050919050565b600080fd5b6000819050919050565b61231981612306565b811461232457600080fd5b50565b60008135905061233681612310565b92915050565b600061234f61234a846122d5565b6120fa565b9050808382526020820190506020840283018581111561237257612371612301565b5b835b8181101561239b57806123878882612327565b845260208401935050602081019050612374565b5050509392505050565b600082601f8301126123ba576123b961207f565b5b81356123ca84826020860161233c565b91505092915050565b600060c082840312156123e9576123e86122cb565b5b6123f360c06120fa565b9050600082013567ffffffffffffffff811115612413576124126122d0565b5b61241f848285016123a5565b600083015250602061243384828501612327565b602083015250604061244784828501612327565b604083015250606061245b84828501612327565b606083015250608082013567ffffffffffffffff81111561247f5761247e6122d0565b5b61248b84828501612197565b60808301525060a061249f8482850161206a565b60a08301525092915050565b600080604083850312156124c2576124c1612050565b5b600083013567ffffffffffffffff8111156124e0576124df612055565b5b6124ec858286016123d3565b92505060206124fd85828601612327565b9150509250929050565b61251081612306565b82525050565b600060608201905061252b6000830186612507565b6125386020830185612507565b6125456040830184612507565b949350505050565b6000806040838503121561256457612563612050565b5b600083013567ffffffffffffffff81111561258257612581612055565b5b61258e858286016123a5565b925050602061259f85828601612327565b9150509250929050565b60006020820190506125be6000830184612507565b92915050565b600067ffffffffffffffff8211156125df576125de61209a565b5b602082029050602081019050919050565b60008115159050919050565b612605816125f0565b811461261057600080fd5b50565b600081359050612622816125fc565b92915050565b60006080828403121561263e5761263d6122cb565b5b61264860806120fa565b9050600061265884828501612613565b600083015250602061266c8482850161206a565b602083015250604082013567ffffffffffffffff8111156126905761268f6122d0565b5b61269c84828501612197565b604083015250606082013567ffffffffffffffff8111156126c0576126bf6122d0565b5b6126cc84828501612197565b60608301525092915050565b60006126eb6126e6846125c4565b6120fa565b9050808382526020820190506020840283018581111561270e5761270d612301565b5b835b8181101561275557803567ffffffffffffffff8111156127335761273261207f565b5b8086016127408982612628565b85526020850194505050602081019050612710565b5050509392505050565b600082601f8301126127745761277361207f565b5b81356127848482602086016126d8565b91505092915050565b6000806000606084860312156127a6576127a5612050565b5b600084013567ffffffffffffffff8111156127c4576127c3612055565b5b6127d0868287016123d3565b935050602084013567ffffffffffffffff8111156127f1576127f0612055565b5b6127fd8682870161275f565b925050604084013567ffffffffffffffff81111561281e5761281d612055565b5b61282a8682870161275f565b9150509250925092565b61283d816125f0565b82525050565b60006020820190506128586000830184612834565b92915050565b6000806040838503121561287557612874612050565b5b600083013567ffffffffffffffff81111561289357612892612055565b5b61289f858286016123d3565b925050602083013567ffffffffffffffff8111156128c0576128bf612055565b5b6128cc85828601612628565b9150509250929050565b600981106128e357600080fd5b50565b6000813590506128f5816128d6565b92915050565b600060c08284031215612911576129106122cb565b5b61291b60c06120fa565b9050600061292b84828501612613565b600083015250602061293f8482850161206a565b60208301525060406129538482850161206a565b60408301525060606129678482850161206a565b606083015250608061297b848285016128e6565b60808301525060a082013567ffffffffffffffff81111561299f5761299e6122d0565b5b6129ab84828501612197565b60a08301525092915050565b600060a082840312156129cd576129cc6122cb565b5b6129d760a06120fa565b905060006129e784828501612613565b600083015250602082013567ffffffffffffffff811115612a0b57612a0a6122d0565b5b612a1784828501612197565b602083015250604082013567ffffffffffffffff811115612a3b57612a3a6122d0565b5b612a4784828501612197565b604083015250606082013567ffffffffffffffff811115612a6b57612a6a6122d0565b5b612a77848285016128fb565b606083015250608082013567ffffffffffffffff811115612a9b57612a9a6122d0565b5b612aa78482850161275f565b60808301525092915050565b600080600080600060a08688031215612acf57612ace612050565b5b600086013567ffffffffffffffff811115612aed57612aec612055565b5b612af988828901612197565b955050602086013567ffffffffffffffff811115612b1a57612b19612055565b5b612b2688828901612197565b945050604086013567ffffffffffffffff811115612b4757612b46612055565b5b612b5388828901612197565b935050606086013567ffffffffffffffff811115612b7457612b73612055565b5b612b8088828901612197565b925050608086013567ffffffffffffffff811115612ba157612ba0612055565b5b612bad888289016129b7565b9150509295509295909350565b600080600080600060a08688031215612bd657612bd5612050565b5b600086013567ffffffffffffffff811115612bf457612bf3612055565b5b612c00888289016128fb565b955050602086013567ffffffffffffffff811115612c2157612c20612055565b5b612c2d88828901612197565b945050604086013567ffffffffffffffff811115612c4e57612c4d612055565b5b612c5a888289016129b7565b935050606086013567ffffffffffffffff811115612c7b57612c7a612055565b5b612c8788828901612197565b925050608086013567ffffffffffffffff811115612ca857612ca7612055565b5b612cb488828901612197565b9150509295509295909350565b600080600080600060a08688031215612cdd57612cdc612050565b5b600086013567ffffffffffffffff811115612cfb57612cfa612055565b5b612d07888289016129b7565b955050602086013567ffffffffffffffff811115612d2857612d27612055565b5b612d34888289016128fb565b945050604086013567ffffffffffffffff811115612d5557612d54612055565b5b612d6188828901612197565b935050606086013567ffffffffffffffff811115612d8257612d81612055565b5b612d8e88828901612197565b925050608086013567ffffffffffffffff811115612daf57612dae612055565b5b612dbb88828901612197565b9150509295509295909350565b60008060408385031215612ddf57612dde612050565b5b600083013567ffffffffffffffff811115612dfd57612dfc612055565b5b612e0985828601612197565b925050602083013567ffffffffffffffff811115612e2a57612e29612055565b5b612e3685828601612197565b9150509250929050565b60008060408385031215612e5757612e56612050565b5b6000612e65858286016128e6565b925050602083013567ffffffffffffffff811115612e8657612e85612055565b5b612e9285828601612197565b9150509250929050565b60008060408385031215612eb357612eb2612050565b5b600083013567ffffffffffffffff811115612ed157612ed0612055565b5b612edd85828601612628565b925050602083013567ffffffffffffffff811115612efe57612efd612055565b5b612f0a85828601612197565b9150509250929050565b60008060408385031215612f2b57612f2a612050565b5b600083013567ffffffffffffffff811115612f4957612f48612055565b5b612f55858286016123d3565b925050602083013567ffffffffffffffff811115612f7657612f75612055565b5b612f828582860161275f565b9150509250929050565b60008060008060808587031215612fa657612fa5612050565b5b600085013567ffffffffffffffff811115612fc457612fc3612055565b5b612fd087828801612628565b9450506020612fe187828801612327565b9350506040612ff287828801612327565b925050606061300387828801612327565b91505092959194509250565b6000806040838503121561302657613025612050565b5b600083013567ffffffffffffffff81111561304457613043612055565b5b613050858286016129b7565b925050602083013567ffffffffffffffff81111561307157613070612055565b5b61307d858286016128fb565b9150509250929050565b6000806000606084860312156130a05761309f612050565b5b600084013567ffffffffffffffff8111156130be576130bd612055565b5b6130ca868287016128fb565b935050602084013567ffffffffffffffff8111156130eb576130ea612055565b5b6130f786828701612197565b925050604084013567ffffffffffffffff81111561311857613117612055565b5b61312486828701612197565b9150509250925092565b60008060006060848603121561314757613146612050565b5b600084013567ffffffffffffffff81111561316557613164612055565b5b613171868287016123d3565b935050602084013567ffffffffffffffff81111561319257613191612055565b5b61319e86828701612628565b925050604084013567ffffffffffffffff8111156131bf576131be612055565b5b6131cb86828701612628565b9150509250925092565b6000608082840312156131eb576131ea6122cb565b5b6131f560806120fa565b9050600061320584828501612613565b600083015250602082013567ffffffffffffffff811115613229576132286122d0565b5b61323584828501612197565b602083015250604082013567ffffffffffffffff811115613259576132586122d0565b5b613265848285016129b7565b604083015250606082013567ffffffffffffffff811115613289576132886122d0565b5b613295848285016129b7565b60608301525092915050565b6000608082840312156132b7576132b66122cb565b5b6132c160806120fa565b9050600082013567ffffffffffffffff8111156132e1576132e06122d0565b5b6132ed848285016128fb565b600083015250602082013567ffffffffffffffff811115613311576133106122d0565b5b61331d848285016123d3565b602083015250604061333184828501612327565b604083015250606061334584828501612327565b60608301525092915050565b6000806000806080858703121561336b5761336a612050565b5b600085013567ffffffffffffffff81111561338957613388612055565b5b613395878288016131d5565b945050602085013567ffffffffffffffff8111156133b6576133b5612055565b5b6133c2878288016132a1565b935050604085013567ffffffffffffffff8111156133e3576133e2612055565b5b6133ef87828801612197565b925050606085013567ffffffffffffffff8111156134105761340f612055565b5b61341c87828801612197565b91505092959194509250565b7f4e487b7100000000000000000000000000000000000000000000000000000000600052602160045260246000fd5b6003811061346857613467613428565b5b50565b600081905061347982613457565b919050565b60006134898261346b565b9050919050565b6134998161347e565b82525050565b60006020820190506134b46000830184613490565b92915050565b600067ffffffffffffffff8211156134d5576134d461209a565b5b602082029050602081019050919050565b60006134f96134f4846134ba565b6120fa565b9050808382526020820190506020840283018581111561351c5761351b612301565b5b835b8181101561356357803567ffffffffffffffff8111156135415761354061207f565b5b80860161354e8982612197565b8552602085019450505060208101905061351e565b5050509392505050565b600082601f8301126135825761358161207f565b5b81356135928482602086016134e6565b91505092915050565b6000602082840312156135b1576135b0612050565b5b600082013567ffffffffffffffff8111156135cf576135ce612055565b5b6135db8482850161356d565b91505092915050565b6000819050919050565b6135f7816135e4565b82525050565b600060208201905061361260008301846135ee565b92915050565b60006020828403121561362e5761362d612050565b5b600082013567ffffffffffffffff81111561364c5761364b612055565b5b613658848285016129b7565b91505092915050565b6000806000806080858703121561367b5761367a612050565b5b600085013567ffffffffffffffff81111561369957613698612055565b5b6136a5878288016132a1565b945050602085013567ffffffffffffffff8111156136c6576136c5612055565b5b6136d287828801612197565b935050604085013567ffffffffffffffff8111156136f3576136f2612055565b5b6136ff878288016131d5565b925050606085013567ffffffffffffffff8111156137205761371f612055565b5b61372c87828801612197565b91505092959194509250565b60008060006060848603121561375157613750612050565b5b600061375f8682870161206a565b9350506020613770868287016128e6565b925050604084013567ffffffffffffffff81111561379157613790612055565b5b61379d86828701612197565b9150509250925092565b7f4e487b7100000000000000000000000000000000000000000000000000000000600052601160045260246000fd5b60006137e182612306565b91506137ec83612306565b9250817fffffffffffffffffffffffffffffffffffffffffffffffffffffffffffffffff0483118215151615613825576138246137a7565b5b828202905092915050565b600061383b82612306565b915061384683612306565b9250827fffffffffffffffffffffffffffffffffffffffffffffffffffffffffffffffff0382111561387b5761387a6137a7565b5b828201905092915050565b600061389182612306565b915061389c83612306565b9250828210156138af576138ae6137a7565b5b828203905092915050565b7f4e487b7100000000000000000000000000000000000000000000000000000000600052603260045260246000fd5b60006138f482612306565b91507fffffffffffffffffffffffffffffffffffffffffffffffffffffffffffffffff821415613927576139266137a7565b5b600182019050919050565b7f4e487b7100000000000000000000000000000000000000000000000000000000600052602260045260246000fd5b6000600282049050600182168061397957607f821691505b6020821081141561398d5761398c613932565b5b50919050565b600060ff82169050919050565b60008160f81b9050919050565b60006139b8826139a0565b9050919050565b6139d06139cb82613993565b6139ad565b82525050565b600081905092915050565b60006139ec82612221565b6139f681856139d6565b9350613a0681856020860161223d565b80840191505092915050565b6000613a1e82866139bf565b600182019150613a2e82856139bf565b600182019150613a3e82846139e1565b9150819050949350505050565b6000613a5782856139bf565b600182019150613a6782846139e1565b91508190509392505050565b600082825260208201905092915050565b7f696e76616c6964206f7220756e737570706f72746564206c656e677468206f7060008201527f65726174696f6e00000000000000000000000000000000000000000000000000602082015250565b6000613ae0602783613a73565b9150613aeb82613a84565b604082019050919050565b60006020820190508181036000830152613b0f81613ad3565b9050919050565b6000613b2282866139e1565b9150613b2e82856139e1565b9150613b3a82846139e1565b9150819050949350505050565b7f73686f756c64206e6f742072656163682074686973206c696e65000000000000600082015250565b6000613b7d601a83613a73565b9150613b8882613b47565b602082019050919050565b60006020820190508181036000830152613bac81613b70565b9050919050565b6000819050919050565b613bce613bc9826135e4565b613bb3565b82525050565b6000613be08284613bbd565b60208201915081905092915050565b6000613bfb82846139e1565b915081905092915050565b613c0f816135e4565b8114613c1a57600080fd5b50565b600081519050613c2c81613c06565b92915050565b600060208284031215613c4857613c47612050565b5b6000613c5684828501613c1d565b91505092915050565b60007fffffffffffffffffffffffffffffffffffffffff00000000000000000000000082169050919050565b6000819050919050565b613ca6613ca182613c5f565b613c8b565b82525050565b6000613cb88284613c95565b60148201915081905092915050565b7f696e76616c6964206f7220756e737570706f727465642068617368206f70657260008201527f6174696f6e000000000000000000000000000000000000000000000000000000602082015250565b6000613d23602583613a73565b9150613d2e82613cc7565b604082019050919050565b60006020820190508181036000830152613d5281613d16565b9050919050565b7f547279696e6720746f2073706c69742061207472656520776974682073697a6560008201527f203c203100000000000000000000000000000000000000000000000000000000602082015250565b6000613db5602483613a73565b9150613dc082613d59565b604082019050919050565b60006020820190508181036000830152613de481613da8565b9050919050565b6000613df682613993565b9150613e0183613993565b92508260ff03821115613e1757613e166137a7565b5b82820190509291505056fea26469706673582212202f16926e6e39a4443edaea2bb1b8ec99a163d3151a957ea06b70a71e73cce1d564736f6c63430008090033",
  "immutableReferences": {},
  "source": "// SPDX-License-Identifier: Apache-2.0\npragma solidity ^0.8.7;\npragma experimental ABIEncoderV2;\n\nimport \"./MerkleTree.sol\";\nimport \"./ics23.sol\";\n\ncontract ICS23Verifier is ICS23{\n\n    function hashFromByteSlices(bytes[] memory data)\n        public\n        pure\n        returns (bytes32)\n    {\n        return MerkleTree.hashFromByteSlices(data);\n    }\n\n    function verifyMembership(\n        bytes memory proofBz,\n        \n        bytes memory rootBz,\n        bytes memory pathBz,\n        bytes memory value,\n        ExistenceProof memory proof\n    ) public view returns (bool) {\n        \n        return verifyMembership(\n            iavlSpec,\n            rootBz,\n            proof,\n            pathBz,\n            value\n        );\n    }\n}\n",
  "sourcePath": "/home/rogelio/Code/ancon-protocol/ethereum/contracts/ancon/ICS23Verifier.sol",
  "compiler": {
    "name": "solc",
    "version": "0.8.9+commit.e5eed63a.Emscripten.clang"
  },
  "schemaVersion": "3.4.3",
  "updatedAt": "2021-10-15T17:27:32.951Z",
  "devdoc": {
    "kind": "dev",
    "methods": {},
    "version": 1
  },
  "userdoc": {
    "kind": "user",
    "methods": {},
    "version": 1
  }
}