{
  "contractName": "ICS23",
  "abi": [
    {
      "inputs": [
        {
          "internalType": "enum ICS23.HashOp",
          "name": "op",
          "type": "uint8"
        },
        {
          "internalType": "bytes",
          "name": "preimage",
          "type": "bytes"
        }
      ],
      "name": "doHashOrNoop",
      "outputs": [
        {
          "internalType": "bytes",
          "name": "",
          "type": "bytes"
        }
      ],
      "stateMutability": "pure",
      "type": "function"
    },
    {
      "inputs": [
        {
          "internalType": "enum ICS23.HashOp",
          "name": "op",
          "type": "uint8"
        },
        {
          "internalType": "bytes",
          "name": "preimage",
          "type": "bytes"
        }
      ],
      "name": "doHash",
      "outputs": [
        {
          "internalType": "bytes",
          "name": "",
          "type": "bytes"
        }
      ],
      "stateMutability": "pure",
      "type": "function"
    },
    {
      "inputs": [
        {
          "internalType": "enum ICS23.LengthOp",
          "name": "op",
          "type": "uint8"
        },
        {
          "internalType": "bytes",
          "name": "data",
          "type": "bytes"
        }
      ],
      "name": "doLength",
      "outputs": [
        {
          "internalType": "bytes",
          "name": "",
          "type": "bytes"
        }
      ],
      "stateMutability": "pure",
      "type": "function"
    },
    {
      "inputs": [
        {
          "internalType": "enum ICS23.HashOp",
          "name": "hashop",
          "type": "uint8"
        },
        {
          "internalType": "enum ICS23.LengthOp",
          "name": "lengthop",
          "type": "uint8"
        },
        {
          "internalType": "bytes",
          "name": "data",
          "type": "bytes"
        }
      ],
      "name": "prepareLeafData",
      "outputs": [
        {
          "internalType": "bytes",
          "name": "",
          "type": "bytes"
        }
      ],
      "stateMutability": "pure",
      "type": "function"
    },
    {
      "inputs": [
        {
          "components": [
            {
              "internalType": "bool",
              "name": "valid",
              "type": "bool"
            },
            {
              "internalType": "enum ICS23.HashOp",
              "name": "hash",
              "type": "uint8"
            },
            {
              "internalType": "enum ICS23.HashOp",
              "name": "prehash_key",
              "type": "uint8"
            },
            {
              "internalType": "enum ICS23.HashOp",
              "name": "prehash_value",
              "type": "uint8"
            },
            {
              "internalType": "enum ICS23.LengthOp",
              "name": "len",
              "type": "uint8"
            },
            {
              "internalType": "bytes",
              "name": "prefix",
              "type": "bytes"
            }
          ],
          "internalType": "struct ICS23.LeafOp",
          "name": "op",
          "type": "tuple"
        },
        {
          "internalType": "bytes",
          "name": "key",
          "type": "bytes"
        },
        {
          "internalType": "bytes",
          "name": "value",
          "type": "bytes"
        }
      ],
      "name": "applyLeaf",
      "outputs": [
        {
          "internalType": "bytes",
          "name": "",
          "type": "bytes"
        }
      ],
      "stateMutability": "pure",
      "type": "function"
    },
    {
      "inputs": [
        {
          "components": [
            {
              "internalType": "bool",
              "name": "valid",
              "type": "bool"
            },
            {
              "internalType": "enum ICS23.HashOp",
              "name": "hash",
              "type": "uint8"
            },
            {
              "internalType": "bytes",
              "name": "prefix",
              "type": "bytes"
            },
            {
              "internalType": "bytes",
              "name": "suffix",
              "type": "bytes"
            }
          ],
          "internalType": "struct ICS23.InnerOp",
          "name": "op",
          "type": "tuple"
        },
        {
          "internalType": "bytes",
          "name": "child",
          "type": "bytes"
        }
      ],
      "name": "applyInner",
      "outputs": [
        {
          "internalType": "bytes",
          "name": "",
          "type": "bytes"
        }
      ],
      "stateMutability": "pure",
      "type": "function"
    },
    {
      "inputs": [
        {
          "internalType": "bytes",
          "name": "s",
          "type": "bytes"
        },
        {
          "internalType": "bytes",
          "name": "prefix",
          "type": "bytes"
        }
      ],
      "name": "hasprefix",
      "outputs": [
        {
          "internalType": "bool",
          "name": "",
          "type": "bool"
        }
      ],
      "stateMutability": "pure",
      "type": "function"
    },
    {
      "inputs": [
        {
          "components": [
            {
              "internalType": "bool",
              "name": "valid",
              "type": "bool"
            },
            {
              "internalType": "bytes",
              "name": "key",
              "type": "bytes"
            },
            {
              "internalType": "bytes",
              "name": "value",
              "type": "bytes"
            },
            {
              "components": [
                {
                  "internalType": "bool",
                  "name": "valid",
                  "type": "bool"
                },
                {
                  "internalType": "enum ICS23.HashOp",
                  "name": "hash",
                  "type": "uint8"
                },
                {
                  "internalType": "enum ICS23.HashOp",
                  "name": "prehash_key",
                  "type": "uint8"
                },
                {
                  "internalType": "enum ICS23.HashOp",
                  "name": "prehash_value",
                  "type": "uint8"
                },
                {
                  "internalType": "enum ICS23.LengthOp",
                  "name": "len",
                  "type": "uint8"
                },
                {
                  "internalType": "bytes",
                  "name": "prefix",
                  "type": "bytes"
                }
              ],
              "internalType": "struct ICS23.LeafOp",
              "name": "leaf",
              "type": "tuple"
            },
            {
              "components": [
                {
                  "internalType": "bool",
                  "name": "valid",
                  "type": "bool"
                },
                {
                  "internalType": "enum ICS23.HashOp",
                  "name": "hash",
                  "type": "uint8"
                },
                {
                  "internalType": "bytes",
                  "name": "prefix",
                  "type": "bytes"
                },
                {
                  "internalType": "bytes",
                  "name": "suffix",
                  "type": "bytes"
                }
              ],
              "internalType": "struct ICS23.InnerOp[]",
              "name": "path",
              "type": "tuple[]"
            }
          ],
          "internalType": "struct ICS23.ExistenceProof",
          "name": "proof",
          "type": "tuple"
        },
        {
          "components": [
            {
              "internalType": "bool",
              "name": "valid",
              "type": "bool"
            },
            {
              "internalType": "enum ICS23.HashOp",
              "name": "hash",
              "type": "uint8"
            },
            {
              "internalType": "enum ICS23.HashOp",
              "name": "prehash_key",
              "type": "uint8"
            },
            {
              "internalType": "enum ICS23.HashOp",
              "name": "prehash_value",
              "type": "uint8"
            },
            {
              "internalType": "enum ICS23.LengthOp",
              "name": "len",
              "type": "uint8"
            },
            {
              "internalType": "bytes",
              "name": "prefix",
              "type": "bytes"
            }
          ],
          "internalType": "struct ICS23.LeafOp",
          "name": "spec",
          "type": "tuple"
        }
      ],
      "name": "checkAgainstSpec",
      "outputs": [
        {
          "internalType": "bool",
          "name": "",
          "type": "bool"
        }
      ],
      "stateMutability": "pure",
      "type": "function"
    },
    {
      "inputs": [
        {
          "components": [
            {
              "internalType": "bool",
              "name": "valid",
              "type": "bool"
            },
            {
              "internalType": "bytes",
              "name": "key",
              "type": "bytes"
            },
            {
              "internalType": "bytes",
              "name": "value",
              "type": "bytes"
            },
            {
              "components": [
                {
                  "internalType": "bool",
                  "name": "valid",
                  "type": "bool"
                },
                {
                  "internalType": "enum ICS23.HashOp",
                  "name": "hash",
                  "type": "uint8"
                },
                {
                  "internalType": "enum ICS23.HashOp",
                  "name": "prehash_key",
                  "type": "uint8"
                },
                {
                  "internalType": "enum ICS23.HashOp",
                  "name": "prehash_value",
                  "type": "uint8"
                },
                {
                  "internalType": "enum ICS23.LengthOp",
                  "name": "len",
                  "type": "uint8"
                },
                {
                  "internalType": "bytes",
                  "name": "prefix",
                  "type": "bytes"
                }
              ],
              "internalType": "struct ICS23.LeafOp",
              "name": "leaf",
              "type": "tuple"
            },
            {
              "components": [
                {
                  "internalType": "bool",
                  "name": "valid",
                  "type": "bool"
                },
                {
                  "internalType": "enum ICS23.HashOp",
                  "name": "hash",
                  "type": "uint8"
                },
                {
                  "internalType": "bytes",
                  "name": "prefix",
                  "type": "bytes"
                },
                {
                  "internalType": "bytes",
                  "name": "suffix",
                  "type": "bytes"
                }
              ],
              "internalType": "struct ICS23.InnerOp[]",
              "name": "path",
              "type": "tuple[]"
            }
          ],
          "internalType": "struct ICS23.ExistenceProof",
          "name": "proof",
          "type": "tuple"
        }
      ],
      "name": "calculate",
      "outputs": [
        {
          "internalType": "bytes",
          "name": "",
          "type": "bytes"
        }
      ],
      "stateMutability": "pure",
      "type": "function"
    },
    {
      "inputs": [
        {
          "components": [
            {
              "internalType": "bool",
              "name": "valid",
              "type": "bool"
            },
            {
              "internalType": "bytes",
              "name": "key",
              "type": "bytes"
            },
            {
              "internalType": "bytes",
              "name": "value",
              "type": "bytes"
            },
            {
              "components": [
                {
                  "internalType": "bool",
                  "name": "valid",
                  "type": "bool"
                },
                {
                  "internalType": "enum ICS23.HashOp",
                  "name": "hash",
                  "type": "uint8"
                },
                {
                  "internalType": "enum ICS23.HashOp",
                  "name": "prehash_key",
                  "type": "uint8"
                },
                {
                  "internalType": "enum ICS23.HashOp",
                  "name": "prehash_value",
                  "type": "uint8"
                },
                {
                  "internalType": "enum ICS23.LengthOp",
                  "name": "len",
                  "type": "uint8"
                },
                {
                  "internalType": "bytes",
                  "name": "prefix",
                  "type": "bytes"
                }
              ],
              "internalType": "struct ICS23.LeafOp",
              "name": "leaf",
              "type": "tuple"
            },
            {
              "components": [
                {
                  "internalType": "bool",
                  "name": "valid",
                  "type": "bool"
                },
                {
                  "internalType": "enum ICS23.HashOp",
                  "name": "hash",
                  "type": "uint8"
                },
                {
                  "internalType": "bytes",
                  "name": "prefix",
                  "type": "bytes"
                },
                {
                  "internalType": "bytes",
                  "name": "suffix",
                  "type": "bytes"
                }
              ],
              "internalType": "struct ICS23.InnerOp[]",
              "name": "path",
              "type": "tuple[]"
            }
          ],
          "internalType": "struct ICS23.ExistenceProof",
          "name": "proof",
          "type": "tuple"
        },
        {
          "components": [
            {
              "internalType": "bool",
              "name": "valid",
              "type": "bool"
            },
            {
              "internalType": "enum ICS23.HashOp",
              "name": "hash",
              "type": "uint8"
            },
            {
              "internalType": "enum ICS23.HashOp",
              "name": "prehash_key",
              "type": "uint8"
            },
            {
              "internalType": "enum ICS23.HashOp",
              "name": "prehash_value",
              "type": "uint8"
            },
            {
              "internalType": "enum ICS23.LengthOp",
              "name": "len",
              "type": "uint8"
            },
            {
              "internalType": "bytes",
              "name": "prefix",
              "type": "bytes"
            }
          ],
          "internalType": "struct ICS23.LeafOp",
          "name": "spec",
          "type": "tuple"
        },
        {
          "internalType": "bytes",
          "name": "root",
          "type": "bytes"
        },
        {
          "internalType": "bytes",
          "name": "key",
          "type": "bytes"
        },
        {
          "internalType": "bytes",
          "name": "value",
          "type": "bytes"
        }
      ],
      "name": "verifyExistence",
      "outputs": [
        {
          "internalType": "bool",
          "name": "",
          "type": "bool"
        }
      ],
      "stateMutability": "pure",
      "type": "function"
    },
    {
      "inputs": [
        {
          "components": [
            {
              "internalType": "bool",
              "name": "valid",
              "type": "bool"
            },
            {
              "internalType": "bytes",
              "name": "key",
              "type": "bytes"
            },
            {
              "components": [
                {
                  "internalType": "bool",
                  "name": "valid",
                  "type": "bool"
                },
                {
                  "internalType": "bytes",
                  "name": "key",
                  "type": "bytes"
                },
                {
                  "internalType": "bytes",
                  "name": "value",
                  "type": "bytes"
                },
                {
                  "components": [
                    {
                      "internalType": "bool",
                      "name": "valid",
                      "type": "bool"
                    },
                    {
                      "internalType": "enum ICS23.HashOp",
                      "name": "hash",
                      "type": "uint8"
                    },
                    {
                      "internalType": "enum ICS23.HashOp",
                      "name": "prehash_key",
                      "type": "uint8"
                    },
                    {
                      "internalType": "enum ICS23.HashOp",
                      "name": "prehash_value",
                      "type": "uint8"
                    },
                    {
                      "internalType": "enum ICS23.LengthOp",
                      "name": "len",
                      "type": "uint8"
                    },
                    {
                      "internalType": "bytes",
                      "name": "prefix",
                      "type": "bytes"
                    }
                  ],
                  "internalType": "struct ICS23.LeafOp",
                  "name": "leaf",
                  "type": "tuple"
                },
                {
                  "components": [
                    {
                      "internalType": "bool",
                      "name": "valid",
                      "type": "bool"
                    },
                    {
                      "internalType": "enum ICS23.HashOp",
                      "name": "hash",
                      "type": "uint8"
                    },
                    {
                      "internalType": "bytes",
                      "name": "prefix",
                      "type": "bytes"
                    },
                    {
                      "internalType": "bytes",
                      "name": "suffix",
                      "type": "bytes"
                    }
                  ],
                  "internalType": "struct ICS23.InnerOp[]",
                  "name": "path",
                  "type": "tuple[]"
                }
              ],
              "internalType": "struct ICS23.ExistenceProof",
              "name": "left",
              "type": "tuple"
            },
            {
              "components": [
                {
                  "internalType": "bool",
                  "name": "valid",
                  "type": "bool"
                },
                {
                  "internalType": "bytes",
                  "name": "key",
                  "type": "bytes"
                },
                {
                  "internalType": "bytes",
                  "name": "value",
                  "type": "bytes"
                },
                {
                  "components": [
                    {
                      "internalType": "bool",
                      "name": "valid",
                      "type": "bool"
                    },
                    {
                      "internalType": "enum ICS23.HashOp",
                      "name": "hash",
                      "type": "uint8"
                    },
                    {
                      "internalType": "enum ICS23.HashOp",
                      "name": "prehash_key",
                      "type": "uint8"
                    },
                    {
                      "internalType": "enum ICS23.HashOp",
                      "name": "prehash_value",
                      "type": "uint8"
                    },
                    {
                      "internalType": "enum ICS23.LengthOp",
                      "name": "len",
                      "type": "uint8"
                    },
                    {
                      "internalType": "bytes",
                      "name": "prefix",
                      "type": "bytes"
                    }
                  ],
                  "internalType": "struct ICS23.LeafOp",
                  "name": "leaf",
                  "type": "tuple"
                },
                {
                  "components": [
                    {
                      "internalType": "bool",
                      "name": "valid",
                      "type": "bool"
                    },
                    {
                      "internalType": "enum ICS23.HashOp",
                      "name": "hash",
                      "type": "uint8"
                    },
                    {
                      "internalType": "bytes",
                      "name": "prefix",
                      "type": "bytes"
                    },
                    {
                      "internalType": "bytes",
                      "name": "suffix",
                      "type": "bytes"
                    }
                  ],
                  "internalType": "struct ICS23.InnerOp[]",
                  "name": "path",
                  "type": "tuple[]"
                }
              ],
              "internalType": "struct ICS23.ExistenceProof",
              "name": "right",
              "type": "tuple"
            }
          ],
          "internalType": "struct ICS23.NonExistenceProof",
          "name": "proof",
          "type": "tuple"
        },
        {
          "components": [
            {
              "components": [
                {
                  "internalType": "bool",
                  "name": "valid",
                  "type": "bool"
                },
                {
                  "internalType": "enum ICS23.HashOp",
                  "name": "hash",
                  "type": "uint8"
                },
                {
                  "internalType": "enum ICS23.HashOp",
                  "name": "prehash_key",
                  "type": "uint8"
                },
                {
                  "internalType": "enum ICS23.HashOp",
                  "name": "prehash_value",
                  "type": "uint8"
                },
                {
                  "internalType": "enum ICS23.LengthOp",
                  "name": "len",
                  "type": "uint8"
                },
                {
                  "internalType": "bytes",
                  "name": "prefix",
                  "type": "bytes"
                }
              ],
              "internalType": "struct ICS23.LeafOp",
              "name": "leafSpec",
              "type": "tuple"
            },
            {
              "components": [
                {
                  "internalType": "uint256[]",
                  "name": "childOrder",
                  "type": "uint256[]"
                },
                {
                  "internalType": "uint256",
                  "name": "childSize",
                  "type": "uint256"
                },
                {
                  "internalType": "uint256",
                  "name": "minPrefixLength",
                  "type": "uint256"
                },
                {
                  "internalType": "uint256",
                  "name": "maxPrefixLength",
                  "type": "uint256"
                },
                {
                  "internalType": "bytes",
                  "name": "emptyChild",
                  "type": "bytes"
                },
                {
                  "internalType": "enum ICS23.HashOp",
                  "name": "hash",
                  "type": "uint8"
                }
              ],
              "internalType": "struct ICS23.InnerSpec",
              "name": "innerSpec",
              "type": "tuple"
            },
            {
              "internalType": "uint256",
              "name": "maxDepth",
              "type": "uint256"
            },
            {
              "internalType": "uint256",
              "name": "minDepth",
              "type": "uint256"
            }
          ],
          "internalType": "struct ICS23.ProofSpec",
          "name": "spec",
          "type": "tuple"
        },
        {
          "internalType": "bytes",
          "name": "root",
          "type": "bytes"
        },
        {
          "internalType": "bytes",
          "name": "key",
          "type": "bytes"
        }
      ],
      "name": "verifyNonExistence",
      "outputs": [
        {
          "internalType": "bool",
          "name": "",
          "type": "bool"
        }
      ],
      "stateMutability": "pure",
      "type": "function"
    },
    {
      "inputs": [
        {
          "components": [
            {
              "internalType": "uint256[]",
              "name": "childOrder",
              "type": "uint256[]"
            },
            {
              "internalType": "uint256",
              "name": "childSize",
              "type": "uint256"
            },
            {
              "internalType": "uint256",
              "name": "minPrefixLength",
              "type": "uint256"
            },
            {
              "internalType": "uint256",
              "name": "maxPrefixLength",
              "type": "uint256"
            },
            {
              "internalType": "bytes",
              "name": "emptyChild",
              "type": "bytes"
            },
            {
              "internalType": "enum ICS23.HashOp",
              "name": "hash",
              "type": "uint8"
            }
          ],
          "internalType": "struct ICS23.InnerSpec",
          "name": "spec",
          "type": "tuple"
        },
        {
          "components": [
            {
              "internalType": "bool",
              "name": "valid",
              "type": "bool"
            },
            {
              "internalType": "enum ICS23.HashOp",
              "name": "hash",
              "type": "uint8"
            },
            {
              "internalType": "bytes",
              "name": "prefix",
              "type": "bytes"
            },
            {
              "internalType": "bytes",
              "name": "suffix",
              "type": "bytes"
            }
          ],
          "internalType": "struct ICS23.InnerOp",
          "name": "op",
          "type": "tuple"
        }
      ],
      "name": "orderFromPadding",
      "outputs": [
        {
          "internalType": "uint256",
          "name": "",
          "type": "uint256"
        }
      ],
      "stateMutability": "pure",
      "type": "function"
    },
    {
      "inputs": [
        {
          "components": [
            {
              "internalType": "uint256[]",
              "name": "childOrder",
              "type": "uint256[]"
            },
            {
              "internalType": "uint256",
              "name": "childSize",
              "type": "uint256"
            },
            {
              "internalType": "uint256",
              "name": "minPrefixLength",
              "type": "uint256"
            },
            {
              "internalType": "uint256",
              "name": "maxPrefixLength",
              "type": "uint256"
            },
            {
              "internalType": "bytes",
              "name": "emptyChild",
              "type": "bytes"
            },
            {
              "internalType": "enum ICS23.HashOp",
              "name": "hash",
              "type": "uint8"
            }
          ],
          "internalType": "struct ICS23.InnerSpec",
          "name": "spec",
          "type": "tuple"
        },
        {
          "components": [
            {
              "internalType": "bool",
              "name": "valid",
              "type": "bool"
            },
            {
              "internalType": "enum ICS23.HashOp",
              "name": "hash",
              "type": "uint8"
            },
            {
              "internalType": "bytes",
              "name": "prefix",
              "type": "bytes"
            },
            {
              "internalType": "bytes",
              "name": "suffix",
              "type": "bytes"
            }
          ],
          "internalType": "struct ICS23.InnerOp",
          "name": "left",
          "type": "tuple"
        },
        {
          "components": [
            {
              "internalType": "bool",
              "name": "valid",
              "type": "bool"
            },
            {
              "internalType": "enum ICS23.HashOp",
              "name": "hash",
              "type": "uint8"
            },
            {
              "internalType": "bytes",
              "name": "prefix",
              "type": "bytes"
            },
            {
              "internalType": "bytes",
              "name": "suffix",
              "type": "bytes"
            }
          ],
          "internalType": "struct ICS23.InnerOp",
          "name": "right",
          "type": "tuple"
        }
      ],
      "name": "isLeftStep",
      "outputs": [
        {
          "internalType": "bool",
          "name": "",
          "type": "bool"
        }
      ],
      "stateMutability": "pure",
      "type": "function"
    },
    {
      "inputs": [
        {
          "components": [
            {
              "internalType": "uint256[]",
              "name": "childOrder",
              "type": "uint256[]"
            },
            {
              "internalType": "uint256",
              "name": "childSize",
              "type": "uint256"
            },
            {
              "internalType": "uint256",
              "name": "minPrefixLength",
              "type": "uint256"
            },
            {
              "internalType": "uint256",
              "name": "maxPrefixLength",
              "type": "uint256"
            },
            {
              "internalType": "bytes",
              "name": "emptyChild",
              "type": "bytes"
            },
            {
              "internalType": "enum ICS23.HashOp",
              "name": "hash",
              "type": "uint8"
            }
          ],
          "internalType": "struct ICS23.InnerSpec",
          "name": "spec",
          "type": "tuple"
        },
        {
          "components": [
            {
              "internalType": "bool",
              "name": "valid",
              "type": "bool"
            },
            {
              "internalType": "enum ICS23.HashOp",
              "name": "hash",
              "type": "uint8"
            },
            {
              "internalType": "bytes",
              "name": "prefix",
              "type": "bytes"
            },
            {
              "internalType": "bytes",
              "name": "suffix",
              "type": "bytes"
            }
          ],
          "internalType": "struct ICS23.InnerOp[]",
          "name": "path",
          "type": "tuple[]"
        }
      ],
      "name": "isLeftMost",
      "outputs": [
        {
          "internalType": "bool",
          "name": "",
          "type": "bool"
        }
      ],
      "stateMutability": "pure",
      "type": "function"
    },
    {
      "inputs": [
        {
          "components": [
            {
              "internalType": "uint256[]",
              "name": "childOrder",
              "type": "uint256[]"
            },
            {
              "internalType": "uint256",
              "name": "childSize",
              "type": "uint256"
            },
            {
              "internalType": "uint256",
              "name": "minPrefixLength",
              "type": "uint256"
            },
            {
              "internalType": "uint256",
              "name": "maxPrefixLength",
              "type": "uint256"
            },
            {
              "internalType": "bytes",
              "name": "emptyChild",
              "type": "bytes"
            },
            {
              "internalType": "enum ICS23.HashOp",
              "name": "hash",
              "type": "uint8"
            }
          ],
          "internalType": "struct ICS23.InnerSpec",
          "name": "spec",
          "type": "tuple"
        },
        {
          "components": [
            {
              "internalType": "bool",
              "name": "valid",
              "type": "bool"
            },
            {
              "internalType": "enum ICS23.HashOp",
              "name": "hash",
              "type": "uint8"
            },
            {
              "internalType": "bytes",
              "name": "prefix",
              "type": "bytes"
            },
            {
              "internalType": "bytes",
              "name": "suffix",
              "type": "bytes"
            }
          ],
          "internalType": "struct ICS23.InnerOp[]",
          "name": "path",
          "type": "tuple[]"
        }
      ],
      "name": "isRightMost",
      "outputs": [
        {
          "internalType": "bool",
          "name": "",
          "type": "bool"
        }
      ],
      "stateMutability": "pure",
      "type": "function"
    },
    {
      "inputs": [
        {
          "components": [
            {
              "internalType": "uint256[]",
              "name": "childOrder",
              "type": "uint256[]"
            },
            {
              "internalType": "uint256",
              "name": "childSize",
              "type": "uint256"
            },
            {
              "internalType": "uint256",
              "name": "minPrefixLength",
              "type": "uint256"
            },
            {
              "internalType": "uint256",
              "name": "maxPrefixLength",
              "type": "uint256"
            },
            {
              "internalType": "bytes",
              "name": "emptyChild",
              "type": "bytes"
            },
            {
              "internalType": "enum ICS23.HashOp",
              "name": "hash",
              "type": "uint8"
            }
          ],
          "internalType": "struct ICS23.InnerSpec",
          "name": "spec",
          "type": "tuple"
        },
        {
          "components": [
            {
              "internalType": "bool",
              "name": "valid",
              "type": "bool"
            },
            {
              "internalType": "enum ICS23.HashOp",
              "name": "hash",
              "type": "uint8"
            },
            {
              "internalType": "bytes",
              "name": "prefix",
              "type": "bytes"
            },
            {
              "internalType": "bytes",
              "name": "suffix",
              "type": "bytes"
            }
          ],
          "internalType": "struct ICS23.InnerOp[]",
          "name": "left",
          "type": "tuple[]"
        },
        {
          "components": [
            {
              "internalType": "bool",
              "name": "valid",
              "type": "bool"
            },
            {
              "internalType": "enum ICS23.HashOp",
              "name": "hash",
              "type": "uint8"
            },
            {
              "internalType": "bytes",
              "name": "prefix",
              "type": "bytes"
            },
            {
              "internalType": "bytes",
              "name": "suffix",
              "type": "bytes"
            }
          ],
          "internalType": "struct ICS23.InnerOp[]",
          "name": "right",
          "type": "tuple[]"
        }
      ],
      "name": "isLeftNeighbor",
      "outputs": [
        {
          "internalType": "bool",
          "name": "",
          "type": "bool"
        }
      ],
      "stateMutability": "pure",
      "type": "function"
    },
    {
      "inputs": [
        {
          "internalType": "uint256[]",
          "name": "order",
          "type": "uint256[]"
        },
        {
          "internalType": "uint256",
          "name": "branch",
          "type": "uint256"
        }
      ],
      "name": "getPosition",
      "outputs": [
        {
          "internalType": "uint256",
          "name": "",
          "type": "uint256"
        }
      ],
      "stateMutability": "pure",
      "type": "function"
    },
    {
      "inputs": [
        {
          "components": [
            {
              "internalType": "bool",
              "name": "valid",
              "type": "bool"
            },
            {
              "internalType": "enum ICS23.HashOp",
              "name": "hash",
              "type": "uint8"
            },
            {
              "internalType": "bytes",
              "name": "prefix",
              "type": "bytes"
            },
            {
              "internalType": "bytes",
              "name": "suffix",
              "type": "bytes"
            }
          ],
          "internalType": "struct ICS23.InnerOp",
          "name": "op",
          "type": "tuple"
        },
        {
          "internalType": "uint256",
          "name": "minPrefix",
          "type": "uint256"
        },
        {
          "internalType": "uint256",
          "name": "maxPrefix",
          "type": "uint256"
        },
        {
          "internalType": "uint256",
          "name": "suffix",
          "type": "uint256"
        }
      ],
      "name": "hasPadding",
      "outputs": [
        {
          "internalType": "bool",
          "name": "",
          "type": "bool"
        }
      ],
      "stateMutability": "pure",
      "type": "function"
    },
    {
      "inputs": [
        {
          "components": [
            {
              "internalType": "uint256[]",
              "name": "childOrder",
              "type": "uint256[]"
            },
            {
              "internalType": "uint256",
              "name": "childSize",
              "type": "uint256"
            },
            {
              "internalType": "uint256",
              "name": "minPrefixLength",
              "type": "uint256"
            },
            {
              "internalType": "uint256",
              "name": "maxPrefixLength",
              "type": "uint256"
            },
            {
              "internalType": "bytes",
              "name": "emptyChild",
              "type": "bytes"
            },
            {
              "internalType": "enum ICS23.HashOp",
              "name": "hash",
              "type": "uint8"
            }
          ],
          "internalType": "struct ICS23.InnerSpec",
          "name": "spec",
          "type": "tuple"
        },
        {
          "internalType": "uint256",
          "name": "branch",
          "type": "uint256"
        }
      ],
      "name": "getPadding",
      "outputs": [
        {
          "internalType": "uint256",
          "name": "",
          "type": "uint256"
        },
        {
          "internalType": "uint256",
          "name": "",
          "type": "uint256"
        },
        {
          "internalType": "uint256",
          "name": "",
          "type": "uint256"
        }
      ],
      "stateMutability": "pure",
      "type": "function"
    },
    {
      "inputs": [
        {
          "internalType": "bytes",
          "name": "bz1",
          "type": "bytes"
        },
        {
          "internalType": "bytes",
          "name": "bz2",
          "type": "bytes"
        }
      ],
      "name": "equalBytes",
      "outputs": [
        {
          "internalType": "bool",
          "name": "",
          "type": "bool"
        }
      ],
      "stateMutability": "pure",
      "type": "function"
    },
    {
      "inputs": [
        {
          "internalType": "bytes",
          "name": "bz1",
          "type": "bytes"
        },
        {
          "internalType": "bytes",
          "name": "bz2",
          "type": "bytes"
        }
      ],
      "name": "compareBytes",
      "outputs": [
        {
          "internalType": "enum ICS23.Ordering",
          "name": "",
          "type": "uint8"
        }
      ],
      "stateMutability": "pure",
      "type": "function"
    },
    {
      "inputs": [
        {
          "components": [
            {
              "internalType": "bool",
              "name": "valid",
              "type": "bool"
            },
            {
              "internalType": "enum ICS23.HashOp",
              "name": "hash",
              "type": "uint8"
            },
            {
              "internalType": "enum ICS23.HashOp",
              "name": "prehash_key",
              "type": "uint8"
            },
            {
              "internalType": "enum ICS23.HashOp",
              "name": "prehash_value",
              "type": "uint8"
            },
            {
              "internalType": "enum ICS23.LengthOp",
              "name": "len",
              "type": "uint8"
            },
            {
              "internalType": "bytes",
              "name": "prefix",
              "type": "bytes"
            }
          ],
          "internalType": "struct ICS23.LeafOp",
          "name": "spec",
          "type": "tuple"
        },
        {
          "internalType": "bytes",
          "name": "root",
          "type": "bytes"
        },
        {
          "components": [
            {
              "internalType": "bool",
              "name": "valid",
              "type": "bool"
            },
            {
              "internalType": "bytes",
              "name": "key",
              "type": "bytes"
            },
            {
              "internalType": "bytes",
              "name": "value",
              "type": "bytes"
            },
            {
              "components": [
                {
                  "internalType": "bool",
                  "name": "valid",
                  "type": "bool"
                },
                {
                  "internalType": "enum ICS23.HashOp",
                  "name": "hash",
                  "type": "uint8"
                },
                {
                  "internalType": "enum ICS23.HashOp",
                  "name": "prehash_key",
                  "type": "uint8"
                },
                {
                  "internalType": "enum ICS23.HashOp",
                  "name": "prehash_value",
                  "type": "uint8"
                },
                {
                  "internalType": "enum ICS23.LengthOp",
                  "name": "len",
                  "type": "uint8"
                },
                {
                  "internalType": "bytes",
                  "name": "prefix",
                  "type": "bytes"
                }
              ],
              "internalType": "struct ICS23.LeafOp",
              "name": "leaf",
              "type": "tuple"
            },
            {
              "components": [
                {
                  "internalType": "bool",
                  "name": "valid",
                  "type": "bool"
                },
                {
                  "internalType": "enum ICS23.HashOp",
                  "name": "hash",
                  "type": "uint8"
                },
                {
                  "internalType": "bytes",
                  "name": "prefix",
                  "type": "bytes"
                },
                {
                  "internalType": "bytes",
                  "name": "suffix",
                  "type": "bytes"
                }
              ],
              "internalType": "struct ICS23.InnerOp[]",
              "name": "path",
              "type": "tuple[]"
            }
          ],
          "internalType": "struct ICS23.ExistenceProof",
          "name": "proof",
          "type": "tuple"
        },
        {
          "internalType": "bytes",
          "name": "key",
          "type": "bytes"
        },
        {
          "internalType": "bytes",
          "name": "value",
          "type": "bytes"
        }
      ],
      "name": "verifyMembership",
      "outputs": [
        {
          "internalType": "bool",
          "name": "",
          "type": "bool"
        }
      ],
      "stateMutability": "pure",
      "type": "function"
    },
    {
      "inputs": [
        {
          "components": [
            {
              "components": [
                {
                  "internalType": "bool",
                  "name": "valid",
                  "type": "bool"
                },
                {
                  "internalType": "enum ICS23.HashOp",
                  "name": "hash",
                  "type": "uint8"
                },
                {
                  "internalType": "enum ICS23.HashOp",
                  "name": "prehash_key",
                  "type": "uint8"
                },
                {
                  "internalType": "enum ICS23.HashOp",
                  "name": "prehash_value",
                  "type": "uint8"
                },
                {
                  "internalType": "enum ICS23.LengthOp",
                  "name": "len",
                  "type": "uint8"
                },
                {
                  "internalType": "bytes",
                  "name": "prefix",
                  "type": "bytes"
                }
              ],
              "internalType": "struct ICS23.LeafOp",
              "name": "leafSpec",
              "type": "tuple"
            },
            {
              "components": [
                {
                  "internalType": "uint256[]",
                  "name": "childOrder",
                  "type": "uint256[]"
                },
                {
                  "internalType": "uint256",
                  "name": "childSize",
                  "type": "uint256"
                },
                {
                  "internalType": "uint256",
                  "name": "minPrefixLength",
                  "type": "uint256"
                },
                {
                  "internalType": "uint256",
                  "name": "maxPrefixLength",
                  "type": "uint256"
                },
                {
                  "internalType": "bytes",
                  "name": "emptyChild",
                  "type": "bytes"
                },
                {
                  "internalType": "enum ICS23.HashOp",
                  "name": "hash",
                  "type": "uint8"
                }
              ],
              "internalType": "struct ICS23.InnerSpec",
              "name": "innerSpec",
              "type": "tuple"
            },
            {
              "internalType": "uint256",
              "name": "maxDepth",
              "type": "uint256"
            },
            {
              "internalType": "uint256",
              "name": "minDepth",
              "type": "uint256"
            }
          ],
          "internalType": "struct ICS23.ProofSpec",
          "name": "spec",
          "type": "tuple"
        },
        {
          "internalType": "bytes",
          "name": "root",
          "type": "bytes"
        },
        {
          "components": [
            {
              "internalType": "bool",
              "name": "valid",
              "type": "bool"
            },
            {
              "internalType": "bytes",
              "name": "key",
              "type": "bytes"
            },
            {
              "components": [
                {
                  "internalType": "bool",
                  "name": "valid",
                  "type": "bool"
                },
                {
                  "internalType": "bytes",
                  "name": "key",
                  "type": "bytes"
                },
                {
                  "internalType": "bytes",
                  "name": "value",
                  "type": "bytes"
                },
                {
                  "components": [
                    {
                      "internalType": "bool",
                      "name": "valid",
                      "type": "bool"
                    },
                    {
                      "internalType": "enum ICS23.HashOp",
                      "name": "hash",
                      "type": "uint8"
                    },
                    {
                      "internalType": "enum ICS23.HashOp",
                      "name": "prehash_key",
                      "type": "uint8"
                    },
                    {
                      "internalType": "enum ICS23.HashOp",
                      "name": "prehash_value",
                      "type": "uint8"
                    },
                    {
                      "internalType": "enum ICS23.LengthOp",
                      "name": "len",
                      "type": "uint8"
                    },
                    {
                      "internalType": "bytes",
                      "name": "prefix",
                      "type": "bytes"
                    }
                  ],
                  "internalType": "struct ICS23.LeafOp",
                  "name": "leaf",
                  "type": "tuple"
                },
                {
                  "components": [
                    {
                      "internalType": "bool",
                      "name": "valid",
                      "type": "bool"
                    },
                    {
                      "internalType": "enum ICS23.HashOp",
                      "name": "hash",
                      "type": "uint8"
                    },
                    {
                      "internalType": "bytes",
                      "name": "prefix",
                      "type": "bytes"
                    },
                    {
                      "internalType": "bytes",
                      "name": "suffix",
                      "type": "bytes"
                    }
                  ],
                  "internalType": "struct ICS23.InnerOp[]",
                  "name": "path",
                  "type": "tuple[]"
                }
              ],
              "internalType": "struct ICS23.ExistenceProof",
              "name": "left",
              "type": "tuple"
            },
            {
              "components": [
                {
                  "internalType": "bool",
                  "name": "valid",
                  "type": "bool"
                },
                {
                  "internalType": "bytes",
                  "name": "key",
                  "type": "bytes"
                },
                {
                  "internalType": "bytes",
                  "name": "value",
                  "type": "bytes"
                },
                {
                  "components": [
                    {
                      "internalType": "bool",
                      "name": "valid",
                      "type": "bool"
                    },
                    {
                      "internalType": "enum ICS23.HashOp",
                      "name": "hash",
                      "type": "uint8"
                    },
                    {
                      "internalType": "enum ICS23.HashOp",
                      "name": "prehash_key",
                      "type": "uint8"
                    },
                    {
                      "internalType": "enum ICS23.HashOp",
                      "name": "prehash_value",
                      "type": "uint8"
                    },
                    {
                      "internalType": "enum ICS23.LengthOp",
                      "name": "len",
                      "type": "uint8"
                    },
                    {
                      "internalType": "bytes",
                      "name": "prefix",
                      "type": "bytes"
                    }
                  ],
                  "internalType": "struct ICS23.LeafOp",
                  "name": "leaf",
                  "type": "tuple"
                },
                {
                  "components": [
                    {
                      "internalType": "bool",
                      "name": "valid",
                      "type": "bool"
                    },
                    {
                      "internalType": "enum ICS23.HashOp",
                      "name": "hash",
                      "type": "uint8"
                    },
                    {
                      "internalType": "bytes",
                      "name": "prefix",
                      "type": "bytes"
                    },
                    {
                      "internalType": "bytes",
                      "name": "suffix",
                      "type": "bytes"
                    }
                  ],
                  "internalType": "struct ICS23.InnerOp[]",
                  "name": "path",
                  "type": "tuple[]"
                }
              ],
              "internalType": "struct ICS23.ExistenceProof",
              "name": "right",
              "type": "tuple"
            }
          ],
          "internalType": "struct ICS23.NonExistenceProof",
          "name": "proof",
          "type": "tuple"
        },
        {
          "internalType": "bytes",
          "name": "key",
          "type": "bytes"
        }
      ],
      "name": "verifyNonMembership",
      "outputs": [
        {
          "internalType": "bool",
          "name": "",
          "type": "bool"
        }
      ],
      "stateMutability": "pure",
      "type": "function"
    }
  ],
  "bytecode": "0x60806040526040518060c00160405280600115158152602001600160058111156200002f576200002e62000274565b5b8152602001600060058111156200004b576200004a62000274565b5b81526020016001600581111562000067576200006662000274565b5b81526020016001600881111562000083576200008262000274565b5b815260200160405180604001604052806001815260200160008152508152506000808201518160000160006101000a81548160ff02191690831515021790555060208201518160000160016101000a81548160ff02191690836005811115620000f157620000f062000274565b5b021790555060408201518160000160026101000a81548160ff0219169083600581111562000124576200012362000274565b5b021790555060608201518160000160036101000a81548160ff0219169083600581111562000157576200015662000274565b5b021790555060808201518160000160046101000a81548160ff021916908360088111156200018a576200018962000274565b5b021790555060a0820151816001019080519060200190620001ad929190620001c4565b505050348015620001bd57600080fd5b5062000308565b828054620001d290620002d2565b90600052602060002090601f016020900481019282620001f6576000855562000242565b82601f106200021157805160ff191683800117855562000242565b8280016001018555821562000242579182015b828111156200024157825182559160200191906001019062000224565b5b50905062000251919062000255565b5090565b5b808211156200027057600081600090555060010162000256565b5090565b7f4e487b7100000000000000000000000000000000000000000000000000000000600052602160045260246000fd5b7f4e487b7100000000000000000000000000000000000000000000000000000000600052602260045260246000fd5b60006002820490506001821680620002eb57607f821691505b60208210811415620003025762000301620002a3565b5b50919050565b61322c80620003186000396000f3fe608060405234801561001057600080fd5b506004361061014d5760003560e01c8063901d0e15116100c3578063b6446a5f1161007c578063b6446a5f14610484578063d259183d146104b4578063d48f1e4f146104e4578063e5c341e214610514578063fbc2674d14610544578063fd29e20a146105745761014d565b8063901d0e1514610364578063951c0b90146103945780639c854fbe146103c45780639d18a115146103f4578063af630bb114610424578063b4219c6f146104545761014d565b80633e339c30116101155780633e339c3014610244578063452e99a3146102745780634cac70ff146102a457806367bb8e81146102d457806372aaf3df1461030457806383ead07c146103345761014d565b806303801174146101525780630d4383f4146101825780631e63e931146101b45780632f1cf262146101e4578063356e77ff14610214575b600080fd5b61016c6004803603810190610167919061191e565b6105a4565b6040516101799190611a02565b60405180910390f35b61019c60048036038101906101979190611c04565b6105ee565b6040516101ab93929190611c6f565b60405180910390f35b6101ce60048036038101906101c99190611ca6565b610685565b6040516101db9190611d02565b60405180910390f35b6101fe60048036038101906101f99190611ee6565b6106ea565b60405161020b9190611f9c565b60405180910390f35b61022e60048036038101906102299190611fb7565b610882565b60405161023b9190611d02565b60405180910390f35b61025e6004803603810190610259919061220c565b6108ed565b60405161026b9190611f9c565b60405180910390f35b61028e60048036038101906102899190612313565b610907565b60405161029b9190611f9c565b60405180910390f35b6102be60048036038101906102b9919061241a565b610964565b6040516102cb9190611f9c565b60405180910390f35b6102ee60048036038101906102e99190612492565b610a32565b6040516102fb9190611a02565b60405180910390f35b61031e600480360381019061031991906124ee565b610bcd565b60405161032b9190611a02565b60405180910390f35b61034e60048036038101906103499190612566565b610c25565b60405161035b9190611f9c565b60405180910390f35b61037e6004803603810190610379919061241a565b610cb8565b60405161038b9190611f9c565b60405180910390f35b6103ae60048036038101906103a99190612566565b610d77565b6040516103bb9190611f9c565b60405180910390f35b6103de60048036038101906103d991906125de565b610df3565b6040516103eb9190611f9c565b60405180910390f35b61040e60048036038101906104099190612661565b610e34565b60405161041b9190611f9c565b60405180910390f35b61043e600480360381019061043991906126d9565b610fb3565b60405161044b9190611a02565b60405180910390f35b61046e60048036038101906104699190612780565b611047565b60405161047b9190611f9c565b60405180910390f35b61049e600480360381019061049991906129a3565b61107e565b6040516104ab9190611f9c565b60405180910390f35b6104ce60048036038101906104c9919061241a565b61125c565b6040516104db9190612af1565b60405180910390f35b6104fe60048036038101906104f9919061191e565b611427565b60405161050b9190611a02565b60405180910390f35b61052e60048036038101906105299190612b0c565b6116e9565b60405161053b9190611a02565b60405180910390f35b61055e60048036038101906105599190612b55565b61175d565b60405161056b9190611f9c565b60405180910390f35b61058e60048036038101906105899190612c2c565b611775565b60405161059b9190611a02565b60405180910390f35b6060600060058111156105ba576105b9612a7a565b5b8360058111156105cd576105cc612a7a565b5b14156105db578190506105e8565b6105e58383611427565b90505b92915050565b600080600080610602866000015186610685565b905060008660200151826106169190612cca565b9050600087604001518261062a9190612d24565b9050600088606001518361063e9190612d24565b9050600089602001518560018c600001515161065a9190612d7a565b6106649190612d7a565b61066e9190612cca565b905082828297509750975050505050509250925092565b60008251821061069457600080fd5b60005b83518110156106de57828482815181106106b4576106b3612dae565b5b602002602001015114156106cb57809150506106e4565b80806106d690612ddd565b915050610697565b50600080fd5b92915050565b600080600190505b610750848286516107039190612d7a565b8151811061071457610713612dae565b5b6020026020010151604001518483865161072e9190612d7a565b8151811061073f5761073e612dae565b5b602002602001015160400151610964565b80156107b657506107b5848286516107689190612d7a565b8151811061077957610778612dae565b5b602002602001015160600151848386516107939190612d7a565b815181106107a4576107a3612dae565b5b602002602001015160600151610964565b5b156107ce5780806107c690612ddd565b9150506106f2565b6000848286516107de9190612d7a565b815181106107ef576107ee612dae565b5b602002602001015190506000848386516108099190612d7a565b8151811061081a57610819612dae565b5b6020026020010151905061082f878383611047565b61083f576000935050505061087b565b6108498787610c25565b610859576000935050505061087b565b6108638786610d77565b610873576000935050505061087b565b600193505050505b9392505050565b600080836000015151905060005b818110156108e15760008060006108a788856105ee565b9250925092506108b987848484610df3565b156108cb5783955050505050506108e7565b50505080806108d990612ddd565b915050610890565b50600080fd5b92915050565b60006108fc8487878686610907565b905095945050505050565b60006109138686610e34565b80156109295750610928838760200151610964565b5b801561093f575061093e828760400151610964565b5b80156109595750610958610952876116e9565b85610964565b5b905095945050505050565b600081518351146109785760009050610a2c565b60005b8351811015610a265782818151811061099757610996612dae565b5b602001015160f81c60f81b7effffffffffffffffffffffffffffffffffffffffffffffffffffffffffffff19168482815181106109d7576109d6612dae565b5b602001015160f81c60f81b7effffffffffffffffffffffffffffffffffffffffffffffffffffffffffffff191614610a13576000915050610a2c565b8080610a1e90612ddd565b91505061097b565b50600190505b92915050565b606060006008811115610a4857610a47612a7a565b5b836008811115610a5b57610a5a612a7a565b5b1415610a6957819050610bc7565b60016008811115610a7d57610a7c612a7a565b5b836008811115610a9057610a8f612a7a565b5b1415610b075760008251905060808110610add576080607f821617600782901c91508184604051602001610ac693929190612ea5565b604051602081830303815290604052915050610bc7565b8083604051602001610af0929190612ede565b604051602081830303815290604052915050610bc7565b60076008811115610b1b57610b1a612a7a565b5b836008811115610b2e57610b2d612a7a565b5b1415610b4a576020825114610b4257600080fd5b819050610bc7565b600880811115610b5d57610b5c612a7a565b5b836008811115610b7057610b6f612a7a565b5b1415610b8c576040825114610b8457600080fd5b819050610bc7565b6040517f08c379a0000000000000000000000000000000000000000000000000000000008152600401610bbe90612f89565b60405180910390fd5b92915050565b6060600082511415610bde57600080fd5b60008360400151838560600151604051602001610bfd93929190612fa9565b6040516020818303038152906040529050610c1c846020015182611427565b91505092915050565b6000806001846000015151610c3a9190612d7a565b90506000806000610c4b87856105ee565b92509250925060005b8651811015610ca857610c83878281518110610c7357610c72612dae565b5b6020026020010151858585610df3565b610c9557600095505050505050610cb2565b8080610ca090612ddd565b915050610c54565b5060019450505050505b92915050565b600080600090505b8251811015610d6b57828181518110610cdc57610cdb612dae565b5b602001015160f81c60f81b7effffffffffffffffffffffffffffffffffffffffffffffffffffffffffffff1916848281518110610d1c57610d1b612dae565b5b602001015160f81c60f81b7effffffffffffffffffffffffffffffffffffffffffffffffffffffffffffff191614610d58576000915050610d71565b8080610d6390612ddd565b915050610cc0565b50600190505b92915050565b600080600080610d888660006105ee565b92509250925060005b8551811015610de457610dc0868281518110610db057610daf612dae565b5b6020026020010151858585610df3565b610dd1576000945050505050610ded565b8080610ddc90612ddd565b915050610d91565b50600193505050505b92915050565b6000838560400151511015610e0b5760009050610e2c565b828560400151511115610e215760009050610e2c565b818560600151511490505b949350505050565b600081602001516005811115610e4d57610e4c612a7a565b5b8360600151602001516005811115610e6857610e67612a7a565b5b148015610ea4575081604001516005811115610e8757610e86612a7a565b5b8360600151604001516005811115610ea257610ea1612a7a565b5b145b8015610edf575081606001516005811115610ec257610ec1612a7a565b5b8360600151606001516005811115610edd57610edc612a7a565b5b145b8015610f1a575081608001516008811115610efd57610efc612a7a565b5b8360600151608001516008811115610f1857610f17612a7a565b5b145b8015610f385750610f37836060015160a001518360a00151610cb8565b5b610f455760009050610fad565b60005b836080015151811015610fa757610f8584608001518281518110610f6f57610f6e612dae565b5b6020026020010151604001518460a00151610cb8565b15610f94576000915050610fad565b8080610f9f90612ddd565b915050610f48565b50600190505b92915050565b6060600083511415610fc457600080fd5b600082511415610fd357600080fd5b6000610fe88560400151866080015186611775565b90506000610fff8660600151876080015186611775565b905060008660a00151838360405160200161101c93929190612fa9565b604051602081830303815290604052905061103b876020015182611427565b93505050509392505050565b6000806110548585610882565b905060006110628685610882565b9050806001836110729190612d24565b14925050509392505050565b600084604001516000015115801561109c5750846060015160000151155b156110aa5760009050611254565b84604001516000015115611131576110dd8560400151856000015185886040015160200151896040015160400151610907565b6110ea5760009050611254565b600060028111156110fe576110fd612a7a565b5b6111108387606001516020015161125c565b600281111561112257611121612a7a565b5b146111305760009050611254565b5b846060015160000151156111b7576111648560600151856000015185886060015160200151896060015160400151610907565b6111715760009050611254565b60028081111561118457611183612a7a565b5b6111968387604001516020015161125c565b60028111156111a8576111a7612a7a565b5b146111b65760009050611254565b5b8460400151600001516111ec576111da8460200151866060015160800151610d77565b6111e75760009050611254565b61124f565b8460600151600001516112215761120f8460200151866040015160800151610c25565b61121c5760009050611254565b61124e565b61124084602001518660400151608001518760600151608001516106ea565b61124d5760009050611254565b5b5b600190505b949350505050565b600080600090505b8351811080156112745750825181105b156113ac5782818151811061128c5761128b612dae565b5b602001015160f81c60f81b7effffffffffffffffffffffffffffffffffffffffffffffffffffffffffffff19168482815181106112cc576112cb612dae565b5b602001015160f81c60f81b7effffffffffffffffffffffffffffffffffffffffffffffffffffffffffffff19161015611309576000915050611421565b82818151811061131c5761131b612dae565b5b602001015160f81c60f81b7effffffffffffffffffffffffffffffffffffffffffffffffffffffffffffff191684828151811061135c5761135b612dae565b5b602001015160f81c60f81b7effffffffffffffffffffffffffffffffffffffffffffffffffffffffffffff19161115611399576002915050611421565b80806113a490612ddd565b915050611264565b508151835114156113c05760019050611421565b8151835110156113d35760009050611421565b8151835111156113e65760029050611421565b6040517f08c379a000000000000000000000000000000000000000000000000000000000815260040161141890613026565b60405180910390fd5b92915050565b60606003600581111561143d5761143c612a7a565b5b8360058111156114505761144f612a7a565b5b141561148457818051906020012060405160200161146e9190613071565b60405160208183030381529060405290506116e3565b6001600581111561149857611497612a7a565b5b8360058111156114ab576114aa612a7a565b5b1415611527576002826040516114c1919061308c565b602060405180830381855afa1580156114de573d6000803e3d6000fd5b5050506040513d601f19601f8201168201806040525081019061150191906130cf565b6040516020016115119190613071565b60405160208183030381529060405290506116e3565b6004600581111561153b5761153a612a7a565b5b83600581111561154e5761154d612a7a565b5b14156115b157600382604051611564919061308c565b602060405180830381855afa158015611581573d6000803e3d6000fd5b5050506040515160601b60405160200161159b9190613149565b60405160208183030381529060405290506116e3565b6005808111156115c4576115c3612a7a565b5b8360058111156115d7576115d6612a7a565b5b14156116a85760036002836040516115ef919061308c565b602060405180830381855afa15801561160c573d6000803e3d6000fd5b5050506040513d601f19601f8201168201806040525081019061162f91906130cf565b60405160200161163f9190613071565b60405160208183030381529060405260405161165b919061308c565b602060405180830381855afa158015611678573d6000803e3d6000fd5b5050506040515160601b6040516020016116929190613149565b60405160208183030381529060405290506116e3565b6040517f08c379a00000000000000000000000000000000000000000000000000000000081526004016116da906131d6565b60405180910390fd5b92915050565b60606000611704836060015184602001518560400151610fb3565b905060005b8360800151518110156117535761173e846080015182815181106117305761172f612dae565b5b602002602001015183610bcd565b9150808061174b90612ddd565b915050611709565b5080915050919050565b600061176b8386868561107e565b9050949350505050565b6060600061178385846105a4565b905060006117918583610a32565b905080925050509392505050565b6000604051905090565b600080fd5b600080fd5b600681106117c057600080fd5b50565b6000813590506117d2816117b3565b92915050565b600080fd5b600080fd5b6000601f19601f8301169050919050565b7f4e487b7100000000000000000000000000000000000000000000000000000000600052604160045260246000fd5b61182b826117e2565b810181811067ffffffffffffffff8211171561184a576118496117f3565b5b80604052505050565b600061185d61179f565b90506118698282611822565b919050565b600067ffffffffffffffff821115611889576118886117f3565b5b611892826117e2565b9050602081019050919050565b82818337600083830152505050565b60006118c16118bc8461186e565b611853565b9050828152602081018484840111156118dd576118dc6117dd565b5b6118e884828561189f565b509392505050565b600082601f830112611905576119046117d8565b5b81356119158482602086016118ae565b91505092915050565b60008060408385031215611935576119346117a9565b5b6000611943858286016117c3565b925050602083013567ffffffffffffffff811115611964576119636117ae565b5b611970858286016118f0565b9150509250929050565b600081519050919050565b600082825260208201905092915050565b60005b838110156119b4578082015181840152602081019050611999565b838111156119c3576000848401525b50505050565b60006119d48261197a565b6119de8185611985565b93506119ee818560208601611996565b6119f7816117e2565b840191505092915050565b60006020820190508181036000830152611a1c81846119c9565b905092915050565b600080fd5b600080fd5b600067ffffffffffffffff821115611a4957611a486117f3565b5b602082029050602081019050919050565b600080fd5b6000819050919050565b611a7281611a5f565b8114611a7d57600080fd5b50565b600081359050611a8f81611a69565b92915050565b6000611aa8611aa384611a2e565b611853565b90508083825260208201905060208402830185811115611acb57611aca611a5a565b5b835b81811015611af45780611ae08882611a80565b845260208401935050602081019050611acd565b5050509392505050565b600082601f830112611b1357611b126117d8565b5b8135611b23848260208601611a95565b91505092915050565b600060c08284031215611b4257611b41611a24565b5b611b4c60c0611853565b9050600082013567ffffffffffffffff811115611b6c57611b6b611a29565b5b611b7884828501611afe565b6000830152506020611b8c84828501611a80565b6020830152506040611ba084828501611a80565b6040830152506060611bb484828501611a80565b606083015250608082013567ffffffffffffffff811115611bd857611bd7611a29565b5b611be4848285016118f0565b60808301525060a0611bf8848285016117c3565b60a08301525092915050565b60008060408385031215611c1b57611c1a6117a9565b5b600083013567ffffffffffffffff811115611c3957611c386117ae565b5b611c4585828601611b2c565b9250506020611c5685828601611a80565b9150509250929050565b611c6981611a5f565b82525050565b6000606082019050611c846000830186611c60565b611c916020830185611c60565b611c9e6040830184611c60565b949350505050565b60008060408385031215611cbd57611cbc6117a9565b5b600083013567ffffffffffffffff811115611cdb57611cda6117ae565b5b611ce785828601611afe565b9250506020611cf885828601611a80565b9150509250929050565b6000602082019050611d176000830184611c60565b92915050565b600067ffffffffffffffff821115611d3857611d376117f3565b5b602082029050602081019050919050565b60008115159050919050565b611d5e81611d49565b8114611d6957600080fd5b50565b600081359050611d7b81611d55565b92915050565b600060808284031215611d9757611d96611a24565b5b611da16080611853565b90506000611db184828501611d6c565b6000830152506020611dc5848285016117c3565b602083015250604082013567ffffffffffffffff811115611de957611de8611a29565b5b611df5848285016118f0565b604083015250606082013567ffffffffffffffff811115611e1957611e18611a29565b5b611e25848285016118f0565b60608301525092915050565b6000611e44611e3f84611d1d565b611853565b90508083825260208201905060208402830185811115611e6757611e66611a5a565b5b835b81811015611eae57803567ffffffffffffffff811115611e8c57611e8b6117d8565b5b808601611e998982611d81565b85526020850194505050602081019050611e69565b5050509392505050565b600082601f830112611ecd57611ecc6117d8565b5b8135611edd848260208601611e31565b91505092915050565b600080600060608486031215611eff57611efe6117a9565b5b600084013567ffffffffffffffff811115611f1d57611f1c6117ae565b5b611f2986828701611b2c565b935050602084013567ffffffffffffffff811115611f4a57611f496117ae565b5b611f5686828701611eb8565b925050604084013567ffffffffffffffff811115611f7757611f766117ae565b5b611f8386828701611eb8565b9150509250925092565b611f9681611d49565b82525050565b6000602082019050611fb16000830184611f8d565b92915050565b60008060408385031215611fce57611fcd6117a9565b5b600083013567ffffffffffffffff811115611fec57611feb6117ae565b5b611ff885828601611b2c565b925050602083013567ffffffffffffffff811115612019576120186117ae565b5b61202585828601611d81565b9150509250929050565b6009811061203c57600080fd5b50565b60008135905061204e8161202f565b92915050565b600060c0828403121561206a57612069611a24565b5b61207460c0611853565b9050600061208484828501611d6c565b6000830152506020612098848285016117c3565b60208301525060406120ac848285016117c3565b60408301525060606120c0848285016117c3565b60608301525060806120d48482850161203f565b60808301525060a082013567ffffffffffffffff8111156120f8576120f7611a29565b5b612104848285016118f0565b60a08301525092915050565b600060a0828403121561212657612125611a24565b5b61213060a0611853565b9050600061214084828501611d6c565b600083015250602082013567ffffffffffffffff81111561216457612163611a29565b5b612170848285016118f0565b602083015250604082013567ffffffffffffffff81111561219457612193611a29565b5b6121a0848285016118f0565b604083015250606082013567ffffffffffffffff8111156121c4576121c3611a29565b5b6121d084828501612054565b606083015250608082013567ffffffffffffffff8111156121f4576121f3611a29565b5b61220084828501611eb8565b60808301525092915050565b600080600080600060a08688031215612228576122276117a9565b5b600086013567ffffffffffffffff811115612246576122456117ae565b5b61225288828901612054565b955050602086013567ffffffffffffffff811115612273576122726117ae565b5b61227f888289016118f0565b945050604086013567ffffffffffffffff8111156122a05761229f6117ae565b5b6122ac88828901612110565b935050606086013567ffffffffffffffff8111156122cd576122cc6117ae565b5b6122d9888289016118f0565b925050608086013567ffffffffffffffff8111156122fa576122f96117ae565b5b612306888289016118f0565b9150509295509295909350565b600080600080600060a0868803121561232f5761232e6117a9565b5b600086013567ffffffffffffffff81111561234d5761234c6117ae565b5b61235988828901612110565b955050602086013567ffffffffffffffff81111561237a576123796117ae565b5b61238688828901612054565b945050604086013567ffffffffffffffff8111156123a7576123a66117ae565b5b6123b3888289016118f0565b935050606086013567ffffffffffffffff8111156123d4576123d36117ae565b5b6123e0888289016118f0565b925050608086013567ffffffffffffffff811115612401576124006117ae565b5b61240d888289016118f0565b9150509295509295909350565b60008060408385031215612431576124306117a9565b5b600083013567ffffffffffffffff81111561244f5761244e6117ae565b5b61245b858286016118f0565b925050602083013567ffffffffffffffff81111561247c5761247b6117ae565b5b612488858286016118f0565b9150509250929050565b600080604083850312156124a9576124a86117a9565b5b60006124b78582860161203f565b925050602083013567ffffffffffffffff8111156124d8576124d76117ae565b5b6124e4858286016118f0565b9150509250929050565b60008060408385031215612505576125046117a9565b5b600083013567ffffffffffffffff811115612523576125226117ae565b5b61252f85828601611d81565b925050602083013567ffffffffffffffff8111156125505761254f6117ae565b5b61255c858286016118f0565b9150509250929050565b6000806040838503121561257d5761257c6117a9565b5b600083013567ffffffffffffffff81111561259b5761259a6117ae565b5b6125a785828601611b2c565b925050602083013567ffffffffffffffff8111156125c8576125c76117ae565b5b6125d485828601611eb8565b9150509250929050565b600080600080608085870312156125f8576125f76117a9565b5b600085013567ffffffffffffffff811115612616576126156117ae565b5b61262287828801611d81565b945050602061263387828801611a80565b935050604061264487828801611a80565b925050606061265587828801611a80565b91505092959194509250565b60008060408385031215612678576126776117a9565b5b600083013567ffffffffffffffff811115612696576126956117ae565b5b6126a285828601612110565b925050602083013567ffffffffffffffff8111156126c3576126c26117ae565b5b6126cf85828601612054565b9150509250929050565b6000806000606084860312156126f2576126f16117a9565b5b600084013567ffffffffffffffff8111156127105761270f6117ae565b5b61271c86828701612054565b935050602084013567ffffffffffffffff81111561273d5761273c6117ae565b5b612749868287016118f0565b925050604084013567ffffffffffffffff81111561276a576127696117ae565b5b612776868287016118f0565b9150509250925092565b600080600060608486031215612799576127986117a9565b5b600084013567ffffffffffffffff8111156127b7576127b66117ae565b5b6127c386828701611b2c565b935050602084013567ffffffffffffffff8111156127e4576127e36117ae565b5b6127f086828701611d81565b925050604084013567ffffffffffffffff811115612811576128106117ae565b5b61281d86828701611d81565b9150509250925092565b60006080828403121561283d5761283c611a24565b5b6128476080611853565b9050600061285784828501611d6c565b600083015250602082013567ffffffffffffffff81111561287b5761287a611a29565b5b612887848285016118f0565b602083015250604082013567ffffffffffffffff8111156128ab576128aa611a29565b5b6128b784828501612110565b604083015250606082013567ffffffffffffffff8111156128db576128da611a29565b5b6128e784828501612110565b60608301525092915050565b60006080828403121561290957612908611a24565b5b6129136080611853565b9050600082013567ffffffffffffffff81111561293357612932611a29565b5b61293f84828501612054565b600083015250602082013567ffffffffffffffff81111561296357612962611a29565b5b61296f84828501611b2c565b602083015250604061298384828501611a80565b604083015250606061299784828501611a80565b60608301525092915050565b600080600080608085870312156129bd576129bc6117a9565b5b600085013567ffffffffffffffff8111156129db576129da6117ae565b5b6129e787828801612827565b945050602085013567ffffffffffffffff811115612a0857612a076117ae565b5b612a14878288016128f3565b935050604085013567ffffffffffffffff811115612a3557612a346117ae565b5b612a41878288016118f0565b925050606085013567ffffffffffffffff811115612a6257612a616117ae565b5b612a6e878288016118f0565b91505092959194509250565b7f4e487b7100000000000000000000000000000000000000000000000000000000600052602160045260246000fd5b60038110612aba57612ab9612a7a565b5b50565b6000819050612acb82612aa9565b919050565b6000612adb82612abd565b9050919050565b612aeb81612ad0565b82525050565b6000602082019050612b066000830184612ae2565b92915050565b600060208284031215612b2257612b216117a9565b5b600082013567ffffffffffffffff811115612b4057612b3f6117ae565b5b612b4c84828501612110565b91505092915050565b60008060008060808587031215612b6f57612b6e6117a9565b5b600085013567ffffffffffffffff811115612b8d57612b8c6117ae565b5b612b99878288016128f3565b945050602085013567ffffffffffffffff811115612bba57612bb96117ae565b5b612bc6878288016118f0565b935050604085013567ffffffffffffffff811115612be757612be66117ae565b5b612bf387828801612827565b925050606085013567ffffffffffffffff811115612c1457612c136117ae565b5b612c20878288016118f0565b91505092959194509250565b600080600060608486031215612c4557612c446117a9565b5b6000612c53868287016117c3565b9350506020612c648682870161203f565b925050604084013567ffffffffffffffff811115612c8557612c846117ae565b5b612c91868287016118f0565b9150509250925092565b7f4e487b7100000000000000000000000000000000000000000000000000000000600052601160045260246000fd5b6000612cd582611a5f565b9150612ce083611a5f565b9250817fffffffffffffffffffffffffffffffffffffffffffffffffffffffffffffffff0483118215151615612d1957612d18612c9b565b5b828202905092915050565b6000612d2f82611a5f565b9150612d3a83611a5f565b9250827fffffffffffffffffffffffffffffffffffffffffffffffffffffffffffffffff03821115612d6f57612d6e612c9b565b5b828201905092915050565b6000612d8582611a5f565b9150612d9083611a5f565b925082821015612da357612da2612c9b565b5b828203905092915050565b7f4e487b7100000000000000000000000000000000000000000000000000000000600052603260045260246000fd5b6000612de882611a5f565b91507fffffffffffffffffffffffffffffffffffffffffffffffffffffffffffffffff821415612e1b57612e1a612c9b565b5b600182019050919050565b600060ff82169050919050565b60008160f81b9050919050565b6000612e4b82612e33565b9050919050565b612e63612e5e82612e26565b612e40565b82525050565b600081905092915050565b6000612e7f8261197a565b612e898185612e69565b9350612e99818560208601611996565b80840191505092915050565b6000612eb18286612e52565b600182019150612ec18285612e52565b600182019150612ed18284612e74565b9150819050949350505050565b6000612eea8285612e52565b600182019150612efa8284612e74565b91508190509392505050565b600082825260208201905092915050565b7f696e76616c6964206f7220756e737570706f72746564206c656e677468206f7060008201527f65726174696f6e00000000000000000000000000000000000000000000000000602082015250565b6000612f73602783612f06565b9150612f7e82612f17565b604082019050919050565b60006020820190508181036000830152612fa281612f66565b9050919050565b6000612fb58286612e74565b9150612fc18285612e74565b9150612fcd8284612e74565b9150819050949350505050565b7f73686f756c64206e6f742072656163682074686973206c696e65000000000000600082015250565b6000613010601a83612f06565b915061301b82612fda565b602082019050919050565b6000602082019050818103600083015261303f81613003565b9050919050565b6000819050919050565b6000819050919050565b61306b61306682613046565b613050565b82525050565b600061307d828461305a565b60208201915081905092915050565b60006130988284612e74565b915081905092915050565b6130ac81613046565b81146130b757600080fd5b50565b6000815190506130c9816130a3565b92915050565b6000602082840312156130e5576130e46117a9565b5b60006130f3848285016130ba565b91505092915050565b60007fffffffffffffffffffffffffffffffffffffffff00000000000000000000000082169050919050565b6000819050919050565b61314361313e826130fc565b613128565b82525050565b60006131558284613132565b60148201915081905092915050565b7f696e76616c6964206f7220756e737570706f727465642068617368206f70657260008201527f6174696f6e000000000000000000000000000000000000000000000000000000602082015250565b60006131c0602583612f06565b91506131cb82613164565b604082019050919050565b600060208201905081810360008301526131ef816131b3565b905091905056fea2646970667358221220a8067f948bd1858825c19f0b1959a667ba17e72b08d8de06862cf956b61d196b64736f6c63430008090033",
  "immutableReferences": {},
  "source": "pragma solidity >=0.8.0;\n\ncontract ICS23 {\n    // Data structures and helper functions\n\n    enum HashOp{NO_HASH, SHA256, SHA512, KECCAK, RIPEMD160, BITCOIN}\n    enum LengthOp{NO_PREFIX, VAR_PROTO, VAR_RLP, FIXED32_BIG, FIXED32_LITTLE, FIXED64_BIG, FIXED64_LITTLE, REQUIRE_32_BYTES, REQUIRE_64_BYTES}\n\n    struct ExistenceProof {\n        bool valid;\n        bytes key;\n        bytes value;\n        LeafOp leaf;\n        InnerOp[] path;\n    }\n\n    struct NonExistenceProof {\n        bool valid;\n        bytes key;\n        ExistenceProof left;\n        ExistenceProof right;\n    }\n\n    struct LeafOp {\n        bool valid;\n        HashOp hash;\n        HashOp prehash_key;\n        HashOp prehash_value;\n        LengthOp len;\n        bytes prefix;\n    }\n\n    struct InnerOp {\n        bool valid;\n        HashOp hash;\n        bytes prefix;\n        bytes suffix;\n    }\n\n    struct ProofSpec {\n        LeafOp leafSpec;\n        InnerSpec innerSpec;\n        uint maxDepth;\n        uint minDepth;\n    }\n\n    struct InnerSpec {\n        uint[] childOrder;\n        uint childSize;\n        uint minPrefixLength;\n        uint maxPrefixLength;\n        bytes emptyChild;\n        HashOp hash;\n    }\n\n    LeafOp iavlSpec = LeafOp(\n        true,\n        HashOp.SHA256,\n        HashOp.NO_HASH,\n        HashOp.SHA256,\n        LengthOp.VAR_PROTO,\n        hex\"00\"\n    );\n   \n    enum Ordering {LT, EQ, GT}\n\n    function doHashOrNoop(HashOp op, bytes memory preimage) public pure returns (bytes memory) {\n        if (op == HashOp.NO_HASH) {\n            return preimage;\n        }\n        return doHash(op, preimage);\n    }\n\n    function doHash(HashOp op, bytes memory preimage) public pure returns (bytes memory) {\n        if (op == HashOp.KECCAK) {\n            return abi.encodePacked(keccak256(preimage));\n        }\n        if (op == HashOp.SHA256) {\n            return abi.encodePacked(sha256(preimage));\n        }\n        if (op == HashOp.RIPEMD160) {\n            return abi.encodePacked(ripemd160(preimage));\n        }\n        if (op == HashOp.BITCOIN) {\n            return abi.encodePacked(ripemd160(abi.encodePacked(sha256(preimage))));\n        }\n        revert(\"invalid or unsupported hash operation\");\n    }\n\n    function doLength(LengthOp op, bytes memory data) public pure returns (bytes memory) {\n        if (op == LengthOp.NO_PREFIX) {\n            return data;\n        }\n        if (op == LengthOp.VAR_PROTO) {\n            uint l = data.length;\n            if (l >= 1<<7) {\n                return abi.encodePacked(uint8(l&0x7f|0x80), uint8(l>>=7), data);\n            }\n            return abi.encodePacked(uint8(l), data);\n        }\n        if (op == LengthOp.REQUIRE_32_BYTES) {\n            require(data.length == 32);\n            return data;\n        }\n        if (op == LengthOp.REQUIRE_64_BYTES) {\n            require(data.length == 64);\n            return data;\n        }\n        revert(\"invalid or unsupported length operation\");\n    }\n\n    function prepareLeafData(HashOp hashop, LengthOp lengthop, bytes memory data) public pure returns (bytes memory) {\n        bytes memory hashed = doHashOrNoop(hashop, data);\n        bytes memory result = doLength(lengthop, hashed);\n        return result;\n    }\n\n    function applyLeaf(LeafOp memory op, bytes memory key, bytes memory value) public pure returns (bytes memory) {\n        require(key.length != 0);\n        require(value.length != 0);\n\n        bytes memory pkey = prepareLeafData(op.prehash_key, op.len, key);\n        bytes memory pvalue = prepareLeafData(op.prehash_value, op.len, value);\n\n        bytes memory data = abi.encodePacked(op.prefix, pkey, pvalue);\n        return doHash(op.hash, data);\n    }\n\n    function applyInner(InnerOp memory op, bytes memory child) public pure returns (bytes memory) {\n        require(child.length != 0);\n        bytes memory preimage = abi.encodePacked(op.prefix, child, op.suffix);\n        return doHash(op.hash, preimage);\n    }\n\n    function hasprefix(bytes memory s, bytes memory prefix) public pure returns (bool) {\n        for (uint i = 0; i < prefix.length; i++) {\n            if (s[i] != prefix[i]) {\n                return false;\n            }\n        }\n        return true;\n    }\n\n    function checkAgainstSpec(ExistenceProof memory proof, LeafOp memory spec) public pure returns (bool) {\n        if (!(\n          proof.leaf.hash == spec.hash &&\n          proof.leaf.prehash_key == spec.prehash_key &&\n          proof.leaf.prehash_value == spec.prehash_value &&\n          proof.leaf.len == spec.len &&\n          hasprefix(proof.leaf.prefix, spec.prefix)\n        )) {\n          return false;\n        }\n\n        for (uint i = 0; i < proof.path.length; i++) {\n          if (hasprefix(proof.path[i].prefix, spec.prefix)) {\n            return false; \n          }\n        }\n\n        return true;\n    }\n\n    function calculate(ExistenceProof memory proof) public pure returns (bytes memory) {\n        bytes memory res = applyLeaf(proof.leaf, proof.key, proof.value);\n        for (uint i = 0; i < proof.path.length; i++) {\n            res = applyInner(proof.path[i], res);\n        }\n        return res;\n    }\n  \n    function verifyExistence(ExistenceProof memory proof, LeafOp memory spec, bytes memory root, bytes memory key, bytes memory value) public pure returns (bool) {\n      return (\n        checkAgainstSpec(proof, spec) &&\n        equalBytes(key, proof.key) &&\n        equalBytes(value, proof.value) &&\n        equalBytes(calculate(proof), root)\n      );\n    }\n\n    function verifyNonExistence(NonExistenceProof memory proof, ProofSpec memory spec, bytes memory root, bytes memory key) public pure returns (bool) {\n      if (!proof.left.valid && !proof.right.valid) {\n        return false;\n      }\n      if (proof.left.valid) {\n        if (!verifyExistence(proof.left, spec.leafSpec, root, proof.left.key, proof.left.value)) {\n          return false;\n        }\n        if (compareBytes(key, proof.right.key) != Ordering.LT) {\n          return false;\n        }\n      }\n      if (proof.right.valid) {\n        if (!verifyExistence(proof.right, spec.leafSpec, root, proof.right.key, proof.right.value)) {\n          return false;\n        }\n        if (compareBytes(key, proof.left.key) != Ordering.GT) {\n          return false;\n        }\n      }\n\n      if (!proof.left.valid) {\n        if (!isLeftMost(spec.innerSpec, proof.right.path)) {\n          return false;\n        }\n      } else if (!proof.right.valid) {\n        if (!isRightMost(spec.innerSpec, proof.left.path)) {\n          return false;\n        }\n      } else {\n        if (!isLeftNeighbor(spec.innerSpec, proof.left.path, proof.right.path)) {\n          return false;\n        }\n      }\n\n      return true;\n    }\n\n    function orderFromPadding(InnerSpec memory spec, InnerOp memory op) public pure returns (uint) {\n      uint maxBranch = spec.childOrder.length;\n      \n      for (uint branch = 0; branch < maxBranch; branch++) {\n        (uint minPrefix, uint maxPrefix, uint suffix) = getPadding(spec, branch);\n        if (hasPadding(op, minPrefix, maxPrefix, suffix)) {\n          return branch;\n        }\n      }\n\n      revert();\n    }\n\n    function isLeftStep(InnerSpec memory spec, InnerOp memory left, InnerOp memory right) public pure returns (bool) {\n      uint leftidx = orderFromPadding(spec, left);\n      uint rightidx = orderFromPadding(spec, right);\n      return leftidx + 1 == rightidx;\n    }\n\n    function isLeftMost(InnerSpec memory spec, InnerOp[] memory path) public pure returns (bool) {\n      (uint minPrefix, uint maxPrefix, uint suffix) = getPadding(spec, 0);\n      \n      for (uint i = 0; i < path.length; i++) {\n        if (!hasPadding(path[i], minPrefix, maxPrefix, suffix)) {\n          return false;\n        }\n      }\n      return true;\n    }\n\n    function isRightMost(InnerSpec memory spec, InnerOp[] memory path) public pure returns (bool) {\n      uint last = spec.childOrder.length - 1;\n      (uint minPrefix, uint maxPrefix, uint suffix) = getPadding(spec, last);\n\n      for (uint i = 0; i < path.length; i++) {\n        if (!hasPadding(path[i], minPrefix, maxPrefix, suffix)) {\n          return false;\n        }\n      }\n      return true;\n\n    }\n\n    function isLeftNeighbor(InnerSpec memory spec, InnerOp[] memory left, InnerOp[] memory right) public pure returns (bool) {\n      uint top = 1; \n      for ( ;\n        equalBytes(left[left.length-top].prefix, right[right.length-top].prefix) && equalBytes(left[left.length-top].suffix, right[right.length-top].suffix); \n        top++) {}\n\n      InnerOp memory topLeft = left[left.length-top];\n      InnerOp memory topRight = right[right.length-top];\n\n      if (!isLeftStep(spec, topLeft, topRight)) {\n        return false;\n      }\n\n      if (!isRightMost(spec, left)) {\n        return false;\n      }\n\n      if (!isLeftMost(spec, right)) {\n        return false;\n      }\n\n      return true;\n    }\n\n    function getPosition(uint[] memory order, uint branch) public pure returns (uint) {\n      require(branch < order.length);\n      for (uint i = 0; i < order.length; i++) {\n        if (order[i] == branch) {\n          return i;\n        }\n      }\n      revert();\n    }\n\n    function hasPadding(InnerOp memory op, uint minPrefix, uint maxPrefix, uint suffix) public pure returns (bool) {\n      if (op.prefix.length < minPrefix) {\n        return false;\n      }\n      if (op.prefix.length > maxPrefix) {\n        return false;\n      } \n      return op.suffix.length == suffix;\n    }\n\n    function getPadding(InnerSpec memory spec, uint branch) public pure returns (uint, uint, uint) {\n      uint idx = getPosition(spec.childOrder, branch);\n      \n      uint prefix = idx * spec.childSize;\n      uint minPrefix = prefix + spec.minPrefixLength;\n      uint maxPrefix = prefix + spec.maxPrefixLength;\n\n      uint suffix = (spec.childOrder.length - 1 - idx) * spec.childSize;\n    \n      return (minPrefix, maxPrefix, suffix);\n    }\n\n    function equalBytes(bytes memory bz1, bytes memory bz2) public pure returns (bool) {\n      if (bz1.length != bz2.length) {\n        return false;\n      }\n      for (uint i = 0; i < bz1.length; i++) {\n        if (bz1[i] != bz2[i]) {\n          return false;\n        }\n      }\n      return true;\n    }\n   \n    function compareBytes(bytes memory bz1, bytes memory bz2) public pure returns (Ordering) {\n      for (uint i = 0; i < bz1.length && i < bz2.length; i++) {\n        if (bz1[i] < bz2[i]) {\n          return Ordering.LT;\n        }\n        if (bz1[i] > bz2[i]) {\n          return Ordering.GT;\n        }\n      }\n      if (bz1.length == bz2.length) {\n        return Ordering.EQ;\n      }\n      if (bz1.length < bz2.length) {\n        return Ordering.LT;\n      }\n      if (bz1.length > bz2.length) {\n        return Ordering.GT;\n      }\n      revert(\"should not reach this line\");\n    }\n\n    // ICS23 interface implementation\n\n    // verifyMembership is synonym for verifyExistence\n    function verifyMembership(LeafOp memory spec, bytes memory root, ExistenceProof memory proof, bytes memory key, bytes memory value) public pure returns (bool) {\n      return verifyExistence(proof, spec, root, key, value);\n    }\n\n    function verifyNonMembership(ProofSpec memory spec, bytes memory root, NonExistenceProof memory proof, bytes memory key) public pure returns (bool) {\n      return verifyNonExistence(proof, spec, root, key);\n    }\n}\n",
  "sourcePath": "/home/dallant/Code/ancon-protocol/ethereum/contracts/ancon/ics23.sol",
  "compiler": {
    "name": "solc",
    "version": "0.8.9+commit.e5eed63a.Emscripten.clang"
  },
  "schemaVersion": "3.4.3",
  "updatedAt": "2021-10-18T17:09:49.495Z",
  "devdoc": {
    "kind": "dev",
    "methods": {},
    "version": 1
  },
  "userdoc": {
    "kind": "user",
    "methods": {},
    "version": 1
  }
}