{
  "contractName": "ICS23",
  "abi": [
    {
      "inputs": [],
      "name": "getIavlSpec",
      "outputs": [
        {
          "components": [
            {
              "components": [
                {
                  "internalType": "bool",
                  "name": "valid",
                  "type": "bool"
                },
                {
                  "internalType": "enum ICS23.HashOp",
                  "name": "hash",
                  "type": "uint8"
                },
                {
                  "internalType": "enum ICS23.HashOp",
                  "name": "prehash_key",
                  "type": "uint8"
                },
                {
                  "internalType": "enum ICS23.HashOp",
                  "name": "prehash_value",
                  "type": "uint8"
                },
                {
                  "internalType": "enum ICS23.LengthOp",
                  "name": "len",
                  "type": "uint8"
                },
                {
                  "internalType": "bytes",
                  "name": "prefix",
                  "type": "bytes"
                }
              ],
              "internalType": "struct ICS23.LeafOp",
              "name": "leafSpec",
              "type": "tuple"
            },
            {
              "components": [
                {
                  "internalType": "uint256[]",
                  "name": "childOrder",
                  "type": "uint256[]"
                },
                {
                  "internalType": "uint256",
                  "name": "childSize",
                  "type": "uint256"
                },
                {
                  "internalType": "uint256",
                  "name": "minPrefixLength",
                  "type": "uint256"
                },
                {
                  "internalType": "uint256",
                  "name": "maxPrefixLength",
                  "type": "uint256"
                },
                {
                  "internalType": "bytes",
                  "name": "emptyChild",
                  "type": "bytes"
                },
                {
                  "internalType": "enum ICS23.HashOp",
                  "name": "hash",
                  "type": "uint8"
                }
              ],
              "internalType": "struct ICS23.InnerSpec",
              "name": "innerSpec",
              "type": "tuple"
            },
            {
              "internalType": "uint256",
              "name": "maxDepth",
              "type": "uint256"
            },
            {
              "internalType": "uint256",
              "name": "minDepth",
              "type": "uint256"
            }
          ],
          "internalType": "struct ICS23.ProofSpec",
          "name": "",
          "type": "tuple"
        }
      ],
      "stateMutability": "pure",
      "type": "function"
    },
    {
      "inputs": [
        {
          "components": [
            {
              "internalType": "bool",
              "name": "valid",
              "type": "bool"
            },
            {
              "internalType": "bytes",
              "name": "key",
              "type": "bytes"
            },
            {
              "internalType": "bytes",
              "name": "value",
              "type": "bytes"
            },
            {
              "components": [
                {
                  "internalType": "bool",
                  "name": "valid",
                  "type": "bool"
                },
                {
                  "internalType": "enum ICS23.HashOp",
                  "name": "hash",
                  "type": "uint8"
                },
                {
                  "internalType": "enum ICS23.HashOp",
                  "name": "prehash_key",
                  "type": "uint8"
                },
                {
                  "internalType": "enum ICS23.HashOp",
                  "name": "prehash_value",
                  "type": "uint8"
                },
                {
                  "internalType": "enum ICS23.LengthOp",
                  "name": "len",
                  "type": "uint8"
                },
                {
                  "internalType": "bytes",
                  "name": "prefix",
                  "type": "bytes"
                }
              ],
              "internalType": "struct ICS23.LeafOp",
              "name": "leaf",
              "type": "tuple"
            },
            {
              "components": [
                {
                  "internalType": "bool",
                  "name": "valid",
                  "type": "bool"
                },
                {
                  "internalType": "enum ICS23.HashOp",
                  "name": "hash",
                  "type": "uint8"
                },
                {
                  "internalType": "bytes",
                  "name": "prefix",
                  "type": "bytes"
                },
                {
                  "internalType": "bytes",
                  "name": "suffix",
                  "type": "bytes"
                }
              ],
              "internalType": "struct ICS23.InnerOp[]",
              "name": "path",
              "type": "tuple[]"
            }
          ],
          "internalType": "struct ICS23.ExistenceProof",
          "name": "proof",
          "type": "tuple"
        },
        {
          "components": [
            {
              "components": [
                {
                  "internalType": "bool",
                  "name": "valid",
                  "type": "bool"
                },
                {
                  "internalType": "enum ICS23.HashOp",
                  "name": "hash",
                  "type": "uint8"
                },
                {
                  "internalType": "enum ICS23.HashOp",
                  "name": "prehash_key",
                  "type": "uint8"
                },
                {
                  "internalType": "enum ICS23.HashOp",
                  "name": "prehash_value",
                  "type": "uint8"
                },
                {
                  "internalType": "enum ICS23.LengthOp",
                  "name": "len",
                  "type": "uint8"
                },
                {
                  "internalType": "bytes",
                  "name": "prefix",
                  "type": "bytes"
                }
              ],
              "internalType": "struct ICS23.LeafOp",
              "name": "leafSpec",
              "type": "tuple"
            },
            {
              "components": [
                {
                  "internalType": "uint256[]",
                  "name": "childOrder",
                  "type": "uint256[]"
                },
                {
                  "internalType": "uint256",
                  "name": "childSize",
                  "type": "uint256"
                },
                {
                  "internalType": "uint256",
                  "name": "minPrefixLength",
                  "type": "uint256"
                },
                {
                  "internalType": "uint256",
                  "name": "maxPrefixLength",
                  "type": "uint256"
                },
                {
                  "internalType": "bytes",
                  "name": "emptyChild",
                  "type": "bytes"
                },
                {
                  "internalType": "enum ICS23.HashOp",
                  "name": "hash",
                  "type": "uint8"
                }
              ],
              "internalType": "struct ICS23.InnerSpec",
              "name": "innerSpec",
              "type": "tuple"
            },
            {
              "internalType": "uint256",
              "name": "maxDepth",
              "type": "uint256"
            },
            {
              "internalType": "uint256",
              "name": "minDepth",
              "type": "uint256"
            }
          ],
          "internalType": "struct ICS23.ProofSpec",
          "name": "spec",
          "type": "tuple"
        },
        {
          "internalType": "bytes",
          "name": "root",
          "type": "bytes"
        },
        {
          "internalType": "bytes",
          "name": "key",
          "type": "bytes"
        },
        {
          "internalType": "bytes",
          "name": "value",
          "type": "bytes"
        }
      ],
      "name": "verify",
      "outputs": [],
      "stateMutability": "pure",
      "type": "function"
    }
  ],
  "bytecode": "0x608060405234801561001057600080fd5b50612abd806100206000396000f3fe608060405234801561001057600080fd5b50600436106100365760003560e01c806327dcd78c1461003b578063b0d264e714610059575b600080fd5b610043610075565b60405161005091906116bf565b60405180910390f35b610073600480360381019061006e9190611e6f565b610213565b005b61007d611205565b610085611205565b6000600267ffffffffffffffff8111156100a2576100a16116fa565b5b6040519080825280602002602001820160405280156100d05781602001602082028036833780820191505090505b5090506000816000815181106100e9576100e8611f76565b5b60200260200101818152505060018160018151811061010b5761010a611f76565b5b6020026020010181815250506040518060c001604052806001151581526020016001600581111561013f5761013e61131c565b5b8152602001600060058111156101585761015761131c565b5b8152602001600160058111156101715761017061131c565b5b81526020016001600881111561018a5761018961131c565b5b8152602001604051806040016040528060018152602001600081525081525082600001819052506040518060c001604052808281526020016021815260200160048152602001600c815260200160405180602001604052806000815250815260200160016005811115610200576101ff61131c565b5b8152508260200181905250819250505090565b61021d858561030f565b61022b856020015183610423565b61026a576040517f08c379a000000000000000000000000000000000000000000000000000000000815260040161026190612002565b60405180910390fd5b610278856040015182610423565b6102b7576040517f08c379a00000000000000000000000000000000000000000000000000000000081526004016102ae90612094565b60405180910390fd5b6102c96102c38661045d565b84610423565b610308576040517f08c379a00000000000000000000000000000000000000000000000000000000081526004016102ff90612126565b60405180910390fd5b5050505050565b61031d8260600151826104d1565b6000816060015114806103395750806060015182608001515110155b610378576040517f08c379a000000000000000000000000000000000000000000000000000000000815260040161036f90612192565b60405180910390fd5b6000816040015114806103945750806040015182608001515110155b6103d3576040517f08c379a00000000000000000000000000000000000000000000000000000000081526004016103ca90612192565b60405180910390fd5b60005b82608001515181101561041e5761040b836080015182815181106103fd576103fc611f76565b5b6020026020010151836106f2565b8080610416906121e1565b9150506103d6565b505050565b600081518351146104375760009050610457565b60008060208501915060208401905061045282828751610897565b925050505b92915050565b606060006104788360600151846020015185604001516108a9565b905060005b8360800151518110156104c7576104b2846080015182815181106104a4576104a3611f76565b5b6020026020010151836109ba565b915080806104bf906121e1565b91505061047d565b5080915050919050565b80600001516020015160058111156104ec576104eb61131c565b5b826020015160058111156105035761050261131c565b5b14610543576040517f08c379a000000000000000000000000000000000000000000000000000000000815260040161053a90612276565b60405180910390fd5b806000015160400151600581111561055e5761055d61131c565b5b826040015160058111156105755761057461131c565b5b146105b5576040517f08c379a00000000000000000000000000000000000000000000000000000000081526004016105ac906122e2565b60405180910390fd5b80600001516060015160058111156105d0576105cf61131c565b5b826060015160058111156105e7576105e661131c565b5b14610627576040517f08c379a000000000000000000000000000000000000000000000000000000000815260040161061e906122e2565b60405180910390fd5b80600001516080015160088111156106425761064161131c565b5b826080015160088111156106595761065861131c565b5b14610699576040517f08c379a00000000000000000000000000000000000000000000000000000000081526004016106909061234e565b60405180910390fd5b6106af8260a00151826000015160a00151610a60565b6106ee576040517f08c379a00000000000000000000000000000000000000000000000000000000081526004016106e5906123ba565b60405180910390fd5b5050565b806000015160200151600581111561070d5761070c61131c565b5b826020015160058111156107245761072361131c565b5b14610764576040517f08c379a000000000000000000000000000000000000000000000000000000000815260040161075b90612276565b60405180910390fd5b61077a8260400151826000015160a00151610a60565b156107ba576040517f08c379a00000000000000000000000000000000000000000000000000000000081526004016107b190612426565b60405180910390fd5b806020015160400151826040015151101561080a576040517f08c379a000000000000000000000000000000000000000000000000000000000815260040161080190612492565b60405180910390fd5b600081602001516020015160018360200151600001515161082b91906124b2565b61083591906124e6565b90508082602001516060015161084b9190612540565b8360400151511115610892576040517f08c379a000000000000000000000000000000000000000000000000000000000815260040161088990612492565b60405180910390fd5b505050565b60008183208285201490509392505050565b606060008351116108ef576040517f08c379a00000000000000000000000000000000000000000000000000000000081526004016108e6906125e2565b60405180910390fd5b6000825111610933576040517f08c379a000000000000000000000000000000000000000000000000000000000815260040161092a9061264e565b60405180910390fd5b60008460a0015161094d8660400151876080015187610b2f565b60405160200161095e9291906126aa565b6040516020818303038152906040526109808660600151876080015186610b2f565b6040516020016109919291906126aa565b60405160208183030381529060405290506109b0856020015182610b4d565b9150509392505050565b60606000825111610a00576040517f08c379a00000000000000000000000000000000000000000000000000000000081526004016109f79061271a565b60405180910390fd5b610a588360200151846040015184604051602001610a1f9291906126aa565b6040516020818303038152906040528560600151604051602001610a449291906126aa565b604051602081830303815290604052610b4d565b905092915050565b6000815183511015610a755760009050610b29565b60005b8251811015610b2357828181518110610a9457610a93611f76565b5b602001015160f81c60f81b7effffffffffffffffffffffffffffffffffffffffffffffffffffffffffffff1916848281518110610ad457610ad3611f76565b5b602001015160f81c60f81b7effffffffffffffffffffffffffffffffffffffffffffffffffffffffffffff191614610b10576000915050610b29565b8080610b1b906121e1565b915050610a78565b50600190505b92915050565b6060610b4483610b3f8685610de4565b610e2e565b90509392505050565b606060016005811115610b6357610b6261131c565b5b836005811115610b7657610b7561131c565b5b1415610bdb57610bd4600283604051610b8f919061273a565b602060405180830381855afa158015610bac573d6000803e3d6000fd5b5050506040513d601f19601f82011682018060405250810190610bcf9190612787565b610ff6565b9050610dde565b60026005811115610bef57610bee61131c565b5b836005811115610c0257610c0161131c565b5b1415610c43576040517f08c379a0000000000000000000000000000000000000000000000000000000008152600401610c3a90612800565b60405180910390fd5b60046005811115610c5757610c5661131c565b5b836005811115610c6a57610c6961131c565b5b1415610cc557610cbe600383604051610c83919061273a565b602060405180830381855afa158015610ca0573d6000803e3d6000fd5b5050506040515160601b6bffffffffffffffffffffffff1916610ff6565b9050610dde565b600580811115610cd857610cd761131c565b5b836005811115610ceb57610cea61131c565b5b1415610da3576000600283604051610d03919061273a565b602060405180830381855afa158015610d20573d6000803e3d6000fd5b5050506040513d601f19601f82011682018060405250810190610d439190612787565b9050610d9b6003610d5383610ff6565b604051610d60919061273a565b602060405180830381855afa158015610d7d573d6000803e3d6000fd5b5050506040515160601b6bffffffffffffffffffffffff1916610ff6565b915050610dde565b6040517f08c379a0000000000000000000000000000000000000000000000000000000008152600401610dd59061286c565b60405180910390fd5b92915050565b606060006005811115610dfa57610df961131c565b5b836005811115610e0d57610e0c61131c565b5b1415610e1b57819050610e28565b610e258383610b4d565b90505b92915050565b606060006008811115610e4457610e4361131c565b5b836008811115610e5757610e5661131c565b5b1415610e6557819050610ff0565b60016008811115610e7957610e7861131c565b5b836008811115610e8c57610e8b61131c565b5b1415610ec457610e9c8251611053565b82604051602001610eae9291906126aa565b6040516020818303038152906040529050610ff0565b60076008811115610ed857610ed761131c565b5b836008811115610eeb57610eea61131c565b5b1415610f3d576020825114610f35576040517f08c379a0000000000000000000000000000000000000000000000000000000008152600401610f2c906128d8565b60405180910390fd5b819050610ff0565b600880811115610f5057610f4f61131c565b5b836008811115610f6357610f6261131c565b5b1415610fb5576040825114610fad576040517f08c379a0000000000000000000000000000000000000000000000000000000008152600401610fa490612944565b60405180910390fd5b819050610ff0565b6040517f08c379a0000000000000000000000000000000000000000000000000000000008152600401610fe7906129b0565b60405180910390fd5b92915050565b6060602067ffffffffffffffff811115611013576110126116fa565b5b6040519080825280601f01601f1916602001820160405280156110455781602001600182028036833780820191505090505b509050816020820152919050565b606060008290506000600190505b607f8267ffffffffffffffff1611156110995760078267ffffffffffffffff16901c915060018161109291906129e4565b9050611061565b60008167ffffffffffffffff1667ffffffffffffffff8111156110bf576110be6116fa565b5b6040519080825280601f01601f1916602001820160405280156110f15781602001600182028036833780820191505090505b50905084925060005b8267ffffffffffffffff168167ffffffffffffffff16101561119057607f841660801760f81b828267ffffffffffffffff168151811061113d5761113c611f76565b5b60200101907effffffffffffffffffffffffffffffffffffffffffffffffffffffffffffff1916908160001a90535060078467ffffffffffffffff16901c9350808061118890612a22565b9150506110fa565b50607f60f81b816001846111a49190612a53565b67ffffffffffffffff16815181106111bf576111be611f76565b5b6020010181815160f81c60f81b169150907effffffffffffffffffffffffffffffffffffffffffffffffffffffffffffff1916908160001a905350809350505050919050565b6040518060800160405280611218611239565b81526020016112256112b9565b815260200160008152602001600081525090565b6040518060c00160405280600015158152602001600060058111156112615761126061131c565b5b81526020016000600581111561127a5761127961131c565b5b8152602001600060058111156112935761129261131c565b5b8152602001600060088111156112ac576112ab61131c565b5b8152602001606081525090565b6040518060c001604052806060815260200160008152602001600081526020016000815260200160608152602001600060058111156112fb576112fa61131c565b5b81525090565b60008115159050919050565b61131681611301565b82525050565b7f4e487b7100000000000000000000000000000000000000000000000000000000600052602160045260246000fd5b6006811061135c5761135b61131c565b5b50565b600081905061136d8261134b565b919050565b600061137d8261135f565b9050919050565b61138d81611372565b82525050565b600981106113a4576113a361131c565b5b50565b60008190506113b582611393565b919050565b60006113c5826113a7565b9050919050565b6113d5816113ba565b82525050565b600081519050919050565b600082825260208201905092915050565b60005b838110156114155780820151818401526020810190506113fa565b83811115611424576000848401525b50505050565b6000601f19601f8301169050919050565b6000611446826113db565b61145081856113e6565b93506114608185602086016113f7565b6114698161142a565b840191505092915050565b600060c08301600083015161148c600086018261130d565b50602083015161149f6020860182611384565b5060408301516114b26040860182611384565b5060608301516114c56060860182611384565b5060808301516114d860808601826113cc565b5060a083015184820360a08601526114f0828261143b565b9150508091505092915050565b600081519050919050565b600082825260208201905092915050565b6000819050602082019050919050565b6000819050919050565b61153c81611529565b82525050565b600061154e8383611533565b60208301905092915050565b6000602082019050919050565b6000611572826114fd565b61157c8185611508565b935061158783611519565b8060005b838110156115b857815161159f8882611542565b97506115aa8361155a565b92505060018101905061158b565b5085935050505092915050565b600060c08301600083015184820360008601526115e28282611567565b91505060208301516115f76020860182611533565b50604083015161160a6040860182611533565b50606083015161161d6060860182611533565b5060808301518482036080860152611635828261143b565b91505060a083015161164a60a0860182611384565b508091505092915050565b600060808301600083015184820360008601526116728282611474565b9150506020830151848203602086015261168c82826115c5565b91505060408301516116a16040860182611533565b5060608301516116b46060860182611533565b508091505092915050565b600060208201905081810360008301526116d98184611655565b905092915050565b6000604051905090565b600080fd5b600080fd5b600080fd5b7f4e487b7100000000000000000000000000000000000000000000000000000000600052604160045260246000fd5b6117328261142a565b810181811067ffffffffffffffff82111715611751576117506116fa565b5b80604052505050565b60006117646116e1565b90506117708282611729565b919050565b600080fd5b61178381611301565b811461178e57600080fd5b50565b6000813590506117a08161177a565b92915050565b600080fd5b600080fd5b600067ffffffffffffffff8211156117cb576117ca6116fa565b5b6117d48261142a565b9050602081019050919050565b82818337600083830152505050565b60006118036117fe846117b0565b61175a565b90508281526020810184848401111561181f5761181e6117ab565b5b61182a8482856117e1565b509392505050565b600082601f830112611847576118466117a6565b5b81356118578482602086016117f0565b91505092915050565b6006811061186d57600080fd5b50565b60008135905061187f81611860565b92915050565b6009811061189257600080fd5b50565b6000813590506118a481611885565b92915050565b600060c082840312156118c0576118bf6116f5565b5b6118ca60c061175a565b905060006118da84828501611791565b60008301525060206118ee84828501611870565b602083015250604061190284828501611870565b604083015250606061191684828501611870565b606083015250608061192a84828501611895565b60808301525060a082013567ffffffffffffffff81111561194e5761194d611775565b5b61195a84828501611832565b60a08301525092915050565b600067ffffffffffffffff821115611981576119806116fa565b5b602082029050602081019050919050565b600080fd5b6000608082840312156119ad576119ac6116f5565b5b6119b7608061175a565b905060006119c784828501611791565b60008301525060206119db84828501611870565b602083015250604082013567ffffffffffffffff8111156119ff576119fe611775565b5b611a0b84828501611832565b604083015250606082013567ffffffffffffffff811115611a2f57611a2e611775565b5b611a3b84828501611832565b60608301525092915050565b6000611a5a611a5584611966565b61175a565b90508083825260208201905060208402830185811115611a7d57611a7c611992565b5b835b81811015611ac457803567ffffffffffffffff811115611aa257611aa16117a6565b5b808601611aaf8982611997565b85526020850194505050602081019050611a7f565b5050509392505050565b600082601f830112611ae357611ae26117a6565b5b8135611af3848260208601611a47565b91505092915050565b600060a08284031215611b1257611b116116f5565b5b611b1c60a061175a565b90506000611b2c84828501611791565b600083015250602082013567ffffffffffffffff811115611b5057611b4f611775565b5b611b5c84828501611832565b602083015250604082013567ffffffffffffffff811115611b8057611b7f611775565b5b611b8c84828501611832565b604083015250606082013567ffffffffffffffff811115611bb057611baf611775565b5b611bbc848285016118aa565b606083015250608082013567ffffffffffffffff811115611be057611bdf611775565b5b611bec84828501611ace565b60808301525092915050565b600067ffffffffffffffff821115611c1357611c126116fa565b5b602082029050602081019050919050565b611c2d81611529565b8114611c3857600080fd5b50565b600081359050611c4a81611c24565b92915050565b6000611c63611c5e84611bf8565b61175a565b90508083825260208201905060208402830185811115611c8657611c85611992565b5b835b81811015611caf5780611c9b8882611c3b565b845260208401935050602081019050611c88565b5050509392505050565b600082601f830112611cce57611ccd6117a6565b5b8135611cde848260208601611c50565b91505092915050565b600060c08284031215611cfd57611cfc6116f5565b5b611d0760c061175a565b9050600082013567ffffffffffffffff811115611d2757611d26611775565b5b611d3384828501611cb9565b6000830152506020611d4784828501611c3b565b6020830152506040611d5b84828501611c3b565b6040830152506060611d6f84828501611c3b565b606083015250608082013567ffffffffffffffff811115611d9357611d92611775565b5b611d9f84828501611832565b60808301525060a0611db384828501611870565b60a08301525092915050565b600060808284031215611dd557611dd46116f5565b5b611ddf608061175a565b9050600082013567ffffffffffffffff811115611dff57611dfe611775565b5b611e0b848285016118aa565b600083015250602082013567ffffffffffffffff811115611e2f57611e2e611775565b5b611e3b84828501611ce7565b6020830152506040611e4f84828501611c3b565b6040830152506060611e6384828501611c3b565b60608301525092915050565b600080600080600060a08688031215611e8b57611e8a6116eb565b5b600086013567ffffffffffffffff811115611ea957611ea86116f0565b5b611eb588828901611afc565b955050602086013567ffffffffffffffff811115611ed657611ed56116f0565b5b611ee288828901611dbf565b945050604086013567ffffffffffffffff811115611f0357611f026116f0565b5b611f0f88828901611832565b935050606086013567ffffffffffffffff811115611f3057611f2f6116f0565b5b611f3c88828901611832565b925050608086013567ffffffffffffffff811115611f5d57611f5c6116f0565b5b611f6988828901611832565b9150509295509295909350565b7f4e487b7100000000000000000000000000000000000000000000000000000000600052603260045260246000fd5b600082825260208201905092915050565b7f50726f7669646564206b657920646f65736e2774206d617463682070726f6f66600082015250565b6000611fec602083611fa5565b9150611ff782611fb6565b602082019050919050565b6000602082019050818103600083015261201b81611fdf565b9050919050565b7f50726f76696465642076616c756520646f65736e2774206d617463682070726f60008201527f6f66000000000000000000000000000000000000000000000000000000000000602082015250565b600061207e602283611fa5565b915061208982612022565b604082019050919050565b600060208201905081810360008301526120ad81612071565b9050919050565b7f43616c63756c636174656420726f6f7420646f65736e2774206d61746368207060008201527f726f766964656420726f6f740000000000000000000000000000000000000000602082015250565b6000612110602c83611fa5565b915061211b826120b4565b604082019050919050565b6000602082019050818103600083015261213f81612103565b9050919050565b7f496e6e65724f707320646570746820746f6f2073686f72740000000000000000600082015250565b600061217c601883611fa5565b915061218782612146565b602082019050919050565b600060208201905081810360008301526121ab8161216f565b9050919050565b7f4e487b7100000000000000000000000000000000000000000000000000000000600052601160045260246000fd5b60006121ec82611529565b91507fffffffffffffffffffffffffffffffffffffffffffffffffffffffffffffffff82141561221f5761221e6121b2565b5b600182019050919050565b7f556e657870656374656420486173684f70000000000000000000000000000000600082015250565b6000612260601183611fa5565b915061226b8261222a565b602082019050919050565b6000602082019050818103600083015261228f81612253565b9050919050565b7f556e657870656374656420507265686173684b65790000000000000000000000600082015250565b60006122cc601583611fa5565b91506122d782612296565b602082019050919050565b600060208201905081810360008301526122fb816122bf565b9050919050565b7f556e657870656374656c65616653706563204c656e6774684f70000000000000600082015250565b6000612338601a83611fa5565b915061234382612302565b602082019050919050565b600060208201905081810360008301526123678161232b565b9050919050565b7f4c6561664f704c69623a2077726f6e6720707265666978000000000000000000600082015250565b60006123a4601783611fa5565b91506123af8261236e565b602082019050919050565b600060208201905081810360008301526123d381612397565b9050919050565b7f496e6e65724f704c69623a2077726f6e67207072656669780000000000000000600082015250565b6000612410601883611fa5565b915061241b826123da565b602082019050919050565b6000602082019050818103600083015261243f81612403565b9050919050565b7f496e6e65724f702070726566697820746f6f2073686f72740000000000000000600082015250565b600061247c601883611fa5565b915061248782612446565b602082019050919050565b600060208201905081810360008301526124ab8161246f565b9050919050565b60006124bd82611529565b91506124c883611529565b9250828210156124db576124da6121b2565b5b828203905092915050565b60006124f182611529565b91506124fc83611529565b9250817fffffffffffffffffffffffffffffffffffffffffffffffffffffffffffffffff0483118215151615612535576125346121b2565b5b828202905092915050565b600061254b82611529565b915061255683611529565b9250827fffffffffffffffffffffffffffffffffffffffffffffffffffffffffffffffff0382111561258b5761258a6121b2565b5b828201905092915050565b7f4c656166206f70206e65656473206b6579000000000000000000000000000000600082015250565b60006125cc601183611fa5565b91506125d782612596565b602082019050919050565b600060208201905081810360008301526125fb816125bf565b9050919050565b7f4c656166206f70206e656564732076616c756500000000000000000000000000600082015250565b6000612638601383611fa5565b915061264382612602565b602082019050919050565b600060208201905081810360008301526126678161262b565b9050919050565b600081905092915050565b6000612684826113db565b61268e818561266e565b935061269e8185602086016113f7565b80840191505092915050565b60006126b68285612679565b91506126c28284612679565b91508190509392505050565b7f496e6e6572206f70206e65656473206368696c642076616c7565000000000000600082015250565b6000612704601a83611fa5565b915061270f826126ce565b602082019050919050565b60006020820190508181036000830152612733816126f7565b9050919050565b60006127468284612679565b915081905092915050565b6000819050919050565b61276481612751565b811461276f57600080fd5b50565b6000815190506127818161275b565b92915050565b60006020828403121561279d5761279c6116eb565b5b60006127ab84828501612772565b91505092915050565b7f534841353132206e6f7420696d706c656d656e74656400000000000000000000600082015250565b60006127ea601683611fa5565b91506127f5826127b4565b602082019050919050565b60006020820190508181036000830152612819816127dd565b9050919050565b7f556e737570706f7274656420686173686f700000000000000000000000000000600082015250565b6000612856601283611fa5565b915061286182612820565b602082019050919050565b6000602082019050818103600083015261288581612849565b9050919050565b7f4578706563746564203332206279746573000000000000000000000000000000600082015250565b60006128c2601183611fa5565b91506128cd8261288c565b602082019050919050565b600060208201905081810360008301526128f1816128b5565b9050919050565b7f4578706563746564203634206279746573000000000000000000000000000000600082015250565b600061292e601183611fa5565b9150612939826128f8565b602082019050919050565b6000602082019050818103600083015261295d81612921565b9050919050565b7f556e737570706f72746564206c656e6774686f70000000000000000000000000600082015250565b600061299a601483611fa5565b91506129a582612964565b602082019050919050565b600060208201905081810360008301526129c98161298d565b9050919050565b600067ffffffffffffffff82169050919050565b60006129ef826129d0565b91506129fa836129d0565b92508267ffffffffffffffff03821115612a1757612a166121b2565b5b828201905092915050565b6000612a2d826129d0565b915067ffffffffffffffff821415612a4857612a476121b2565b5b600182019050919050565b6000612a5e826129d0565b9150612a69836129d0565b925082821015612a7c57612a7b6121b2565b5b82820390509291505056fea26469706673582212206c2ed8d046e187f77a69b2b877751c5dbaa9f52ec635f908d354f9bb7347476864736f6c63430008090033",
  "immutableReferences": {},
  "source": "pragma solidity >=0.8.0;\nimport \"./Bytes.sol\";\n\ncontract ICS23 {\n    using Bytes for bytes;\n    // Data structures and helper functions\n\n    enum HashOp {\n        NO_HASH,\n        SHA256,\n        SHA512,\n        KECCAK,\n        RIPEMD160,\n        BITCOIN\n    }\n    enum LengthOp {\n        NO_PREFIX,\n        VAR_PROTO,\n        VAR_RLP,\n        FIXED32_BIG,\n        FIXED32_LITTLE,\n        FIXED64_BIG,\n        FIXED64_LITTLE,\n        REQUIRE_32_BYTES,\n        REQUIRE_64_BYTES\n    }\n\n    struct ExistenceProof {\n        bool valid;\n        bytes key;\n        bytes value;\n        LeafOp leaf;\n        InnerOp[] path;\n    }\n\n    struct NonExistenceProof {\n        bool valid;\n        bytes key;\n        ExistenceProof left;\n        ExistenceProof right;\n    }\n\n    struct LeafOp {\n        bool valid;\n        HashOp hash;\n        HashOp prehash_key;\n        HashOp prehash_value;\n        LengthOp len;\n        bytes prefix;\n    }\n\n    struct InnerOp {\n        bool valid;\n        HashOp hash;\n        bytes prefix;\n        bytes suffix;\n    }\n\n    struct ProofSpec {\n        LeafOp leafSpec;\n        InnerSpec innerSpec;\n        uint256 maxDepth;\n        uint256 minDepth;\n    }\n\n    struct InnerSpec {\n        uint256[] childOrder;\n        uint256 childSize;\n        uint256 minPrefixLength;\n        uint256 maxPrefixLength;\n        bytes emptyChild;\n        HashOp hash;\n    }\n\n    function getIavlSpec() public pure returns (ProofSpec memory) {\n        ProofSpec memory spec;\n\n        uint256[] memory childOrder = new uint256[](2);\n        childOrder[0] = 0;\n        childOrder[1] = 1;\n\n        spec.leafSpec = LeafOp(\n            true,\n            HashOp.SHA256,\n            HashOp.NO_HASH,\n            HashOp.SHA256,\n            LengthOp.VAR_PROTO,\n            hex\"00\"\n        );\n\n        spec.innerSpec = InnerSpec(\n            childOrder,\n            33,\n            4,\n            12,\n            \"\",\n            HashOp.SHA256\n        );\n        return spec;\n    }\n\n    enum Ordering {\n        LT,\n        EQ,\n        GT\n    }\n\n    function checkAgainstSpecLeafOp(LeafOp memory op, ProofSpec memory spec)\n        internal\n        pure\n    {\n        require(op.hash == spec.leafSpec.hash, \"Unexpected HashOp\");\n        require(\n            op.prehash_key == spec.leafSpec.prehash_key,\n            \"Unexpected PrehashKey\"\n        );\n        require(\n            op.prehash_value == spec.leafSpec.prehash_value,\n            \"Unexpected PrehashKey\"\n        );\n        require(op.len == spec.leafSpec.len, \"UnexpecteleafSpec LengthOp\");\n        require(\n            Bytes.hasPrefix(op.prefix, spec.leafSpec.prefix),\n            \"LeafOpLib: wrong prefix\"\n        );\n    }\n\n    function applyValueLeafOp(\n        LeafOp memory op,\n        bytes memory key,\n        bytes memory value\n    ) internal pure returns (bytes memory) {\n        require(key.length > 0, \"Leaf op needs key\");\n        require(value.length > 0, \"Leaf op needs value\");\n        bytes memory data = abi.encodePacked(\n            abi.encodePacked(\n                op.prefix,\n                prepareLeafData(op.prehash_key, op.len, key)\n            ),\n            prepareLeafData(op.prehash_value, op.len, value)\n        );\n        return doHash(op.hash, data);\n    }\n\n    function prepareLeafData(\n        HashOp hashOp,\n        LengthOp lengthOp,\n        bytes memory data\n    ) private pure returns (bytes memory) {\n        return doLength(lengthOp, doHashOrNoop(hashOp, data));\n    }\n\n    function doHashOrNoop(HashOp hashOp, bytes memory data)\n        private\n        pure\n        returns (bytes memory)\n    {\n        if (hashOp == HashOp.NO_HASH) {\n            return data;\n        }\n        return doHash(hashOp, data);\n    }\n\n    function checkAgainstSpecInnerOp(InnerOp memory op, ProofSpec memory spec)\n        internal\n        pure\n    {\n        require(op.hash == spec.leafSpec.hash, \"Unexpected HashOp\");\n        require(\n            !Bytes.hasPrefix(op.prefix, spec.leafSpec.prefix),\n            \"InnerOpLib: wrong prefix\"\n        );\n        require(\n            op.prefix.length >= uint256(spec.innerSpec.minPrefixLength),\n            \"InnerOp prefix too short\"\n        );\n\n        uint256 maxLeftChildLen = (spec.innerSpec.childOrder.length - 1) *\n            uint256(spec.innerSpec.childSize);\n        require(\n            op.prefix.length <=\n                uint256(spec.innerSpec.maxPrefixLength) + maxLeftChildLen,\n            \"InnerOp prefix too short\"\n        );\n    }\n\n    function applyValueInnerOp(InnerOp memory op, bytes memory child)\n        internal\n        pure\n        returns (bytes memory)\n    {\n        require(child.length > 0, \"Inner op needs child value\");\n        return\n            doHash(\n                op.hash,\n                abi.encodePacked(abi.encodePacked(op.prefix, child), op.suffix)\n            );\n    }\n\n    function doHash(HashOp hashOp, bytes memory data)\n        internal\n        pure\n        returns (bytes memory)\n    {\n        if (hashOp == HashOp.SHA256) {\n            return Bytes.fromBytes32(sha256(data));\n        }\n\n        if (hashOp == HashOp.SHA512) {\n            //TODO: implement sha512\n            revert(\"SHA512 not implemented\");\n        }\n\n        if (hashOp == HashOp.RIPEMD160) {\n            return Bytes.fromBytes32(ripemd160(data));\n        }\n\n        if (hashOp == HashOp.BITCOIN) {\n            bytes32 hash = sha256(data);\n            return Bytes.fromBytes32(ripemd160(Bytes.fromBytes32(hash)));\n        }\n        revert(\"Unsupported hashop\");\n    }\n\n    function doLength(LengthOp lengthOp, bytes memory data)\n        internal\n        pure\n        returns (bytes memory)\n    {\n        if (lengthOp == LengthOp.NO_PREFIX) {\n            return data;\n        }\n        if (lengthOp == LengthOp.VAR_PROTO) {\n            return abi.encodePacked(encodeVarintProto(uint64(data.length)), data);\n        }\n        if (lengthOp == LengthOp.REQUIRE_32_BYTES) {\n            require(data.length == 32, \"Expected 32 bytes\");\n            return data;\n        }\n        if (lengthOp == LengthOp.REQUIRE_64_BYTES) {\n            require(data.length == 64, \"Expected 64 bytes\");\n            return data;\n        }\n        revert(\"Unsupported lengthop\");\n    }\n\n    function encodeVarintProto(uint64 n) internal pure returns (bytes memory) {\n        // Count the number of groups of 7 bits\n        // We need this pre-processing step since Solidity doesn't allow dynamic memory resizing\n        uint64 tmp = n;\n        uint64 num_bytes = 1;\n        while (tmp > 0x7F) {\n            tmp = tmp >> 7;\n            num_bytes += 1;\n        }\n\n        bytes memory buf = new bytes(num_bytes);\n\n        tmp = n;\n        for (uint64 i = 0; i < num_bytes; i++) {\n            // Set the first bit in the byte for each group of 7 bits\n            buf[i] = bytes1(0x80 | uint8(tmp & 0x7F));\n            tmp = tmp >> 7;\n        }\n        // Unset the first bit of the last byte\n        buf[num_bytes - 1] &= 0x7F;\n\n        return buf;\n    }\n\n    function verify(\n        ExistenceProof memory proof,\n        ProofSpec memory spec,\n        bytes memory root,\n        bytes memory key,\n        bytes memory value\n    ) public pure {\n        checkAgainstSpec(proof, spec);\n        require(\n            Bytes.equals(proof.key, key),\n            \"Provided key doesn't match proof\"\n        );\n        require(\n            Bytes.equals(proof.value, value),\n            \"Provided value doesn't match proof\"\n        );\n        require(\n            Bytes.equals(calculate(proof), root),\n            \"Calculcated root doesn't match provided root\"\n        );\n    }\n\n    function checkAgainstSpec(ExistenceProof memory proof, ProofSpec memory spec)\n        private\n        pure\n    {\n        checkAgainstSpecLeafOp(proof.leaf, spec);\n        require(\n            spec.minDepth == 0 || proof.path.length >= uint256(spec.minDepth),\n            \"InnerOps depth too short\"\n        );\n        require(\n            spec.maxDepth == 0 || proof.path.length >= uint256(spec.maxDepth),\n            \"InnerOps depth too short\"\n        );\n\n        for (uint256 i = 0; i < proof.path.length; i++) {\n            checkAgainstSpecInnerOp(proof.path[i], spec);\n        }\n    }\n\n    // Calculate determines the root hash that matches the given proof.\n    // You must validate the result is what you have in a header.\n    // Returns error if the calculations cannot be performed.\n    function calculate(ExistenceProof memory p)\n        internal\n        pure\n        returns (bytes memory)\n    {\n        // leaf step takes the key and value as input\n        bytes memory res = applyValueLeafOp(p.leaf, p.key, p.value);\n\n        // the rest just take the output of the last step (reducing it)\n        for (uint256 i = 0; i < p.path.length; i++) {\n            res = applyValueInnerOp(p.path[i], res);\n        }\n        return res;\n    }\n}\n",
  "sourcePath": "/home/rogelio/Code/ancon-protocol/ethereum/contracts/ancon/ics23.sol",
  "compiler": {
    "name": "solc",
    "version": "0.8.9+commit.e5eed63a.Emscripten.clang"
  },
  "schemaVersion": "3.4.0",
  "updatedAt": "2021-10-22T23:51:35.170Z",
  "networkType": "ethereum",
  "devdoc": {
    "kind": "dev",
    "methods": {},
    "version": 1
  },
  "userdoc": {
    "kind": "user",
    "methods": {},
    "version": 1
  }
}