{
  "contractName": "ICS23",
  "abi": [
    {
      "inputs": [],
      "name": "getIavlSpec",
      "outputs": [
        {
          "components": [
            {
              "internalType": "bool",
              "name": "valid",
              "type": "bool"
            },
            {
              "internalType": "enum ICS23.HashOp",
              "name": "hash",
              "type": "uint8"
            },
            {
              "internalType": "enum ICS23.HashOp",
              "name": "prehash_key",
              "type": "uint8"
            },
            {
              "internalType": "enum ICS23.HashOp",
              "name": "prehash_value",
              "type": "uint8"
            },
            {
              "internalType": "enum ICS23.LengthOp",
              "name": "len",
              "type": "uint8"
            },
            {
              "internalType": "bytes",
              "name": "prefix",
              "type": "bytes"
            }
          ],
          "internalType": "struct ICS23.LeafOp",
          "name": "",
          "type": "tuple"
        }
      ],
      "stateMutability": "pure",
      "type": "function"
    },
    {
      "inputs": [
        {
          "internalType": "enum ICS23.HashOp",
          "name": "op",
          "type": "uint8"
        },
        {
          "internalType": "bytes",
          "name": "preimage",
          "type": "bytes"
        }
      ],
      "name": "doHashOrNoop",
      "outputs": [
        {
          "internalType": "bytes",
          "name": "",
          "type": "bytes"
        }
      ],
      "stateMutability": "pure",
      "type": "function"
    },
    {
      "inputs": [
        {
          "internalType": "enum ICS23.HashOp",
          "name": "op",
          "type": "uint8"
        },
        {
          "internalType": "bytes",
          "name": "preimage",
          "type": "bytes"
        }
      ],
      "name": "doHash",
      "outputs": [
        {
          "internalType": "bytes",
          "name": "",
          "type": "bytes"
        }
      ],
      "stateMutability": "pure",
      "type": "function"
    },
    {
      "inputs": [
        {
          "internalType": "enum ICS23.LengthOp",
          "name": "op",
          "type": "uint8"
        },
        {
          "internalType": "bytes",
          "name": "data",
          "type": "bytes"
        }
      ],
      "name": "doLength",
      "outputs": [
        {
          "internalType": "bytes",
          "name": "",
          "type": "bytes"
        }
      ],
      "stateMutability": "pure",
      "type": "function"
    },
    {
      "inputs": [
        {
          "internalType": "enum ICS23.HashOp",
          "name": "hashop",
          "type": "uint8"
        },
        {
          "internalType": "enum ICS23.LengthOp",
          "name": "lengthop",
          "type": "uint8"
        },
        {
          "internalType": "bytes",
          "name": "data",
          "type": "bytes"
        }
      ],
      "name": "prepareLeafData",
      "outputs": [
        {
          "internalType": "bytes",
          "name": "",
          "type": "bytes"
        }
      ],
      "stateMutability": "pure",
      "type": "function"
    },
    {
      "inputs": [
        {
          "components": [
            {
              "internalType": "bool",
              "name": "valid",
              "type": "bool"
            },
            {
              "internalType": "enum ICS23.HashOp",
              "name": "hash",
              "type": "uint8"
            },
            {
              "internalType": "enum ICS23.HashOp",
              "name": "prehash_key",
              "type": "uint8"
            },
            {
              "internalType": "enum ICS23.HashOp",
              "name": "prehash_value",
              "type": "uint8"
            },
            {
              "internalType": "enum ICS23.LengthOp",
              "name": "len",
              "type": "uint8"
            },
            {
              "internalType": "bytes",
              "name": "prefix",
              "type": "bytes"
            }
          ],
          "internalType": "struct ICS23.LeafOp",
          "name": "op",
          "type": "tuple"
        },
        {
          "internalType": "bytes",
          "name": "key",
          "type": "bytes"
        },
        {
          "internalType": "bytes",
          "name": "value",
          "type": "bytes"
        }
      ],
      "name": "applyLeaf",
      "outputs": [
        {
          "internalType": "bytes",
          "name": "",
          "type": "bytes"
        }
      ],
      "stateMutability": "pure",
      "type": "function"
    },
    {
      "inputs": [
        {
          "components": [
            {
              "internalType": "bool",
              "name": "valid",
              "type": "bool"
            },
            {
              "internalType": "enum ICS23.HashOp",
              "name": "hash",
              "type": "uint8"
            },
            {
              "internalType": "bytes",
              "name": "prefix",
              "type": "bytes"
            },
            {
              "internalType": "bytes",
              "name": "suffix",
              "type": "bytes"
            }
          ],
          "internalType": "struct ICS23.InnerOp",
          "name": "op",
          "type": "tuple"
        },
        {
          "internalType": "bytes",
          "name": "child",
          "type": "bytes"
        }
      ],
      "name": "applyInner",
      "outputs": [
        {
          "internalType": "bytes",
          "name": "",
          "type": "bytes"
        }
      ],
      "stateMutability": "pure",
      "type": "function"
    },
    {
      "inputs": [
        {
          "internalType": "bytes",
          "name": "s",
          "type": "bytes"
        },
        {
          "internalType": "bytes",
          "name": "prefix",
          "type": "bytes"
        }
      ],
      "name": "hasprefix",
      "outputs": [
        {
          "internalType": "bool",
          "name": "",
          "type": "bool"
        }
      ],
      "stateMutability": "pure",
      "type": "function"
    },
    {
      "inputs": [
        {
          "components": [
            {
              "internalType": "bool",
              "name": "valid",
              "type": "bool"
            },
            {
              "internalType": "bytes",
              "name": "key",
              "type": "bytes"
            },
            {
              "internalType": "bytes",
              "name": "value",
              "type": "bytes"
            },
            {
              "components": [
                {
                  "internalType": "bool",
                  "name": "valid",
                  "type": "bool"
                },
                {
                  "internalType": "enum ICS23.HashOp",
                  "name": "hash",
                  "type": "uint8"
                },
                {
                  "internalType": "enum ICS23.HashOp",
                  "name": "prehash_key",
                  "type": "uint8"
                },
                {
                  "internalType": "enum ICS23.HashOp",
                  "name": "prehash_value",
                  "type": "uint8"
                },
                {
                  "internalType": "enum ICS23.LengthOp",
                  "name": "len",
                  "type": "uint8"
                },
                {
                  "internalType": "bytes",
                  "name": "prefix",
                  "type": "bytes"
                }
              ],
              "internalType": "struct ICS23.LeafOp",
              "name": "leaf",
              "type": "tuple"
            },
            {
              "components": [
                {
                  "internalType": "bool",
                  "name": "valid",
                  "type": "bool"
                },
                {
                  "internalType": "enum ICS23.HashOp",
                  "name": "hash",
                  "type": "uint8"
                },
                {
                  "internalType": "bytes",
                  "name": "prefix",
                  "type": "bytes"
                },
                {
                  "internalType": "bytes",
                  "name": "suffix",
                  "type": "bytes"
                }
              ],
              "internalType": "struct ICS23.InnerOp[]",
              "name": "path",
              "type": "tuple[]"
            }
          ],
          "internalType": "struct ICS23.ExistenceProof",
          "name": "proof",
          "type": "tuple"
        },
        {
          "components": [
            {
              "internalType": "bool",
              "name": "valid",
              "type": "bool"
            },
            {
              "internalType": "enum ICS23.HashOp",
              "name": "hash",
              "type": "uint8"
            },
            {
              "internalType": "enum ICS23.HashOp",
              "name": "prehash_key",
              "type": "uint8"
            },
            {
              "internalType": "enum ICS23.HashOp",
              "name": "prehash_value",
              "type": "uint8"
            },
            {
              "internalType": "enum ICS23.LengthOp",
              "name": "len",
              "type": "uint8"
            },
            {
              "internalType": "bytes",
              "name": "prefix",
              "type": "bytes"
            }
          ],
          "internalType": "struct ICS23.LeafOp",
          "name": "spec",
          "type": "tuple"
        }
      ],
      "name": "checkAgainstSpec",
      "outputs": [
        {
          "internalType": "bool",
          "name": "",
          "type": "bool"
        }
      ],
      "stateMutability": "pure",
      "type": "function"
    },
    {
      "inputs": [
        {
          "components": [
            {
              "internalType": "bool",
              "name": "valid",
              "type": "bool"
            },
            {
              "internalType": "bytes",
              "name": "key",
              "type": "bytes"
            },
            {
              "internalType": "bytes",
              "name": "value",
              "type": "bytes"
            },
            {
              "components": [
                {
                  "internalType": "bool",
                  "name": "valid",
                  "type": "bool"
                },
                {
                  "internalType": "enum ICS23.HashOp",
                  "name": "hash",
                  "type": "uint8"
                },
                {
                  "internalType": "enum ICS23.HashOp",
                  "name": "prehash_key",
                  "type": "uint8"
                },
                {
                  "internalType": "enum ICS23.HashOp",
                  "name": "prehash_value",
                  "type": "uint8"
                },
                {
                  "internalType": "enum ICS23.LengthOp",
                  "name": "len",
                  "type": "uint8"
                },
                {
                  "internalType": "bytes",
                  "name": "prefix",
                  "type": "bytes"
                }
              ],
              "internalType": "struct ICS23.LeafOp",
              "name": "leaf",
              "type": "tuple"
            },
            {
              "components": [
                {
                  "internalType": "bool",
                  "name": "valid",
                  "type": "bool"
                },
                {
                  "internalType": "enum ICS23.HashOp",
                  "name": "hash",
                  "type": "uint8"
                },
                {
                  "internalType": "bytes",
                  "name": "prefix",
                  "type": "bytes"
                },
                {
                  "internalType": "bytes",
                  "name": "suffix",
                  "type": "bytes"
                }
              ],
              "internalType": "struct ICS23.InnerOp[]",
              "name": "path",
              "type": "tuple[]"
            }
          ],
          "internalType": "struct ICS23.ExistenceProof",
          "name": "proof",
          "type": "tuple"
        }
      ],
      "name": "calculate",
      "outputs": [
        {
          "internalType": "bytes",
          "name": "",
          "type": "bytes"
        }
      ],
      "stateMutability": "pure",
      "type": "function"
    },
    {
      "inputs": [
        {
          "components": [
            {
              "internalType": "bool",
              "name": "valid",
              "type": "bool"
            },
            {
              "internalType": "bytes",
              "name": "key",
              "type": "bytes"
            },
            {
              "internalType": "bytes",
              "name": "value",
              "type": "bytes"
            },
            {
              "components": [
                {
                  "internalType": "bool",
                  "name": "valid",
                  "type": "bool"
                },
                {
                  "internalType": "enum ICS23.HashOp",
                  "name": "hash",
                  "type": "uint8"
                },
                {
                  "internalType": "enum ICS23.HashOp",
                  "name": "prehash_key",
                  "type": "uint8"
                },
                {
                  "internalType": "enum ICS23.HashOp",
                  "name": "prehash_value",
                  "type": "uint8"
                },
                {
                  "internalType": "enum ICS23.LengthOp",
                  "name": "len",
                  "type": "uint8"
                },
                {
                  "internalType": "bytes",
                  "name": "prefix",
                  "type": "bytes"
                }
              ],
              "internalType": "struct ICS23.LeafOp",
              "name": "leaf",
              "type": "tuple"
            },
            {
              "components": [
                {
                  "internalType": "bool",
                  "name": "valid",
                  "type": "bool"
                },
                {
                  "internalType": "enum ICS23.HashOp",
                  "name": "hash",
                  "type": "uint8"
                },
                {
                  "internalType": "bytes",
                  "name": "prefix",
                  "type": "bytes"
                },
                {
                  "internalType": "bytes",
                  "name": "suffix",
                  "type": "bytes"
                }
              ],
              "internalType": "struct ICS23.InnerOp[]",
              "name": "path",
              "type": "tuple[]"
            }
          ],
          "internalType": "struct ICS23.ExistenceProof",
          "name": "proof",
          "type": "tuple"
        },
        {
          "components": [
            {
              "internalType": "bool",
              "name": "valid",
              "type": "bool"
            },
            {
              "internalType": "enum ICS23.HashOp",
              "name": "hash",
              "type": "uint8"
            },
            {
              "internalType": "enum ICS23.HashOp",
              "name": "prehash_key",
              "type": "uint8"
            },
            {
              "internalType": "enum ICS23.HashOp",
              "name": "prehash_value",
              "type": "uint8"
            },
            {
              "internalType": "enum ICS23.LengthOp",
              "name": "len",
              "type": "uint8"
            },
            {
              "internalType": "bytes",
              "name": "prefix",
              "type": "bytes"
            }
          ],
          "internalType": "struct ICS23.LeafOp",
          "name": "spec",
          "type": "tuple"
        },
        {
          "internalType": "bytes",
          "name": "root",
          "type": "bytes"
        },
        {
          "internalType": "bytes",
          "name": "key",
          "type": "bytes"
        },
        {
          "internalType": "bytes",
          "name": "value",
          "type": "bytes"
        }
      ],
      "name": "verifyExistence",
      "outputs": [
        {
          "internalType": "bool",
          "name": "",
          "type": "bool"
        }
      ],
      "stateMutability": "pure",
      "type": "function"
    },
    {
      "inputs": [
        {
          "components": [
            {
              "internalType": "bool",
              "name": "valid",
              "type": "bool"
            },
            {
              "internalType": "bytes",
              "name": "key",
              "type": "bytes"
            },
            {
              "components": [
                {
                  "internalType": "bool",
                  "name": "valid",
                  "type": "bool"
                },
                {
                  "internalType": "bytes",
                  "name": "key",
                  "type": "bytes"
                },
                {
                  "internalType": "bytes",
                  "name": "value",
                  "type": "bytes"
                },
                {
                  "components": [
                    {
                      "internalType": "bool",
                      "name": "valid",
                      "type": "bool"
                    },
                    {
                      "internalType": "enum ICS23.HashOp",
                      "name": "hash",
                      "type": "uint8"
                    },
                    {
                      "internalType": "enum ICS23.HashOp",
                      "name": "prehash_key",
                      "type": "uint8"
                    },
                    {
                      "internalType": "enum ICS23.HashOp",
                      "name": "prehash_value",
                      "type": "uint8"
                    },
                    {
                      "internalType": "enum ICS23.LengthOp",
                      "name": "len",
                      "type": "uint8"
                    },
                    {
                      "internalType": "bytes",
                      "name": "prefix",
                      "type": "bytes"
                    }
                  ],
                  "internalType": "struct ICS23.LeafOp",
                  "name": "leaf",
                  "type": "tuple"
                },
                {
                  "components": [
                    {
                      "internalType": "bool",
                      "name": "valid",
                      "type": "bool"
                    },
                    {
                      "internalType": "enum ICS23.HashOp",
                      "name": "hash",
                      "type": "uint8"
                    },
                    {
                      "internalType": "bytes",
                      "name": "prefix",
                      "type": "bytes"
                    },
                    {
                      "internalType": "bytes",
                      "name": "suffix",
                      "type": "bytes"
                    }
                  ],
                  "internalType": "struct ICS23.InnerOp[]",
                  "name": "path",
                  "type": "tuple[]"
                }
              ],
              "internalType": "struct ICS23.ExistenceProof",
              "name": "left",
              "type": "tuple"
            },
            {
              "components": [
                {
                  "internalType": "bool",
                  "name": "valid",
                  "type": "bool"
                },
                {
                  "internalType": "bytes",
                  "name": "key",
                  "type": "bytes"
                },
                {
                  "internalType": "bytes",
                  "name": "value",
                  "type": "bytes"
                },
                {
                  "components": [
                    {
                      "internalType": "bool",
                      "name": "valid",
                      "type": "bool"
                    },
                    {
                      "internalType": "enum ICS23.HashOp",
                      "name": "hash",
                      "type": "uint8"
                    },
                    {
                      "internalType": "enum ICS23.HashOp",
                      "name": "prehash_key",
                      "type": "uint8"
                    },
                    {
                      "internalType": "enum ICS23.HashOp",
                      "name": "prehash_value",
                      "type": "uint8"
                    },
                    {
                      "internalType": "enum ICS23.LengthOp",
                      "name": "len",
                      "type": "uint8"
                    },
                    {
                      "internalType": "bytes",
                      "name": "prefix",
                      "type": "bytes"
                    }
                  ],
                  "internalType": "struct ICS23.LeafOp",
                  "name": "leaf",
                  "type": "tuple"
                },
                {
                  "components": [
                    {
                      "internalType": "bool",
                      "name": "valid",
                      "type": "bool"
                    },
                    {
                      "internalType": "enum ICS23.HashOp",
                      "name": "hash",
                      "type": "uint8"
                    },
                    {
                      "internalType": "bytes",
                      "name": "prefix",
                      "type": "bytes"
                    },
                    {
                      "internalType": "bytes",
                      "name": "suffix",
                      "type": "bytes"
                    }
                  ],
                  "internalType": "struct ICS23.InnerOp[]",
                  "name": "path",
                  "type": "tuple[]"
                }
              ],
              "internalType": "struct ICS23.ExistenceProof",
              "name": "right",
              "type": "tuple"
            }
          ],
          "internalType": "struct ICS23.NonExistenceProof",
          "name": "proof",
          "type": "tuple"
        },
        {
          "components": [
            {
              "components": [
                {
                  "internalType": "bool",
                  "name": "valid",
                  "type": "bool"
                },
                {
                  "internalType": "enum ICS23.HashOp",
                  "name": "hash",
                  "type": "uint8"
                },
                {
                  "internalType": "enum ICS23.HashOp",
                  "name": "prehash_key",
                  "type": "uint8"
                },
                {
                  "internalType": "enum ICS23.HashOp",
                  "name": "prehash_value",
                  "type": "uint8"
                },
                {
                  "internalType": "enum ICS23.LengthOp",
                  "name": "len",
                  "type": "uint8"
                },
                {
                  "internalType": "bytes",
                  "name": "prefix",
                  "type": "bytes"
                }
              ],
              "internalType": "struct ICS23.LeafOp",
              "name": "leafSpec",
              "type": "tuple"
            },
            {
              "components": [
                {
                  "internalType": "uint256[]",
                  "name": "childOrder",
                  "type": "uint256[]"
                },
                {
                  "internalType": "uint256",
                  "name": "childSize",
                  "type": "uint256"
                },
                {
                  "internalType": "uint256",
                  "name": "minPrefixLength",
                  "type": "uint256"
                },
                {
                  "internalType": "uint256",
                  "name": "maxPrefixLength",
                  "type": "uint256"
                },
                {
                  "internalType": "bytes",
                  "name": "emptyChild",
                  "type": "bytes"
                },
                {
                  "internalType": "enum ICS23.HashOp",
                  "name": "hash",
                  "type": "uint8"
                }
              ],
              "internalType": "struct ICS23.InnerSpec",
              "name": "innerSpec",
              "type": "tuple"
            },
            {
              "internalType": "uint256",
              "name": "maxDepth",
              "type": "uint256"
            },
            {
              "internalType": "uint256",
              "name": "minDepth",
              "type": "uint256"
            }
          ],
          "internalType": "struct ICS23.ProofSpec",
          "name": "spec",
          "type": "tuple"
        },
        {
          "internalType": "bytes",
          "name": "root",
          "type": "bytes"
        },
        {
          "internalType": "bytes",
          "name": "key",
          "type": "bytes"
        }
      ],
      "name": "verifyNonExistence",
      "outputs": [
        {
          "internalType": "bool",
          "name": "",
          "type": "bool"
        }
      ],
      "stateMutability": "pure",
      "type": "function"
    },
    {
      "inputs": [
        {
          "components": [
            {
              "internalType": "uint256[]",
              "name": "childOrder",
              "type": "uint256[]"
            },
            {
              "internalType": "uint256",
              "name": "childSize",
              "type": "uint256"
            },
            {
              "internalType": "uint256",
              "name": "minPrefixLength",
              "type": "uint256"
            },
            {
              "internalType": "uint256",
              "name": "maxPrefixLength",
              "type": "uint256"
            },
            {
              "internalType": "bytes",
              "name": "emptyChild",
              "type": "bytes"
            },
            {
              "internalType": "enum ICS23.HashOp",
              "name": "hash",
              "type": "uint8"
            }
          ],
          "internalType": "struct ICS23.InnerSpec",
          "name": "spec",
          "type": "tuple"
        },
        {
          "components": [
            {
              "internalType": "bool",
              "name": "valid",
              "type": "bool"
            },
            {
              "internalType": "enum ICS23.HashOp",
              "name": "hash",
              "type": "uint8"
            },
            {
              "internalType": "bytes",
              "name": "prefix",
              "type": "bytes"
            },
            {
              "internalType": "bytes",
              "name": "suffix",
              "type": "bytes"
            }
          ],
          "internalType": "struct ICS23.InnerOp",
          "name": "op",
          "type": "tuple"
        }
      ],
      "name": "orderFromPadding",
      "outputs": [
        {
          "internalType": "uint256",
          "name": "",
          "type": "uint256"
        }
      ],
      "stateMutability": "pure",
      "type": "function"
    },
    {
      "inputs": [
        {
          "components": [
            {
              "internalType": "uint256[]",
              "name": "childOrder",
              "type": "uint256[]"
            },
            {
              "internalType": "uint256",
              "name": "childSize",
              "type": "uint256"
            },
            {
              "internalType": "uint256",
              "name": "minPrefixLength",
              "type": "uint256"
            },
            {
              "internalType": "uint256",
              "name": "maxPrefixLength",
              "type": "uint256"
            },
            {
              "internalType": "bytes",
              "name": "emptyChild",
              "type": "bytes"
            },
            {
              "internalType": "enum ICS23.HashOp",
              "name": "hash",
              "type": "uint8"
            }
          ],
          "internalType": "struct ICS23.InnerSpec",
          "name": "spec",
          "type": "tuple"
        },
        {
          "components": [
            {
              "internalType": "bool",
              "name": "valid",
              "type": "bool"
            },
            {
              "internalType": "enum ICS23.HashOp",
              "name": "hash",
              "type": "uint8"
            },
            {
              "internalType": "bytes",
              "name": "prefix",
              "type": "bytes"
            },
            {
              "internalType": "bytes",
              "name": "suffix",
              "type": "bytes"
            }
          ],
          "internalType": "struct ICS23.InnerOp",
          "name": "left",
          "type": "tuple"
        },
        {
          "components": [
            {
              "internalType": "bool",
              "name": "valid",
              "type": "bool"
            },
            {
              "internalType": "enum ICS23.HashOp",
              "name": "hash",
              "type": "uint8"
            },
            {
              "internalType": "bytes",
              "name": "prefix",
              "type": "bytes"
            },
            {
              "internalType": "bytes",
              "name": "suffix",
              "type": "bytes"
            }
          ],
          "internalType": "struct ICS23.InnerOp",
          "name": "right",
          "type": "tuple"
        }
      ],
      "name": "isLeftStep",
      "outputs": [
        {
          "internalType": "bool",
          "name": "",
          "type": "bool"
        }
      ],
      "stateMutability": "pure",
      "type": "function"
    },
    {
      "inputs": [
        {
          "components": [
            {
              "internalType": "uint256[]",
              "name": "childOrder",
              "type": "uint256[]"
            },
            {
              "internalType": "uint256",
              "name": "childSize",
              "type": "uint256"
            },
            {
              "internalType": "uint256",
              "name": "minPrefixLength",
              "type": "uint256"
            },
            {
              "internalType": "uint256",
              "name": "maxPrefixLength",
              "type": "uint256"
            },
            {
              "internalType": "bytes",
              "name": "emptyChild",
              "type": "bytes"
            },
            {
              "internalType": "enum ICS23.HashOp",
              "name": "hash",
              "type": "uint8"
            }
          ],
          "internalType": "struct ICS23.InnerSpec",
          "name": "spec",
          "type": "tuple"
        },
        {
          "components": [
            {
              "internalType": "bool",
              "name": "valid",
              "type": "bool"
            },
            {
              "internalType": "enum ICS23.HashOp",
              "name": "hash",
              "type": "uint8"
            },
            {
              "internalType": "bytes",
              "name": "prefix",
              "type": "bytes"
            },
            {
              "internalType": "bytes",
              "name": "suffix",
              "type": "bytes"
            }
          ],
          "internalType": "struct ICS23.InnerOp[]",
          "name": "path",
          "type": "tuple[]"
        }
      ],
      "name": "isLeftMost",
      "outputs": [
        {
          "internalType": "bool",
          "name": "",
          "type": "bool"
        }
      ],
      "stateMutability": "pure",
      "type": "function"
    },
    {
      "inputs": [
        {
          "components": [
            {
              "internalType": "uint256[]",
              "name": "childOrder",
              "type": "uint256[]"
            },
            {
              "internalType": "uint256",
              "name": "childSize",
              "type": "uint256"
            },
            {
              "internalType": "uint256",
              "name": "minPrefixLength",
              "type": "uint256"
            },
            {
              "internalType": "uint256",
              "name": "maxPrefixLength",
              "type": "uint256"
            },
            {
              "internalType": "bytes",
              "name": "emptyChild",
              "type": "bytes"
            },
            {
              "internalType": "enum ICS23.HashOp",
              "name": "hash",
              "type": "uint8"
            }
          ],
          "internalType": "struct ICS23.InnerSpec",
          "name": "spec",
          "type": "tuple"
        },
        {
          "components": [
            {
              "internalType": "bool",
              "name": "valid",
              "type": "bool"
            },
            {
              "internalType": "enum ICS23.HashOp",
              "name": "hash",
              "type": "uint8"
            },
            {
              "internalType": "bytes",
              "name": "prefix",
              "type": "bytes"
            },
            {
              "internalType": "bytes",
              "name": "suffix",
              "type": "bytes"
            }
          ],
          "internalType": "struct ICS23.InnerOp[]",
          "name": "path",
          "type": "tuple[]"
        }
      ],
      "name": "isRightMost",
      "outputs": [
        {
          "internalType": "bool",
          "name": "",
          "type": "bool"
        }
      ],
      "stateMutability": "pure",
      "type": "function"
    },
    {
      "inputs": [
        {
          "components": [
            {
              "internalType": "uint256[]",
              "name": "childOrder",
              "type": "uint256[]"
            },
            {
              "internalType": "uint256",
              "name": "childSize",
              "type": "uint256"
            },
            {
              "internalType": "uint256",
              "name": "minPrefixLength",
              "type": "uint256"
            },
            {
              "internalType": "uint256",
              "name": "maxPrefixLength",
              "type": "uint256"
            },
            {
              "internalType": "bytes",
              "name": "emptyChild",
              "type": "bytes"
            },
            {
              "internalType": "enum ICS23.HashOp",
              "name": "hash",
              "type": "uint8"
            }
          ],
          "internalType": "struct ICS23.InnerSpec",
          "name": "spec",
          "type": "tuple"
        },
        {
          "components": [
            {
              "internalType": "bool",
              "name": "valid",
              "type": "bool"
            },
            {
              "internalType": "enum ICS23.HashOp",
              "name": "hash",
              "type": "uint8"
            },
            {
              "internalType": "bytes",
              "name": "prefix",
              "type": "bytes"
            },
            {
              "internalType": "bytes",
              "name": "suffix",
              "type": "bytes"
            }
          ],
          "internalType": "struct ICS23.InnerOp[]",
          "name": "left",
          "type": "tuple[]"
        },
        {
          "components": [
            {
              "internalType": "bool",
              "name": "valid",
              "type": "bool"
            },
            {
              "internalType": "enum ICS23.HashOp",
              "name": "hash",
              "type": "uint8"
            },
            {
              "internalType": "bytes",
              "name": "prefix",
              "type": "bytes"
            },
            {
              "internalType": "bytes",
              "name": "suffix",
              "type": "bytes"
            }
          ],
          "internalType": "struct ICS23.InnerOp[]",
          "name": "right",
          "type": "tuple[]"
        }
      ],
      "name": "isLeftNeighbor",
      "outputs": [
        {
          "internalType": "bool",
          "name": "",
          "type": "bool"
        }
      ],
      "stateMutability": "pure",
      "type": "function"
    },
    {
      "inputs": [
        {
          "internalType": "uint256[]",
          "name": "order",
          "type": "uint256[]"
        },
        {
          "internalType": "uint256",
          "name": "branch",
          "type": "uint256"
        }
      ],
      "name": "getPosition",
      "outputs": [
        {
          "internalType": "uint256",
          "name": "",
          "type": "uint256"
        }
      ],
      "stateMutability": "pure",
      "type": "function"
    },
    {
      "inputs": [
        {
          "components": [
            {
              "internalType": "bool",
              "name": "valid",
              "type": "bool"
            },
            {
              "internalType": "enum ICS23.HashOp",
              "name": "hash",
              "type": "uint8"
            },
            {
              "internalType": "bytes",
              "name": "prefix",
              "type": "bytes"
            },
            {
              "internalType": "bytes",
              "name": "suffix",
              "type": "bytes"
            }
          ],
          "internalType": "struct ICS23.InnerOp",
          "name": "op",
          "type": "tuple"
        },
        {
          "internalType": "uint256",
          "name": "minPrefix",
          "type": "uint256"
        },
        {
          "internalType": "uint256",
          "name": "maxPrefix",
          "type": "uint256"
        },
        {
          "internalType": "uint256",
          "name": "suffix",
          "type": "uint256"
        }
      ],
      "name": "hasPadding",
      "outputs": [
        {
          "internalType": "bool",
          "name": "",
          "type": "bool"
        }
      ],
      "stateMutability": "pure",
      "type": "function"
    },
    {
      "inputs": [
        {
          "components": [
            {
              "internalType": "uint256[]",
              "name": "childOrder",
              "type": "uint256[]"
            },
            {
              "internalType": "uint256",
              "name": "childSize",
              "type": "uint256"
            },
            {
              "internalType": "uint256",
              "name": "minPrefixLength",
              "type": "uint256"
            },
            {
              "internalType": "uint256",
              "name": "maxPrefixLength",
              "type": "uint256"
            },
            {
              "internalType": "bytes",
              "name": "emptyChild",
              "type": "bytes"
            },
            {
              "internalType": "enum ICS23.HashOp",
              "name": "hash",
              "type": "uint8"
            }
          ],
          "internalType": "struct ICS23.InnerSpec",
          "name": "spec",
          "type": "tuple"
        },
        {
          "internalType": "uint256",
          "name": "branch",
          "type": "uint256"
        }
      ],
      "name": "getPadding",
      "outputs": [
        {
          "internalType": "uint256",
          "name": "",
          "type": "uint256"
        },
        {
          "internalType": "uint256",
          "name": "",
          "type": "uint256"
        },
        {
          "internalType": "uint256",
          "name": "",
          "type": "uint256"
        }
      ],
      "stateMutability": "pure",
      "type": "function"
    },
    {
      "inputs": [
        {
          "internalType": "bytes",
          "name": "bz1",
          "type": "bytes"
        },
        {
          "internalType": "bytes",
          "name": "bz2",
          "type": "bytes"
        }
      ],
      "name": "equalBytes",
      "outputs": [
        {
          "internalType": "bool",
          "name": "",
          "type": "bool"
        }
      ],
      "stateMutability": "pure",
      "type": "function"
    },
    {
      "inputs": [
        {
          "internalType": "bytes",
          "name": "bz1",
          "type": "bytes"
        },
        {
          "internalType": "bytes",
          "name": "bz2",
          "type": "bytes"
        }
      ],
      "name": "compareBytes",
      "outputs": [
        {
          "internalType": "enum ICS23.Ordering",
          "name": "",
          "type": "uint8"
        }
      ],
      "stateMutability": "pure",
      "type": "function"
    },
    {
      "inputs": [
        {
          "components": [
            {
              "internalType": "bool",
              "name": "valid",
              "type": "bool"
            },
            {
              "internalType": "enum ICS23.HashOp",
              "name": "hash",
              "type": "uint8"
            },
            {
              "internalType": "enum ICS23.HashOp",
              "name": "prehash_key",
              "type": "uint8"
            },
            {
              "internalType": "enum ICS23.HashOp",
              "name": "prehash_value",
              "type": "uint8"
            },
            {
              "internalType": "enum ICS23.LengthOp",
              "name": "len",
              "type": "uint8"
            },
            {
              "internalType": "bytes",
              "name": "prefix",
              "type": "bytes"
            }
          ],
          "internalType": "struct ICS23.LeafOp",
          "name": "spec",
          "type": "tuple"
        },
        {
          "internalType": "bytes",
          "name": "root",
          "type": "bytes"
        },
        {
          "components": [
            {
              "internalType": "bool",
              "name": "valid",
              "type": "bool"
            },
            {
              "internalType": "bytes",
              "name": "key",
              "type": "bytes"
            },
            {
              "internalType": "bytes",
              "name": "value",
              "type": "bytes"
            },
            {
              "components": [
                {
                  "internalType": "bool",
                  "name": "valid",
                  "type": "bool"
                },
                {
                  "internalType": "enum ICS23.HashOp",
                  "name": "hash",
                  "type": "uint8"
                },
                {
                  "internalType": "enum ICS23.HashOp",
                  "name": "prehash_key",
                  "type": "uint8"
                },
                {
                  "internalType": "enum ICS23.HashOp",
                  "name": "prehash_value",
                  "type": "uint8"
                },
                {
                  "internalType": "enum ICS23.LengthOp",
                  "name": "len",
                  "type": "uint8"
                },
                {
                  "internalType": "bytes",
                  "name": "prefix",
                  "type": "bytes"
                }
              ],
              "internalType": "struct ICS23.LeafOp",
              "name": "leaf",
              "type": "tuple"
            },
            {
              "components": [
                {
                  "internalType": "bool",
                  "name": "valid",
                  "type": "bool"
                },
                {
                  "internalType": "enum ICS23.HashOp",
                  "name": "hash",
                  "type": "uint8"
                },
                {
                  "internalType": "bytes",
                  "name": "prefix",
                  "type": "bytes"
                },
                {
                  "internalType": "bytes",
                  "name": "suffix",
                  "type": "bytes"
                }
              ],
              "internalType": "struct ICS23.InnerOp[]",
              "name": "path",
              "type": "tuple[]"
            }
          ],
          "internalType": "struct ICS23.ExistenceProof",
          "name": "proof",
          "type": "tuple"
        },
        {
          "internalType": "bytes",
          "name": "key",
          "type": "bytes"
        },
        {
          "internalType": "bytes",
          "name": "value",
          "type": "bytes"
        }
      ],
      "name": "verifyMembership",
      "outputs": [
        {
          "internalType": "bool",
          "name": "",
          "type": "bool"
        }
      ],
      "stateMutability": "pure",
      "type": "function"
    },
    {
      "inputs": [
        {
          "components": [
            {
              "components": [
                {
                  "internalType": "bool",
                  "name": "valid",
                  "type": "bool"
                },
                {
                  "internalType": "enum ICS23.HashOp",
                  "name": "hash",
                  "type": "uint8"
                },
                {
                  "internalType": "enum ICS23.HashOp",
                  "name": "prehash_key",
                  "type": "uint8"
                },
                {
                  "internalType": "enum ICS23.HashOp",
                  "name": "prehash_value",
                  "type": "uint8"
                },
                {
                  "internalType": "enum ICS23.LengthOp",
                  "name": "len",
                  "type": "uint8"
                },
                {
                  "internalType": "bytes",
                  "name": "prefix",
                  "type": "bytes"
                }
              ],
              "internalType": "struct ICS23.LeafOp",
              "name": "leafSpec",
              "type": "tuple"
            },
            {
              "components": [
                {
                  "internalType": "uint256[]",
                  "name": "childOrder",
                  "type": "uint256[]"
                },
                {
                  "internalType": "uint256",
                  "name": "childSize",
                  "type": "uint256"
                },
                {
                  "internalType": "uint256",
                  "name": "minPrefixLength",
                  "type": "uint256"
                },
                {
                  "internalType": "uint256",
                  "name": "maxPrefixLength",
                  "type": "uint256"
                },
                {
                  "internalType": "bytes",
                  "name": "emptyChild",
                  "type": "bytes"
                },
                {
                  "internalType": "enum ICS23.HashOp",
                  "name": "hash",
                  "type": "uint8"
                }
              ],
              "internalType": "struct ICS23.InnerSpec",
              "name": "innerSpec",
              "type": "tuple"
            },
            {
              "internalType": "uint256",
              "name": "maxDepth",
              "type": "uint256"
            },
            {
              "internalType": "uint256",
              "name": "minDepth",
              "type": "uint256"
            }
          ],
          "internalType": "struct ICS23.ProofSpec",
          "name": "spec",
          "type": "tuple"
        },
        {
          "internalType": "bytes",
          "name": "root",
          "type": "bytes"
        },
        {
          "components": [
            {
              "internalType": "bool",
              "name": "valid",
              "type": "bool"
            },
            {
              "internalType": "bytes",
              "name": "key",
              "type": "bytes"
            },
            {
              "components": [
                {
                  "internalType": "bool",
                  "name": "valid",
                  "type": "bool"
                },
                {
                  "internalType": "bytes",
                  "name": "key",
                  "type": "bytes"
                },
                {
                  "internalType": "bytes",
                  "name": "value",
                  "type": "bytes"
                },
                {
                  "components": [
                    {
                      "internalType": "bool",
                      "name": "valid",
                      "type": "bool"
                    },
                    {
                      "internalType": "enum ICS23.HashOp",
                      "name": "hash",
                      "type": "uint8"
                    },
                    {
                      "internalType": "enum ICS23.HashOp",
                      "name": "prehash_key",
                      "type": "uint8"
                    },
                    {
                      "internalType": "enum ICS23.HashOp",
                      "name": "prehash_value",
                      "type": "uint8"
                    },
                    {
                      "internalType": "enum ICS23.LengthOp",
                      "name": "len",
                      "type": "uint8"
                    },
                    {
                      "internalType": "bytes",
                      "name": "prefix",
                      "type": "bytes"
                    }
                  ],
                  "internalType": "struct ICS23.LeafOp",
                  "name": "leaf",
                  "type": "tuple"
                },
                {
                  "components": [
                    {
                      "internalType": "bool",
                      "name": "valid",
                      "type": "bool"
                    },
                    {
                      "internalType": "enum ICS23.HashOp",
                      "name": "hash",
                      "type": "uint8"
                    },
                    {
                      "internalType": "bytes",
                      "name": "prefix",
                      "type": "bytes"
                    },
                    {
                      "internalType": "bytes",
                      "name": "suffix",
                      "type": "bytes"
                    }
                  ],
                  "internalType": "struct ICS23.InnerOp[]",
                  "name": "path",
                  "type": "tuple[]"
                }
              ],
              "internalType": "struct ICS23.ExistenceProof",
              "name": "left",
              "type": "tuple"
            },
            {
              "components": [
                {
                  "internalType": "bool",
                  "name": "valid",
                  "type": "bool"
                },
                {
                  "internalType": "bytes",
                  "name": "key",
                  "type": "bytes"
                },
                {
                  "internalType": "bytes",
                  "name": "value",
                  "type": "bytes"
                },
                {
                  "components": [
                    {
                      "internalType": "bool",
                      "name": "valid",
                      "type": "bool"
                    },
                    {
                      "internalType": "enum ICS23.HashOp",
                      "name": "hash",
                      "type": "uint8"
                    },
                    {
                      "internalType": "enum ICS23.HashOp",
                      "name": "prehash_key",
                      "type": "uint8"
                    },
                    {
                      "internalType": "enum ICS23.HashOp",
                      "name": "prehash_value",
                      "type": "uint8"
                    },
                    {
                      "internalType": "enum ICS23.LengthOp",
                      "name": "len",
                      "type": "uint8"
                    },
                    {
                      "internalType": "bytes",
                      "name": "prefix",
                      "type": "bytes"
                    }
                  ],
                  "internalType": "struct ICS23.LeafOp",
                  "name": "leaf",
                  "type": "tuple"
                },
                {
                  "components": [
                    {
                      "internalType": "bool",
                      "name": "valid",
                      "type": "bool"
                    },
                    {
                      "internalType": "enum ICS23.HashOp",
                      "name": "hash",
                      "type": "uint8"
                    },
                    {
                      "internalType": "bytes",
                      "name": "prefix",
                      "type": "bytes"
                    },
                    {
                      "internalType": "bytes",
                      "name": "suffix",
                      "type": "bytes"
                    }
                  ],
                  "internalType": "struct ICS23.InnerOp[]",
                  "name": "path",
                  "type": "tuple[]"
                }
              ],
              "internalType": "struct ICS23.ExistenceProof",
              "name": "right",
              "type": "tuple"
            }
          ],
          "internalType": "struct ICS23.NonExistenceProof",
          "name": "proof",
          "type": "tuple"
        },
        {
          "internalType": "bytes",
          "name": "key",
          "type": "bytes"
        }
      ],
      "name": "verifyNonMembership",
      "outputs": [
        {
          "internalType": "bool",
          "name": "",
          "type": "bool"
        }
      ],
      "stateMutability": "pure",
      "type": "function"
    }
  ],
  "bytecode": "0x608060405234801561001057600080fd5b50613508806100206000396000f3fe608060405234801561001057600080fd5b50600436106101585760003560e01c8063901d0e15116100c3578063b6446a5f1161007c578063b6446a5f146104ad578063d259183d146104dd578063d48f1e4f1461050d578063e5c341e21461053d578063fbc2674d1461056d578063fd29e20a1461059d57610158565b8063901d0e151461038d578063951c0b90146103bd5780639c854fbe146103ed5780639d18a1151461041d578063af630bb11461044d578063b4219c6f1461047d57610158565b80633e339c30116101155780633e339c301461026d578063452e99a31461029d5780634cac70ff146102cd57806367bb8e81146102fd57806372aaf3df1461032d57806383ead07c1461035d57610158565b8063038011741461015d5780630d4383f41461018d5780631e63e931146101bf57806327dcd78c146101ef5780632f1cf2621461020d578063356e77ff1461023d575b600080fd5b61017760048036038101906101729190611a66565b6105cd565b6040516101849190611b4a565b60405180910390f35b6101a760048036038101906101a29190611d4c565b610617565b6040516101b693929190611db7565b60405180910390f35b6101d960048036038101906101d49190611dee565b6106ae565b6040516101e69190611e4a565b60405180910390f35b6101f7610713565b6040516102049190612012565b60405180910390f35b610227600480360381019061022291906121f1565b6107b2565b60405161023491906122a7565b60405180910390f35b610257600480360381019061025291906122c2565b61094a565b6040516102649190611e4a565b60405180910390f35b61028760048036038101906102829190612517565b6109b5565b60405161029491906122a7565b60405180910390f35b6102b760048036038101906102b2919061261e565b6109cf565b6040516102c491906122a7565b60405180910390f35b6102e760048036038101906102e29190612725565b610a2c565b6040516102f491906122a7565b60405180910390f35b6103176004803603810190610312919061279d565b610afa565b6040516103249190611b4a565b60405180910390f35b610347600480360381019061034291906127f9565b610c95565b6040516103549190611b4a565b60405180910390f35b61037760048036038101906103729190612871565b610ced565b60405161038491906122a7565b60405180910390f35b6103a760048036038101906103a29190612725565b610d80565b6040516103b491906122a7565b60405180910390f35b6103d760048036038101906103d29190612871565b610e3f565b6040516103e491906122a7565b60405180910390f35b610407600480360381019061040291906128e9565b610ebb565b60405161041491906122a7565b60405180910390f35b6104376004803603810190610432919061296c565b610efc565b60405161044491906122a7565b60405180910390f35b610467600480360381019061046291906129e4565b61107b565b6040516104749190611b4a565b60405180910390f35b61049760048036038101906104929190612a8b565b61110f565b6040516104a491906122a7565b60405180910390f35b6104c760048036038101906104c29190612cae565b611146565b6040516104d491906122a7565b60405180910390f35b6104f760048036038101906104f29190612725565b611324565b6040516105049190612dcd565b60405180910390f35b61052760048036038101906105229190611a66565b6114ef565b6040516105349190611b4a565b60405180910390f35b61055760048036038101906105529190612de8565b6117b1565b6040516105649190611b4a565b60405180910390f35b61058760048036038101906105829190612e31565b611825565b60405161059491906122a7565b60405180910390f35b6105b760048036038101906105b29190612f08565b61183d565b6040516105c49190611b4a565b60405180910390f35b6060600060058111156105e3576105e2611e80565b5b8360058111156105f6576105f5611e80565b5b141561060457819050610611565b61060e83836114ef565b90505b92915050565b60008060008061062b8660000151866106ae565b9050600086602001518261063f9190612fa6565b905060008760400151826106539190613000565b905060008860600151836106679190613000565b9050600089602001518560018c60000151516106839190613056565b61068d9190613056565b6106979190612fa6565b905082828297509750975050505050509250925092565b6000825182106106bd57600080fd5b60005b835181101561070757828482815181106106dd576106dc61308a565b5b602002602001015114156106f4578091505061070d565b80806106ff906130b9565b9150506106c0565b50600080fd5b92915050565b61071b611867565b6040518060c001604052806001151581526020016001600581111561074357610742611e80565b5b81526020016000600581111561075c5761075b611e80565b5b81526020016001600581111561077557610774611e80565b5b81526020016001600881111561078e5761078d611e80565b5b81526020016040518060400160405280600181526020016000815250815250905090565b600080600190505b610818848286516107cb9190613056565b815181106107dc576107db61308a565b5b602002602001015160400151848386516107f69190613056565b815181106108075761080661308a565b5b602002602001015160400151610a2c565b801561087e575061087d848286516108309190613056565b815181106108415761084061308a565b5b6020026020010151606001518483865161085b9190613056565b8151811061086c5761086b61308a565b5b602002602001015160600151610a2c565b5b1561089657808061088e906130b9565b9150506107ba565b6000848286516108a69190613056565b815181106108b7576108b661308a565b5b602002602001015190506000848386516108d19190613056565b815181106108e2576108e161308a565b5b602002602001015190506108f787838361110f565b6109075760009350505050610943565b6109118787610ced565b6109215760009350505050610943565b61092b8786610e3f565b61093b5760009350505050610943565b600193505050505b9392505050565b600080836000015151905060005b818110156109a957600080600061096f8885610617565b92509250925061098187848484610ebb565b156109935783955050505050506109af565b50505080806109a1906130b9565b915050610958565b50600080fd5b92915050565b60006109c484878786866109cf565b905095945050505050565b60006109db8686610efc565b80156109f157506109f0838760200151610a2c565b5b8015610a075750610a06828760400151610a2c565b5b8015610a215750610a20610a1a876117b1565b85610a2c565b5b905095945050505050565b60008151835114610a405760009050610af4565b60005b8351811015610aee57828181518110610a5f57610a5e61308a565b5b602001015160f81c60f81b7effffffffffffffffffffffffffffffffffffffffffffffffffffffffffffff1916848281518110610a9f57610a9e61308a565b5b602001015160f81c60f81b7effffffffffffffffffffffffffffffffffffffffffffffffffffffffffffff191614610adb576000915050610af4565b8080610ae6906130b9565b915050610a43565b50600190505b92915050565b606060006008811115610b1057610b0f611e80565b5b836008811115610b2357610b22611e80565b5b1415610b3157819050610c8f565b60016008811115610b4557610b44611e80565b5b836008811115610b5857610b57611e80565b5b1415610bcf5760008251905060808110610ba5576080607f821617600782901c91508184604051602001610b8e93929190613181565b604051602081830303815290604052915050610c8f565b8083604051602001610bb89291906131ba565b604051602081830303815290604052915050610c8f565b60076008811115610be357610be2611e80565b5b836008811115610bf657610bf5611e80565b5b1415610c12576020825114610c0a57600080fd5b819050610c8f565b600880811115610c2557610c24611e80565b5b836008811115610c3857610c37611e80565b5b1415610c54576040825114610c4c57600080fd5b819050610c8f565b6040517f08c379a0000000000000000000000000000000000000000000000000000000008152600401610c8690613265565b60405180910390fd5b92915050565b6060600082511415610ca657600080fd5b60008360400151838560600151604051602001610cc593929190613285565b6040516020818303038152906040529050610ce48460200151826114ef565b91505092915050565b6000806001846000015151610d029190613056565b90506000806000610d138785610617565b92509250925060005b8651811015610d7057610d4b878281518110610d3b57610d3a61308a565b5b6020026020010151858585610ebb565b610d5d57600095505050505050610d7a565b8080610d68906130b9565b915050610d1c565b5060019450505050505b92915050565b600080600090505b8251811015610e3357828181518110610da457610da361308a565b5b602001015160f81c60f81b7effffffffffffffffffffffffffffffffffffffffffffffffffffffffffffff1916848281518110610de457610de361308a565b5b602001015160f81c60f81b7effffffffffffffffffffffffffffffffffffffffffffffffffffffffffffff191614610e20576000915050610e39565b8080610e2b906130b9565b915050610d88565b50600190505b92915050565b600080600080610e50866000610617565b92509250925060005b8551811015610eac57610e88868281518110610e7857610e7761308a565b5b6020026020010151858585610ebb565b610e99576000945050505050610eb5565b8080610ea4906130b9565b915050610e59565b50600193505050505b92915050565b6000838560400151511015610ed35760009050610ef4565b828560400151511115610ee95760009050610ef4565b818560600151511490505b949350505050565b600081602001516005811115610f1557610f14611e80565b5b8360600151602001516005811115610f3057610f2f611e80565b5b148015610f6c575081604001516005811115610f4f57610f4e611e80565b5b8360600151604001516005811115610f6a57610f69611e80565b5b145b8015610fa7575081606001516005811115610f8a57610f89611e80565b5b8360600151606001516005811115610fa557610fa4611e80565b5b145b8015610fe2575081608001516008811115610fc557610fc4611e80565b5b8360600151608001516008811115610fe057610fdf611e80565b5b145b80156110005750610fff836060015160a001518360a00151610d80565b5b61100d5760009050611075565b60005b83608001515181101561106f5761104d846080015182815181106110375761103661308a565b5b6020026020010151604001518460a00151610d80565b1561105c576000915050611075565b8080611067906130b9565b915050611010565b50600190505b92915050565b606060008351141561108c57600080fd5b60008251141561109b57600080fd5b60006110b0856040015186608001518661183d565b905060006110c7866060015187608001518661183d565b905060008660a0015183836040516020016110e493929190613285565b60405160208183030381529060405290506111038760200151826114ef565b93505050509392505050565b60008061111c858561094a565b9050600061112a868561094a565b90508060018361113a9190613000565b14925050509392505050565b60008460400151600001511580156111645750846060015160000151155b15611172576000905061131c565b846040015160000151156111f9576111a585604001518560000151858860400151602001518960400151604001516109cf565b6111b2576000905061131c565b600060028111156111c6576111c5611e80565b5b6111d883876060015160200151611324565b60028111156111ea576111e9611e80565b5b146111f8576000905061131c565b5b8460600151600001511561127f5761122c85606001518560000151858860600151602001518960600151604001516109cf565b611239576000905061131c565b60028081111561124c5761124b611e80565b5b61125e83876040015160200151611324565b60028111156112705761126f611e80565b5b1461127e576000905061131c565b5b8460400151600001516112b4576112a28460200151866060015160800151610e3f565b6112af576000905061131c565b611317565b8460600151600001516112e9576112d78460200151866040015160800151610ced565b6112e4576000905061131c565b611316565b61130884602001518660400151608001518760600151608001516107b2565b611315576000905061131c565b5b5b600190505b949350505050565b600080600090505b83518110801561133c5750825181105b15611474578281815181106113545761135361308a565b5b602001015160f81c60f81b7effffffffffffffffffffffffffffffffffffffffffffffffffffffffffffff19168482815181106113945761139361308a565b5b602001015160f81c60f81b7effffffffffffffffffffffffffffffffffffffffffffffffffffffffffffff191610156113d15760009150506114e9565b8281815181106113e4576113e361308a565b5b602001015160f81c60f81b7effffffffffffffffffffffffffffffffffffffffffffffffffffffffffffff19168482815181106114245761142361308a565b5b602001015160f81c60f81b7effffffffffffffffffffffffffffffffffffffffffffffffffffffffffffff191611156114615760029150506114e9565b808061146c906130b9565b91505061132c565b5081518351141561148857600190506114e9565b81518351101561149b57600090506114e9565b8151835111156114ae57600290506114e9565b6040517f08c379a00000000000000000000000000000000000000000000000000000000081526004016114e090613302565b60405180910390fd5b92915050565b60606003600581111561150557611504611e80565b5b83600581111561151857611517611e80565b5b141561154c578180519060200120604051602001611536919061334d565b60405160208183030381529060405290506117ab565b600160058111156115605761155f611e80565b5b83600581111561157357611572611e80565b5b14156115ef576002826040516115899190613368565b602060405180830381855afa1580156115a6573d6000803e3d6000fd5b5050506040513d601f19601f820116820180604052508101906115c991906133ab565b6040516020016115d9919061334d565b60405160208183030381529060405290506117ab565b6004600581111561160357611602611e80565b5b83600581111561161657611615611e80565b5b14156116795760038260405161162c9190613368565b602060405180830381855afa158015611649573d6000803e3d6000fd5b5050506040515160601b6040516020016116639190613425565b60405160208183030381529060405290506117ab565b60058081111561168c5761168b611e80565b5b83600581111561169f5761169e611e80565b5b14156117705760036002836040516116b79190613368565b602060405180830381855afa1580156116d4573d6000803e3d6000fd5b5050506040513d601f19601f820116820180604052508101906116f791906133ab565b604051602001611707919061334d565b6040516020818303038152906040526040516117239190613368565b602060405180830381855afa158015611740573d6000803e3d6000fd5b5050506040515160601b60405160200161175a9190613425565b60405160208183030381529060405290506117ab565b6040517f08c379a00000000000000000000000000000000000000000000000000000000081526004016117a2906134b2565b60405180910390fd5b92915050565b606060006117cc83606001518460200151856040015161107b565b905060005b83608001515181101561181b57611806846080015182815181106117f8576117f761308a565b5b602002602001015183610c95565b91508080611813906130b9565b9150506117d1565b5080915050919050565b600061183383868685611146565b9050949350505050565b6060600061184b85846105cd565b905060006118598583610afa565b905080925050509392505050565b6040518060c001604052806000151581526020016000600581111561188f5761188e611e80565b5b8152602001600060058111156118a8576118a7611e80565b5b8152602001600060058111156118c1576118c0611e80565b5b8152602001600060088111156118da576118d9611e80565b5b8152602001606081525090565b6000604051905090565b600080fd5b600080fd5b6006811061190857600080fd5b50565b60008135905061191a816118fb565b92915050565b600080fd5b600080fd5b6000601f19601f8301169050919050565b7f4e487b7100000000000000000000000000000000000000000000000000000000600052604160045260246000fd5b6119738261192a565b810181811067ffffffffffffffff821117156119925761199161193b565b5b80604052505050565b60006119a56118e7565b90506119b1828261196a565b919050565b600067ffffffffffffffff8211156119d1576119d061193b565b5b6119da8261192a565b9050602081019050919050565b82818337600083830152505050565b6000611a09611a04846119b6565b61199b565b905082815260208101848484011115611a2557611a24611925565b5b611a308482856119e7565b509392505050565b600082601f830112611a4d57611a4c611920565b5b8135611a5d8482602086016119f6565b91505092915050565b60008060408385031215611a7d57611a7c6118f1565b5b6000611a8b8582860161190b565b925050602083013567ffffffffffffffff811115611aac57611aab6118f6565b5b611ab885828601611a38565b9150509250929050565b600081519050919050565b600082825260208201905092915050565b60005b83811015611afc578082015181840152602081019050611ae1565b83811115611b0b576000848401525b50505050565b6000611b1c82611ac2565b611b268185611acd565b9350611b36818560208601611ade565b611b3f8161192a565b840191505092915050565b60006020820190508181036000830152611b648184611b11565b905092915050565b600080fd5b600080fd5b600067ffffffffffffffff821115611b9157611b9061193b565b5b602082029050602081019050919050565b600080fd5b6000819050919050565b611bba81611ba7565b8114611bc557600080fd5b50565b600081359050611bd781611bb1565b92915050565b6000611bf0611beb84611b76565b61199b565b90508083825260208201905060208402830185811115611c1357611c12611ba2565b5b835b81811015611c3c5780611c288882611bc8565b845260208401935050602081019050611c15565b5050509392505050565b600082601f830112611c5b57611c5a611920565b5b8135611c6b848260208601611bdd565b91505092915050565b600060c08284031215611c8a57611c89611b6c565b5b611c9460c061199b565b9050600082013567ffffffffffffffff811115611cb457611cb3611b71565b5b611cc084828501611c46565b6000830152506020611cd484828501611bc8565b6020830152506040611ce884828501611bc8565b6040830152506060611cfc84828501611bc8565b606083015250608082013567ffffffffffffffff811115611d2057611d1f611b71565b5b611d2c84828501611a38565b60808301525060a0611d408482850161190b565b60a08301525092915050565b60008060408385031215611d6357611d626118f1565b5b600083013567ffffffffffffffff811115611d8157611d806118f6565b5b611d8d85828601611c74565b9250506020611d9e85828601611bc8565b9150509250929050565b611db181611ba7565b82525050565b6000606082019050611dcc6000830186611da8565b611dd96020830185611da8565b611de66040830184611da8565b949350505050565b60008060408385031215611e0557611e046118f1565b5b600083013567ffffffffffffffff811115611e2357611e226118f6565b5b611e2f85828601611c46565b9250506020611e4085828601611bc8565b9150509250929050565b6000602082019050611e5f6000830184611da8565b92915050565b60008115159050919050565b611e7a81611e65565b82525050565b7f4e487b7100000000000000000000000000000000000000000000000000000000600052602160045260246000fd5b60068110611ec057611ebf611e80565b5b50565b6000819050611ed182611eaf565b919050565b6000611ee182611ec3565b9050919050565b611ef181611ed6565b82525050565b60098110611f0857611f07611e80565b5b50565b6000819050611f1982611ef7565b919050565b6000611f2982611f0b565b9050919050565b611f3981611f1e565b82525050565b600082825260208201905092915050565b6000611f5b82611ac2565b611f658185611f3f565b9350611f75818560208601611ade565b611f7e8161192a565b840191505092915050565b600060c083016000830151611fa16000860182611e71565b506020830151611fb46020860182611ee8565b506040830151611fc76040860182611ee8565b506060830151611fda6060860182611ee8565b506080830151611fed6080860182611f30565b5060a083015184820360a08601526120058282611f50565b9150508091505092915050565b6000602082019050818103600083015261202c8184611f89565b905092915050565b600067ffffffffffffffff82111561204f5761204e61193b565b5b602082029050602081019050919050565b61206981611e65565b811461207457600080fd5b50565b60008135905061208681612060565b92915050565b6000608082840312156120a2576120a1611b6c565b5b6120ac608061199b565b905060006120bc84828501612077565b60008301525060206120d08482850161190b565b602083015250604082013567ffffffffffffffff8111156120f4576120f3611b71565b5b61210084828501611a38565b604083015250606082013567ffffffffffffffff81111561212457612123611b71565b5b61213084828501611a38565b60608301525092915050565b600061214f61214a84612034565b61199b565b9050808382526020820190506020840283018581111561217257612171611ba2565b5b835b818110156121b957803567ffffffffffffffff81111561219757612196611920565b5b8086016121a4898261208c565b85526020850194505050602081019050612174565b5050509392505050565b600082601f8301126121d8576121d7611920565b5b81356121e884826020860161213c565b91505092915050565b60008060006060848603121561220a576122096118f1565b5b600084013567ffffffffffffffff811115612228576122276118f6565b5b61223486828701611c74565b935050602084013567ffffffffffffffff811115612255576122546118f6565b5b612261868287016121c3565b925050604084013567ffffffffffffffff811115612282576122816118f6565b5b61228e868287016121c3565b9150509250925092565b6122a181611e65565b82525050565b60006020820190506122bc6000830184612298565b92915050565b600080604083850312156122d9576122d86118f1565b5b600083013567ffffffffffffffff8111156122f7576122f66118f6565b5b61230385828601611c74565b925050602083013567ffffffffffffffff811115612324576123236118f6565b5b6123308582860161208c565b9150509250929050565b6009811061234757600080fd5b50565b6000813590506123598161233a565b92915050565b600060c0828403121561237557612374611b6c565b5b61237f60c061199b565b9050600061238f84828501612077565b60008301525060206123a38482850161190b565b60208301525060406123b78482850161190b565b60408301525060606123cb8482850161190b565b60608301525060806123df8482850161234a565b60808301525060a082013567ffffffffffffffff81111561240357612402611b71565b5b61240f84828501611a38565b60a08301525092915050565b600060a0828403121561243157612430611b6c565b5b61243b60a061199b565b9050600061244b84828501612077565b600083015250602082013567ffffffffffffffff81111561246f5761246e611b71565b5b61247b84828501611a38565b602083015250604082013567ffffffffffffffff81111561249f5761249e611b71565b5b6124ab84828501611a38565b604083015250606082013567ffffffffffffffff8111156124cf576124ce611b71565b5b6124db8482850161235f565b606083015250608082013567ffffffffffffffff8111156124ff576124fe611b71565b5b61250b848285016121c3565b60808301525092915050565b600080600080600060a08688031215612533576125326118f1565b5b600086013567ffffffffffffffff811115612551576125506118f6565b5b61255d8882890161235f565b955050602086013567ffffffffffffffff81111561257e5761257d6118f6565b5b61258a88828901611a38565b945050604086013567ffffffffffffffff8111156125ab576125aa6118f6565b5b6125b78882890161241b565b935050606086013567ffffffffffffffff8111156125d8576125d76118f6565b5b6125e488828901611a38565b925050608086013567ffffffffffffffff811115612605576126046118f6565b5b61261188828901611a38565b9150509295509295909350565b600080600080600060a0868803121561263a576126396118f1565b5b600086013567ffffffffffffffff811115612658576126576118f6565b5b6126648882890161241b565b955050602086013567ffffffffffffffff811115612685576126846118f6565b5b6126918882890161235f565b945050604086013567ffffffffffffffff8111156126b2576126b16118f6565b5b6126be88828901611a38565b935050606086013567ffffffffffffffff8111156126df576126de6118f6565b5b6126eb88828901611a38565b925050608086013567ffffffffffffffff81111561270c5761270b6118f6565b5b61271888828901611a38565b9150509295509295909350565b6000806040838503121561273c5761273b6118f1565b5b600083013567ffffffffffffffff81111561275a576127596118f6565b5b61276685828601611a38565b925050602083013567ffffffffffffffff811115612787576127866118f6565b5b61279385828601611a38565b9150509250929050565b600080604083850312156127b4576127b36118f1565b5b60006127c28582860161234a565b925050602083013567ffffffffffffffff8111156127e3576127e26118f6565b5b6127ef85828601611a38565b9150509250929050565b600080604083850312156128105761280f6118f1565b5b600083013567ffffffffffffffff81111561282e5761282d6118f6565b5b61283a8582860161208c565b925050602083013567ffffffffffffffff81111561285b5761285a6118f6565b5b61286785828601611a38565b9150509250929050565b60008060408385031215612888576128876118f1565b5b600083013567ffffffffffffffff8111156128a6576128a56118f6565b5b6128b285828601611c74565b925050602083013567ffffffffffffffff8111156128d3576128d26118f6565b5b6128df858286016121c3565b9150509250929050565b60008060008060808587031215612903576129026118f1565b5b600085013567ffffffffffffffff811115612921576129206118f6565b5b61292d8782880161208c565b945050602061293e87828801611bc8565b935050604061294f87828801611bc8565b925050606061296087828801611bc8565b91505092959194509250565b60008060408385031215612983576129826118f1565b5b600083013567ffffffffffffffff8111156129a1576129a06118f6565b5b6129ad8582860161241b565b925050602083013567ffffffffffffffff8111156129ce576129cd6118f6565b5b6129da8582860161235f565b9150509250929050565b6000806000606084860312156129fd576129fc6118f1565b5b600084013567ffffffffffffffff811115612a1b57612a1a6118f6565b5b612a278682870161235f565b935050602084013567ffffffffffffffff811115612a4857612a476118f6565b5b612a5486828701611a38565b925050604084013567ffffffffffffffff811115612a7557612a746118f6565b5b612a8186828701611a38565b9150509250925092565b600080600060608486031215612aa457612aa36118f1565b5b600084013567ffffffffffffffff811115612ac257612ac16118f6565b5b612ace86828701611c74565b935050602084013567ffffffffffffffff811115612aef57612aee6118f6565b5b612afb8682870161208c565b925050604084013567ffffffffffffffff811115612b1c57612b1b6118f6565b5b612b288682870161208c565b9150509250925092565b600060808284031215612b4857612b47611b6c565b5b612b52608061199b565b90506000612b6284828501612077565b600083015250602082013567ffffffffffffffff811115612b8657612b85611b71565b5b612b9284828501611a38565b602083015250604082013567ffffffffffffffff811115612bb657612bb5611b71565b5b612bc28482850161241b565b604083015250606082013567ffffffffffffffff811115612be657612be5611b71565b5b612bf28482850161241b565b60608301525092915050565b600060808284031215612c1457612c13611b6c565b5b612c1e608061199b565b9050600082013567ffffffffffffffff811115612c3e57612c3d611b71565b5b612c4a8482850161235f565b600083015250602082013567ffffffffffffffff811115612c6e57612c6d611b71565b5b612c7a84828501611c74565b6020830152506040612c8e84828501611bc8565b6040830152506060612ca284828501611bc8565b60608301525092915050565b60008060008060808587031215612cc857612cc76118f1565b5b600085013567ffffffffffffffff811115612ce657612ce56118f6565b5b612cf287828801612b32565b945050602085013567ffffffffffffffff811115612d1357612d126118f6565b5b612d1f87828801612bfe565b935050604085013567ffffffffffffffff811115612d4057612d3f6118f6565b5b612d4c87828801611a38565b925050606085013567ffffffffffffffff811115612d6d57612d6c6118f6565b5b612d7987828801611a38565b91505092959194509250565b60038110612d9657612d95611e80565b5b50565b6000819050612da782612d85565b919050565b6000612db782612d99565b9050919050565b612dc781612dac565b82525050565b6000602082019050612de26000830184612dbe565b92915050565b600060208284031215612dfe57612dfd6118f1565b5b600082013567ffffffffffffffff811115612e1c57612e1b6118f6565b5b612e288482850161241b565b91505092915050565b60008060008060808587031215612e4b57612e4a6118f1565b5b600085013567ffffffffffffffff811115612e6957612e686118f6565b5b612e7587828801612bfe565b945050602085013567ffffffffffffffff811115612e9657612e956118f6565b5b612ea287828801611a38565b935050604085013567ffffffffffffffff811115612ec357612ec26118f6565b5b612ecf87828801612b32565b925050606085013567ffffffffffffffff811115612ef057612eef6118f6565b5b612efc87828801611a38565b91505092959194509250565b600080600060608486031215612f2157612f206118f1565b5b6000612f2f8682870161190b565b9350506020612f408682870161234a565b925050604084013567ffffffffffffffff811115612f6157612f606118f6565b5b612f6d86828701611a38565b9150509250925092565b7f4e487b7100000000000000000000000000000000000000000000000000000000600052601160045260246000fd5b6000612fb182611ba7565b9150612fbc83611ba7565b9250817fffffffffffffffffffffffffffffffffffffffffffffffffffffffffffffffff0483118215151615612ff557612ff4612f77565b5b828202905092915050565b600061300b82611ba7565b915061301683611ba7565b9250827fffffffffffffffffffffffffffffffffffffffffffffffffffffffffffffffff0382111561304b5761304a612f77565b5b828201905092915050565b600061306182611ba7565b915061306c83611ba7565b92508282101561307f5761307e612f77565b5b828203905092915050565b7f4e487b7100000000000000000000000000000000000000000000000000000000600052603260045260246000fd5b60006130c482611ba7565b91507fffffffffffffffffffffffffffffffffffffffffffffffffffffffffffffffff8214156130f7576130f6612f77565b5b600182019050919050565b600060ff82169050919050565b60008160f81b9050919050565b60006131278261310f565b9050919050565b61313f61313a82613102565b61311c565b82525050565b600081905092915050565b600061315b82611ac2565b6131658185613145565b9350613175818560208601611ade565b80840191505092915050565b600061318d828661312e565b60018201915061319d828561312e565b6001820191506131ad8284613150565b9150819050949350505050565b60006131c6828561312e565b6001820191506131d68284613150565b91508190509392505050565b600082825260208201905092915050565b7f696e76616c6964206f7220756e737570706f72746564206c656e677468206f7060008201527f65726174696f6e00000000000000000000000000000000000000000000000000602082015250565b600061324f6027836131e2565b915061325a826131f3565b604082019050919050565b6000602082019050818103600083015261327e81613242565b9050919050565b60006132918286613150565b915061329d8285613150565b91506132a98284613150565b9150819050949350505050565b7f73686f756c64206e6f742072656163682074686973206c696e65000000000000600082015250565b60006132ec601a836131e2565b91506132f7826132b6565b602082019050919050565b6000602082019050818103600083015261331b816132df565b9050919050565b6000819050919050565b6000819050919050565b61334761334282613322565b61332c565b82525050565b60006133598284613336565b60208201915081905092915050565b60006133748284613150565b915081905092915050565b61338881613322565b811461339357600080fd5b50565b6000815190506133a58161337f565b92915050565b6000602082840312156133c1576133c06118f1565b5b60006133cf84828501613396565b91505092915050565b60007fffffffffffffffffffffffffffffffffffffffff00000000000000000000000082169050919050565b6000819050919050565b61341f61341a826133d8565b613404565b82525050565b6000613431828461340e565b60148201915081905092915050565b7f696e76616c6964206f7220756e737570706f727465642068617368206f70657260008201527f6174696f6e000000000000000000000000000000000000000000000000000000602082015250565b600061349c6025836131e2565b91506134a782613440565b604082019050919050565b600060208201905081810360008301526134cb8161348f565b905091905056fea26469706673582212201ec851a0c9bcab8f04d279224d5bfb164f1d296e5d7a9af9d36b920c7f9463dc64736f6c63430008090033",
  "immutableReferences": {},
  "source": "pragma solidity >=0.8.0;\n\ncontract ICS23 {\n    // Data structures and helper functions\n\n    enum HashOp {\n        NO_HASH,\n        SHA256,\n        SHA512,\n        KECCAK,\n        RIPEMD160,\n        BITCOIN\n    }\n    enum LengthOp {\n        NO_PREFIX,\n        VAR_PROTO,\n        VAR_RLP,\n        FIXED32_BIG,\n        FIXED32_LITTLE,\n        FIXED64_BIG,\n        FIXED64_LITTLE,\n        REQUIRE_32_BYTES,\n        REQUIRE_64_BYTES\n    }\n\n    struct ExistenceProof {\n        bool valid;\n        bytes key;\n        bytes value;\n        LeafOp leaf;\n        InnerOp[] path;\n    }\n\n    struct NonExistenceProof {\n        bool valid;\n        bytes key;\n        ExistenceProof left;\n        ExistenceProof right;\n    }\n\n    struct LeafOp {\n        bool valid;\n        HashOp hash;\n        HashOp prehash_key;\n        HashOp prehash_value;\n        LengthOp len;\n        bytes prefix;\n    }\n\n    struct InnerOp {\n        bool valid;\n        HashOp hash;\n        bytes prefix;\n        bytes suffix;\n    }\n\n    struct ProofSpec {\n        LeafOp leafSpec;\n        InnerSpec innerSpec;\n        uint256 maxDepth;\n        uint256 minDepth;\n    }\n\n    struct InnerSpec {\n        uint256[] childOrder;\n        uint256 childSize;\n        uint256 minPrefixLength;\n        uint256 maxPrefixLength;\n        bytes emptyChild;\n        HashOp hash;\n    }\n\n    function getIavlSpec() public pure returns (LeafOp memory) {\n        return\n            LeafOp(\n                true,\n                HashOp.SHA256,\n                HashOp.NO_HASH,\n                HashOp.SHA256,\n                LengthOp.VAR_PROTO,\n                hex\"00\"\n            );\n    }\n\n    enum Ordering {\n        LT,\n        EQ,\n        GT\n    }\n\n    function doHashOrNoop(HashOp op, bytes memory preimage)\n        public\n        pure\n        returns (bytes memory)\n    {\n        if (op == HashOp.NO_HASH) {\n            return preimage;\n        }\n        return doHash(op, preimage);\n    }\n\n    function doHash(HashOp op, bytes memory preimage)\n        public\n        pure\n        returns (bytes memory)\n    {\n        if (op == HashOp.KECCAK) {\n            return abi.encodePacked(keccak256(preimage));\n        }\n        if (op == HashOp.SHA256) {\n            return abi.encodePacked(sha256(preimage));\n        }\n        if (op == HashOp.RIPEMD160) {\n            return abi.encodePacked(ripemd160(preimage));\n        }\n        if (op == HashOp.BITCOIN) {\n            return\n                abi.encodePacked(ripemd160(abi.encodePacked(sha256(preimage))));\n        }\n        revert(\"invalid or unsupported hash operation\");\n    }\n\n    function doLength(LengthOp op, bytes memory data)\n        public\n        pure\n        returns (bytes memory)\n    {\n        if (op == LengthOp.NO_PREFIX) {\n            return data;\n        }\n        if (op == LengthOp.VAR_PROTO) {\n            uint256 l = data.length;\n            if (l >= 1 << 7) {\n                return\n                    abi.encodePacked(\n                        uint8((l & 0x7f) | 0x80),\n                        uint8(l >>= 7),\n                        data\n                    );\n            }\n            return abi.encodePacked(uint8(l), data);\n        }\n        if (op == LengthOp.REQUIRE_32_BYTES) {\n            require(data.length == 32);\n            return data;\n        }\n        if (op == LengthOp.REQUIRE_64_BYTES) {\n            require(data.length == 64);\n            return data;\n        }\n        revert(\"invalid or unsupported length operation\");\n    }\n\n    function prepareLeafData(\n        HashOp hashop,\n        LengthOp lengthop,\n        bytes memory data\n    ) public pure returns (bytes memory) {\n        bytes memory hashed = doHashOrNoop(hashop, data);\n        bytes memory result = doLength(lengthop, hashed);\n        return result;\n    }\n\n    function applyLeaf(\n        LeafOp memory op,\n        bytes memory key,\n        bytes memory value\n    ) public pure returns (bytes memory) {\n        require(key.length != 0);\n        require(value.length != 0);\n\n        bytes memory pkey = prepareLeafData(op.prehash_key, op.len, key);\n        bytes memory pvalue = prepareLeafData(op.prehash_value, op.len, value);\n\n        bytes memory data = abi.encodePacked(op.prefix, pkey, pvalue);\n        return doHash(op.hash, data);\n    }\n\n    function applyInner(InnerOp memory op, bytes memory child)\n        public\n        pure\n        returns (bytes memory)\n    {\n        require(child.length != 0);\n        bytes memory preimage = abi.encodePacked(op.prefix, child, op.suffix);\n        return doHash(op.hash, preimage);\n    }\n\n    function hasprefix(bytes memory s, bytes memory prefix)\n        public\n        pure\n        returns (bool)\n    {\n        for (uint256 i = 0; i < prefix.length; i++) {\n            if (s[i] != prefix[i]) {\n                return false;\n            }\n        }\n        return true;\n    }\n\n    function checkAgainstSpec(ExistenceProof memory proof, LeafOp memory spec)\n        public\n        pure\n        returns (bool)\n    {\n        if (\n            !(proof.leaf.hash == spec.hash &&\n                proof.leaf.prehash_key == spec.prehash_key &&\n                proof.leaf.prehash_value == spec.prehash_value &&\n                proof.leaf.len == spec.len &&\n                hasprefix(proof.leaf.prefix, spec.prefix))\n        ) {\n            return false;\n        }\n\n        for (uint256 i = 0; i < proof.path.length; i++) {\n            if (hasprefix(proof.path[i].prefix, spec.prefix)) {\n                return false;\n            }\n        }\n\n        return true;\n    }\n\n    function calculate(ExistenceProof memory proof)\n        public\n        pure\n        returns (bytes memory)\n    {\n        bytes memory res = applyLeaf(proof.leaf, proof.key, proof.value);\n        for (uint256 i = 0; i < proof.path.length; i++) {\n            res = applyInner(proof.path[i], res);\n        }\n        return res;\n    }\n\n    function verifyExistence(\n        ExistenceProof memory proof,\n        LeafOp memory spec,\n        bytes memory root,\n        bytes memory key,\n        bytes memory value\n    ) public pure returns (bool) {\n        return (checkAgainstSpec(proof, spec) &&\n            equalBytes(key, proof.key) &&\n            equalBytes(value, proof.value) &&\n            equalBytes(calculate(proof), root));\n    }\n\n    function verifyNonExistence(\n        NonExistenceProof memory proof,\n        ProofSpec memory spec,\n        bytes memory root,\n        bytes memory key\n    ) public pure returns (bool) {\n        if (!proof.left.valid && !proof.right.valid) {\n            return false;\n        }\n        if (proof.left.valid) {\n            if (\n                !verifyExistence(\n                    proof.left,\n                    spec.leafSpec,\n                    root,\n                    proof.left.key,\n                    proof.left.value\n                )\n            ) {\n                return false;\n            }\n            if (compareBytes(key, proof.right.key) != Ordering.LT) {\n                return false;\n            }\n        }\n        if (proof.right.valid) {\n            if (\n                !verifyExistence(\n                    proof.right,\n                    spec.leafSpec,\n                    root,\n                    proof.right.key,\n                    proof.right.value\n                )\n            ) {\n                return false;\n            }\n            if (compareBytes(key, proof.left.key) != Ordering.GT) {\n                return false;\n            }\n        }\n\n        if (!proof.left.valid) {\n            if (!isLeftMost(spec.innerSpec, proof.right.path)) {\n                return false;\n            }\n        } else if (!proof.right.valid) {\n            if (!isRightMost(spec.innerSpec, proof.left.path)) {\n                return false;\n            }\n        } else {\n            if (\n                !isLeftNeighbor(\n                    spec.innerSpec,\n                    proof.left.path,\n                    proof.right.path\n                )\n            ) {\n                return false;\n            }\n        }\n\n        return true;\n    }\n\n    function orderFromPadding(InnerSpec memory spec, InnerOp memory op)\n        public\n        pure\n        returns (uint256)\n    {\n        uint256 maxBranch = spec.childOrder.length;\n\n        for (uint256 branch = 0; branch < maxBranch; branch++) {\n            (uint256 minPrefix, uint256 maxPrefix, uint256 suffix) = getPadding(\n                spec,\n                branch\n            );\n            if (hasPadding(op, minPrefix, maxPrefix, suffix)) {\n                return branch;\n            }\n        }\n\n        revert();\n    }\n\n    function isLeftStep(\n        InnerSpec memory spec,\n        InnerOp memory left,\n        InnerOp memory right\n    ) public pure returns (bool) {\n        uint256 leftidx = orderFromPadding(spec, left);\n        uint256 rightidx = orderFromPadding(spec, right);\n        return leftidx + 1 == rightidx;\n    }\n\n    function isLeftMost(InnerSpec memory spec, InnerOp[] memory path)\n        public\n        pure\n        returns (bool)\n    {\n        (uint256 minPrefix, uint256 maxPrefix, uint256 suffix) = getPadding(\n            spec,\n            0\n        );\n\n        for (uint256 i = 0; i < path.length; i++) {\n            if (!hasPadding(path[i], minPrefix, maxPrefix, suffix)) {\n                return false;\n            }\n        }\n        return true;\n    }\n\n    function isRightMost(InnerSpec memory spec, InnerOp[] memory path)\n        public\n        pure\n        returns (bool)\n    {\n        uint256 last = spec.childOrder.length - 1;\n        (uint256 minPrefix, uint256 maxPrefix, uint256 suffix) = getPadding(\n            spec,\n            last\n        );\n\n        for (uint256 i = 0; i < path.length; i++) {\n            if (!hasPadding(path[i], minPrefix, maxPrefix, suffix)) {\n                return false;\n            }\n        }\n        return true;\n    }\n\n    function isLeftNeighbor(\n        InnerSpec memory spec,\n        InnerOp[] memory left,\n        InnerOp[] memory right\n    ) public pure returns (bool) {\n        uint256 top = 1;\n        for (\n            ;\n            equalBytes(\n                left[left.length - top].prefix,\n                right[right.length - top].prefix\n            ) &&\n                equalBytes(\n                    left[left.length - top].suffix,\n                    right[right.length - top].suffix\n                );\n            top++\n        ) {}\n\n        InnerOp memory topLeft = left[left.length - top];\n        InnerOp memory topRight = right[right.length - top];\n\n        if (!isLeftStep(spec, topLeft, topRight)) {\n            return false;\n        }\n\n        if (!isRightMost(spec, left)) {\n            return false;\n        }\n\n        if (!isLeftMost(spec, right)) {\n            return false;\n        }\n\n        return true;\n    }\n\n    function getPosition(uint256[] memory order, uint256 branch)\n        public\n        pure\n        returns (uint256)\n    {\n        require(branch < order.length);\n        for (uint256 i = 0; i < order.length; i++) {\n            if (order[i] == branch) {\n                return i;\n            }\n        }\n        revert();\n    }\n\n    function hasPadding(\n        InnerOp memory op,\n        uint256 minPrefix,\n        uint256 maxPrefix,\n        uint256 suffix\n    ) public pure returns (bool) {\n        if (op.prefix.length < minPrefix) {\n            return false;\n        }\n        if (op.prefix.length > maxPrefix) {\n            return false;\n        }\n        return op.suffix.length == suffix;\n    }\n\n    function getPadding(InnerSpec memory spec, uint256 branch)\n        public\n        pure\n        returns (\n            uint256,\n            uint256,\n            uint256\n        )\n    {\n        uint256 idx = getPosition(spec.childOrder, branch);\n\n        uint256 prefix = idx * spec.childSize;\n        uint256 minPrefix = prefix + spec.minPrefixLength;\n        uint256 maxPrefix = prefix + spec.maxPrefixLength;\n\n        uint256 suffix = (spec.childOrder.length - 1 - idx) * spec.childSize;\n\n        return (minPrefix, maxPrefix, suffix);\n    }\n\n    function equalBytes(bytes memory bz1, bytes memory bz2)\n        public\n        pure\n        returns (bool)\n    {\n        if (bz1.length != bz2.length) {\n            return false;\n        }\n        for (uint256 i = 0; i < bz1.length; i++) {\n            if (bz1[i] != bz2[i]) {\n                return false;\n            }\n        }\n        return true;\n    }\n\n    function compareBytes(bytes memory bz1, bytes memory bz2)\n        public\n        pure\n        returns (Ordering)\n    {\n        for (uint256 i = 0; i < bz1.length && i < bz2.length; i++) {\n            if (bz1[i] < bz2[i]) {\n                return Ordering.LT;\n            }\n            if (bz1[i] > bz2[i]) {\n                return Ordering.GT;\n            }\n        }\n        if (bz1.length == bz2.length) {\n            return Ordering.EQ;\n        }\n        if (bz1.length < bz2.length) {\n            return Ordering.LT;\n        }\n        if (bz1.length > bz2.length) {\n            return Ordering.GT;\n        }\n        revert(\"should not reach this line\");\n    }\n\n    // ICS23 interface implementation\n\n    // verifyMembership is synonym for verifyExistence\n    function verifyMembership(\n        LeafOp memory spec,\n        bytes memory root,\n        ExistenceProof memory proof,\n        bytes memory key,\n        bytes memory value\n    ) public pure returns (bool) {\n        return verifyExistence(proof, spec, root, key, value);\n    }\n\n    function verifyNonMembership(\n        ProofSpec memory spec,\n        bytes memory root,\n        NonExistenceProof memory proof,\n        bytes memory key\n    ) public pure returns (bool) {\n        return verifyNonExistence(proof, spec, root, key);\n    }\n}\n",
  "sourcePath": "/home/dallant/Code/ancon-protocol/ethereum/contracts/ancon/ics23.sol",
  "compiler": {
    "name": "solc",
    "version": "0.8.9+commit.e5eed63a.Emscripten.clang"
  },
  "schemaVersion": "3.4.3",
  "updatedAt": "2021-10-19T14:38:31.754Z",
  "networkType": "ethereum",
  "devdoc": {
    "kind": "dev",
    "methods": {},
    "version": 1
  },
  "userdoc": {
    "kind": "user",
    "methods": {},
    "version": 1
  }
}