{
  "contractName": "ICS23",
  "abi": [
    {
      "inputs": [],
      "name": "getIavlSpec",
      "outputs": [
        {
          "components": [
            {
              "internalType": "bool",
              "name": "valid",
              "type": "bool"
            },
            {
              "internalType": "enum ICS23.HashOp",
              "name": "hash",
              "type": "ICS23.HashOp"
            },
            {
              "internalType": "enum ICS23.HashOp",
              "name": "prehash_key",
              "type": "ICS23.HashOp"
            },
            {
              "internalType": "enum ICS23.HashOp",
              "name": "prehash_value",
              "type": "ICS23.HashOp"
            },
            {
              "internalType": "enum ICS23.LengthOp",
              "name": "len",
              "type": "ICS23.LengthOp"
            },
            {
              "internalType": "bytes",
              "name": "prefix",
              "type": "bytes"
            }
          ],
          "internalType": "struct ICS23.LeafOp",
          "name": "",
          "type": "tuple"
        }
      ],
      "stateMutability": "pure",
      "type": "function",
      "constant": true
    },
    {
      "inputs": [
        {
          "internalType": "enum ICS23.HashOp",
          "name": "op",
          "type": "ICS23.HashOp"
        },
        {
          "internalType": "bytes",
          "name": "preimage",
          "type": "bytes"
        }
      ],
      "name": "doHashOrNoop",
      "outputs": [
        {
          "internalType": "bytes",
          "name": "",
          "type": "bytes"
        }
      ],
      "stateMutability": "pure",
      "type": "function",
      "constant": true
    },
    {
      "inputs": [
        {
          "internalType": "enum ICS23.HashOp",
          "name": "op",
          "type": "ICS23.HashOp"
        },
        {
          "internalType": "bytes",
          "name": "preimage",
          "type": "bytes"
        }
      ],
      "name": "doHash",
      "outputs": [
        {
          "internalType": "bytes",
          "name": "",
          "type": "bytes"
        }
      ],
      "stateMutability": "pure",
      "type": "function",
      "constant": true
    },
    {
      "inputs": [
        {
          "internalType": "enum ICS23.LengthOp",
          "name": "op",
          "type": "ICS23.LengthOp"
        },
        {
          "internalType": "bytes",
          "name": "data",
          "type": "bytes"
        }
      ],
      "name": "doLength",
      "outputs": [
        {
          "internalType": "bytes",
          "name": "",
          "type": "bytes"
        }
      ],
      "stateMutability": "pure",
      "type": "function",
      "constant": true
    },
    {
      "inputs": [
        {
          "internalType": "enum ICS23.HashOp",
          "name": "hashop",
          "type": "ICS23.HashOp"
        },
        {
          "internalType": "enum ICS23.LengthOp",
          "name": "lengthop",
          "type": "ICS23.LengthOp"
        },
        {
          "internalType": "bytes",
          "name": "data",
          "type": "bytes"
        }
      ],
      "name": "prepareLeafData",
      "outputs": [
        {
          "internalType": "bytes",
          "name": "",
          "type": "bytes"
        }
      ],
      "stateMutability": "pure",
      "type": "function",
      "constant": true
    },
    {
      "inputs": [
        {
          "components": [
            {
              "internalType": "bool",
              "name": "valid",
              "type": "bool"
            },
            {
              "internalType": "enum ICS23.HashOp",
              "name": "hash",
              "type": "ICS23.HashOp"
            },
            {
              "internalType": "enum ICS23.HashOp",
              "name": "prehash_key",
              "type": "ICS23.HashOp"
            },
            {
              "internalType": "enum ICS23.HashOp",
              "name": "prehash_value",
              "type": "ICS23.HashOp"
            },
            {
              "internalType": "enum ICS23.LengthOp",
              "name": "len",
              "type": "ICS23.LengthOp"
            },
            {
              "internalType": "bytes",
              "name": "prefix",
              "type": "bytes"
            }
          ],
          "internalType": "struct ICS23.LeafOp",
          "name": "op",
          "type": "tuple"
        },
        {
          "internalType": "bytes",
          "name": "key",
          "type": "bytes"
        },
        {
          "internalType": "bytes",
          "name": "value",
          "type": "bytes"
        }
      ],
      "name": "applyLeaf",
      "outputs": [
        {
          "internalType": "bytes",
          "name": "",
          "type": "bytes"
        }
      ],
      "stateMutability": "pure",
      "type": "function",
      "constant": true
    },
    {
      "inputs": [
        {
          "components": [
            {
              "internalType": "bool",
              "name": "valid",
              "type": "bool"
            },
            {
              "internalType": "enum ICS23.HashOp",
              "name": "hash",
              "type": "ICS23.HashOp"
            },
            {
              "internalType": "bytes",
              "name": "prefix",
              "type": "bytes"
            },
            {
              "internalType": "bytes",
              "name": "suffix",
              "type": "bytes"
            }
          ],
          "internalType": "struct ICS23.InnerOp",
          "name": "op",
          "type": "tuple"
        },
        {
          "internalType": "bytes",
          "name": "child",
          "type": "bytes"
        }
      ],
      "name": "applyInner",
      "outputs": [
        {
          "internalType": "bytes",
          "name": "",
          "type": "bytes"
        }
      ],
      "stateMutability": "pure",
      "type": "function",
      "constant": true
    },
    {
      "inputs": [
        {
          "internalType": "bytes",
          "name": "s",
          "type": "bytes"
        },
        {
          "internalType": "bytes",
          "name": "prefix",
          "type": "bytes"
        }
      ],
      "name": "hasprefix",
      "outputs": [
        {
          "internalType": "bool",
          "name": "",
          "type": "bool"
        }
      ],
      "stateMutability": "pure",
      "type": "function",
      "constant": true
    },
    {
      "inputs": [
        {
          "components": [
            {
              "internalType": "bool",
              "name": "valid",
              "type": "bool"
            },
            {
              "internalType": "bytes",
              "name": "key",
              "type": "bytes"
            },
            {
              "internalType": "bytes",
              "name": "value",
              "type": "bytes"
            },
            {
              "components": [
                {
                  "internalType": "bool",
                  "name": "valid",
                  "type": "bool"
                },
                {
                  "internalType": "enum ICS23.HashOp",
                  "name": "hash",
                  "type": "ICS23.HashOp"
                },
                {
                  "internalType": "enum ICS23.HashOp",
                  "name": "prehash_key",
                  "type": "ICS23.HashOp"
                },
                {
                  "internalType": "enum ICS23.HashOp",
                  "name": "prehash_value",
                  "type": "ICS23.HashOp"
                },
                {
                  "internalType": "enum ICS23.LengthOp",
                  "name": "len",
                  "type": "ICS23.LengthOp"
                },
                {
                  "internalType": "bytes",
                  "name": "prefix",
                  "type": "bytes"
                }
              ],
              "internalType": "struct ICS23.LeafOp",
              "name": "leaf",
              "type": "tuple"
            },
            {
              "components": [
                {
                  "internalType": "bool",
                  "name": "valid",
                  "type": "bool"
                },
                {
                  "internalType": "enum ICS23.HashOp",
                  "name": "hash",
                  "type": "ICS23.HashOp"
                },
                {
                  "internalType": "bytes",
                  "name": "prefix",
                  "type": "bytes"
                },
                {
                  "internalType": "bytes",
                  "name": "suffix",
                  "type": "bytes"
                }
              ],
              "internalType": "struct ICS23.InnerOp[]",
              "name": "path",
              "type": "tuple[]"
            }
          ],
          "internalType": "struct ICS23.ExistenceProof",
          "name": "proof",
          "type": "tuple"
        },
        {
          "components": [
            {
              "internalType": "bool",
              "name": "valid",
              "type": "bool"
            },
            {
              "internalType": "enum ICS23.HashOp",
              "name": "hash",
              "type": "ICS23.HashOp"
            },
            {
              "internalType": "enum ICS23.HashOp",
              "name": "prehash_key",
              "type": "ICS23.HashOp"
            },
            {
              "internalType": "enum ICS23.HashOp",
              "name": "prehash_value",
              "type": "ICS23.HashOp"
            },
            {
              "internalType": "enum ICS23.LengthOp",
              "name": "len",
              "type": "ICS23.LengthOp"
            },
            {
              "internalType": "bytes",
              "name": "prefix",
              "type": "bytes"
            }
          ],
          "internalType": "struct ICS23.LeafOp",
          "name": "spec",
          "type": "tuple"
        }
      ],
      "name": "checkAgainstSpec",
      "outputs": [
        {
          "internalType": "bool",
          "name": "",
          "type": "bool"
        }
      ],
      "stateMutability": "pure",
      "type": "function",
      "constant": true
    },
    {
      "inputs": [
        {
          "components": [
            {
              "internalType": "bool",
              "name": "valid",
              "type": "bool"
            },
            {
              "internalType": "bytes",
              "name": "key",
              "type": "bytes"
            },
            {
              "internalType": "bytes",
              "name": "value",
              "type": "bytes"
            },
            {
              "components": [
                {
                  "internalType": "bool",
                  "name": "valid",
                  "type": "bool"
                },
                {
                  "internalType": "enum ICS23.HashOp",
                  "name": "hash",
                  "type": "ICS23.HashOp"
                },
                {
                  "internalType": "enum ICS23.HashOp",
                  "name": "prehash_key",
                  "type": "ICS23.HashOp"
                },
                {
                  "internalType": "enum ICS23.HashOp",
                  "name": "prehash_value",
                  "type": "ICS23.HashOp"
                },
                {
                  "internalType": "enum ICS23.LengthOp",
                  "name": "len",
                  "type": "ICS23.LengthOp"
                },
                {
                  "internalType": "bytes",
                  "name": "prefix",
                  "type": "bytes"
                }
              ],
              "internalType": "struct ICS23.LeafOp",
              "name": "leaf",
              "type": "tuple"
            },
            {
              "components": [
                {
                  "internalType": "bool",
                  "name": "valid",
                  "type": "bool"
                },
                {
                  "internalType": "enum ICS23.HashOp",
                  "name": "hash",
                  "type": "ICS23.HashOp"
                },
                {
                  "internalType": "bytes",
                  "name": "prefix",
                  "type": "bytes"
                },
                {
                  "internalType": "bytes",
                  "name": "suffix",
                  "type": "bytes"
                }
              ],
              "internalType": "struct ICS23.InnerOp[]",
              "name": "path",
              "type": "tuple[]"
            }
          ],
          "internalType": "struct ICS23.ExistenceProof",
          "name": "proof",
          "type": "tuple"
        }
      ],
      "name": "calculate",
      "outputs": [
        {
          "internalType": "bytes",
          "name": "",
          "type": "bytes"
        }
      ],
      "stateMutability": "pure",
      "type": "function",
      "constant": true
    },
    {
      "inputs": [
        {
          "components": [
            {
              "internalType": "bool",
              "name": "valid",
              "type": "bool"
            },
            {
              "internalType": "bytes",
              "name": "key",
              "type": "bytes"
            },
            {
              "internalType": "bytes",
              "name": "value",
              "type": "bytes"
            },
            {
              "components": [
                {
                  "internalType": "bool",
                  "name": "valid",
                  "type": "bool"
                },
                {
                  "internalType": "enum ICS23.HashOp",
                  "name": "hash",
                  "type": "ICS23.HashOp"
                },
                {
                  "internalType": "enum ICS23.HashOp",
                  "name": "prehash_key",
                  "type": "ICS23.HashOp"
                },
                {
                  "internalType": "enum ICS23.HashOp",
                  "name": "prehash_value",
                  "type": "ICS23.HashOp"
                },
                {
                  "internalType": "enum ICS23.LengthOp",
                  "name": "len",
                  "type": "ICS23.LengthOp"
                },
                {
                  "internalType": "bytes",
                  "name": "prefix",
                  "type": "bytes"
                }
              ],
              "internalType": "struct ICS23.LeafOp",
              "name": "leaf",
              "type": "tuple"
            },
            {
              "components": [
                {
                  "internalType": "bool",
                  "name": "valid",
                  "type": "bool"
                },
                {
                  "internalType": "enum ICS23.HashOp",
                  "name": "hash",
                  "type": "ICS23.HashOp"
                },
                {
                  "internalType": "bytes",
                  "name": "prefix",
                  "type": "bytes"
                },
                {
                  "internalType": "bytes",
                  "name": "suffix",
                  "type": "bytes"
                }
              ],
              "internalType": "struct ICS23.InnerOp[]",
              "name": "path",
              "type": "tuple[]"
            }
          ],
          "internalType": "struct ICS23.ExistenceProof",
          "name": "proof",
          "type": "tuple"
        },
        {
          "components": [
            {
              "internalType": "bool",
              "name": "valid",
              "type": "bool"
            },
            {
              "internalType": "enum ICS23.HashOp",
              "name": "hash",
              "type": "ICS23.HashOp"
            },
            {
              "internalType": "enum ICS23.HashOp",
              "name": "prehash_key",
              "type": "ICS23.HashOp"
            },
            {
              "internalType": "enum ICS23.HashOp",
              "name": "prehash_value",
              "type": "ICS23.HashOp"
            },
            {
              "internalType": "enum ICS23.LengthOp",
              "name": "len",
              "type": "ICS23.LengthOp"
            },
            {
              "internalType": "bytes",
              "name": "prefix",
              "type": "bytes"
            }
          ],
          "internalType": "struct ICS23.LeafOp",
          "name": "spec",
          "type": "tuple"
        },
        {
          "internalType": "bytes",
          "name": "root",
          "type": "bytes"
        },
        {
          "internalType": "bytes",
          "name": "key",
          "type": "bytes"
        },
        {
          "internalType": "bytes",
          "name": "value",
          "type": "bytes"
        }
      ],
      "name": "verifyExistence",
      "outputs": [
        {
          "internalType": "bool",
          "name": "",
          "type": "bool"
        }
      ],
      "stateMutability": "pure",
      "type": "function",
      "constant": true
    },
    {
      "inputs": [
        {
          "components": [
            {
              "internalType": "bool",
              "name": "valid",
              "type": "bool"
            },
            {
              "internalType": "bytes",
              "name": "key",
              "type": "bytes"
            },
            {
              "components": [
                {
                  "internalType": "bool",
                  "name": "valid",
                  "type": "bool"
                },
                {
                  "internalType": "bytes",
                  "name": "key",
                  "type": "bytes"
                },
                {
                  "internalType": "bytes",
                  "name": "value",
                  "type": "bytes"
                },
                {
                  "components": [
                    {
                      "internalType": "bool",
                      "name": "valid",
                      "type": "bool"
                    },
                    {
                      "internalType": "enum ICS23.HashOp",
                      "name": "hash",
                      "type": "ICS23.HashOp"
                    },
                    {
                      "internalType": "enum ICS23.HashOp",
                      "name": "prehash_key",
                      "type": "ICS23.HashOp"
                    },
                    {
                      "internalType": "enum ICS23.HashOp",
                      "name": "prehash_value",
                      "type": "ICS23.HashOp"
                    },
                    {
                      "internalType": "enum ICS23.LengthOp",
                      "name": "len",
                      "type": "ICS23.LengthOp"
                    },
                    {
                      "internalType": "bytes",
                      "name": "prefix",
                      "type": "bytes"
                    }
                  ],
                  "internalType": "struct ICS23.LeafOp",
                  "name": "leaf",
                  "type": "tuple"
                },
                {
                  "components": [
                    {
                      "internalType": "bool",
                      "name": "valid",
                      "type": "bool"
                    },
                    {
                      "internalType": "enum ICS23.HashOp",
                      "name": "hash",
                      "type": "ICS23.HashOp"
                    },
                    {
                      "internalType": "bytes",
                      "name": "prefix",
                      "type": "bytes"
                    },
                    {
                      "internalType": "bytes",
                      "name": "suffix",
                      "type": "bytes"
                    }
                  ],
                  "internalType": "struct ICS23.InnerOp[]",
                  "name": "path",
                  "type": "tuple[]"
                }
              ],
              "internalType": "struct ICS23.ExistenceProof",
              "name": "left",
              "type": "tuple"
            },
            {
              "components": [
                {
                  "internalType": "bool",
                  "name": "valid",
                  "type": "bool"
                },
                {
                  "internalType": "bytes",
                  "name": "key",
                  "type": "bytes"
                },
                {
                  "internalType": "bytes",
                  "name": "value",
                  "type": "bytes"
                },
                {
                  "components": [
                    {
                      "internalType": "bool",
                      "name": "valid",
                      "type": "bool"
                    },
                    {
                      "internalType": "enum ICS23.HashOp",
                      "name": "hash",
                      "type": "ICS23.HashOp"
                    },
                    {
                      "internalType": "enum ICS23.HashOp",
                      "name": "prehash_key",
                      "type": "ICS23.HashOp"
                    },
                    {
                      "internalType": "enum ICS23.HashOp",
                      "name": "prehash_value",
                      "type": "ICS23.HashOp"
                    },
                    {
                      "internalType": "enum ICS23.LengthOp",
                      "name": "len",
                      "type": "ICS23.LengthOp"
                    },
                    {
                      "internalType": "bytes",
                      "name": "prefix",
                      "type": "bytes"
                    }
                  ],
                  "internalType": "struct ICS23.LeafOp",
                  "name": "leaf",
                  "type": "tuple"
                },
                {
                  "components": [
                    {
                      "internalType": "bool",
                      "name": "valid",
                      "type": "bool"
                    },
                    {
                      "internalType": "enum ICS23.HashOp",
                      "name": "hash",
                      "type": "ICS23.HashOp"
                    },
                    {
                      "internalType": "bytes",
                      "name": "prefix",
                      "type": "bytes"
                    },
                    {
                      "internalType": "bytes",
                      "name": "suffix",
                      "type": "bytes"
                    }
                  ],
                  "internalType": "struct ICS23.InnerOp[]",
                  "name": "path",
                  "type": "tuple[]"
                }
              ],
              "internalType": "struct ICS23.ExistenceProof",
              "name": "right",
              "type": "tuple"
            }
          ],
          "internalType": "struct ICS23.NonExistenceProof",
          "name": "proof",
          "type": "tuple"
        },
        {
          "components": [
            {
              "components": [
                {
                  "internalType": "bool",
                  "name": "valid",
                  "type": "bool"
                },
                {
                  "internalType": "enum ICS23.HashOp",
                  "name": "hash",
                  "type": "ICS23.HashOp"
                },
                {
                  "internalType": "enum ICS23.HashOp",
                  "name": "prehash_key",
                  "type": "ICS23.HashOp"
                },
                {
                  "internalType": "enum ICS23.HashOp",
                  "name": "prehash_value",
                  "type": "ICS23.HashOp"
                },
                {
                  "internalType": "enum ICS23.LengthOp",
                  "name": "len",
                  "type": "ICS23.LengthOp"
                },
                {
                  "internalType": "bytes",
                  "name": "prefix",
                  "type": "bytes"
                }
              ],
              "internalType": "struct ICS23.LeafOp",
              "name": "leafSpec",
              "type": "tuple"
            },
            {
              "components": [
                {
                  "internalType": "uint256[]",
                  "name": "childOrder",
                  "type": "uint256[]"
                },
                {
                  "internalType": "uint256",
                  "name": "childSize",
                  "type": "uint256"
                },
                {
                  "internalType": "uint256",
                  "name": "minPrefixLength",
                  "type": "uint256"
                },
                {
                  "internalType": "uint256",
                  "name": "maxPrefixLength",
                  "type": "uint256"
                },
                {
                  "internalType": "bytes",
                  "name": "emptyChild",
                  "type": "bytes"
                },
                {
                  "internalType": "enum ICS23.HashOp",
                  "name": "hash",
                  "type": "ICS23.HashOp"
                }
              ],
              "internalType": "struct ICS23.InnerSpec",
              "name": "innerSpec",
              "type": "tuple"
            },
            {
              "internalType": "uint256",
              "name": "maxDepth",
              "type": "uint256"
            },
            {
              "internalType": "uint256",
              "name": "minDepth",
              "type": "uint256"
            }
          ],
          "internalType": "struct ICS23.ProofSpec",
          "name": "spec",
          "type": "tuple"
        },
        {
          "internalType": "bytes",
          "name": "root",
          "type": "bytes"
        },
        {
          "internalType": "bytes",
          "name": "key",
          "type": "bytes"
        }
      ],
      "name": "verifyNonExistence",
      "outputs": [
        {
          "internalType": "bool",
          "name": "",
          "type": "bool"
        }
      ],
      "stateMutability": "pure",
      "type": "function",
      "constant": true
    },
    {
      "inputs": [
        {
          "components": [
            {
              "internalType": "uint256[]",
              "name": "childOrder",
              "type": "uint256[]"
            },
            {
              "internalType": "uint256",
              "name": "childSize",
              "type": "uint256"
            },
            {
              "internalType": "uint256",
              "name": "minPrefixLength",
              "type": "uint256"
            },
            {
              "internalType": "uint256",
              "name": "maxPrefixLength",
              "type": "uint256"
            },
            {
              "internalType": "bytes",
              "name": "emptyChild",
              "type": "bytes"
            },
            {
              "internalType": "enum ICS23.HashOp",
              "name": "hash",
              "type": "ICS23.HashOp"
            }
          ],
          "internalType": "struct ICS23.InnerSpec",
          "name": "spec",
          "type": "tuple"
        },
        {
          "components": [
            {
              "internalType": "bool",
              "name": "valid",
              "type": "bool"
            },
            {
              "internalType": "enum ICS23.HashOp",
              "name": "hash",
              "type": "ICS23.HashOp"
            },
            {
              "internalType": "bytes",
              "name": "prefix",
              "type": "bytes"
            },
            {
              "internalType": "bytes",
              "name": "suffix",
              "type": "bytes"
            }
          ],
          "internalType": "struct ICS23.InnerOp",
          "name": "op",
          "type": "tuple"
        }
      ],
      "name": "orderFromPadding",
      "outputs": [
        {
          "internalType": "uint256",
          "name": "",
          "type": "uint256"
        }
      ],
      "stateMutability": "pure",
      "type": "function",
      "constant": true
    },
    {
      "inputs": [
        {
          "components": [
            {
              "internalType": "uint256[]",
              "name": "childOrder",
              "type": "uint256[]"
            },
            {
              "internalType": "uint256",
              "name": "childSize",
              "type": "uint256"
            },
            {
              "internalType": "uint256",
              "name": "minPrefixLength",
              "type": "uint256"
            },
            {
              "internalType": "uint256",
              "name": "maxPrefixLength",
              "type": "uint256"
            },
            {
              "internalType": "bytes",
              "name": "emptyChild",
              "type": "bytes"
            },
            {
              "internalType": "enum ICS23.HashOp",
              "name": "hash",
              "type": "ICS23.HashOp"
            }
          ],
          "internalType": "struct ICS23.InnerSpec",
          "name": "spec",
          "type": "tuple"
        },
        {
          "components": [
            {
              "internalType": "bool",
              "name": "valid",
              "type": "bool"
            },
            {
              "internalType": "enum ICS23.HashOp",
              "name": "hash",
              "type": "ICS23.HashOp"
            },
            {
              "internalType": "bytes",
              "name": "prefix",
              "type": "bytes"
            },
            {
              "internalType": "bytes",
              "name": "suffix",
              "type": "bytes"
            }
          ],
          "internalType": "struct ICS23.InnerOp",
          "name": "left",
          "type": "tuple"
        },
        {
          "components": [
            {
              "internalType": "bool",
              "name": "valid",
              "type": "bool"
            },
            {
              "internalType": "enum ICS23.HashOp",
              "name": "hash",
              "type": "ICS23.HashOp"
            },
            {
              "internalType": "bytes",
              "name": "prefix",
              "type": "bytes"
            },
            {
              "internalType": "bytes",
              "name": "suffix",
              "type": "bytes"
            }
          ],
          "internalType": "struct ICS23.InnerOp",
          "name": "right",
          "type": "tuple"
        }
      ],
      "name": "isLeftStep",
      "outputs": [
        {
          "internalType": "bool",
          "name": "",
          "type": "bool"
        }
      ],
      "stateMutability": "pure",
      "type": "function",
      "constant": true
    },
    {
      "inputs": [
        {
          "components": [
            {
              "internalType": "uint256[]",
              "name": "childOrder",
              "type": "uint256[]"
            },
            {
              "internalType": "uint256",
              "name": "childSize",
              "type": "uint256"
            },
            {
              "internalType": "uint256",
              "name": "minPrefixLength",
              "type": "uint256"
            },
            {
              "internalType": "uint256",
              "name": "maxPrefixLength",
              "type": "uint256"
            },
            {
              "internalType": "bytes",
              "name": "emptyChild",
              "type": "bytes"
            },
            {
              "internalType": "enum ICS23.HashOp",
              "name": "hash",
              "type": "ICS23.HashOp"
            }
          ],
          "internalType": "struct ICS23.InnerSpec",
          "name": "spec",
          "type": "tuple"
        },
        {
          "components": [
            {
              "internalType": "bool",
              "name": "valid",
              "type": "bool"
            },
            {
              "internalType": "enum ICS23.HashOp",
              "name": "hash",
              "type": "ICS23.HashOp"
            },
            {
              "internalType": "bytes",
              "name": "prefix",
              "type": "bytes"
            },
            {
              "internalType": "bytes",
              "name": "suffix",
              "type": "bytes"
            }
          ],
          "internalType": "struct ICS23.InnerOp[]",
          "name": "path",
          "type": "tuple[]"
        }
      ],
      "name": "isLeftMost",
      "outputs": [
        {
          "internalType": "bool",
          "name": "",
          "type": "bool"
        }
      ],
      "stateMutability": "pure",
      "type": "function",
      "constant": true
    },
    {
      "inputs": [
        {
          "components": [
            {
              "internalType": "uint256[]",
              "name": "childOrder",
              "type": "uint256[]"
            },
            {
              "internalType": "uint256",
              "name": "childSize",
              "type": "uint256"
            },
            {
              "internalType": "uint256",
              "name": "minPrefixLength",
              "type": "uint256"
            },
            {
              "internalType": "uint256",
              "name": "maxPrefixLength",
              "type": "uint256"
            },
            {
              "internalType": "bytes",
              "name": "emptyChild",
              "type": "bytes"
            },
            {
              "internalType": "enum ICS23.HashOp",
              "name": "hash",
              "type": "ICS23.HashOp"
            }
          ],
          "internalType": "struct ICS23.InnerSpec",
          "name": "spec",
          "type": "tuple"
        },
        {
          "components": [
            {
              "internalType": "bool",
              "name": "valid",
              "type": "bool"
            },
            {
              "internalType": "enum ICS23.HashOp",
              "name": "hash",
              "type": "ICS23.HashOp"
            },
            {
              "internalType": "bytes",
              "name": "prefix",
              "type": "bytes"
            },
            {
              "internalType": "bytes",
              "name": "suffix",
              "type": "bytes"
            }
          ],
          "internalType": "struct ICS23.InnerOp[]",
          "name": "path",
          "type": "tuple[]"
        }
      ],
      "name": "isRightMost",
      "outputs": [
        {
          "internalType": "bool",
          "name": "",
          "type": "bool"
        }
      ],
      "stateMutability": "pure",
      "type": "function",
      "constant": true
    },
    {
      "inputs": [
        {
          "components": [
            {
              "internalType": "uint256[]",
              "name": "childOrder",
              "type": "uint256[]"
            },
            {
              "internalType": "uint256",
              "name": "childSize",
              "type": "uint256"
            },
            {
              "internalType": "uint256",
              "name": "minPrefixLength",
              "type": "uint256"
            },
            {
              "internalType": "uint256",
              "name": "maxPrefixLength",
              "type": "uint256"
            },
            {
              "internalType": "bytes",
              "name": "emptyChild",
              "type": "bytes"
            },
            {
              "internalType": "enum ICS23.HashOp",
              "name": "hash",
              "type": "ICS23.HashOp"
            }
          ],
          "internalType": "struct ICS23.InnerSpec",
          "name": "spec",
          "type": "tuple"
        },
        {
          "components": [
            {
              "internalType": "bool",
              "name": "valid",
              "type": "bool"
            },
            {
              "internalType": "enum ICS23.HashOp",
              "name": "hash",
              "type": "ICS23.HashOp"
            },
            {
              "internalType": "bytes",
              "name": "prefix",
              "type": "bytes"
            },
            {
              "internalType": "bytes",
              "name": "suffix",
              "type": "bytes"
            }
          ],
          "internalType": "struct ICS23.InnerOp[]",
          "name": "left",
          "type": "tuple[]"
        },
        {
          "components": [
            {
              "internalType": "bool",
              "name": "valid",
              "type": "bool"
            },
            {
              "internalType": "enum ICS23.HashOp",
              "name": "hash",
              "type": "ICS23.HashOp"
            },
            {
              "internalType": "bytes",
              "name": "prefix",
              "type": "bytes"
            },
            {
              "internalType": "bytes",
              "name": "suffix",
              "type": "bytes"
            }
          ],
          "internalType": "struct ICS23.InnerOp[]",
          "name": "right",
          "type": "tuple[]"
        }
      ],
      "name": "isLeftNeighbor",
      "outputs": [
        {
          "internalType": "bool",
          "name": "",
          "type": "bool"
        }
      ],
      "stateMutability": "pure",
      "type": "function",
      "constant": true
    },
    {
      "inputs": [
        {
          "internalType": "uint256[]",
          "name": "order",
          "type": "uint256[]"
        },
        {
          "internalType": "uint256",
          "name": "branch",
          "type": "uint256"
        }
      ],
      "name": "getPosition",
      "outputs": [
        {
          "internalType": "uint256",
          "name": "",
          "type": "uint256"
        }
      ],
      "stateMutability": "pure",
      "type": "function",
      "constant": true
    },
    {
      "inputs": [
        {
          "components": [
            {
              "internalType": "bool",
              "name": "valid",
              "type": "bool"
            },
            {
              "internalType": "enum ICS23.HashOp",
              "name": "hash",
              "type": "ICS23.HashOp"
            },
            {
              "internalType": "bytes",
              "name": "prefix",
              "type": "bytes"
            },
            {
              "internalType": "bytes",
              "name": "suffix",
              "type": "bytes"
            }
          ],
          "internalType": "struct ICS23.InnerOp",
          "name": "op",
          "type": "tuple"
        },
        {
          "internalType": "uint256",
          "name": "minPrefix",
          "type": "uint256"
        },
        {
          "internalType": "uint256",
          "name": "maxPrefix",
          "type": "uint256"
        },
        {
          "internalType": "uint256",
          "name": "suffix",
          "type": "uint256"
        }
      ],
      "name": "hasPadding",
      "outputs": [
        {
          "internalType": "bool",
          "name": "",
          "type": "bool"
        }
      ],
      "stateMutability": "pure",
      "type": "function",
      "constant": true
    },
    {
      "inputs": [
        {
          "components": [
            {
              "internalType": "uint256[]",
              "name": "childOrder",
              "type": "uint256[]"
            },
            {
              "internalType": "uint256",
              "name": "childSize",
              "type": "uint256"
            },
            {
              "internalType": "uint256",
              "name": "minPrefixLength",
              "type": "uint256"
            },
            {
              "internalType": "uint256",
              "name": "maxPrefixLength",
              "type": "uint256"
            },
            {
              "internalType": "bytes",
              "name": "emptyChild",
              "type": "bytes"
            },
            {
              "internalType": "enum ICS23.HashOp",
              "name": "hash",
              "type": "ICS23.HashOp"
            }
          ],
          "internalType": "struct ICS23.InnerSpec",
          "name": "spec",
          "type": "tuple"
        },
        {
          "internalType": "uint256",
          "name": "branch",
          "type": "uint256"
        }
      ],
      "name": "getPadding",
      "outputs": [
        {
          "internalType": "uint256",
          "name": "",
          "type": "uint256"
        },
        {
          "internalType": "uint256",
          "name": "",
          "type": "uint256"
        },
        {
          "internalType": "uint256",
          "name": "",
          "type": "uint256"
        }
      ],
      "stateMutability": "pure",
      "type": "function",
      "constant": true
    },
    {
      "inputs": [
        {
          "internalType": "bytes",
          "name": "bz1",
          "type": "bytes"
        },
        {
          "internalType": "bytes",
          "name": "bz2",
          "type": "bytes"
        }
      ],
      "name": "equalBytes",
      "outputs": [
        {
          "internalType": "bool",
          "name": "",
          "type": "bool"
        }
      ],
      "stateMutability": "pure",
      "type": "function",
      "constant": true
    },
    {
      "inputs": [
        {
          "internalType": "bytes",
          "name": "bz1",
          "type": "bytes"
        },
        {
          "internalType": "bytes",
          "name": "bz2",
          "type": "bytes"
        }
      ],
      "name": "compareBytes",
      "outputs": [
        {
          "internalType": "enum ICS23.Ordering",
          "name": "",
          "type": "ICS23.Ordering"
        }
      ],
      "stateMutability": "pure",
      "type": "function",
      "constant": true
    },
    {
      "inputs": [
        {
          "components": [
            {
              "internalType": "bool",
              "name": "valid",
              "type": "bool"
            },
            {
              "internalType": "enum ICS23.HashOp",
              "name": "hash",
              "type": "ICS23.HashOp"
            },
            {
              "internalType": "enum ICS23.HashOp",
              "name": "prehash_key",
              "type": "ICS23.HashOp"
            },
            {
              "internalType": "enum ICS23.HashOp",
              "name": "prehash_value",
              "type": "ICS23.HashOp"
            },
            {
              "internalType": "enum ICS23.LengthOp",
              "name": "len",
              "type": "ICS23.LengthOp"
            },
            {
              "internalType": "bytes",
              "name": "prefix",
              "type": "bytes"
            }
          ],
          "internalType": "struct ICS23.LeafOp",
          "name": "spec",
          "type": "tuple"
        },
        {
          "internalType": "bytes",
          "name": "root",
          "type": "bytes"
        },
        {
          "components": [
            {
              "internalType": "bool",
              "name": "valid",
              "type": "bool"
            },
            {
              "internalType": "bytes",
              "name": "key",
              "type": "bytes"
            },
            {
              "internalType": "bytes",
              "name": "value",
              "type": "bytes"
            },
            {
              "components": [
                {
                  "internalType": "bool",
                  "name": "valid",
                  "type": "bool"
                },
                {
                  "internalType": "enum ICS23.HashOp",
                  "name": "hash",
                  "type": "ICS23.HashOp"
                },
                {
                  "internalType": "enum ICS23.HashOp",
                  "name": "prehash_key",
                  "type": "ICS23.HashOp"
                },
                {
                  "internalType": "enum ICS23.HashOp",
                  "name": "prehash_value",
                  "type": "ICS23.HashOp"
                },
                {
                  "internalType": "enum ICS23.LengthOp",
                  "name": "len",
                  "type": "ICS23.LengthOp"
                },
                {
                  "internalType": "bytes",
                  "name": "prefix",
                  "type": "bytes"
                }
              ],
              "internalType": "struct ICS23.LeafOp",
              "name": "leaf",
              "type": "tuple"
            },
            {
              "components": [
                {
                  "internalType": "bool",
                  "name": "valid",
                  "type": "bool"
                },
                {
                  "internalType": "enum ICS23.HashOp",
                  "name": "hash",
                  "type": "ICS23.HashOp"
                },
                {
                  "internalType": "bytes",
                  "name": "prefix",
                  "type": "bytes"
                },
                {
                  "internalType": "bytes",
                  "name": "suffix",
                  "type": "bytes"
                }
              ],
              "internalType": "struct ICS23.InnerOp[]",
              "name": "path",
              "type": "tuple[]"
            }
          ],
          "internalType": "struct ICS23.ExistenceProof",
          "name": "proof",
          "type": "tuple"
        },
        {
          "internalType": "bytes",
          "name": "key",
          "type": "bytes"
        },
        {
          "internalType": "bytes",
          "name": "value",
          "type": "bytes"
        }
      ],
      "name": "verifyMembership",
      "outputs": [
        {
          "internalType": "bool",
          "name": "",
          "type": "bool"
        }
      ],
      "stateMutability": "pure",
      "type": "function",
      "constant": true
    },
    {
      "inputs": [
        {
          "components": [
            {
              "components": [
                {
                  "internalType": "bool",
                  "name": "valid",
                  "type": "bool"
                },
                {
                  "internalType": "enum ICS23.HashOp",
                  "name": "hash",
                  "type": "ICS23.HashOp"
                },
                {
                  "internalType": "enum ICS23.HashOp",
                  "name": "prehash_key",
                  "type": "ICS23.HashOp"
                },
                {
                  "internalType": "enum ICS23.HashOp",
                  "name": "prehash_value",
                  "type": "ICS23.HashOp"
                },
                {
                  "internalType": "enum ICS23.LengthOp",
                  "name": "len",
                  "type": "ICS23.LengthOp"
                },
                {
                  "internalType": "bytes",
                  "name": "prefix",
                  "type": "bytes"
                }
              ],
              "internalType": "struct ICS23.LeafOp",
              "name": "leafSpec",
              "type": "tuple"
            },
            {
              "components": [
                {
                  "internalType": "uint256[]",
                  "name": "childOrder",
                  "type": "uint256[]"
                },
                {
                  "internalType": "uint256",
                  "name": "childSize",
                  "type": "uint256"
                },
                {
                  "internalType": "uint256",
                  "name": "minPrefixLength",
                  "type": "uint256"
                },
                {
                  "internalType": "uint256",
                  "name": "maxPrefixLength",
                  "type": "uint256"
                },
                {
                  "internalType": "bytes",
                  "name": "emptyChild",
                  "type": "bytes"
                },
                {
                  "internalType": "enum ICS23.HashOp",
                  "name": "hash",
                  "type": "ICS23.HashOp"
                }
              ],
              "internalType": "struct ICS23.InnerSpec",
              "name": "innerSpec",
              "type": "tuple"
            },
            {
              "internalType": "uint256",
              "name": "maxDepth",
              "type": "uint256"
            },
            {
              "internalType": "uint256",
              "name": "minDepth",
              "type": "uint256"
            }
          ],
          "internalType": "struct ICS23.ProofSpec",
          "name": "spec",
          "type": "tuple"
        },
        {
          "internalType": "bytes",
          "name": "root",
          "type": "bytes"
        },
        {
          "components": [
            {
              "internalType": "bool",
              "name": "valid",
              "type": "bool"
            },
            {
              "internalType": "bytes",
              "name": "key",
              "type": "bytes"
            },
            {
              "components": [
                {
                  "internalType": "bool",
                  "name": "valid",
                  "type": "bool"
                },
                {
                  "internalType": "bytes",
                  "name": "key",
                  "type": "bytes"
                },
                {
                  "internalType": "bytes",
                  "name": "value",
                  "type": "bytes"
                },
                {
                  "components": [
                    {
                      "internalType": "bool",
                      "name": "valid",
                      "type": "bool"
                    },
                    {
                      "internalType": "enum ICS23.HashOp",
                      "name": "hash",
                      "type": "ICS23.HashOp"
                    },
                    {
                      "internalType": "enum ICS23.HashOp",
                      "name": "prehash_key",
                      "type": "ICS23.HashOp"
                    },
                    {
                      "internalType": "enum ICS23.HashOp",
                      "name": "prehash_value",
                      "type": "ICS23.HashOp"
                    },
                    {
                      "internalType": "enum ICS23.LengthOp",
                      "name": "len",
                      "type": "ICS23.LengthOp"
                    },
                    {
                      "internalType": "bytes",
                      "name": "prefix",
                      "type": "bytes"
                    }
                  ],
                  "internalType": "struct ICS23.LeafOp",
                  "name": "leaf",
                  "type": "tuple"
                },
                {
                  "components": [
                    {
                      "internalType": "bool",
                      "name": "valid",
                      "type": "bool"
                    },
                    {
                      "internalType": "enum ICS23.HashOp",
                      "name": "hash",
                      "type": "ICS23.HashOp"
                    },
                    {
                      "internalType": "bytes",
                      "name": "prefix",
                      "type": "bytes"
                    },
                    {
                      "internalType": "bytes",
                      "name": "suffix",
                      "type": "bytes"
                    }
                  ],
                  "internalType": "struct ICS23.InnerOp[]",
                  "name": "path",
                  "type": "tuple[]"
                }
              ],
              "internalType": "struct ICS23.ExistenceProof",
              "name": "left",
              "type": "tuple"
            },
            {
              "components": [
                {
                  "internalType": "bool",
                  "name": "valid",
                  "type": "bool"
                },
                {
                  "internalType": "bytes",
                  "name": "key",
                  "type": "bytes"
                },
                {
                  "internalType": "bytes",
                  "name": "value",
                  "type": "bytes"
                },
                {
                  "components": [
                    {
                      "internalType": "bool",
                      "name": "valid",
                      "type": "bool"
                    },
                    {
                      "internalType": "enum ICS23.HashOp",
                      "name": "hash",
                      "type": "ICS23.HashOp"
                    },
                    {
                      "internalType": "enum ICS23.HashOp",
                      "name": "prehash_key",
                      "type": "ICS23.HashOp"
                    },
                    {
                      "internalType": "enum ICS23.HashOp",
                      "name": "prehash_value",
                      "type": "ICS23.HashOp"
                    },
                    {
                      "internalType": "enum ICS23.LengthOp",
                      "name": "len",
                      "type": "ICS23.LengthOp"
                    },
                    {
                      "internalType": "bytes",
                      "name": "prefix",
                      "type": "bytes"
                    }
                  ],
                  "internalType": "struct ICS23.LeafOp",
                  "name": "leaf",
                  "type": "tuple"
                },
                {
                  "components": [
                    {
                      "internalType": "bool",
                      "name": "valid",
                      "type": "bool"
                    },
                    {
                      "internalType": "enum ICS23.HashOp",
                      "name": "hash",
                      "type": "ICS23.HashOp"
                    },
                    {
                      "internalType": "bytes",
                      "name": "prefix",
                      "type": "bytes"
                    },
                    {
                      "internalType": "bytes",
                      "name": "suffix",
                      "type": "bytes"
                    }
                  ],
                  "internalType": "struct ICS23.InnerOp[]",
                  "name": "path",
                  "type": "tuple[]"
                }
              ],
              "internalType": "struct ICS23.ExistenceProof",
              "name": "right",
              "type": "tuple"
            }
          ],
          "internalType": "struct ICS23.NonExistenceProof",
          "name": "proof",
          "type": "tuple"
        },
        {
          "internalType": "bytes",
          "name": "key",
          "type": "bytes"
        }
      ],
      "name": "verifyNonMembership",
      "outputs": [
        {
          "internalType": "bool",
          "name": "",
          "type": "bool"
        }
      ],
      "stateMutability": "pure",
      "type": "function",
      "constant": true
    }
  ],
  "bytecode": "0x613512610053600b82828239805160001a607314610046577f4e487b7100000000000000000000000000000000000000000000000000000000600052600060045260246000fd5b30600052607381538281f3fe73000000000000000000000000000000000000000030146080604052600436106101625760003560e01c8063865e5808116100cd5780639da5f0e3116100865780639da5f0e3146104b7578063b155d35c146104e7578063d259183d14610517578063d38ef80414610547578063d891f6f114610577578063ecd455c0146105a757610162565b8063865e5808146103975780638bb786de146103c75780638f203ea4146103f7578063901d0e151461042757806396672d4314610457578063988056ee1461048757610162565b8063486b284f1161011f578063486b284f146102755780634cac70ff146102a557806362989f2a146102d557806378dc04db146103075780637f53f23e146103375780638432b8c61461036757610162565b80630cfd31bb1461016757806314e6ed76146101975780631877705c146101c75780631e514694146101f75780631e63e9311461022757806327dcd78c14610257575b600080fd5b610181600480360381019061017c9190611a70565b6105d7565b60405161018e9190611b54565b60405180910390f35b6101b160048036038101906101ac9190612278565b610899565b6040516101be919061235e565b60405180910390f35b6101e160048036038101906101dc9190612379565b610a77565b6040516101ee919061235e565b60405180910390f35b610211600480360381019061020c91906123f1565b610bf6565b60405161021e919061235e565b60405180910390f35b610241600480360381019061023c91906124f8565b610c53565b60405161024e9190612563565b60405180910390f35b61025f610cb8565b60405161026c919061271f565b60405180910390f35b61028f600480360381019061028a9190612741565b610d57565b60405161029c9190612563565b60405180910390f35b6102bf60048036038101906102ba91906127b9565b610dc2565b6040516102cc919061235e565b60405180910390f35b6102ef60048036038101906102ea9190612831565b610e90565b6040516102fe9392919061288d565b60405180910390f35b610321600480360381019061031c91906128c4565b610f27565b60405161032e9190611b54565b60405180910390f35b610351600480360381019061034c919061293c565b610f7f565b60405161035e9190611b54565b60405180910390f35b610381600480360381019061037c9190612985565b610ff3565b60405161038e919061235e565b60405180910390f35b6103b160048036038101906103ac9190611a70565b61106f565b6040516103be9190611b54565b60405180910390f35b6103e160048036038101906103dc91906129fd565b6110b9565b6040516103ee919061235e565b60405180910390f35b610411600480360381019061040c9190612b04565b6110d3565b60405161041e919061235e565b60405180910390f35b610441600480360381019061043c91906127b9565b6110eb565b60405161044e919061235e565b60405180910390f35b610471600480360381019061046c9190612bdb565b6111aa565b60405161047e9190611b54565b60405180910390f35b6104a1600480360381019061049c9190612c4a565b6111d4565b6040516104ae9190611b54565b60405180910390f35b6104d160048036038101906104cc9190612985565b611268565b6040516104de919061235e565b60405180910390f35b61050160048036038101906104fc9190612cf1565b6112fb565b60405161050e919061235e565b60405180910390f35b610531600480360381019061052c91906127b9565b611493565b60405161053e9190612de0565b60405180910390f35b610561600480360381019061055c9190612dfb565b61165e565b60405161056e9190611b54565b60405180910390f35b610591600480360381019061058c9190612e57565b6117f9565b60405161059e919061235e565b60405180910390f35b6105c160048036038101906105bc9190612eda565b61183a565b6040516105ce919061235e565b60405180910390f35b6060600360058111156105ed576105ec61258d565b5b836005811115610600576105ff61258d565b5b141561063457818051906020012060405160200161061e9190612fac565b6040516020818303038152906040529050610893565b600160058111156106485761064761258d565b5b83600581111561065b5761065a61258d565b5b14156106d7576002826040516106719190613003565b602060405180830381855afa15801561068e573d6000803e3d6000fd5b5050506040513d601f19601f820116820180604052508101906106b19190613046565b6040516020016106c19190612fac565b6040516020818303038152906040529050610893565b600460058111156106eb576106ea61258d565b5b8360058111156106fe576106fd61258d565b5b1415610761576003826040516107149190613003565b602060405180830381855afa158015610731573d6000803e3d6000fd5b5050506040515160601b60405160200161074b91906130c0565b6040516020818303038152906040529050610893565b6005808111156107745761077361258d565b5b8360058111156107875761078661258d565b5b141561085857600360028360405161079f9190613003565b602060405180830381855afa1580156107bc573d6000803e3d6000fd5b5050506040513d601f19601f820116820180604052508101906107df9190613046565b6040516020016107ef9190612fac565b60405160208183030381529060405260405161080b9190613003565b602060405180830381855afa158015610828573d6000803e3d6000fd5b5050506040515160601b60405160200161084291906130c0565b6040516020818303038152906040529050610893565b6040517f08c379a000000000000000000000000000000000000000000000000000000000815260040161088a9061315e565b60405180910390fd5b92915050565b60008460400151600001511580156108b75750846060015160000151155b156108c55760009050610a6f565b8460400151600001511561094c576108f88560400151856000015185886040015160200151896040015160400151610bf6565b6109055760009050610a6f565b600060028111156109195761091861258d565b5b61092b83876060015160200151611493565b600281111561093d5761093c61258d565b5b1461094b5760009050610a6f565b5b846060015160000151156109d25761097f8560600151856000015185886060015160200151896060015160400151610bf6565b61098c5760009050610a6f565b60028081111561099f5761099e61258d565b5b6109b183876040015160200151611493565b60028111156109c3576109c261258d565b5b146109d15760009050610a6f565b5b846040015160000151610a07576109f58460200151866060015160800151610ff3565b610a025760009050610a6f565b610a6a565b846060015160000151610a3c57610a2a8460200151866040015160800151611268565b610a375760009050610a6f565b610a69565b610a5b84602001518660400151608001518760600151608001516112fb565b610a685760009050610a6f565b5b5b600190505b949350505050565b600081602001516005811115610a9057610a8f61258d565b5b8360600151602001516005811115610aab57610aaa61258d565b5b148015610ae7575081604001516005811115610aca57610ac961258d565b5b8360600151604001516005811115610ae557610ae461258d565b5b145b8015610b22575081606001516005811115610b0557610b0461258d565b5b8360600151606001516005811115610b2057610b1f61258d565b5b145b8015610b5d575081608001516008811115610b4057610b3f61258d565b5b8360600151608001516008811115610b5b57610b5a61258d565b5b145b8015610b7b5750610b7a836060015160a001518360a001516110eb565b5b610b885760009050610bf0565b60005b836080015151811015610bea57610bc884608001518281518110610bb257610bb161317e565b5b6020026020010151604001518460a001516110eb565b15610bd7576000915050610bf0565b8080610be2906131dc565b915050610b8b565b50600190505b92915050565b6000610c028686610a77565b8015610c185750610c17838760200151610dc2565b5b8015610c2e5750610c2d828760400151610dc2565b5b8015610c485750610c47610c4187610f7f565b85610dc2565b5b905095945050505050565b600082518210610c6257600080fd5b60005b8351811015610cac5782848281518110610c8257610c8161317e565b5b60200260200101511415610c995780915050610cb2565b8080610ca4906131dc565b915050610c65565b50600080fd5b92915050565b610cc0611871565b6040518060c0016040528060011515815260200160016005811115610ce857610ce761258d565b5b815260200160006005811115610d0157610d0061258d565b5b815260200160016005811115610d1a57610d1961258d565b5b815260200160016008811115610d3357610d3261258d565b5b81526020016040518060400160405280600181526020016000815250815250905090565b600080836000015151905060005b81811015610db6576000806000610d7c8885610e90565b925092509250610d8e878484846117f9565b15610da0578395505050505050610dbc565b5050508080610dae906131dc565b915050610d65565b50600080fd5b92915050565b60008151835114610dd65760009050610e8a565b60005b8351811015610e8457828181518110610df557610df461317e565b5b602001015160f81c60f81b7effffffffffffffffffffffffffffffffffffffffffffffffffffffffffffff1916848281518110610e3557610e3461317e565b5b602001015160f81c60f81b7effffffffffffffffffffffffffffffffffffffffffffffffffffffffffffff191614610e71576000915050610e8a565b8080610e7c906131dc565b915050610dd9565b50600190505b92915050565b600080600080610ea4866000015186610c53565b90506000866020015182610eb89190613225565b90506000876040015182610ecc919061327f565b90506000886060015183610ee0919061327f565b9050600089602001518560018c6000015151610efc91906132d5565b610f0691906132d5565b610f109190613225565b905082828297509750975050505050509250925092565b6060600082511415610f3857600080fd5b60008360400151838560600151604051602001610f5793929190613309565b6040516020818303038152906040529050610f768460200151826105d7565b91505092915050565b60606000610f9a8360600151846020015185604001516111d4565b905060005b836080015151811015610fe957610fd484608001518281518110610fc657610fc561317e565b5b602002602001015183610f27565b91508080610fe1906131dc565b915050610f9f565b5080915050919050565b600080600080611004866000610e90565b92509250925060005b85518110156110605761103c86828151811061102c5761102b61317e565b5b60200260200101518585856117f9565b61104d576000945050505050611069565b8080611058906131dc565b91505061100d565b50600193505050505b92915050565b6060600060058111156110855761108461258d565b5b8360058111156110985761109761258d565b5b14156110a6578190506110b3565b6110b083836105d7565b90505b92915050565b60006110c88487878686610bf6565b905095945050505050565b60006110e183868685610899565b9050949350505050565b600080600090505b825181101561119e5782818151811061110f5761110e61317e565b5b602001015160f81c60f81b7effffffffffffffffffffffffffffffffffffffffffffffffffffffffffffff191684828151811061114f5761114e61317e565b5b602001015160f81c60f81b7effffffffffffffffffffffffffffffffffffffffffffffffffffffffffffff19161461118b5760009150506111a4565b8080611196906131dc565b9150506110f3565b50600190505b92915050565b606060006111b8858461106f565b905060006111c6858361165e565b905080925050509392505050565b60606000835114156111e557600080fd5b6000825114156111f457600080fd5b600061120985604001518660800151866111aa565b9050600061122086606001518760800151866111aa565b905060008660a00151838360405160200161123d93929190613309565b604051602081830303815290604052905061125c8760200151826105d7565b93505050509392505050565b600080600184600001515161127d91906132d5565b9050600080600061128e8785610e90565b92509250925060005b86518110156112eb576112c68782815181106112b6576112b561317e565b5b60200260200101518585856117f9565b6112d8576000955050505050506112f5565b80806112e3906131dc565b915050611297565b5060019450505050505b92915050565b600080600190505b6113618482865161131491906132d5565b815181106113255761132461317e565b5b6020026020010151604001518483865161133f91906132d5565b815181106113505761134f61317e565b5b602002602001015160400151610dc2565b80156113c757506113c68482865161137991906132d5565b8151811061138a5761138961317e565b5b602002602001015160600151848386516113a491906132d5565b815181106113b5576113b461317e565b5b602002602001015160600151610dc2565b5b156113df5780806113d7906131dc565b915050611303565b6000848286516113ef91906132d5565b81518110611400576113ff61317e565b5b6020026020010151905060008483865161141a91906132d5565b8151811061142b5761142a61317e565b5b6020026020010151905061144087838361183a565b611450576000935050505061148c565b61145a8787611268565b61146a576000935050505061148c565b6114748786610ff3565b611484576000935050505061148c565b600193505050505b9392505050565b600080600090505b8351811080156114ab5750825181105b156115e3578281815181106114c3576114c261317e565b5b602001015160f81c60f81b7effffffffffffffffffffffffffffffffffffffffffffffffffffffffffffff19168482815181106115035761150261317e565b5b602001015160f81c60f81b7effffffffffffffffffffffffffffffffffffffffffffffffffffffffffffff19161015611540576000915050611658565b8281815181106115535761155261317e565b5b602001015160f81c60f81b7effffffffffffffffffffffffffffffffffffffffffffffffffffffffffffff19168482815181106115935761159261317e565b5b602001015160f81c60f81b7effffffffffffffffffffffffffffffffffffffffffffffffffffffffffffff191611156115d0576002915050611658565b80806115db906131dc565b91505061149b565b508151835114156115f75760019050611658565b81518351101561160a5760009050611658565b81518351111561161d5760029050611658565b6040517f08c379a000000000000000000000000000000000000000000000000000000000815260040161164f90613386565b60405180910390fd5b92915050565b6060600060088111156116745761167361258d565b5b8360088111156116875761168661258d565b5b1415611695578190506117f3565b600160088111156116a9576116a861258d565b5b8360088111156116bc576116bb61258d565b5b14156117335760008251905060808110611709576080607f821617600782901c915081846040516020016116f2939291906133e9565b6040516020818303038152906040529150506117f3565b808360405160200161171c929190613422565b6040516020818303038152906040529150506117f3565b600760088111156117475761174661258d565b5b83600881111561175a5761175961258d565b5b141561177657602082511461176e57600080fd5b8190506117f3565b6008808111156117895761178861258d565b5b83600881111561179c5761179b61258d565b5b14156117b85760408251146117b057600080fd5b8190506117f3565b6040517f08c379a00000000000000000000000000000000000000000000000000000000081526004016117ea906134bc565b60405180910390fd5b92915050565b60008385604001515110156118115760009050611832565b8285604001515111156118275760009050611832565b818560600151511490505b949350505050565b6000806118478585610d57565b905060006118558685610d57565b905080600183611865919061327f565b14925050509392505050565b6040518060c00160405280600015158152602001600060058111156118995761189861258d565b5b8152602001600060058111156118b2576118b161258d565b5b8152602001600060058111156118cb576118ca61258d565b5b8152602001600060088111156118e4576118e361258d565b5b8152602001606081525090565b6000604051905090565b600080fd5b600080fd5b6006811061191257600080fd5b50565b60008135905061192481611905565b92915050565b600080fd5b600080fd5b6000601f19601f8301169050919050565b7f4e487b7100000000000000000000000000000000000000000000000000000000600052604160045260246000fd5b61197d82611934565b810181811067ffffffffffffffff8211171561199c5761199b611945565b5b80604052505050565b60006119af6118f1565b90506119bb8282611974565b919050565b600067ffffffffffffffff8211156119db576119da611945565b5b6119e482611934565b9050602081019050919050565b82818337600083830152505050565b6000611a13611a0e846119c0565b6119a5565b905082815260208101848484011115611a2f57611a2e61192f565b5b611a3a8482856119f1565b509392505050565b600082601f830112611a5757611a5661192a565b5b8135611a67848260208601611a00565b91505092915050565b60008060408385031215611a8757611a866118fb565b5b6000611a9585828601611915565b925050602083013567ffffffffffffffff811115611ab657611ab5611900565b5b611ac285828601611a42565b9150509250929050565b600081519050919050565b600082825260208201905092915050565b60005b83811015611b06578082015181840152602081019050611aeb565b83811115611b15576000848401525b50505050565b6000611b2682611acc565b611b308185611ad7565b9350611b40818560208601611ae8565b611b4981611934565b840191505092915050565b60006020820190508181036000830152611b6e8184611b1b565b905092915050565b600080fd5b600080fd5b60008115159050919050565b611b9581611b80565b8114611ba057600080fd5b50565b600081359050611bb281611b8c565b92915050565b60098110611bc557600080fd5b50565b600081359050611bd781611bb8565b92915050565b600060c08284031215611bf357611bf2611b76565b5b611bfd60c06119a5565b90506000611c0d84828501611ba3565b6000830152506020611c2184828501611915565b6020830152506040611c3584828501611915565b6040830152506060611c4984828501611915565b6060830152506080611c5d84828501611bc8565b60808301525060a082013567ffffffffffffffff811115611c8157611c80611b7b565b5b611c8d84828501611a42565b60a08301525092915050565b600067ffffffffffffffff821115611cb457611cb3611945565b5b602082029050602081019050919050565b600080fd5b600060808284031215611ce057611cdf611b76565b5b611cea60806119a5565b90506000611cfa84828501611ba3565b6000830152506020611d0e84828501611915565b602083015250604082013567ffffffffffffffff811115611d3257611d31611b7b565b5b611d3e84828501611a42565b604083015250606082013567ffffffffffffffff811115611d6257611d61611b7b565b5b611d6e84828501611a42565b60608301525092915050565b6000611d8d611d8884611c99565b6119a5565b90508083825260208201905060208402830185811115611db057611daf611cc5565b5b835b81811015611df757803567ffffffffffffffff811115611dd557611dd461192a565b5b808601611de28982611cca565b85526020850194505050602081019050611db2565b5050509392505050565b600082601f830112611e1657611e1561192a565b5b8135611e26848260208601611d7a565b91505092915050565b600060a08284031215611e4557611e44611b76565b5b611e4f60a06119a5565b90506000611e5f84828501611ba3565b600083015250602082013567ffffffffffffffff811115611e8357611e82611b7b565b5b611e8f84828501611a42565b602083015250604082013567ffffffffffffffff811115611eb357611eb2611b7b565b5b611ebf84828501611a42565b604083015250606082013567ffffffffffffffff811115611ee357611ee2611b7b565b5b611eef84828501611bdd565b606083015250608082013567ffffffffffffffff811115611f1357611f12611b7b565b5b611f1f84828501611e01565b60808301525092915050565b600060808284031215611f4157611f40611b76565b5b611f4b60806119a5565b90506000611f5b84828501611ba3565b600083015250602082013567ffffffffffffffff811115611f7f57611f7e611b7b565b5b611f8b84828501611a42565b602083015250604082013567ffffffffffffffff811115611faf57611fae611b7b565b5b611fbb84828501611e2f565b604083015250606082013567ffffffffffffffff811115611fdf57611fde611b7b565b5b611feb84828501611e2f565b60608301525092915050565b600067ffffffffffffffff82111561201257612011611945565b5b602082029050602081019050919050565b6000819050919050565b61203681612023565b811461204157600080fd5b50565b6000813590506120538161202d565b92915050565b600061206c61206784611ff7565b6119a5565b9050808382526020820190506020840283018581111561208f5761208e611cc5565b5b835b818110156120b857806120a48882612044565b845260208401935050602081019050612091565b5050509392505050565b600082601f8301126120d7576120d661192a565b5b81356120e7848260208601612059565b91505092915050565b600060c0828403121561210657612105611b76565b5b61211060c06119a5565b9050600082013567ffffffffffffffff8111156121305761212f611b7b565b5b61213c848285016120c2565b600083015250602061215084828501612044565b602083015250604061216484828501612044565b604083015250606061217884828501612044565b606083015250608082013567ffffffffffffffff81111561219c5761219b611b7b565b5b6121a884828501611a42565b60808301525060a06121bc84828501611915565b60a08301525092915050565b6000608082840312156121de576121dd611b76565b5b6121e860806119a5565b9050600082013567ffffffffffffffff81111561220857612207611b7b565b5b61221484828501611bdd565b600083015250602082013567ffffffffffffffff81111561223857612237611b7b565b5b612244848285016120f0565b602083015250604061225884828501612044565b604083015250606061226c84828501612044565b60608301525092915050565b60008060008060808587031215612292576122916118fb565b5b600085013567ffffffffffffffff8111156122b0576122af611900565b5b6122bc87828801611f2b565b945050602085013567ffffffffffffffff8111156122dd576122dc611900565b5b6122e9878288016121c8565b935050604085013567ffffffffffffffff81111561230a57612309611900565b5b61231687828801611a42565b925050606085013567ffffffffffffffff81111561233757612336611900565b5b61234387828801611a42565b91505092959194509250565b61235881611b80565b82525050565b6000602082019050612373600083018461234f565b92915050565b600080604083850312156123905761238f6118fb565b5b600083013567ffffffffffffffff8111156123ae576123ad611900565b5b6123ba85828601611e2f565b925050602083013567ffffffffffffffff8111156123db576123da611900565b5b6123e785828601611bdd565b9150509250929050565b600080600080600060a0868803121561240d5761240c6118fb565b5b600086013567ffffffffffffffff81111561242b5761242a611900565b5b61243788828901611e2f565b955050602086013567ffffffffffffffff81111561245857612457611900565b5b61246488828901611bdd565b945050604086013567ffffffffffffffff81111561248557612484611900565b5b61249188828901611a42565b935050606086013567ffffffffffffffff8111156124b2576124b1611900565b5b6124be88828901611a42565b925050608086013567ffffffffffffffff8111156124df576124de611900565b5b6124eb88828901611a42565b9150509295509295909350565b6000806040838503121561250f5761250e6118fb565b5b600083013567ffffffffffffffff81111561252d5761252c611900565b5b612539858286016120c2565b925050602061254a85828601612044565b9150509250929050565b61255d81612023565b82525050565b60006020820190506125786000830184612554565b92915050565b61258781611b80565b82525050565b7f4e487b7100000000000000000000000000000000000000000000000000000000600052602160045260246000fd5b600681106125cd576125cc61258d565b5b50565b60008190506125de826125bc565b919050565b60006125ee826125d0565b9050919050565b6125fe816125e3565b82525050565b600981106126155761261461258d565b5b50565b600081905061262682612604565b919050565b600061263682612618565b9050919050565b6126468161262b565b82525050565b600082825260208201905092915050565b600061266882611acc565b612672818561264c565b9350612682818560208601611ae8565b61268b81611934565b840191505092915050565b600060c0830160008301516126ae600086018261257e565b5060208301516126c160208601826125f5565b5060408301516126d460408601826125f5565b5060608301516126e760608601826125f5565b5060808301516126fa608086018261263d565b5060a083015184820360a0860152612712828261265d565b9150508091505092915050565b600060208201905081810360008301526127398184612696565b905092915050565b60008060408385031215612758576127576118fb565b5b600083013567ffffffffffffffff81111561277657612775611900565b5b612782858286016120f0565b925050602083013567ffffffffffffffff8111156127a3576127a2611900565b5b6127af85828601611cca565b9150509250929050565b600080604083850312156127d0576127cf6118fb565b5b600083013567ffffffffffffffff8111156127ee576127ed611900565b5b6127fa85828601611a42565b925050602083013567ffffffffffffffff81111561281b5761281a611900565b5b61282785828601611a42565b9150509250929050565b60008060408385031215612848576128476118fb565b5b600083013567ffffffffffffffff81111561286657612865611900565b5b612872858286016120f0565b925050602061288385828601612044565b9150509250929050565b60006060820190506128a26000830186612554565b6128af6020830185612554565b6128bc6040830184612554565b949350505050565b600080604083850312156128db576128da6118fb565b5b600083013567ffffffffffffffff8111156128f9576128f8611900565b5b61290585828601611cca565b925050602083013567ffffffffffffffff81111561292657612925611900565b5b61293285828601611a42565b9150509250929050565b600060208284031215612952576129516118fb565b5b600082013567ffffffffffffffff8111156129705761296f611900565b5b61297c84828501611e2f565b91505092915050565b6000806040838503121561299c5761299b6118fb565b5b600083013567ffffffffffffffff8111156129ba576129b9611900565b5b6129c6858286016120f0565b925050602083013567ffffffffffffffff8111156129e7576129e6611900565b5b6129f385828601611e01565b9150509250929050565b600080600080600060a08688031215612a1957612a186118fb565b5b600086013567ffffffffffffffff811115612a3757612a36611900565b5b612a4388828901611bdd565b955050602086013567ffffffffffffffff811115612a6457612a63611900565b5b612a7088828901611a42565b945050604086013567ffffffffffffffff811115612a9157612a90611900565b5b612a9d88828901611e2f565b935050606086013567ffffffffffffffff811115612abe57612abd611900565b5b612aca88828901611a42565b925050608086013567ffffffffffffffff811115612aeb57612aea611900565b5b612af788828901611a42565b9150509295509295909350565b60008060008060808587031215612b1e57612b1d6118fb565b5b600085013567ffffffffffffffff811115612b3c57612b3b611900565b5b612b48878288016121c8565b945050602085013567ffffffffffffffff811115612b6957612b68611900565b5b612b7587828801611a42565b935050604085013567ffffffffffffffff811115612b9657612b95611900565b5b612ba287828801611f2b565b925050606085013567ffffffffffffffff811115612bc357612bc2611900565b5b612bcf87828801611a42565b91505092959194509250565b600080600060608486031215612bf457612bf36118fb565b5b6000612c0286828701611915565b9350506020612c1386828701611bc8565b925050604084013567ffffffffffffffff811115612c3457612c33611900565b5b612c4086828701611a42565b9150509250925092565b600080600060608486031215612c6357612c626118fb565b5b600084013567ffffffffffffffff811115612c8157612c80611900565b5b612c8d86828701611bdd565b935050602084013567ffffffffffffffff811115612cae57612cad611900565b5b612cba86828701611a42565b925050604084013567ffffffffffffffff811115612cdb57612cda611900565b5b612ce786828701611a42565b9150509250925092565b600080600060608486031215612d0a57612d096118fb565b5b600084013567ffffffffffffffff811115612d2857612d27611900565b5b612d34868287016120f0565b935050602084013567ffffffffffffffff811115612d5557612d54611900565b5b612d6186828701611e01565b925050604084013567ffffffffffffffff811115612d8257612d81611900565b5b612d8e86828701611e01565b9150509250925092565b60038110612da957612da861258d565b5b50565b6000819050612dba82612d98565b919050565b6000612dca82612dac565b9050919050565b612dda81612dbf565b82525050565b6000602082019050612df56000830184612dd1565b92915050565b60008060408385031215612e1257612e116118fb565b5b6000612e2085828601611bc8565b925050602083013567ffffffffffffffff811115612e4157612e40611900565b5b612e4d85828601611a42565b9150509250929050565b60008060008060808587031215612e7157612e706118fb565b5b600085013567ffffffffffffffff811115612e8f57612e8e611900565b5b612e9b87828801611cca565b9450506020612eac87828801612044565b9350506040612ebd87828801612044565b9250506060612ece87828801612044565b91505092959194509250565b600080600060608486031215612ef357612ef26118fb565b5b600084013567ffffffffffffffff811115612f1157612f10611900565b5b612f1d868287016120f0565b935050602084013567ffffffffffffffff811115612f3e57612f3d611900565b5b612f4a86828701611cca565b925050604084013567ffffffffffffffff811115612f6b57612f6a611900565b5b612f7786828701611cca565b9150509250925092565b6000819050919050565b6000819050919050565b612fa6612fa182612f81565b612f8b565b82525050565b6000612fb88284612f95565b60208201915081905092915050565b600081905092915050565b6000612fdd82611acc565b612fe78185612fc7565b9350612ff7818560208601611ae8565b80840191505092915050565b600061300f8284612fd2565b915081905092915050565b61302381612f81565b811461302e57600080fd5b50565b6000815190506130408161301a565b92915050565b60006020828403121561305c5761305b6118fb565b5b600061306a84828501613031565b91505092915050565b60007fffffffffffffffffffffffffffffffffffffffff00000000000000000000000082169050919050565b6000819050919050565b6130ba6130b582613073565b61309f565b82525050565b60006130cc82846130a9565b60148201915081905092915050565b600082825260208201905092915050565b7f696e76616c6964206f7220756e737570706f727465642068617368206f70657260008201527f6174696f6e000000000000000000000000000000000000000000000000000000602082015250565b60006131486025836130db565b9150613153826130ec565b604082019050919050565b600060208201905081810360008301526131778161313b565b9050919050565b7f4e487b7100000000000000000000000000000000000000000000000000000000600052603260045260246000fd5b7f4e487b7100000000000000000000000000000000000000000000000000000000600052601160045260246000fd5b60006131e782612023565b91507fffffffffffffffffffffffffffffffffffffffffffffffffffffffffffffffff82141561321a576132196131ad565b5b600182019050919050565b600061323082612023565b915061323b83612023565b9250817fffffffffffffffffffffffffffffffffffffffffffffffffffffffffffffffff0483118215151615613274576132736131ad565b5b828202905092915050565b600061328a82612023565b915061329583612023565b9250827fffffffffffffffffffffffffffffffffffffffffffffffffffffffffffffffff038211156132ca576132c96131ad565b5b828201905092915050565b60006132e082612023565b91506132eb83612023565b9250828210156132fe576132fd6131ad565b5b828203905092915050565b60006133158286612fd2565b91506133218285612fd2565b915061332d8284612fd2565b9150819050949350505050565b7f73686f756c64206e6f742072656163682074686973206c696e65000000000000600082015250565b6000613370601a836130db565b915061337b8261333a565b602082019050919050565b6000602082019050818103600083015261339f81613363565b9050919050565b600060ff82169050919050565b60008160f81b9050919050565b60006133cb826133b3565b9050919050565b6133e36133de826133a6565b6133c0565b82525050565b60006133f582866133d2565b60018201915061340582856133d2565b6001820191506134158284612fd2565b9150819050949350505050565b600061342e82856133d2565b60018201915061343e8284612fd2565b91508190509392505050565b7f696e76616c6964206f7220756e737570706f72746564206c656e677468206f7060008201527f65726174696f6e00000000000000000000000000000000000000000000000000602082015250565b60006134a66027836130db565b91506134b18261344a565b604082019050919050565b600060208201905081810360008301526134d581613499565b905091905056fea2646970667358221220af6bf20d77df0718c04ac615063e1893e0594a4a5def003a71dd1b0f2468efc364736f6c63430008090033",
  "immutableReferences": {},
  "source": "pragma solidity >=0.8.0;\n\nlibrary ICS23 {\n    // Data structures and helper functions\n\n    enum HashOp {\n        NO_HASH,\n        SHA256,\n        SHA512,\n        KECCAK,\n        RIPEMD160,\n        BITCOIN\n    }\n    enum LengthOp {\n        NO_PREFIX,\n        VAR_PROTO,\n        VAR_RLP,\n        FIXED32_BIG,\n        FIXED32_LITTLE,\n        FIXED64_BIG,\n        FIXED64_LITTLE,\n        REQUIRE_32_BYTES,\n        REQUIRE_64_BYTES\n    }\n\n    struct ExistenceProof {\n        bool valid;\n        bytes key;\n        bytes value;\n        LeafOp leaf;\n        InnerOp[] path;\n    }\n\n    struct NonExistenceProof {\n        bool valid;\n        bytes key;\n        ExistenceProof left;\n        ExistenceProof right;\n    }\n\n    struct LeafOp {\n        bool valid;\n        HashOp hash;\n        HashOp prehash_key;\n        HashOp prehash_value;\n        LengthOp len;\n        bytes prefix;\n    }\n\n    struct InnerOp {\n        bool valid;\n        HashOp hash;\n        bytes prefix;\n        bytes suffix;\n    }\n\n    struct ProofSpec {\n        LeafOp leafSpec;\n        InnerSpec innerSpec;\n        uint256 maxDepth;\n        uint256 minDepth;\n    }\n\n    struct InnerSpec {\n        uint256[] childOrder;\n        uint256 childSize;\n        uint256 minPrefixLength;\n        uint256 maxPrefixLength;\n        bytes emptyChild;\n        HashOp hash;\n    }\n\n    function getIavlSpec() public pure returns (LeafOp memory) {\n        return\n            LeafOp(\n                true,\n                HashOp.SHA256,\n                HashOp.NO_HASH,\n                HashOp.SHA256,\n                LengthOp.VAR_PROTO,\n                hex\"00\"\n            );\n    }\n\n    enum Ordering {\n        LT,\n        EQ,\n        GT\n    }\n\n    function doHashOrNoop(HashOp op, bytes memory preimage)\n        public\n        pure\n        returns (bytes memory)\n    {\n        if (op == HashOp.NO_HASH) {\n            return preimage;\n        }\n        return doHash(op, preimage);\n    }\n\n    function doHash(HashOp op, bytes memory preimage)\n        public\n        pure\n        returns (bytes memory)\n    {\n        if (op == HashOp.KECCAK) {\n            return abi.encodePacked(keccak256(preimage));\n        }\n        if (op == HashOp.SHA256) {\n            return abi.encodePacked(sha256(preimage));\n        }\n        if (op == HashOp.RIPEMD160) {\n            return abi.encodePacked(ripemd160(preimage));\n        }\n        if (op == HashOp.BITCOIN) {\n            return\n                abi.encodePacked(ripemd160(abi.encodePacked(sha256(preimage))));\n        }\n        revert(\"invalid or unsupported hash operation\");\n    }\n\n    function doLength(LengthOp op, bytes memory data)\n        public\n        pure\n        returns (bytes memory)\n    {\n        if (op == LengthOp.NO_PREFIX) {\n            return data;\n        }\n        if (op == LengthOp.VAR_PROTO) {\n            uint256 l = data.length;\n            if (l >= 1 << 7) {\n                return\n                    abi.encodePacked(\n                        uint8((l & 0x7f) | 0x80),\n                        uint8(l >>= 7),\n                        data\n                    );\n            }\n            return abi.encodePacked(uint8(l), data);\n        }\n        if (op == LengthOp.REQUIRE_32_BYTES) {\n            require(data.length == 32);\n            return data;\n        }\n        if (op == LengthOp.REQUIRE_64_BYTES) {\n            require(data.length == 64);\n            return data;\n        }\n        revert(\"invalid or unsupported length operation\");\n    }\n\n    function prepareLeafData(\n        HashOp hashop,\n        LengthOp lengthop,\n        bytes memory data\n    ) public pure returns (bytes memory) {\n        bytes memory hashed = doHashOrNoop(hashop, data);\n        bytes memory result = doLength(lengthop, hashed);\n        return result;\n    }\n\n    function applyLeaf(\n        LeafOp memory op,\n        bytes memory key,\n        bytes memory value\n    ) public pure returns (bytes memory) {\n        require(key.length != 0);\n        require(value.length != 0);\n\n        bytes memory pkey = prepareLeafData(op.prehash_key, op.len, key);\n        bytes memory pvalue = prepareLeafData(op.prehash_value, op.len, value);\n\n        bytes memory data = abi.encodePacked(op.prefix, pkey, pvalue);\n        return doHash(op.hash, data);\n    }\n\n    function applyInner(InnerOp memory op, bytes memory child)\n        public\n        pure\n        returns (bytes memory)\n    {\n        require(child.length != 0);\n        bytes memory preimage = abi.encodePacked(op.prefix, child, op.suffix);\n        return doHash(op.hash, preimage);\n    }\n\n    function hasprefix(bytes memory s, bytes memory prefix)\n        public\n        pure\n        returns (bool)\n    {\n        for (uint256 i = 0; i < prefix.length; i++) {\n            if (s[i] != prefix[i]) {\n                return false;\n            }\n        }\n        return true;\n    }\n\n    function checkAgainstSpec(ExistenceProof memory proof, LeafOp memory spec)\n        public\n        pure\n        returns (bool)\n    {\n        if (\n            !(proof.leaf.hash == spec.hash &&\n                proof.leaf.prehash_key == spec.prehash_key &&\n                proof.leaf.prehash_value == spec.prehash_value &&\n                proof.leaf.len == spec.len &&\n                hasprefix(proof.leaf.prefix, spec.prefix))\n        ) {\n            return false;\n        }\n\n        for (uint256 i = 0; i < proof.path.length; i++) {\n            if (hasprefix(proof.path[i].prefix, spec.prefix)) {\n                return false;\n            }\n        }\n\n        return true;\n    }\n\n    function calculate(ExistenceProof memory proof)\n        public\n        pure\n        returns (bytes memory)\n    {\n        bytes memory res = applyLeaf(proof.leaf, proof.key, proof.value);\n        for (uint256 i = 0; i < proof.path.length; i++) {\n            res = applyInner(proof.path[i], res);\n        }\n        return res;\n    }\n\n    function verifyExistence(\n        ExistenceProof memory proof,\n        LeafOp memory spec,\n        bytes memory root,\n        bytes memory key,\n        bytes memory value\n    ) public pure returns (bool) {\n        return (checkAgainstSpec(proof, spec) &&\n            equalBytes(key, proof.key) &&\n            equalBytes(value, proof.value) &&\n            equalBytes(calculate(proof), root));\n    }\n\n    function verifyNonExistence(\n        NonExistenceProof memory proof,\n        ProofSpec memory spec,\n        bytes memory root,\n        bytes memory key\n    ) public pure returns (bool) {\n        if (!proof.left.valid && !proof.right.valid) {\n            return false;\n        }\n        if (proof.left.valid) {\n            if (\n                !verifyExistence(\n                    proof.left,\n                    spec.leafSpec,\n                    root,\n                    proof.left.key,\n                    proof.left.value\n                )\n            ) {\n                return false;\n            }\n            if (compareBytes(key, proof.right.key) != Ordering.LT) {\n                return false;\n            }\n        }\n        if (proof.right.valid) {\n            if (\n                !verifyExistence(\n                    proof.right,\n                    spec.leafSpec,\n                    root,\n                    proof.right.key,\n                    proof.right.value\n                )\n            ) {\n                return false;\n            }\n            if (compareBytes(key, proof.left.key) != Ordering.GT) {\n                return false;\n            }\n        }\n\n        if (!proof.left.valid) {\n            if (!isLeftMost(spec.innerSpec, proof.right.path)) {\n                return false;\n            }\n        } else if (!proof.right.valid) {\n            if (!isRightMost(spec.innerSpec, proof.left.path)) {\n                return false;\n            }\n        } else {\n            if (\n                !isLeftNeighbor(\n                    spec.innerSpec,\n                    proof.left.path,\n                    proof.right.path\n                )\n            ) {\n                return false;\n            }\n        }\n\n        return true;\n    }\n\n    function orderFromPadding(InnerSpec memory spec, InnerOp memory op)\n        public\n        pure\n        returns (uint256)\n    {\n        uint256 maxBranch = spec.childOrder.length;\n\n        for (uint256 branch = 0; branch < maxBranch; branch++) {\n            (uint256 minPrefix, uint256 maxPrefix, uint256 suffix) = getPadding(\n                spec,\n                branch\n            );\n            if (hasPadding(op, minPrefix, maxPrefix, suffix)) {\n                return branch;\n            }\n        }\n\n        revert();\n    }\n\n    function isLeftStep(\n        InnerSpec memory spec,\n        InnerOp memory left,\n        InnerOp memory right\n    ) public pure returns (bool) {\n        uint256 leftidx = orderFromPadding(spec, left);\n        uint256 rightidx = orderFromPadding(spec, right);\n        return leftidx + 1 == rightidx;\n    }\n\n    function isLeftMost(InnerSpec memory spec, InnerOp[] memory path)\n        public\n        pure\n        returns (bool)\n    {\n        (uint256 minPrefix, uint256 maxPrefix, uint256 suffix) = getPadding(\n            spec,\n            0\n        );\n\n        for (uint256 i = 0; i < path.length; i++) {\n            if (!hasPadding(path[i], minPrefix, maxPrefix, suffix)) {\n                return false;\n            }\n        }\n        return true;\n    }\n\n    function isRightMost(InnerSpec memory spec, InnerOp[] memory path)\n        public\n        pure\n        returns (bool)\n    {\n        uint256 last = spec.childOrder.length - 1;\n        (uint256 minPrefix, uint256 maxPrefix, uint256 suffix) = getPadding(\n            spec,\n            last\n        );\n\n        for (uint256 i = 0; i < path.length; i++) {\n            if (!hasPadding(path[i], minPrefix, maxPrefix, suffix)) {\n                return false;\n            }\n        }\n        return true;\n    }\n\n    function isLeftNeighbor(\n        InnerSpec memory spec,\n        InnerOp[] memory left,\n        InnerOp[] memory right\n    ) public pure returns (bool) {\n        uint256 top = 1;\n        for (\n            ;\n            equalBytes(\n                left[left.length - top].prefix,\n                right[right.length - top].prefix\n            ) &&\n                equalBytes(\n                    left[left.length - top].suffix,\n                    right[right.length - top].suffix\n                );\n            top++\n        ) {}\n\n        InnerOp memory topLeft = left[left.length - top];\n        InnerOp memory topRight = right[right.length - top];\n\n        if (!isLeftStep(spec, topLeft, topRight)) {\n            return false;\n        }\n\n        if (!isRightMost(spec, left)) {\n            return false;\n        }\n\n        if (!isLeftMost(spec, right)) {\n            return false;\n        }\n\n        return true;\n    }\n\n    function getPosition(uint256[] memory order, uint256 branch)\n        public\n        pure\n        returns (uint256)\n    {\n        require(branch < order.length);\n        for (uint256 i = 0; i < order.length; i++) {\n            if (order[i] == branch) {\n                return i;\n            }\n        }\n        revert();\n    }\n\n    function hasPadding(\n        InnerOp memory op,\n        uint256 minPrefix,\n        uint256 maxPrefix,\n        uint256 suffix\n    ) public pure returns (bool) {\n        if (op.prefix.length < minPrefix) {\n            return false;\n        }\n        if (op.prefix.length > maxPrefix) {\n            return false;\n        }\n        return op.suffix.length == suffix;\n    }\n\n    function getPadding(InnerSpec memory spec, uint256 branch)\n        public\n        pure\n        returns (\n            uint256,\n            uint256,\n            uint256\n        )\n    {\n        uint256 idx = getPosition(spec.childOrder, branch);\n\n        uint256 prefix = idx * spec.childSize;\n        uint256 minPrefix = prefix + spec.minPrefixLength;\n        uint256 maxPrefix = prefix + spec.maxPrefixLength;\n\n        uint256 suffix = (spec.childOrder.length - 1 - idx) * spec.childSize;\n\n        return (minPrefix, maxPrefix, suffix);\n    }\n\n    function equalBytes(bytes memory bz1, bytes memory bz2)\n        public\n        pure\n        returns (bool)\n    {\n        if (bz1.length != bz2.length) {\n            return false;\n        }\n        for (uint256 i = 0; i < bz1.length; i++) {\n            if (bz1[i] != bz2[i]) {\n                return false;\n            }\n        }\n        return true;\n    }\n\n    function compareBytes(bytes memory bz1, bytes memory bz2)\n        public\n        pure\n        returns (Ordering)\n    {\n        for (uint256 i = 0; i < bz1.length && i < bz2.length; i++) {\n            if (bz1[i] < bz2[i]) {\n                return Ordering.LT;\n            }\n            if (bz1[i] > bz2[i]) {\n                return Ordering.GT;\n            }\n        }\n        if (bz1.length == bz2.length) {\n            return Ordering.EQ;\n        }\n        if (bz1.length < bz2.length) {\n            return Ordering.LT;\n        }\n        if (bz1.length > bz2.length) {\n            return Ordering.GT;\n        }\n        revert(\"should not reach this line\");\n    }\n\n    // ICS23 interface implementation\n\n    // verifyMembership is synonym for verifyExistence\n    function verifyMembership(\n        LeafOp memory spec,\n        bytes memory root,\n        ExistenceProof memory proof,\n        bytes memory key,\n        bytes memory value\n    ) public pure returns (bool) {\n        return verifyExistence(proof, spec, root, key, value);\n    }\n\n    function verifyNonMembership(\n        ProofSpec memory spec,\n        bytes memory root,\n        NonExistenceProof memory proof,\n        bytes memory key\n    ) public pure returns (bool) {\n        return verifyNonExistence(proof, spec, root, key);\n    }\n}\n",
  "sourcePath": "/home/rogelio/Code/ancon-protocol/ethereum/contracts/ancon/ics23.sol",
  "compiler": {
    "name": "solc",
    "version": "0.8.9+commit.e5eed63a.Emscripten.clang"
  },
  "schemaVersion": "3.4.0",
  "updatedAt": "2021-10-18T23:41:34.991Z",
  "networkType": "ethereum",
  "devdoc": {
    "kind": "dev",
    "methods": {},
    "version": 1
  },
  "userdoc": {
    "kind": "user",
    "methods": {},
    "version": 1
  }
}