{
  "contractName": "ICS20TransferBank",
  "abi": [
    {
      "inputs": [
        {
          "internalType": "contract IBCHost",
          "name": "host_",
          "type": "address"
        },
        {
          "internalType": "contract IBCHandler",
          "name": "ibcHandler_",
          "type": "address"
        },
        {
          "internalType": "contract IICS20Bank",
          "name": "bank_",
          "type": "address"
        }
      ],
      "stateMutability": "nonpayable",
      "type": "constructor"
    },
    {
      "inputs": [
        {
          "components": [
            {
              "internalType": "uint64",
              "name": "sequence",
              "type": "uint64"
            },
            {
              "internalType": "string",
              "name": "source_port",
              "type": "string"
            },
            {
              "internalType": "string",
              "name": "source_channel",
              "type": "string"
            },
            {
              "internalType": "string",
              "name": "destination_port",
              "type": "string"
            },
            {
              "internalType": "string",
              "name": "destination_channel",
              "type": "string"
            },
            {
              "internalType": "bytes",
              "name": "data",
              "type": "bytes"
            },
            {
              "components": [
                {
                  "internalType": "uint64",
                  "name": "revision_number",
                  "type": "uint64"
                },
                {
                  "internalType": "uint64",
                  "name": "revision_height",
                  "type": "uint64"
                }
              ],
              "internalType": "struct Height.Data",
              "name": "timeout_height",
              "type": "tuple"
            },
            {
              "internalType": "uint64",
              "name": "timeout_timestamp",
              "type": "uint64"
            }
          ],
          "internalType": "struct Packet.Data",
          "name": "packet",
          "type": "tuple"
        },
        {
          "internalType": "bytes",
          "name": "acknowledgement",
          "type": "bytes"
        }
      ],
      "name": "onAcknowledgementPacket",
      "outputs": [],
      "stateMutability": "nonpayable",
      "type": "function"
    },
    {
      "inputs": [
        {
          "internalType": "string",
          "name": "portId",
          "type": "string"
        },
        {
          "internalType": "string",
          "name": "channelId",
          "type": "string"
        }
      ],
      "name": "onChanCloseConfirm",
      "outputs": [],
      "stateMutability": "nonpayable",
      "type": "function"
    },
    {
      "inputs": [
        {
          "internalType": "string",
          "name": "portId",
          "type": "string"
        },
        {
          "internalType": "string",
          "name": "channelId",
          "type": "string"
        }
      ],
      "name": "onChanCloseInit",
      "outputs": [],
      "stateMutability": "nonpayable",
      "type": "function"
    },
    {
      "inputs": [
        {
          "internalType": "string",
          "name": "portId",
          "type": "string"
        },
        {
          "internalType": "string",
          "name": "channelId",
          "type": "string"
        },
        {
          "internalType": "string",
          "name": "counterpartyVersion",
          "type": "string"
        }
      ],
      "name": "onChanOpenAck",
      "outputs": [],
      "stateMutability": "nonpayable",
      "type": "function"
    },
    {
      "inputs": [
        {
          "internalType": "string",
          "name": "portId",
          "type": "string"
        },
        {
          "internalType": "string",
          "name": "channelId",
          "type": "string"
        }
      ],
      "name": "onChanOpenConfirm",
      "outputs": [],
      "stateMutability": "nonpayable",
      "type": "function"
    },
    {
      "inputs": [
        {
          "internalType": "enum Channel.Order",
          "name": "",
          "type": "uint8"
        },
        {
          "internalType": "string[]",
          "name": "connectionHops",
          "type": "string[]"
        },
        {
          "internalType": "string",
          "name": "portId",
          "type": "string"
        },
        {
          "internalType": "string",
          "name": "channelId",
          "type": "string"
        },
        {
          "components": [
            {
              "internalType": "string",
              "name": "port_id",
              "type": "string"
            },
            {
              "internalType": "string",
              "name": "channel_id",
              "type": "string"
            }
          ],
          "internalType": "struct ChannelCounterparty.Data",
          "name": "counterparty",
          "type": "tuple"
        },
        {
          "internalType": "string",
          "name": "version",
          "type": "string"
        }
      ],
      "name": "onChanOpenInit",
      "outputs": [],
      "stateMutability": "nonpayable",
      "type": "function"
    },
    {
      "inputs": [
        {
          "internalType": "enum Channel.Order",
          "name": "",
          "type": "uint8"
        },
        {
          "internalType": "string[]",
          "name": "connectionHops",
          "type": "string[]"
        },
        {
          "internalType": "string",
          "name": "portId",
          "type": "string"
        },
        {
          "internalType": "string",
          "name": "channelId",
          "type": "string"
        },
        {
          "components": [
            {
              "internalType": "string",
              "name": "port_id",
              "type": "string"
            },
            {
              "internalType": "string",
              "name": "channel_id",
              "type": "string"
            }
          ],
          "internalType": "struct ChannelCounterparty.Data",
          "name": "counterparty",
          "type": "tuple"
        },
        {
          "internalType": "string",
          "name": "version",
          "type": "string"
        },
        {
          "internalType": "string",
          "name": "counterpartyVersion",
          "type": "string"
        }
      ],
      "name": "onChanOpenTry",
      "outputs": [],
      "stateMutability": "nonpayable",
      "type": "function"
    },
    {
      "inputs": [
        {
          "components": [
            {
              "internalType": "uint64",
              "name": "sequence",
              "type": "uint64"
            },
            {
              "internalType": "string",
              "name": "source_port",
              "type": "string"
            },
            {
              "internalType": "string",
              "name": "source_channel",
              "type": "string"
            },
            {
              "internalType": "string",
              "name": "destination_port",
              "type": "string"
            },
            {
              "internalType": "string",
              "name": "destination_channel",
              "type": "string"
            },
            {
              "internalType": "bytes",
              "name": "data",
              "type": "bytes"
            },
            {
              "components": [
                {
                  "internalType": "uint64",
                  "name": "revision_number",
                  "type": "uint64"
                },
                {
                  "internalType": "uint64",
                  "name": "revision_height",
                  "type": "uint64"
                }
              ],
              "internalType": "struct Height.Data",
              "name": "timeout_height",
              "type": "tuple"
            },
            {
              "internalType": "uint64",
              "name": "timeout_timestamp",
              "type": "uint64"
            }
          ],
          "internalType": "struct Packet.Data",
          "name": "packet",
          "type": "tuple"
        }
      ],
      "name": "onRecvPacket",
      "outputs": [
        {
          "internalType": "bytes",
          "name": "acknowledgement",
          "type": "bytes"
        }
      ],
      "stateMutability": "nonpayable",
      "type": "function"
    },
    {
      "inputs": [
        {
          "internalType": "string",
          "name": "denom",
          "type": "string"
        },
        {
          "internalType": "uint64",
          "name": "amount",
          "type": "uint64"
        },
        {
          "internalType": "address",
          "name": "receiver",
          "type": "address"
        },
        {
          "internalType": "string",
          "name": "sourcePort",
          "type": "string"
        },
        {
          "internalType": "string",
          "name": "sourceChannel",
          "type": "string"
        },
        {
          "internalType": "uint64",
          "name": "timeoutHeight",
          "type": "uint64"
        }
      ],
      "name": "sendTransfer",
      "outputs": [],
      "stateMutability": "nonpayable",
      "type": "function"
    }
  ],
  "bytecode": "0x60806040523480156200001157600080fd5b5060405162002c1e38038062002c1e833981016040819052620000349162000090565b600180546001600160a01b039485166001600160a01b031991821617909155600080549385169382169390931790925560038054919093169116179055620000e4565b6001600160a01b03811681146200008d57600080fd5b50565b600080600060608486031215620000a657600080fd5b8351620000b38162000077565b6020850151909350620000c68162000077565b6040850151909250620000d98162000077565b809150509250925092565b612b2a80620000f46000396000f3fe608060405234801561001057600080fd5b50600436106100a35760003560e01c8063a113e41111610076578063e74a1ac21161005b578063e74a1ac21461010f578063ed6cb8dd14610136578063ef4776d21461010f57600080fd5b8063a113e4111461010f578063da7b08a71461012357600080fd5b806344dd9638146100a85780634942d1ac146100bd5780635550b656146100d3578063981389f2146100fc575b600080fd5b6100bb6100b6366004611e2b565b610149565b005b6100bb6100cb366004611f27565b505050505050565b6100e66100e1366004611fd4565b6101a4565b6040516100f39190612061565b60405180910390f35b6100bb61010a366004612074565b61040e565b6100bb61011d3660046121c5565b50505050565b6100bb610131366004612231565b61046b565b6100bb6101443660046122bb565b61054f565b306002868660405161015c92919061239a565b90815260405190819003602001902080546001600160a01b039290921673ffffffffffffffffffffffffffffffffffffffff1990921691909117905550505050505050505050565b606060006101f26101b860a08501856123aa565b8080601f01602080910402602001604051908101604052809392919081815260200183838082843760009201919091525061084492505050565b805160408051808201825260008082526020918201819052825180840190935283518352928101908201529192505060006102e46102b261023660208801886123aa565b8080601f0160208091040260200160405190810160405280939291908181526020018383808284376000920191909152506102789250505060408901896123aa565b8080601f0160208091040260200160405190810160405280939291908181526020018383808284376000920191909152506108bd92505050565b8451604080518082018252600080825260209182015281518083019092528251825291820191810191909152906109b6565b90506102f08282610a3b565b61037c5761037361036e61034461030a60808901896123aa565b8080601f016020809104026020016040519081016040528093929190818152602001838380828437600092019190915250610a4f92505050565b6103518660600151610a87565b61035a85610ae7565b876020015167ffffffffffffffff16610b57565b610c1c565b95945050505050565b60006103da836103d461039260608a018a6123aa565b8080601f0160208091040260200160405190810160405280939291908181526020018383808284376000920191909152506102789250505060808b018b6123aa565b90610ce0565b905061040461036e6103ef8660600151610a87565b83876020015167ffffffffffffffff16610d70565b9695505050505050565b306002888860405161042192919061239a565b90815260405190819003602001902080546001600160a01b039290921673ffffffffffffffffffffffffffffffffffffffff19909216919091179055505050505050505050505050565b6104aa82828080601f016020809104026020016040519081016040528093929190818152602001838380828437600092019190915250610e3292505050565b61054a5761054a6104c16101b860a08601866123aa565b6104ce60208601866123aa565b8080601f0160208091040260200160405190810160405280939291908181526020018383808284376000920191909152506105109250505060408701876123aa565b8080601f016020809104026020016040519081016040528093929190818152602001838380828437600092019190915250610ea592505050565b505050565b61060a6105c586868080601f01602080910402602001604051908101604052809392919081815260200183838082843760009201919091525050604080516020601f8a0181900481028201810190925288815292508891508790819084018382808284376000920191909152506108bd92505050565b6106048b8b8080601f01602080910402602001604051908101604052809392919081815260200183838082843760009201919091525061089092505050565b90610f45565b6106a6576106983361065185858080601f016020809104026020016040519081016040528093929190818152602001838380828437600092019190915250610a4f92505050565b8b8b8080601f016020809104026020016040519081016040528093929190818152602001838380828437600092019190915250505067ffffffffffffffff8c169050610b57565b6106a157600080fd5b6106fa565b6106f1338a8a8080601f016020809104026020016040519081016040528093929190818152602001838380828437600092019190915250505067ffffffffffffffff8b169050610f89565b6106fa57600080fd5b6040805160a06020601f8c018190040282018101909252608081018a8152610839928291908d908d908190850183828082843760009201919091525050509082525067ffffffffffffffff8a16602082015260400133604051602001610778919060609190911b6bffffffffffffffffffffffff1916815260140190565b6040516020818303038152906040528152602001886040516020016107b5919060609190911b6bffffffffffffffffffffffff1916815260140190565b60405160208183030381529060405281525086868080601f01602080910402602001604051908101604052809392919081815260200183838082843760009201919091525050604080516020601f8a018190048102820181019092528881529250889150879081908401838280828437600092019190915250879250610fd7915050565b505050505050505050565b610879604051806080016040528060608152602001600067ffffffffffffffff16815260200160608152602001606081525090565b60006108886020848551611231565b509392505050565b60408051808201825260008082526020918201528151808301909252825182529182019181019190915290565b604080518082018252600080825260208083018290528351808501855260018152602f60f81b818301908152855180870187528481528301939093528451808601909552518452830152906109ad90610890906040805180820182526000808252602091820152815180830190925286518252808701908201526103d4906108909060408051808201825260018152602f60f81b602080830191825283518085018552600080825290820152835180850190945291518352908201526103d49061089090604080518082018252600080825260209182015281518083019092528d518252808e01908201526103d4565b90505b92915050565b60408051808201909152600080825260208201528151835110156109db5750816109b0565b6020808301519084015160019114610a025750815160208481015190840151829020919020145b8015610a3357825184518590610a19908390612407565b9052508251602085018051610a2f90839061241e565b9052505b509192915050565b6000610a478383611421565b159392505050565b600080600283604051610a629190612436565b908152604051908190036020019020546001600160a01b03169050806109b057600080fd5b60008151601414610adf5760405162461bcd60e51b815260206004820152601b60248201527f63616e6e6f7420636f6e7665727420696e746f2061646472657373000000000060448201526064015b60405180910390fd5b506014015190565b60606000826000015167ffffffffffffffff811115610b0857610b08612452565b6040519080825280601f01601f191660200182016040528015610b32576020820181803683370190505b5090506000602082019050610b508185602001518660000151611505565b5092915050565b6003546040517ff24dc1da0000000000000000000000000000000000000000000000000000000081526000916001600160a01b03169063f24dc1da90610ba7908890889088908890600401612468565b600060405180830381600087803b158015610bc157600080fd5b505af1925050508015610bd2575060015b610c10573d808015610c00576040519150601f19603f3d011682016040523d82523d6000602084013e610c05565b606091505b506000915050610c14565b5060015b949350505050565b604080516001808252818301909252606091600091906020820181803683370190505090508215610c9357600160f81b81600081518110610c5f57610c5f6124a5565b60200101907effffffffffffffffffffffffffffffffffffffffffffffffffffffffffffff1916908160001a9053506109b0565b600060f81b81600081518110610cab57610cab6124a5565b60200101907effffffffffffffffffffffffffffffffffffffffffffffffffffffffffffff1916908160001a90535092915050565b80518251606091600091610cf4919061241e565b67ffffffffffffffff811115610d0c57610d0c612452565b6040519080825280601f01601f191660200182016040528015610d36576020820181803683370190505b5090506000602082019050610d548186602001518760000151611505565b845161088890610d64908361241e565b60208601518651611505565b6003546040517fba7aef430000000000000000000000000000000000000000000000000000000081526000916001600160a01b03169063ba7aef4390610dbe908790879087906004016124bb565b600060405180830381600087803b158015610dd857600080fd5b505af1925050508015610de9575060015b610e27573d808015610e17576040519150601f19603f3d011682016040523d82523d6000602084013e610e1c565b606091505b506000915050610e2b565b5060015b9392505050565b60008151600114610e4257600080fd5b81600081518110610e5557610e556124a5565b6020910101517fff00000000000000000000000000000000000000000000000000000000000000167f01000000000000000000000000000000000000000000000000000000000000001492915050565b610ee3610eb283836108bd565b8451604080518082018252600080825260209182015281518083019092528251825291820191810191909152610604565b610f1f57610f16610ef382610a4f565b610f008560400151610a87565b8551602087015167ffffffffffffffff16610b57565b61054a57600080fd5b610f16610f2f8460400151610a87565b8451602086015167ffffffffffffffff16610d70565b805182516000911115610f5a575060006109b0565b816020015183602001511415610f72575060016109b0565b508051602092830151929091015181902091201490565b6003546040517fc45b71de0000000000000000000000000000000000000000000000000000000081526000916001600160a01b03169063c45b71de90610dbe908790879087906004016124bb565b6001546040517f3000217a00000000000000000000000000000000000000000000000000000000815260009182916001600160a01b0390911690633000217a9061102790889088906004016124ed565b600060405180830381865afa158015611044573d6000803e3d6000fd5b505050506040513d6000823e601f3d908101601f1916820160405261106c9190810190612723565b91509150806110bd5760405162461bcd60e51b815260206004820152601160248201527f6368616e6e656c206e6f7420666f756e640000000000000000000000000000006044820152606401610ad6565b600054604080516101008101918290526001547f582418b6000000000000000000000000000000000000000000000000000000009092526001600160a01b03928316926340835e449282911663582418b661111d8b8b61010486016124ed565b602060405180830381865afa15801561113a573d6000803e3d6000fd5b505050506040513d601f19601f8201168201806040525081019061115e919061280c565b67ffffffffffffffff16815260208082018a905260408083018a905287018051516060840152510151608082015260a0016111988a611576565b81526020016040518060400160405280600067ffffffffffffffff1681526020018867ffffffffffffffff168152508152602001600067ffffffffffffffff168152506040518263ffffffff1660e01b81526004016111f79190612829565b600060405180830381600087803b15801561121157600080fd5b505af1158015611225573d6000803e3d6000fd5b50505050505050505050565b611266604051806080016040528060608152602001600067ffffffffffffffff16815260200160608152602001606081525090565b60408051608081018252606080825260006020830181905292820181905280820152611290611d4e565b6000808089805b6112a18a8361241e565b81101561140f576112b2818c6115df565b919650945092506112c3838261241e565b905084600114156112eb576112da818c898961162a565b6112e4908261241e565b9050611297565b8460021415611300576112da818c8989611698565b8460031415611315576112da818c89896116e6565b846004141561132a576112da818c898961172b565b600184600581111561133e5761133e612923565b1415611362576000611350828d611770565b915061135e9050818361241e565b9150505b600584600581111561137657611376612923565b141561139a576000611388828d611791565b91506113969050818361241e565b9150505b60008460058111156113ae576113ae612923565b14156113d25760006113c0828d6117a3565b91506113ce9050818361241e565b9150505b60028460058111156113e6576113e6612923565b141561140a5760006113f8828d6118a9565b91506114069050818361241e565b9150505b611297565b50949a97995096975050505050505050565b8151815160009190811115611434575081515b6020808501519084015160005b838110156114f657825182518082146114c657600019602087101561149c5760018461146e896020612407565b611478919061241e565b611483906008612939565b61148e906002612a3c565b6114989190612407565b1990505b60006114ac838316858416612407565b905080156114c35797506109b09650505050505050565b50505b6114d160208661241e565b94506114de60208561241e565b935050506020816114ef919061241e565b9050611441565b50845186516104049190612a48565b6020811061153d578151835261151c60208461241e565b925061152960208361241e565b9150611536602082612407565b9050611505565b6000600161154c836020612407565b61155890610100612a3c565b6115629190612407565b925184518416931916929092179092525050565b606060006115838361196c565b67ffffffffffffffff81111561159b5761159b612452565b6040519080825280601f01601f1916602001820160405280156115c5576020820181803683370190505b50905060006115d684602084611a00565b82525092915050565b60008060008060006115f187876117a3565b91509150600082600716600581111561160c5761160c612923565b9050600061161b600885612abc565b99919850919650945050505050565b60008060006116398787611b1b565b91509150611645851590565b1561166857600184815b60200201818151611660919061241e565b905250610404565b81855260208401511561040457600184815b6020020181815161168b9190612407565b9052509695505050505050565b60008060006116a78787611b2c565b915091506116b3851590565b156116c257600184600261164f565b67ffffffffffffffff8216602086015260408401511561040457600184600261167a565b60008060006116f58787611b3c565b91509150611701851590565b1561171057600184600361164f565b6040850182905260608401511561040457600184600361167a565b600080600061173a8787611b3c565b91509150611746851590565b1561175557600184600461164f565b6060850182905260808401511561040457600184600461167a565b60008060008061178286866008611b55565b909450925050505b9250929050565b60008060008061178286866004611b55565b6000806000806000602086516117b9919061241e565b96860196905060805b608081166080141561189c5786880382116118155762461bcd60e51b6000526020600452600f6024527f6c656e677468206f766572666c6f77000000000000000000000000000000000060445260536000fd5b875160005b6020811060808416608014161561189557888a0384116118725762461bcd60e51b6000526020600452600f6024527f6c656e677468206f766572666c6f77000000000000000000000000000000000060445260536000fd5b6001998a019982821a607f8116600788021b97909717969581019593500161181a565b50506117c2565b5091969095509350505050565b606060008060006118ba86866117a3565b9150915060008267ffffffffffffffff8111156118d9576118d9612452565b6040519080825280601f01601f191660200182016040528015611903576020820181803683370190505b509050600060208751611916919061241e565b90508084611924858b61241e565b61192e919061241e565b111561193c5761193c612ade565b868801830160208301611950828288611bc2565b8361195b878761241e565b975097505050505050509250929050565b60008061197d836000015151611c34565b61198890600161241e565b611992908261241e565b90506119a18360200151611c49565b6119ac90600161241e565b6119b6908261241e565b90506119c6836040015151611c34565b6119d190600161241e565b6119db908261241e565b90506119eb836060015151611c34565b6119f690600161241e565b610e2b908261241e565b8251516000908390819015611a4557611a1d600160028387611c5e565b611a27908261241e565b9050611a3886600001518286611c74565b611a42908261241e565b90505b602086015167ffffffffffffffff1615611a8f57611a67600260008387611c5e565b611a71908261241e565b9050611a8286602001518286611c81565b611a8c908261241e565b90505b60408601515115611ad057611aa8600360028387611c5e565b611ab2908261241e565b9050611ac386604001518286611c98565b611acd908261241e565b90505b60608601515115611b1157611ae9600460028387611c5e565b611af3908261241e565b9050611b0486606001518286611c98565b611b0e908261241e565b90505b6104048282612407565b6060600080600061178286866118a9565b60008060008061178286866117a3565b60606000611b4a84846118a9565b915091509250929050565b60008060008060208651611b69919061241e565b905080611b76868961241e565b1115611b8457611b84612ade565b6000878701975087515b86821015611bb35780821a826008021b84179350600189019850600182019150611b8e565b50919794965093945050505050565b6020811115611bfb5782518252611bda60208361241e565b9150611be760208461241e565b9250611bf4602082612407565b9050611bc2565b60006001611c0a836020612407565b611c1690610100612a3c565b611c209190612407565b935183518516941916939093179091525050565b6000611c3f82611cee565b6109b0908361241e565b60006109b08267ffffffffffffffff16611cee565b6000600885026007851617610404818585611d0b565b6000610c14848484611c98565b6000610c148467ffffffffffffffff168484611d0b565b825160009081611ca9828686611d0b565b905060008186018501602088015b84831015611cd657805160001a82536001928301929182019101611cb7565b50611ce39050818361241e565b979650505050505050565b60071c600060015b82156109b05760079290921c91600101611cf6565b600080828401607f86165b600787901c15611d3e578060801782535060079590951c9460019182019101607f8616611d16565b8082535050600101949350505050565b6040518060a001604052806005906020820280368337509192915050565b60038110611d7957600080fd5b50565b8035611d8781611d6c565b919050565b60008083601f840112611d9e57600080fd5b50813567ffffffffffffffff811115611db657600080fd5b6020830191508360208260051b850101111561178a57600080fd5b60008083601f840112611de357600080fd5b50813567ffffffffffffffff811115611dfb57600080fd5b60208301915083602082850101111561178a57600080fd5b600060408284031215611e2557600080fd5b50919050565b60008060008060008060008060008060c08b8d031215611e4a57600080fd5b611e538b611d7c565b995060208b013567ffffffffffffffff80821115611e7057600080fd5b611e7c8e838f01611d8c565b909b50995060408d0135915080821115611e9557600080fd5b611ea18e838f01611dd1565b909950975060608d0135915080821115611eba57600080fd5b611ec68e838f01611dd1565b909750955060808d0135915080821115611edf57600080fd5b611eeb8e838f01611e13565b945060a08d0135915080821115611f0157600080fd5b50611f0e8d828e01611dd1565b915080935050809150509295989b9194979a5092959850565b60008060008060008060608789031215611f4057600080fd5b863567ffffffffffffffff80821115611f5857600080fd5b611f648a838b01611dd1565b90985096506020890135915080821115611f7d57600080fd5b611f898a838b01611dd1565b90965094506040890135915080821115611fa257600080fd5b50611faf89828a01611dd1565b979a9699509497509295939492505050565b60006101208284031215611e2557600080fd5b600060208284031215611fe657600080fd5b813567ffffffffffffffff811115611ffd57600080fd5b610c1484828501611fc1565b60005b8381101561202457818101518382015260200161200c565b8381111561011d5750506000910152565b6000815180845261204d816020860160208601612009565b601f01601f19169290920160200192915050565b6020815260006109ad6020830184612035565b60008060008060008060008060008060008060e08d8f03121561209657600080fd5b61209f8d611d7c565b9b5067ffffffffffffffff60208e013511156120ba57600080fd5b6120ca8e60208f01358f01611d8c565b909b50995067ffffffffffffffff60408e013511156120e857600080fd5b6120f88e60408f01358f01611dd1565b909950975067ffffffffffffffff60608e0135111561211657600080fd5b6121268e60608f01358f01611dd1565b909750955067ffffffffffffffff60808e0135111561214457600080fd5b6121548e60808f01358f01611e13565b945067ffffffffffffffff60a08e0135111561216f57600080fd5b61217f8e60a08f01358f01611dd1565b909450925067ffffffffffffffff60c08e0135111561219d57600080fd5b6121ad8e60c08f01358f01611dd1565b81935080925050509295989b509295989b509295989b565b600080600080604085870312156121db57600080fd5b843567ffffffffffffffff808211156121f357600080fd5b6121ff88838901611dd1565b9096509450602087013591508082111561221857600080fd5b5061222587828801611dd1565b95989497509550505050565b60008060006040848603121561224657600080fd5b833567ffffffffffffffff8082111561225e57600080fd5b61226a87838801611fc1565b9450602086013591508082111561228057600080fd5b5061228d86828701611dd1565b9497909650939450505050565b67ffffffffffffffff81168114611d7957600080fd5b8035611d878161229a565b600080600080600080600080600060c08a8c0312156122d957600080fd5b893567ffffffffffffffff808211156122f157600080fd5b6122fd8d838e01611dd1565b909b50995060208c013591506123128261229a565b90975060408b0135906001600160a01b038216821461233057600080fd5b90965060608b0135908082111561234657600080fd5b6123528d838e01611dd1565b909750955060808c013591508082111561236b57600080fd5b506123788c828d01611dd1565b909450925061238b905060a08b016122b0565b90509295985092959850929598565b8183823760009101908152919050565b6000808335601e198436030181126123c157600080fd5b83018035915067ffffffffffffffff8211156123dc57600080fd5b60200191503681900382131561178a57600080fd5b634e487b7160e01b600052601160045260246000fd5b600082821015612419576124196123f1565b500390565b60008219821115612431576124316123f1565b500190565b60008251612448818460208701612009565b9190910192915050565b634e487b7160e01b600052604160045260246000fd5b60006001600160a01b038087168352808616602084015250608060408301526124946080830185612035565b905082606083015295945050505050565b634e487b7160e01b600052603260045260246000fd5b6001600160a01b03841681526060602082015260006124dd6060830185612035565b9050826040830152949350505050565b6040815260006125006040830185612035565b82810360208401526103738185612035565b60405160a0810167ffffffffffffffff8111828210171561253557612535612452565b60405290565b604051601f8201601f1916810167ffffffffffffffff8111828210171561256457612564612452565b604052919050565b805160058110611d8757600080fd5b8051611d8781611d6c565b600082601f83011261259757600080fd5b815167ffffffffffffffff8111156125b1576125b1612452565b6125c4601f8201601f191660200161253b565b8181528460208386010111156125d957600080fd5b610c14826020830160208701612009565b6000604082840312156125fc57600080fd5b6040516040810167ffffffffffffffff828210818311171561262057612620612452565b81604052829350845191508082111561263857600080fd5b61264486838701612586565b8352602085015191508082111561265a57600080fd5b5061266785828601612586565b6020830152505092915050565b600082601f83011261268557600080fd5b8151602067ffffffffffffffff808311156126a2576126a2612452565b8260051b6126b183820161253b565b93845285810183019383810190888611156126cb57600080fd5b84880192505b85831015612707578251848111156126e95760008081fd5b6126f78a87838c0101612586565b83525091840191908401906126d1565b98975050505050505050565b80518015158114611d8757600080fd5b6000806040838503121561273657600080fd5b825167ffffffffffffffff8082111561274e57600080fd5b9084019060a0828703121561276257600080fd5b61276a612512565b6127738361256c565b81526127816020840161257b565b602082015260408301518281111561279857600080fd5b6127a4888286016125ea565b6040830152506060830151828111156127bc57600080fd5b6127c888828601612674565b6060830152506080830151828111156127e057600080fd5b6127ec88828601612586565b608083015250935061280391505060208401612713565b90509250929050565b60006020828403121561281e57600080fd5b8151610e2b8161229a565b6020815261284460208201835167ffffffffffffffff169052565b60006020830151610120806040850152612862610140850183612035565b91506040850151601f19808685030160608701526128808483612035565b9350606087015191508086850301608087015261289d8483612035565b935060808701519150808685030160a08701526128ba8483612035565b935060a08701519150808685030160c0870152506128d88382612035565b92505060c085015161290460e0860182805167ffffffffffffffff908116835260209182015116910152565b5060e085015167ffffffffffffffff8116858301525090949350505050565b634e487b7160e01b600052602160045260246000fd5b6000816000190483118215151615612953576129536123f1565b500290565b600181815b80851115612993578160001904821115612979576129796123f1565b8085161561298657918102915b93841c939080029061295d565b509250929050565b6000826129aa575060016109b0565b816129b7575060006109b0565b81600181146129cd57600281146129d7576129f3565b60019150506109b0565b60ff8411156129e8576129e86123f1565b50506001821b6109b0565b5060208310610133831016604e8410600b8410161715612a16575081810a6109b0565b612a208383612958565b8060001904821115612a3457612a346123f1565b029392505050565b60006109ad838361299b565b6000808312837f800000000000000000000000000000000000000000000000000000000000000001831281151615612a8257612a826123f1565b837f7fffffffffffffffffffffffffffffffffffffffffffffffffffffffffffffff018313811615612ab657612ab66123f1565b50500390565b600082612ad957634e487b7160e01b600052601260045260246000fd5b500490565b634e487b7160e01b600052600160045260246000fdfea26469706673582212206a8dec572a8f5b2ce09d501e575822038966cc5cc763f798b05d1fb389ab6f2764736f6c634300080a0033",
  "immutableReferences": {},
  "source": "pragma solidity ^0.8.9;\n\nimport \"./ICS20Transfer.sol\";\nimport \"./IICS20Bank.sol\";\nimport \"../core/IBCHandler.sol\";\nimport \"../core/IBCHost.sol\";\nimport \"../core/types/App.sol\";\n\ncontract ICS20TransferBank is ICS20Transfer {\n    IICS20Bank bank;\n\n    constructor(IBCHost host_, IBCHandler ibcHandler_, IICS20Bank bank_) ICS20Transfer(host_, ibcHandler_) public {\n        bank = bank_;\n    }\n\n    function _transferFrom(address sender, address receiver, string memory denom, uint256 amount) override internal returns (bool) {\n        try bank.transferFrom(sender, receiver, denom, amount) {\n            return true;\n        } catch (bytes memory) {\n            return false;\n        }\n    }\n\n    function _mint(address account, string memory denom, uint256 amount) override internal returns (bool) {\n        try bank.mint(account, denom, amount) {\n            return true;\n        } catch (bytes memory) {\n            return false;\n        }\n    }\n\n    function _burn(address account, string memory denom, uint256 amount) override internal returns (bool) {\n        try bank.burn(account, denom, amount) {\n            return true;\n        } catch (bytes memory) {\n            return false;\n        }\n    }\n\n}\n",
  "sourcePath": "/home/dallant/Code/ancon-protocol/ethereum/contracts/yui-ibc-solidity/app/ICS20TransferBank.sol",
  "compiler": {
    "name": "solc",
    "version": "0.8.10+commit.fc410830.Emscripten.clang"
  },
  "schemaVersion": "3.4.3",
  "updatedAt": "2021-11-09T21:15:58.922Z",
  "devdoc": {
    "kind": "dev",
    "methods": {},
    "version": 1
  },
  "userdoc": {
    "kind": "user",
    "methods": {
      "onRecvPacket((uint64,string,string,string,string,bytes,(uint64,uint64),uint64))": {
        "notice": "Module callbacks ///"
      }
    },
    "version": 1
  }
}