{
  "contractName": "ICS20TransferBank",
  "abi": [
    {
      "inputs": [
        {
          "internalType": "contract IBCHost",
          "name": "host_",
          "type": "address"
        },
        {
          "internalType": "contract IBCHandler",
          "name": "ibcHandler_",
          "type": "address"
        },
        {
          "internalType": "contract IICS20Bank",
          "name": "bank_",
          "type": "address"
        }
      ],
      "stateMutability": "nonpayable",
      "type": "constructor"
    },
    {
      "inputs": [
        {
          "components": [
            {
              "internalType": "uint64",
              "name": "sequence",
              "type": "uint64"
            },
            {
              "internalType": "string",
              "name": "source_port",
              "type": "string"
            },
            {
              "internalType": "string",
              "name": "source_channel",
              "type": "string"
            },
            {
              "internalType": "string",
              "name": "destination_port",
              "type": "string"
            },
            {
              "internalType": "string",
              "name": "destination_channel",
              "type": "string"
            },
            {
              "internalType": "bytes",
              "name": "data",
              "type": "bytes"
            },
            {
              "components": [
                {
                  "internalType": "uint64",
                  "name": "revision_number",
                  "type": "uint64"
                },
                {
                  "internalType": "uint64",
                  "name": "revision_height",
                  "type": "uint64"
                }
              ],
              "internalType": "struct Height.Data",
              "name": "timeout_height",
              "type": "tuple"
            },
            {
              "internalType": "uint64",
              "name": "timeout_timestamp",
              "type": "uint64"
            }
          ],
          "internalType": "struct Packet.Data",
          "name": "packet",
          "type": "tuple"
        },
        {
          "internalType": "bytes",
          "name": "acknowledgement",
          "type": "bytes"
        }
      ],
      "name": "onAcknowledgementPacket",
      "outputs": [],
      "stateMutability": "nonpayable",
      "type": "function"
    },
    {
      "inputs": [
        {
          "internalType": "string",
          "name": "portId",
          "type": "string"
        },
        {
          "internalType": "string",
          "name": "channelId",
          "type": "string"
        }
      ],
      "name": "onChanCloseConfirm",
      "outputs": [],
      "stateMutability": "nonpayable",
      "type": "function"
    },
    {
      "inputs": [
        {
          "internalType": "string",
          "name": "portId",
          "type": "string"
        },
        {
          "internalType": "string",
          "name": "channelId",
          "type": "string"
        }
      ],
      "name": "onChanCloseInit",
      "outputs": [],
      "stateMutability": "nonpayable",
      "type": "function"
    },
    {
      "inputs": [
        {
          "internalType": "string",
          "name": "portId",
          "type": "string"
        },
        {
          "internalType": "string",
          "name": "channelId",
          "type": "string"
        },
        {
          "internalType": "string",
          "name": "counterpartyVersion",
          "type": "string"
        }
      ],
      "name": "onChanOpenAck",
      "outputs": [],
      "stateMutability": "nonpayable",
      "type": "function"
    },
    {
      "inputs": [
        {
          "internalType": "string",
          "name": "portId",
          "type": "string"
        },
        {
          "internalType": "string",
          "name": "channelId",
          "type": "string"
        }
      ],
      "name": "onChanOpenConfirm",
      "outputs": [],
      "stateMutability": "nonpayable",
      "type": "function"
    },
    {
      "inputs": [
        {
          "internalType": "enum Channel.Order",
          "name": "",
          "type": "uint8"
        },
        {
          "internalType": "string[]",
          "name": "connectionHops",
          "type": "string[]"
        },
        {
          "internalType": "string",
          "name": "portId",
          "type": "string"
        },
        {
          "internalType": "string",
          "name": "channelId",
          "type": "string"
        },
        {
          "components": [
            {
              "internalType": "string",
              "name": "port_id",
              "type": "string"
            },
            {
              "internalType": "string",
              "name": "channel_id",
              "type": "string"
            }
          ],
          "internalType": "struct ChannelCounterparty.Data",
          "name": "counterparty",
          "type": "tuple"
        },
        {
          "internalType": "string",
          "name": "version",
          "type": "string"
        }
      ],
      "name": "onChanOpenInit",
      "outputs": [],
      "stateMutability": "nonpayable",
      "type": "function"
    },
    {
      "inputs": [
        {
          "internalType": "enum Channel.Order",
          "name": "",
          "type": "uint8"
        },
        {
          "internalType": "string[]",
          "name": "connectionHops",
          "type": "string[]"
        },
        {
          "internalType": "string",
          "name": "portId",
          "type": "string"
        },
        {
          "internalType": "string",
          "name": "channelId",
          "type": "string"
        },
        {
          "components": [
            {
              "internalType": "string",
              "name": "port_id",
              "type": "string"
            },
            {
              "internalType": "string",
              "name": "channel_id",
              "type": "string"
            }
          ],
          "internalType": "struct ChannelCounterparty.Data",
          "name": "counterparty",
          "type": "tuple"
        },
        {
          "internalType": "string",
          "name": "version",
          "type": "string"
        },
        {
          "internalType": "string",
          "name": "counterpartyVersion",
          "type": "string"
        }
      ],
      "name": "onChanOpenTry",
      "outputs": [],
      "stateMutability": "nonpayable",
      "type": "function"
    },
    {
      "inputs": [
        {
          "components": [
            {
              "internalType": "uint64",
              "name": "sequence",
              "type": "uint64"
            },
            {
              "internalType": "string",
              "name": "source_port",
              "type": "string"
            },
            {
              "internalType": "string",
              "name": "source_channel",
              "type": "string"
            },
            {
              "internalType": "string",
              "name": "destination_port",
              "type": "string"
            },
            {
              "internalType": "string",
              "name": "destination_channel",
              "type": "string"
            },
            {
              "internalType": "bytes",
              "name": "data",
              "type": "bytes"
            },
            {
              "components": [
                {
                  "internalType": "uint64",
                  "name": "revision_number",
                  "type": "uint64"
                },
                {
                  "internalType": "uint64",
                  "name": "revision_height",
                  "type": "uint64"
                }
              ],
              "internalType": "struct Height.Data",
              "name": "timeout_height",
              "type": "tuple"
            },
            {
              "internalType": "uint64",
              "name": "timeout_timestamp",
              "type": "uint64"
            }
          ],
          "internalType": "struct Packet.Data",
          "name": "packet",
          "type": "tuple"
        }
      ],
      "name": "onRecvPacket",
      "outputs": [
        {
          "internalType": "bytes",
          "name": "acknowledgement",
          "type": "bytes"
        }
      ],
      "stateMutability": "nonpayable",
      "type": "function"
    },
    {
      "inputs": [
        {
          "internalType": "string",
          "name": "denom",
          "type": "string"
        },
        {
          "internalType": "uint64",
          "name": "amount",
          "type": "uint64"
        },
        {
          "internalType": "address",
          "name": "receiver",
          "type": "address"
        },
        {
          "internalType": "string",
          "name": "sourcePort",
          "type": "string"
        },
        {
          "internalType": "string",
          "name": "sourceChannel",
          "type": "string"
        },
        {
          "internalType": "uint64",
          "name": "timeoutHeight",
          "type": "uint64"
        }
      ],
      "name": "sendTransfer",
      "outputs": [],
      "stateMutability": "nonpayable",
      "type": "function"
    }
  ],
  "bytecode": "0x60806040523480156200001157600080fd5b5060405162002c3c38038062002c3c833981016040819052620000349162000090565b600180546001600160a01b039485166001600160a01b031991821617909155600080549385169382169390931790925560038054919093169116179055620000e4565b6001600160a01b03811681146200008d57600080fd5b50565b600080600060608486031215620000a657600080fd5b8351620000b38162000077565b6020850151909350620000c68162000077565b6040850151909250620000d98162000077565b809150509250925092565b612b4880620000f46000396000f3fe608060405234801561001057600080fd5b50600436106100a35760003560e01c8063a113e41111610076578063e74a1ac21161005b578063e74a1ac21461010f578063ed6cb8dd14610136578063ef4776d21461010f57600080fd5b8063a113e4111461010f578063da7b08a71461012357600080fd5b806344dd9638146100a85780634942d1ac146100bd5780635550b656146100d3578063981389f2146100fc575b600080fd5b6100bb6100b6366004611e49565b610149565b005b6100bb6100cb366004611f45565b505050505050565b6100e66100e1366004611ff2565b6101a4565b6040516100f3919061207f565b60405180910390f35b6100bb61010a366004612092565b61040e565b6100bb61011d3660046121e3565b50505050565b6100bb61013136600461224f565b61046b565b6100bb6101443660046122d9565b61054f565b306002868660405161015c9291906123b8565b90815260405190819003602001902080546001600160a01b039290921673ffffffffffffffffffffffffffffffffffffffff1990921691909117905550505050505050505050565b606060006101f26101b860a08501856123c8565b8080601f01602080910402602001604051908101604052809392919081815260200183838082843760009201919091525061084492505050565b805160408051808201825260008082526020918201819052825180840190935283518352928101908201529192505060006102e46102b261023660208801886123c8565b8080601f0160208091040260200160405190810160405280939291908181526020018383808284376000920191909152506102789250505060408901896123c8565b8080601f0160208091040260200160405190810160405280939291908181526020018383808284376000920191909152506108bd92505050565b8451604080518082018252600080825260209182015281518083019092528251825291820191810191909152906109b6565b90506102f08282610a3b565b61037c5761037361036e61034461030a60808901896123c8565b8080601f016020809104026020016040519081016040528093929190818152602001838380828437600092019190915250610a4f92505050565b6103518660600151610a87565b61035a85610ae7565b876020015167ffffffffffffffff16610b57565b610c1c565b95945050505050565b60006103da836103d461039260608a018a6123c8565b8080601f0160208091040260200160405190810160405280939291908181526020018383808284376000920191909152506102789250505060808b018b6123c8565b90610ce0565b905061040461036e6103ef8660600151610a87565b83876020015167ffffffffffffffff16610d70565b9695505050505050565b30600288886040516104219291906123b8565b90815260405190819003602001902080546001600160a01b039290921673ffffffffffffffffffffffffffffffffffffffff19909216919091179055505050505050505050505050565b6104aa82828080601f016020809104026020016040519081016040528093929190818152602001838380828437600092019190915250610e3292505050565b61054a5761054a6104c16101b860a08601866123c8565b6104ce60208601866123c8565b8080601f0160208091040260200160405190810160405280939291908181526020018383808284376000920191909152506105109250505060408701876123c8565b8080601f016020809104026020016040519081016040528093929190818152602001838380828437600092019190915250610ea592505050565b505050565b61060a6105c586868080601f01602080910402602001604051908101604052809392919081815260200183838082843760009201919091525050604080516020601f8a0181900481028201810190925288815292508891508790819084018382808284376000920191909152506108bd92505050565b6106048b8b8080601f01602080910402602001604051908101604052809392919081815260200183838082843760009201919091525061089092505050565b90610f45565b6106a6576106983361065185858080601f016020809104026020016040519081016040528093929190818152602001838380828437600092019190915250610a4f92505050565b8b8b8080601f016020809104026020016040519081016040528093929190818152602001838380828437600092019190915250505067ffffffffffffffff8c169050610b57565b6106a157600080fd5b6106fa565b6106f1338a8a8080601f016020809104026020016040519081016040528093929190818152602001838380828437600092019190915250505067ffffffffffffffff8b169050610f89565b6106fa57600080fd5b6040805160a06020601f8c018190040282018101909252608081018a8152610839928291908d908d908190850183828082843760009201919091525050509082525067ffffffffffffffff8a16602082015260400133604051602001610778919060609190911b6bffffffffffffffffffffffff1916815260140190565b6040516020818303038152906040528152602001886040516020016107b5919060609190911b6bffffffffffffffffffffffff1916815260140190565b60405160208183030381529060405281525086868080601f01602080910402602001604051908101604052809392919081815260200183838082843760009201919091525050604080516020601f8a018190048102820181019092528881529250889150879081908401838280828437600092019190915250879250610fd7915050565b505050505050505050565b610879604051806080016040528060608152602001600067ffffffffffffffff16815260200160608152602001606081525090565b6000610888602084855161124f565b509392505050565b60408051808201825260008082526020918201528151808301909252825182529182019181019190915290565b604080518082018252600080825260208083018290528351808501855260018152602f60f81b818301908152855180870187528481528301939093528451808601909552518452830152906109ad90610890906040805180820182526000808252602091820152815180830190925286518252808701908201526103d4906108909060408051808201825260018152602f60f81b602080830191825283518085018552600080825290820152835180850190945291518352908201526103d49061089090604080518082018252600080825260209182015281518083019092528d518252808e01908201526103d4565b90505b92915050565b60408051808201909152600080825260208201528151835110156109db5750816109b0565b6020808301519084015160019114610a025750815160208481015190840151829020919020145b8015610a3357825184518590610a19908390612425565b9052508251602085018051610a2f90839061243c565b9052505b509192915050565b6000610a47838361143f565b159392505050565b600080600283604051610a629190612454565b908152604051908190036020019020546001600160a01b03169050806109b057600080fd5b60008151601414610adf5760405162461bcd60e51b815260206004820152601b60248201527f63616e6e6f7420636f6e7665727420696e746f2061646472657373000000000060448201526064015b60405180910390fd5b506014015190565b60606000826000015167ffffffffffffffff811115610b0857610b08612470565b6040519080825280601f01601f191660200182016040528015610b32576020820181803683370190505b5090506000602082019050610b508185602001518660000151611523565b5092915050565b6003546040517ff24dc1da0000000000000000000000000000000000000000000000000000000081526000916001600160a01b03169063f24dc1da90610ba7908890889088908890600401612486565b600060405180830381600087803b158015610bc157600080fd5b505af1925050508015610bd2575060015b610c10573d808015610c00576040519150601f19603f3d011682016040523d82523d6000602084013e610c05565b606091505b506000915050610c14565b5060015b949350505050565b604080516001808252818301909252606091600091906020820181803683370190505090508215610c9357600160f81b81600081518110610c5f57610c5f6124c3565b60200101907effffffffffffffffffffffffffffffffffffffffffffffffffffffffffffff1916908160001a9053506109b0565b600060f81b81600081518110610cab57610cab6124c3565b60200101907effffffffffffffffffffffffffffffffffffffffffffffffffffffffffffff1916908160001a90535092915050565b80518251606091600091610cf4919061243c565b67ffffffffffffffff811115610d0c57610d0c612470565b6040519080825280601f01601f191660200182016040528015610d36576020820181803683370190505b5090506000602082019050610d548186602001518760000151611523565b845161088890610d64908361243c565b60208601518651611523565b6003546040517fba7aef430000000000000000000000000000000000000000000000000000000081526000916001600160a01b03169063ba7aef4390610dbe908790879087906004016124d9565b600060405180830381600087803b158015610dd857600080fd5b505af1925050508015610de9575060015b610e27573d808015610e17576040519150601f19603f3d011682016040523d82523d6000602084013e610e1c565b606091505b506000915050610e2b565b5060015b9392505050565b60008151600114610e4257600080fd5b81600081518110610e5557610e556124c3565b6020910101517fff00000000000000000000000000000000000000000000000000000000000000167f01000000000000000000000000000000000000000000000000000000000000001492915050565b610ee3610eb283836108bd565b8451604080518082018252600080825260209182015281518083019092528251825291820191810191909152610604565b610f1f57610f16610ef382610a4f565b610f008560400151610a87565b8551602087015167ffffffffffffffff16610b57565b61054a57600080fd5b610f16610f2f8460400151610a87565b8451602086015167ffffffffffffffff16610d70565b805182516000911115610f5a575060006109b0565b816020015183602001511415610f72575060016109b0565b508051602092830151929091015181902091201490565b6003546040517fc45b71de0000000000000000000000000000000000000000000000000000000081526000916001600160a01b03169063c45b71de90610dbe908790879087906004016124d9565b6001546040517f3000217a00000000000000000000000000000000000000000000000000000000815260009182916001600160a01b0390911690633000217a90611027908890889060040161250b565b60006040518083038186803b15801561103f57600080fd5b505afa158015611053573d6000803e3d6000fd5b505050506040513d6000823e601f3d908101601f1916820160405261107b9190810190612741565b91509150806110cc5760405162461bcd60e51b815260206004820152601160248201527f6368616e6e656c206e6f7420666f756e640000000000000000000000000000006044820152606401610ad6565b600054604080516101008101918290526001547f582418b6000000000000000000000000000000000000000000000000000000009092526001600160a01b03928316926340835e449282911663582418b661112c8b8b610104860161250b565b60206040518083038186803b15801561114457600080fd5b505afa158015611158573d6000803e3d6000fd5b505050506040513d601f19601f8201168201806040525081019061117c919061282a565b67ffffffffffffffff16815260208082018a905260408083018a905287018051516060840152510151608082015260a0016111b68a611594565b81526020016040518060400160405280600067ffffffffffffffff1681526020018867ffffffffffffffff168152508152602001600067ffffffffffffffff168152506040518263ffffffff1660e01b81526004016112159190612847565b600060405180830381600087803b15801561122f57600080fd5b505af1158015611243573d6000803e3d6000fd5b50505050505050505050565b611284604051806080016040528060608152602001600067ffffffffffffffff16815260200160608152602001606081525090565b604080516080810182526060808252600060208301819052928201819052808201526112ae611d6c565b6000808089805b6112bf8a8361243c565b81101561142d576112d0818c6115fd565b919650945092506112e1838261243c565b90508460011415611309576112f8818c8989611648565b611302908261243c565b90506112b5565b846002141561131e576112f8818c89896116b6565b8460031415611333576112f8818c8989611704565b8460041415611348576112f8818c8989611749565b600184600581111561135c5761135c612941565b141561138057600061136e828d61178e565b915061137c9050818361243c565b9150505b600584600581111561139457611394612941565b14156113b85760006113a6828d6117af565b91506113b49050818361243c565b9150505b60008460058111156113cc576113cc612941565b14156113f05760006113de828d6117c1565b91506113ec9050818361243c565b9150505b600284600581111561140457611404612941565b1415611428576000611416828d6118c7565b91506114249050818361243c565b9150505b6112b5565b50949a97995096975050505050505050565b8151815160009190811115611452575081515b6020808501519084015160005b8381101561151457825182518082146114e45760001960208710156114ba5760018461148c896020612425565b611496919061243c565b6114a1906008612957565b6114ac906002612a5a565b6114b69190612425565b1990505b60006114ca838316858416612425565b905080156114e15797506109b09650505050505050565b50505b6114ef60208661243c565b94506114fc60208561243c565b9350505060208161150d919061243c565b905061145f565b50845186516104049190612a66565b6020811061155b578151835261153a60208461243c565b925061154760208361243c565b9150611554602082612425565b9050611523565b6000600161156a836020612425565b61157690610100612a5a565b6115809190612425565b925184518416931916929092179092525050565b606060006115a18361198a565b67ffffffffffffffff8111156115b9576115b9612470565b6040519080825280601f01601f1916602001820160405280156115e3576020820181803683370190505b50905060006115f484602084611a1e565b82525092915050565b600080600080600061160f87876117c1565b91509150600082600716600581111561162a5761162a612941565b90506000611639600885612ada565b99919850919650945050505050565b60008060006116578787611b39565b91509150611663851590565b1561168657600184815b6020020181815161167e919061243c565b905250610404565b81855260208401511561040457600184815b602002018181516116a99190612425565b9052509695505050505050565b60008060006116c58787611b4a565b915091506116d1851590565b156116e057600184600261166d565b67ffffffffffffffff82166020860152604084015115610404576001846002611698565b60008060006117138787611b5a565b9150915061171f851590565b1561172e57600184600361166d565b60408501829052606084015115610404576001846003611698565b60008060006117588787611b5a565b91509150611764851590565b1561177357600184600461166d565b60608501829052608084015115610404576001846004611698565b6000806000806117a086866008611b73565b909450925050505b9250929050565b6000806000806117a086866004611b73565b6000806000806000602086516117d7919061243c565b96860196905060805b60808116608014156118ba5786880382116118335762461bcd60e51b6000526020600452600f6024527f6c656e677468206f766572666c6f77000000000000000000000000000000000060445260536000fd5b875160005b602081106080841660801416156118b357888a0384116118905762461bcd60e51b6000526020600452600f6024527f6c656e677468206f766572666c6f77000000000000000000000000000000000060445260536000fd5b6001998a019982821a607f8116600788021b979097179695810195935001611838565b50506117e0565b5091969095509350505050565b606060008060006118d886866117c1565b9150915060008267ffffffffffffffff8111156118f7576118f7612470565b6040519080825280601f01601f191660200182016040528015611921576020820181803683370190505b509050600060208751611934919061243c565b90508084611942858b61243c565b61194c919061243c565b111561195a5761195a612afc565b86880183016020830161196e828288611be0565b83611979878761243c565b975097505050505050509250929050565b60008061199b836000015151611c52565b6119a690600161243c565b6119b0908261243c565b90506119bf8360200151611c67565b6119ca90600161243c565b6119d4908261243c565b90506119e4836040015151611c52565b6119ef90600161243c565b6119f9908261243c565b9050611a09836060015151611c52565b611a1490600161243c565b610e2b908261243c565b8251516000908390819015611a6357611a3b600160028387611c7c565b611a45908261243c565b9050611a5686600001518286611c92565b611a60908261243c565b90505b602086015167ffffffffffffffff1615611aad57611a85600260008387611c7c565b611a8f908261243c565b9050611aa086602001518286611c9f565b611aaa908261243c565b90505b60408601515115611aee57611ac6600360028387611c7c565b611ad0908261243c565b9050611ae186604001518286611cb6565b611aeb908261243c565b90505b60608601515115611b2f57611b07600460028387611c7c565b611b11908261243c565b9050611b2286606001518286611cb6565b611b2c908261243c565b90505b6104048282612425565b606060008060006117a086866118c7565b6000806000806117a086866117c1565b60606000611b6884846118c7565b915091509250929050565b60008060008060208651611b87919061243c565b905080611b94868961243c565b1115611ba257611ba2612afc565b6000878701975087515b86821015611bd15780821a826008021b84179350600189019850600182019150611bac565b50919794965093945050505050565b6020811115611c195782518252611bf860208361243c565b9150611c0560208461243c565b9250611c12602082612425565b9050611be0565b60006001611c28836020612425565b611c3490610100612a5a565b611c3e9190612425565b935183518516941916939093179091525050565b6000611c5d82611d0c565b6109b0908361243c565b60006109b08267ffffffffffffffff16611d0c565b6000600885026007851617610404818585611d29565b6000610c14848484611cb6565b6000610c148467ffffffffffffffff168484611d29565b825160009081611cc7828686611d29565b905060008186018501602088015b84831015611cf457805160001a82536001928301929182019101611cd5565b50611d019050818361243c565b979650505050505050565b60071c600060015b82156109b05760079290921c91600101611d14565b600080828401607f86165b600787901c15611d5c578060801782535060079590951c9460019182019101607f8616611d34565b8082535050600101949350505050565b6040518060a001604052806005906020820280368337509192915050565b60038110611d9757600080fd5b50565b8035611da581611d8a565b919050565b60008083601f840112611dbc57600080fd5b50813567ffffffffffffffff811115611dd457600080fd5b6020830191508360208260051b85010111156117a857600080fd5b60008083601f840112611e0157600080fd5b50813567ffffffffffffffff811115611e1957600080fd5b6020830191508360208285010111156117a857600080fd5b600060408284031215611e4357600080fd5b50919050565b60008060008060008060008060008060c08b8d031215611e6857600080fd5b611e718b611d9a565b995060208b013567ffffffffffffffff80821115611e8e57600080fd5b611e9a8e838f01611daa565b909b50995060408d0135915080821115611eb357600080fd5b611ebf8e838f01611def565b909950975060608d0135915080821115611ed857600080fd5b611ee48e838f01611def565b909750955060808d0135915080821115611efd57600080fd5b611f098e838f01611e31565b945060a08d0135915080821115611f1f57600080fd5b50611f2c8d828e01611def565b915080935050809150509295989b9194979a5092959850565b60008060008060008060608789031215611f5e57600080fd5b863567ffffffffffffffff80821115611f7657600080fd5b611f828a838b01611def565b90985096506020890135915080821115611f9b57600080fd5b611fa78a838b01611def565b90965094506040890135915080821115611fc057600080fd5b50611fcd89828a01611def565b979a9699509497509295939492505050565b60006101208284031215611e4357600080fd5b60006020828403121561200457600080fd5b813567ffffffffffffffff81111561201b57600080fd5b610c1484828501611fdf565b60005b8381101561204257818101518382015260200161202a565b8381111561011d5750506000910152565b6000815180845261206b816020860160208601612027565b601f01601f19169290920160200192915050565b6020815260006109ad6020830184612053565b60008060008060008060008060008060008060e08d8f0312156120b457600080fd5b6120bd8d611d9a565b9b5067ffffffffffffffff60208e013511156120d857600080fd5b6120e88e60208f01358f01611daa565b909b50995067ffffffffffffffff60408e0135111561210657600080fd5b6121168e60408f01358f01611def565b909950975067ffffffffffffffff60608e0135111561213457600080fd5b6121448e60608f01358f01611def565b909750955067ffffffffffffffff60808e0135111561216257600080fd5b6121728e60808f01358f01611e31565b945067ffffffffffffffff60a08e0135111561218d57600080fd5b61219d8e60a08f01358f01611def565b909450925067ffffffffffffffff60c08e013511156121bb57600080fd5b6121cb8e60c08f01358f01611def565b81935080925050509295989b509295989b509295989b565b600080600080604085870312156121f957600080fd5b843567ffffffffffffffff8082111561221157600080fd5b61221d88838901611def565b9096509450602087013591508082111561223657600080fd5b5061224387828801611def565b95989497509550505050565b60008060006040848603121561226457600080fd5b833567ffffffffffffffff8082111561227c57600080fd5b61228887838801611fdf565b9450602086013591508082111561229e57600080fd5b506122ab86828701611def565b9497909650939450505050565b67ffffffffffffffff81168114611d9757600080fd5b8035611da5816122b8565b600080600080600080600080600060c08a8c0312156122f757600080fd5b893567ffffffffffffffff8082111561230f57600080fd5b61231b8d838e01611def565b909b50995060208c01359150612330826122b8565b90975060408b0135906001600160a01b038216821461234e57600080fd5b90965060608b0135908082111561236457600080fd5b6123708d838e01611def565b909750955060808c013591508082111561238957600080fd5b506123968c828d01611def565b90945092506123a9905060a08b016122ce565b90509295985092959850929598565b8183823760009101908152919050565b6000808335601e198436030181126123df57600080fd5b83018035915067ffffffffffffffff8211156123fa57600080fd5b6020019150368190038213156117a857600080fd5b634e487b7160e01b600052601160045260246000fd5b6000828210156124375761243761240f565b500390565b6000821982111561244f5761244f61240f565b500190565b60008251612466818460208701612027565b9190910192915050565b634e487b7160e01b600052604160045260246000fd5b60006001600160a01b038087168352808616602084015250608060408301526124b26080830185612053565b905082606083015295945050505050565b634e487b7160e01b600052603260045260246000fd5b6001600160a01b03841681526060602082015260006124fb6060830185612053565b9050826040830152949350505050565b60408152600061251e6040830185612053565b82810360208401526103738185612053565b60405160a0810167ffffffffffffffff8111828210171561255357612553612470565b60405290565b604051601f8201601f1916810167ffffffffffffffff8111828210171561258257612582612470565b604052919050565b805160058110611da557600080fd5b8051611da581611d8a565b600082601f8301126125b557600080fd5b815167ffffffffffffffff8111156125cf576125cf612470565b6125e2601f8201601f1916602001612559565b8181528460208386010111156125f757600080fd5b610c14826020830160208701612027565b60006040828403121561261a57600080fd5b6040516040810167ffffffffffffffff828210818311171561263e5761263e612470565b81604052829350845191508082111561265657600080fd5b612662868387016125a4565b8352602085015191508082111561267857600080fd5b50612685858286016125a4565b6020830152505092915050565b600082601f8301126126a357600080fd5b8151602067ffffffffffffffff808311156126c0576126c0612470565b8260051b6126cf838201612559565b93845285810183019383810190888611156126e957600080fd5b84880192505b85831015612725578251848111156127075760008081fd5b6127158a87838c01016125a4565b83525091840191908401906126ef565b98975050505050505050565b80518015158114611da557600080fd5b6000806040838503121561275457600080fd5b825167ffffffffffffffff8082111561276c57600080fd5b9084019060a0828703121561278057600080fd5b612788612530565b6127918361258a565b815261279f60208401612599565b60208201526040830151828111156127b657600080fd5b6127c288828601612608565b6040830152506060830151828111156127da57600080fd5b6127e688828601612692565b6060830152506080830151828111156127fe57600080fd5b61280a888286016125a4565b608083015250935061282191505060208401612731565b90509250929050565b60006020828403121561283c57600080fd5b8151610e2b816122b8565b6020815261286260208201835167ffffffffffffffff169052565b60006020830151610120806040850152612880610140850183612053565b91506040850151601f198086850301606087015261289e8483612053565b935060608701519150808685030160808701526128bb8483612053565b935060808701519150808685030160a08701526128d88483612053565b935060a08701519150808685030160c0870152506128f68382612053565b92505060c085015161292260e0860182805167ffffffffffffffff908116835260209182015116910152565b5060e085015167ffffffffffffffff8116858301525090949350505050565b634e487b7160e01b600052602160045260246000fd5b60008160001904831182151516156129715761297161240f565b500290565b600181815b808511156129b15781600019048211156129975761299761240f565b808516156129a457918102915b93841c939080029061297b565b509250929050565b6000826129c8575060016109b0565b816129d5575060006109b0565b81600181146129eb57600281146129f557612a11565b60019150506109b0565b60ff841115612a0657612a0661240f565b50506001821b6109b0565b5060208310610133831016604e8410600b8410161715612a34575081810a6109b0565b612a3e8383612976565b8060001904821115612a5257612a5261240f565b029392505050565b60006109ad83836129b9565b6000808312837f800000000000000000000000000000000000000000000000000000000000000001831281151615612aa057612aa061240f565b837f7fffffffffffffffffffffffffffffffffffffffffffffffffffffffffffffff018313811615612ad457612ad461240f565b50500390565b600082612af757634e487b7160e01b600052601260045260246000fd5b500490565b634e487b7160e01b600052600160045260246000fdfea2646970667358221220b209cc9d08ede27a8c9bc00b71373b34bcf096320aac6292298abd3e6c9e635264736f6c63430008090033",
  "immutableReferences": {},
  "source": "pragma solidity ^0.8.9;\n\nimport \"./ICS20Transfer.sol\";\nimport \"./IICS20Bank.sol\";\nimport \"../core/IBCHandler.sol\";\nimport \"../core/IBCHost.sol\";\nimport \"../core/types/App.sol\";\n\ncontract ICS20TransferBank is ICS20Transfer {\n    IICS20Bank bank;\n\n    constructor(IBCHost host_, IBCHandler ibcHandler_, IICS20Bank bank_) ICS20Transfer(host_, ibcHandler_) public {\n        bank = bank_;\n    }\n\n    function _transferFrom(address sender, address receiver, string memory denom, uint256 amount) override internal returns (bool) {\n        try bank.transferFrom(sender, receiver, denom, amount) {\n            return true;\n        } catch (bytes memory) {\n            return false;\n        }\n    }\n\n    function _mint(address account, string memory denom, uint256 amount) override internal returns (bool) {\n        try bank.mint(account, denom, amount) {\n            return true;\n        } catch (bytes memory) {\n            return false;\n        }\n    }\n\n    function _burn(address account, string memory denom, uint256 amount) override internal returns (bool) {\n        try bank.burn(account, denom, amount) {\n            return true;\n        } catch (bytes memory) {\n            return false;\n        }\n    }\n\n}\n",
  "sourcePath": "/home/rogelio/Code/ancon-protocol/ethereum/contracts/yui-ibc-solidity/app/ICS20TransferBank.sol",
  "compiler": {
    "name": "solc",
    "version": "0.8.9+commit.e5eed63a.Emscripten.clang"
  },
  "schemaVersion": "3.4.0",
  "updatedAt": "2021-11-02T12:42:58.433Z",
  "networkType": "ethereum",
  "devdoc": {
    "kind": "dev",
    "methods": {},
    "version": 1
  },
  "userdoc": {
    "kind": "user",
    "methods": {
      "onRecvPacket((uint64,string,string,string,string,bytes,(uint64,uint64),uint64))": {
        "notice": "Module callbacks ///"
      }
    },
    "version": 1
  }
}