{
  "contractName": "MockClient",
  "abi": [
    {
      "inputs": [],
      "stateMutability": "nonpayable",
      "type": "constructor"
    },
    {
      "inputs": [
        {
          "internalType": "contract IBCHost",
          "name": "host",
          "type": "address"
        },
        {
          "internalType": "string",
          "name": "clientId",
          "type": "string"
        },
        {
          "internalType": "uint64",
          "name": "height",
          "type": "uint64"
        }
      ],
      "name": "getTimestampAtHeight",
      "outputs": [
        {
          "internalType": "uint64",
          "name": "",
          "type": "uint64"
        },
        {
          "internalType": "bool",
          "name": "",
          "type": "bool"
        }
      ],
      "stateMutability": "view",
      "type": "function",
      "constant": true
    },
    {
      "inputs": [
        {
          "internalType": "contract IBCHost",
          "name": "host",
          "type": "address"
        },
        {
          "internalType": "string",
          "name": "clientId",
          "type": "string"
        }
      ],
      "name": "getLatestHeight",
      "outputs": [
        {
          "internalType": "uint64",
          "name": "",
          "type": "uint64"
        },
        {
          "internalType": "bool",
          "name": "",
          "type": "bool"
        }
      ],
      "stateMutability": "view",
      "type": "function",
      "constant": true
    },
    {
      "inputs": [
        {
          "internalType": "contract IBCHost",
          "name": "host",
          "type": "address"
        },
        {
          "internalType": "string",
          "name": "clientId",
          "type": "string"
        },
        {
          "internalType": "bytes",
          "name": "clientStateBytes",
          "type": "bytes"
        },
        {
          "internalType": "bytes",
          "name": "headerBytes",
          "type": "bytes"
        }
      ],
      "name": "checkHeaderAndUpdateState",
      "outputs": [
        {
          "internalType": "bytes",
          "name": "newClientStateBytes",
          "type": "bytes"
        },
        {
          "internalType": "bytes",
          "name": "newConsensusStateBytes",
          "type": "bytes"
        },
        {
          "internalType": "uint64",
          "name": "height",
          "type": "uint64"
        }
      ],
      "stateMutability": "view",
      "type": "function",
      "constant": true
    },
    {
      "inputs": [
        {
          "internalType": "contract IBCHost",
          "name": "host",
          "type": "address"
        },
        {
          "internalType": "string",
          "name": "clientId",
          "type": "string"
        },
        {
          "internalType": "uint64",
          "name": "height",
          "type": "uint64"
        },
        {
          "internalType": "bytes",
          "name": "prefix",
          "type": "bytes"
        },
        {
          "internalType": "string",
          "name": "counterpartyClientIdentifier",
          "type": "string"
        },
        {
          "internalType": "bytes",
          "name": "proof",
          "type": "bytes"
        },
        {
          "internalType": "bytes",
          "name": "clientStateBytes",
          "type": "bytes"
        }
      ],
      "name": "verifyClientState",
      "outputs": [
        {
          "internalType": "bool",
          "name": "",
          "type": "bool"
        }
      ],
      "stateMutability": "nonpayable",
      "type": "function"
    },
    {
      "inputs": [
        {
          "internalType": "contract IBCHost",
          "name": "host",
          "type": "address"
        },
        {
          "internalType": "string",
          "name": "clientId",
          "type": "string"
        },
        {
          "internalType": "uint64",
          "name": "height",
          "type": "uint64"
        },
        {
          "internalType": "string",
          "name": "counterpartyClientIdentifier",
          "type": "string"
        },
        {
          "internalType": "uint64",
          "name": "consensusHeight",
          "type": "uint64"
        },
        {
          "internalType": "bytes",
          "name": "prefix",
          "type": "bytes"
        },
        {
          "internalType": "bytes",
          "name": "proof",
          "type": "bytes"
        },
        {
          "internalType": "bytes",
          "name": "consensusStateBytes",
          "type": "bytes"
        }
      ],
      "name": "verifyClientConsensusState",
      "outputs": [
        {
          "internalType": "bool",
          "name": "",
          "type": "bool"
        }
      ],
      "stateMutability": "nonpayable",
      "type": "function"
    },
    {
      "inputs": [
        {
          "internalType": "contract IBCHost",
          "name": "host",
          "type": "address"
        },
        {
          "internalType": "string",
          "name": "clientId",
          "type": "string"
        },
        {
          "internalType": "uint64",
          "name": "height",
          "type": "uint64"
        },
        {
          "internalType": "bytes",
          "name": "prefix",
          "type": "bytes"
        },
        {
          "internalType": "bytes",
          "name": "proof",
          "type": "bytes"
        },
        {
          "internalType": "string",
          "name": "connectionId",
          "type": "string"
        },
        {
          "internalType": "bytes",
          "name": "connectionBytes",
          "type": "bytes"
        }
      ],
      "name": "verifyConnectionState",
      "outputs": [
        {
          "internalType": "bool",
          "name": "",
          "type": "bool"
        }
      ],
      "stateMutability": "nonpayable",
      "type": "function"
    },
    {
      "inputs": [
        {
          "internalType": "contract IBCHost",
          "name": "host",
          "type": "address"
        },
        {
          "internalType": "string",
          "name": "clientId",
          "type": "string"
        },
        {
          "internalType": "uint64",
          "name": "height",
          "type": "uint64"
        },
        {
          "internalType": "bytes",
          "name": "prefix",
          "type": "bytes"
        },
        {
          "internalType": "bytes",
          "name": "proof",
          "type": "bytes"
        },
        {
          "internalType": "string",
          "name": "portId",
          "type": "string"
        },
        {
          "internalType": "string",
          "name": "channelId",
          "type": "string"
        },
        {
          "internalType": "bytes",
          "name": "channelBytes",
          "type": "bytes"
        }
      ],
      "name": "verifyChannelState",
      "outputs": [
        {
          "internalType": "bool",
          "name": "",
          "type": "bool"
        }
      ],
      "stateMutability": "nonpayable",
      "type": "function"
    },
    {
      "inputs": [
        {
          "internalType": "contract IBCHost",
          "name": "host",
          "type": "address"
        },
        {
          "internalType": "string",
          "name": "clientId",
          "type": "string"
        },
        {
          "internalType": "uint64",
          "name": "height",
          "type": "uint64"
        },
        {
          "internalType": "uint64",
          "name": "delayPeriodTime",
          "type": "uint64"
        },
        {
          "internalType": "uint64",
          "name": "delayPeriodBlocks",
          "type": "uint64"
        },
        {
          "internalType": "bytes",
          "name": "prefix",
          "type": "bytes"
        },
        {
          "internalType": "bytes",
          "name": "proof",
          "type": "bytes"
        },
        {
          "internalType": "string",
          "name": "portId",
          "type": "string"
        },
        {
          "internalType": "string",
          "name": "channelId",
          "type": "string"
        },
        {
          "internalType": "uint64",
          "name": "sequence",
          "type": "uint64"
        },
        {
          "internalType": "bytes32",
          "name": "commitmentBytes",
          "type": "bytes32"
        }
      ],
      "name": "verifyPacketCommitment",
      "outputs": [
        {
          "internalType": "bool",
          "name": "",
          "type": "bool"
        }
      ],
      "stateMutability": "nonpayable",
      "type": "function"
    },
    {
      "inputs": [
        {
          "internalType": "contract IBCHost",
          "name": "host",
          "type": "address"
        },
        {
          "internalType": "string",
          "name": "clientId",
          "type": "string"
        },
        {
          "internalType": "uint64",
          "name": "height",
          "type": "uint64"
        },
        {
          "internalType": "uint64",
          "name": "delayPeriodTime",
          "type": "uint64"
        },
        {
          "internalType": "uint64",
          "name": "delayPeriodBlocks",
          "type": "uint64"
        },
        {
          "internalType": "bytes",
          "name": "prefix",
          "type": "bytes"
        },
        {
          "internalType": "bytes",
          "name": "proof",
          "type": "bytes"
        },
        {
          "internalType": "string",
          "name": "portId",
          "type": "string"
        },
        {
          "internalType": "string",
          "name": "channelId",
          "type": "string"
        },
        {
          "internalType": "uint64",
          "name": "sequence",
          "type": "uint64"
        },
        {
          "internalType": "bytes",
          "name": "acknowledgement",
          "type": "bytes"
        }
      ],
      "name": "verifyPacketAcknowledgement",
      "outputs": [
        {
          "internalType": "bool",
          "name": "",
          "type": "bool"
        }
      ],
      "stateMutability": "nonpayable",
      "type": "function"
    },
    {
      "inputs": [
        {
          "internalType": "contract IBCHost",
          "name": "host",
          "type": "address"
        },
        {
          "internalType": "string",
          "name": "clientId",
          "type": "string"
        }
      ],
      "name": "getClientState",
      "outputs": [
        {
          "components": [
            {
              "internalType": "uint64",
              "name": "latest_height",
              "type": "uint64"
            }
          ],
          "internalType": "struct IbcLightclientsMockV1ClientState.Data",
          "name": "clientState",
          "type": "tuple"
        },
        {
          "internalType": "bool",
          "name": "found",
          "type": "bool"
        }
      ],
      "stateMutability": "view",
      "type": "function",
      "constant": true
    },
    {
      "inputs": [
        {
          "internalType": "contract IBCHost",
          "name": "host",
          "type": "address"
        },
        {
          "internalType": "string",
          "name": "clientId",
          "type": "string"
        },
        {
          "internalType": "uint64",
          "name": "height",
          "type": "uint64"
        }
      ],
      "name": "getConsensusState",
      "outputs": [
        {
          "components": [
            {
              "internalType": "uint64",
              "name": "timestamp",
              "type": "uint64"
            }
          ],
          "internalType": "struct IbcLightclientsMockV1ConsensusState.Data",
          "name": "consensusState",
          "type": "tuple"
        },
        {
          "internalType": "bool",
          "name": "found",
          "type": "bool"
        }
      ],
      "stateMutability": "view",
      "type": "function",
      "constant": true
    }
  ],
  "bytecode": "0x608060405234801561001057600080fd5b5060408051606081019091527f2f6962632e6c69676874636c69656e74732e6d6f636b2e76312e436c69656e74608082015264537461746560d81b60a08201528060a581016040516020818303038152906040528051906020012081526020016040516020016100b4907f2f6962632e6c69676874636c69656e74732e6d6f636b2e76312e436f6e73656e815267737573537461746560c01b602082015260280190565b604051602081830303815290604052805190602001208152602001604051602001610102907f2f6962632e6c69676874636c69656e74732e6d6f636b2e76312e486561646572815260200190565b60408051601f198184030181529181528151602092830120909252825160005582015160015501516002556126db8061013c6000396000f3fe608060405234801561001057600080fd5b50600436106100c95760003560e01c8063d112d0b511610081578063fe0177501161005b578063fe017750146101bb578063fe4391fd146101ce578063ff33b3e6146101f057600080fd5b8063d112d0b514610182578063eb4561fb14610195578063f30fef52146101a857600080fd5b80636455eb57116100b25780636455eb5714610109578063bd90991a1461011c578063d10c838e1461014f57600080fd5b80630a888023146100ce5780633b8b16bc146100f6575b600080fd5b6100e16100dc366004611ceb565b610203565b60405190151581526020015b60405180910390f35b6100e1610104366004611e24565b6102f9565b6100e1610117366004611f7a565b61047e565b61012f61012a366004612092565b6105bb565b6040805167ffffffffffffffff90931683529015156020830152016100ed565b61016261015d366004612092565b6105f4565b60408051925167ffffffffffffffff1683529015156020830152016100ed565b6100e16101903660046120f0565b6106be565b6100e16101a33660046121e3565b6107fa565b6100e16101b63660046120f0565b6108d8565b61012f6101c9366004612270565b6109b6565b6101e16101dc3660046122be565b6109ed565b6040516100ed939291906123b3565b6101626101fe366004612270565b610b64565b6000808c6001600160a01b031663a37a45c88d8d6040518363ffffffff1660e01b81526004016102349291906123f3565b60006040518083038186803b15801561024c57600080fd5b505afa158015610260573d6000803e3d6000fd5b505050506040513d6000823e601f3d908101601f19168201604052610288919081019061241f565b915050806102dd5760405162461bcd60e51b815260206004820152601960248201527f636f6e73656e737573207374617465206e6f7420666f756e640000000000000060448201526064015b60405180910390fd5b6102e687610c2b565b9092149c9b505050505050505050505050565b6000808c6001600160a01b031663a37a45c88d8d6040518363ffffffff1660e01b815260040161032a9291906123f3565b60006040518083038186803b15801561034257600080fd5b505afa158015610356573d6000803e3d6000fd5b505050506040513d6000823e601f3d908101601f1916820160405261037e919081019061241f565b915050806103ce5760405162461bcd60e51b815260206004820152601960248201527f636f6e73656e737573207374617465206e6f7420666f756e640000000000000060448201526064016102d4565b6103d787610c2b565b6040517f8a8896580000000000000000000000000000000000000000000000000000000081526001600160a01b038f1690638a8896589061041c9087906004016124b2565b60206040518083038186803b15801561043457600080fd5b505afa158015610448573d6000803e3d6000fd5b505050506040513d601f19601f8201168201806040525081019061046c91906124c5565b149d9c50505050505050505050505050565b600080896001600160a01b031663a37a45c88a8a6040518363ffffffff1660e01b81526004016104af9291906123f3565b60006040518083038186803b1580156104c757600080fd5b505afa1580156104db573d6000803e3d6000fd5b505050506040513d6000823e601f3d908101601f19168201604052610503919081019061241f565b915050806105535760405162461bcd60e51b815260206004820152601960248201527f636f6e73656e737573207374617465206e6f7420666f756e640000000000000060448201526064016102d4565b61055c86610c2b565b60028460405161056c91906124de565b602060405180830381855afa158015610589573d6000803e3d6000fd5b5050506040513d601f19601f820116820180604052508101906105ac91906124c5565b149a9950505050505050505050565b6000806000806105cc8787876105f4565b91509150806105e3576000809350935050506105ec565b50519150600190505b935093915050565b60408051602081019091526000815260006060856001600160a01b031663a37a45c886866040518363ffffffff1660e01b81526004016106359291906123f3565b60006040518083038186803b15801561064d57600080fd5b505afa158015610661573d6000803e3d6000fd5b505050506040513d6000823e601f3d908101601f19168201604052610689919081019061241f565b925090508161069c5750600090506105ec565b6106b16106a882610c86565b60200151610cb1565b9660019650945050505050565b600080886001600160a01b031663a37a45c889896040518363ffffffff1660e01b81526004016106ef9291906123f3565b60006040518083038186803b15801561070757600080fd5b505afa15801561071b573d6000803e3d6000fd5b505050506040513d6000823e601f3d908101601f19168201604052610743919081019061241f565b915050806107935760405162461bcd60e51b815260206004820152601960248201527f636f6e73656e737573207374617465206e6f7420666f756e640000000000000060448201526064016102d4565b61079c85610c2b565b6002846040516107ac91906124de565b602060405180830381855afa1580156107c9573d6000803e3d6000fd5b5050506040513d601f19601f820116820180604052508101906107ec91906124c5565b149998505050505050505050565b600080896001600160a01b031663a37a45c88a8a6040518363ffffffff1660e01b815260040161082b9291906123f3565b60006040518083038186803b15801561084357600080fd5b505afa158015610857573d6000803e3d6000fd5b505050506040513d6000823e601f3d908101601f1916820160405261087f919081019061241f565b915050806108cf5760405162461bcd60e51b815260206004820152601960248201527f636f6e73656e737573207374617465206e6f7420666f756e640000000000000060448201526064016102d4565b61055c84610c2b565b600080886001600160a01b031663a37a45c889896040518363ffffffff1660e01b81526004016109099291906123f3565b60006040518083038186803b15801561092157600080fd5b505afa158015610935573d6000803e3d6000fd5b505050506040513d6000823e601f3d908101601f1916820160405261095d919081019061241f565b915050806109ad5760405162461bcd60e51b815260206004820152601960248201527f636f6e73656e737573207374617465206e6f7420666f756e640000000000000060448201526064016102d4565b61079c84610c2b565b6000806000806109c68686610b64565b91509150806109dd576000809350935050506109e6565b50519150600190505b9250929050565b606080600080610a10604051806040016040528060608152602001606081525090565b6040805180820190915260608082526020820152610a2d88610c86565b60005481516040519294509091610a4791906020016124de565b6040516020818303038152906040528051906020012014610aaa5760405162461bcd60e51b815260206004820152601360248201527f696e76616c696420636c69656e7420747970650000000000000000000000000060448201526064016102d4565b6000610ab98360200151610ccf565b9050610ac488610ced565b8251919650945067ffffffffffffffff9081169086161115610aee5767ffffffffffffffff851681525b610af781610d9b565b836020018190525060405180606001604052806028815260200161267e602891398252604080516020810190915267ffffffffffffffff85168152610b3b90610d9b565b6020830152610b4983610e04565b610b5283610e04565b96509650505050509450945094915050565b60408051602081019091526000815260006060846001600160a01b03166376c81c42856040518263ffffffff1660e01b8152600401610ba391906124b2565b60006040518083038186803b158015610bbb57600080fd5b505afa158015610bcf573d6000803e3d6000fd5b505050506040513d6000823e601f3d908101601f19168201604052610bf7919081019061241f565b9250905081610c0a5750600090506109e6565b610c1f610c1682610c86565b60200151610ccf565b95600195509350505050565b60008151602014610c7e5760405162461bcd60e51b815260206004820152601b60248201527f63616e6e6f7420636f6e7665727420696e746f2061646472657373000000000060448201526064016102d4565b506020015190565b60408051808201909152606080825260208201526000610ca96020848551610e64565b509392505050565b6040805160208101909152600081526000610ca96020848551611006565b6040805160208101909152600081526000610ca9602084855161116e565b6000806000610cfb84610c86565b60025481516040519293509091610d1591906020016124de565b6040516020818303038152906040528051906020012014610d785760405162461bcd60e51b815260206004820152601360248201527f696e76616c69642068656164657220747970650000000000000000000000000060448201526064016102d4565b6000610d8782602001516112d6565b805160209091015190969095509350505050565b60606000610da8836112f9565b67ffffffffffffffff811115610dc057610dc0611c0e565b6040519080825280601f01601f191660200182016040528015610dea576020820181803683370190505b5090506000610dfb84602084611325565b82525092915050565b60606000610e1183611387565b67ffffffffffffffff811115610e2957610e29611c0e565b6040519080825280601f01601f191660200182016040528015610e53576020820181803683370190505b5090506000610dfb846020846113bd565b60408051808201909152606080825260208201526000610e97604051806040016040528060608152602001606081525090565b610e9f611bb6565b6000808089805b610eb08a83612510565b811015610ff457610ec1818c61141e565b91965094509250610ed28382612510565b90508460011415610efa57610ee9818c8989611469565b610ef39082612510565b9050610ea6565b8460021415610f0f57610ee9818c89896114de565b6001846005811115610f2357610f23612528565b1415610f47576000610f35828d61152a565b9150610f4390508183612510565b9150505b6005846005811115610f5b57610f5b612528565b1415610f7f576000610f6d828d611549565b9150610f7b90508183612510565b9150505b6000846005811115610f9357610f93612528565b1415610fb7576000610fa5828d61155b565b9150610fb390508183612510565b9150505b6002846005811115610fcb57610fcb612528565b1415610fef576000610fdd828d611661565b9150610feb90508183612510565b9150505b610ea6565b50949a97995096975050505050505050565b604080516020810190915260008152604080516020810190915260008082529061102e611bd4565b6000808089805b61103f8a83612510565b811015610ff457611050818c61141e565b919650945092506110618382612510565b9050846001141561108957611078818c8989611724565b6110829082612510565b9050611035565b600184600581111561109d5761109d612528565b14156110c15760006110af828d61152a565b91506110bd90508183612510565b9150505b60058460058111156110d5576110d5612528565b14156110f95760006110e7828d611549565b91506110f590508183612510565b9150505b600084600581111561110d5761110d612528565b141561113157600061111f828d61155b565b915061112d90508183612510565b9150505b600284600581111561114557611145612528565b1415611169576000611157828d611661565b915061116590508183612510565b9150505b611035565b6040805160208101909152600081526040805160208101909152600080825290611196611bd4565b6000808089805b6111a78a83612510565b811015610ff4576111b8818c61141e565b919650945092506111c98382612510565b905084600114156111f1576111e0818c8989611724565b6111ea9082612510565b905061119d565b600184600581111561120557611205612528565b1415611229576000611217828d61152a565b915061122590508183612510565b9150505b600584600581111561123d5761123d612528565b141561126157600061124f828d611549565b915061125d90508183612510565b9150505b600084600581111561127557611275612528565b1415611299576000611287828d61155b565b915061129590508183612510565b9150505b60028460058111156112ad576112ad612528565b14156112d15760006112bf828d611661565b91506112cd90508183612510565b9150505b61119d565b60408051808201909152600080825260208201526000610ca9602084855161176d565b60008061130983600001516118f5565b611314906001612510565b61131e9082612510565b9392505050565b82516000908390819067ffffffffffffffff16156113735761134b600160008387611910565b6113559082612510565b905061136686600001518286611926565b6113709082612510565b90505b61137d828261253e565b9695505050505050565b600080611398836000015151611945565b6113a3906001612510565b6113ad9082612510565b9050611309836020015151611945565b600082806113cf600160028387611910565b6113d99082612510565b90506113ea8660000151828661195a565b6113f49082612510565b90506114036002808387611910565b61140d9082612510565b905061136686602001518286611963565b6000806000806000611430878761155b565b91509150600082600716600581111561144b5761144b612528565b9050600061145a600885612555565b99919850919650945050505050565b600080600061147887876119b9565b91509150611484851590565b156114a757600184815b6020020181815161149f9190612510565b90525061137d565b81855260008460015b6020020151111561137d57600184815b602002018181516114d1919061253e565b9052509695505050505050565b60008060006114ed87876119ca565b915091506114f9851590565b1561150857600184600261148e565b6020850182905260008460025b6020020151111561137d5760018460026114c0565b60008060008061153c868660086119e3565b9097909650945050505050565b60008060008061153c868660046119e3565b6000806000806000602086516115719190612510565b96860196905060805b60808116608014156116545786880382116115cd5762461bcd60e51b6000526020600452600f6024527f6c656e677468206f766572666c6f77000000000000000000000000000000000060445260536000fd5b875160005b6020811060808416608014161561164d57888a03841161162a5762461bcd60e51b6000526020600452600f6024527f6c656e677468206f766572666c6f77000000000000000000000000000000000060445260536000fd5b6001998a019982821a607f8116600788021b9790971796958101959350016115d2565b505061157a565b5091969095509350505050565b60606000806000611672868661155b565b9150915060008267ffffffffffffffff81111561169157611691611c0e565b6040519080825280601f01601f1916602001820160405280156116bb576020820181803683370190505b5090506000602087516116ce9190612510565b905080846116dc858b612510565b6116e69190612510565b11156116f4576116f4612577565b868801830160208301611708828288611a50565b836117138787612510565b975097505050505050509250929050565b60008060006117338787611ac2565b9150915061173f851590565b1561174d576001848161148e565b67ffffffffffffffff8216855260208401511561137d57600184816114c0565b604080518082019091526000808252602082015260408051808201909152600080825260208201819052906117a0611bb6565b6000808089805b6117b18a83612510565b811015610ff4576117c2818c61141e565b919650945092506117d38382612510565b905084600114156117fb576117ea818c8989611ad2565b6117f49082612510565b90506117a7565b8460021415611810576117ea818c8989611b12565b600184600581111561182457611824612528565b1415611848576000611836828d61152a565b915061184490508183612510565b9150505b600584600581111561185c5761185c612528565b141561188057600061186e828d611549565b915061187c90508183612510565b9150505b600084600581111561189457611894612528565b14156118b85760006118a6828d61155b565b91506118b490508183612510565b9150505b60028460058111156118cc576118cc612528565b14156118f05760006118de828d611661565b91506118ec90508183612510565b9150505b6117a7565b600061190a8267ffffffffffffffff16611b56565b92915050565b600060088502600785161761137d818585611b73565b600061193d8467ffffffffffffffff168484611b73565b949350505050565b600061195082611b56565b61190a9083612510565b600061193d8484845b825160009081611974828686611b73565b905060008186018501602088015b848310156119a157805160001a82536001928301929182019101611982565b506119ae90508183612510565b979650505050505050565b6060600080600061153c8686611661565b606060006119d88484611661565b915091509250929050565b600080600080602086516119f79190612510565b905080611a048689612510565b1115611a1257611a12612577565b6000878701975087515b86821015611a415780821a826008021b84179350600189019850600182019150611a1c565b50919794965093945050505050565b6020811115611a895782518252611a68602083612510565b9150611a75602084612510565b9250611a8260208261253e565b9050611a50565b60006001611a9883602061253e565b611aa490610100612671565b611aae919061253e565b935183518516941916939093179091525050565b60008060008061153c868661155b565b6000806000611ae18787611ac2565b91509150611aed851590565b15611afb576001848161148e565b67ffffffffffffffff8216855260008460016114b0565b6000806000611b218787611ac2565b91509150611b2d851590565b15611b3c57600184600261148e565b67ffffffffffffffff821660208601526000846002611515565b60071c600060015b821561190a5760079290921c91600101611b5e565b600080828401607f86165b600787901c15611ba6578060801782535060079590951c9460019182019101607f8616611b7e565b8082535050600101949350505050565b60405180606001604052806003906020820280368337509192915050565b60405180604001604052806002906020820280368337509192915050565b80356001600160a01b0381168114611c0957600080fd5b919050565b634e487b7160e01b600052604160045260246000fd5b604051601f8201601f1916810167ffffffffffffffff81118282101715611c4d57611c4d611c0e565b604052919050565b600067ffffffffffffffff821115611c6f57611c6f611c0e565b50601f01601f191660200190565b600082601f830112611c8e57600080fd5b8135611ca1611c9c82611c55565b611c24565b818152846020838601011115611cb657600080fd5b816020850160208301376000918101602001919091529392505050565b803567ffffffffffffffff81168114611c0957600080fd5b60008060008060008060008060008060006101608c8e031215611d0d57600080fd5b611d168c611bf2565b9a5067ffffffffffffffff8060208e01351115611d3257600080fd5b611d428e60208f01358f01611c7d565b9a50611d5060408e01611cd3565b9950611d5e60608e01611cd3565b9850611d6c60808e01611cd3565b97508060a08e01351115611d7f57600080fd5b611d8f8e60a08f01358f01611c7d565b96508060c08e01351115611da257600080fd5b611db28e60c08f01358f01611c7d565b95508060e08e01351115611dc557600080fd5b611dd58e60e08f01358f01611c7d565b9450806101008e01351115611de957600080fd5b50611dfb8d6101008e01358e01611c7d565b9250611e0a6101208d01611cd3565b91506101408c013590509295989b509295989b9093969950565b60008060008060008060008060008060006101608c8e031215611e4657600080fd5b611e4f8c611bf2565b9a5067ffffffffffffffff8060208e01351115611e6b57600080fd5b611e7b8e60208f01358f01611c7d565b9a50611e8960408e01611cd3565b9950611e9760608e01611cd3565b9850611ea560808e01611cd3565b97508060a08e01351115611eb857600080fd5b611ec88e60a08f01358f01611c7d565b96508060c08e01351115611edb57600080fd5b611eeb8e60c08f01358f01611c7d565b95508060e08e01351115611efe57600080fd5b611f0e8e60e08f01358f01611c7d565b9450806101008e01351115611f2257600080fd5b611f338e6101008f01358f01611c7d565b9350611f426101208e01611cd3565b9250806101408e01351115611f5657600080fd5b50611f688d6101408e01358e01611c7d565b90509295989b509295989b9093969950565b600080600080600080600080610100898b031215611f9757600080fd5b611fa089611bf2565b9750602089013567ffffffffffffffff80821115611fbd57600080fd5b611fc98c838d01611c7d565b9850611fd760408c01611cd3565b975060608b0135915080821115611fed57600080fd5b611ff98c838d01611c7d565b965060808b013591508082111561200f57600080fd5b61201b8c838d01611c7d565b955060a08b013591508082111561203157600080fd5b61203d8c838d01611c7d565b945060c08b013591508082111561205357600080fd5b61205f8c838d01611c7d565b935060e08b013591508082111561207557600080fd5b506120828b828c01611c7d565b9150509295985092959890939650565b6000806000606084860312156120a757600080fd5b6120b084611bf2565b9250602084013567ffffffffffffffff8111156120cc57600080fd5b6120d886828701611c7d565b9250506120e760408501611cd3565b90509250925092565b600080600080600080600060e0888a03121561210b57600080fd5b61211488611bf2565b9650602088013567ffffffffffffffff8082111561213157600080fd5b61213d8b838c01611c7d565b975061214b60408b01611cd3565b965060608a013591508082111561216157600080fd5b61216d8b838c01611c7d565b955060808a013591508082111561218357600080fd5b61218f8b838c01611c7d565b945060a08a01359150808211156121a557600080fd5b6121b18b838c01611c7d565b935060c08a01359150808211156121c757600080fd5b506121d48a828b01611c7d565b91505092959891949750929550565b600080600080600080600080610100898b03121561220057600080fd5b61220989611bf2565b9750602089013567ffffffffffffffff8082111561222657600080fd5b6122328c838d01611c7d565b985061224060408c01611cd3565b975060608b013591508082111561225657600080fd5b6122628c838d01611c7d565b965061201b60808c01611cd3565b6000806040838503121561228357600080fd5b61228c83611bf2565b9150602083013567ffffffffffffffff8111156122a857600080fd5b6122b485828601611c7d565b9150509250929050565b600080600080608085870312156122d457600080fd5b6122dd85611bf2565b9350602085013567ffffffffffffffff808211156122fa57600080fd5b61230688838901611c7d565b9450604087013591508082111561231c57600080fd5b61232888838901611c7d565b9350606087013591508082111561233e57600080fd5b5061234b87828801611c7d565b91505092959194509250565b60005b8381101561237257818101518382015260200161235a565b83811115612381576000848401525b50505050565b6000815180845261239f816020860160208601612357565b601f01601f19169290920160200192915050565b6060815260006123c66060830186612387565b82810360208401526123d88186612387565b91505067ffffffffffffffff83166040830152949350505050565b6040815260006124066040830185612387565b905067ffffffffffffffff831660208301529392505050565b6000806040838503121561243257600080fd5b825167ffffffffffffffff81111561244957600080fd5b8301601f8101851361245a57600080fd5b8051612468611c9c82611c55565b81815286602083850101111561247d57600080fd5b61248e826020830160208601612357565b809450505050602083015180151581146124a757600080fd5b809150509250929050565b60208152600061131e6020830184612387565b6000602082840312156124d757600080fd5b5051919050565b600082516124f0818460208701612357565b9190910192915050565b634e487b7160e01b600052601160045260246000fd5b60008219821115612523576125236124fa565b500190565b634e487b7160e01b600052602160045260246000fd5b600082821015612550576125506124fa565b500390565b60008261257257634e487b7160e01b600052601260045260246000fd5b500490565b634e487b7160e01b600052600160045260246000fd5b600181815b808511156125c85781600019048211156125ae576125ae6124fa565b808516156125bb57918102915b93841c9390800290612592565b509250929050565b6000826125df5750600161190a565b816125ec5750600061190a565b8160018114612602576002811461260c57612628565b600191505061190a565b60ff84111561261d5761261d6124fa565b50506001821b61190a565b5060208310610133831016604e8410600b841016171561264b575081810a61190a565b612655838361258d565b8060001904821115612669576126696124fa565b029392505050565b600061131e83836125d056fe2f6962632e6c69676874636c69656e74732e6d6f636b2e76312e436f6e73656e7375735374617465a2646970667358221220ee51b0ad8f2985670ac7bed424a4d0fd0525f381ebe46bdf694dcec1e43b203264736f6c63430008090033",
  "immutableReferences": {},
  "source": "pragma solidity ^0.8.9;\n\nimport \"./IClient.sol\";\nimport \"./IBCHost.sol\";\nimport \"./IBCMsgs.sol\";\nimport {\n    IbcLightclientsMockV1ClientState as ClientState,\n    IbcLightclientsMockV1ConsensusState as ConsensusState,\n    IbcLightclientsMockV1Header as Header\n} from \"./types/MockClient.sol\";\nimport {GoogleProtobufAny as Any} from \"./types/GoogleProtobufAny.sol\";\nimport \"../lib/Bytes.sol\";\n\n// MockClient implements https://github.com/datachainlab/ibc-mock-client\n// WARNING: This client is intended to be used for testing purpose. Therefore, it is not generally available in a production, except in a fully trusted environment.\ncontract MockClient is IClient {\n    using Bytes for bytes;\n\n    struct protoTypes {\n        bytes32 clientState;\n        bytes32 consensusState;\n        bytes32 header;\n    }\n\n    protoTypes pts;\n\n    constructor() public {\n        // TODO The typeUrl should be defined in types/MockClient.sol\n        // The schema of typeUrl follows cosmos/cosmos-sdk/codec/types/any.go\n        pts = protoTypes({\n            clientState: keccak256(abi.encodePacked(\"/ibc.lightclients.mock.v1.ClientState\")),\n            consensusState: keccak256(abi.encodePacked(\"/ibc.lightclients.mock.v1.ConsensusState\")),\n            header: keccak256(abi.encodePacked(\"/ibc.lightclients.mock.v1.Header\"))\n        });\n    }\n\n    /**\n     * @dev getTimestampAtHeight returns the timestamp of the consensus state at the given height.\n     */\n    function getTimestampAtHeight(\n        IBCHost host,\n        string memory clientId,\n        uint64 height\n    ) public override view returns (uint64, bool) {\n        (ConsensusState.Data memory consensusState, bool found) = getConsensusState(host, clientId, height);\n        if (!found) {\n            return (0, false);\n        }\n        return (consensusState.timestamp, true);\n    }\n\n    function getLatestHeight(\n        IBCHost host,\n        string memory clientId\n    ) public override view returns (uint64, bool) {\n        (ClientState.Data memory clientState, bool found) = getClientState(host, clientId);\n        if (!found) {\n            return (0, false);\n        }\n        return (clientState.latest_height, true);\n    }\n\n    /**\n     * @dev checkHeaderAndUpdateState checks if the provided header is valid\n     */\n    function checkHeaderAndUpdateState(\n        IBCHost host,\n        string memory clientId,\n        bytes memory clientStateBytes,\n        bytes memory headerBytes\n    ) public override view returns (bytes memory newClientStateBytes, bytes memory newConsensusStateBytes, uint64 height) {\n        uint64 timestamp;\n        Any.Data memory anyClientState;\n        Any.Data memory anyConsensusState;\n\n        anyClientState = Any.decode(clientStateBytes);\n        require(keccak256(abi.encodePacked(anyClientState.type_url)) == pts.clientState, \"invalid client type\");\n        ClientState.Data memory clientState = ClientState.decode(anyClientState.value);\n        (height, timestamp) = parseHeader(headerBytes);\n        if (height > clientState.latest_height) {\n            clientState.latest_height = height;\n        }\n\n        anyClientState.value = ClientState.encode(clientState);\n        anyConsensusState.type_url = \"/ibc.lightclients.mock.v1.ConsensusState\";\n        anyConsensusState.value = ConsensusState.encode(ConsensusState.Data({timestamp: timestamp}));\n        return (Any.encode(anyClientState), Any.encode(anyConsensusState), height);\n    }\n\n    function verifyClientState(\n        IBCHost host,\n        string memory clientId,\n        uint64 height,\n        bytes memory prefix,\n        string memory counterpartyClientIdentifier,\n        bytes memory proof,\n        bytes memory clientStateBytes // serialized with pb\n    ) public override returns (bool) {\n        (, bool found) = host.getConsensusState(clientId, height);\n        require(found, \"consensus state not found\");\n        return sha256(clientStateBytes) == proof.toBytes32();\n    }\n\n    function verifyClientConsensusState(\n        IBCHost host,\n        string memory clientId,\n        uint64 height,\n        string memory counterpartyClientIdentifier,\n        uint64 consensusHeight,\n        bytes memory prefix,\n        bytes memory proof,\n        bytes memory consensusStateBytes // serialized with pb\n    ) public override returns (bool) {\n        (, bool found) = host.getConsensusState(clientId, height);\n        require(found, \"consensus state not found\");\n        return sha256(consensusStateBytes) == proof.toBytes32();\n    }\n\n    function verifyConnectionState(\n        IBCHost host,\n        string memory clientId,\n        uint64 height,\n        bytes memory prefix,\n        bytes memory proof,\n        string memory connectionId,\n        bytes memory connectionBytes // serialized with pb\n    ) public override returns (bool) {\n        (, bool found) = host.getConsensusState(clientId, height);\n        require(found, \"consensus state not found\");\n        return sha256(connectionBytes) == proof.toBytes32();\n    }\n\n    function verifyChannelState(\n        IBCHost host,\n        string memory clientId,\n        uint64 height,\n        bytes memory prefix,\n        bytes memory proof,\n        string memory portId,\n        string memory channelId,\n        bytes memory channelBytes // serialized with pb\n    ) public override returns (bool) {\n        (, bool found) = host.getConsensusState(clientId, height);\n        require(found, \"consensus state not found\");\n        return sha256(channelBytes) == proof.toBytes32();\n    }\n\n    function verifyPacketCommitment(\n        IBCHost host,\n        string memory clientId,\n        uint64 height,\n        uint64 delayPeriodTime,\n        uint64 delayPeriodBlocks,\n        bytes memory prefix,\n        bytes memory proof,\n        string memory portId,\n        string memory channelId,\n        uint64 sequence,\n        bytes32 commitmentBytes\n    ) public override returns (bool) {\n        (, bool found) = host.getConsensusState(clientId, height);\n        require(found, \"consensus state not found\");\n        return commitmentBytes == proof.toBytes32();\n    }\n\n    function verifyPacketAcknowledgement(\n        IBCHost host,\n        string memory clientId,\n        uint64 height,\n        uint64 delayPeriodTime,\n        uint64 delayPeriodBlocks,\n        bytes memory prefix,\n        bytes memory proof,\n        string memory portId,\n        string memory channelId,\n        uint64 sequence,\n        bytes memory acknowledgement\n    ) public override returns (bool) {\n        (, bool found) = host.getConsensusState(clientId, height);\n        require(found, \"consensus state not found\");\n        return host.makePacketAcknowledgementCommitment(acknowledgement) == proof.toBytes32();\n    }\n\n    function getClientState(IBCHost host, string memory clientId) public view returns (ClientState.Data memory clientState, bool found) {\n        bytes memory clientStateBytes;\n        (clientStateBytes, found) = host.getClientState(clientId);\n        if (!found) {\n            return (clientState, false);\n        }\n        return (ClientState.decode(Any.decode(clientStateBytes).value), true);\n    }\n\n    function getConsensusState(IBCHost host, string memory clientId, uint64 height) public view returns (ConsensusState.Data memory consensusState, bool found) {\n        bytes memory consensusStateBytes;\n        (consensusStateBytes, found) = host.getConsensusState(clientId, height);\n        if (!found) {\n            return (consensusState, false);\n        }\n        return (ConsensusState.decode(Any.decode(consensusStateBytes).value), true);\n    }\n\n    function parseHeader(bytes memory headerBytes) internal view returns (uint64, uint64) {\n        Any.Data memory any = Any.decode(headerBytes);\n        require(keccak256(abi.encodePacked(any.type_url)) == pts.header, \"invalid header type\");\n        Header.Data memory header = Header.decode(any.value);\n        return (header.height, header.timestamp);\n    }\n}\n",
  "sourcePath": "/home/rogelio/Code/ancon-protocol/ethereum/contracts/yui-ibc-solidity/core/MockClient.sol",
  "compiler": {
    "name": "solc",
    "version": "0.8.9+commit.e5eed63a.Emscripten.clang"
  },
  "schemaVersion": "3.4.0",
  "updatedAt": "2021-11-02T12:42:58.418Z",
  "networkType": "ethereum",
  "devdoc": {
    "kind": "dev",
    "methods": {
      "checkHeaderAndUpdateState(address,string,bytes,bytes)": {
        "details": "checkHeaderAndUpdateState checks if the provided header is valid"
      },
      "getTimestampAtHeight(address,string,uint64)": {
        "details": "getTimestampAtHeight returns the timestamp of the consensus state at the given height."
      }
    },
    "version": 1
  },
  "userdoc": {
    "kind": "user",
    "methods": {},
    "version": 1
  }
}