{
  "contractName": "XDVNFT",
  "abi": [
    {
      "inputs": [
        {
          "internalType": "string",
          "name": "name",
          "type": "string"
        },
        {
          "internalType": "string",
          "name": "symbol",
          "type": "string"
        },
        {
          "internalType": "address",
          "name": "tokenERC20",
          "type": "address"
        },
        {
          "internalType": "address",
          "name": "verifierAddr",
          "type": "address"
        }
      ],
      "stateMutability": "nonpayable",
      "type": "constructor"
    },
    {
      "anonymous": false,
      "inputs": [
        {
          "indexed": true,
          "internalType": "address",
          "name": "owner",
          "type": "address"
        },
        {
          "indexed": true,
          "internalType": "address",
          "name": "approved",
          "type": "address"
        },
        {
          "indexed": true,
          "internalType": "uint256",
          "name": "tokenId",
          "type": "uint256"
        }
      ],
      "name": "Approval",
      "type": "event"
    },
    {
      "anonymous": false,
      "inputs": [
        {
          "indexed": true,
          "internalType": "address",
          "name": "owner",
          "type": "address"
        },
        {
          "indexed": true,
          "internalType": "address",
          "name": "operator",
          "type": "address"
        },
        {
          "indexed": false,
          "internalType": "bool",
          "name": "approved",
          "type": "bool"
        }
      ],
      "name": "ApprovalForAll",
      "type": "event"
    },
    {
      "anonymous": false,
      "inputs": [
        {
          "indexed": true,
          "internalType": "address",
          "name": "previousOwner",
          "type": "address"
        },
        {
          "indexed": true,
          "internalType": "address",
          "name": "newOwner",
          "type": "address"
        }
      ],
      "name": "OwnershipTransferred",
      "type": "event"
    },
    {
      "anonymous": false,
      "inputs": [
        {
          "indexed": false,
          "internalType": "address",
          "name": "account",
          "type": "address"
        }
      ],
      "name": "Paused",
      "type": "event"
    },
    {
      "anonymous": false,
      "inputs": [
        {
          "indexed": true,
          "internalType": "address",
          "name": "from",
          "type": "address"
        },
        {
          "indexed": false,
          "internalType": "uint256",
          "name": "paidToContract",
          "type": "uint256"
        },
        {
          "indexed": false,
          "internalType": "uint256",
          "name": "paidToPaymentAddress",
          "type": "uint256"
        }
      ],
      "name": "ServiceFeePaid",
      "type": "event"
    },
    {
      "anonymous": false,
      "inputs": [
        {
          "indexed": true,
          "internalType": "address",
          "name": "from",
          "type": "address"
        },
        {
          "indexed": true,
          "internalType": "address",
          "name": "to",
          "type": "address"
        },
        {
          "indexed": true,
          "internalType": "uint256",
          "name": "tokenId",
          "type": "uint256"
        }
      ],
      "name": "Transfer",
      "type": "event"
    },
    {
      "anonymous": false,
      "inputs": [
        {
          "indexed": false,
          "internalType": "address",
          "name": "account",
          "type": "address"
        }
      ],
      "name": "Unpaused",
      "type": "event"
    },
    {
      "anonymous": false,
      "inputs": [
        {
          "indexed": true,
          "internalType": "address",
          "name": "paymentAddress",
          "type": "address"
        },
        {
          "indexed": false,
          "internalType": "uint256",
          "name": "amount",
          "type": "uint256"
        }
      ],
      "name": "Withdrawn",
      "type": "event"
    },
    {
      "inputs": [
        {
          "internalType": "address",
          "name": "to",
          "type": "address"
        },
        {
          "internalType": "uint256",
          "name": "tokenId",
          "type": "uint256"
        }
      ],
      "name": "approve",
      "outputs": [],
      "stateMutability": "nonpayable",
      "type": "function"
    },
    {
      "inputs": [
        {
          "internalType": "address",
          "name": "owner",
          "type": "address"
        }
      ],
      "name": "balanceOf",
      "outputs": [
        {
          "internalType": "uint256",
          "name": "",
          "type": "uint256"
        }
      ],
      "stateMutability": "view",
      "type": "function",
      "constant": true
    },
    {
      "inputs": [
        {
          "internalType": "uint256",
          "name": "tokenId",
          "type": "uint256"
        }
      ],
      "name": "burn",
      "outputs": [],
      "stateMutability": "nonpayable",
      "type": "function"
    },
    {
      "inputs": [
        {
          "internalType": "uint256",
          "name": "tokenId",
          "type": "uint256"
        }
      ],
      "name": "getApproved",
      "outputs": [
        {
          "internalType": "address",
          "name": "",
          "type": "address"
        }
      ],
      "stateMutability": "view",
      "type": "function",
      "constant": true
    },
    {
      "inputs": [
        {
          "internalType": "address",
          "name": "owner",
          "type": "address"
        },
        {
          "internalType": "address",
          "name": "operator",
          "type": "address"
        }
      ],
      "name": "isApprovedForAll",
      "outputs": [
        {
          "internalType": "bool",
          "name": "",
          "type": "bool"
        }
      ],
      "stateMutability": "view",
      "type": "function",
      "constant": true
    },
    {
      "inputs": [],
      "name": "name",
      "outputs": [
        {
          "internalType": "string",
          "name": "",
          "type": "string"
        }
      ],
      "stateMutability": "view",
      "type": "function",
      "constant": true
    },
    {
      "inputs": [],
      "name": "owner",
      "outputs": [
        {
          "internalType": "address",
          "name": "",
          "type": "address"
        }
      ],
      "stateMutability": "view",
      "type": "function",
      "constant": true
    },
    {
      "inputs": [
        {
          "internalType": "uint256",
          "name": "tokenId",
          "type": "uint256"
        }
      ],
      "name": "ownerOf",
      "outputs": [
        {
          "internalType": "address",
          "name": "",
          "type": "address"
        }
      ],
      "stateMutability": "view",
      "type": "function",
      "constant": true
    },
    {
      "inputs": [],
      "name": "paused",
      "outputs": [
        {
          "internalType": "bool",
          "name": "",
          "type": "bool"
        }
      ],
      "stateMutability": "view",
      "type": "function",
      "constant": true
    },
    {
      "inputs": [],
      "name": "renounceOwnership",
      "outputs": [],
      "stateMutability": "nonpayable",
      "type": "function"
    },
    {
      "inputs": [
        {
          "internalType": "address",
          "name": "from",
          "type": "address"
        },
        {
          "internalType": "address",
          "name": "to",
          "type": "address"
        },
        {
          "internalType": "uint256",
          "name": "tokenId",
          "type": "uint256"
        }
      ],
      "name": "safeTransferFrom",
      "outputs": [],
      "stateMutability": "nonpayable",
      "type": "function"
    },
    {
      "inputs": [
        {
          "internalType": "address",
          "name": "from",
          "type": "address"
        },
        {
          "internalType": "address",
          "name": "to",
          "type": "address"
        },
        {
          "internalType": "uint256",
          "name": "tokenId",
          "type": "uint256"
        },
        {
          "internalType": "bytes",
          "name": "_data",
          "type": "bytes"
        }
      ],
      "name": "safeTransferFrom",
      "outputs": [],
      "stateMutability": "nonpayable",
      "type": "function"
    },
    {
      "inputs": [],
      "name": "serviceFeeForContract",
      "outputs": [
        {
          "internalType": "uint256",
          "name": "",
          "type": "uint256"
        }
      ],
      "stateMutability": "view",
      "type": "function",
      "constant": true
    },
    {
      "inputs": [],
      "name": "serviceFeeForPaymentAddress",
      "outputs": [
        {
          "internalType": "uint256",
          "name": "",
          "type": "uint256"
        }
      ],
      "stateMutability": "view",
      "type": "function",
      "constant": true
    },
    {
      "inputs": [
        {
          "internalType": "address",
          "name": "operator",
          "type": "address"
        },
        {
          "internalType": "bool",
          "name": "approved",
          "type": "bool"
        }
      ],
      "name": "setApprovalForAll",
      "outputs": [],
      "stateMutability": "nonpayable",
      "type": "function"
    },
    {
      "inputs": [],
      "name": "stablecoin",
      "outputs": [
        {
          "internalType": "contract IERC20",
          "name": "",
          "type": "address"
        }
      ],
      "stateMutability": "view",
      "type": "function",
      "constant": true
    },
    {
      "inputs": [
        {
          "internalType": "bytes4",
          "name": "interfaceId",
          "type": "bytes4"
        }
      ],
      "name": "supportsInterface",
      "outputs": [
        {
          "internalType": "bool",
          "name": "",
          "type": "bool"
        }
      ],
      "stateMutability": "view",
      "type": "function",
      "constant": true
    },
    {
      "inputs": [],
      "name": "symbol",
      "outputs": [
        {
          "internalType": "string",
          "name": "",
          "type": "string"
        }
      ],
      "stateMutability": "view",
      "type": "function",
      "constant": true
    },
    {
      "inputs": [
        {
          "internalType": "address",
          "name": "from",
          "type": "address"
        },
        {
          "internalType": "address",
          "name": "to",
          "type": "address"
        },
        {
          "internalType": "uint256",
          "name": "tokenId",
          "type": "uint256"
        }
      ],
      "name": "transferFrom",
      "outputs": [],
      "stateMutability": "nonpayable",
      "type": "function"
    },
    {
      "inputs": [
        {
          "internalType": "address",
          "name": "newOwner",
          "type": "address"
        }
      ],
      "name": "transferOwnership",
      "outputs": [],
      "stateMutability": "nonpayable",
      "type": "function"
    },
    {
      "inputs": [],
      "name": "verifierAddress",
      "outputs": [
        {
          "internalType": "address",
          "name": "",
          "type": "address"
        }
      ],
      "stateMutability": "view",
      "type": "function",
      "constant": true
    },
    {
      "inputs": [
        {
          "internalType": "uint256",
          "name": "_fee",
          "type": "uint256"
        }
      ],
      "name": "setServiceFeeForPaymentAddress",
      "outputs": [],
      "stateMutability": "nonpayable",
      "type": "function"
    },
    {
      "inputs": [
        {
          "internalType": "uint256",
          "name": "_fee",
          "type": "uint256"
        }
      ],
      "name": "setServiceFeeForContract",
      "outputs": [],
      "stateMutability": "nonpayable",
      "type": "function"
    },
    {
      "inputs": [
        {
          "internalType": "address",
          "name": "user",
          "type": "address"
        },
        {
          "internalType": "string",
          "name": "uri",
          "type": "string"
        }
      ],
      "name": "mint",
      "outputs": [
        {
          "internalType": "uint256",
          "name": "",
          "type": "uint256"
        }
      ],
      "stateMutability": "nonpayable",
      "type": "function"
    },
    {
      "inputs": [
        {
          "internalType": "address",
          "name": "operator",
          "type": "address"
        },
        {
          "internalType": "address",
          "name": "from",
          "type": "address"
        },
        {
          "internalType": "uint256",
          "name": "tokenId",
          "type": "uint256"
        },
        {
          "internalType": "bytes",
          "name": "data",
          "type": "bytes"
        }
      ],
      "name": "onERC721Received",
      "outputs": [
        {
          "internalType": "bytes4",
          "name": "",
          "type": "bytes4"
        }
      ],
      "stateMutability": "nonpayable",
      "type": "function"
    },
    {
      "inputs": [
        {
          "internalType": "uint256",
          "name": "tokenId",
          "type": "uint256"
        }
      ],
      "name": "tokenURI",
      "outputs": [
        {
          "internalType": "string",
          "name": "",
          "type": "string"
        }
      ],
      "stateMutability": "view",
      "type": "function",
      "constant": true
    },
    {
      "inputs": [
        {
          "internalType": "address payable",
          "name": "payee",
          "type": "address"
        }
      ],
      "name": "withdrawBalance",
      "outputs": [],
      "stateMutability": "nonpayable",
      "type": "function"
    }
  ],
  "bytecode": "0x60806040526000600c556000600d553480156200001b57600080fd5b50604051620029bc380380620029bc8339810160408190526200003e916200029c565b835184908490620000579060009060208501906200010c565b5080516200006d9060019060208401906200010c565b50506006805460ff19169055506200008533620000ba565b600a80546001600160a01b039384166001600160a01b031991821617909155600b805492909316911617905550620003689050565b600880546001600160a01b038381166001600160a01b0319831681179093556040519116919082907f8be0079c531659141344cd1fd0a4f28419497f9722a3daafe3b4186f6b6457e090600090a35050565b8280546200011a906200032b565b90600052602060002090601f0160209004810192826200013e576000855562000189565b82601f106200015957805160ff191683800117855562000189565b8280016001018555821562000189579182015b82811115620001895782518255916020019190600101906200016c565b50620001979291506200019b565b5090565b5b808211156200019757600081556001016200019c565b634e487b7160e01b600052604160045260246000fd5b600082601f830112620001da57600080fd5b81516001600160401b0380821115620001f757620001f7620001b2565b604051601f8301601f19908116603f01168101908282118183101715620002225762000222620001b2565b816040528381526020925086838588010111156200023f57600080fd5b600091505b8382101562000263578582018301518183018401529082019062000244565b83821115620002755760008385830101525b9695505050505050565b80516001600160a01b03811681146200029757600080fd5b919050565b60008060008060808587031215620002b357600080fd5b84516001600160401b0380821115620002cb57600080fd5b620002d988838901620001c8565b95506020870151915080821115620002f057600080fd5b50620002ff87828801620001c8565b93505062000310604086016200027f565b915062000320606086016200027f565b905092959194509250565b600181811c908216806200034057607f821691505b602082108114156200036257634e487b7160e01b600052602260045260246000fd5b50919050565b61264480620003786000396000f3fe608060405234801561001057600080fd5b50600436106101b95760003560e01c8063715018a6116100f9578063c014b9da11610097578063e53ae10211610071578063e53ae102146103a1578063e985e9c5146103aa578063e9cbd822146103e6578063f2fde38b146103f957600080fd5b8063c014b9da14610372578063c87b56dd1461037b578063d0def5211461038e57600080fd5b806395d89b41116100d357806395d89b4114610331578063a22cb46514610339578063b86be2ca1461034c578063b88d4fde1461035f57600080fd5b8063715018a614610305578063756af45f1461030d5780638da5cb5b1461032057600080fd5b806323b872dd1161016657806342966c681161014057806342966c68146102b35780635c975abb146102c65780636352211e146102d157806370a08231146102e457600080fd5b806323b872dd1461027a5780632c078e8d1461028d57806342842e0e146102a057600080fd5b8063095ea7b311610197578063095ea7b314610226578063150b7a021461023b57806318bdffbb1461026757600080fd5b806301ffc9a7146101be57806306fdde03146101e6578063081812fc146101fb575b600080fd5b6101d16101cc36600461204c565b61040c565b60405190151581526020015b60405180910390f35b6101ee6104a9565b6040516101dd91906120c1565b61020e6102093660046120d4565b61053b565b6040516001600160a01b0390911681526020016101dd565b610239610234366004612102565b6105d5565b005b61024e61024936600461212e565b610707565b6040516001600160e01b031990911681526020016101dd565b600b5461020e906001600160a01b031681565b6102396102883660046121cd565b610858565b61023961029b3660046120d4565b6108e0565b6102396102ae3660046121cd565b61093f565b6102396102c13660046120d4565b61095a565b60065460ff166101d1565b61020e6102df3660046120d4565b6109e1565b6102f76102f236600461220e565b610a6c565b6040519081526020016101dd565b610239610b06565b61023961031b36600461220e565b610b6c565b6008546001600160a01b031661020e565b6101ee610d8f565b610239610347366004612239565b610d9e565b61023961035a3660046120d4565b610e63565b61023961036d3660046122fe565b610ec2565b6102f7600c5481565b6101ee6103893660046120d4565b610f50565b6102f761039c36600461239e565b610f5b565b6102f7600d5481565b6101d16103b83660046123ee565b6001600160a01b03918216600090815260056020908152604080832093909416825291909152205460ff1690565b600a5461020e906001600160a01b031681565b61023961040736600461220e565b610f93565b60006001600160e01b031982167f80ac58cd00000000000000000000000000000000000000000000000000000000148061046f57506001600160e01b031982167f5b5e139f00000000000000000000000000000000000000000000000000000000145b806104a357507f01ffc9a7000000000000000000000000000000000000000000000000000000006001600160e01b03198316145b92915050565b6060600080546104b89061241c565b80601f01602080910402602001604051908101604052809291908181526020018280546104e49061241c565b80156105315780601f1061050657610100808354040283529160200191610531565b820191906000526020600020905b81548152906001019060200180831161051457829003601f168201915b5050505050905090565b6000818152600260205260408120546001600160a01b03166105b95760405162461bcd60e51b815260206004820152602c60248201527f4552433732313a20617070726f76656420717565727920666f72206e6f6e657860448201526b34b9ba32b73a103a37b5b2b760a11b60648201526084015b60405180910390fd5b506000908152600460205260409020546001600160a01b031690565b60006105e0826109e1565b9050806001600160a01b0316836001600160a01b0316141561066a5760405162461bcd60e51b815260206004820152602160248201527f4552433732313a20617070726f76616c20746f2063757272656e74206f776e6560448201527f720000000000000000000000000000000000000000000000000000000000000060648201526084016105b0565b336001600160a01b0382161480610686575061068681336103b8565b6106f85760405162461bcd60e51b815260206004820152603860248201527f4552433732313a20617070726f76652063616c6c6572206973206e6f74206f7760448201527f6e6572206e6f7220617070726f76656420666f7220616c6c000000000000000060648201526084016105b0565b6107028383611072565b505050565b600b546000906001600160a01b038781169116146107675760405162461bcd60e51b815260206004820152601060248201527f496e76616c69642076657269666965720000000000000000000000000000000060448201526064016105b0565b6000610772856109e1565b9050856001600160a01b0316816001600160a01b0316146107d55760405162461bcd60e51b815260206004820152601660248201527f496e76616c696420746f6b656e206964206f776e65720000000000000000000060448201526064016105b0565b6000806107e485870187612457565b9150915081516000146108395760405162461bcd60e51b815260206004820152600e60248201527f456d707479206d6574616461746100000000000000000000000000000000000060448201526064016105b0565b61084381836110e0565b50630a85bd0160e11b98975050505050505050565b610863335b82611189565b6108d55760405162461bcd60e51b815260206004820152603160248201527f4552433732313a207472616e736665722063616c6c6572206973206e6f74206f60448201527f776e6572206e6f7220617070726f76656400000000000000000000000000000060648201526084016105b0565b610702838383611280565b6008546001600160a01b0316331461093a5760405162461bcd60e51b815260206004820181905260248201527f4f776e61626c653a2063616c6c6572206973206e6f7420746865206f776e657260448201526064016105b0565b600d55565b61070283838360405180602001604052806000815250610ec2565b6109633361085d565b6109d55760405162461bcd60e51b815260206004820152603060248201527f4552433732314275726e61626c653a2063616c6c6572206973206e6f74206f7760448201527f6e6572206e6f7220617070726f7665640000000000000000000000000000000060648201526084016105b0565b6109de81611458565b50565b6000818152600260205260408120546001600160a01b0316806104a35760405162461bcd60e51b815260206004820152602960248201527f4552433732313a206f776e657220717565727920666f72206e6f6e657869737460448201527f656e7420746f6b656e000000000000000000000000000000000000000000000060648201526084016105b0565b60006001600160a01b038216610aea5760405162461bcd60e51b815260206004820152602a60248201527f4552433732313a2062616c616e636520717565727920666f7220746865207a6560448201527f726f20616464726573730000000000000000000000000000000000000000000060648201526084016105b0565b506001600160a01b031660009081526003602052604090205490565b6008546001600160a01b03163314610b605760405162461bcd60e51b815260206004820181905260248201527f4f776e61626c653a2063616c6c6572206973206e6f7420746865206f776e657260448201526064016105b0565b610b6a6000611461565b565b6008546001600160a01b03163314610bc65760405162461bcd60e51b815260206004820181905260248201527f4f776e61626c653a2063616c6c6572206973206e6f7420746865206f776e657260448201526064016105b0565b600a546040517f70a082310000000000000000000000000000000000000000000000000000000081523060048201526000916001600160a01b0316906370a082319060240160206040518083038186803b158015610c2357600080fd5b505afa158015610c37573d6000803e3d6000fd5b505050506040513d601f19601f82011682018060405250810190610c5b919061249c565b600a546040517fa9059cbb0000000000000000000000000000000000000000000000000000000081526001600160a01b0385811660048301526024820184905292935091169063a9059cbb90604401602060405180830381600087803b158015610cc457600080fd5b505af1158015610cd8573d6000803e3d6000fd5b505050506040513d601f19601f82011682018060405250810190610cfc91906124b5565b610d485760405162461bcd60e51b815260206004820152601460248201527f5844563a205472616e73666572206661696c656400000000000000000000000060448201526064016105b0565b816001600160a01b03167f7084f5476618d8e60b11ef0d7d3f06914655adb8793e28ff7f018d4c76d505d582604051610d8391815260200190565b60405180910390a25050565b6060600180546104b89061241c565b6001600160a01b038216331415610df75760405162461bcd60e51b815260206004820152601960248201527f4552433732313a20617070726f766520746f2063616c6c65720000000000000060448201526064016105b0565b3360008181526005602090815260408083206001600160a01b03871680855290835292819020805460ff191686151590811790915590519081529192917f17307eab39ab6107e8899845ad3d59bd9653f200f220920489ca2b5937696c31910160405180910390a35050565b6008546001600160a01b03163314610ebd5760405162461bcd60e51b815260206004820181905260248201527f4f776e61626c653a2063616c6c6572206973206e6f7420746865206f776e657260448201526064016105b0565b600c55565b610ecc3383611189565b610f3e5760405162461bcd60e51b815260206004820152603160248201527f4552433732313a207472616e736665722063616c6c6572206973206e6f74206f60448201527f776e6572206e6f7220617070726f76656400000000000000000000000000000060648201526084016105b0565b610f4a848484846114b3565b50505050565b60606104a382611531565b6000610f6b600980546001019055565b6000610f7660095490565b9050610f8284826116bc565b610f8c81846110e0565b9392505050565b6008546001600160a01b03163314610fed5760405162461bcd60e51b815260206004820181905260248201527f4f776e61626c653a2063616c6c6572206973206e6f7420746865206f776e657260448201526064016105b0565b6001600160a01b0381166110695760405162461bcd60e51b815260206004820152602660248201527f4f776e61626c653a206e6577206f776e657220697320746865207a65726f206160448201527f646472657373000000000000000000000000000000000000000000000000000060648201526084016105b0565b6109de81611461565b600081815260046020526040902080546001600160a01b0319166001600160a01b03841690811790915581906110a7826109e1565b6001600160a01b03167f8c5be1e5ebec7d5bd14f71427d1e84f3dd0314c0f7b2291e5b200ac8c7c3b92560405160405180910390a45050565b6000828152600260205260409020546001600160a01b031661116a5760405162461bcd60e51b815260206004820152602e60248201527f45524337323155524953746f726167653a2055524920736574206f66206e6f6e60448201527f6578697374656e7420746f6b656e00000000000000000000000000000000000060648201526084016105b0565b6000828152600760209081526040909120825161070292840190611f67565b6000818152600260205260408120546001600160a01b03166112025760405162461bcd60e51b815260206004820152602c60248201527f4552433732313a206f70657261746f7220717565727920666f72206e6f6e657860448201526b34b9ba32b73a103a37b5b2b760a11b60648201526084016105b0565b600061120d836109e1565b9050806001600160a01b0316846001600160a01b031614806112485750836001600160a01b031661123d8461053b565b6001600160a01b0316145b8061127857506001600160a01b0380821660009081526005602090815260408083209388168352929052205460ff165b949350505050565b826001600160a01b0316611293826109e1565b6001600160a01b03161461130f5760405162461bcd60e51b815260206004820152602960248201527f4552433732313a207472616e73666572206f6620746f6b656e2074686174206960448201527f73206e6f74206f776e000000000000000000000000000000000000000000000060648201526084016105b0565b6001600160a01b03821661138a5760405162461bcd60e51b8152602060048201526024808201527f4552433732313a207472616e7366657220746f20746865207a65726f2061646460448201527f726573730000000000000000000000000000000000000000000000000000000060648201526084016105b0565b6113958383836116da565b6113a0600082611072565b6001600160a01b03831660009081526003602052604081208054600192906113c99084906124e8565b90915550506001600160a01b03821660009081526003602052604081208054600192906113f79084906124ff565b909155505060008181526002602052604080822080546001600160a01b0319166001600160a01b0386811691821790925591518493918716917fddf252ad1be2c89b69c2b068fc378daa952ba7f163c4a11628f55a4df523b3ef91a4505050565b6109de8161174f565b600880546001600160a01b038381166001600160a01b0319831681179093556040519116919082907f8be0079c531659141344cd1fd0a4f28419497f9722a3daafe3b4186f6b6457e090600090a35050565b6114be848484611280565b6114ca8484848461178f565b610f4a5760405162461bcd60e51b815260206004820152603260248201527f4552433732313a207472616e7366657220746f206e6f6e20455243373231526560448201527131b2b4bb32b91034b6b83632b6b2b73a32b960711b60648201526084016105b0565b6000818152600260205260409020546060906001600160a01b03166115be5760405162461bcd60e51b815260206004820152603160248201527f45524337323155524953746f726167653a2055524920717565727920666f722060448201527f6e6f6e6578697374656e7420746f6b656e00000000000000000000000000000060648201526084016105b0565b600082815260076020526040812080546115d79061241c565b80601f01602080910402602001604051908101604052809291908181526020018280546116039061241c565b80156116505780601f1061162557610100808354040283529160200191611650565b820191906000526020600020905b81548152906001019060200180831161163357829003601f168201915b50505050509050600061166e60408051602081019091526000815290565b9050805160001415611681575092915050565b8151156116b357808260405160200161169b929190612517565b60405160208183030381529060405292505050919050565b611278846118e7565b6116d68282604051806020016040528060008152506119dc565b5050565b60065460ff161561172d5760405162461bcd60e51b815260206004820152601e60248201527f5844563a20546f6b656e20657865637574696f6e20697320706175736564000060448201526064016105b0565b6001600160a01b0383166117445761174433611a5a565b610702838383611bc7565b61175881611c40565b600081815260076020526040902080546117719061241c565b1590506109de5760008181526007602052604081206109de91611feb565b60006001600160a01b0384163b156118dc57604051630a85bd0160e11b81526001600160a01b0385169063150b7a02906117d3903390899088908890600401612546565b602060405180830381600087803b1580156117ed57600080fd5b505af192505050801561181d575060408051601f3d908101601f1916820190925261181a91810190612582565b60015b6118c2573d80801561184b576040519150601f19603f3d011682016040523d82523d6000602084013e611850565b606091505b5080516118ba5760405162461bcd60e51b815260206004820152603260248201527f4552433732313a207472616e7366657220746f206e6f6e20455243373231526560448201527131b2b4bb32b91034b6b83632b6b2b73a32b960711b60648201526084016105b0565b805181602001fd5b6001600160e01b031916630a85bd0160e11b149050611278565b506001949350505050565b6000818152600260205260409020546060906001600160a01b03166119745760405162461bcd60e51b815260206004820152602f60248201527f4552433732314d657461646174613a2055524920717565727920666f72206e6f60448201527f6e6578697374656e7420746f6b656e000000000000000000000000000000000060648201526084016105b0565b600061198b60408051602081019091526000815290565b905060008151116119ab5760405180602001604052806000815250610f8c565b806119b584611ce7565b6040516020016119c6929190612517565b6040516020818303038152906040529392505050565b6119e68383611e19565b6119f3600084848461178f565b6107025760405162461bcd60e51b815260206004820152603260248201527f4552433732313a207472616e7366657220746f206e6f6e20455243373231526560448201527131b2b4bb32b91034b6b83632b6b2b73a32b960711b60648201526084016105b0565b600a54600d546040517f23b872dd0000000000000000000000000000000000000000000000000000000081526001600160a01b03848116600483015230602483015260448201929092529116906323b872dd90606401602060405180830381600087803b158015611aca57600080fd5b505af1158015611ade573d6000803e3d6000fd5b505050506040513d601f19601f82011682018060405250810190611b0291906124b5565b611b745760405162461bcd60e51b815260206004820152602260248201527f5844563a205472616e73666572206661696c656420666f72207265636970696560448201527f6e7400000000000000000000000000000000000000000000000000000000000060648201526084016105b0565b806001600160a01b03167fff781da90c6b849a72bafc99aedde3dff0b039f697f31c21e96d587accee2760600d54600c54604051611bbc929190918252602082015260400190565b60405180910390a250565b60065460ff16156107025760405162461bcd60e51b815260206004820152602b60248201527f4552433732315061757361626c653a20746f6b656e207472616e73666572207760448201527f68696c652070617573656400000000000000000000000000000000000000000060648201526084016105b0565b6000611c4b826109e1565b9050611c59816000846116da565b611c64600083611072565b6001600160a01b0381166000908152600360205260408120805460019290611c8d9084906124e8565b909155505060008281526002602052604080822080546001600160a01b0319169055518391906001600160a01b038416907fddf252ad1be2c89b69c2b068fc378daa952ba7f163c4a11628f55a4df523b3ef908390a45050565b606081611d2757505060408051808201909152600181527f3000000000000000000000000000000000000000000000000000000000000000602082015290565b8160005b8115611d515780611d3b8161259f565b9150611d4a9050600a836125d0565b9150611d2b565b60008167ffffffffffffffff811115611d6c57611d6c612272565b6040519080825280601f01601f191660200182016040528015611d96576020820181803683370190505b5090505b841561127857611dab6001836124e8565b9150611db8600a866125e4565b611dc39060306124ff565b60f81b818381518110611dd857611dd86125f8565b60200101907effffffffffffffffffffffffffffffffffffffffffffffffffffffffffffff1916908160001a905350611e12600a866125d0565b9450611d9a565b6001600160a01b038216611e6f5760405162461bcd60e51b815260206004820181905260248201527f4552433732313a206d696e7420746f20746865207a65726f206164647265737360448201526064016105b0565b6000818152600260205260409020546001600160a01b031615611ed45760405162461bcd60e51b815260206004820152601c60248201527f4552433732313a20746f6b656e20616c7265616479206d696e7465640000000060448201526064016105b0565b611ee0600083836116da565b6001600160a01b0382166000908152600360205260408120805460019290611f099084906124ff565b909155505060008181526002602052604080822080546001600160a01b0319166001600160a01b03861690811790915590518392907fddf252ad1be2c89b69c2b068fc378daa952ba7f163c4a11628f55a4df523b3ef908290a45050565b828054611f739061241c565b90600052602060002090601f016020900481019282611f955760008555611fdb565b82601f10611fae57805160ff1916838001178555611fdb565b82800160010185558215611fdb579182015b82811115611fdb578251825591602001919060010190611fc0565b50611fe7929150612021565b5090565b508054611ff79061241c565b6000825580601f10612007575050565b601f0160209004906000526020600020908101906109de91905b5b80821115611fe75760008155600101612022565b6001600160e01b0319811681146109de57600080fd5b60006020828403121561205e57600080fd5b8135610f8c81612036565b60005b8381101561208457818101518382015260200161206c565b83811115610f4a5750506000910152565b600081518084526120ad816020860160208601612069565b601f01601f19169290920160200192915050565b602081526000610f8c6020830184612095565b6000602082840312156120e657600080fd5b5035919050565b6001600160a01b03811681146109de57600080fd5b6000806040838503121561211557600080fd5b8235612120816120ed565b946020939093013593505050565b60008060008060006080868803121561214657600080fd5b8535612151816120ed565b94506020860135612161816120ed565b935060408601359250606086013567ffffffffffffffff8082111561218557600080fd5b818801915088601f83011261219957600080fd5b8135818111156121a857600080fd5b8960208285010111156121ba57600080fd5b9699959850939650602001949392505050565b6000806000606084860312156121e257600080fd5b83356121ed816120ed565b925060208401356121fd816120ed565b929592945050506040919091013590565b60006020828403121561222057600080fd5b8135610f8c816120ed565b80151581146109de57600080fd5b6000806040838503121561224c57600080fd5b8235612257816120ed565b915060208301356122678161222b565b809150509250929050565b634e487b7160e01b600052604160045260246000fd5b600067ffffffffffffffff808411156122a3576122a3612272565b604051601f8501601f19908116603f011681019082821181831017156122cb576122cb612272565b816040528093508581528686860111156122e457600080fd5b858560208301376000602087830101525050509392505050565b6000806000806080858703121561231457600080fd5b843561231f816120ed565b9350602085013561232f816120ed565b925060408501359150606085013567ffffffffffffffff81111561235257600080fd5b8501601f8101871361236357600080fd5b61237287823560208401612288565b91505092959194509250565b600082601f83011261238f57600080fd5b610f8c83833560208501612288565b600080604083850312156123b157600080fd5b82356123bc816120ed565b9150602083013567ffffffffffffffff8111156123d857600080fd5b6123e48582860161237e565b9150509250929050565b6000806040838503121561240157600080fd5b823561240c816120ed565b91506020830135612267816120ed565b600181811c9082168061243057607f821691505b6020821081141561245157634e487b7160e01b600052602260045260246000fd5b50919050565b6000806040838503121561246a57600080fd5b823567ffffffffffffffff81111561248157600080fd5b61248d8582860161237e565b95602094909401359450505050565b6000602082840312156124ae57600080fd5b5051919050565b6000602082840312156124c757600080fd5b8151610f8c8161222b565b634e487b7160e01b600052601160045260246000fd5b6000828210156124fa576124fa6124d2565b500390565b60008219821115612512576125126124d2565b500190565b60008351612529818460208801612069565b83519083019061253d818360208801612069565b01949350505050565b60006001600160a01b038087168352808616602084015250836040830152608060608301526125786080830184612095565b9695505050505050565b60006020828403121561259457600080fd5b8151610f8c81612036565b60006000198214156125b3576125b36124d2565b5060010190565b634e487b7160e01b600052601260045260246000fd5b6000826125df576125df6125ba565b500490565b6000826125f3576125f36125ba565b500690565b634e487b7160e01b600052603260045260246000fdfea264697066735822122014ff82155685f0a163372851f56edbda2d966c092760ab72a86dc9418fc25acf64736f6c63430008090033",
  "immutableReferences": {},
  "source": "// SPDX-License-Identifier: MIT\npragma solidity ^0.8.7;\n\nimport \"@openzeppelin/contracts/access/Ownable.sol\";\nimport \"@openzeppelin/contracts/token/ERC20/IERC20.sol\";\nimport \"@openzeppelin/contracts/token/ERC721/IERC721Receiver.sol\";\nimport \"@openzeppelin/contracts/token/ERC721/ERC721.sol\";\nimport \"@openzeppelin/contracts/token/ERC721/extensions/ERC721Burnable.sol\";\nimport \"@openzeppelin/contracts/token/ERC721/extensions/ERC721Pausable.sol\";\nimport \"@openzeppelin/contracts/token/ERC721/extensions/ERC721URIStorage.sol\";\nimport \"@openzeppelin/contracts/utils/Counters.sol\";\nimport \"./ICredentialRegistry.sol\";\n\n//  a NFT secure document\ncontract XDVNFT is\n    ERC721Burnable,\n    ERC721Pausable,\n    ERC721URIStorage,\n    Ownable,\n    IERC721Receiver\n{\n    using Counters for Counters.Counter;\n    Counters.Counter private _tokenIds;\n    IERC20 public stablecoin;\n    address public verifierAddress;\n    uint256 public serviceFeeForPaymentAddress = 0;\n    uint256 public serviceFeeForContract = 0;\n\n    event Withdrawn(address indexed paymentAddress, uint256 amount);\n\n    event ServiceFeePaid(\n        address indexed from,\n        uint256 paidToContract,\n        uint256 paidToPaymentAddress\n    );\n\n    /**\n     * XDVNFT Data Token\n     */\n    constructor(\n        string memory name,\n        string memory symbol,\n        address tokenERC20,\n        address verifierAddr\n    ) ERC721(name, symbol) {\n        stablecoin = IERC20(tokenERC20);\n        verifierAddress = verifierAddr;\n    }\n\n    function setServiceFeeForPaymentAddress(uint256 _fee) public onlyOwner {\n        serviceFeeForPaymentAddress = _fee;\n    }\n\n    function setServiceFeeForContract(uint256 _fee) public onlyOwner {\n        serviceFeeForContract = _fee;\n    }\n\n    /**\n     * @dev Mints a XDV Data Token\n     */\n    function mint(address user, string memory uri) public returns (uint256) {\n        _tokenIds.increment();\n\n        uint256 newItemId = _tokenIds.current();\n        _safeMint(user, newItemId);\n        _setTokenURI(newItemId, uri);\n\n        return newItemId;\n    }\n\n    /**\n     * @dev Whenever an {IERC721} `tokenId` token is transferred to this contract via {IERC721-safeTransferFrom}\n     * by `operator` from `from`, this function is called.\n     *\n     * It must return its Solidity selector to confirm the token transfer.\n     * If any other value is returned or the interface is not implemented by the recipient, the transfer will be reverted.\n     *\n     * The selector can be obtained in Solidity with `IERC721.onERC721Received.selector`.\n     */\n    function onERC721Received(\n        address operator,\n        address from,\n        uint256 tokenId,\n        bytes calldata data\n    ) external returns (bytes4) {\n        // Verify operator\n        require(operator == verifierAddress, \"Invalid verifier\");\n        \n        // Verify owner owns token id\n        address owned = ownerOf(tokenId);\n        require(owned == from, \"Invalid token id owner\");\n        (\n            string memory _metadata,\n            uint256 _tokenId\n        ) = abi.decode(\n                data,\n                (string, uint256)\n            );\n        require(bytes(_metadata).length == 0, \"Empty metadata\");\n\n        // set metadata URI\n        _setTokenURI(_tokenId, _metadata);\n        return this.onERC721Received.selector;\n    }\n\n    /**\n     * @dev Just overrides the superclass' function. Fixes inheritance\n     * source: https://forum.openzeppelin.com/t/how-do-inherit-from-erc721-erc721enumerable-and-erc721uristorage-in-v4-of-openzeppelin-contracts/6656/4\n     */\n    function _burn(uint256 tokenId)\n        internal\n        override(ERC721, ERC721URIStorage)\n    {\n        super._burn(tokenId);\n    }\n\n    /**\n     * @dev Just overrides the superclass' function. Fixes inheritance\n     * source: https://forum.openzeppelin.com/t/how-do-inherit-from-erc721-erc721enumerable-and-erc721uristorage-in-v4-of-openzeppelin-contracts/6656/4\n     */\n    function tokenURI(uint256 tokenId)\n        public\n        view\n        override(ERC721, ERC721URIStorage)\n        returns (string memory)\n    {\n        return super.tokenURI(tokenId);\n    }\n\n    function _beforeTokenTransfer(\n        address from,\n        address to,\n        uint256 tokenId\n    ) internal virtual override(ERC721, ERC721Pausable) {\n        require(!paused(), \"XDV: Token execution is paused\");\n\n        if (from == address(0)) {\n            paymentBeforeMint(msg.sender);\n        }\n\n        super._beforeTokenTransfer(from, to, tokenId);\n    }\n\n    /**\n     * @dev tries to execute the payment when the token is minted.\n     * Reverts if the payment procedure could not be completed.\n     */\n    function paymentBeforeMint(address tokenHolder) internal virtual {\n        // Transfer tokens to pay service fee\n        require(\n            stablecoin.transferFrom(\n                tokenHolder,\n                address(this),\n                serviceFeeForContract\n            ),\n            \"XDV: Transfer failed for recipient\"\n        );\n\n        emit ServiceFeePaid(\n            tokenHolder,\n            serviceFeeForContract,\n            serviceFeeForPaymentAddress\n        );\n    }\n\n    function withdrawBalance(address payable payee) public onlyOwner {\n        uint256 balance = stablecoin.balanceOf(address(this));\n\n        require(stablecoin.transfer(payee, balance), \"XDV: Transfer failed\");\n\n        emit Withdrawn(payee, balance);\n    }\n}\n",
  "sourcePath": "/home/rogelio/Code/ancon-protocol/ethereum/contracts/XDVNFT.sol",
  "compiler": {
    "name": "solc",
    "version": "0.8.9+commit.e5eed63a.Emscripten.clang"
  },
  "schemaVersion": "3.4.0",
  "updatedAt": "2021-11-08T12:00:00.878Z",
  "networkType": "ethereum",
  "devdoc": {
    "kind": "dev",
    "methods": {
      "approve(address,uint256)": {
        "details": "See {IERC721-approve}."
      },
      "balanceOf(address)": {
        "details": "See {IERC721-balanceOf}."
      },
      "burn(uint256)": {
        "details": "Burns `tokenId`. See {ERC721-_burn}. Requirements: - The caller must own `tokenId` or be an approved operator."
      },
      "getApproved(uint256)": {
        "details": "See {IERC721-getApproved}."
      },
      "isApprovedForAll(address,address)": {
        "details": "See {IERC721-isApprovedForAll}."
      },
      "mint(address,string)": {
        "details": "Mints a XDV Data Token"
      },
      "name()": {
        "details": "See {IERC721Metadata-name}."
      },
      "onERC721Received(address,address,uint256,bytes)": {
        "details": "Whenever an {IERC721} `tokenId` token is transferred to this contract via {IERC721-safeTransferFrom} by `operator` from `from`, this function is called. It must return its Solidity selector to confirm the token transfer. If any other value is returned or the interface is not implemented by the recipient, the transfer will be reverted. The selector can be obtained in Solidity with `IERC721.onERC721Received.selector`."
      },
      "owner()": {
        "details": "Returns the address of the current owner."
      },
      "ownerOf(uint256)": {
        "details": "See {IERC721-ownerOf}."
      },
      "paused()": {
        "details": "Returns true if the contract is paused, and false otherwise."
      },
      "renounceOwnership()": {
        "details": "Leaves the contract without owner. It will not be possible to call `onlyOwner` functions anymore. Can only be called by the current owner. NOTE: Renouncing ownership will leave the contract without an owner, thereby removing any functionality that is only available to the owner."
      },
      "safeTransferFrom(address,address,uint256)": {
        "details": "See {IERC721-safeTransferFrom}."
      },
      "safeTransferFrom(address,address,uint256,bytes)": {
        "details": "See {IERC721-safeTransferFrom}."
      },
      "setApprovalForAll(address,bool)": {
        "details": "See {IERC721-setApprovalForAll}."
      },
      "supportsInterface(bytes4)": {
        "details": "See {IERC165-supportsInterface}."
      },
      "symbol()": {
        "details": "See {IERC721Metadata-symbol}."
      },
      "tokenURI(uint256)": {
        "details": "Just overrides the superclass' function. Fixes inheritance source: https://forum.openzeppelin.com/t/how-do-inherit-from-erc721-erc721enumerable-and-erc721uristorage-in-v4-of-openzeppelin-contracts/6656/4"
      },
      "transferFrom(address,address,uint256)": {
        "details": "See {IERC721-transferFrom}."
      },
      "transferOwnership(address)": {
        "details": "Transfers ownership of the contract to a new account (`newOwner`). Can only be called by the current owner."
      }
    },
    "version": 1
  },
  "userdoc": {
    "kind": "user",
    "methods": {
      "constructor": {
        "notice": "XDVNFT Data Token"
      }
    },
    "version": 1
  }
}