{
  "contractName": "XDVNFT",
  "abi": [
    {
      "inputs": [
        {
          "internalType": "string",
          "name": "name",
          "type": "string"
        },
        {
          "internalType": "string",
          "name": "symbol",
          "type": "string"
        },
        {
          "internalType": "address",
          "name": "tokenERC20",
          "type": "address"
        },
        {
          "internalType": "address",
          "name": "verifierAddr",
          "type": "address"
        }
      ],
      "stateMutability": "nonpayable",
      "type": "constructor"
    },
    {
      "anonymous": false,
      "inputs": [
        {
          "indexed": true,
          "internalType": "address",
          "name": "owner",
          "type": "address"
        },
        {
          "indexed": true,
          "internalType": "address",
          "name": "approved",
          "type": "address"
        },
        {
          "indexed": true,
          "internalType": "uint256",
          "name": "tokenId",
          "type": "uint256"
        }
      ],
      "name": "Approval",
      "type": "event"
    },
    {
      "anonymous": false,
      "inputs": [
        {
          "indexed": true,
          "internalType": "address",
          "name": "owner",
          "type": "address"
        },
        {
          "indexed": true,
          "internalType": "address",
          "name": "operator",
          "type": "address"
        },
        {
          "indexed": false,
          "internalType": "bool",
          "name": "approved",
          "type": "bool"
        }
      ],
      "name": "ApprovalForAll",
      "type": "event"
    },
    {
      "anonymous": false,
      "inputs": [
        {
          "indexed": true,
          "internalType": "address",
          "name": "previousOwner",
          "type": "address"
        },
        {
          "indexed": true,
          "internalType": "address",
          "name": "newOwner",
          "type": "address"
        }
      ],
      "name": "OwnershipTransferred",
      "type": "event"
    },
    {
      "anonymous": false,
      "inputs": [
        {
          "indexed": false,
          "internalType": "address",
          "name": "account",
          "type": "address"
        }
      ],
      "name": "Paused",
      "type": "event"
    },
    {
      "anonymous": false,
      "inputs": [
        {
          "indexed": true,
          "internalType": "address",
          "name": "from",
          "type": "address"
        },
        {
          "indexed": false,
          "internalType": "uint256",
          "name": "paidToContract",
          "type": "uint256"
        },
        {
          "indexed": false,
          "internalType": "uint256",
          "name": "paidToPaymentAddress",
          "type": "uint256"
        }
      ],
      "name": "ServiceFeePaid",
      "type": "event"
    },
    {
      "anonymous": false,
      "inputs": [
        {
          "indexed": true,
          "internalType": "address",
          "name": "from",
          "type": "address"
        },
        {
          "indexed": true,
          "internalType": "address",
          "name": "to",
          "type": "address"
        },
        {
          "indexed": true,
          "internalType": "uint256",
          "name": "tokenId",
          "type": "uint256"
        }
      ],
      "name": "Transfer",
      "type": "event"
    },
    {
      "anonymous": false,
      "inputs": [
        {
          "indexed": false,
          "internalType": "address",
          "name": "account",
          "type": "address"
        }
      ],
      "name": "Unpaused",
      "type": "event"
    },
    {
      "anonymous": false,
      "inputs": [
        {
          "indexed": true,
          "internalType": "address",
          "name": "paymentAddress",
          "type": "address"
        },
        {
          "indexed": false,
          "internalType": "uint256",
          "name": "amount",
          "type": "uint256"
        }
      ],
      "name": "Withdrawn",
      "type": "event"
    },
    {
      "inputs": [
        {
          "internalType": "address",
          "name": "to",
          "type": "address"
        },
        {
          "internalType": "uint256",
          "name": "tokenId",
          "type": "uint256"
        }
      ],
      "name": "approve",
      "outputs": [],
      "stateMutability": "nonpayable",
      "type": "function"
    },
    {
      "inputs": [
        {
          "internalType": "address",
          "name": "owner",
          "type": "address"
        }
      ],
      "name": "balanceOf",
      "outputs": [
        {
          "internalType": "uint256",
          "name": "",
          "type": "uint256"
        }
      ],
      "stateMutability": "view",
      "type": "function"
    },
    {
      "inputs": [
        {
          "internalType": "uint256",
          "name": "tokenId",
          "type": "uint256"
        }
      ],
      "name": "burn",
      "outputs": [],
      "stateMutability": "nonpayable",
      "type": "function"
    },
    {
      "inputs": [
        {
          "internalType": "uint256",
          "name": "tokenId",
          "type": "uint256"
        }
      ],
      "name": "getApproved",
      "outputs": [
        {
          "internalType": "address",
          "name": "",
          "type": "address"
        }
      ],
      "stateMutability": "view",
      "type": "function"
    },
    {
      "inputs": [
        {
          "internalType": "address",
          "name": "owner",
          "type": "address"
        },
        {
          "internalType": "address",
          "name": "operator",
          "type": "address"
        }
      ],
      "name": "isApprovedForAll",
      "outputs": [
        {
          "internalType": "bool",
          "name": "",
          "type": "bool"
        }
      ],
      "stateMutability": "view",
      "type": "function"
    },
    {
      "inputs": [],
      "name": "name",
      "outputs": [
        {
          "internalType": "string",
          "name": "",
          "type": "string"
        }
      ],
      "stateMutability": "view",
      "type": "function"
    },
    {
      "inputs": [],
      "name": "owner",
      "outputs": [
        {
          "internalType": "address",
          "name": "",
          "type": "address"
        }
      ],
      "stateMutability": "view",
      "type": "function"
    },
    {
      "inputs": [
        {
          "internalType": "uint256",
          "name": "tokenId",
          "type": "uint256"
        }
      ],
      "name": "ownerOf",
      "outputs": [
        {
          "internalType": "address",
          "name": "",
          "type": "address"
        }
      ],
      "stateMutability": "view",
      "type": "function"
    },
    {
      "inputs": [],
      "name": "paused",
      "outputs": [
        {
          "internalType": "bool",
          "name": "",
          "type": "bool"
        }
      ],
      "stateMutability": "view",
      "type": "function"
    },
    {
      "inputs": [],
      "name": "renounceOwnership",
      "outputs": [],
      "stateMutability": "nonpayable",
      "type": "function"
    },
    {
      "inputs": [
        {
          "internalType": "address",
          "name": "from",
          "type": "address"
        },
        {
          "internalType": "address",
          "name": "to",
          "type": "address"
        },
        {
          "internalType": "uint256",
          "name": "tokenId",
          "type": "uint256"
        }
      ],
      "name": "safeTransferFrom",
      "outputs": [],
      "stateMutability": "nonpayable",
      "type": "function"
    },
    {
      "inputs": [
        {
          "internalType": "address",
          "name": "from",
          "type": "address"
        },
        {
          "internalType": "address",
          "name": "to",
          "type": "address"
        },
        {
          "internalType": "uint256",
          "name": "tokenId",
          "type": "uint256"
        },
        {
          "internalType": "bytes",
          "name": "_data",
          "type": "bytes"
        }
      ],
      "name": "safeTransferFrom",
      "outputs": [],
      "stateMutability": "nonpayable",
      "type": "function"
    },
    {
      "inputs": [],
      "name": "serviceFeeForContract",
      "outputs": [
        {
          "internalType": "uint256",
          "name": "",
          "type": "uint256"
        }
      ],
      "stateMutability": "view",
      "type": "function"
    },
    {
      "inputs": [],
      "name": "serviceFeeForPaymentAddress",
      "outputs": [
        {
          "internalType": "uint256",
          "name": "",
          "type": "uint256"
        }
      ],
      "stateMutability": "view",
      "type": "function"
    },
    {
      "inputs": [
        {
          "internalType": "address",
          "name": "operator",
          "type": "address"
        },
        {
          "internalType": "bool",
          "name": "approved",
          "type": "bool"
        }
      ],
      "name": "setApprovalForAll",
      "outputs": [],
      "stateMutability": "nonpayable",
      "type": "function"
    },
    {
      "inputs": [],
      "name": "stablecoin",
      "outputs": [
        {
          "internalType": "contract IERC20",
          "name": "",
          "type": "address"
        }
      ],
      "stateMutability": "view",
      "type": "function"
    },
    {
      "inputs": [
        {
          "internalType": "bytes4",
          "name": "interfaceId",
          "type": "bytes4"
        }
      ],
      "name": "supportsInterface",
      "outputs": [
        {
          "internalType": "bool",
          "name": "",
          "type": "bool"
        }
      ],
      "stateMutability": "view",
      "type": "function"
    },
    {
      "inputs": [],
      "name": "symbol",
      "outputs": [
        {
          "internalType": "string",
          "name": "",
          "type": "string"
        }
      ],
      "stateMutability": "view",
      "type": "function"
    },
    {
      "inputs": [
        {
          "internalType": "address",
          "name": "from",
          "type": "address"
        },
        {
          "internalType": "address",
          "name": "to",
          "type": "address"
        },
        {
          "internalType": "uint256",
          "name": "tokenId",
          "type": "uint256"
        }
      ],
      "name": "transferFrom",
      "outputs": [],
      "stateMutability": "nonpayable",
      "type": "function"
    },
    {
      "inputs": [
        {
          "internalType": "address",
          "name": "newOwner",
          "type": "address"
        }
      ],
      "name": "transferOwnership",
      "outputs": [],
      "stateMutability": "nonpayable",
      "type": "function"
    },
    {
      "inputs": [],
      "name": "verifierAddress",
      "outputs": [
        {
          "internalType": "address",
          "name": "",
          "type": "address"
        }
      ],
      "stateMutability": "view",
      "type": "function"
    },
    {
      "inputs": [
        {
          "internalType": "uint256",
          "name": "_fee",
          "type": "uint256"
        }
      ],
      "name": "setServiceFeeForPaymentAddress",
      "outputs": [],
      "stateMutability": "nonpayable",
      "type": "function"
    },
    {
      "inputs": [
        {
          "internalType": "uint256",
          "name": "_fee",
          "type": "uint256"
        }
      ],
      "name": "setServiceFeeForContract",
      "outputs": [],
      "stateMutability": "nonpayable",
      "type": "function"
    },
    {
      "inputs": [
        {
          "internalType": "address",
          "name": "user",
          "type": "address"
        },
        {
          "internalType": "string",
          "name": "uri",
          "type": "string"
        }
      ],
      "name": "mint",
      "outputs": [
        {
          "internalType": "uint256",
          "name": "",
          "type": "uint256"
        }
      ],
      "stateMutability": "nonpayable",
      "type": "function"
    },
    {
      "inputs": [
        {
          "internalType": "address",
          "name": "operator",
          "type": "address"
        },
        {
          "internalType": "address",
          "name": "from",
          "type": "address"
        },
        {
          "internalType": "uint256",
          "name": "tokenId",
          "type": "uint256"
        },
        {
          "internalType": "bytes",
          "name": "data",
          "type": "bytes"
        }
      ],
      "name": "onERC721Received",
      "outputs": [
        {
          "internalType": "bytes4",
          "name": "",
          "type": "bytes4"
        }
      ],
      "stateMutability": "nonpayable",
      "type": "function"
    },
    {
      "inputs": [
        {
          "internalType": "uint256",
          "name": "tokenId",
          "type": "uint256"
        }
      ],
      "name": "tokenURI",
      "outputs": [
        {
          "internalType": "string",
          "name": "",
          "type": "string"
        }
      ],
      "stateMutability": "view",
      "type": "function"
    },
    {
      "inputs": [
        {
          "internalType": "address payable",
          "name": "payee",
          "type": "address"
        }
      ],
      "name": "withdrawBalance",
      "outputs": [],
      "stateMutability": "nonpayable",
      "type": "function"
    }
  ],
  "bytecode": "0x60806040526000600c556000600d553480156200001b57600080fd5b506040516200491b3803806200491b8339818101604052810190620000419190620004be565b838381600090805190602001906200005b9291906200020c565b508060019080519060200190620000749291906200020c565b5050506000600660006101000a81548160ff021916908315150217905550620000b2620000a66200013e60201b60201c565b6200014660201b60201c565b81600a60006101000a81548173ffffffffffffffffffffffffffffffffffffffff021916908373ffffffffffffffffffffffffffffffffffffffff16021790555080600b60006101000a81548173ffffffffffffffffffffffffffffffffffffffff021916908373ffffffffffffffffffffffffffffffffffffffff16021790555050505050620005d3565b600033905090565b6000600860009054906101000a900473ffffffffffffffffffffffffffffffffffffffff16905081600860006101000a81548173ffffffffffffffffffffffffffffffffffffffff021916908373ffffffffffffffffffffffffffffffffffffffff1602179055508173ffffffffffffffffffffffffffffffffffffffff168173ffffffffffffffffffffffffffffffffffffffff167f8be0079c531659141344cd1fd0a4f28419497f9722a3daafe3b4186f6b6457e060405160405180910390a35050565b8280546200021a906200059d565b90600052602060002090601f0160209004810192826200023e57600085556200028a565b82601f106200025957805160ff19168380011785556200028a565b828001600101855582156200028a579182015b82811115620002895782518255916020019190600101906200026c565b5b5090506200029991906200029d565b5090565b5b80821115620002b85760008160009055506001016200029e565b5090565b6000604051905090565b600080fd5b600080fd5b600080fd5b600080fd5b6000601f19601f8301169050919050565b7f4e487b7100000000000000000000000000000000000000000000000000000000600052604160045260246000fd5b6200032582620002da565b810181811067ffffffffffffffff82111715620003475762000346620002eb565b5b80604052505050565b60006200035c620002bc565b90506200036a82826200031a565b919050565b600067ffffffffffffffff8211156200038d576200038c620002eb565b5b6200039882620002da565b9050602081019050919050565b60005b83811015620003c5578082015181840152602081019050620003a8565b83811115620003d5576000848401525b50505050565b6000620003f2620003ec846200036f565b62000350565b905082815260208101848484011115620004115762000410620002d5565b5b6200041e848285620003a5565b509392505050565b600082601f8301126200043e576200043d620002d0565b5b815162000450848260208601620003db565b91505092915050565b600073ffffffffffffffffffffffffffffffffffffffff82169050919050565b6000620004868262000459565b9050919050565b620004988162000479565b8114620004a457600080fd5b50565b600081519050620004b8816200048d565b92915050565b60008060008060808587031215620004db57620004da620002c6565b5b600085015167ffffffffffffffff811115620004fc57620004fb620002cb565b5b6200050a8782880162000426565b945050602085015167ffffffffffffffff8111156200052e576200052d620002cb565b5b6200053c8782880162000426565b93505060406200054f87828801620004a7565b92505060606200056287828801620004a7565b91505092959194509250565b7f4e487b7100000000000000000000000000000000000000000000000000000000600052602260045260246000fd5b60006002820490506001821680620005b657607f821691505b60208210811415620005cd57620005cc6200056e565b5b50919050565b61433880620005e36000396000f3fe608060405234801561001057600080fd5b50600436106101a95760003560e01c8063715018a6116100f9578063c014b9da11610097578063e53ae10211610071578063e53ae102146104b8578063e985e9c5146104d6578063e9cbd82214610506578063f2fde38b14610524576101a9565b8063c014b9da1461043a578063c87b56dd14610458578063d0def52114610488576101a9565b806395d89b41116100d357806395d89b41146103c8578063a22cb465146103e6578063b86be2ca14610402578063b88d4fde1461041e576101a9565b8063715018a614610384578063756af45f1461038e5780638da5cb5b146103aa576101a9565b806323b872dd1161016657806342966c681161014057806342966c68146102ea5780635c975abb146103065780636352211e1461032457806370a0823114610354576101a9565b806323b872dd146102965780632c078e8d146102b257806342842e0e146102ce576101a9565b806301ffc9a7146101ae57806306fdde03146101de578063081812fc146101fc578063095ea7b31461022c578063150b7a021461024857806318bdffbb14610278575b600080fd5b6101c860048036038101906101c391906127fc565b610540565b6040516101d59190612844565b60405180910390f35b6101e6610622565b6040516101f391906128f8565b60405180910390f35b61021660048036038101906102119190612950565b6106b4565b60405161022391906129be565b60405180910390f35b61024660048036038101906102419190612a05565b610739565b005b610262600480360381019061025d9190612aaa565b610851565b60405161026f9190612b41565b60405180910390f35b6102806109ea565b60405161028d91906129be565b60405180910390f35b6102b060048036038101906102ab9190612b5c565b610a10565b005b6102cc60048036038101906102c79190612950565b610a70565b005b6102e860048036038101906102e39190612b5c565b610af6565b005b61030460048036038101906102ff9190612950565b610b16565b005b61030e610b72565b60405161031b9190612844565b60405180910390f35b61033e60048036038101906103399190612950565b610b89565b60405161034b91906129be565b60405180910390f35b61036e60048036038101906103699190612baf565b610c3b565b60405161037b9190612beb565b60405180910390f35b61038c610cf3565b005b6103a860048036038101906103a39190612c44565b610d7b565b005b6103b2610fe6565b6040516103bf91906129be565b60405180910390f35b6103d0611010565b6040516103dd91906128f8565b60405180910390f35b61040060048036038101906103fb9190612c9d565b6110a2565b005b61041c60048036038101906104179190612950565b611223565b005b61043860048036038101906104339190612e0d565b6112a9565b005b61044261130b565b60405161044f9190612beb565b60405180910390f35b610472600480360381019061046d9190612950565b611311565b60405161047f91906128f8565b60405180910390f35b6104a2600480360381019061049d9190612f31565b611323565b6040516104af9190612beb565b60405180910390f35b6104c061135b565b6040516104cd9190612beb565b60405180910390f35b6104f060048036038101906104eb9190612f8d565b611361565b6040516104fd9190612844565b60405180910390f35b61050e6113f5565b60405161051b919061302c565b60405180910390f35b61053e60048036038101906105399190612baf565b61141b565b005b60007f80ac58cd000000000000000000000000000000000000000000000000000000007bffffffffffffffffffffffffffffffffffffffffffffffffffffffff1916827bffffffffffffffffffffffffffffffffffffffffffffffffffffffff1916148061060b57507f5b5e139f000000000000000000000000000000000000000000000000000000007bffffffffffffffffffffffffffffffffffffffffffffffffffffffff1916827bffffffffffffffffffffffffffffffffffffffffffffffffffffffff1916145b8061061b575061061a82611513565b5b9050919050565b60606000805461063190613076565b80601f016020809104026020016040519081016040528092919081815260200182805461065d90613076565b80156106aa5780601f1061067f576101008083540402835291602001916106aa565b820191906000526020600020905b81548152906001019060200180831161068d57829003601f168201915b5050505050905090565b60006106bf8261157d565b6106fe576040517f08c379a00000000000000000000000000000000000000000000000000000000081526004016106f59061311a565b60405180910390fd5b6004600083815260200190815260200160002060009054906101000a900473ffffffffffffffffffffffffffffffffffffffff169050919050565b600061074482610b89565b90508073ffffffffffffffffffffffffffffffffffffffff168373ffffffffffffffffffffffffffffffffffffffff1614156107b5576040517f08c379a00000000000000000000000000000000000000000000000000000000081526004016107ac906131ac565b60405180910390fd5b8073ffffffffffffffffffffffffffffffffffffffff166107d46115e9565b73ffffffffffffffffffffffffffffffffffffffff1614806108035750610802816107fd6115e9565b611361565b5b610842576040517f08c379a00000000000000000000000000000000000000000000000000000000081526004016108399061323e565b60405180910390fd5b61084c83836115f1565b505050565b6000600b60009054906101000a900473ffffffffffffffffffffffffffffffffffffffff1673ffffffffffffffffffffffffffffffffffffffff168673ffffffffffffffffffffffffffffffffffffffff16146108e3576040517f08c379a00000000000000000000000000000000000000000000000000000000081526004016108da906132aa565b60405180910390fd5b60006108ee85610b89565b90508573ffffffffffffffffffffffffffffffffffffffff168173ffffffffffffffffffffffffffffffffffffffff161461095e576040517f08c379a000000000000000000000000000000000000000000000000000000000815260040161095590613316565b60405180910390fd5b60008060008060008089898101906109769190613336565b95509550955095509550955060008651146109c6576040517f08c379a00000000000000000000000000000000000000000000000000000000081526004016109bd9061342b565b60405180910390fd5b6109d082876116aa565b63150b7a0260e01b97505050505050505095945050505050565b600b60009054906101000a900473ffffffffffffffffffffffffffffffffffffffff1681565b610a21610a1b6115e9565b8261171e565b610a60576040517f08c379a0000000000000000000000000000000000000000000000000000000008152600401610a57906134bd565b60405180910390fd5b610a6b8383836117fc565b505050565b610a786115e9565b73ffffffffffffffffffffffffffffffffffffffff16610a96610fe6565b73ffffffffffffffffffffffffffffffffffffffff1614610aec576040517f08c379a0000000000000000000000000000000000000000000000000000000008152600401610ae390613529565b60405180910390fd5b80600d8190555050565b610b11838383604051806020016040528060008152506112a9565b505050565b610b27610b216115e9565b8261171e565b610b66576040517f08c379a0000000000000000000000000000000000000000000000000000000008152600401610b5d906135bb565b60405180910390fd5b610b6f81611a58565b50565b6000600660009054906101000a900460ff16905090565b6000806002600084815260200190815260200160002060009054906101000a900473ffffffffffffffffffffffffffffffffffffffff169050600073ffffffffffffffffffffffffffffffffffffffff168173ffffffffffffffffffffffffffffffffffffffff161415610c32576040517f08c379a0000000000000000000000000000000000000000000000000000000008152600401610c299061364d565b60405180910390fd5b80915050919050565b60008073ffffffffffffffffffffffffffffffffffffffff168273ffffffffffffffffffffffffffffffffffffffff161415610cac576040517f08c379a0000000000000000000000000000000000000000000000000000000008152600401610ca3906136df565b60405180910390fd5b600360008373ffffffffffffffffffffffffffffffffffffffff1673ffffffffffffffffffffffffffffffffffffffff168152602001908152602001600020549050919050565b610cfb6115e9565b73ffffffffffffffffffffffffffffffffffffffff16610d19610fe6565b73ffffffffffffffffffffffffffffffffffffffff1614610d6f576040517f08c379a0000000000000000000000000000000000000000000000000000000008152600401610d6690613529565b60405180910390fd5b610d796000611a64565b565b610d836115e9565b73ffffffffffffffffffffffffffffffffffffffff16610da1610fe6565b73ffffffffffffffffffffffffffffffffffffffff1614610df7576040517f08c379a0000000000000000000000000000000000000000000000000000000008152600401610dee90613529565b60405180910390fd5b6000600a60009054906101000a900473ffffffffffffffffffffffffffffffffffffffff1673ffffffffffffffffffffffffffffffffffffffff166370a08231306040518263ffffffff1660e01b8152600401610e5491906129be565b60206040518083038186803b158015610e6c57600080fd5b505afa158015610e80573d6000803e3d6000fd5b505050506040513d601f19601f82011682018060405250810190610ea49190613714565b9050600a60009054906101000a900473ffffffffffffffffffffffffffffffffffffffff1673ffffffffffffffffffffffffffffffffffffffff1663a9059cbb83836040518363ffffffff1660e01b8152600401610f03929190613762565b602060405180830381600087803b158015610f1d57600080fd5b505af1158015610f31573d6000803e3d6000fd5b505050506040513d601f19601f82011682018060405250810190610f5591906137a0565b610f94576040517f08c379a0000000000000000000000000000000000000000000000000000000008152600401610f8b90613819565b60405180910390fd5b8173ffffffffffffffffffffffffffffffffffffffff167f7084f5476618d8e60b11ef0d7d3f06914655adb8793e28ff7f018d4c76d505d582604051610fda9190612beb565b60405180910390a25050565b6000600860009054906101000a900473ffffffffffffffffffffffffffffffffffffffff16905090565b60606001805461101f90613076565b80601f016020809104026020016040519081016040528092919081815260200182805461104b90613076565b80156110985780601f1061106d57610100808354040283529160200191611098565b820191906000526020600020905b81548152906001019060200180831161107b57829003601f168201915b5050505050905090565b6110aa6115e9565b73ffffffffffffffffffffffffffffffffffffffff168273ffffffffffffffffffffffffffffffffffffffff161415611118576040517f08c379a000000000000000000000000000000000000000000000000000000000815260040161110f90613885565b60405180910390fd5b80600560006111256115e9565b73ffffffffffffffffffffffffffffffffffffffff1673ffffffffffffffffffffffffffffffffffffffff16815260200190815260200160002060008473ffffffffffffffffffffffffffffffffffffffff1673ffffffffffffffffffffffffffffffffffffffff16815260200190815260200160002060006101000a81548160ff0219169083151502179055508173ffffffffffffffffffffffffffffffffffffffff166111d26115e9565b73ffffffffffffffffffffffffffffffffffffffff167f17307eab39ab6107e8899845ad3d59bd9653f200f220920489ca2b5937696c31836040516112179190612844565b60405180910390a35050565b61122b6115e9565b73ffffffffffffffffffffffffffffffffffffffff16611249610fe6565b73ffffffffffffffffffffffffffffffffffffffff161461129f576040517f08c379a000000000000000000000000000000000000000000000000000000000815260040161129690613529565b60405180910390fd5b80600c8190555050565b6112ba6112b46115e9565b8361171e565b6112f9576040517f08c379a00000000000000000000000000000000000000000000000000000000081526004016112f0906134bd565b60405180910390fd5b61130584848484611b2a565b50505050565b600c5481565b606061131c82611b86565b9050919050565b600061132f6009611cd8565b600061133b6009611cee565b90506113478482611cfc565b61135181846116aa565b8091505092915050565b600d5481565b6000600560008473ffffffffffffffffffffffffffffffffffffffff1673ffffffffffffffffffffffffffffffffffffffff16815260200190815260200160002060008373ffffffffffffffffffffffffffffffffffffffff1673ffffffffffffffffffffffffffffffffffffffff16815260200190815260200160002060009054906101000a900460ff16905092915050565b600a60009054906101000a900473ffffffffffffffffffffffffffffffffffffffff1681565b6114236115e9565b73ffffffffffffffffffffffffffffffffffffffff16611441610fe6565b73ffffffffffffffffffffffffffffffffffffffff1614611497576040517f08c379a000000000000000000000000000000000000000000000000000000000815260040161148e90613529565b60405180910390fd5b600073ffffffffffffffffffffffffffffffffffffffff168173ffffffffffffffffffffffffffffffffffffffff161415611507576040517f08c379a00000000000000000000000000000000000000000000000000000000081526004016114fe90613917565b60405180910390fd5b61151081611a64565b50565b60007f01ffc9a7000000000000000000000000000000000000000000000000000000007bffffffffffffffffffffffffffffffffffffffffffffffffffffffff1916827bffffffffffffffffffffffffffffffffffffffffffffffffffffffff1916149050919050565b60008073ffffffffffffffffffffffffffffffffffffffff166002600084815260200190815260200160002060009054906101000a900473ffffffffffffffffffffffffffffffffffffffff1673ffffffffffffffffffffffffffffffffffffffff1614159050919050565b600033905090565b816004600083815260200190815260200160002060006101000a81548173ffffffffffffffffffffffffffffffffffffffff021916908373ffffffffffffffffffffffffffffffffffffffff160217905550808273ffffffffffffffffffffffffffffffffffffffff1661166483610b89565b73ffffffffffffffffffffffffffffffffffffffff167f8c5be1e5ebec7d5bd14f71427d1e84f3dd0314c0f7b2291e5b200ac8c7c3b92560405160405180910390a45050565b6116b38261157d565b6116f2576040517f08c379a00000000000000000000000000000000000000000000000000000000081526004016116e9906139a9565b60405180910390fd5b806007600084815260200190815260200160002090805190602001906117199291906126ad565b505050565b60006117298261157d565b611768576040517f08c379a000000000000000000000000000000000000000000000000000000000815260040161175f90613a3b565b60405180910390fd5b600061177383610b89565b90508073ffffffffffffffffffffffffffffffffffffffff168473ffffffffffffffffffffffffffffffffffffffff1614806117e257508373ffffffffffffffffffffffffffffffffffffffff166117ca846106b4565b73ffffffffffffffffffffffffffffffffffffffff16145b806117f357506117f28185611361565b5b91505092915050565b8273ffffffffffffffffffffffffffffffffffffffff1661181c82610b89565b73ffffffffffffffffffffffffffffffffffffffff1614611872576040517f08c379a000000000000000000000000000000000000000000000000000000000815260040161186990613acd565b60405180910390fd5b600073ffffffffffffffffffffffffffffffffffffffff168273ffffffffffffffffffffffffffffffffffffffff1614156118e2576040517f08c379a00000000000000000000000000000000000000000000000000000000081526004016118d990613b5f565b60405180910390fd5b6118ed838383611d1a565b6118f86000826115f1565b6001600360008573ffffffffffffffffffffffffffffffffffffffff1673ffffffffffffffffffffffffffffffffffffffff16815260200190815260200160002060008282546119489190613bae565b925050819055506001600360008473ffffffffffffffffffffffffffffffffffffffff1673ffffffffffffffffffffffffffffffffffffffff168152602001908152602001600020600082825461199f9190613be2565b92505081905550816002600083815260200190815260200160002060006101000a81548173ffffffffffffffffffffffffffffffffffffffff021916908373ffffffffffffffffffffffffffffffffffffffff160217905550808273ffffffffffffffffffffffffffffffffffffffff168473ffffffffffffffffffffffffffffffffffffffff167fddf252ad1be2c89b69c2b068fc378daa952ba7f163c4a11628f55a4df523b3ef60405160405180910390a4505050565b611a6181611db1565b50565b6000600860009054906101000a900473ffffffffffffffffffffffffffffffffffffffff16905081600860006101000a81548173ffffffffffffffffffffffffffffffffffffffff021916908373ffffffffffffffffffffffffffffffffffffffff1602179055508173ffffffffffffffffffffffffffffffffffffffff168173ffffffffffffffffffffffffffffffffffffffff167f8be0079c531659141344cd1fd0a4f28419497f9722a3daafe3b4186f6b6457e060405160405180910390a35050565b611b358484846117fc565b611b4184848484611e04565b611b80576040517f08c379a0000000000000000000000000000000000000000000000000000000008152600401611b7790613caa565b60405180910390fd5b50505050565b6060611b918261157d565b611bd0576040517f08c379a0000000000000000000000000000000000000000000000000000000008152600401611bc790613d3c565b60405180910390fd5b6000600760008481526020019081526020016000208054611bf090613076565b80601f0160208091040260200160405190810160405280929190818152602001828054611c1c90613076565b8015611c695780601f10611c3e57610100808354040283529160200191611c69565b820191906000526020600020905b815481529060010190602001808311611c4c57829003601f168201915b505050505090506000611c7a611f9b565b9050600081511415611c90578192505050611cd3565b600082511115611cc5578082604051602001611cad929190613d98565b60405160208183030381529060405292505050611cd3565b611cce84611fb2565b925050505b919050565b6001816000016000828254019250508190555050565b600081600001549050919050565b611d16828260405180602001604052806000815250612059565b5050565b611d22610b72565b15611d62576040517f08c379a0000000000000000000000000000000000000000000000000000000008152600401611d5990613e08565b60405180910390fd5b600073ffffffffffffffffffffffffffffffffffffffff168373ffffffffffffffffffffffffffffffffffffffff161415611da157611da0336120b4565b5b611dac8383836121fd565b505050565b611dba81612255565b6000600760008381526020019081526020016000208054611dda90613076565b905014611e0157600760008281526020019081526020016000206000611e009190612733565b5b50565b6000611e258473ffffffffffffffffffffffffffffffffffffffff16612366565b15611f8e578373ffffffffffffffffffffffffffffffffffffffff1663150b7a02611e4e6115e9565b8786866040518563ffffffff1660e01b8152600401611e709493929190613e7d565b602060405180830381600087803b158015611e8a57600080fd5b505af1925050508015611ebb57506040513d601f19601f82011682018060405250810190611eb89190613ede565b60015b611f3e573d8060008114611eeb576040519150601f19603f3d011682016040523d82523d6000602084013e611ef0565b606091505b50600081511415611f36576040517f08c379a0000000000000000000000000000000000000000000000000000000008152600401611f2d90613caa565b60405180910390fd5b805181602001fd5b63150b7a0260e01b7bffffffffffffffffffffffffffffffffffffffffffffffffffffffff1916817bffffffffffffffffffffffffffffffffffffffffffffffffffffffff191614915050611f93565b600190505b949350505050565b606060405180602001604052806000815250905090565b6060611fbd8261157d565b611ffc576040517f08c379a0000000000000000000000000000000000000000000000000000000008152600401611ff390613f7d565b60405180910390fd5b6000612006611f9b565b905060008151116120265760405180602001604052806000815250612051565b8061203084612379565b604051602001612041929190613d98565b6040516020818303038152906040525b915050919050565b61206383836124da565b6120706000848484611e04565b6120af576040517f08c379a00000000000000000000000000000000000000000000000000000000081526004016120a690613caa565b60405180910390fd5b505050565b600a60009054906101000a900473ffffffffffffffffffffffffffffffffffffffff1673ffffffffffffffffffffffffffffffffffffffff166323b872dd8230600d546040518463ffffffff1660e01b815260040161211593929190613f9d565b602060405180830381600087803b15801561212f57600080fd5b505af1158015612143573d6000803e3d6000fd5b505050506040513d601f19601f8201168201806040525081019061216791906137a0565b6121a6576040517f08c379a000000000000000000000000000000000000000000000000000000000815260040161219d90614046565b60405180910390fd5b8073ffffffffffffffffffffffffffffffffffffffff167fff781da90c6b849a72bafc99aedde3dff0b039f697f31c21e96d587accee2760600d54600c546040516121f2929190614066565b60405180910390a250565b6122088383836126a8565b612210610b72565b15612250576040517f08c379a000000000000000000000000000000000000000000000000000000000815260040161224790614101565b60405180910390fd5b505050565b600061226082610b89565b905061226e81600084611d1a565b6122796000836115f1565b6001600360008373ffffffffffffffffffffffffffffffffffffffff1673ffffffffffffffffffffffffffffffffffffffff16815260200190815260200160002060008282546122c99190613bae565b925050819055506002600083815260200190815260200160002060006101000a81549073ffffffffffffffffffffffffffffffffffffffff021916905581600073ffffffffffffffffffffffffffffffffffffffff168273ffffffffffffffffffffffffffffffffffffffff167fddf252ad1be2c89b69c2b068fc378daa952ba7f163c4a11628f55a4df523b3ef60405160405180910390a45050565b600080823b905060008111915050919050565b606060008214156123c1576040518060400160405280600181526020017f300000000000000000000000000000000000000000000000000000000000000081525090506124d5565b600082905060005b600082146123f35780806123dc90614121565b915050600a826123ec9190614199565b91506123c9565b60008167ffffffffffffffff81111561240f5761240e612ce2565b5b6040519080825280601f01601f1916602001820160405280156124415781602001600182028036833780820191505090505b5090505b600085146124ce5760018261245a9190613bae565b9150600a8561246991906141ca565b60306124759190613be2565b60f81b81838151811061248b5761248a6141fb565b5b60200101907effffffffffffffffffffffffffffffffffffffffffffffffffffffffffffff1916908160001a905350600a856124c79190614199565b9450612445565b8093505050505b919050565b600073ffffffffffffffffffffffffffffffffffffffff168273ffffffffffffffffffffffffffffffffffffffff16141561254a576040517f08c379a000000000000000000000000000000000000000000000000000000000815260040161254190614276565b60405180910390fd5b6125538161157d565b15612593576040517f08c379a000000000000000000000000000000000000000000000000000000000815260040161258a906142e2565b60405180910390fd5b61259f60008383611d1a565b6001600360008473ffffffffffffffffffffffffffffffffffffffff1673ffffffffffffffffffffffffffffffffffffffff16815260200190815260200160002060008282546125ef9190613be2565b92505081905550816002600083815260200190815260200160002060006101000a81548173ffffffffffffffffffffffffffffffffffffffff021916908373ffffffffffffffffffffffffffffffffffffffff160217905550808273ffffffffffffffffffffffffffffffffffffffff16600073ffffffffffffffffffffffffffffffffffffffff167fddf252ad1be2c89b69c2b068fc378daa952ba7f163c4a11628f55a4df523b3ef60405160405180910390a45050565b505050565b8280546126b990613076565b90600052602060002090601f0160209004810192826126db5760008555612722565b82601f106126f457805160ff1916838001178555612722565b82800160010185558215612722579182015b82811115612721578251825591602001919060010190612706565b5b50905061272f9190612773565b5090565b50805461273f90613076565b6000825580601f106127515750612770565b601f01602090049060005260206000209081019061276f9190612773565b5b50565b5b8082111561278c576000816000905550600101612774565b5090565b6000604051905090565b600080fd5b600080fd5b60007fffffffff0000000000000000000000000000000000000000000000000000000082169050919050565b6127d9816127a4565b81146127e457600080fd5b50565b6000813590506127f6816127d0565b92915050565b6000602082840312156128125761281161279a565b5b6000612820848285016127e7565b91505092915050565b60008115159050919050565b61283e81612829565b82525050565b60006020820190506128596000830184612835565b92915050565b600081519050919050565b600082825260208201905092915050565b60005b8381101561289957808201518184015260208101905061287e565b838111156128a8576000848401525b50505050565b6000601f19601f8301169050919050565b60006128ca8261285f565b6128d4818561286a565b93506128e481856020860161287b565b6128ed816128ae565b840191505092915050565b6000602082019050818103600083015261291281846128bf565b905092915050565b6000819050919050565b61292d8161291a565b811461293857600080fd5b50565b60008135905061294a81612924565b92915050565b6000602082840312156129665761296561279a565b5b60006129748482850161293b565b91505092915050565b600073ffffffffffffffffffffffffffffffffffffffff82169050919050565b60006129a88261297d565b9050919050565b6129b88161299d565b82525050565b60006020820190506129d360008301846129af565b92915050565b6129e28161299d565b81146129ed57600080fd5b50565b6000813590506129ff816129d9565b92915050565b60008060408385031215612a1c57612a1b61279a565b5b6000612a2a858286016129f0565b9250506020612a3b8582860161293b565b9150509250929050565b600080fd5b600080fd5b600080fd5b60008083601f840112612a6a57612a69612a45565b5b8235905067ffffffffffffffff811115612a8757612a86612a4a565b5b602083019150836001820283011115612aa357612aa2612a4f565b5b9250929050565b600080600080600060808688031215612ac657612ac561279a565b5b6000612ad4888289016129f0565b9550506020612ae5888289016129f0565b9450506040612af68882890161293b565b935050606086013567ffffffffffffffff811115612b1757612b1661279f565b5b612b2388828901612a54565b92509250509295509295909350565b612b3b816127a4565b82525050565b6000602082019050612b566000830184612b32565b92915050565b600080600060608486031215612b7557612b7461279a565b5b6000612b83868287016129f0565b9350506020612b94868287016129f0565b9250506040612ba58682870161293b565b9150509250925092565b600060208284031215612bc557612bc461279a565b5b6000612bd3848285016129f0565b91505092915050565b612be58161291a565b82525050565b6000602082019050612c006000830184612bdc565b92915050565b6000612c118261297d565b9050919050565b612c2181612c06565b8114612c2c57600080fd5b50565b600081359050612c3e81612c18565b92915050565b600060208284031215612c5a57612c5961279a565b5b6000612c6884828501612c2f565b91505092915050565b612c7a81612829565b8114612c8557600080fd5b50565b600081359050612c9781612c71565b92915050565b60008060408385031215612cb457612cb361279a565b5b6000612cc2858286016129f0565b9250506020612cd385828601612c88565b9150509250929050565b600080fd5b7f4e487b7100000000000000000000000000000000000000000000000000000000600052604160045260246000fd5b612d1a826128ae565b810181811067ffffffffffffffff82111715612d3957612d38612ce2565b5b80604052505050565b6000612d4c612790565b9050612d588282612d11565b919050565b600067ffffffffffffffff821115612d7857612d77612ce2565b5b612d81826128ae565b9050602081019050919050565b82818337600083830152505050565b6000612db0612dab84612d5d565b612d42565b905082815260208101848484011115612dcc57612dcb612cdd565b5b612dd7848285612d8e565b509392505050565b600082601f830112612df457612df3612a45565b5b8135612e04848260208601612d9d565b91505092915050565b60008060008060808587031215612e2757612e2661279a565b5b6000612e35878288016129f0565b9450506020612e46878288016129f0565b9350506040612e578782880161293b565b925050606085013567ffffffffffffffff811115612e7857612e7761279f565b5b612e8487828801612ddf565b91505092959194509250565b600067ffffffffffffffff821115612eab57612eaa612ce2565b5b612eb4826128ae565b9050602081019050919050565b6000612ed4612ecf84612e90565b612d42565b905082815260208101848484011115612ef057612eef612cdd565b5b612efb848285612d8e565b509392505050565b600082601f830112612f1857612f17612a45565b5b8135612f28848260208601612ec1565b91505092915050565b60008060408385031215612f4857612f4761279a565b5b6000612f56858286016129f0565b925050602083013567ffffffffffffffff811115612f7757612f7661279f565b5b612f8385828601612f03565b9150509250929050565b60008060408385031215612fa457612fa361279a565b5b6000612fb2858286016129f0565b9250506020612fc3858286016129f0565b9150509250929050565b6000819050919050565b6000612ff2612fed612fe88461297d565b612fcd565b61297d565b9050919050565b600061300482612fd7565b9050919050565b600061301682612ff9565b9050919050565b6130268161300b565b82525050565b6000602082019050613041600083018461301d565b92915050565b7f4e487b7100000000000000000000000000000000000000000000000000000000600052602260045260246000fd5b6000600282049050600182168061308e57607f821691505b602082108114156130a2576130a1613047565b5b50919050565b7f4552433732313a20617070726f76656420717565727920666f72206e6f6e657860008201527f697374656e7420746f6b656e0000000000000000000000000000000000000000602082015250565b6000613104602c8361286a565b915061310f826130a8565b604082019050919050565b60006020820190508181036000830152613133816130f7565b9050919050565b7f4552433732313a20617070726f76616c20746f2063757272656e74206f776e6560008201527f7200000000000000000000000000000000000000000000000000000000000000602082015250565b600061319660218361286a565b91506131a18261313a565b604082019050919050565b600060208201905081810360008301526131c581613189565b9050919050565b7f4552433732313a20617070726f76652063616c6c6572206973206e6f74206f7760008201527f6e6572206e6f7220617070726f76656420666f7220616c6c0000000000000000602082015250565b600061322860388361286a565b9150613233826131cc565b604082019050919050565b600060208201905081810360008301526132578161321b565b9050919050565b7f496e76616c696420766572696669657200000000000000000000000000000000600082015250565b600061329460108361286a565b915061329f8261325e565b602082019050919050565b600060208201905081810360008301526132c381613287565b9050919050565b7f496e76616c696420746f6b656e206964206f776e657200000000000000000000600082015250565b600061330060168361286a565b915061330b826132ca565b602082019050919050565b6000602082019050818103600083015261332f816132f3565b9050919050565b60008060008060008060c087890312156133535761335261279a565b5b600087013567ffffffffffffffff8111156133715761337061279f565b5b61337d89828a01612f03565b965050602061338e89828a01612c2f565b955050604061339f89828a01612c2f565b94505060606133b089828a01612c2f565b93505060806133c189828a0161293b565b92505060a06133d289828a01612c88565b9150509295509295509295565b7f456d707479206d65746164617461000000000000000000000000000000000000600082015250565b6000613415600e8361286a565b9150613420826133df565b602082019050919050565b6000602082019050818103600083015261344481613408565b9050919050565b7f4552433732313a207472616e736665722063616c6c6572206973206e6f74206f60008201527f776e6572206e6f7220617070726f766564000000000000000000000000000000602082015250565b60006134a760318361286a565b91506134b28261344b565b604082019050919050565b600060208201905081810360008301526134d68161349a565b9050919050565b7f4f776e61626c653a2063616c6c6572206973206e6f7420746865206f776e6572600082015250565b600061351360208361286a565b915061351e826134dd565b602082019050919050565b6000602082019050818103600083015261354281613506565b9050919050565b7f4552433732314275726e61626c653a2063616c6c6572206973206e6f74206f7760008201527f6e6572206e6f7220617070726f76656400000000000000000000000000000000602082015250565b60006135a560308361286a565b91506135b082613549565b604082019050919050565b600060208201905081810360008301526135d481613598565b9050919050565b7f4552433732313a206f776e657220717565727920666f72206e6f6e657869737460008201527f656e7420746f6b656e0000000000000000000000000000000000000000000000602082015250565b600061363760298361286a565b9150613642826135db565b604082019050919050565b600060208201905081810360008301526136668161362a565b9050919050565b7f4552433732313a2062616c616e636520717565727920666f7220746865207a6560008201527f726f206164647265737300000000000000000000000000000000000000000000602082015250565b60006136c9602a8361286a565b91506136d48261366d565b604082019050919050565b600060208201905081810360008301526136f8816136bc565b9050919050565b60008151905061370e81612924565b92915050565b60006020828403121561372a5761372961279a565b5b6000613738848285016136ff565b91505092915050565b600061374c82612ff9565b9050919050565b61375c81613741565b82525050565b60006040820190506137776000830185613753565b6137846020830184612bdc565b9392505050565b60008151905061379a81612c71565b92915050565b6000602082840312156137b6576137b561279a565b5b60006137c48482850161378b565b91505092915050565b7f5844563a205472616e73666572206661696c6564000000000000000000000000600082015250565b600061380360148361286a565b915061380e826137cd565b602082019050919050565b60006020820190508181036000830152613832816137f6565b9050919050565b7f4552433732313a20617070726f766520746f2063616c6c657200000000000000600082015250565b600061386f60198361286a565b915061387a82613839565b602082019050919050565b6000602082019050818103600083015261389e81613862565b9050919050565b7f4f776e61626c653a206e6577206f776e657220697320746865207a65726f206160008201527f6464726573730000000000000000000000000000000000000000000000000000602082015250565b600061390160268361286a565b915061390c826138a5565b604082019050919050565b60006020820190508181036000830152613930816138f4565b9050919050565b7f45524337323155524953746f726167653a2055524920736574206f66206e6f6e60008201527f6578697374656e7420746f6b656e000000000000000000000000000000000000602082015250565b6000613993602e8361286a565b915061399e82613937565b604082019050919050565b600060208201905081810360008301526139c281613986565b9050919050565b7f4552433732313a206f70657261746f7220717565727920666f72206e6f6e657860008201527f697374656e7420746f6b656e0000000000000000000000000000000000000000602082015250565b6000613a25602c8361286a565b9150613a30826139c9565b604082019050919050565b60006020820190508181036000830152613a5481613a18565b9050919050565b7f4552433732313a207472616e73666572206f6620746f6b656e2074686174206960008201527f73206e6f74206f776e0000000000000000000000000000000000000000000000602082015250565b6000613ab760298361286a565b9150613ac282613a5b565b604082019050919050565b60006020820190508181036000830152613ae681613aaa565b9050919050565b7f4552433732313a207472616e7366657220746f20746865207a65726f2061646460008201527f7265737300000000000000000000000000000000000000000000000000000000602082015250565b6000613b4960248361286a565b9150613b5482613aed565b604082019050919050565b60006020820190508181036000830152613b7881613b3c565b9050919050565b7f4e487b7100000000000000000000000000000000000000000000000000000000600052601160045260246000fd5b6000613bb98261291a565b9150613bc48361291a565b925082821015613bd757613bd6613b7f565b5b828203905092915050565b6000613bed8261291a565b9150613bf88361291a565b9250827fffffffffffffffffffffffffffffffffffffffffffffffffffffffffffffffff03821115613c2d57613c2c613b7f565b5b828201905092915050565b7f4552433732313a207472616e7366657220746f206e6f6e20455243373231526560008201527f63656976657220696d706c656d656e7465720000000000000000000000000000602082015250565b6000613c9460328361286a565b9150613c9f82613c38565b604082019050919050565b60006020820190508181036000830152613cc381613c87565b9050919050565b7f45524337323155524953746f726167653a2055524920717565727920666f722060008201527f6e6f6e6578697374656e7420746f6b656e000000000000000000000000000000602082015250565b6000613d2660318361286a565b9150613d3182613cca565b604082019050919050565b60006020820190508181036000830152613d5581613d19565b9050919050565b600081905092915050565b6000613d728261285f565b613d7c8185613d5c565b9350613d8c81856020860161287b565b80840191505092915050565b6000613da48285613d67565b9150613db08284613d67565b91508190509392505050565b7f5844563a20546f6b656e20657865637574696f6e206973207061757365640000600082015250565b6000613df2601e8361286a565b9150613dfd82613dbc565b602082019050919050565b60006020820190508181036000830152613e2181613de5565b9050919050565b600081519050919050565b600082825260208201905092915050565b6000613e4f82613e28565b613e598185613e33565b9350613e6981856020860161287b565b613e72816128ae565b840191505092915050565b6000608082019050613e9260008301876129af565b613e9f60208301866129af565b613eac6040830185612bdc565b8181036060830152613ebe8184613e44565b905095945050505050565b600081519050613ed8816127d0565b92915050565b600060208284031215613ef457613ef361279a565b5b6000613f0284828501613ec9565b91505092915050565b7f4552433732314d657461646174613a2055524920717565727920666f72206e6f60008201527f6e6578697374656e7420746f6b656e0000000000000000000000000000000000602082015250565b6000613f67602f8361286a565b9150613f7282613f0b565b604082019050919050565b60006020820190508181036000830152613f9681613f5a565b9050919050565b6000606082019050613fb260008301866129af565b613fbf60208301856129af565b613fcc6040830184612bdc565b949350505050565b7f5844563a205472616e73666572206661696c656420666f72207265636970696560008201527f6e74000000000000000000000000000000000000000000000000000000000000602082015250565b600061403060228361286a565b915061403b82613fd4565b604082019050919050565b6000602082019050818103600083015261405f81614023565b9050919050565b600060408201905061407b6000830185612bdc565b6140886020830184612bdc565b9392505050565b7f4552433732315061757361626c653a20746f6b656e207472616e73666572207760008201527f68696c6520706175736564000000000000000000000000000000000000000000602082015250565b60006140eb602b8361286a565b91506140f68261408f565b604082019050919050565b6000602082019050818103600083015261411a816140de565b9050919050565b600061412c8261291a565b91507fffffffffffffffffffffffffffffffffffffffffffffffffffffffffffffffff82141561415f5761415e613b7f565b5b600182019050919050565b7f4e487b7100000000000000000000000000000000000000000000000000000000600052601260045260246000fd5b60006141a48261291a565b91506141af8361291a565b9250826141bf576141be61416a565b5b828204905092915050565b60006141d58261291a565b91506141e08361291a565b9250826141f0576141ef61416a565b5b828206905092915050565b7f4e487b7100000000000000000000000000000000000000000000000000000000600052603260045260246000fd5b7f4552433732313a206d696e7420746f20746865207a65726f2061646472657373600082015250565b600061426060208361286a565b915061426b8261422a565b602082019050919050565b6000602082019050818103600083015261428f81614253565b9050919050565b7f4552433732313a20746f6b656e20616c7265616479206d696e74656400000000600082015250565b60006142cc601c8361286a565b91506142d782614296565b602082019050919050565b600060208201905081810360008301526142fb816142bf565b905091905056fea264697066735822122098122c9704de66b0671c4d10846c02b01cc7af9cf87942a07dd9ce2bb313b31b64736f6c63430008090033",
  "immutableReferences": {},
  "source": "// SPDX-License-Identifier: MIT\npragma solidity ^0.8.7;\n\nimport \"@openzeppelin/contracts/access/Ownable.sol\";\nimport \"@openzeppelin/contracts/token/ERC20/IERC20.sol\";\nimport \"@openzeppelin/contracts/token/ERC721/IERC721Receiver.sol\";\nimport \"@openzeppelin/contracts/token/ERC721/ERC721.sol\";\nimport \"@openzeppelin/contracts/token/ERC721/extensions/ERC721Burnable.sol\";\nimport \"@openzeppelin/contracts/token/ERC721/extensions/ERC721Pausable.sol\";\nimport \"@openzeppelin/contracts/token/ERC721/extensions/ERC721URIStorage.sol\";\nimport \"@openzeppelin/contracts/utils/Counters.sol\";\nimport \"./ICredentialRegistry.sol\";\n\n//  a NFT secure document\ncontract XDVNFT is\n    ERC721Burnable,\n    ERC721Pausable,\n    ERC721URIStorage,\n    Ownable,\n    IERC721Receiver\n{\n    using Counters for Counters.Counter;\n    Counters.Counter private _tokenIds;\n    IERC20 public stablecoin;\n    address public verifierAddress;\n    uint256 public serviceFeeForPaymentAddress = 0;\n    uint256 public serviceFeeForContract = 0;\n\n    event Withdrawn(address indexed paymentAddress, uint256 amount);\n\n    event ServiceFeePaid(\n        address indexed from,\n        uint256 paidToContract,\n        uint256 paidToPaymentAddress\n    );\n\n    /**\n     * XDVNFT Data Token\n     */\n    constructor(\n        string memory name,\n        string memory symbol,\n        address tokenERC20,\n        address verifierAddr\n    ) ERC721(name, symbol) {\n        stablecoin = IERC20(tokenERC20);\n        verifierAddress = verifierAddr;\n    }\n\n    function setServiceFeeForPaymentAddress(uint256 _fee) public onlyOwner {\n        serviceFeeForPaymentAddress = _fee;\n    }\n\n    function setServiceFeeForContract(uint256 _fee) public onlyOwner {\n        serviceFeeForContract = _fee;\n    }\n\n    /**\n     * @dev Mints a XDV Data Token\n     */\n    function mint(address user, string memory uri) public returns (uint256) {\n        _tokenIds.increment();\n\n        uint256 newItemId = _tokenIds.current();\n        _safeMint(user, newItemId);\n        _setTokenURI(newItemId, uri);\n\n        return newItemId;\n    }\n\n    /**\n     * @dev Whenever an {IERC721} `tokenId` token is transferred to this contract via {IERC721-safeTransferFrom}\n     * by `operator` from `from`, this function is called.\n     *\n     * It must return its Solidity selector to confirm the token transfer.\n     * If any other value is returned or the interface is not implemented by the recipient, the transfer will be reverted.\n     *\n     * The selector can be obtained in Solidity with `IERC721.onERC721Received.selector`.\n     */\n    function onERC721Received(\n        address operator,\n        address from,\n        uint256 tokenId,\n        bytes calldata data\n    ) external returns (bytes4) {\n        // Verify operator\n        require(operator == verifierAddress, \"Invalid verifier\");\n\n        // Verify owner owns token id\n        address owned = ownerOf(tokenId);\n        require(owned == from, \"Invalid token id owner\");\n        (\n            string memory _metadata,\n            address _to,\n            address _fromOwner,\n            address _newOwner,\n            uint256 _tokenId,\n            bool _isNew\n        ) = abi.decode(\n                data,\n                (string, address, address, address, uint256, bool)\n            );\n        require(bytes(_metadata).length == 0, \"Empty metadata\");\n\n        // set metadata URI\n        _setTokenURI(_tokenId, _metadata);\n        return this.onERC721Received.selector;\n    }\n\n    /**\n     * @dev Just overrides the superclass' function. Fixes inheritance\n     * source: https://forum.openzeppelin.com/t/how-do-inherit-from-erc721-erc721enumerable-and-erc721uristorage-in-v4-of-openzeppelin-contracts/6656/4\n     */\n    function _burn(uint256 tokenId)\n        internal\n        override(ERC721, ERC721URIStorage)\n    {\n        super._burn(tokenId);\n    }\n\n    /**\n     * @dev Just overrides the superclass' function. Fixes inheritance\n     * source: https://forum.openzeppelin.com/t/how-do-inherit-from-erc721-erc721enumerable-and-erc721uristorage-in-v4-of-openzeppelin-contracts/6656/4\n     */\n    function tokenURI(uint256 tokenId)\n        public\n        view\n        override(ERC721, ERC721URIStorage)\n        returns (string memory)\n    {\n        return super.tokenURI(tokenId);\n    }\n\n    function _beforeTokenTransfer(\n        address from,\n        address to,\n        uint256 tokenId\n    ) internal virtual override(ERC721, ERC721Pausable) {\n        require(!paused(), \"XDV: Token execution is paused\");\n\n        if (from == address(0)) {\n            paymentBeforeMint(msg.sender);\n        }\n\n        super._beforeTokenTransfer(from, to, tokenId);\n    }\n\n    /**\n     * @dev tries to execute the payment when the token is minted.\n     * Reverts if the payment procedure could not be completed.\n     */\n    function paymentBeforeMint(address tokenHolder) internal virtual {\n        // Transfer tokens to pay service fee\n        require(\n            stablecoin.transferFrom(\n                tokenHolder,\n                address(this),\n                serviceFeeForContract\n            ),\n            \"XDV: Transfer failed for recipient\"\n        );\n\n        emit ServiceFeePaid(\n            tokenHolder,\n            serviceFeeForContract,\n            serviceFeeForPaymentAddress\n        );\n    }\n\n    function withdrawBalance(address payable payee) public onlyOwner {\n        uint256 balance = stablecoin.balanceOf(address(this));\n\n        require(stablecoin.transfer(payee, balance), \"XDV: Transfer failed\");\n\n        emit Withdrawn(payee, balance);\n    }\n}\n",
  "sourcePath": "/mnt/e/Code/ancon-protocol/ethereum/contracts/XDVNFT.sol",
  "compiler": {
    "name": "solc",
    "version": "0.8.9+commit.e5eed63a.Emscripten.clang"
  },
  "schemaVersion": "3.4.2",
  "updatedAt": "2021-10-18T22:41:58.582Z",
  "devdoc": {
    "kind": "dev",
    "methods": {
      "approve(address,uint256)": {
        "details": "See {IERC721-approve}."
      },
      "balanceOf(address)": {
        "details": "See {IERC721-balanceOf}."
      },
      "burn(uint256)": {
        "details": "Burns `tokenId`. See {ERC721-_burn}. Requirements: - The caller must own `tokenId` or be an approved operator."
      },
      "getApproved(uint256)": {
        "details": "See {IERC721-getApproved}."
      },
      "isApprovedForAll(address,address)": {
        "details": "See {IERC721-isApprovedForAll}."
      },
      "mint(address,string)": {
        "details": "Mints a XDV Data Token"
      },
      "name()": {
        "details": "See {IERC721Metadata-name}."
      },
      "onERC721Received(address,address,uint256,bytes)": {
        "details": "Whenever an {IERC721} `tokenId` token is transferred to this contract via {IERC721-safeTransferFrom} by `operator` from `from`, this function is called. It must return its Solidity selector to confirm the token transfer. If any other value is returned or the interface is not implemented by the recipient, the transfer will be reverted. The selector can be obtained in Solidity with `IERC721.onERC721Received.selector`."
      },
      "owner()": {
        "details": "Returns the address of the current owner."
      },
      "ownerOf(uint256)": {
        "details": "See {IERC721-ownerOf}."
      },
      "paused()": {
        "details": "Returns true if the contract is paused, and false otherwise."
      },
      "renounceOwnership()": {
        "details": "Leaves the contract without owner. It will not be possible to call `onlyOwner` functions anymore. Can only be called by the current owner. NOTE: Renouncing ownership will leave the contract without an owner, thereby removing any functionality that is only available to the owner."
      },
      "safeTransferFrom(address,address,uint256)": {
        "details": "See {IERC721-safeTransferFrom}."
      },
      "safeTransferFrom(address,address,uint256,bytes)": {
        "details": "See {IERC721-safeTransferFrom}."
      },
      "setApprovalForAll(address,bool)": {
        "details": "See {IERC721-setApprovalForAll}."
      },
      "supportsInterface(bytes4)": {
        "details": "See {IERC165-supportsInterface}."
      },
      "symbol()": {
        "details": "See {IERC721Metadata-symbol}."
      },
      "tokenURI(uint256)": {
        "details": "Just overrides the superclass' function. Fixes inheritance source: https://forum.openzeppelin.com/t/how-do-inherit-from-erc721-erc721enumerable-and-erc721uristorage-in-v4-of-openzeppelin-contracts/6656/4"
      },
      "transferFrom(address,address,uint256)": {
        "details": "See {IERC721-transferFrom}."
      },
      "transferOwnership(address)": {
        "details": "Transfers ownership of the contract to a new account (`newOwner`). Can only be called by the current owner."
      }
    },
    "version": 1
  },
  "userdoc": {
    "kind": "user",
    "methods": {
      "constructor": {
        "notice": "XDVNFT Data Token"
      }
    },
    "version": 1
  }
}