{
  "contractName": "XDVNFT",
  "abi": [
    {
      "inputs": [
        {
          "internalType": "string",
          "name": "name",
          "type": "string"
        },
        {
          "internalType": "string",
          "name": "symbol",
          "type": "string"
        },
        {
          "internalType": "address",
          "name": "tokenERC20",
          "type": "address"
        },
        {
          "internalType": "address",
          "name": "credentialAddr",
          "type": "address"
        }
      ],
      "stateMutability": "nonpayable",
      "type": "constructor"
    },
    {
      "anonymous": false,
      "inputs": [
        {
          "indexed": true,
          "internalType": "address",
          "name": "owner",
          "type": "address"
        },
        {
          "indexed": true,
          "internalType": "address",
          "name": "approved",
          "type": "address"
        },
        {
          "indexed": true,
          "internalType": "uint256",
          "name": "tokenId",
          "type": "uint256"
        }
      ],
      "name": "Approval",
      "type": "event"
    },
    {
      "anonymous": false,
      "inputs": [
        {
          "indexed": true,
          "internalType": "address",
          "name": "owner",
          "type": "address"
        },
        {
          "indexed": true,
          "internalType": "address",
          "name": "operator",
          "type": "address"
        },
        {
          "indexed": false,
          "internalType": "bool",
          "name": "approved",
          "type": "bool"
        }
      ],
      "name": "ApprovalForAll",
      "type": "event"
    },
    {
      "anonymous": false,
      "inputs": [
        {
          "indexed": true,
          "internalType": "address",
          "name": "previousOwner",
          "type": "address"
        },
        {
          "indexed": true,
          "internalType": "address",
          "name": "newOwner",
          "type": "address"
        }
      ],
      "name": "OwnershipTransferred",
      "type": "event"
    },
    {
      "anonymous": false,
      "inputs": [
        {
          "indexed": false,
          "internalType": "address",
          "name": "account",
          "type": "address"
        }
      ],
      "name": "Paused",
      "type": "event"
    },
    {
      "anonymous": false,
      "inputs": [
        {
          "indexed": true,
          "internalType": "address",
          "name": "from",
          "type": "address"
        },
        {
          "indexed": false,
          "internalType": "uint256",
          "name": "paidToContract",
          "type": "uint256"
        },
        {
          "indexed": false,
          "internalType": "uint256",
          "name": "paidToPaymentAddress",
          "type": "uint256"
        }
      ],
      "name": "ServiceFeePaid",
      "type": "event"
    },
    {
      "anonymous": false,
      "inputs": [
        {
          "indexed": true,
          "internalType": "address",
          "name": "from",
          "type": "address"
        },
        {
          "indexed": true,
          "internalType": "address",
          "name": "to",
          "type": "address"
        },
        {
          "indexed": true,
          "internalType": "uint256",
          "name": "tokenId",
          "type": "uint256"
        }
      ],
      "name": "Transfer",
      "type": "event"
    },
    {
      "anonymous": false,
      "inputs": [
        {
          "indexed": false,
          "internalType": "address",
          "name": "account",
          "type": "address"
        }
      ],
      "name": "Unpaused",
      "type": "event"
    },
    {
      "anonymous": false,
      "inputs": [
        {
          "indexed": true,
          "internalType": "address",
          "name": "paymentAddress",
          "type": "address"
        },
        {
          "indexed": false,
          "internalType": "uint256",
          "name": "amount",
          "type": "uint256"
        }
      ],
      "name": "Withdrawn",
      "type": "event"
    },
    {
      "anonymous": false,
      "inputs": [
        {
          "indexed": false,
          "internalType": "address",
          "name": "owner",
          "type": "address"
        },
        {
          "indexed": false,
          "internalType": "string",
          "name": "did",
          "type": "string"
        },
        {
          "indexed": false,
          "internalType": "string",
          "name": "name",
          "type": "string"
        },
        {
          "indexed": false,
          "internalType": "string",
          "name": "description",
          "type": "string"
        },
        {
          "indexed": false,
          "internalType": "string",
          "name": "image",
          "type": "string"
        },
        {
          "indexed": false,
          "internalType": "string",
          "name": "parent",
          "type": "string"
        },
        {
          "indexed": false,
          "internalType": "string",
          "name": "sources",
          "type": "string"
        },
        {
          "indexed": false,
          "internalType": "string",
          "name": "links",
          "type": "string"
        }
      ],
      "name": "_anconCreateMetadata",
      "type": "event"
    },
    {
      "inputs": [
        {
          "internalType": "address",
          "name": "to",
          "type": "address"
        },
        {
          "internalType": "uint256",
          "name": "tokenId",
          "type": "uint256"
        }
      ],
      "name": "approve",
      "outputs": [],
      "stateMutability": "nonpayable",
      "type": "function"
    },
    {
      "inputs": [
        {
          "internalType": "address",
          "name": "owner",
          "type": "address"
        }
      ],
      "name": "balanceOf",
      "outputs": [
        {
          "internalType": "uint256",
          "name": "",
          "type": "uint256"
        }
      ],
      "stateMutability": "view",
      "type": "function"
    },
    {
      "inputs": [
        {
          "internalType": "uint256",
          "name": "tokenId",
          "type": "uint256"
        }
      ],
      "name": "burn",
      "outputs": [],
      "stateMutability": "nonpayable",
      "type": "function"
    },
    {
      "inputs": [],
      "name": "credentialRegistry",
      "outputs": [
        {
          "internalType": "contract ICredentialRegistry",
          "name": "",
          "type": "address"
        }
      ],
      "stateMutability": "view",
      "type": "function"
    },
    {
      "inputs": [
        {
          "internalType": "uint256",
          "name": "tokenId",
          "type": "uint256"
        }
      ],
      "name": "getApproved",
      "outputs": [
        {
          "internalType": "address",
          "name": "",
          "type": "address"
        }
      ],
      "stateMutability": "view",
      "type": "function"
    },
    {
      "inputs": [
        {
          "internalType": "address",
          "name": "owner",
          "type": "address"
        },
        {
          "internalType": "address",
          "name": "operator",
          "type": "address"
        }
      ],
      "name": "isApprovedForAll",
      "outputs": [
        {
          "internalType": "bool",
          "name": "",
          "type": "bool"
        }
      ],
      "stateMutability": "view",
      "type": "function"
    },
    {
      "inputs": [],
      "name": "name",
      "outputs": [
        {
          "internalType": "string",
          "name": "",
          "type": "string"
        }
      ],
      "stateMutability": "view",
      "type": "function"
    },
    {
      "inputs": [],
      "name": "owner",
      "outputs": [
        {
          "internalType": "address",
          "name": "",
          "type": "address"
        }
      ],
      "stateMutability": "view",
      "type": "function"
    },
    {
      "inputs": [
        {
          "internalType": "uint256",
          "name": "tokenId",
          "type": "uint256"
        }
      ],
      "name": "ownerOf",
      "outputs": [
        {
          "internalType": "address",
          "name": "",
          "type": "address"
        }
      ],
      "stateMutability": "view",
      "type": "function"
    },
    {
      "inputs": [],
      "name": "paused",
      "outputs": [
        {
          "internalType": "bool",
          "name": "",
          "type": "bool"
        }
      ],
      "stateMutability": "view",
      "type": "function"
    },
    {
      "inputs": [],
      "name": "renounceOwnership",
      "outputs": [],
      "stateMutability": "nonpayable",
      "type": "function"
    },
    {
      "inputs": [
        {
          "internalType": "address",
          "name": "from",
          "type": "address"
        },
        {
          "internalType": "address",
          "name": "to",
          "type": "address"
        },
        {
          "internalType": "uint256",
          "name": "tokenId",
          "type": "uint256"
        }
      ],
      "name": "safeTransferFrom",
      "outputs": [],
      "stateMutability": "nonpayable",
      "type": "function"
    },
    {
      "inputs": [
        {
          "internalType": "address",
          "name": "from",
          "type": "address"
        },
        {
          "internalType": "address",
          "name": "to",
          "type": "address"
        },
        {
          "internalType": "uint256",
          "name": "tokenId",
          "type": "uint256"
        },
        {
          "internalType": "bytes",
          "name": "_data",
          "type": "bytes"
        }
      ],
      "name": "safeTransferFrom",
      "outputs": [],
      "stateMutability": "nonpayable",
      "type": "function"
    },
    {
      "inputs": [],
      "name": "serviceFeeForContract",
      "outputs": [
        {
          "internalType": "uint256",
          "name": "",
          "type": "uint256"
        }
      ],
      "stateMutability": "view",
      "type": "function"
    },
    {
      "inputs": [],
      "name": "serviceFeeForPaymentAddress",
      "outputs": [
        {
          "internalType": "uint256",
          "name": "",
          "type": "uint256"
        }
      ],
      "stateMutability": "view",
      "type": "function"
    },
    {
      "inputs": [
        {
          "internalType": "address",
          "name": "operator",
          "type": "address"
        },
        {
          "internalType": "bool",
          "name": "approved",
          "type": "bool"
        }
      ],
      "name": "setApprovalForAll",
      "outputs": [],
      "stateMutability": "nonpayable",
      "type": "function"
    },
    {
      "inputs": [],
      "name": "stablecoin",
      "outputs": [
        {
          "internalType": "contract IERC20",
          "name": "",
          "type": "address"
        }
      ],
      "stateMutability": "view",
      "type": "function"
    },
    {
      "inputs": [
        {
          "internalType": "bytes4",
          "name": "interfaceId",
          "type": "bytes4"
        }
      ],
      "name": "supportsInterface",
      "outputs": [
        {
          "internalType": "bool",
          "name": "",
          "type": "bool"
        }
      ],
      "stateMutability": "view",
      "type": "function"
    },
    {
      "inputs": [],
      "name": "symbol",
      "outputs": [
        {
          "internalType": "string",
          "name": "",
          "type": "string"
        }
      ],
      "stateMutability": "view",
      "type": "function"
    },
    {
      "inputs": [
        {
          "internalType": "address",
          "name": "from",
          "type": "address"
        },
        {
          "internalType": "address",
          "name": "to",
          "type": "address"
        },
        {
          "internalType": "uint256",
          "name": "tokenId",
          "type": "uint256"
        }
      ],
      "name": "transferFrom",
      "outputs": [],
      "stateMutability": "nonpayable",
      "type": "function"
    },
    {
      "inputs": [
        {
          "internalType": "address",
          "name": "newOwner",
          "type": "address"
        }
      ],
      "name": "transferOwnership",
      "outputs": [],
      "stateMutability": "nonpayable",
      "type": "function"
    },
    {
      "inputs": [
        {
          "internalType": "uint256",
          "name": "_fee",
          "type": "uint256"
        }
      ],
      "name": "setServiceFeeForPaymentAddress",
      "outputs": [],
      "stateMutability": "nonpayable",
      "type": "function"
    },
    {
      "inputs": [
        {
          "internalType": "uint256",
          "name": "_fee",
          "type": "uint256"
        }
      ],
      "name": "setServiceFeeForContract",
      "outputs": [],
      "stateMutability": "nonpayable",
      "type": "function"
    },
    {
      "inputs": [
        {
          "internalType": "address",
          "name": "user",
          "type": "address"
        },
        {
          "internalType": "string",
          "name": "uri",
          "type": "string"
        }
      ],
      "name": "mint",
      "outputs": [
        {
          "internalType": "uint256",
          "name": "",
          "type": "uint256"
        }
      ],
      "stateMutability": "nonpayable",
      "type": "function"
    },
    {
      "inputs": [
        {
          "internalType": "address",
          "name": "user",
          "type": "address"
        },
        {
          "internalType": "uint256",
          "name": "chainid",
          "type": "uint256"
        },
        {
          "internalType": "bytes32",
          "name": "credentialHash",
          "type": "bytes32"
        },
        {
          "internalType": "bytes",
          "name": "signature",
          "type": "bytes"
        },
        {
          "internalType": "string",
          "name": "did",
          "type": "string"
        },
        {
          "internalType": "string",
          "name": "name",
          "type": "string"
        },
        {
          "internalType": "string",
          "name": "description",
          "type": "string"
        },
        {
          "internalType": "string",
          "name": "image",
          "type": "string"
        },
        {
          "internalType": "string",
          "name": "parent",
          "type": "string"
        },
        {
          "internalType": "string",
          "name": "sources",
          "type": "string"
        },
        {
          "internalType": "string",
          "name": "links",
          "type": "string"
        }
      ],
      "name": "swap",
      "outputs": [
        {
          "internalType": "bool",
          "name": "",
          "type": "bool"
        }
      ],
      "stateMutability": "nonpayable",
      "type": "function"
    },
    {
      "inputs": [
        {
          "internalType": "uint256",
          "name": "tokenId",
          "type": "uint256"
        }
      ],
      "name": "tokenURI",
      "outputs": [
        {
          "internalType": "string",
          "name": "",
          "type": "string"
        }
      ],
      "stateMutability": "view",
      "type": "function"
    },
    {
      "inputs": [
        {
          "internalType": "address payable",
          "name": "payee",
          "type": "address"
        }
      ],
      "name": "withdrawBalance",
      "outputs": [],
      "stateMutability": "nonpayable",
      "type": "function"
    }
  ],
  "bytecode": "0x60806040526000600c556000600d553480156200001b57600080fd5b506040516200490f3803806200490f8339818101604052810190620000419190620004be565b838381600090805190602001906200005b9291906200020c565b508060019080519060200190620000749291906200020c565b5050506000600660006101000a81548160ff021916908315150217905550620000b2620000a66200013e60201b60201c565b6200014660201b60201c565b81600a60006101000a81548173ffffffffffffffffffffffffffffffffffffffff021916908373ffffffffffffffffffffffffffffffffffffffff16021790555080600b60006101000a81548173ffffffffffffffffffffffffffffffffffffffff021916908373ffffffffffffffffffffffffffffffffffffffff16021790555050505050620005d3565b600033905090565b6000600860009054906101000a900473ffffffffffffffffffffffffffffffffffffffff16905081600860006101000a81548173ffffffffffffffffffffffffffffffffffffffff021916908373ffffffffffffffffffffffffffffffffffffffff1602179055508173ffffffffffffffffffffffffffffffffffffffff168173ffffffffffffffffffffffffffffffffffffffff167f8be0079c531659141344cd1fd0a4f28419497f9722a3daafe3b4186f6b6457e060405160405180910390a35050565b8280546200021a906200059d565b90600052602060002090601f0160209004810192826200023e57600085556200028a565b82601f106200025957805160ff19168380011785556200028a565b828001600101855582156200028a579182015b82811115620002895782518255916020019190600101906200026c565b5b5090506200029991906200029d565b5090565b5b80821115620002b85760008160009055506001016200029e565b5090565b6000604051905090565b600080fd5b600080fd5b600080fd5b600080fd5b6000601f19601f8301169050919050565b7f4e487b7100000000000000000000000000000000000000000000000000000000600052604160045260246000fd5b6200032582620002da565b810181811067ffffffffffffffff82111715620003475762000346620002eb565b5b80604052505050565b60006200035c620002bc565b90506200036a82826200031a565b919050565b600067ffffffffffffffff8211156200038d576200038c620002eb565b5b6200039882620002da565b9050602081019050919050565b60005b83811015620003c5578082015181840152602081019050620003a8565b83811115620003d5576000848401525b50505050565b6000620003f2620003ec846200036f565b62000350565b905082815260208101848484011115620004115762000410620002d5565b5b6200041e848285620003a5565b509392505050565b600082601f8301126200043e576200043d620002d0565b5b815162000450848260208601620003db565b91505092915050565b600073ffffffffffffffffffffffffffffffffffffffff82169050919050565b6000620004868262000459565b9050919050565b620004988162000479565b8114620004a457600080fd5b50565b600081519050620004b8816200048d565b92915050565b60008060008060808587031215620004db57620004da620002c6565b5b600085015167ffffffffffffffff811115620004fc57620004fb620002cb565b5b6200050a8782880162000426565b945050602085015167ffffffffffffffff8111156200052e576200052d620002cb565b5b6200053c8782880162000426565b93505060406200054f87828801620004a7565b92505060606200056287828801620004a7565b91505092959194509250565b7f4e487b7100000000000000000000000000000000000000000000000000000000600052602260045260246000fd5b60006002820490506001821680620005b657607f821691505b60208210811415620005cd57620005cc6200056e565b5b50919050565b61432c80620005e36000396000f3fe608060405234801561001057600080fd5b50600436106101a95760003560e01c8063756af45f116100f9578063c014b9da11610097578063e53ae10211610071578063e53ae102146104b8578063e985e9c5146104d6578063e9cbd82214610506578063f2fde38b14610524576101a9565b8063c014b9da1461043a578063c87b56dd14610458578063d0def52114610488576101a9565b8063a22cb465116100d3578063a22cb465146103c8578063b86be2ca146103e4578063b88d4fde14610400578063b948c3d41461041c576101a9565b8063756af45f146103705780638da5cb5b1461038c57806395d89b41146103aa576101a9565b806342842e0e116101665780635c975abb116101405780635c975abb146102e85780636352211e1461030657806370a0823114610336578063715018a614610366576101a9565b806342842e0e1461028057806342966c681461029c57806344755831146102b8576101a9565b806301ffc9a7146101ae57806306fdde03146101de578063081812fc146101fc578063095ea7b31461022c57806323b872dd146102485780632c078e8d14610264575b600080fd5b6101c860048036038101906101c39190612783565b610540565b6040516101d591906127cb565b60405180910390f35b6101e6610622565b6040516101f3919061287f565b60405180910390f35b610216600480360381019061021191906128d7565b6106b4565b6040516102239190612945565b60405180910390f35b6102466004803603810190610241919061298c565b610739565b005b610262600480360381019061025d91906129cc565b610851565b005b61027e600480360381019061027991906128d7565b6108b1565b005b61029a600480360381019061029591906129cc565b610937565b005b6102b660048036038101906102b191906128d7565b610957565b005b6102d260048036038101906102cd9190612c2b565b6109b3565b6040516102df91906127cb565b60405180910390f35b6102f0610ad3565b6040516102fd91906127cb565b60405180910390f35b610320600480360381019061031b91906128d7565b610aea565b60405161032d9190612945565b60405180910390f35b610350600480360381019061034b9190612dff565b610b9c565b60405161035d9190612e3b565b60405180910390f35b61036e610c54565b005b61038a60048036038101906103859190612e94565b610cdc565b005b610394610f47565b6040516103a19190612945565b60405180910390f35b6103b2610f71565b6040516103bf919061287f565b60405180910390f35b6103e260048036038101906103dd9190612eed565b611003565b005b6103fe60048036038101906103f991906128d7565b611184565b005b61041a60048036038101906104159190612f2d565b61120a565b005b61042461126c565b604051610431919061300f565b60405180910390f35b610442611292565b60405161044f9190612e3b565b60405180910390f35b610472600480360381019061046d91906128d7565b611298565b60405161047f919061287f565b60405180910390f35b6104a2600480360381019061049d919061302a565b6112aa565b6040516104af9190612e3b565b60405180910390f35b6104c06112e2565b6040516104cd9190612e3b565b60405180910390f35b6104f060048036038101906104eb9190613086565b6112e8565b6040516104fd91906127cb565b60405180910390f35b61050e61137c565b60405161051b91906130e7565b60405180910390f35b61053e60048036038101906105399190612dff565b6113a2565b005b60007f80ac58cd000000000000000000000000000000000000000000000000000000007bffffffffffffffffffffffffffffffffffffffffffffffffffffffff1916827bffffffffffffffffffffffffffffffffffffffffffffffffffffffff1916148061060b57507f5b5e139f000000000000000000000000000000000000000000000000000000007bffffffffffffffffffffffffffffffffffffffffffffffffffffffff1916827bffffffffffffffffffffffffffffffffffffffffffffffffffffffff1916145b8061061b575061061a8261149a565b5b9050919050565b60606000805461063190613131565b80601f016020809104026020016040519081016040528092919081815260200182805461065d90613131565b80156106aa5780601f1061067f576101008083540402835291602001916106aa565b820191906000526020600020905b81548152906001019060200180831161068d57829003601f168201915b5050505050905090565b60006106bf82611504565b6106fe576040517f08c379a00000000000000000000000000000000000000000000000000000000081526004016106f5906131d5565b60405180910390fd5b6004600083815260200190815260200160002060009054906101000a900473ffffffffffffffffffffffffffffffffffffffff169050919050565b600061074482610aea565b90508073ffffffffffffffffffffffffffffffffffffffff168373ffffffffffffffffffffffffffffffffffffffff1614156107b5576040517f08c379a00000000000000000000000000000000000000000000000000000000081526004016107ac90613267565b60405180910390fd5b8073ffffffffffffffffffffffffffffffffffffffff166107d4611570565b73ffffffffffffffffffffffffffffffffffffffff1614806108035750610802816107fd611570565b6112e8565b5b610842576040517f08c379a0000000000000000000000000000000000000000000000000000000008152600401610839906132f9565b60405180910390fd5b61084c8383611578565b505050565b61086261085c611570565b82611631565b6108a1576040517f08c379a00000000000000000000000000000000000000000000000000000000081526004016108989061338b565b60405180910390fd5b6108ac83838361170f565b505050565b6108b9611570565b73ffffffffffffffffffffffffffffffffffffffff166108d7610f47565b73ffffffffffffffffffffffffffffffffffffffff161461092d576040517f08c379a0000000000000000000000000000000000000000000000000000000008152600401610924906133f7565b60405180910390fd5b80600d8190555050565b6109528383836040518060200160405280600081525061120a565b505050565b610968610962611570565b82611631565b6109a7576040517f08c379a000000000000000000000000000000000000000000000000000000000815260040161099e90613489565b60405180910390fd5b6109b08161196b565b50565b6000600b60009054906101000a900473ffffffffffffffffffffffffffffffffffffffff1673ffffffffffffffffffffffffffffffffffffffff166375130747338e8d426202a30042610a0691906134d8565b8f6040518763ffffffff1660e01b8152600401610a2896959493929190613592565b602060405180830381600087803b158015610a4257600080fd5b505af1158015610a56573d6000803e3d6000fd5b505050506040513d601f19601f82011682018060405250810190610a7a919061360f565b507fa03d9c56c50c3d67209105659032e5df9103605d6976429896d90ab8d6747c6e8c89898989898989604051610ab898979695949392919061363c565b60405180910390a1600190509b9a5050505050505050505050565b6000600660009054906101000a900460ff16905090565b6000806002600084815260200190815260200160002060009054906101000a900473ffffffffffffffffffffffffffffffffffffffff169050600073ffffffffffffffffffffffffffffffffffffffff168173ffffffffffffffffffffffffffffffffffffffff161415610b93576040517f08c379a0000000000000000000000000000000000000000000000000000000008152600401610b8a9061375d565b60405180910390fd5b80915050919050565b60008073ffffffffffffffffffffffffffffffffffffffff168273ffffffffffffffffffffffffffffffffffffffff161415610c0d576040517f08c379a0000000000000000000000000000000000000000000000000000000008152600401610c04906137ef565b60405180910390fd5b600360008373ffffffffffffffffffffffffffffffffffffffff1673ffffffffffffffffffffffffffffffffffffffff168152602001908152602001600020549050919050565b610c5c611570565b73ffffffffffffffffffffffffffffffffffffffff16610c7a610f47565b73ffffffffffffffffffffffffffffffffffffffff1614610cd0576040517f08c379a0000000000000000000000000000000000000000000000000000000008152600401610cc7906133f7565b60405180910390fd5b610cda6000611977565b565b610ce4611570565b73ffffffffffffffffffffffffffffffffffffffff16610d02610f47565b73ffffffffffffffffffffffffffffffffffffffff1614610d58576040517f08c379a0000000000000000000000000000000000000000000000000000000008152600401610d4f906133f7565b60405180910390fd5b6000600a60009054906101000a900473ffffffffffffffffffffffffffffffffffffffff1673ffffffffffffffffffffffffffffffffffffffff166370a08231306040518263ffffffff1660e01b8152600401610db59190612945565b60206040518083038186803b158015610dcd57600080fd5b505afa158015610de1573d6000803e3d6000fd5b505050506040513d601f19601f82011682018060405250810190610e059190613824565b9050600a60009054906101000a900473ffffffffffffffffffffffffffffffffffffffff1673ffffffffffffffffffffffffffffffffffffffff1663a9059cbb83836040518363ffffffff1660e01b8152600401610e64929190613872565b602060405180830381600087803b158015610e7e57600080fd5b505af1158015610e92573d6000803e3d6000fd5b505050506040513d601f19601f82011682018060405250810190610eb6919061360f565b610ef5576040517f08c379a0000000000000000000000000000000000000000000000000000000008152600401610eec906138e7565b60405180910390fd5b8173ffffffffffffffffffffffffffffffffffffffff167f7084f5476618d8e60b11ef0d7d3f06914655adb8793e28ff7f018d4c76d505d582604051610f3b9190612e3b565b60405180910390a25050565b6000600860009054906101000a900473ffffffffffffffffffffffffffffffffffffffff16905090565b606060018054610f8090613131565b80601f0160208091040260200160405190810160405280929190818152602001828054610fac90613131565b8015610ff95780601f10610fce57610100808354040283529160200191610ff9565b820191906000526020600020905b815481529060010190602001808311610fdc57829003601f168201915b5050505050905090565b61100b611570565b73ffffffffffffffffffffffffffffffffffffffff168273ffffffffffffffffffffffffffffffffffffffff161415611079576040517f08c379a000000000000000000000000000000000000000000000000000000000815260040161107090613953565b60405180910390fd5b8060056000611086611570565b73ffffffffffffffffffffffffffffffffffffffff1673ffffffffffffffffffffffffffffffffffffffff16815260200190815260200160002060008473ffffffffffffffffffffffffffffffffffffffff1673ffffffffffffffffffffffffffffffffffffffff16815260200190815260200160002060006101000a81548160ff0219169083151502179055508173ffffffffffffffffffffffffffffffffffffffff16611133611570565b73ffffffffffffffffffffffffffffffffffffffff167f17307eab39ab6107e8899845ad3d59bd9653f200f220920489ca2b5937696c318360405161117891906127cb565b60405180910390a35050565b61118c611570565b73ffffffffffffffffffffffffffffffffffffffff166111aa610f47565b73ffffffffffffffffffffffffffffffffffffffff1614611200576040517f08c379a00000000000000000000000000000000000000000000000000000000081526004016111f7906133f7565b60405180910390fd5b80600c8190555050565b61121b611215611570565b83611631565b61125a576040517f08c379a00000000000000000000000000000000000000000000000000000000081526004016112519061338b565b60405180910390fd5b61126684848484611a3d565b50505050565b600b60009054906101000a900473ffffffffffffffffffffffffffffffffffffffff1681565b600c5481565b60606112a382611a99565b9050919050565b60006112b66009611beb565b60006112c26009611c01565b90506112ce8482611c0f565b6112d88184611c2d565b8091505092915050565b600d5481565b6000600560008473ffffffffffffffffffffffffffffffffffffffff1673ffffffffffffffffffffffffffffffffffffffff16815260200190815260200160002060008373ffffffffffffffffffffffffffffffffffffffff1673ffffffffffffffffffffffffffffffffffffffff16815260200190815260200160002060009054906101000a900460ff16905092915050565b600a60009054906101000a900473ffffffffffffffffffffffffffffffffffffffff1681565b6113aa611570565b73ffffffffffffffffffffffffffffffffffffffff166113c8610f47565b73ffffffffffffffffffffffffffffffffffffffff161461141e576040517f08c379a0000000000000000000000000000000000000000000000000000000008152600401611415906133f7565b60405180910390fd5b600073ffffffffffffffffffffffffffffffffffffffff168173ffffffffffffffffffffffffffffffffffffffff16141561148e576040517f08c379a0000000000000000000000000000000000000000000000000000000008152600401611485906139e5565b60405180910390fd5b61149781611977565b50565b60007f01ffc9a7000000000000000000000000000000000000000000000000000000007bffffffffffffffffffffffffffffffffffffffffffffffffffffffff1916827bffffffffffffffffffffffffffffffffffffffffffffffffffffffff1916149050919050565b60008073ffffffffffffffffffffffffffffffffffffffff166002600084815260200190815260200160002060009054906101000a900473ffffffffffffffffffffffffffffffffffffffff1673ffffffffffffffffffffffffffffffffffffffff1614159050919050565b600033905090565b816004600083815260200190815260200160002060006101000a81548173ffffffffffffffffffffffffffffffffffffffff021916908373ffffffffffffffffffffffffffffffffffffffff160217905550808273ffffffffffffffffffffffffffffffffffffffff166115eb83610aea565b73ffffffffffffffffffffffffffffffffffffffff167f8c5be1e5ebec7d5bd14f71427d1e84f3dd0314c0f7b2291e5b200ac8c7c3b92560405160405180910390a45050565b600061163c82611504565b61167b576040517f08c379a000000000000000000000000000000000000000000000000000000000815260040161167290613a77565b60405180910390fd5b600061168683610aea565b90508073ffffffffffffffffffffffffffffffffffffffff168473ffffffffffffffffffffffffffffffffffffffff1614806116f557508373ffffffffffffffffffffffffffffffffffffffff166116dd846106b4565b73ffffffffffffffffffffffffffffffffffffffff16145b80611706575061170581856112e8565b5b91505092915050565b8273ffffffffffffffffffffffffffffffffffffffff1661172f82610aea565b73ffffffffffffffffffffffffffffffffffffffff1614611785576040517f08c379a000000000000000000000000000000000000000000000000000000000815260040161177c90613b09565b60405180910390fd5b600073ffffffffffffffffffffffffffffffffffffffff168273ffffffffffffffffffffffffffffffffffffffff1614156117f5576040517f08c379a00000000000000000000000000000000000000000000000000000000081526004016117ec90613b9b565b60405180910390fd5b611800838383611ca1565b61180b600082611578565b6001600360008573ffffffffffffffffffffffffffffffffffffffff1673ffffffffffffffffffffffffffffffffffffffff168152602001908152602001600020600082825461185b9190613bbb565b925050819055506001600360008473ffffffffffffffffffffffffffffffffffffffff1673ffffffffffffffffffffffffffffffffffffffff16815260200190815260200160002060008282546118b291906134d8565b92505081905550816002600083815260200190815260200160002060006101000a81548173ffffffffffffffffffffffffffffffffffffffff021916908373ffffffffffffffffffffffffffffffffffffffff160217905550808273ffffffffffffffffffffffffffffffffffffffff168473ffffffffffffffffffffffffffffffffffffffff167fddf252ad1be2c89b69c2b068fc378daa952ba7f163c4a11628f55a4df523b3ef60405160405180910390a4505050565b61197481611d38565b50565b6000600860009054906101000a900473ffffffffffffffffffffffffffffffffffffffff16905081600860006101000a81548173ffffffffffffffffffffffffffffffffffffffff021916908373ffffffffffffffffffffffffffffffffffffffff1602179055508173ffffffffffffffffffffffffffffffffffffffff168173ffffffffffffffffffffffffffffffffffffffff167f8be0079c531659141344cd1fd0a4f28419497f9722a3daafe3b4186f6b6457e060405160405180910390a35050565b611a4884848461170f565b611a5484848484611d8b565b611a93576040517f08c379a0000000000000000000000000000000000000000000000000000000008152600401611a8a90613c61565b60405180910390fd5b50505050565b6060611aa482611504565b611ae3576040517f08c379a0000000000000000000000000000000000000000000000000000000008152600401611ada90613cf3565b60405180910390fd5b6000600760008481526020019081526020016000208054611b0390613131565b80601f0160208091040260200160405190810160405280929190818152602001828054611b2f90613131565b8015611b7c5780601f10611b5157610100808354040283529160200191611b7c565b820191906000526020600020905b815481529060010190602001808311611b5f57829003601f168201915b505050505090506000611b8d611f22565b9050600081511415611ba3578192505050611be6565b600082511115611bd8578082604051602001611bc0929190613d4f565b60405160208183030381529060405292505050611be6565b611be184611f39565b925050505b919050565b6001816000016000828254019250508190555050565b600081600001549050919050565b611c29828260405180602001604052806000815250611fe0565b5050565b611c3682611504565b611c75576040517f08c379a0000000000000000000000000000000000000000000000000000000008152600401611c6c90613de5565b60405180910390fd5b80600760008481526020019081526020016000209080519060200190611c9c929190612634565b505050565b611ca9610ad3565b15611ce9576040517f08c379a0000000000000000000000000000000000000000000000000000000008152600401611ce090613e51565b60405180910390fd5b600073ffffffffffffffffffffffffffffffffffffffff168373ffffffffffffffffffffffffffffffffffffffff161415611d2857611d273361203b565b5b611d33838383612184565b505050565b611d41816121dc565b6000600760008381526020019081526020016000208054611d6190613131565b905014611d8857600760008281526020019081526020016000206000611d8791906126ba565b5b50565b6000611dac8473ffffffffffffffffffffffffffffffffffffffff166122ed565b15611f15578373ffffffffffffffffffffffffffffffffffffffff1663150b7a02611dd5611570565b8786866040518563ffffffff1660e01b8152600401611df79493929190613e71565b602060405180830381600087803b158015611e1157600080fd5b505af1925050508015611e4257506040513d601f19601f82011682018060405250810190611e3f9190613ed2565b60015b611ec5573d8060008114611e72576040519150601f19603f3d011682016040523d82523d6000602084013e611e77565b606091505b50600081511415611ebd576040517f08c379a0000000000000000000000000000000000000000000000000000000008152600401611eb490613c61565b60405180910390fd5b805181602001fd5b63150b7a0260e01b7bffffffffffffffffffffffffffffffffffffffffffffffffffffffff1916817bffffffffffffffffffffffffffffffffffffffffffffffffffffffff191614915050611f1a565b600190505b949350505050565b606060405180602001604052806000815250905090565b6060611f4482611504565b611f83576040517f08c379a0000000000000000000000000000000000000000000000000000000008152600401611f7a90613f71565b60405180910390fd5b6000611f8d611f22565b90506000815111611fad5760405180602001604052806000815250611fd8565b80611fb784612300565b604051602001611fc8929190613d4f565b6040516020818303038152906040525b915050919050565b611fea8383612461565b611ff76000848484611d8b565b612036576040517f08c379a000000000000000000000000000000000000000000000000000000000815260040161202d90613c61565b60405180910390fd5b505050565b600a60009054906101000a900473ffffffffffffffffffffffffffffffffffffffff1673ffffffffffffffffffffffffffffffffffffffff166323b872dd8230600d546040518463ffffffff1660e01b815260040161209c93929190613f91565b602060405180830381600087803b1580156120b657600080fd5b505af11580156120ca573d6000803e3d6000fd5b505050506040513d601f19601f820116820180604052508101906120ee919061360f565b61212d576040517f08c379a00000000000000000000000000000000000000000000000000000000081526004016121249061403a565b60405180910390fd5b8073ffffffffffffffffffffffffffffffffffffffff167fff781da90c6b849a72bafc99aedde3dff0b039f697f31c21e96d587accee2760600d54600c5460405161217992919061405a565b60405180910390a250565b61218f83838361262f565b612197610ad3565b156121d7576040517f08c379a00000000000000000000000000000000000000000000000000000000081526004016121ce906140f5565b60405180910390fd5b505050565b60006121e782610aea565b90506121f581600084611ca1565b612200600083611578565b6001600360008373ffffffffffffffffffffffffffffffffffffffff1673ffffffffffffffffffffffffffffffffffffffff16815260200190815260200160002060008282546122509190613bbb565b925050819055506002600083815260200190815260200160002060006101000a81549073ffffffffffffffffffffffffffffffffffffffff021916905581600073ffffffffffffffffffffffffffffffffffffffff168273ffffffffffffffffffffffffffffffffffffffff167fddf252ad1be2c89b69c2b068fc378daa952ba7f163c4a11628f55a4df523b3ef60405160405180910390a45050565b600080823b905060008111915050919050565b60606000821415612348576040518060400160405280600181526020017f3000000000000000000000000000000000000000000000000000000000000000815250905061245c565b600082905060005b6000821461237a57808061236390614115565b915050600a82612373919061418d565b9150612350565b60008167ffffffffffffffff81111561239657612395612a5f565b5b6040519080825280601f01601f1916602001820160405280156123c85781602001600182028036833780820191505090505b5090505b60008514612455576001826123e19190613bbb565b9150600a856123f091906141be565b60306123fc91906134d8565b60f81b818381518110612412576124116141ef565b5b60200101907effffffffffffffffffffffffffffffffffffffffffffffffffffffffffffff1916908160001a905350600a8561244e919061418d565b94506123cc565b8093505050505b919050565b600073ffffffffffffffffffffffffffffffffffffffff168273ffffffffffffffffffffffffffffffffffffffff1614156124d1576040517f08c379a00000000000000000000000000000000000000000000000000000000081526004016124c89061426a565b60405180910390fd5b6124da81611504565b1561251a576040517f08c379a0000000000000000000000000000000000000000000000000000000008152600401612511906142d6565b60405180910390fd5b61252660008383611ca1565b6001600360008473ffffffffffffffffffffffffffffffffffffffff1673ffffffffffffffffffffffffffffffffffffffff168152602001908152602001600020600082825461257691906134d8565b92505081905550816002600083815260200190815260200160002060006101000a81548173ffffffffffffffffffffffffffffffffffffffff021916908373ffffffffffffffffffffffffffffffffffffffff160217905550808273ffffffffffffffffffffffffffffffffffffffff16600073ffffffffffffffffffffffffffffffffffffffff167fddf252ad1be2c89b69c2b068fc378daa952ba7f163c4a11628f55a4df523b3ef60405160405180910390a45050565b505050565b82805461264090613131565b90600052602060002090601f01602090048101928261266257600085556126a9565b82601f1061267b57805160ff19168380011785556126a9565b828001600101855582156126a9579182015b828111156126a857825182559160200191906001019061268d565b5b5090506126b691906126fa565b5090565b5080546126c690613131565b6000825580601f106126d857506126f7565b601f0160209004906000526020600020908101906126f691906126fa565b5b50565b5b808211156127135760008160009055506001016126fb565b5090565b6000604051905090565b600080fd5b600080fd5b60007fffffffff0000000000000000000000000000000000000000000000000000000082169050919050565b6127608161272b565b811461276b57600080fd5b50565b60008135905061277d81612757565b92915050565b60006020828403121561279957612798612721565b5b60006127a78482850161276e565b91505092915050565b60008115159050919050565b6127c5816127b0565b82525050565b60006020820190506127e060008301846127bc565b92915050565b600081519050919050565b600082825260208201905092915050565b60005b83811015612820578082015181840152602081019050612805565b8381111561282f576000848401525b50505050565b6000601f19601f8301169050919050565b6000612851826127e6565b61285b81856127f1565b935061286b818560208601612802565b61287481612835565b840191505092915050565b600060208201905081810360008301526128998184612846565b905092915050565b6000819050919050565b6128b4816128a1565b81146128bf57600080fd5b50565b6000813590506128d1816128ab565b92915050565b6000602082840312156128ed576128ec612721565b5b60006128fb848285016128c2565b91505092915050565b600073ffffffffffffffffffffffffffffffffffffffff82169050919050565b600061292f82612904565b9050919050565b61293f81612924565b82525050565b600060208201905061295a6000830184612936565b92915050565b61296981612924565b811461297457600080fd5b50565b60008135905061298681612960565b92915050565b600080604083850312156129a3576129a2612721565b5b60006129b185828601612977565b92505060206129c2858286016128c2565b9150509250929050565b6000806000606084860312156129e5576129e4612721565b5b60006129f386828701612977565b9350506020612a0486828701612977565b9250506040612a15868287016128c2565b9150509250925092565b6000819050919050565b612a3281612a1f565b8114612a3d57600080fd5b50565b600081359050612a4f81612a29565b92915050565b600080fd5b600080fd5b7f4e487b7100000000000000000000000000000000000000000000000000000000600052604160045260246000fd5b612a9782612835565b810181811067ffffffffffffffff82111715612ab657612ab5612a5f565b5b80604052505050565b6000612ac9612717565b9050612ad58282612a8e565b919050565b600067ffffffffffffffff821115612af557612af4612a5f565b5b612afe82612835565b9050602081019050919050565b82818337600083830152505050565b6000612b2d612b2884612ada565b612abf565b905082815260208101848484011115612b4957612b48612a5a565b5b612b54848285612b0b565b509392505050565b600082601f830112612b7157612b70612a55565b5b8135612b81848260208601612b1a565b91505092915050565b600067ffffffffffffffff821115612ba557612ba4612a5f565b5b612bae82612835565b9050602081019050919050565b6000612bce612bc984612b8a565b612abf565b905082815260208101848484011115612bea57612be9612a5a565b5b612bf5848285612b0b565b509392505050565b600082601f830112612c1257612c11612a55565b5b8135612c22848260208601612bbb565b91505092915050565b60008060008060008060008060008060006101608c8e031215612c5157612c50612721565b5b6000612c5f8e828f01612977565b9b50506020612c708e828f016128c2565b9a50506040612c818e828f01612a40565b99505060608c013567ffffffffffffffff811115612ca257612ca1612726565b5b612cae8e828f01612b5c565b98505060808c013567ffffffffffffffff811115612ccf57612cce612726565b5b612cdb8e828f01612bfd565b97505060a08c013567ffffffffffffffff811115612cfc57612cfb612726565b5b612d088e828f01612bfd565b96505060c08c013567ffffffffffffffff811115612d2957612d28612726565b5b612d358e828f01612bfd565b95505060e08c013567ffffffffffffffff811115612d5657612d55612726565b5b612d628e828f01612bfd565b9450506101008c013567ffffffffffffffff811115612d8457612d83612726565b5b612d908e828f01612bfd565b9350506101208c013567ffffffffffffffff811115612db257612db1612726565b5b612dbe8e828f01612bfd565b9250506101408c013567ffffffffffffffff811115612de057612ddf612726565b5b612dec8e828f01612bfd565b9150509295989b509295989b9093969950565b600060208284031215612e1557612e14612721565b5b6000612e2384828501612977565b91505092915050565b612e35816128a1565b82525050565b6000602082019050612e506000830184612e2c565b92915050565b6000612e6182612904565b9050919050565b612e7181612e56565b8114612e7c57600080fd5b50565b600081359050612e8e81612e68565b92915050565b600060208284031215612eaa57612ea9612721565b5b6000612eb884828501612e7f565b91505092915050565b612eca816127b0565b8114612ed557600080fd5b50565b600081359050612ee781612ec1565b92915050565b60008060408385031215612f0457612f03612721565b5b6000612f1285828601612977565b9250506020612f2385828601612ed8565b9150509250929050565b60008060008060808587031215612f4757612f46612721565b5b6000612f5587828801612977565b9450506020612f6687828801612977565b9350506040612f77878288016128c2565b925050606085013567ffffffffffffffff811115612f9857612f97612726565b5b612fa487828801612b5c565b91505092959194509250565b6000819050919050565b6000612fd5612fd0612fcb84612904565b612fb0565b612904565b9050919050565b6000612fe782612fba565b9050919050565b6000612ff982612fdc565b9050919050565b61300981612fee565b82525050565b60006020820190506130246000830184613000565b92915050565b6000806040838503121561304157613040612721565b5b600061304f85828601612977565b925050602083013567ffffffffffffffff8111156130705761306f612726565b5b61307c85828601612bfd565b9150509250929050565b6000806040838503121561309d5761309c612721565b5b60006130ab85828601612977565b92505060206130bc85828601612977565b9150509250929050565b60006130d182612fdc565b9050919050565b6130e1816130c6565b82525050565b60006020820190506130fc60008301846130d8565b92915050565b7f4e487b7100000000000000000000000000000000000000000000000000000000600052602260045260246000fd5b6000600282049050600182168061314957607f821691505b6020821081141561315d5761315c613102565b5b50919050565b7f4552433732313a20617070726f76656420717565727920666f72206e6f6e657860008201527f697374656e7420746f6b656e0000000000000000000000000000000000000000602082015250565b60006131bf602c836127f1565b91506131ca82613163565b604082019050919050565b600060208201905081810360008301526131ee816131b2565b9050919050565b7f4552433732313a20617070726f76616c20746f2063757272656e74206f776e6560008201527f7200000000000000000000000000000000000000000000000000000000000000602082015250565b60006132516021836127f1565b915061325c826131f5565b604082019050919050565b6000602082019050818103600083015261328081613244565b9050919050565b7f4552433732313a20617070726f76652063616c6c6572206973206e6f74206f7760008201527f6e6572206e6f7220617070726f76656420666f7220616c6c0000000000000000602082015250565b60006132e36038836127f1565b91506132ee82613287565b604082019050919050565b60006020820190508181036000830152613312816132d6565b9050919050565b7f4552433732313a207472616e736665722063616c6c6572206973206e6f74206f60008201527f776e6572206e6f7220617070726f766564000000000000000000000000000000602082015250565b60006133756031836127f1565b915061338082613319565b604082019050919050565b600060208201905081810360008301526133a481613368565b9050919050565b7f4f776e61626c653a2063616c6c6572206973206e6f7420746865206f776e6572600082015250565b60006133e16020836127f1565b91506133ec826133ab565b602082019050919050565b60006020820190508181036000830152613410816133d4565b9050919050565b7f4552433732314275726e61626c653a2063616c6c6572206973206e6f74206f7760008201527f6e6572206e6f7220617070726f76656400000000000000000000000000000000602082015250565b60006134736030836127f1565b915061347e82613417565b604082019050919050565b600060208201905081810360008301526134a281613466565b9050919050565b7f4e487b7100000000000000000000000000000000000000000000000000000000600052601160045260246000fd5b60006134e3826128a1565b91506134ee836128a1565b9250827fffffffffffffffffffffffffffffffffffffffffffffffffffffffffffffffff03821115613523576135226134a9565b5b828201905092915050565b61353781612a1f565b82525050565b600081519050919050565b600082825260208201905092915050565b60006135648261353d565b61356e8185613548565b935061357e818560208601612802565b61358781612835565b840191505092915050565b600060c0820190506135a76000830189612936565b6135b46020830188612936565b6135c1604083018761352e565b6135ce6060830186612e2c565b6135db6080830185612e2c565b81810360a08301526135ed8184613559565b9050979650505050505050565b60008151905061360981612ec1565b92915050565b60006020828403121561362557613624612721565b5b6000613633848285016135fa565b91505092915050565b600061010082019050613652600083018b612936565b8181036020830152613664818a612846565b905081810360408301526136788189612846565b9050818103606083015261368c8188612846565b905081810360808301526136a08187612846565b905081810360a08301526136b48186612846565b905081810360c08301526136c88185612846565b905081810360e08301526136dc8184612846565b90509998505050505050505050565b7f4552433732313a206f776e657220717565727920666f72206e6f6e657869737460008201527f656e7420746f6b656e0000000000000000000000000000000000000000000000602082015250565b60006137476029836127f1565b9150613752826136eb565b604082019050919050565b600060208201905081810360008301526137768161373a565b9050919050565b7f4552433732313a2062616c616e636520717565727920666f7220746865207a6560008201527f726f206164647265737300000000000000000000000000000000000000000000602082015250565b60006137d9602a836127f1565b91506137e48261377d565b604082019050919050565b60006020820190508181036000830152613808816137cc565b9050919050565b60008151905061381e816128ab565b92915050565b60006020828403121561383a57613839612721565b5b60006138488482850161380f565b91505092915050565b600061385c82612fdc565b9050919050565b61386c81613851565b82525050565b60006040820190506138876000830185613863565b6138946020830184612e2c565b9392505050565b7f5844563a205472616e73666572206661696c6564000000000000000000000000600082015250565b60006138d16014836127f1565b91506138dc8261389b565b602082019050919050565b60006020820190508181036000830152613900816138c4565b9050919050565b7f4552433732313a20617070726f766520746f2063616c6c657200000000000000600082015250565b600061393d6019836127f1565b915061394882613907565b602082019050919050565b6000602082019050818103600083015261396c81613930565b9050919050565b7f4f776e61626c653a206e6577206f776e657220697320746865207a65726f206160008201527f6464726573730000000000000000000000000000000000000000000000000000602082015250565b60006139cf6026836127f1565b91506139da82613973565b604082019050919050565b600060208201905081810360008301526139fe816139c2565b9050919050565b7f4552433732313a206f70657261746f7220717565727920666f72206e6f6e657860008201527f697374656e7420746f6b656e0000000000000000000000000000000000000000602082015250565b6000613a61602c836127f1565b9150613a6c82613a05565b604082019050919050565b60006020820190508181036000830152613a9081613a54565b9050919050565b7f4552433732313a207472616e73666572206f6620746f6b656e2074686174206960008201527f73206e6f74206f776e0000000000000000000000000000000000000000000000602082015250565b6000613af36029836127f1565b9150613afe82613a97565b604082019050919050565b60006020820190508181036000830152613b2281613ae6565b9050919050565b7f4552433732313a207472616e7366657220746f20746865207a65726f2061646460008201527f7265737300000000000000000000000000000000000000000000000000000000602082015250565b6000613b856024836127f1565b9150613b9082613b29565b604082019050919050565b60006020820190508181036000830152613bb481613b78565b9050919050565b6000613bc6826128a1565b9150613bd1836128a1565b925082821015613be457613be36134a9565b5b828203905092915050565b7f4552433732313a207472616e7366657220746f206e6f6e20455243373231526560008201527f63656976657220696d706c656d656e7465720000000000000000000000000000602082015250565b6000613c4b6032836127f1565b9150613c5682613bef565b604082019050919050565b60006020820190508181036000830152613c7a81613c3e565b9050919050565b7f45524337323155524953746f726167653a2055524920717565727920666f722060008201527f6e6f6e6578697374656e7420746f6b656e000000000000000000000000000000602082015250565b6000613cdd6031836127f1565b9150613ce882613c81565b604082019050919050565b60006020820190508181036000830152613d0c81613cd0565b9050919050565b600081905092915050565b6000613d29826127e6565b613d338185613d13565b9350613d43818560208601612802565b80840191505092915050565b6000613d5b8285613d1e565b9150613d678284613d1e565b91508190509392505050565b7f45524337323155524953746f726167653a2055524920736574206f66206e6f6e60008201527f6578697374656e7420746f6b656e000000000000000000000000000000000000602082015250565b6000613dcf602e836127f1565b9150613dda82613d73565b604082019050919050565b60006020820190508181036000830152613dfe81613dc2565b9050919050565b7f5844563a20546f6b656e20657865637574696f6e206973207061757365640000600082015250565b6000613e3b601e836127f1565b9150613e4682613e05565b602082019050919050565b60006020820190508181036000830152613e6a81613e2e565b9050919050565b6000608082019050613e866000830187612936565b613e936020830186612936565b613ea06040830185612e2c565b8181036060830152613eb28184613559565b905095945050505050565b600081519050613ecc81612757565b92915050565b600060208284031215613ee857613ee7612721565b5b6000613ef684828501613ebd565b91505092915050565b7f4552433732314d657461646174613a2055524920717565727920666f72206e6f60008201527f6e6578697374656e7420746f6b656e0000000000000000000000000000000000602082015250565b6000613f5b602f836127f1565b9150613f6682613eff565b604082019050919050565b60006020820190508181036000830152613f8a81613f4e565b9050919050565b6000606082019050613fa66000830186612936565b613fb36020830185612936565b613fc06040830184612e2c565b949350505050565b7f5844563a205472616e73666572206661696c656420666f72207265636970696560008201527f6e74000000000000000000000000000000000000000000000000000000000000602082015250565b60006140246022836127f1565b915061402f82613fc8565b604082019050919050565b6000602082019050818103600083015261405381614017565b9050919050565b600060408201905061406f6000830185612e2c565b61407c6020830184612e2c565b9392505050565b7f4552433732315061757361626c653a20746f6b656e207472616e73666572207760008201527f68696c6520706175736564000000000000000000000000000000000000000000602082015250565b60006140df602b836127f1565b91506140ea82614083565b604082019050919050565b6000602082019050818103600083015261410e816140d2565b9050919050565b6000614120826128a1565b91507fffffffffffffffffffffffffffffffffffffffffffffffffffffffffffffffff821415614153576141526134a9565b5b600182019050919050565b7f4e487b7100000000000000000000000000000000000000000000000000000000600052601260045260246000fd5b6000614198826128a1565b91506141a3836128a1565b9250826141b3576141b261415e565b5b828204905092915050565b60006141c9826128a1565b91506141d4836128a1565b9250826141e4576141e361415e565b5b828206905092915050565b7f4e487b7100000000000000000000000000000000000000000000000000000000600052603260045260246000fd5b7f4552433732313a206d696e7420746f20746865207a65726f2061646472657373600082015250565b60006142546020836127f1565b915061425f8261421e565b602082019050919050565b6000602082019050818103600083015261428381614247565b9050919050565b7f4552433732313a20746f6b656e20616c7265616479206d696e74656400000000600082015250565b60006142c0601c836127f1565b91506142cb8261428a565b602082019050919050565b600060208201905081810360008301526142ef816142b3565b905091905056fea26469706673582212204043d8eeaf3af9c91b022ca7a2c5ae420a1b2e1ca2215bb741f9a0778a922da064736f6c63430008090033",
  "immutableReferences": {},
  "source": "// SPDX-License-Identifier: MIT\npragma solidity ^0.8.0;\n\nimport \"@openzeppelin/contracts/access/Ownable.sol\";\nimport \"@openzeppelin/contracts/token/ERC20/IERC20.sol\";\nimport \"@openzeppelin/contracts/token/ERC721/ERC721.sol\";\nimport \"@openzeppelin/contracts/token/ERC721/extensions/ERC721Burnable.sol\";\nimport \"@openzeppelin/contracts/token/ERC721/extensions/ERC721Pausable.sol\";\nimport \"@openzeppelin/contracts/token/ERC721/extensions/ERC721URIStorage.sol\";\nimport \"@openzeppelin/contracts/utils/Counters.sol\";\nimport \"./ICredentialRegistry.sol\";\n\n//  a NFT secure document \ncontract XDVNFT is ERC721Burnable, ERC721Pausable, ERC721URIStorage, Ownable {\n    using Counters for Counters.Counter;\n    Counters.Counter private _tokenIds;\n    IERC20 public stablecoin;\n    ICredentialRegistry public credentialRegistry;\n    uint256 public serviceFeeForPaymentAddress = 0;\n    uint256 public serviceFeeForContract = 0;\n\n    event Withdrawn(address indexed paymentAddress, uint256 amount);\n    // Ancon EVM Hook\n\tevent _anconCreateMetadata(\n\taddress owner,\n\tstring did,\n\tstring name,\n\tstring description,\n\tstring image,\n\tstring parent,\n\tstring  sources,\n\tstring  links);\n\n    event ServiceFeePaid(\n        address indexed from,\n        uint256 paidToContract,\n        uint256 paidToPaymentAddress\n    );\n\n    /**\n     * XDVNFT Data Token\n     */\n    constructor(\n        string memory name,\n        string memory symbol,\n        address tokenERC20,\n        address credentialAddr\n    ) ERC721(name, symbol) {\n        stablecoin = IERC20(tokenERC20);\n        credentialRegistry = ICredentialRegistry(credentialAddr);\n    }\n\n    function setServiceFeeForPaymentAddress(uint256 _fee) public onlyOwner {\n        serviceFeeForPaymentAddress = _fee;\n    }\n\n    function setServiceFeeForContract(uint256 _fee) public onlyOwner {\n        serviceFeeForContract = _fee;\n    }\n\n    /**\n     * @dev Mints a XDV Data Token\n     */\n    function mint(address user, string memory uri) public returns (uint256) {\n        _tokenIds.increment();\n\n        uint256 newItemId = _tokenIds.current();\n        _safeMint(user, newItemId);\n        _setTokenURI(newItemId, uri);\n\n        return newItemId;\n    }\n\n        // TODO: later lacchain vc eip1812\n    function swap(\n        address user, //owner\n        uint256 chainid,\n        bytes32 credentialHash,\n        bytes memory signature,\n        // MsgMetadata\n        string memory did,\n        string memory name,\n        string memory description,\n        string memory image,\n        string memory parent,\n        // JSON Encoded arrays\n        string memory  sources,\n        string memory  links\n    ) public returns (bool\n        // string memory did, \n        // string memory description, \n        // string memory image, \n        // string memory parent\n    ) {\n\t\n    // swap \n    // user\n    // chainid\n    // vc  lacchain\n    //  register(msg.sender, user, 1h, validfrom, data)\n    credentialRegistry.registerCredential(\n        msg.sender, \n        user, \n        credentialHash, \n        block.timestamp, \n        block.timestamp + 2 days , \n        signature);\n    // metadata(...)\n\n    //logs\n    // log := &ethtypes.Log{\n\t// \tAddress:     common.HexToAddress(\"0xecf8f87f810ecf450940c9f60066b4a7a501d6a7\"),\n\t// \tBlockHash:   common.HexToHash(\"0x656c34545f90a730a19008c0e7a7cd4fb3895064b48d6d69761bd5abad681056\"),\n\t// \tBlockNumber: 2019236,\n\t// \tData:        pck,\n\t// \tIndex:       2,\n\t// \tTxIndex:     3,\n\t// \tTxHash:      common.HexToHash(\"0x3b198bfd5d2907285af009e9ae84a0ecd63677110d89d7e030251acb87f6487e\"),\n\t// \tTopics: []common.Hash{\n\t// \t\tevm_hook_abi.Events[\"_anconCreateMetadata\"].ID,\n\t// \t},\n\t// }\n\n        emit _anconCreateMetadata(user,\n            did,\n            name,\n            description,\n            image,\n            parent,\n            sources,\n            links\n        );\n\n        return true;\n\n    }\n    // supportWith\n\n    /**\n     * @dev Just overrides the superclass' function. Fixes inheritance\n     * source: https://forum.openzeppelin.com/t/how-do-inherit-from-erc721-erc721enumerable-and-erc721uristorage-in-v4-of-openzeppelin-contracts/6656/4\n     */\n    function _burn(uint256 tokenId)\n        internal\n        override(ERC721, ERC721URIStorage)\n    {\n        super._burn(tokenId);\n    }\n\n    /**\n     * @dev Just overrides the superclass' function. Fixes inheritance\n     * source: https://forum.openzeppelin.com/t/how-do-inherit-from-erc721-erc721enumerable-and-erc721uristorage-in-v4-of-openzeppelin-contracts/6656/4\n     */\n    function tokenURI(uint256 tokenId)\n        public\n        view\n        override(ERC721, ERC721URIStorage)\n        returns (string memory)\n    {\n        return super.tokenURI(tokenId);\n    }\n\n    function _beforeTokenTransfer(\n        address from,\n        address to,\n        uint256 tokenId\n    ) internal virtual override(ERC721, ERC721Pausable) {\n        require(!paused(), \"XDV: Token execution is paused\");\n\n        if (from == address(0)) {\n            paymentBeforeMint(msg.sender);\n        }\n\n        super._beforeTokenTransfer(from, to, tokenId);\n    }\n\n    /**\n     * @dev tries to execute the payment when the token is minted.\n     * Reverts if the payment procedure could not be completed.\n     */\n    function paymentBeforeMint(address tokenHolder) internal virtual {\n\n        // Transfer tokens to pay service fee\n        require(\n            stablecoin.transferFrom(\n                tokenHolder,\n                address(this),\n                serviceFeeForContract\n            ),\n            \"XDV: Transfer failed for recipient\"\n        );\n\n        emit ServiceFeePaid(\n            tokenHolder,\n            serviceFeeForContract,\n            serviceFeeForPaymentAddress\n        );\n    }\n\n    function withdrawBalance(address payable payee) public onlyOwner {\n        uint256 balance = stablecoin.balanceOf(address(this));\n\n        require(\n            stablecoin.transfer(payee, balance),\n            \"XDV: Transfer failed\"\n        );\n\n        emit Withdrawn(payee, balance);\n    }\n}\n",
  "sourcePath": "/home/rogelio/Code/ancon-protocol/ethereum/contracts/XDVNFT.sol",
  "compiler": {
    "name": "solc",
    "version": "0.8.9+commit.e5eed63a.Emscripten.clang"
  },
  "schemaVersion": "3.4.3",
  "updatedAt": "2021-10-10T13:09:09.456Z",
  "devdoc": {
    "kind": "dev",
    "methods": {
      "approve(address,uint256)": {
        "details": "See {IERC721-approve}."
      },
      "balanceOf(address)": {
        "details": "See {IERC721-balanceOf}."
      },
      "burn(uint256)": {
        "details": "Burns `tokenId`. See {ERC721-_burn}. Requirements: - The caller must own `tokenId` or be an approved operator."
      },
      "getApproved(uint256)": {
        "details": "See {IERC721-getApproved}."
      },
      "isApprovedForAll(address,address)": {
        "details": "See {IERC721-isApprovedForAll}."
      },
      "mint(address,string)": {
        "details": "Mints a XDV Data Token"
      },
      "name()": {
        "details": "See {IERC721Metadata-name}."
      },
      "owner()": {
        "details": "Returns the address of the current owner."
      },
      "ownerOf(uint256)": {
        "details": "See {IERC721-ownerOf}."
      },
      "paused()": {
        "details": "Returns true if the contract is paused, and false otherwise."
      },
      "renounceOwnership()": {
        "details": "Leaves the contract without owner. It will not be possible to call `onlyOwner` functions anymore. Can only be called by the current owner. NOTE: Renouncing ownership will leave the contract without an owner, thereby removing any functionality that is only available to the owner."
      },
      "safeTransferFrom(address,address,uint256)": {
        "details": "See {IERC721-safeTransferFrom}."
      },
      "safeTransferFrom(address,address,uint256,bytes)": {
        "details": "See {IERC721-safeTransferFrom}."
      },
      "setApprovalForAll(address,bool)": {
        "details": "See {IERC721-setApprovalForAll}."
      },
      "supportsInterface(bytes4)": {
        "details": "See {IERC165-supportsInterface}."
      },
      "symbol()": {
        "details": "See {IERC721Metadata-symbol}."
      },
      "tokenURI(uint256)": {
        "details": "Just overrides the superclass' function. Fixes inheritance source: https://forum.openzeppelin.com/t/how-do-inherit-from-erc721-erc721enumerable-and-erc721uristorage-in-v4-of-openzeppelin-contracts/6656/4"
      },
      "transferFrom(address,address,uint256)": {
        "details": "See {IERC721-transferFrom}."
      },
      "transferOwnership(address)": {
        "details": "Transfers ownership of the contract to a new account (`newOwner`). Can only be called by the current owner."
      }
    },
    "version": 1
  },
  "userdoc": {
    "kind": "user",
    "methods": {
      "constructor": {
        "notice": "XDVNFT Data Token"
      }
    },
    "version": 1
  }
}